{
  "contractName": "DateLib",
  "abi": [
    {
      "inputs": [
        {
          "internalType": "uint256",
          "name": "_timestamp",
          "type": "uint256"
        }
      ],
      "name": "fromTimestamp",
      "outputs": [
        {
          "components": [
            {
              "internalType": "uint16",
              "name": "year",
              "type": "uint16"
            },
            {
              "internalType": "uint8",
              "name": "month",
              "type": "uint8"
            },
            {
              "internalType": "uint8",
              "name": "day",
              "type": "uint8"
            },
            {
              "internalType": "uint8",
              "name": "hour",
              "type": "uint8"
            },
            {
              "internalType": "uint8",
              "name": "minute",
              "type": "uint8"
            },
            {
              "internalType": "uint8",
              "name": "second",
              "type": "uint8"
            },
            {
              "internalType": "uint8",
              "name": "ms",
              "type": "uint8"
            },
            {
              "internalType": "uint8",
              "name": "weekday",
              "type": "uint8"
            }
          ],
          "internalType": "struct DateLib.DateTime",
          "name": "",
          "type": "tuple"
        }
      ],
      "stateMutability": "pure",
      "type": "function",
      "constant": true
    },
    {
      "inputs": [
        {
          "components": [
            {
              "internalType": "uint16",
              "name": "year",
              "type": "uint16"
            },
            {
              "internalType": "uint8",
              "name": "month",
              "type": "uint8"
            },
            {
              "internalType": "uint8",
              "name": "day",
              "type": "uint8"
            },
            {
              "internalType": "uint8",
              "name": "hour",
              "type": "uint8"
            },
            {
              "internalType": "uint8",
              "name": "minute",
              "type": "uint8"
            },
            {
              "internalType": "uint8",
              "name": "second",
              "type": "uint8"
            },
            {
              "internalType": "uint8",
              "name": "ms",
              "type": "uint8"
            },
            {
              "internalType": "uint8",
              "name": "weekday",
              "type": "uint8"
            }
          ],
          "internalType": "struct DateLib.DateTime",
          "name": "_date",
          "type": "tuple"
        }
      ],
      "name": "toUnixTimestamp",
      "outputs": [
        {
          "internalType": "uint256",
          "name": "timestamp",
          "type": "uint256"
        }
      ],
      "stateMutability": "pure",
      "type": "function",
      "constant": true
    }
  ],
  "bytecode": "0x611085610053600b82828239805160001a607314610046577f4e487b7100000000000000000000000000000000000000000000000000000000600052600060045260246000fd5b30600052607381538281f3fe73000000000000000000000000000000000000000030146080604052600436106100405760003560e01c80635ececa4f14610045578063e82a27a414610075575b600080fd5b61005f600480360381019061005a9190610bf7565b6100a5565b60405161006c9190610c3e565b60405180910390f35b61008f600480360381019061008a9190610c85565b610427565b60405161009c9190610d72565b60405180910390f35b6000806107b290505b826000015161ffff168161ffff16101561010d576100cb8161044c565b156100e7576301e28500826100e09190610dbd565b91506100fa565b6301e13380826100f79190610dbd565b91505b808061010590610e13565b9150506100ae565b610115610999565b601f816000600c811061012b5761012a610e3e565b5b602002019060ff16908160ff1681525050610149846000015161044c565b1561017a57601d816001600c811061016457610163610e3e565b5b602002019060ff16908160ff16815250506101a2565b601c816001600c81106101905761018f610e3e565b5b602002019060ff16908160ff16815250505b601f816002600c81106101b8576101b7610e3e565b5b602002019060ff16908160ff1681525050601e816003600c81106101df576101de610e3e565b5b602002019060ff16908160ff1681525050601f816004600c811061020657610205610e3e565b5b602002019060ff16908160ff1681525050601e816005600c811061022d5761022c610e3e565b5b602002019060ff16908160ff1681525050601f816006600c811061025457610253610e3e565b5b602002019060ff16908160ff1681525050601f816007600c811061027b5761027a610e3e565b5b602002019060ff16908160ff1681525050601e816008600c81106102a2576102a1610e3e565b5b602002019060ff16908160ff1681525050601f816009600c81106102c9576102c8610e3e565b5b602002019060ff16908160ff1681525050601e81600a600c81106102f0576102ef610e3e565b5b602002019060ff16908160ff1681525050601f81600b600c811061031757610316610e3e565b5b602002019060ff16908160ff1681525050600191505b836020015160ff168261ffff161015610399578060018361034e9190610e6d565b61ffff16600c811061036357610362610e3e565b5b602002015160ff16620151806103799190610ea1565b836103849190610dbd565b9250818061039190610e13565b92505061032d565b600184604001516103aa9190610efb565b60ff16620151806103bb9190610ea1565b836103c69190610dbd565b9250836060015160ff16610e106103dd9190610ea1565b836103e89190610dbd565b9250836080015160ff16603c6103fe9190610ea1565b836104099190610dbd565b92508360a0015160ff168361041e9190610dbd565b92505050919050565b61042f6109bc565b6104456103e8836104409190610f5e565b6104bb565b9050919050565b60008060048361045c9190610f8f565b61ffff161461046e57600090506104b6565b600060648361047d9190610f8f565b61ffff161461048f57600190506104b6565b60006101908361049f9190610f8f565b61ffff16146104b157600090506104b6565b600190505b919050565b6104c36109bc565b600080806104d0856106cc565b846000019061ffff16908161ffff16815250506104f26107b261ffff166107e3565b610503856000015161ffff166107e3565b61050d9190610fc0565b9150816301e2850061051f9190610ea1565b8361052a9190610dbd565b9250816107b2856000015161053f9190610e6d565b61ffff1661054d9190610fc0565b6301e1338061055c9190610ea1565b836105679190610dbd565b92506000600191505b600c8260ff16116105e757610589828660000151610839565b60ff166201518061059a9190610ea1565b90508584826105a99190610dbd565b11156105c65781856020019060ff16908160ff16815250506105e7565b80846105d29190610dbd565b935081806105df90610ff4565b925050610570565b600191505b6105fe85602001518660000151610839565b60ff168260ff161161065b5785846201518061061a9190610dbd565b11156106375781856040019060ff16908160ff168152505061065b565b62015180846106469190610dbd565b9350818061065390610ff4565b9250506105ec565b61066486610905565b856060019060ff16908160ff168152505061067e86610932565b856080019060ff16908160ff168152505061069886610953565b8560a0019060ff16908160ff16815250506106b286610969565b8560e0019060ff16908160ff168152505050505050919050565b600080600090506000806301e13380856106e69190610f5e565b6107b261ffff166106f79190610dbd565b91506107086107b261ffff166107e3565b6107158361ffff166107e3565b61071f9190610fc0565b9050806301e285006107319190610ea1565b8361073c9190610dbd565b9250806107b28361074d9190610e6d565b61ffff1661075b9190610fc0565b6301e1338061076a9190610ea1565b836107759190610dbd565b92505b848311156107d8576107956001836107909190610e6d565b61044c565b156107b1576301e28500836107aa9190610fc0565b92506107c4565b6301e13380836107c19190610fc0565b92505b6001826107d19190610e6d565b9150610778565b819350505050919050565b6000806001836107f39190610fc0565b9050610190816108039190610f5e565b6064826108109190610f5e565b60048361081d9190610f5e565b6108279190610fc0565b6108319190610dbd565b915050919050565b600060018360ff161480610850575060038360ff16145b8061085e575060058360ff16145b8061086c575060078360ff16145b8061087a575060088360ff16145b806108885750600a8360ff16145b806108965750600c8360ff16145b156108a457601f90506108ff565b60048360ff1614806108b9575060068360ff16145b806108c7575060098360ff16145b806108d55750600b8360ff16145b156108e357601e90506108ff565b6108ec8261044c565b156108fa57601d90506108ff565b601c90505b92915050565b60006018603c80846109179190610f5e565b6109219190610f5e565b61092b919061101e565b9050919050565b6000603c80836109429190610f5e565b61094c919061101e565b9050919050565b6000603c82610962919061101e565b9050919050565b600060076004620151808461097e9190610f5e565b6109889190610dbd565b610992919061101e565b9050919050565b604051806101800160405280600c90602082028036833780820191505090505090565b604051806101000160405280600061ffff168152602001600060ff168152602001600060ff168152602001600060ff168152602001600060ff168152602001600060ff168152602001600060ff168152602001600060ff1681525090565b6000604051905090565b600080fd5b600080fd5b6000601f19601f8301169050919050565b7f4e487b7100000000000000000000000000000000000000000000000000000000600052604160045260246000fd5b610a7782610a2e565b810181811067ffffffffffffffff82111715610a9657610a95610a3f565b5b80604052505050565b6000610aa9610a1a565b9050610ab58282610a6e565b919050565b600061ffff82169050919050565b610ad181610aba565b8114610adc57600080fd5b50565b600081359050610aee81610ac8565b92915050565b600060ff82169050919050565b610b0a81610af4565b8114610b1557600080fd5b50565b600081359050610b2781610b01565b92915050565b60006101008284031215610b4457610b43610a29565b5b610b4f610100610a9f565b90506000610b5f84828501610adf565b6000830152506020610b7384828501610b18565b6020830152506040610b8784828501610b18565b6040830152506060610b9b84828501610b18565b6060830152506080610baf84828501610b18565b60808301525060a0610bc384828501610b18565b60a08301525060c0610bd784828501610b18565b60c08301525060e0610beb84828501610b18565b60e08301525092915050565b60006101008284031215610c0e57610c0d610a24565b5b6000610c1c84828501610b2d565b91505092915050565b6000819050919050565b610c3881610c25565b82525050565b6000602082019050610c536000830184610c2f565b92915050565b610c6281610c25565b8114610c6d57600080fd5b50565b600081359050610c7f81610c59565b92915050565b600060208284031215610c9b57610c9a610a24565b5b6000610ca984828501610c70565b91505092915050565b610cbb81610aba565b82525050565b610cca81610af4565b82525050565b61010082016000820151610ce76000850182610cb2565b506020820151610cfa6020850182610cc1565b506040820151610d0d6040850182610cc1565b506060820151610d206060850182610cc1565b506080820151610d336080850182610cc1565b5060a0820151610d4660a0850182610cc1565b5060c0820151610d5960c0850182610cc1565b5060e0820151610d6c60e0850182610cc1565b50505050565b600061010082019050610d886000830184610cd0565b92915050565b7f4e487b7100000000000000000000000000000000000000000000000000000000600052601160045260246000fd5b6000610dc882610c25565b9150610dd383610c25565b9250827fffffffffffffffffffffffffffffffffffffffffffffffffffffffffffffffff03821115610e0857610e07610d8e565b5b828201905092915050565b6000610e1e82610aba565b915061ffff821415610e3357610e32610d8e565b5b600182019050919050565b7f4e487b7100000000000000000000000000000000000000000000000000000000600052603260045260246000fd5b6000610e7882610aba565b9150610e8383610aba565b925082821015610e9657610e95610d8e565b5b828203905092915050565b6000610eac82610c25565b9150610eb783610c25565b9250817fffffffffffffffffffffffffffffffffffffffffffffffffffffffffffffffff0483118215151615610ef057610eef610d8e565b5b828202905092915050565b6000610f0682610af4565b9150610f1183610af4565b925082821015610f2457610f23610d8e565b5b828203905092915050565b7f4e487b7100000000000000000000000000000000000000000000000000000000600052601260045260246000fd5b6000610f6982610c25565b9150610f7483610c25565b925082610f8457610f83610f2f565b5b828204905092915050565b6000610f9a82610aba565b9150610fa583610aba565b925082610fb557610fb4610f2f565b5b828206905092915050565b6000610fcb82610c25565b9150610fd683610c25565b925082821015610fe957610fe8610d8e565b5b828203905092915050565b6000610fff82610af4565b915060ff82141561101357611012610d8e565b5b600182019050919050565b600061102982610c25565b915061103483610c25565b92508261104457611043610f2f565b5b82820690509291505056fea2646970667358221220fbc3414db50f279f1ace6e9e805029b4e5cc3ed1279df0838c04ccfae4a47d0064736f6c634300080b0033",
  "immutableReferences": {},
  "source": "// SPDX-License-Identifier: MIT\npragma solidity ^0.8.0;\n\nlibrary DateLib {\n    struct DateTime {\n        uint16 year;\n        uint8 month;\n        uint8 day;\n        uint8 hour;\n        uint8 minute;\n        uint8 second;\n        uint8 ms;\n        uint8 weekday;\n    }\n\n    uint constant DAY_IN_SECONDS = 86400;\n    uint constant YEAR_IN_SECONDS = 31536000;\n    uint constant LEAP_YEAR_IN_SECONDS = 31622400;\n\n    uint constant HOUR_IN_SECONDS = 3600;\n    uint constant MINUTE_IN_SECONDS = 60;\n\n    uint16 constant ORIGIN_YEAR = 1970;\n\n    function _getYear(uint _timestamp) private pure returns (uint16) {\n        uint secondsAccountedFor = 0;\n        uint16 year;\n        uint numLeapYears;\n\n        // Year\n        year = uint16(ORIGIN_YEAR + _timestamp / YEAR_IN_SECONDS);\n        numLeapYears = leapYearsBefore(year) - leapYearsBefore(ORIGIN_YEAR);\n\n        secondsAccountedFor += LEAP_YEAR_IN_SECONDS * numLeapYears;\n        secondsAccountedFor += YEAR_IN_SECONDS * (year - ORIGIN_YEAR - numLeapYears);\n\n        while (secondsAccountedFor > _timestamp) {\n            if (isLeapYear(uint16(year - 1))) {\n                secondsAccountedFor -= LEAP_YEAR_IN_SECONDS;\n            }\n            else {\n                secondsAccountedFor -= YEAR_IN_SECONDS;\n            }\n            year -= 1;\n        }\n        return year;\n    }\n\n    function _getMonth(uint _timestamp) private pure returns (uint8) {\n        return fromTimestamp(_timestamp).month;\n    }\n\n    function _getDay(uint _timestamp) private pure returns (uint8) {\n        return fromTimestamp(_timestamp).day;\n    }\n\n    function _getHour(uint _timestamp) private pure returns (uint8) {\n        return uint8((_timestamp / 60 / 60) % 24);\n    }\n\n    function _getMinute(uint _timestamp) private pure returns (uint8) {\n        return uint8((_timestamp / 60) % 60);\n    }\n\n    function _getSecond(uint _timestamp) private pure returns (uint8) {\n        return uint8(_timestamp % 60);\n    }\n\n\n    function getWeekday(uint _timestamp) internal pure returns (uint8) {\n        return uint8((_timestamp / DAY_IN_SECONDS + 4) % 7);\n    }\n\n    function isLeapYear(uint16 _year) internal pure returns (bool) {\n        if (_year % 4 != 0) {\n            return false;\n        }\n        if (_year % 100 != 0) {\n            return true;\n        }\n        if (_year % 400 != 0) {\n            return false;\n        }\n        return true;\n    }\n\n    function leapYearsBefore(uint _year) internal pure returns (uint) {\n        uint year = _year - 1;\n        return year / 4 - year / 100 + year / 400;\n    }\n\n    function getDaysInMonth(uint8 _month, uint16 _year) internal pure returns (uint8) {\n        if (_month == 1 || _month == 3 || _month == 5 || _month == 7 || _month == 8 || _month == 10 || _month == 12) {\n            return 31;\n        }\n        else if (_month == 4 || _month == 6 || _month == 9 || _month == 11) {\n            return 30;\n        }\n        else if (isLeapYear(_year)) {\n            return 29;\n        }\n        else {\n            return 28;\n        }\n    }\n\n    function fromTimestamp(uint _timestamp) public pure returns (DateTime memory) { \n        return fromUnixTimestamp(_timestamp/1000);\n    }\n\n    function fromUnixTimestamp(uint _timestamp) internal pure returns (DateTime memory dt) {\n        uint secondsAccountedFor = 0;\n        uint buf;\n        uint8 i;\n\n        // Year\n        dt.year = _getYear(_timestamp);\n        buf = leapYearsBefore(dt.year) - leapYearsBefore(ORIGIN_YEAR);\n\n        secondsAccountedFor += LEAP_YEAR_IN_SECONDS * buf;\n        secondsAccountedFor += YEAR_IN_SECONDS * (dt.year - ORIGIN_YEAR - buf);\n\n        // Month\n        uint secondsInMonth;\n        for (i = 1; i <= 12; i++) {\n            secondsInMonth = DAY_IN_SECONDS * getDaysInMonth(i, dt.year);\n            if (secondsInMonth + secondsAccountedFor > _timestamp) {\n                dt.month = i;\n                break;\n            }\n            secondsAccountedFor += secondsInMonth;\n        }\n\n        // Day\n        for (i = 1; i <= getDaysInMonth(dt.month, dt.year); i++) {\n            if (DAY_IN_SECONDS + secondsAccountedFor > _timestamp) {\n                dt.day = i;\n                break;\n            }\n            secondsAccountedFor += DAY_IN_SECONDS;\n        }\n\n        // Hour\n        dt.hour = _getHour(_timestamp);\n\n        // Minute\n        dt.minute = _getMinute(_timestamp);\n\n        // Second\n        dt.second = _getSecond(_timestamp);\n\n        // Day of week.\n        dt.weekday = getWeekday(_timestamp);\n    }\n\n    function toTimestamp(DateTime memory _date) internal pure returns (uint timestamp) {\n        uint output = toUnixTimestamp(_date); \n        return output * 1000 + _date.ms;\n    }\n\n    function toUnixTimestamp(DateTime memory _date) public pure returns (uint timestamp) {\n        uint16 i;\n\n        // Year\n        for (i = ORIGIN_YEAR; i < _date.year; i++) {\n            if (isLeapYear(i)) {\n                timestamp += LEAP_YEAR_IN_SECONDS;\n            }\n            else {\n                timestamp += YEAR_IN_SECONDS;\n            }\n        }\n\n        // Month\n        uint8[12] memory monthDayCounts;\n        monthDayCounts[0] = 31;\n        if (isLeapYear(_date.year)) {\n            monthDayCounts[1] = 29;\n        }\n        else {\n            monthDayCounts[1] = 28;\n        }\n        monthDayCounts[2] = 31;\n        monthDayCounts[3] = 30;\n        monthDayCounts[4] = 31;\n        monthDayCounts[5] = 30;\n        monthDayCounts[6] = 31;\n        monthDayCounts[7] = 31;\n        monthDayCounts[8] = 30;\n        monthDayCounts[9] = 31;\n        monthDayCounts[10] = 30;\n        monthDayCounts[11] = 31;\n\n        for (i = 1; i < _date.month; i++) {\n            timestamp += DAY_IN_SECONDS * monthDayCounts[i - 1];\n        }\n\n        // Day\n        timestamp += DAY_IN_SECONDS * (_date.day - 1);\n\n        // Hour\n        timestamp += HOUR_IN_SECONDS * (_date.hour);\n\n        // Minute\n        timestamp += MINUTE_IN_SECONDS * (_date.minute);\n\n        // Second\n        timestamp += _date.second;\n\n        return timestamp;\n    }\n}",
  "sourcePath": "/Users/fernandomaximof/Documents/udacity-projects/project4/contracts/DateLib.sol",
  "compiler": {
    "name": "solc",
    "version": "0.8.11+commit.d7f03943.Emscripten.clang"
  },
  "schemaVersion": "3.4.3",
  "updatedAt": "2022-02-03T09:52:07.056Z",
  "networkType": "ethereum",
  "devdoc": {
    "kind": "dev",
    "methods": {},
    "version": 1
  },
  "userdoc": {
    "kind": "user",
    "methods": {},
    "version": 1
  }
}