{
  "contractName": "FlightSuretyData",
  "abi": [
    {
      "inputs": [],
      "stateMutability": "nonpayable",
      "type": "constructor"
    },
    {
      "anonymous": false,
      "inputs": [
        {
          "indexed": false,
          "internalType": "address",
          "name": "",
          "type": "address"
        }
      ],
      "name": "Acquisition",
      "type": "event"
    },
    {
      "anonymous": false,
      "inputs": [
        {
          "indexed": false,
          "internalType": "address",
          "name": "",
          "type": "address"
        }
      ],
      "name": "Candidate",
      "type": "event"
    },
    {
      "anonymous": false,
      "inputs": [
        {
          "indexed": false,
          "internalType": "address",
          "name": "",
          "type": "address"
        }
      ],
      "name": "Funding",
      "type": "event"
    },
    {
      "anonymous": false,
      "inputs": [
        {
          "indexed": false,
          "internalType": "address",
          "name": "",
          "type": "address"
        }
      ],
      "name": "Payment",
      "type": "event"
    },
    {
      "anonymous": false,
      "inputs": [
        {
          "indexed": false,
          "internalType": "address",
          "name": "",
          "type": "address"
        }
      ],
      "name": "Registration",
      "type": "event"
    },
    {
      "stateMutability": "payable",
      "type": "fallback",
      "payable": true
    },
    {
      "inputs": [
        {
          "internalType": "address",
          "name": "",
          "type": "address"
        }
      ],
      "name": "airlines",
      "outputs": [
        {
          "internalType": "uint256",
          "name": "airlineId",
          "type": "uint256"
        },
        {
          "internalType": "string",
          "name": "airlineName",
          "type": "string"
        },
        {
          "internalType": "address payable",
          "name": "airlineAddress",
          "type": "address"
        },
        {
          "internalType": "bool",
          "name": "registered",
          "type": "bool"
        },
        {
          "internalType": "bool",
          "name": "participant",
          "type": "bool"
        },
        {
          "internalType": "bool",
          "name": "controller",
          "type": "bool"
        },
        {
          "internalType": "uint256",
          "name": "fundAvailable",
          "type": "uint256"
        },
        {
          "internalType": "uint256",
          "name": "fundCommitted",
          "type": "uint256"
        }
      ],
      "stateMutability": "view",
      "type": "function",
      "constant": true
    },
    {
      "stateMutability": "payable",
      "type": "receive",
      "payable": true
    },
    {
      "inputs": [],
      "name": "getFirstAirlineAddress",
      "outputs": [
        {
          "internalType": "address",
          "name": "",
          "type": "address"
        }
      ],
      "stateMutability": "view",
      "type": "function",
      "constant": true
    },
    {
      "inputs": [],
      "name": "kill",
      "outputs": [],
      "stateMutability": "nonpayable",
      "type": "function"
    },
    {
      "inputs": [],
      "name": "isOperational",
      "outputs": [
        {
          "internalType": "bool",
          "name": "",
          "type": "bool"
        }
      ],
      "stateMutability": "view",
      "type": "function",
      "constant": true
    },
    {
      "inputs": [
        {
          "internalType": "address",
          "name": "_caller",
          "type": "address"
        }
      ],
      "name": "authorizeCaller",
      "outputs": [],
      "stateMutability": "nonpayable",
      "type": "function"
    },
    {
      "inputs": [
        {
          "internalType": "address",
          "name": "_caller",
          "type": "address"
        }
      ],
      "name": "isAuthorized",
      "outputs": [
        {
          "internalType": "bool",
          "name": "",
          "type": "bool"
        }
      ],
      "stateMutability": "view",
      "type": "function",
      "constant": true
    },
    {
      "inputs": [
        {
          "internalType": "address",
          "name": "_caller",
          "type": "address"
        }
      ],
      "name": "deAuthorizeCaller",
      "outputs": [],
      "stateMutability": "nonpayable",
      "type": "function"
    },
    {
      "inputs": [
        {
          "internalType": "string",
          "name": "_name",
          "type": "string"
        },
        {
          "internalType": "address",
          "name": "_address",
          "type": "address"
        },
        {
          "internalType": "uint256",
          "name": "_aCounter",
          "type": "uint256"
        },
        {
          "internalType": "bool",
          "name": "_controller",
          "type": "bool"
        }
      ],
      "name": "registerAirline",
      "outputs": [],
      "stateMutability": "nonpayable",
      "type": "function"
    },
    {
      "inputs": [
        {
          "internalType": "address",
          "name": "_address",
          "type": "address"
        }
      ],
      "name": "fund",
      "outputs": [],
      "stateMutability": "payable",
      "type": "function",
      "payable": true
    },
    {
      "inputs": [
        {
          "internalType": "bytes32",
          "name": "_flightKey",
          "type": "bytes32"
        },
        {
          "internalType": "address",
          "name": "_passengerAddress",
          "type": "address"
        },
        {
          "internalType": "address",
          "name": "_airlineAddress",
          "type": "address"
        }
      ],
      "name": "buy",
      "outputs": [],
      "stateMutability": "payable",
      "type": "function",
      "payable": true
    },
    {
      "inputs": [
        {
          "internalType": "address",
          "name": "_passengerAddress",
          "type": "address"
        },
        {
          "internalType": "bytes32",
          "name": "_flightKey",
          "type": "bytes32"
        }
      ],
      "name": "pay",
      "outputs": [],
      "stateMutability": "payable",
      "type": "function",
      "payable": true
    },
    {
      "inputs": [
        {
          "internalType": "address",
          "name": "_airlineAddress",
          "type": "address"
        }
      ],
      "name": "checkAirlines",
      "outputs": [
        {
          "internalType": "string",
          "name": "name_",
          "type": "string"
        },
        {
          "internalType": "address",
          "name": "address_",
          "type": "address"
        },
        {
          "internalType": "bool",
          "name": "registered_",
          "type": "bool"
        },
        {
          "internalType": "bool",
          "name": "participant_",
          "type": "bool"
        },
        {
          "internalType": "bool",
          "name": "controller_",
          "type": "bool"
        },
        {
          "internalType": "uint256",
          "name": "fundavailable_",
          "type": "uint256"
        },
        {
          "internalType": "uint256",
          "name": "fundcommitted_",
          "type": "uint256"
        }
      ],
      "stateMutability": "view",
      "type": "function",
      "constant": true
    },
    {
      "inputs": [
        {
          "internalType": "uint256",
          "name": "_insuranceId",
          "type": "uint256"
        }
      ],
      "name": "checkInsurances",
      "outputs": [
        {
          "internalType": "bytes32",
          "name": "insuranceKey_",
          "type": "bytes32"
        },
        {
          "internalType": "bytes32",
          "name": "flightKey_",
          "type": "bytes32"
        },
        {
          "internalType": "address",
          "name": "passengerAddress_",
          "type": "address"
        },
        {
          "internalType": "uint256",
          "name": "amountPaid_",
          "type": "uint256"
        },
        {
          "internalType": "uint256",
          "name": "amountAvailable_",
          "type": "uint256"
        },
        {
          "internalType": "bool",
          "name": "claimable_",
          "type": "bool"
        },
        {
          "internalType": "bool",
          "name": "active_",
          "type": "bool"
        }
      ],
      "stateMutability": "view",
      "type": "function",
      "constant": true
    },
    {
      "inputs": [
        {
          "internalType": "address",
          "name": "_passengerAddress",
          "type": "address"
        }
      ],
      "name": "checkPassengerInsurances",
      "outputs": [
        {
          "internalType": "bytes32[]",
          "name": "",
          "type": "bytes32[]"
        }
      ],
      "stateMutability": "view",
      "type": "function",
      "constant": true
    },
    {
      "inputs": [
        {
          "internalType": "address",
          "name": "_passengerAddress",
          "type": "address"
        },
        {
          "internalType": "bytes32",
          "name": "_flightKey",
          "type": "bytes32"
        }
      ],
      "name": "checkInsuranceAmountPaid",
      "outputs": [
        {
          "internalType": "uint256",
          "name": "amountPaid_",
          "type": "uint256"
        }
      ],
      "stateMutability": "view",
      "type": "function",
      "constant": true
    }
  ],
  "bytecode": "0x60806040526001600060146101000a81548160ff02191690831515021790555073f258b0a25ee7d6f02a9a1118afdf77cac6d72784600360006101000a81548173ffffffffffffffffffffffffffffffffffffffff021916908373ffffffffffffffffffffffffffffffffffffffff1602179055506040518060400160405280600f81526020017f416972204e6577205a65616c616e64000000000000000000000000000000000081525060049080519060200190620000c19291906200036e565b50348015620000cf57600080fd5b50336000806101000a81548173ffffffffffffffffffffffffffffffffffffffff021916908373ffffffffffffffffffffffffffffffffffffffff160217905550604051806101000160405280600081526020016004805462000132906200044d565b80601f016020809104026020016040519081016040528092919081815260200182805462000160906200044d565b8015620001b15780601f106200018557610100808354040283529160200191620001b1565b820191906000526020600020905b8154815290600101906020018083116200019357829003601f168201915b50505050508152602001600360009054906101000a900473ffffffffffffffffffffffffffffffffffffffff1673ffffffffffffffffffffffffffffffffffffffff16815260200160011515815260200160001515815260200160011515815260200160008152602001600081525060026000600360009054906101000a900473ffffffffffffffffffffffffffffffffffffffff1673ffffffffffffffffffffffffffffffffffffffff1673ffffffffffffffffffffffffffffffffffffffff168152602001908152602001600020600082015181600001556020820151816001019080519060200190620002a99291906200036e565b5060408201518160020160006101000a81548173ffffffffffffffffffffffffffffffffffffffff021916908373ffffffffffffffffffffffffffffffffffffffff16021790555060608201518160020160146101000a81548160ff02191690831515021790555060808201518160020160156101000a81548160ff02191690831515021790555060a08201518160020160166101000a81548160ff02191690831515021790555060c0820151816003015560e0820151816004015590505062000483565b8280546200037c906200044d565b90600052602060002090601f016020900481019282620003a05760008555620003ec565b82601f10620003bb57805160ff1916838001178555620003ec565b82800160010185558215620003ec579182015b82811115620003eb578251825591602001919060010190620003ce565b5b509050620003fb9190620003ff565b5090565b5b808211156200041a57600081600090555060010162000400565b5090565b7f4e487b7100000000000000000000000000000000000000000000000000000000600052602260045260246000fd5b600060028204905060018216806200046657607f821691505b602082108114156200047d576200047c6200041e565b5b50919050565b6129a580620004936000396000f3fe6080604052600436106100ec5760003560e01c8063b59828031161008a578063edeb6c3a11610059578063edeb6c3a146102d9578063fe9fbb801461031c578063ff12976314610359578063ffc2ec9a14610396576100f3565b8063b598280314610217578063b85a9e6114610242578063cd905dff1461026b578063e188ac9814610296576100f3565b806341684769116100c6578063416847691461016357806341c0e1b5146101a757806346f8f304146101be57806348c17478146101da576100f3565b80631bcd250a146100f5578063230244081461011e5780632c388d5d1461013a576100f3565b366100f357005b005b34801561010157600080fd5b5061011c60048036038101906101179190611c67565b6103b2565b005b61013860048036038101906101339190611c67565b61049b565b005b34801561014657600080fd5b50610161600480360381019061015c9190611c67565b6106c4565b005b34801561016f57600080fd5b5061018a60048036038101906101859190611c67565b6107ac565b60405161019e989796959493929190611d82565b60405180910390f35b3480156101b357600080fd5b506101bc6108c3565b005b6101d860048036038101906101d39190611e3d565b6109e0565b005b3480156101e657600080fd5b5061020160048036038101906101fc9190611e3d565b610a9f565b60405161020e9190611e7d565b60405180910390f35b34801561022357600080fd5b5061022c610b75565b6040516102399190611ea7565b60405180910390f35b34801561024e57600080fd5b506102696004803603810190610264919061204f565b610b9f565b005b34801561027757600080fd5b50610280610e3c565b60405161028d91906120d2565b60405180910390f35b3480156102a257600080fd5b506102bd60048036038101906102b89190611c67565b610e52565b6040516102d097969594939291906120ed565b60405180910390f35b3480156102e557600080fd5b5061030060048036038101906102fb9190612163565b6111ff565b604051610313979695949392919061219f565b60405180910390f35b34801561032857600080fd5b50610343600480360381019061033e9190611c67565b61143f565b60405161035091906120d2565b60405180910390f35b34801561036557600080fd5b50610380600480360381019061037b9190611c67565b611495565b60405161038d91906122cc565b60405180910390f35b6103b060048036038101906103ab91906122ee565b61160e565b005b60008054906101000a900473ffffffffffffffffffffffffffffffffffffffff1673ffffffffffffffffffffffffffffffffffffffff163373ffffffffffffffffffffffffffffffffffffffff1614610440576040517f08c379a00000000000000000000000000000000000000000000000000000000081526004016104379061238d565b60405180910390fd5b6000600160008373ffffffffffffffffffffffffffffffffffffffff1673ffffffffffffffffffffffffffffffffffffffff16815260200190815260200160002060006101000a81548160ff02191690831515021790555050565b678ac7230489e80000803410156104e7576040517f08c379a00000000000000000000000000000000000000000000000000000000081526004016104de906123f9565b60405180910390fd5b678ac7230489e800003414610531576040517f08c379a00000000000000000000000000000000000000000000000000000000081526004016105289061248b565b60405180910390fd5b600060149054906101000a900460ff16610580576040517f08c379a00000000000000000000000000000000000000000000000000000000081526004016105779061251d565b60405180910390fd5b60008054906101000a900473ffffffffffffffffffffffffffffffffffffffff1673ffffffffffffffffffffffffffffffffffffffff166108fc349081150290604051600060405180830381858888f193505050501580156105e6573d6000803e3d6000fd5b506001600260008473ffffffffffffffffffffffffffffffffffffffff1673ffffffffffffffffffffffffffffffffffffffff16815260200190815260200160002060020160156101000a81548160ff02191690831515021790555034600260008473ffffffffffffffffffffffffffffffffffffffff1673ffffffffffffffffffffffffffffffffffffffff168152602001908152602001600020600301819055507f74fd33b93b98017671fda1e0c45b783f7e31895388503a3959006c338043daf5826040516106b89190611ea7565b60405180910390a15050565b60008054906101000a900473ffffffffffffffffffffffffffffffffffffffff1673ffffffffffffffffffffffffffffffffffffffff163373ffffffffffffffffffffffffffffffffffffffff1614610752576040517f08c379a00000000000000000000000000000000000000000000000000000000081526004016107499061238d565b60405180910390fd5b60018060008373ffffffffffffffffffffffffffffffffffffffff1673ffffffffffffffffffffffffffffffffffffffff16815260200190815260200160002060006101000a81548160ff02191690831515021790555050565b60026020528060005260406000206000915090508060000154908060010180546107d59061256c565b80601f01602080910402602001604051908101604052809291908181526020018280546108019061256c565b801561084e5780601f106108235761010080835404028352916020019161084e565b820191906000526020600020905b81548152906001019060200180831161083157829003601f168201915b5050505050908060020160009054906101000a900473ffffffffffffffffffffffffffffffffffffffff16908060020160149054906101000a900460ff16908060020160159054906101000a900460ff16908060020160169054906101000a900460ff16908060030154908060040154905088565b60008054906101000a900473ffffffffffffffffffffffffffffffffffffffff1673ffffffffffffffffffffffffffffffffffffffff163373ffffffffffffffffffffffffffffffffffffffff1614610951576040517f08c379a00000000000000000000000000000000000000000000000000000000081526004016109489061238d565b60405180910390fd5b60008054906101000a900473ffffffffffffffffffffffffffffffffffffffff1673ffffffffffffffffffffffffffffffffffffffff163373ffffffffffffffffffffffffffffffffffffffff1614156109de5760008054906101000a900473ffffffffffffffffffffffffffffffffffffffff1673ffffffffffffffffffffffffffffffffffffffff16ff5b565b600060149054906101000a900460ff16610a2f576040517f08c379a0000000000000000000000000000000000000000000000000000000008152600401610a269061251d565b60405180910390fd5b6000610a3b8383611abb565b90508273ffffffffffffffffffffffffffffffffffffffff166108fc60056000848152602001908152602001600020600401549081150290604051600060405180830381858888f19350505050158015610a99573d6000803e3d6000fd5b50505050565b60008060149054906101000a900460ff16610aef576040517f08c379a0000000000000000000000000000000000000000000000000000000008152600401610ae69061251d565b60405180910390fd5b6000610afb8484611abb565b905082600560008381526020019081526020016000206001015414610b55576040517f08c379a0000000000000000000000000000000000000000000000000000000008152600401610b4c906125ea565b60405180910390fd5b600560008281526020019081526020016000206003015491505092915050565b6000600360009054906101000a900473ffffffffffffffffffffffffffffffffffffffff16905090565b60011515600160003373ffffffffffffffffffffffffffffffffffffffff1673ffffffffffffffffffffffffffffffffffffffff16815260200190815260200160002060009054906101000a900460ff16151514610c32576040517f08c379a0000000000000000000000000000000000000000000000000000000008152600401610c2990612656565b60405180910390fd5b600060149054906101000a900460ff16610c81576040517f08c379a0000000000000000000000000000000000000000000000000000000008152600401610c789061251d565b60405180910390fd5b6040518061010001604052808381526020018581526020018473ffffffffffffffffffffffffffffffffffffffff1681526020016001151581526020016000151581526020018215158152602001600081526020016000815250600260008573ffffffffffffffffffffffffffffffffffffffff1673ffffffffffffffffffffffffffffffffffffffff168152602001908152602001600020600082015181600001556020820151816001019080519060200190610d40929190611b52565b5060408201518160020160006101000a81548173ffffffffffffffffffffffffffffffffffffffff021916908373ffffffffffffffffffffffffffffffffffffffff16021790555060608201518160020160146101000a81548160ff02191690831515021790555060808201518160020160156101000a81548160ff02191690831515021790555060a08201518160020160166101000a81548160ff02191690831515021790555060c0820151816003015560e082015181600401559050507f478f5152d8fc568db3f8de9fb402fd9d98a1a7541ecfe434e59cf574fbfc552483604051610e2e9190611ea7565b60405180910390a150505050565b60008060149054906101000a900460ff16905090565b606060008060008060008060011515600160003373ffffffffffffffffffffffffffffffffffffffff1673ffffffffffffffffffffffffffffffffffffffff16815260200190815260200160002060009054906101000a900460ff16151514610ef0576040517f08c379a0000000000000000000000000000000000000000000000000000000008152600401610ee790612656565b60405180910390fd5b600060149054906101000a900460ff16610f3f576040517f08c379a0000000000000000000000000000000000000000000000000000000008152600401610f369061251d565b60405180910390fd5b600260008973ffffffffffffffffffffffffffffffffffffffff1673ffffffffffffffffffffffffffffffffffffffff168152602001908152602001600020600101600260008a73ffffffffffffffffffffffffffffffffffffffff1673ffffffffffffffffffffffffffffffffffffffff16815260200190815260200160002060020160009054906101000a900473ffffffffffffffffffffffffffffffffffffffff16600260008b73ffffffffffffffffffffffffffffffffffffffff1673ffffffffffffffffffffffffffffffffffffffff16815260200190815260200160002060020160149054906101000a900460ff16600260008c73ffffffffffffffffffffffffffffffffffffffff1673ffffffffffffffffffffffffffffffffffffffff16815260200190815260200160002060020160159054906101000a900460ff16600260008d73ffffffffffffffffffffffffffffffffffffffff1673ffffffffffffffffffffffffffffffffffffffff16815260200190815260200160002060020160169054906101000a900460ff16600260008e73ffffffffffffffffffffffffffffffffffffffff1673ffffffffffffffffffffffffffffffffffffffff16815260200190815260200160002060030154600260008f73ffffffffffffffffffffffffffffffffffffffff1673ffffffffffffffffffffffffffffffffffffffff168152602001908152602001600020600401548680546111669061256c565b80601f01602080910402602001604051908101604052809291908181526020018280546111929061256c565b80156111df5780601f106111b4576101008083540402835291602001916111df565b820191906000526020600020905b8154815290600101906020018083116111c257829003601f168201915b505050505096509650965096509650965096509650919395979092949650565b600080600080600080600060011515600160003373ffffffffffffffffffffffffffffffffffffffff1673ffffffffffffffffffffffffffffffffffffffff16815260200190815260200160002060009054906101000a900460ff1615151461129d576040517f08c379a000000000000000000000000000000000000000000000000000000000815260040161129490612656565b60405180910390fd5b600060149054906101000a900460ff166112ec576040517f08c379a00000000000000000000000000000000000000000000000000000000081526004016112e39061251d565b60405180910390fd5b6000600660008a81526020019081526020016000205490506000801b60056000838152602001908152602001600020600101541415611360576040517f08c379a0000000000000000000000000000000000000000000000000000000008152600401611357906125ea565b60405180910390fd5b8060056000838152602001908152602001600020600101546005600084815260200190815260200160002060020160009054906101000a900473ffffffffffffffffffffffffffffffffffffffff16600560008581526020019081526020016000206003015460056000868152602001908152602001600020600401546005600087815260200190815260200160002060050160009054906101000a900460ff166005600088815260200190815260200160002060050160019054906101000a900460ff16975097509750975097509750975050919395979092949650565b6000600160008373ffffffffffffffffffffffffffffffffffffffff1673ffffffffffffffffffffffffffffffffffffffff16815260200190815260200160002060009054906101000a900460ff169050919050565b606060011515600160003373ffffffffffffffffffffffffffffffffffffffff1673ffffffffffffffffffffffffffffffffffffffff16815260200190815260200160002060009054906101000a900460ff1615151461152a576040517f08c379a000000000000000000000000000000000000000000000000000000000815260040161152190612656565b60405180910390fd5b600060149054906101000a900460ff16611579576040517f08c379a00000000000000000000000000000000000000000000000000000000081526004016115709061251d565b60405180910390fd5b600760008373ffffffffffffffffffffffffffffffffffffffff1673ffffffffffffffffffffffffffffffffffffffff16815260200190815260200160002080548060200260200160405190810160405280929190818152602001828054801561160257602002820191906000526020600020905b8154815260200190600101908083116115ee575b50505050509050919050565b633b9aca00341015801561162a5750670de0b6b3a76400003411155b611669576040517f08c379a0000000000000000000000000000000000000000000000000000000008152600401611660906126e8565b60405180910390fd5b60011515600160003373ffffffffffffffffffffffffffffffffffffffff1673ffffffffffffffffffffffffffffffffffffffff16815260200190815260200160002060009054906101000a900460ff161515146116fc576040517f08c379a00000000000000000000000000000000000000000000000000000000081526004016116f390612656565b60405180910390fd5b600060149054906101000a900460ff1661174b576040517f08c379a00000000000000000000000000000000000000000000000000000000081526004016117429061251d565b60405180910390fd5b60006117578385611abb565b905083600560008381526020019081526020016000206001015414156117b2576040517f08c379a00000000000000000000000000000000000000000000000000000000081526004016117a99061277a565b60405180910390fd5b60008054906101000a900473ffffffffffffffffffffffffffffffffffffffff1673ffffffffffffffffffffffffffffffffffffffff166108fc349081150290604051600060405180830381858888f19350505050158015611818573d6000803e3d6000fd5b506008600081548092919061182c906127c9565b91905055506040518060e0016040528060085481526020018581526020018473ffffffffffffffffffffffffffffffffffffffff168152602001348152602001600081526020016000151581526020016001151581525060056000838152602001908152602001600020600082015181600001556020820151816001015560408201518160020160006101000a81548173ffffffffffffffffffffffffffffffffffffffff021916908373ffffffffffffffffffffffffffffffffffffffff160217905550606082015181600301556080820151816004015560a08201518160050160006101000a81548160ff02191690831515021790555060c08201518160050160016101000a81548160ff0219169083151502179055509050508060066000600854815260200190815260200160002081905550600760008473ffffffffffffffffffffffffffffffffffffffff1673ffffffffffffffffffffffffffffffffffffffff168152602001908152602001600020819080600181540180825580915050600190039060005260206000200160009091909190915055611a14600260008473ffffffffffffffffffffffffffffffffffffffff1673ffffffffffffffffffffffffffffffffffffffff1681526020019081526020016000206003015434611b10565b600260008473ffffffffffffffffffffffffffffffffffffffff1673ffffffffffffffffffffffffffffffffffffffff16815260200190815260200160002060030181905550611a6f611a6834600f611b26565b600a611b3c565b600260008473ffffffffffffffffffffffffffffffffffffffff1673ffffffffffffffffffffffffffffffffffffffff1681526020019081526020016000206004018190555050505050565b60008060608473ffffffffffffffffffffffffffffffffffffffff16901b60001b90508083604051602001611af1929190612833565b6040516020818303038152906040528051906020012091505092915050565b60008183611b1e919061285f565b905092915050565b60008183611b3491906128b5565b905092915050565b60008183611b4a919061293e565b905092915050565b828054611b5e9061256c565b90600052602060002090601f016020900481019282611b805760008555611bc7565b82601f10611b9957805160ff1916838001178555611bc7565b82800160010185558215611bc7579182015b82811115611bc6578251825591602001919060010190611bab565b5b509050611bd49190611bd8565b5090565b5b80821115611bf1576000816000905550600101611bd9565b5090565b6000604051905090565b600080fd5b600080fd5b600073ffffffffffffffffffffffffffffffffffffffff82169050919050565b6000611c3482611c09565b9050919050565b611c4481611c29565b8114611c4f57600080fd5b50565b600081359050611c6181611c3b565b92915050565b600060208284031215611c7d57611c7c611bff565b5b6000611c8b84828501611c52565b91505092915050565b6000819050919050565b611ca781611c94565b82525050565b600081519050919050565b600082825260208201905092915050565b60005b83811015611ce7578082015181840152602081019050611ccc565b83811115611cf6576000848401525b50505050565b6000601f19601f8301169050919050565b6000611d1882611cad565b611d228185611cb8565b9350611d32818560208601611cc9565b611d3b81611cfc565b840191505092915050565b6000611d5182611c09565b9050919050565b611d6181611d46565b82525050565b60008115159050919050565b611d7c81611d67565b82525050565b600061010082019050611d98600083018b611c9e565b8181036020830152611daa818a611d0d565b9050611db96040830189611d58565b611dc66060830188611d73565b611dd36080830187611d73565b611de060a0830186611d73565b611ded60c0830185611c9e565b611dfa60e0830184611c9e565b9998505050505050505050565b6000819050919050565b611e1a81611e07565b8114611e2557600080fd5b50565b600081359050611e3781611e11565b92915050565b60008060408385031215611e5457611e53611bff565b5b6000611e6285828601611c52565b9250506020611e7385828601611e28565b9150509250929050565b6000602082019050611e926000830184611c9e565b92915050565b611ea181611c29565b82525050565b6000602082019050611ebc6000830184611e98565b92915050565b600080fd5b600080fd5b7f4e487b7100000000000000000000000000000000000000000000000000000000600052604160045260246000fd5b611f0482611cfc565b810181811067ffffffffffffffff82111715611f2357611f22611ecc565b5b80604052505050565b6000611f36611bf5565b9050611f428282611efb565b919050565b600067ffffffffffffffff821115611f6257611f61611ecc565b5b611f6b82611cfc565b9050602081019050919050565b82818337600083830152505050565b6000611f9a611f9584611f47565b611f2c565b905082815260208101848484011115611fb657611fb5611ec7565b5b611fc1848285611f78565b509392505050565b600082601f830112611fde57611fdd611ec2565b5b8135611fee848260208601611f87565b91505092915050565b61200081611c94565b811461200b57600080fd5b50565b60008135905061201d81611ff7565b92915050565b61202c81611d67565b811461203757600080fd5b50565b60008135905061204981612023565b92915050565b6000806000806080858703121561206957612068611bff565b5b600085013567ffffffffffffffff81111561208757612086611c04565b5b61209387828801611fc9565b94505060206120a487828801611c52565b93505060406120b58782880161200e565b92505060606120c68782880161203a565b91505092959194509250565b60006020820190506120e76000830184611d73565b92915050565b600060e0820190508181036000830152612107818a611d0d565b90506121166020830189611e98565b6121236040830188611d73565b6121306060830187611d73565b61213d6080830186611d73565b61214a60a0830185611c9e565b61215760c0830184611c9e565b98975050505050505050565b60006020828403121561217957612178611bff565b5b60006121878482850161200e565b91505092915050565b61219981611e07565b82525050565b600060e0820190506121b4600083018a612190565b6121c16020830189612190565b6121ce6040830188611e98565b6121db6060830187611c9e565b6121e86080830186611c9e565b6121f560a0830185611d73565b61220260c0830184611d73565b98975050505050505050565b600081519050919050565b600082825260208201905092915050565b6000819050602082019050919050565b61224381611e07565b82525050565b6000612255838361223a565b60208301905092915050565b6000602082019050919050565b60006122798261220e565b6122838185612219565b935061228e8361222a565b8060005b838110156122bf5781516122a68882612249565b97506122b183612261565b925050600181019050612292565b5085935050505092915050565b600060208201905081810360008301526122e6818461226e565b905092915050565b60008060006060848603121561230757612306611bff565b5b600061231586828701611e28565b935050602061232686828701611c52565b925050604061233786828701611c52565b9150509250925092565b7f43414c4c4552204953204e4f5420434f4e5452414354204f574e455200000000600082015250565b6000612377601c83611cb8565b915061238282612341565b602082019050919050565b600060208201905081810360008301526123a68161236a565b9050919050565b7f414d4f554e54204953204e4f5420454e4f554748540000000000000000000000600082015250565b60006123e3601583611cb8565b91506123ee826123ad565b602082019050919050565b60006020820190508181036000830152612412816123d6565b9050919050565b7f4149524c494e45204d555354205452414e534645522045584143544c5920313060008201527f2045544845525300000000000000000000000000000000000000000000000000602082015250565b6000612475602783611cb8565b915061248082612419565b604082019050919050565b600060208201905081810360008301526124a481612468565b9050919050565b7f434f4e54524143542049532043555252454e544c59204e4f54204f504552415460008201527f494f4e414c000000000000000000000000000000000000000000000000000000602082015250565b6000612507602583611cb8565b9150612512826124ab565b604082019050919050565b60006020820190508181036000830152612536816124fa565b9050919050565b7f4e487b7100000000000000000000000000000000000000000000000000000000600052602260045260246000fd5b6000600282049050600182168061258457607f821691505b602082108114156125985761259761253d565b5b50919050565b7f4552524f523a20494e535552414e4345204e4f5420464f554e44000000000000600082015250565b60006125d4601a83611cb8565b91506125df8261259e565b602082019050919050565b60006020820190508181036000830152612603816125c7565b9050919050565b7f43616c6c6572206973206e6f7420617574686f72697a65640000000000000000600082015250565b6000612640601883611cb8565b915061264b8261260a565b602082019050919050565b6000602082019050818103600083015261266f81612633565b9050919050565b7f43414c4c4552204d555354205350454e44204245545745454e2031204757454960008201527f20414e4420312045544845520000000000000000000000000000000000000000602082015250565b60006126d2602c83611cb8565b91506126dd82612676565b604082019050919050565b60006020820190508181036000830152612701816126c5565b9050919050565b7f4552524f523a2050415353454e47455220414c524541445920424f554748542060008201527f5448495320464c4947485420494e535552414e43450000000000000000000000602082015250565b6000612764603583611cb8565b915061276f82612708565b604082019050919050565b6000602082019050818103600083015261279381612757565b9050919050565b7f4e487b7100000000000000000000000000000000000000000000000000000000600052601160045260246000fd5b60006127d482611c94565b91507fffffffffffffffffffffffffffffffffffffffffffffffffffffffffffffffff8214156128075761280661279a565b5b600182019050919050565b6000819050919050565b61282d61282882611e07565b612812565b82525050565b600061283f828561281c565b60208201915061284f828461281c565b6020820191508190509392505050565b600061286a82611c94565b915061287583611c94565b9250827fffffffffffffffffffffffffffffffffffffffffffffffffffffffffffffffff038211156128aa576128a961279a565b5b828201905092915050565b60006128c082611c94565b91506128cb83611c94565b9250817fffffffffffffffffffffffffffffffffffffffffffffffffffffffffffffffff04831182151516156129045761290361279a565b5b828202905092915050565b7f4e487b7100000000000000000000000000000000000000000000000000000000600052601260045260246000fd5b600061294982611c94565b915061295483611c94565b9250826129645761296361290f565b5b82820490509291505056fea2646970667358221220f76230dcc31eb2883ac5a49f3195f051f13dd5f35fe528b1e23c18dbb5417cfd64736f6c634300080b0033",
  "immutableReferences": {},
  "source": "// SPDX-License-Identifier: MIT\npragma solidity ^0.8.0;\n\nimport \"@openzeppelin/contracts/utils/math/SafeMath.sol\";\n\ncontract FlightSuretyData {\n\n    address payable contractOwner;              // ACCOUNT USED TO DEPLOY CONTRACT\n    bool private operational = true;            // BLOCKS ALL STATE CHANGES THROUGHOUT THE CONTRACT IF FALSE\n\n    mapping(address => bool) AuthorizedCallers; //AUTHORIZED CALLERS \n    \n    using SafeMath for uint256;                 //LIBRARY USED TO EXECUTE MATH OPERATIONS\n\n\n    /********************************************************************************************/\n    /*                                      AIRLINE VARIABLES                                   */\n    /********************************************************************************************/\n    struct Airline {\n        uint            airlineId;\n        string          airlineName;\n        address payable airlineAddress;\n        bool            registered;\n        bool            participant;\n        bool            controller;\n        uint            fundAvailable;\n        uint            fundCommitted;\n    }\n    mapping(address => Airline) public airlines;\n\n    address _firstAirlineAddress = 0xF258b0a25eE7D6f02a9a1118afdF77CaC6D72784;\n    string _firstName = \"Air New Zealand\";\n\n\n    /********************************************************************************************/\n    /*                                  INSURANCE VARIABLES                                     */\n    /********************************************************************************************/\n    struct Insurance {\n        uint            insuranceId;\n        bytes32         flightKey;\n        address payable passengerAddress;\n        uint            amountPaid;\n        uint            amountAvailable;\n        bool            claimable;\n        bool            active;\n    }\n    mapping(bytes32 => Insurance) insurances;\n    mapping(uint => bytes32) insurancesReverse;\n    mapping(address => bytes32[]) passengerInsurances;\n    uint iCounter;\n\n\n    /********************************************************************************************/\n    /*                                       EVENT DEFINITIONS                                  */\n    /********************************************************************************************/\n    event Registration(address);\n    event Candidate(address);\n    event Funding(address);\n    event Acquisition(address);\n    event Payment(address);\n\n\n    /********************************************************************************************/\n    /*                                       FUNCTION MODIFIERS                                 */\n    /********************************************************************************************/\n    modifier requireIsOperational() {\n        require(operational, \"CONTRACT IS CURRENTLY NOT OPERATIONAL\");\n        _;\n    }\n\n    modifier verifyCaller(address _address) {\n        require(msg.sender == _address, \"CALLER IS NOT ALLOWED TO EXECUTE FUNCTION\"); \n        _;\n    }\n\n    modifier requireContractOwner() {\n        require(msg.sender == contractOwner, \"CALLER IS NOT CONTRACT OWNER\");\n        _;\n    }\n\n    modifier requireAuthorizedCaller(){\n        require(AuthorizedCallers[msg.sender] == true, \"Caller is not authorized\");\n        _;\n    }\n\n    modifier paidEnough(uint _price) { \n        require(msg.value >= _price, \"AMOUNT IS NOT ENOUGHT\"); \n        _;\n    }\n  \n    modifier checkParticipantValue() {\n        require(msg.value == 10 ether, \"AIRLINE MUST TRANSFER EXACTLY 10 ETHERS\");\n        _;\n    }\n\n    modifier checkPassengerValue() {\n        require(msg.value >= 1 gwei && msg.value <= 1 ether, \"CALLER MUST SPEND BETWEEN 1 GWEI AND 1 ETHER\");\n        _;\n    }\n\n\n    /********************************************************************************************/\n    /*                                       CONSTRUCTOR DEFINITION                             */\n    /********************************************************************************************/    \n    /* The deploying account becomes contractOwner */\n    constructor() {\n        contractOwner = payable(msg.sender);\n        airlines[_firstAirlineAddress] = Airline(\n            {\n                airlineId: 0,\n                airlineName: _firstName,\n                airlineAddress: payable(_firstAirlineAddress),\n                registered: true,\n                participant: false,\n                controller: true,\n                fundAvailable: 0,\n                fundCommitted: 0\n            });\n\n    }\n\n    function getFirstAirlineAddress() external view returns(address){\n        return _firstAirlineAddress;\n    }\n\n\n    /********************************************************************************************/\n    /*                                       UTILITY FUNCTIONS                                  */\n    /********************************************************************************************/\n    function kill() public requireContractOwner() {\n        if (msg.sender == contractOwner) {\n            selfdestruct(contractOwner);\n        }\n    }\n\n    function isOperational() external view returns(bool) {\n        return operational;\n    }\n\n    function authorizeCaller(address _caller) public requireContractOwner {\n        AuthorizedCallers[_caller] = true;\n    }\n\n    function isAuthorized(address _caller) public view returns(bool) {\n        return AuthorizedCallers[_caller];\n    }\n\n    function deAuthorizeCaller(address _caller) public requireContractOwner {\n        AuthorizedCallers[_caller] = false;\n    }\n\n\n    /********************************************************************************************/\n    /*                       SMART CONTRACT REGISTER AIRLINES FUNCTIONS                         */\n    /********************************************************************************************/\n    function registerAirline(string memory _name, address _address, uint _aCounter, bool _controller) external requireAuthorizedCaller() requireIsOperational() {\n        airlines[_address] = Airline(\n            {\n                airlineId: _aCounter,\n                airlineName: _name,\n                airlineAddress: payable(_address),                    \n                registered: true,\n                participant: false,\n                controller: _controller,\n                fundAvailable: 0,\n                fundCommitted: 0\n            }\n        );\n            \n        emit Registration(_address);\n        \n    }\n\n\n    /********************************************************************************************/\n    /*                          SMART CONTRACT PARTICIPANT FUNCTIONS                            */\n    /********************************************************************************************/\n    function fund(address _address) external payable paidEnough(10 ether) checkParticipantValue() requireIsOperational() {\n        contractOwner.transfer(msg.value);\n\n        airlines[_address].participant = true;\n        airlines[_address].fundAvailable = msg.value;\n    \n        emit Funding(_address);\n    }\n\n\n    /********************************************************************************************/\n    /*                                  KEYS GENEARTOR FUNCTIONS                                */\n    /********************************************************************************************/\n    function getInsuranceKey(address _passengerAddress, bytes32 _flightKey) pure internal returns(bytes32) {\n        bytes32 _addressToBytes32 = bytes32(uint256(uint160(_passengerAddress)) << 96);\n        return keccak256(abi.encodePacked(_addressToBytes32, _flightKey));\n    }\n\n\n    /********************************************************************************************/\n    /*                              SMART CONTRACT BUYING FUNCTIONS                             */\n    /********************************************************************************************/\n    function buy(bytes32 _flightKey, address _passengerAddress, address _airlineAddress) external payable checkPassengerValue() requireAuthorizedCaller() requireIsOperational() {        \n        bytes32 _insuranceKey = getInsuranceKey(_passengerAddress, _flightKey);\n        \n        require(insurances[_insuranceKey].flightKey != _flightKey, \"ERROR: PASSENGER ALREADY BOUGHT THIS FLIGHT INSURANCE\");\n        contractOwner.transfer(msg.value);\n        \n        iCounter ++;\n        insurances[_insuranceKey] = Insurance(\n            {\n                insuranceId: iCounter,\n                flightKey: _flightKey,\n                passengerAddress: payable(_passengerAddress),\n                amountPaid: msg.value,\n                amountAvailable: 0,\n                claimable: false,\n                active: true\n            }\n        );\n        insurancesReverse[iCounter] = _insuranceKey;\n        passengerInsurances[_passengerAddress].push(_insuranceKey);\n\n        airlines[_airlineAddress].fundAvailable = SafeMath.add(airlines[_airlineAddress].fundAvailable, msg.value);\n        airlines[_airlineAddress].fundCommitted = SafeMath.div(SafeMath.mul(msg.value, 15), 10);\n        \n    }\n\n    /**\n     *  @dev Credits payouts to insurees\n    */\n    // function creditInsurees(bytes32 _flightKey) external requireAuthorizedCaller() requireIsOperational() {\n    //     bytes32 _insuranceKey = getInsuranceKey(msg.sender, _flightKey);\n    //     require(insurances[_insuranceKey].flightKey == _flightKey, \"ERROR: INSURANCE NOT FOUND\");\n    //     require(insurances[_insuranceKey].claimable, \"ERROR: NOTHING TO CLAIM\");\n\n    //     address _airlineAddress = flights[_flightKey].airlineAddress;\n    //     uint _amountPaid = insurances[_insuranceKey].amountPaid;\n    //     uint _amountToCredit = SafeMath.div(SafeMath.mul(_amountPaid, 15), 10);\n\n    //     uint _fundAvailable = airlines[_airlineAddress].fundAvailable;\n    //     uint _fundCommitted = airlines[_airlineAddress].fundCommitted;\n\n    //     insurances[_insuranceKey].amountAvailable = _amountToCredit;\n\n    //     airlines[_airlineAddress].fundAvailable = SafeMath.sub(_fundAvailable, _amountToCredit);\n    //     airlines[_airlineAddress].fundCommitted = SafeMath.sub(_fundCommitted, _amountToCredit);\n    // }\n    \n\n    /**\n     *  @dev Transfers eligible payout funds to insuree\n     *\n    */\n    function pay(address _passengerAddress, bytes32 _flightKey) public payable requireIsOperational() {\n        bytes32 _insuranceKey = getInsuranceKey(_passengerAddress, _flightKey);\n        payable(_passengerAddress).transfer(insurances[_insuranceKey].amountAvailable);\n    }\n\n   /**\n    * @dev Initial funding for the insurance. Unless there are too many delayed flights\n    *      resulting in insurance payouts, the contract should be self-sustaining\n    *\n    */\n\n    /**\n    * @dev Fallback function for funding smart contract.\n    *\n    */\n    fallback() external payable {\n    }\n    \n    receive() external payable {\n    }\n\n\n    /********************************************************************************************/\n    /*                               SMART CONTRACT CHECK FUNCTIONS                             */\n    /********************************************************************************************/\n    function checkAirlines(address _airlineAddress) external view requireAuthorizedCaller() requireIsOperational()\n        returns(string memory name_, address address_, bool registered_, bool participant_, bool controller_, uint fundavailable_, uint fundcommitted_)  \n    {\n        \n        return(airlines[_airlineAddress].airlineName\n            , airlines[_airlineAddress].airlineAddress\n            , airlines[_airlineAddress].registered\n            , airlines[_airlineAddress].participant\n            , airlines[_airlineAddress].controller\n            , airlines[_airlineAddress].fundAvailable\n            , airlines[_airlineAddress].fundCommitted\n        );\n    \n    }\n    \n    function checkInsurances(uint _insuranceId) external view requireAuthorizedCaller() requireIsOperational()\n        returns(bytes32 insuranceKey_, bytes32 flightKey_, address passengerAddress_, uint amountPaid_, uint amountAvailable_, bool claimable_, bool active_) \n    {\n        bytes32 _insuranceKey = insurancesReverse[_insuranceId];\n        require(insurances[_insuranceKey].flightKey != 0, \"ERROR: INSURANCE NOT FOUND\");\n        return(_insuranceKey\n            , insurances[_insuranceKey].flightKey\n            , insurances[_insuranceKey].passengerAddress\n            , insurances[_insuranceKey].amountPaid\n            , insurances[_insuranceKey].amountAvailable\n            , insurances[_insuranceKey].claimable\n            , insurances[_insuranceKey].active\n        );\n    }\n\n    function checkPassengerInsurances(address _passengerAddress) external view requireAuthorizedCaller() requireIsOperational() returns(bytes32[] memory) {\n        return passengerInsurances[_passengerAddress];\n    }\n\n    function checkInsuranceAmountPaid(address _passengerAddress, bytes32 _flightKey) external view requireIsOperational() returns(uint amountPaid_) {\n        bytes32 _insuranceKey = getInsuranceKey(_passengerAddress, _flightKey);\n        require(insurances[_insuranceKey].flightKey == _flightKey, \"ERROR: INSURANCE NOT FOUND\");\n        return insurances[_insuranceKey].amountPaid;\n    }\n\n}",
  "sourcePath": "/Users/fernandomaximof/Documents/udacity-projects/project4/contracts/FlightSuretyData.sol",
  "compiler": {
    "name": "solc",
    "version": "0.8.11+commit.d7f03943.Emscripten.clang"
  },
  "schemaVersion": "3.4.3",
  "updatedAt": "2022-02-01T04:02:39.547Z",
  "networkType": "ethereum",
  "devdoc": {
    "kind": "dev",
    "methods": {
      "pay(address,bytes32)": {
        "details": "Transfers eligible payout funds to insuree"
      }
    },
    "version": 1
  },
  "userdoc": {
    "kind": "user",
    "methods": {},
    "version": 1
  }
}