{
  "contractName": "FlightSuretyApp",
  "abi": [
    {
      "inputs": [
        {
          "internalType": "address",
          "name": "dataContract",
          "type": "address"
        }
      ],
      "stateMutability": "nonpayable",
      "type": "constructor"
    },
    {
      "anonymous": false,
      "inputs": [
        {
          "indexed": false,
          "internalType": "address",
          "name": "airline",
          "type": "address"
        },
        {
          "indexed": false,
          "internalType": "string",
          "name": "flight",
          "type": "string"
        },
        {
          "indexed": false,
          "internalType": "uint256",
          "name": "timestamp",
          "type": "uint256"
        },
        {
          "indexed": false,
          "internalType": "uint8",
          "name": "status",
          "type": "uint8"
        }
      ],
      "name": "FlightStatusInfo",
      "type": "event"
    },
    {
      "anonymous": false,
      "inputs": [
        {
          "indexed": false,
          "internalType": "address",
          "name": "airline",
          "type": "address"
        },
        {
          "indexed": false,
          "internalType": "string",
          "name": "flight",
          "type": "string"
        },
        {
          "indexed": false,
          "internalType": "uint256",
          "name": "timestamp",
          "type": "uint256"
        },
        {
          "indexed": false,
          "internalType": "uint8",
          "name": "status",
          "type": "uint8"
        }
      ],
      "name": "OracleReport",
      "type": "event"
    },
    {
      "anonymous": false,
      "inputs": [
        {
          "indexed": false,
          "internalType": "uint8",
          "name": "index",
          "type": "uint8"
        },
        {
          "indexed": false,
          "internalType": "address",
          "name": "airline",
          "type": "address"
        },
        {
          "indexed": false,
          "internalType": "string",
          "name": "flight",
          "type": "string"
        },
        {
          "indexed": false,
          "internalType": "uint256",
          "name": "timestamp",
          "type": "uint256"
        }
      ],
      "name": "OracleRequest",
      "type": "event"
    },
    {
      "inputs": [],
      "name": "REGISTRATION_FEE",
      "outputs": [
        {
          "internalType": "uint256",
          "name": "",
          "type": "uint256"
        }
      ],
      "stateMutability": "view",
      "type": "function",
      "constant": true
    },
    {
      "inputs": [
        {
          "internalType": "uint256",
          "name": "",
          "type": "uint256"
        }
      ],
      "name": "flightsReverse",
      "outputs": [
        {
          "internalType": "bytes32",
          "name": "",
          "type": "bytes32"
        }
      ],
      "stateMutability": "view",
      "type": "function",
      "constant": true
    },
    {
      "inputs": [
        {
          "internalType": "uint16",
          "name": "_year",
          "type": "uint16"
        },
        {
          "internalType": "uint8",
          "name": "_month",
          "type": "uint8"
        },
        {
          "internalType": "uint8",
          "name": "_day",
          "type": "uint8"
        },
        {
          "internalType": "uint8",
          "name": "_hour",
          "type": "uint8"
        },
        {
          "internalType": "uint8",
          "name": "_minute",
          "type": "uint8"
        }
      ],
      "name": "getDateTime",
      "outputs": [
        {
          "internalType": "uint256",
          "name": "",
          "type": "uint256"
        }
      ],
      "stateMutability": "pure",
      "type": "function",
      "constant": true
    },
    {
      "inputs": [
        {
          "internalType": "bool",
          "name": "mode",
          "type": "bool"
        }
      ],
      "name": "setOperatingStatus",
      "outputs": [],
      "stateMutability": "nonpayable",
      "type": "function"
    },
    {
      "inputs": [],
      "name": "isOperational",
      "outputs": [
        {
          "internalType": "bool",
          "name": "",
          "type": "bool"
        }
      ],
      "stateMutability": "view",
      "type": "function",
      "constant": true
    },
    {
      "inputs": [
        {
          "internalType": "address",
          "name": "dataContract",
          "type": "address"
        }
      ],
      "name": "setDataContract",
      "outputs": [],
      "stateMutability": "nonpayable",
      "type": "function"
    },
    {
      "inputs": [
        {
          "internalType": "address",
          "name": "_address",
          "type": "address"
        }
      ],
      "name": "isController",
      "outputs": [
        {
          "internalType": "bool",
          "name": "",
          "type": "bool"
        }
      ],
      "stateMutability": "view",
      "type": "function",
      "constant": true
    },
    {
      "inputs": [
        {
          "internalType": "address",
          "name": "_address",
          "type": "address"
        }
      ],
      "name": "isRegistered",
      "outputs": [
        {
          "internalType": "bool",
          "name": "",
          "type": "bool"
        }
      ],
      "stateMutability": "view",
      "type": "function",
      "constant": true
    },
    {
      "inputs": [
        {
          "internalType": "address",
          "name": "_address",
          "type": "address"
        }
      ],
      "name": "isParticipant",
      "outputs": [
        {
          "internalType": "bool",
          "name": "",
          "type": "bool"
        }
      ],
      "stateMutability": "view",
      "type": "function",
      "constant": true
    },
    {
      "inputs": [
        {
          "internalType": "address",
          "name": "_address",
          "type": "address"
        }
      ],
      "name": "isCandidate",
      "outputs": [
        {
          "internalType": "bool",
          "name": "",
          "type": "bool"
        }
      ],
      "stateMutability": "view",
      "type": "function",
      "constant": true
    },
    {
      "inputs": [
        {
          "internalType": "string",
          "name": "_name",
          "type": "string"
        },
        {
          "internalType": "address",
          "name": "_address",
          "type": "address"
        }
      ],
      "name": "registerAirline",
      "outputs": [],
      "stateMutability": "nonpayable",
      "type": "function"
    },
    {
      "inputs": [
        {
          "internalType": "address",
          "name": "_address",
          "type": "address"
        }
      ],
      "name": "checkAirlines",
      "outputs": [
        {
          "internalType": "string",
          "name": "name_",
          "type": "string"
        },
        {
          "internalType": "address",
          "name": "address_",
          "type": "address"
        },
        {
          "internalType": "bool",
          "name": "registered_",
          "type": "bool"
        },
        {
          "internalType": "bool",
          "name": "participant_",
          "type": "bool"
        },
        {
          "internalType": "bool",
          "name": "controller_",
          "type": "bool"
        },
        {
          "internalType": "uint256",
          "name": "fundavailable_",
          "type": "uint256"
        },
        {
          "internalType": "uint256",
          "name": "fundcommitted_",
          "type": "uint256"
        }
      ],
      "stateMutability": "view",
      "type": "function",
      "constant": true
    },
    {
      "inputs": [],
      "name": "checkCandidateAirlines",
      "outputs": [
        {
          "components": [
            {
              "internalType": "address",
              "name": "proposedAddress",
              "type": "address"
            },
            {
              "internalType": "string",
              "name": "proposedName",
              "type": "string"
            },
            {
              "internalType": "uint256",
              "name": "voteCount",
              "type": "uint256"
            },
            {
              "internalType": "bool",
              "name": "active",
              "type": "bool"
            }
          ],
          "internalType": "struct FlightSuretyApp.Proposal[]",
          "name": "",
          "type": "tuple[]"
        }
      ],
      "stateMutability": "view",
      "type": "function",
      "constant": true
    },
    {
      "inputs": [
        {
          "internalType": "string",
          "name": "_name",
          "type": "string"
        },
        {
          "internalType": "address",
          "name": "_address",
          "type": "address"
        }
      ],
      "name": "vote",
      "outputs": [],
      "stateMutability": "nonpayable",
      "type": "function"
    },
    {
      "inputs": [],
      "name": "fund",
      "outputs": [],
      "stateMutability": "payable",
      "type": "function",
      "payable": true
    },
    {
      "inputs": [
        {
          "internalType": "string",
          "name": "_flight",
          "type": "string"
        },
        {
          "internalType": "uint16",
          "name": "_year",
          "type": "uint16"
        },
        {
          "internalType": "uint8",
          "name": "_month",
          "type": "uint8"
        },
        {
          "internalType": "uint8",
          "name": "_day",
          "type": "uint8"
        },
        {
          "internalType": "uint8",
          "name": "_hour",
          "type": "uint8"
        },
        {
          "internalType": "uint8",
          "name": "_minute",
          "type": "uint8"
        }
      ],
      "name": "registerFlight",
      "outputs": [],
      "stateMutability": "nonpayable",
      "type": "function"
    },
    {
      "inputs": [
        {
          "internalType": "uint256",
          "name": "_flightId",
          "type": "uint256"
        }
      ],
      "name": "checkFlights",
      "outputs": [
        {
          "internalType": "bytes32",
          "name": "flightKey_",
          "type": "bytes32"
        },
        {
          "internalType": "string",
          "name": "flight_",
          "type": "string"
        },
        {
          "internalType": "bool",
          "name": "active_",
          "type": "bool"
        },
        {
          "internalType": "bool",
          "name": "isRegistered_",
          "type": "bool"
        },
        {
          "internalType": "uint8",
          "name": "status_",
          "type": "uint8"
        },
        {
          "internalType": "uint256",
          "name": "timestamp_",
          "type": "uint256"
        },
        {
          "internalType": "address",
          "name": "address_",
          "type": "address"
        }
      ],
      "stateMutability": "view",
      "type": "function",
      "constant": true
    },
    {
      "inputs": [
        {
          "internalType": "uint256",
          "name": "_flightId",
          "type": "uint256"
        }
      ],
      "name": "buy",
      "outputs": [],
      "stateMutability": "payable",
      "type": "function",
      "payable": true
    },
    {
      "inputs": [],
      "name": "checkPassengerInsurances",
      "outputs": [
        {
          "internalType": "bytes32[]",
          "name": "",
          "type": "bytes32[]"
        }
      ],
      "stateMutability": "view",
      "type": "function",
      "constant": true
    },
    {
      "inputs": [
        {
          "internalType": "uint256",
          "name": "_flightId",
          "type": "uint256"
        }
      ],
      "name": "checkInsuranceAmountPaid",
      "outputs": [
        {
          "internalType": "uint256",
          "name": "",
          "type": "uint256"
        }
      ],
      "stateMutability": "view",
      "type": "function",
      "constant": true
    },
    {
      "inputs": [
        {
          "internalType": "uint256",
          "name": "_insuranceId",
          "type": "uint256"
        }
      ],
      "name": "checkInsurances",
      "outputs": [
        {
          "internalType": "bytes32",
          "name": "insuranceKey_",
          "type": "bytes32"
        },
        {
          "internalType": "bytes32",
          "name": "flightKey_",
          "type": "bytes32"
        },
        {
          "internalType": "address",
          "name": "passengerAddress_",
          "type": "address"
        },
        {
          "internalType": "uint256",
          "name": "amountPaid_",
          "type": "uint256"
        },
        {
          "internalType": "uint256",
          "name": "amountAvailable_",
          "type": "uint256"
        },
        {
          "internalType": "bool",
          "name": "claimable_",
          "type": "bool"
        },
        {
          "internalType": "bool",
          "name": "active_",
          "type": "bool"
        }
      ],
      "stateMutability": "view",
      "type": "function",
      "constant": true
    },
    {
      "inputs": [
        {
          "internalType": "address",
          "name": "_airline",
          "type": "address"
        },
        {
          "internalType": "string",
          "name": "_flight",
          "type": "string"
        },
        {
          "internalType": "uint16",
          "name": "_year",
          "type": "uint16"
        },
        {
          "internalType": "uint8",
          "name": "_month",
          "type": "uint8"
        },
        {
          "internalType": "uint8",
          "name": "_day",
          "type": "uint8"
        },
        {
          "internalType": "uint8",
          "name": "_hour",
          "type": "uint8"
        },
        {
          "internalType": "uint8",
          "name": "_minute",
          "type": "uint8"
        }
      ],
      "name": "fetchFlightStatus",
      "outputs": [],
      "stateMutability": "nonpayable",
      "type": "function"
    },
    {
      "inputs": [
        {
          "internalType": "string",
          "name": "_flight",
          "type": "string"
        },
        {
          "internalType": "uint16",
          "name": "_year",
          "type": "uint16"
        },
        {
          "internalType": "uint8",
          "name": "_month",
          "type": "uint8"
        },
        {
          "internalType": "uint8",
          "name": "_day",
          "type": "uint8"
        },
        {
          "internalType": "uint8",
          "name": "_hour",
          "type": "uint8"
        },
        {
          "internalType": "uint8",
          "name": "_minute",
          "type": "uint8"
        }
      ],
      "name": "viewFlightStatus",
      "outputs": [
        {
          "internalType": "uint8",
          "name": "",
          "type": "uint8"
        }
      ],
      "stateMutability": "view",
      "type": "function",
      "constant": true
    },
    {
      "inputs": [
        {
          "internalType": "string",
          "name": "_flight",
          "type": "string"
        },
        {
          "internalType": "uint16",
          "name": "_year",
          "type": "uint16"
        },
        {
          "internalType": "uint8",
          "name": "_month",
          "type": "uint8"
        },
        {
          "internalType": "uint8",
          "name": "_day",
          "type": "uint8"
        },
        {
          "internalType": "uint8",
          "name": "_hour",
          "type": "uint8"
        },
        {
          "internalType": "uint8",
          "name": "_minute",
          "type": "uint8"
        }
      ],
      "name": "withdrawCredit",
      "outputs": [],
      "stateMutability": "nonpayable",
      "type": "function"
    },
    {
      "inputs": [],
      "name": "registerOracle",
      "outputs": [],
      "stateMutability": "payable",
      "type": "function",
      "payable": true
    },
    {
      "inputs": [],
      "name": "getMyIndexes",
      "outputs": [
        {
          "internalType": "uint8[3]",
          "name": "",
          "type": "uint8[3]"
        }
      ],
      "stateMutability": "view",
      "type": "function",
      "constant": true
    },
    {
      "inputs": [
        {
          "internalType": "uint8",
          "name": "index",
          "type": "uint8"
        },
        {
          "internalType": "address",
          "name": "airline",
          "type": "address"
        },
        {
          "internalType": "string",
          "name": "flight",
          "type": "string"
        },
        {
          "internalType": "uint256",
          "name": "timestamp",
          "type": "uint256"
        },
        {
          "internalType": "uint8",
          "name": "statusCode",
          "type": "uint8"
        }
      ],
      "name": "submitOracleResponse",
      "outputs": [],
      "stateMutability": "nonpayable",
      "type": "function"
    },
    {
      "inputs": [
        {
          "internalType": "address",
          "name": "airline",
          "type": "address"
        },
        {
          "internalType": "string",
          "name": "flight",
          "type": "string"
        },
        {
          "internalType": "uint256",
          "name": "timestamp",
          "type": "uint256"
        }
      ],
      "name": "getFlightKey",
      "outputs": [
        {
          "internalType": "bytes32",
          "name": "",
          "type": "bytes32"
        }
      ],
      "stateMutability": "pure",
      "type": "function",
      "constant": true
    }
  ],
  "bytecode": "0x608060405260016000806101000a81548160ff021916908315150217905550600067ffffffffffffffff8111156200003c576200003b620005a2565b5b6040519080825280602002602001820160405280156200006b5781602001602082028036833780820191505090505b506001908051906020019062000083929190620004f4565b50600360025560016009556000600a556000600f60006101000a81548160ff021916908360ff160217905550348015620000bc57600080fd5b5060405162006335380380620063358339818101604052810190620000e291906200063b565b33600860006101000a81548173ffffffffffffffffffffffffffffffffffffffff021916908373ffffffffffffffffffffffffffffffffffffffff16021790555080600760006101000a81548173ffffffffffffffffffffffffffffffffffffffff021916908373ffffffffffffffffffffffffffffffffffffffff1602179055506000600760009054906101000a900473ffffffffffffffffffffffffffffffffffffffff1673ffffffffffffffffffffffffffffffffffffffff1663b59828036040518163ffffffff1660e01b8152600401602060405180830381865afa158015620001d4573d6000803e3d6000fd5b505050506040513d601f19601f82011682018060405250810190620001fa91906200063b565b90506200020d816200022660201b60201c565b6200021e816200029860201b60201c565b5050620007ae565b62000237816200030a60201b60201c565b156200027a576040517f08c379a00000000000000000000000000000000000000000000000000000000081526004016200027190620006f4565b60405180910390fd5b620002958160036200032e60201b62002a0a1790919060201c565b50565b620002a981620003e460201b60201c565b15620002ec576040517f08c379a0000000000000000000000000000000000000000000000000000000008152600401620002e3906200078c565b60405180910390fd5b620003078160046200032e60201b62002a0a1790919060201c565b50565b6000620003278260036200046160201b62002ab61790919060201c565b9050919050565b600073ffffffffffffffffffffffffffffffffffffffff168173ffffffffffffffffffffffffffffffffffffffff1614156200036957600080fd5b6200037b82826200046160201b60201c565b156200038657600080fd5b60018260000160008373ffffffffffffffffffffffffffffffffffffffff1673ffffffffffffffffffffffffffffffffffffffff16815260200190815260200160002060006101000a81548160ff0219169083151502179055505050565b6000600860009054906101000a900473ffffffffffffffffffffffffffffffffffffffff1673ffffffffffffffffffffffffffffffffffffffff168273ffffffffffffffffffffffffffffffffffffffff1614806200045a5750620004598260046200046160201b62002ab61790919060201c565b5b9050919050565b60008073ffffffffffffffffffffffffffffffffffffffff168273ffffffffffffffffffffffffffffffffffffffff1614156200049d57600080fd5b8260000160008373ffffffffffffffffffffffffffffffffffffffff1673ffffffffffffffffffffffffffffffffffffffff16815260200190815260200160002060009054906101000a900460ff16905092915050565b82805482825590600052602060002090810192821562000570579160200282015b828111156200056f5782518260006101000a81548173ffffffffffffffffffffffffffffffffffffffff021916908373ffffffffffffffffffffffffffffffffffffffff1602179055509160200191906001019062000515565b5b5090506200057f919062000583565b5090565b5b808211156200059e57600081600090555060010162000584565b5090565b7f4e487b7100000000000000000000000000000000000000000000000000000000600052604160045260246000fd5b600080fd5b600073ffffffffffffffffffffffffffffffffffffffff82169050919050565b60006200060382620005d6565b9050919050565b6200061581620005f6565b81146200062157600080fd5b50565b60008151905062000635816200060a565b92915050565b600060208284031215620006545762000653620005d1565b5b6000620006648482850162000624565b91505092915050565b600082825260208201905092915050565b7f4552524f523a204149524c494e4520495320414c52454144592052454749535460008201527f4552454400000000000000000000000000000000000000000000000000000000602082015250565b6000620006dc6024836200066d565b9150620006e9826200067e565b604082019050919050565b600060208201905081810360008301526200070f81620006cd565b9050919050565b7f4552524f523a204149524c494e4520495320414c5245414459204120434f4e5460008201527f524f4c4c45520000000000000000000000000000000000000000000000000000602082015250565b6000620007746026836200066d565b9150620007818262000716565b604082019050919050565b60006020820190508181036000830152620007a78162000765565b9050919050565b615b7780620007be6000396000f3fe6080604052600436106101b75760003560e01c8063b429afeb116100ec578063d737d8141161008a578063dfc0dff011610064578063dfc0dff0146105f9578063e188ac9814610636578063edeb6c3a14610679578063f0a354f1146106bc576101b7565b8063d737d81414610577578063d96a094a146105a0578063dcb8c5b4146105bc576101b7565b8063c10f2700116100c6578063c10f2700146104a9578063c3c5a547146104d2578063cd905dff1461050f578063d51b9e931461053a576101b7565b8063b429afeb14610425578063b60d428814610462578063b8d4136d1461046c576101b7565b80635f1cc0e611610159578063929066f511610133578063929066f514610369578063a190c315146103a6578063a96f5bdb146103d1578063a9d2f269146103fa576101b7565b80635f1cc0e6146102d057806364b4f751146102fb5780638529b35d14610326576101b7565b80631bb976bd116101955780631bb976bd14610237578063339d2590146102605780633ccd4aae1461026a5780635a436c06146102a7576101b7565b806303959bb7146101bc5780630e2c4129146101e5578063110466ed1461020e575b600080fd5b3480156101c857600080fd5b506101e360048036038101906101de919061359b565b6106f9565b005b3480156101f157600080fd5b5061020c6004803603810190610207919061370e565b6107cd565b005b34801561021a57600080fd5b50610235600480360381019061023091906137a2565b6109e5565b005b34801561024357600080fd5b5061025e600480360381019061025991906138a2565b610cb4565b005b610268610dd5565b005b34801561027657600080fd5b50610291600480360381019061028c919061399a565b610ec2565b60405161029e91906139e0565b60405180910390f35b3480156102b357600080fd5b506102ce60048036038101906102c9919061370e565b610eda565b005b3480156102dc57600080fd5b506102e561141f565b6040516102f29190613aa6565b60405180910390f35b34801561030757600080fd5b5061031061155f565b60405161031d9190613ad0565b60405180910390f35b34801561033257600080fd5b5061034d6004803603810190610348919061399a565b61156b565b6040516103609796959493929190613ba0565b60405180910390f35b34801561037557600080fd5b50610390600480360381019061038b919061359b565b611795565b60405161039d9190613c16565b60405180910390f35b3480156103b257600080fd5b506103bb6117b2565b6040516103c89190613dcd565b60405180910390f35b3480156103dd57600080fd5b506103f860048036038101906103f39190613def565b61191e565b005b34801561040657600080fd5b5061040f6119d7565b60405161041c9190613f56565b60405180910390f35b34801561043157600080fd5b5061044c6004803603810190610447919061359b565b611ac6565b6040516104599190613c16565b60405180910390f35b61046a611b3b565b005b34801561047857600080fd5b50610493600480360381019061048e919061399a565b611cac565b6040516104a09190613ad0565b60405180910390f35b3480156104b557600080fd5b506104d060048036038101906104cb9190613f78565b611db3565b005b3480156104de57600080fd5b506104f960048036038101906104f4919061359b565b61213d565b6040516105069190613c16565b60405180910390f35b34801561051b57600080fd5b5061052461215a565b6040516105319190613c16565b60405180910390f35b34801561054657600080fd5b50610561600480360381019061055c919061359b565b6121f2565b60405161056e9190613c16565b60405180910390f35b34801561058357600080fd5b5061059e60048036038101906105999190613def565b61220f565b005b6105ba60048036038101906105b5919061399a565b612490565b005b3480156105c857600080fd5b506105e360048036038101906105de9190614012565b6126ac565b6040516105f091906140c1565b60405180910390f35b34801561060557600080fd5b50610620600480360381019061061b91906140dc565b612729565b60405161062d91906139e0565b60405180910390f35b34801561064257600080fd5b5061065d6004803603810190610658919061359b565b61275f565b604051610670979695949392919061414b565b60405180910390f35b34801561068557600080fd5b506106a0600480360381019061069b919061399a565b612824565b6040516106b397969594939291906141c1565b60405180910390f35b3480156106c857600080fd5b506106e360048036038101906106de9190614230565b61292b565b6040516106f09190613ad0565b60405180910390f35b600860009054906101000a900473ffffffffffffffffffffffffffffffffffffffff1673ffffffffffffffffffffffffffffffffffffffff163373ffffffffffffffffffffffffffffffffffffffff1614610789576040517f08c379a0000000000000000000000000000000000000000000000000000000008152600401610780906142f7565b60405180910390fd5b80600760006101000a81548173ffffffffffffffffffffffffffffffffffffffff021916908373ffffffffffffffffffffffffffffffffffffffff16021790555050565b6107d561215a565b610814576040517f08c379a000000000000000000000000000000000000000000000000000000000815260040161080b90614389565b60405180910390fd5b61081d8161213d565b1561085d576040517f08c379a00000000000000000000000000000000000000000000000000000000081526004016108549061441b565b60405180910390fd5b600460095410156109cd57600860009054906101000a900473ffffffffffffffffffffffffffffffffffffffff1673ffffffffffffffffffffffffffffffffffffffff163373ffffffffffffffffffffffffffffffffffffffff1614806108c957506108c833611ac6565b5b610908576040517f08c379a00000000000000000000000000000000000000000000000000000000081526004016108ff90614487565b60405180910390fd5b6009600081548092919061091b906144d6565b9190505550600760009054906101000a900473ffffffffffffffffffffffffffffffffffffffff1673ffffffffffffffffffffffffffffffffffffffff1663b85a9e61838360095460016040518563ffffffff1660e01b8152600401610984949392919061451f565b600060405180830381600087803b15801561099e57600080fd5b505af11580156109b2573d6000803e3d6000fd5b505050506109bf81612b48565b6109c881612ba8565b6109e1565b6109d78282612c08565b6109e081612ddb565b5b5050565b600860009054906101000a900473ffffffffffffffffffffffffffffffffffffffff1673ffffffffffffffffffffffffffffffffffffffff163373ffffffffffffffffffffffffffffffffffffffff161480610a515750610a50336004612ab690919063ffffffff16565b5b610a90576040517f08c379a0000000000000000000000000000000000000000000000000000000008152600401610a87906145b7565b60405180910390fd5b60008054906101000a900460ff1615158115151415610ae4576040517f08c379a0000000000000000000000000000000000000000000000000000000008152600401610adb90614649565b60405180910390fd5b6000805b600180549050811015610b83573373ffffffffffffffffffffffffffffffffffffffff1660018281548110610b2057610b1f614669565b5b9060005260206000200160009054906101000a900473ffffffffffffffffffffffffffffffffffffffff1673ffffffffffffffffffffffffffffffffffffffff161415610b705760019150610b83565b8080610b7b906144d6565b915050610ae8565b508015610bc5576040517f08c379a0000000000000000000000000000000000000000000000000000000008152600401610bbc9061470a565b60405180910390fd5b6001339080600181540180825580915050600190039060005260206000200160009091909190916101000a81548173ffffffffffffffffffffffffffffffffffffffff021916908373ffffffffffffffffffffffffffffffffffffffff16021790555060025460018054905010610cb057816000806101000a81548160ff021916908315150217905550600067ffffffffffffffff811115610c6a57610c696135e3565b5b604051908082528060200260200182016040528015610c985781602001602082028036833780820191505090505b5060019080519060200190610cae929190613340565b505b5050565b6000610cbf33612e3b565b90506000610cd0878787878761292b565b90506000828b8b8b85604051602001610ced9594939291906147f9565b604051602081830303815290604052805190602001209050336011600083815260200190815260200160002060000160006101000a81548173ffffffffffffffffffffffffffffffffffffffff021916908373ffffffffffffffffffffffffffffffffffffffff16021790555060016011600083815260200190815260200160002060000160146101000a81548160ff0219169083151502179055507f3ed01f2c3fc24c6b329d931e35b03e390d23497d22b3f90e15b600343e93df11838c8c8c86604051610dc0959493929190614872565b60405180910390a15050505050505050505050565b670de0b6b3a7640000341015610e20576040517f08c379a0000000000000000000000000000000000000000000000000000000008152600401610e1790614932565b60405180910390fd5b6000610e2b33612f07565b9050604051806040016040528060011515815260200182815250601060003373ffffffffffffffffffffffffffffffffffffffff1673ffffffffffffffffffffffffffffffffffffffff16815260200190815260200160002060008201518160000160006101000a81548160ff021916908315150217905550602082015181600101906003610ebb9291906133ca565b5090505050565b600c6020528060005260406000206000915090505481565b610ee261215a565b610f21576040517f08c379a0000000000000000000000000000000000000000000000000000000008152600401610f1890614389565b60405180910390fd5b610f2a3361213d565b610f69576040517f08c379a0000000000000000000000000000000000000000000000000000000008152600401610f609061499e565b60405180910390fd5b610f728161213d565b15610fb2576040517f08c379a0000000000000000000000000000000000000000000000000000000008152600401610fa990614a30565b60405180910390fd5b610fbb816121f2565b610ffa576040517f08c379a0000000000000000000000000000000000000000000000000000000008152600401610ff190614ac2565b60405180910390fd5b60008060005b600e60003373ffffffffffffffffffffffffffffffffffffffff1673ffffffffffffffffffffffffffffffffffffffff1681526020019081526020016000208054905081101561114b578373ffffffffffffffffffffffffffffffffffffffff16600e60003373ffffffffffffffffffffffffffffffffffffffff1673ffffffffffffffffffffffffffffffffffffffff16815260200190815260200160002082815481106110b2576110b1614669565b5b9060005260206000200160009054906101000a900473ffffffffffffffffffffffffffffffffffffffff1673ffffffffffffffffffffffffffffffffffffffff16141561113857600192506040517f08c379a000000000000000000000000000000000000000000000000000000000815260040161112f90614b54565b60405180910390fd5b8080611143906144d6565b915050611000565b50816111f257600e60003373ffffffffffffffffffffffffffffffffffffffff1673ffffffffffffffffffffffffffffffffffffffff168152602001908152602001600020839080600181540180825580915050600190039060005260206000200160009091909190916101000a81548173ffffffffffffffffffffffffffffffffffffffff021916908373ffffffffffffffffffffffffffffffffffffffff1602179055505b60005b600d80549050811015611418578373ffffffffffffffffffffffffffffffffffffffff16600d828154811061122d5761122c614669565b5b906000526020600020906004020160000160009054906101000a900473ffffffffffffffffffffffffffffffffffffffff1673ffffffffffffffffffffffffffffffffffffffff161415611405576001600d828154811061129157611290614669565b5b906000526020600020906004020160020160008282546112b19190614b74565b925050819055506009546064600d83815481106112d1576112d0614669565b5b9060005260206000209060040201600201546112ed9190614bca565b6112f79190614c53565b9150603282106114005760096000815480929190611314906144d6565b9190505550600760009054906101000a900473ffffffffffffffffffffffffffffffffffffffff1673ffffffffffffffffffffffffffffffffffffffff1663b85a9e61868660095460006040518563ffffffff1660e01b815260040161137d949392919061451f565b600060405180830381600087803b15801561139757600080fd5b505af11580156113ab573d6000803e3d6000fd5b505050506113b884612b48565b6113c1846130ee565b6000600d82815481106113d7576113d6614669565b5b906000526020600020906004020160030160006101000a81548160ff0219169083151502179055505b611418565b8080611410906144d6565b9150506111f5565b5050505050565b611427613464565b601060003373ffffffffffffffffffffffffffffffffffffffff1673ffffffffffffffffffffffffffffffffffffffff16815260200190815260200160002060000160009054906101000a900460ff166114b6576040517f08c379a00000000000000000000000000000000000000000000000000000000081526004016114ad90614cd0565b60405180910390fd5b601060003373ffffffffffffffffffffffffffffffffffffffff1673ffffffffffffffffffffffffffffffffffffffff168152602001908152602001600020600101600380602002604051908101604052809291908260038015611555576020028201916000905b82829054906101000a900460ff1660ff168152602001906001019060208260000104928301926001038202915080841161151e5790505b5050505050905090565b670de0b6b3a764000081565b60006060600080600080600061157f61215a565b6115be576040517f08c379a00000000000000000000000000000000000000000000000000000000081526004016115b590614389565b60405180910390fd5b6000600c60008a81526020019081526020016000205490506115df8161314d565b61161e576040517f08c379a000000000000000000000000000000000000000000000000000000000815260040161161590614d3c565b60405180910390fd5b80600b6000838152602001908152602001600020600001600b600084815260200190815260200160002060020160009054906101000a900460ff16600b600085815260200190815260200160002060020160019054906101000a900460ff16600b600086815260200190815260200160002060020160029054906101000a900460ff16600b600087815260200190815260200160002060030154600b600088815260200190815260200160002060040160009054906101000a900473ffffffffffffffffffffffffffffffffffffffff168580546116fb90614d8b565b80601f016020809104026020016040519081016040528092919081815260200182805461172790614d8b565b80156117745780601f1061174957610100808354040283529160200191611774565b820191906000526020600020905b81548152906001019060200180831161175757829003601f168201915b50505050509550975097509750975097509750975050919395979092949650565b60006117ab826005612ab690919063ffffffff16565b9050919050565b6060600d805480602002602001604051908101604052809291908181526020016000905b8282101561191557838290600052602060002090600402016040518060800160405290816000820160009054906101000a900473ffffffffffffffffffffffffffffffffffffffff1673ffffffffffffffffffffffffffffffffffffffff1673ffffffffffffffffffffffffffffffffffffffff16815260200160018201805461185f90614d8b565b80601f016020809104026020016040519081016040528092919081815260200182805461188b90614d8b565b80156118d85780601f106118ad576101008083540402835291602001916118d8565b820191906000526020600020905b8154815290600101906020018083116118bb57829003601f168201915b50505050508152602001600282015481526020016003820160009054906101000a900460ff161515151581525050815260200190600101906117d6565b50505050905090565b600061192d868686868661292b565b9050600061193c338984612729565b9050600760009054906101000a900473ffffffffffffffffffffffffffffffffffffffff1673ffffffffffffffffffffffffffffffffffffffff166346f8f30433836040518363ffffffff1660e01b815260040161199b929190614dbd565b600060405180830381600087803b1580156119b557600080fd5b505af11580156119c9573d6000803e3d6000fd5b505050505050505050505050565b60606119e161215a565b611a20576040517f08c379a0000000000000000000000000000000000000000000000000000000008152600401611a1790614389565b60405180910390fd5b600760009054906101000a900473ffffffffffffffffffffffffffffffffffffffff1673ffffffffffffffffffffffffffffffffffffffff1663ff129763336040518263ffffffff1660e01b8152600401611a7b9190614de6565b600060405180830381865afa158015611a98573d6000803e3d6000fd5b505050506040513d6000823e3d601f19601f82011682018060405250810190611ac19190614ef0565b905090565b6000600860009054906101000a900473ffffffffffffffffffffffffffffffffffffffff1673ffffffffffffffffffffffffffffffffffffffff168273ffffffffffffffffffffffffffffffffffffffff161480611b345750611b33826004612ab690919063ffffffff16565b5b9050919050565b611b4361215a565b611b82576040517f08c379a0000000000000000000000000000000000000000000000000000000008152600401611b7990614389565b60405180910390fd5b611b8b3361213d565b611bca576040517f08c379a0000000000000000000000000000000000000000000000000000000008152600401611bc190614f85565b60405180910390fd5b611bd333611795565b15611c13576040517f08c379a0000000000000000000000000000000000000000000000000000000008152600401611c0a90615017565b60405180910390fd5b600760009054906101000a900473ffffffffffffffffffffffffffffffffffffffff1673ffffffffffffffffffffffffffffffffffffffff16632302440834336040518363ffffffff1660e01b8152600401611c6f9190614de6565b6000604051808303818588803b158015611c8857600080fd5b505af1158015611c9c573d6000803e3d6000fd5b5050505050611caa336131c1565b565b6000611cb661215a565b611cf5576040517f08c379a0000000000000000000000000000000000000000000000000000000008152600401611cec90614389565b60405180910390fd5b6000600c6000848152602001908152602001600020549050600760009054906101000a900473ffffffffffffffffffffffffffffffffffffffff1673ffffffffffffffffffffffffffffffffffffffff166348c1747833836040518363ffffffff1660e01b8152600401611d6a929190614dbd565b602060405180830381865afa158015611d87573d6000803e3d6000fd5b505050506040513d601f19601f82011682018060405250810190611dab919061504c565b915050919050565b8560ff16601060003373ffffffffffffffffffffffffffffffffffffffff1673ffffffffffffffffffffffffffffffffffffffff168152602001908152602001600020600101600060038110611e0c57611e0b614669565b5b602091828204019190069054906101000a900460ff1660ff161480611ea057508560ff16601060003373ffffffffffffffffffffffffffffffffffffffff1673ffffffffffffffffffffffffffffffffffffffff168152602001908152602001600020600101600160038110611e8557611e84614669565b5b602091828204019190069054906101000a900460ff1660ff16145b80611f1a57508560ff16601060003373ffffffffffffffffffffffffffffffffffffffff1673ffffffffffffffffffffffffffffffffffffffff168152602001908152602001600020600101600260038110611eff57611efe614669565b5b602091828204019190069054906101000a900460ff1660ff16145b611f59576040517f08c379a0000000000000000000000000000000000000000000000000000000008152600401611f50906150eb565b60405180910390fd5b60008686868686604051602001611f749594939291906147f9565b6040516020818303038152906040528051906020012090506011600082815260200190815260200160002060000160149054906101000a900460ff16611fef576040517f08c379a0000000000000000000000000000000000000000000000000000000008152600401611fe69061517d565b60405180910390fd5b6011600082815260200190815260200160002060010160008360ff1660ff168152602001908152602001600020339080600181540180825580915050600190039060005260206000200160009091909190916101000a81548173ffffffffffffffffffffffffffffffffffffffff021916908373ffffffffffffffffffffffffffffffffffffffff1602179055507f43c853095c2752648493c88b4baac4d580d2594ffb00c6f1d4242d844514f78386868686866040516120b495949392919061519d565b60405180910390a160036011600083815260200190815260200160002060010160008460ff1660ff1681526020019081526020016000208054905010612134577fe23f5229de535c091e3b7bec2665f5d698192d3b31393066e8987b7a05076b6c868686868660405161212b95949392919061519d565b60405180910390a15b50505050505050565b6000612153826003612ab690919063ffffffff16565b9050919050565b6000600760009054906101000a900473ffffffffffffffffffffffffffffffffffffffff1673ffffffffffffffffffffffffffffffffffffffff1663cd905dff6040518163ffffffff1660e01b8152600401602060405180830381865afa1580156121c9573d6000803e3d6000fd5b505050506040513d601f19601f820116820180604052508101906121ed9190615200565b905090565b6000612208826006612ab690919063ffffffff16565b9050919050565b61221833611795565b612257576040517f08c379a000000000000000000000000000000000000000000000000000000000815260040161224e9061529f565b60405180910390fd5b6000612266868686868661292b565b90506202a300426122779190614b74565b81116122b8576040517f08c379a00000000000000000000000000000000000000000000000000000000081526004016122af90615331565b60405180910390fd5b60006122c5338984612729565b90506122d08161314d565b15612310576040517f08c379a00000000000000000000000000000000000000000000000000000000081526004016123079061539d565b60405180910390fd5b600a6000815480929190612323906144d6565b91905055506040518060e00160405280898152602001600a548152602001600115158152602001600115158152602001600060ff1681526020018381526020013373ffffffffffffffffffffffffffffffffffffffff16815250600b600083815260200190815260200160002060008201518160000190805190602001906123ac929190613486565b506020820151816001015560408201518160020160006101000a81548160ff02191690831515021790555060608201518160020160016101000a81548160ff02191690831515021790555060808201518160020160026101000a81548160ff021916908360ff16021790555060a0820151816003015560c08201518160040160006101000a81548173ffffffffffffffffffffffffffffffffffffffff021916908373ffffffffffffffffffffffffffffffffffffffff16021790555090505080600c6000600a548152602001908152602001600020819055505050505050505050565b61249861215a565b6124d7576040517f08c379a00000000000000000000000000000000000000000000000000000000081526004016124ce90614389565b60405180910390fd5b6124e03361213d565b15801561253b5750600860009054906101000a900473ffffffffffffffffffffffffffffffffffffffff1673ffffffffffffffffffffffffffffffffffffffff163373ffffffffffffffffffffffffffffffffffffffff1614155b61257a576040517f08c379a00000000000000000000000000000000000000000000000000000000081526004016125719061542f565b60405180910390fd5b6000600c600083815260200190815260200160002054905061259b8161314d565b6125da576040517f08c379a00000000000000000000000000000000000000000000000000000000081526004016125d19061549b565b60405180910390fd5b6000600b600083815260200190815260200160002060040160009054906101000a900473ffffffffffffffffffffffffffffffffffffffff169050600760009054906101000a900473ffffffffffffffffffffffffffffffffffffffff1673ffffffffffffffffffffffffffffffffffffffff1663ffc2ec9a348433856040518563ffffffff1660e01b8152600401612675939291906154bb565b6000604051808303818588803b15801561268e57600080fd5b505af11580156126a2573d6000803e3d6000fd5b5050505050505050565b6000806126bc878787878761292b565b9050600061270f338b8b8080601f016020809104026020016040519081016040528093929190818152602001838380828437600081840152601f19601f8201169050808301925050505050505084612729565b905061271a81613221565b92505050979650505050505050565b600083838360405160200161274093929190615523565b6040516020818303038152906040528051906020012090509392505050565b6060600080600080600080600760009054906101000a900473ffffffffffffffffffffffffffffffffffffffff1673ffffffffffffffffffffffffffffffffffffffff1663e188ac98896040518263ffffffff1660e01b81526004016127c59190614de6565b600060405180830381865afa1580156127e2573d6000803e3d6000fd5b505050506040513d6000823e3d601f19601f8201168201806040525081019061280b91906155e1565b9650965096509650965096509650919395979092949650565b600080600080600080600061283761215a565b612876576040517f08c379a000000000000000000000000000000000000000000000000000000000815260040161286d90614389565b60405180910390fd5b600760009054906101000a900473ffffffffffffffffffffffffffffffffffffffff1673ffffffffffffffffffffffffffffffffffffffff1663edeb6c3a896040518263ffffffff1660e01b81526004016128d19190613ad0565b60e060405180830381865afa1580156128ee573d6000803e3d6000fd5b505050506040513d601f19601f82011682018060405250810190612912919061569f565b9650965096509650965096509650919395979092949650565b60008073__DateLib_______________________________635ececa4f6040518061010001604052808a61ffff1681526020018960ff1681526020018860ff1681526020018760ff1681526020018660ff168152602001600060ff168152602001600060ff168152602001600060ff168152506040518263ffffffff1660e01b81526004016129ba9190615801565b602060405180830381865af41580156129d7573d6000803e3d6000fd5b505050506040513d601f19601f820116820180604052508101906129fb919061504c565b90508091505095945050505050565b600073ffffffffffffffffffffffffffffffffffffffff168173ffffffffffffffffffffffffffffffffffffffff161415612a4457600080fd5b612a4e8282612ab6565b15612a5857600080fd5b60018260000160008373ffffffffffffffffffffffffffffffffffffffff1673ffffffffffffffffffffffffffffffffffffffff16815260200190815260200160002060006101000a81548160ff0219169083151502179055505050565b60008073ffffffffffffffffffffffffffffffffffffffff168273ffffffffffffffffffffffffffffffffffffffff161415612af157600080fd5b8260000160008373ffffffffffffffffffffffffffffffffffffffff1673ffffffffffffffffffffffffffffffffffffffff16815260200190815260200160002060009054906101000a900460ff16905092915050565b612b518161213d565b15612b91576040517f08c379a0000000000000000000000000000000000000000000000000000000008152600401612b889061441b565b60405180910390fd5b612ba5816003612a0a90919063ffffffff16565b50565b612bb181611ac6565b15612bf1576040517f08c379a0000000000000000000000000000000000000000000000000000000008152600401612be89061588f565b60405180910390fd5b612c05816004612a0a90919063ffffffff16565b50565b612c1061215a565b612c4f576040517f08c379a0000000000000000000000000000000000000000000000000000000008152600401612c4690614389565b60405180910390fd5b612c588161213d565b15612c98576040517f08c379a0000000000000000000000000000000000000000000000000000000008152600401612c8f9061441b565b60405180910390fd5b612ca1816121f2565b15612ce1576040517f08c379a0000000000000000000000000000000000000000000000000000000008152600401612cd890615921565b60405180910390fd5b600d60405180608001604052808373ffffffffffffffffffffffffffffffffffffffff1681526020018481526020016000815260200160011515815250908060018154018082558091505060019003906000526020600020906004020160009091909190915060008201518160000160006101000a81548173ffffffffffffffffffffffffffffffffffffffff021916908373ffffffffffffffffffffffffffffffffffffffff1602179055506020820151816001019080519060200190612daa929190613486565b506040820151816002015560608201518160030160006101000a81548160ff02191690831515021790555050505050565b612de4816121f2565b15612e24576040517f08c379a0000000000000000000000000000000000000000000000000000000008152600401612e1b90615921565b60405180910390fd5b612e38816006612a0a90919063ffffffff16565b50565b600080600a905060008160ff16600f600081819054906101000a900460ff1680929190612e6790615941565b91906101000a81548160ff021916908360ff16021790555060ff1643612e8d919061596b565b4085604051602001612ea09291906159c0565b6040516020818303038152906040528051906020012060001c612ec391906159ec565b905060fa600f60009054906101000a900460ff1660ff161115612efd576000600f60006101000a81548160ff021916908360ff1602179055505b8092505050919050565b612f0f613464565b612f17613464565b612f2083612e3b565b81600060038110612f3457612f33614669565b5b602002019060ff16908160ff168152505080600060038110612f5957612f58614669565b5b602002015181600160038110612f7257612f71614669565b5b602002019060ff16908160ff16815250505b80600060038110612f9857612f97614669565b5b602002015160ff1681600160038110612fb457612fb3614669565b5b602002015160ff161415612ff557612fcb83612e3b565b81600160038110612fdf57612fde614669565b5b602002019060ff16908160ff1681525050612f84565b8060016003811061300957613008614669565b5b60200201518160026003811061302257613021614669565b5b602002019060ff16908160ff16815250505b8060006003811061304857613047614669565b5b602002015160ff168160026003811061306457613063614669565b5b602002015160ff1614806130ad57508060016003811061308757613086614669565b5b602002015160ff16816002600381106130a3576130a2614669565b5b602002015160ff16145b156130e5576130bb83612e3b565b816002600381106130cf576130ce614669565b5b602002019060ff16908160ff1681525050613034565b80915050919050565b6130f7816121f2565b613136576040517f08c379a000000000000000000000000000000000000000000000000000000000815260040161312d90615a8f565b60405180910390fd5b61314a81600661329590919063ffffffff16565b50565b600061315761215a565b613196576040517f08c379a000000000000000000000000000000000000000000000000000000000815260040161318d90614389565b60405180910390fd5b600b600083815260200190815260200160002060020160019054906101000a900460ff169050919050565b6131ca81611795565b1561320a576040517f08c379a000000000000000000000000000000000000000000000000000000000815260040161320190615b21565b60405180910390fd5b61321e816005612a0a90919063ffffffff16565b50565b600061322b61215a565b61326a576040517f08c379a000000000000000000000000000000000000000000000000000000000815260040161326190614389565b60405180910390fd5b600b600083815260200190815260200160002060020160029054906101000a900460ff169050919050565b600073ffffffffffffffffffffffffffffffffffffffff168173ffffffffffffffffffffffffffffffffffffffff1614156132cf57600080fd5b6132d98282612ab6565b6132e257600080fd5b60008260000160008373ffffffffffffffffffffffffffffffffffffffff1673ffffffffffffffffffffffffffffffffffffffff16815260200190815260200160002060006101000a81548160ff0219169083151502179055505050565b8280548282559060005260206000209081019282156133b9579160200282015b828111156133b85782518260006101000a81548173ffffffffffffffffffffffffffffffffffffffff021916908373ffffffffffffffffffffffffffffffffffffffff16021790555091602001919060010190613360565b5b5090506133c6919061350c565b5090565b826003601f016020900481019282156134535791602002820160005b8382111561342457835183826101000a81548160ff021916908360ff16021790555092602001926001016020816000010492830192600103026133e6565b80156134515782816101000a81549060ff0219169055600101602081600001049283019260010302613424565b505b509050613460919061350c565b5090565b6040518060600160405280600390602082028036833780820191505090505090565b82805461349290614d8b565b90600052602060002090601f0160209004810192826134b457600085556134fb565b82601f106134cd57805160ff19168380011785556134fb565b828001600101855582156134fb579182015b828111156134fa5782518255916020019190600101906134df565b5b509050613508919061350c565b5090565b5b8082111561352557600081600090555060010161350d565b5090565b6000604051905090565b600080fd5b600080fd5b600073ffffffffffffffffffffffffffffffffffffffff82169050919050565b60006135688261353d565b9050919050565b6135788161355d565b811461358357600080fd5b50565b6000813590506135958161356f565b92915050565b6000602082840312156135b1576135b0613533565b5b60006135bf84828501613586565b91505092915050565b600080fd5b600080fd5b6000601f19601f8301169050919050565b7f4e487b7100000000000000000000000000000000000000000000000000000000600052604160045260246000fd5b61361b826135d2565b810181811067ffffffffffffffff8211171561363a576136396135e3565b5b80604052505050565b600061364d613529565b90506136598282613612565b919050565b600067ffffffffffffffff821115613679576136786135e3565b5b613682826135d2565b9050602081019050919050565b82818337600083830152505050565b60006136b16136ac8461365e565b613643565b9050828152602081018484840111156136cd576136cc6135cd565b5b6136d884828561368f565b509392505050565b600082601f8301126136f5576136f46135c8565b5b813561370584826020860161369e565b91505092915050565b6000806040838503121561372557613724613533565b5b600083013567ffffffffffffffff81111561374357613742613538565b5b61374f858286016136e0565b925050602061376085828601613586565b9150509250929050565b60008115159050919050565b61377f8161376a565b811461378a57600080fd5b50565b60008135905061379c81613776565b92915050565b6000602082840312156137b8576137b7613533565b5b60006137c68482850161378d565b91505092915050565b600080fd5b600080fd5b60008083601f8401126137ef576137ee6135c8565b5b8235905067ffffffffffffffff81111561380c5761380b6137cf565b5b602083019150836001820283011115613828576138276137d4565b5b9250929050565b600061ffff82169050919050565b6138468161382f565b811461385157600080fd5b50565b6000813590506138638161383d565b92915050565b600060ff82169050919050565b61387f81613869565b811461388a57600080fd5b50565b60008135905061389c81613876565b92915050565b60008060008060008060008060e0898b0312156138c2576138c1613533565b5b60006138d08b828c01613586565b985050602089013567ffffffffffffffff8111156138f1576138f0613538565b5b6138fd8b828c016137d9565b975097505060406139108b828c01613854565b95505060606139218b828c0161388d565b94505060806139328b828c0161388d565b93505060a06139438b828c0161388d565b92505060c06139548b828c0161388d565b9150509295985092959890939650565b6000819050919050565b61397781613964565b811461398257600080fd5b50565b6000813590506139948161396e565b92915050565b6000602082840312156139b0576139af613533565b5b60006139be84828501613985565b91505092915050565b6000819050919050565b6139da816139c7565b82525050565b60006020820190506139f560008301846139d1565b92915050565b600060039050919050565b600081905092915050565b6000819050919050565b613a2481613869565b82525050565b6000613a368383613a1b565b60208301905092915050565b6000602082019050919050565b613a58816139fb565b613a628184613a06565b9250613a6d82613a11565b8060005b83811015613a9e578151613a858782613a2a565b9650613a9083613a42565b925050600181019050613a71565b505050505050565b6000606082019050613abb6000830184613a4f565b92915050565b613aca81613964565b82525050565b6000602082019050613ae56000830184613ac1565b92915050565b600081519050919050565b600082825260208201905092915050565b60005b83811015613b25578082015181840152602081019050613b0a565b83811115613b34576000848401525b50505050565b6000613b4582613aeb565b613b4f8185613af6565b9350613b5f818560208601613b07565b613b68816135d2565b840191505092915050565b613b7c8161376a565b82525050565b613b8b81613869565b82525050565b613b9a8161355d565b82525050565b600060e082019050613bb5600083018a6139d1565b8181036020830152613bc78189613b3a565b9050613bd66040830188613b73565b613be36060830187613b73565b613bf06080830186613b82565b613bfd60a0830185613ac1565b613c0a60c0830184613b91565b98975050505050505050565b6000602082019050613c2b6000830184613b73565b92915050565b600081519050919050565b600082825260208201905092915050565b6000819050602082019050919050565b613c668161355d565b82525050565b600082825260208201905092915050565b6000613c8882613aeb565b613c928185613c6c565b9350613ca2818560208601613b07565b613cab816135d2565b840191505092915050565b613cbf81613964565b82525050565b613cce8161376a565b82525050565b6000608083016000830151613cec6000860182613c5d565b5060208301518482036020860152613d048282613c7d565b9150506040830151613d196040860182613cb6565b506060830151613d2c6060860182613cc5565b508091505092915050565b6000613d438383613cd4565b905092915050565b6000602082019050919050565b6000613d6382613c31565b613d6d8185613c3c565b935083602082028501613d7f85613c4d565b8060005b85811015613dbb5784840389528151613d9c8582613d37565b9450613da783613d4b565b925060208a01995050600181019050613d83565b50829750879550505050505092915050565b60006020820190508181036000830152613de78184613d58565b905092915050565b60008060008060008060c08789031215613e0c57613e0b613533565b5b600087013567ffffffffffffffff811115613e2a57613e29613538565b5b613e3689828a016136e0565b9650506020613e4789828a01613854565b9550506040613e5889828a0161388d565b9450506060613e6989828a0161388d565b9350506080613e7a89828a0161388d565b92505060a0613e8b89828a0161388d565b9150509295509295509295565b600081519050919050565b600082825260208201905092915050565b6000819050602082019050919050565b613ecd816139c7565b82525050565b6000613edf8383613ec4565b60208301905092915050565b6000602082019050919050565b6000613f0382613e98565b613f0d8185613ea3565b9350613f1883613eb4565b8060005b83811015613f49578151613f308882613ed3565b9750613f3b83613eeb565b925050600181019050613f1c565b5085935050505092915050565b60006020820190508181036000830152613f708184613ef8565b905092915050565b60008060008060008060a08789031215613f9557613f94613533565b5b6000613fa389828a0161388d565b9650506020613fb489828a01613586565b955050604087013567ffffffffffffffff811115613fd557613fd4613538565b5b613fe189828a016137d9565b94509450506060613ff489828a01613985565b925050608061400589828a0161388d565b9150509295509295509295565b600080600080600080600060c0888a03121561403157614030613533565b5b600088013567ffffffffffffffff81111561404f5761404e613538565b5b61405b8a828b016137d9565b9750975050602061406e8a828b01613854565b955050604061407f8a828b0161388d565b94505060606140908a828b0161388d565b93505060806140a18a828b0161388d565b92505060a06140b28a828b0161388d565b91505092959891949750929550565b60006020820190506140d66000830184613b82565b92915050565b6000806000606084860312156140f5576140f4613533565b5b600061410386828701613586565b935050602084013567ffffffffffffffff81111561412457614123613538565b5b614130868287016136e0565b925050604061414186828701613985565b9150509250925092565b600060e0820190508181036000830152614165818a613b3a565b90506141746020830189613b91565b6141816040830188613b73565b61418e6060830187613b73565b61419b6080830186613b73565b6141a860a0830185613ac1565b6141b560c0830184613ac1565b98975050505050505050565b600060e0820190506141d6600083018a6139d1565b6141e360208301896139d1565b6141f06040830188613b91565b6141fd6060830187613ac1565b61420a6080830186613ac1565b61421760a0830185613b73565b61422460c0830184613b73565b98975050505050505050565b600080600080600060a0868803121561424c5761424b613533565b5b600061425a88828901613854565b955050602061426b8882890161388d565b945050604061427c8882890161388d565b935050606061428d8882890161388d565b925050608061429e8882890161388d565b9150509295509295909350565b7f43414c4c4552204953204e4f5420434f4e5452414354204f574e455200000000600082015250565b60006142e1601c83613af6565b91506142ec826142ab565b602082019050919050565b60006020820190508181036000830152614310816142d4565b9050919050565b7f434f4e54524143542049532043555252454e544c59204e4f54204f504552415460008201527f494f4e414c000000000000000000000000000000000000000000000000000000602082015250565b6000614373602583613af6565b915061437e82614317565b604082019050919050565b600060208201905081810360008301526143a281614366565b9050919050565b7f4552524f523a204149524c494e4520495320414c52454144592052454749535460008201527f4552454400000000000000000000000000000000000000000000000000000000602082015250565b6000614405602483613af6565b9150614410826143a9565b604082019050919050565b60006020820190508181036000830152614434816143f8565b9050919050565b7f4552524f523a2043414c4c4552204953204e4f5420434f4e54524f4c4c455200600082015250565b6000614471601f83613af6565b915061447c8261443b565b602082019050919050565b600060208201905081810360008301526144a081614464565b9050919050565b7f4e487b7100000000000000000000000000000000000000000000000000000000600052601160045260246000fd5b60006144e182613964565b91507fffffffffffffffffffffffffffffffffffffffffffffffffffffffffffffffff821415614514576145136144a7565b5b600182019050919050565b600060808201905081810360008301526145398187613b3a565b90506145486020830186613b91565b6145556040830185613ac1565b6145626060830184613b73565b95945050505050565b7f43414c4c4552204953204e4f54204120434f4e54524f4c4c4552000000000000600082015250565b60006145a1601a83613af6565b91506145ac8261456b565b602082019050919050565b600060208201905081810360008301526145d081614594565b9050919050565b7f4e4557204d4f4445204d555354204245204449464552454e542046524f4d205460008201527f4845204558495349544e47000000000000000000000000000000000000000000602082015250565b6000614633602b83613af6565b915061463e826145d7565b604082019050919050565b6000602082019050818103600083015261466281614626565b9050919050565b7f4e487b7100000000000000000000000000000000000000000000000000000000600052603260045260246000fd5b7f4552524f523a2043414c4c45522048415320414c52454144592043414c4c454460008201527f20544849532046554e4354494f4e000000000000000000000000000000000000602082015250565b60006146f4602e83613af6565b91506146ff82614698565b604082019050919050565b60006020820190508181036000830152614723816146e7565b9050919050565b60008160f81b9050919050565b60006147428261472a565b9050919050565b61475a61475582613869565b614737565b82525050565b60008160601b9050919050565b600061477882614760565b9050919050565b600061478a8261476d565b9050919050565b6147a261479d8261355d565b61477f565b82525050565b600081905092915050565b60006147bf83856147a8565b93506147cc83858461368f565b82840190509392505050565b6000819050919050565b6147f36147ee82613964565b6147d8565b82525050565b60006148058288614749565b6001820191506148158287614791565b6014820191506148268285876147b3565b915061483282846147e2565b6020820191508190509695505050505050565b60006148518385613af6565b935061485e83858461368f565b614867836135d2565b840190509392505050565b60006080820190506148876000830188613b82565b6148946020830187613b91565b81810360408301526148a7818587614845565b90506148b66060830184613ac1565b9695505050505050565b7f4552524f523a20524547495354524154494f4e2046454520495320524551554960008201527f5245440000000000000000000000000000000000000000000000000000000000602082015250565b600061491c602383613af6565b9150614927826148c0565b604082019050919050565b6000602082019050818103600083015261494b8161490f565b9050919050565b7f4552524f523a20564f544552204953204e4f5420524547495354455245440000600082015250565b6000614988601e83613af6565b915061499382614952565b602082019050919050565b600060208201905081810360008301526149b78161497b565b9050919050565b7f4552524f523a204149524c494e4520564f54454420495320414c52454144592060008201527f5245474953544552454400000000000000000000000000000000000000000000602082015250565b6000614a1a602a83613af6565b9150614a25826149be565b604082019050919050565b60006020820190508181036000830152614a4981614a0d565b9050919050565b7f4552524f523a204149524c494e4520564f544544204953204e4f54204120434160008201527f4e44494441544500000000000000000000000000000000000000000000000000602082015250565b6000614aac602783613af6565b9150614ab782614a50565b604082019050919050565b60006020820190508181036000830152614adb81614a9f565b9050919050565b7f4552524f523a2043414c4c455220414c524541445920564f54454420464f522060008201527f54484953204149524c494e450000000000000000000000000000000000000000602082015250565b6000614b3e602c83613af6565b9150614b4982614ae2565b604082019050919050565b60006020820190508181036000830152614b6d81614b31565b9050919050565b6000614b7f82613964565b9150614b8a83613964565b9250827fffffffffffffffffffffffffffffffffffffffffffffffffffffffffffffffff03821115614bbf57614bbe6144a7565b5b828201905092915050565b6000614bd582613964565b9150614be083613964565b9250817fffffffffffffffffffffffffffffffffffffffffffffffffffffffffffffffff0483118215151615614c1957614c186144a7565b5b828202905092915050565b7f4e487b7100000000000000000000000000000000000000000000000000000000600052601260045260246000fd5b6000614c5e82613964565b9150614c6983613964565b925082614c7957614c78614c24565b5b828204905092915050565b7f4552524f523a204f5241434c45204e4f54205245474953544552454400000000600082015250565b6000614cba601c83613af6565b9150614cc582614c84565b602082019050919050565b60006020820190508181036000830152614ce981614cad565b9050919050565b7f4552524f523a20464c49474854204953204e4f54205245474953544552454400600082015250565b6000614d26601f83613af6565b9150614d3182614cf0565b602082019050919050565b60006020820190508181036000830152614d5581614d19565b9050919050565b7f4e487b7100000000000000000000000000000000000000000000000000000000600052602260045260246000fd5b60006002820490506001821680614da357607f821691505b60208210811415614db757614db6614d5c565b5b50919050565b6000604082019050614dd26000830185613b91565b614ddf60208301846139d1565b9392505050565b6000602082019050614dfb6000830184613b91565b92915050565b600067ffffffffffffffff821115614e1c57614e1b6135e3565b5b602082029050602081019050919050565b614e36816139c7565b8114614e4157600080fd5b50565b600081519050614e5381614e2d565b92915050565b6000614e6c614e6784614e01565b613643565b90508083825260208201905060208402830185811115614e8f57614e8e6137d4565b5b835b81811015614eb85780614ea48882614e44565b845260208401935050602081019050614e91565b5050509392505050565b600082601f830112614ed757614ed66135c8565b5b8151614ee7848260208601614e59565b91505092915050565b600060208284031215614f0657614f05613533565b5b600082015167ffffffffffffffff811115614f2457614f23613538565b5b614f3084828501614ec2565b91505092915050565b7f4552524f523a2043414c4c4552204953204e4f54205245474953544552454400600082015250565b6000614f6f601f83613af6565b9150614f7a82614f39565b602082019050919050565b60006020820190508181036000830152614f9e81614f62565b9050919050565b7f4552524f523a2043414c4c455220495320414c5245414459204120504152544960008201527f434950414e540000000000000000000000000000000000000000000000000000602082015250565b6000615001602683613af6565b915061500c82614fa5565b604082019050919050565b6000602082019050818103600083015261503081614ff4565b9050919050565b6000815190506150468161396e565b92915050565b60006020828403121561506257615061613533565b5b600061507084828501615037565b91505092915050565b7f4552524f523a20494e444558204e4f54204d41544348494e47204f5241434c4560008201527f2052455155455354000000000000000000000000000000000000000000000000602082015250565b60006150d5602883613af6565b91506150e082615079565b604082019050919050565b60006020820190508181036000830152615104816150c8565b9050919050565b7f4552524f523a20464c494748542f54494d455354414d50204e4f54204d41544360008201527f48494e47204f5241434c45205245515545535400000000000000000000000000602082015250565b6000615167603383613af6565b91506151728261510b565b604082019050919050565b600060208201905081810360008301526151968161515a565b9050919050565b60006080820190506151b26000830188613b91565b81810360208301526151c5818688614845565b90506151d46040830185613ac1565b6151e16060830184613b82565b9695505050505050565b6000815190506151fa81613776565b92915050565b60006020828403121561521657615215613533565b5b6000615224848285016151eb565b91505092915050565b7f4552524f523a2043414c4c4552204953204e4f5420412050415254494349504160008201527f4e54000000000000000000000000000000000000000000000000000000000000602082015250565b6000615289602283613af6565b91506152948261522d565b604082019050919050565b600060208201905081810360008301526152b88161527c565b9050919050565b7f4552524f523a20464c494748542054494d45204d555354204245204154204c4560008201527f41535420343820484f555253205448414e204e4f570000000000000000000000602082015250565b600061531b603583613af6565b9150615326826152bf565b604082019050919050565b6000602082019050818103600083015261534a8161530e565b9050919050565b7f4552524f523a20464c4947485420414c52454144592052454749535445524544600082015250565b6000615387602083613af6565b915061539282615351565b602082019050919050565b600060208201905081810360008301526153b68161537a565b9050919050565b7f4552524f523a2043414c4c4552204953204e4f5420414c4c4f57454420544f2060008201527f42555920494e535552414e434500000000000000000000000000000000000000602082015250565b6000615419602d83613af6565b9150615424826153bd565b604082019050919050565b600060208201905081810360008301526154488161540c565b9050919050565b7f4552524f523a20464c49474854204e4f5420464f554e44000000000000000000600082015250565b6000615485601783613af6565b91506154908261544f565b602082019050919050565b600060208201905081810360008301526154b481615478565b9050919050565b60006060820190506154d060008301866139d1565b6154dd6020830185613b91565b6154ea6040830184613b91565b949350505050565b60006154fd82613aeb565b61550781856147a8565b9350615517818560208601613b07565b80840191505092915050565b600061552f8286614791565b60148201915061553f82856154f2565b915061554b82846147e2565b602082019150819050949350505050565b600061556f61556a8461365e565b613643565b90508281526020810184848401111561558b5761558a6135cd565b5b615596848285613b07565b509392505050565b600082601f8301126155b3576155b26135c8565b5b81516155c384826020860161555c565b91505092915050565b6000815190506155db8161356f565b92915050565b600080600080600080600060e0888a031215615600576155ff613533565b5b600088015167ffffffffffffffff81111561561e5761561d613538565b5b61562a8a828b0161559e565b975050602061563b8a828b016155cc565b965050604061564c8a828b016151eb565b955050606061565d8a828b016151eb565b945050608061566e8a828b016151eb565b93505060a061567f8a828b01615037565b92505060c06156908a828b01615037565b91505092959891949750929550565b600080600080600080600060e0888a0312156156be576156bd613533565b5b60006156cc8a828b01614e44565b97505060206156dd8a828b01614e44565b96505060406156ee8a828b016155cc565b95505060606156ff8a828b01615037565b94505060806157108a828b01615037565b93505060a06157218a828b016151eb565b92505060c06157328a828b016151eb565b91505092959891949750929550565b61574a8161382f565b82525050565b61575981613869565b82525050565b610100820160008201516157766000850182615741565b5060208201516157896020850182615750565b50604082015161579c6040850182615750565b5060608201516157af6060850182615750565b5060808201516157c26080850182615750565b5060a08201516157d560a0850182615750565b5060c08201516157e860c0850182615750565b5060e08201516157fb60e0850182615750565b50505050565b600061010082019050615817600083018461575f565b92915050565b7f4552524f523a204149524c494e4520495320414c5245414459204120434f4e5460008201527f524f4c4c45520000000000000000000000000000000000000000000000000000602082015250565b6000615879602683613af6565b91506158848261581d565b604082019050919050565b600060208201905081810360008301526158a88161586c565b9050919050565b7f4552524f523a204149524c494e4520495320414c524541445920412043414e4460008201527f4944415445000000000000000000000000000000000000000000000000000000602082015250565b600061590b602583613af6565b9150615916826158af565b604082019050919050565b6000602082019050818103600083015261593a816158fe565b9050919050565b600061594c82613869565b915060ff8214156159605761595f6144a7565b5b600182019050919050565b600061597682613964565b915061598183613964565b925082821015615994576159936144a7565b5b828203905092915050565b6000819050919050565b6159ba6159b5826139c7565b61599f565b82525050565b60006159cc82856159a9565b6020820191506159dc8284614791565b6014820191508190509392505050565b60006159f782613964565b9150615a0283613964565b925082615a1257615a11614c24565b5b828206905092915050565b7f4552524f523a204149524c494e45204953204e4f5420412043414e444944415460008201527f4500000000000000000000000000000000000000000000000000000000000000602082015250565b6000615a79602183613af6565b9150615a8482615a1d565b604082019050919050565b60006020820190508181036000830152615aa881615a6c565b9050919050565b7f4552524f523a204149524c494e4520495320414c52454144592041205041525460008201527f49434950414e5400000000000000000000000000000000000000000000000000602082015250565b6000615b0b602783613af6565b9150615b1682615aaf565b604082019050919050565b60006020820190508181036000830152615b3a81615afe565b905091905056fea26469706673582212200f4de1b05e2b4499dd9d25add0df93a9661b5a7ad3dbb2c64f579f654204e97564736f6c634300080b0033",
  "immutableReferences": {},
  "source": "// SPDX-License-Identifier: MIT\npragma solidity ^0.8.0;\n\nimport \"./DateLib.sol\";\nimport \"./RoleLib.sol\";\n\nimport \"@openzeppelin/contracts/utils/math/SafeMath.sol\";\n// import \"../node_modules/openzeppelin-solidity/contracts/math/SafeMath.sol\";\n\ncontract FlightSuretyApp {\n    using SafeMath for uint256;\n\n    bool private operational = true;            // BLOCKS ALL STATE CHANGES THROUGHOUT THE CONTRACT IF FALSE\n    address[] multiCalls = new address[](0);\n    uint M = 3;\n\n\n    /********************************************************************************************/\n    /*                                          DATELIB                                         */\n    /********************************************************************************************/\n    using DateLib for DateLib.DateTime;         //LIBRARY USED TO CONVERT HUMAN DATE TIME TO EPOCH TIMESTAMP\n\n    function getDateTime(uint16 _year, uint8 _month, uint8 _day, uint8 _hour, uint8 _minute) public pure returns(uint) {\n        uint unixDate = DateLib.toUnixTimestamp(DateLib.DateTime({\n            year: _year,\n            month: _month,\n            day: _day,\n            hour: _hour,\n            minute: _minute,\n            second: 0,\n            ms: 0,\n            weekday: 0\n        }));\n        \n        return unixDate;\n    }\n    \n    /********************************************************************************************/\n    /*                                         ROLELIB                                          */\n    /********************************************************************************************/\n    using RoleLib for RoleLib.Role;             //LIBRARY USED TO CLASSIFY AIRLINES INTO DIFFERENT ROLES\n\n    RoleLib.Role private registers;\n    RoleLib.Role private controllers;\n    RoleLib.Role private participants;\n    RoleLib.Role private candidates;            \n\n    function register(address _address) internal {\n        require(!isRegistered(_address), \"ERROR: AIRLINE IS ALREADY REGISTERED\");\n        registers.add(_address);\n    }\n\n    function addController(address _address) internal {\n        require(!isController(_address), \"ERROR: AIRLINE IS ALREADY A CONTROLLER\");\n        controllers.add(_address);\n    }\n\n    function addParticipant(address _address) internal {\n        require(!isParticipant(_address), \"ERROR: AIRLINE IS ALREADY A PARTICIPANT\");\n        participants.add(_address);\n    }\n    \n    function addCandidate(address _address) internal {\n        require(!isCandidate(_address), \"ERROR: AIRLINE IS ALREADY A CANDIDATE\");\n        candidates.add(_address);\n    }\n\n    function removeCandidate(address _address) internal {\n        require(isCandidate(_address), \"ERROR: AIRLINE IS NOT A CANDIDATE\");\n        candidates.remove(_address);\n    }\n\n\n    /********************************************************************************************/\n    /*                                       DATA VARIABLES                                     */\n    /********************************************************************************************/\n    FlightSuretyData flightSuretyData;\n    // Flight status codees\n    uint8 private constant STATUS_CODE_UNKNOWN = 0;\n    uint8 private constant STATUS_CODE_ON_TIME = 10;\n    uint8 private constant STATUS_CODE_LATE_AIRLINE = 20;\n    uint8 private constant STATUS_CODE_LATE_WEATHER = 30;\n    uint8 private constant STATUS_CODE_LATE_TECHNICAL = 40;\n    uint8 private constant STATUS_CODE_LATE_OTHER = 50;\n\n    address private contractOwner;          // Account used to deploy contract\n\n    uint aCounter = 1;\n    uint fCounter = 0;    \n\n    struct Flight{\n        string          flight;\n        uint            flightId;\n        bool            active;\n        bool            isRegistered;\n        uint8           statusCode;\n        uint256         updatedTimestamp;\n        address         airlineAddress;\n    }\n    mapping(bytes32 => Flight) private flights;\n    mapping(uint => bytes32) public flightsReverse;\n\n\n    /********************************************************************************************/\n    /*                             CANDIDATE AIRLINE VARIABLES                                  */\n    /********************************************************************************************/\n    struct Proposal {\n        address         proposedAddress;\n        string          proposedName;\n        uint            voteCount;\n        bool            active;\n    }\n    Proposal[] private proposals;\n    mapping(address => address[]) voters;\n\n\n    /********************************************************************************************/\n    /*                                       FUNCTION MODIFIERS                                 */\n    /********************************************************************************************/\n    modifier requireIsOperational() {\n        require(isOperational(), \"CONTRACT IS CURRENTLY NOT OPERATIONAL\");\n        _;\n    }\n    \n    modifier requireContractOwner() {\n        require(msg.sender == contractOwner, \"CALLER IS NOT CONTRACT OWNER\");\n        _;\n    }\n\n    modifier requireController() {\n        require(msg.sender == contractOwner || controllers.has(msg.sender), \"CALLER IS NOT A CONTROLLER\");\n        _;\n    }\n\n\n    /********************************************************************************************/\n    /*                                       CONSTRUCTOR                                        */\n    /********************************************************************************************/\n    constructor(address dataContract) {\n        contractOwner = msg.sender;\n        flightSuretyData = FlightSuretyData(dataContract);\n        address _firstAirlineAddress = flightSuretyData.getFirstAirlineAddress();\n        register(_firstAirlineAddress);\n        addController(_firstAirlineAddress);\n    }\n\n\n    /********************************************************************************************/\n    /*                                  OPERATIONAL STATUS CONTROL                              */\n    /********************************************************************************************/\n    function setOperatingStatus(bool mode) external requireController() {\n        require(mode != operational, \"NEW MODE MUST BE DIFERENT FROM THE EXISITNG\");\n\n        bool isDuplicate = false;\n        for(uint c = 0; c < multiCalls.length; c++) {\n            if (multiCalls[c] == msg.sender) {\n                isDuplicate = true;\n                break;\n            }\n        }\n        \n        require(!isDuplicate, \"ERROR: CALLER HAS ALREADY CALLED THIS FUNCTION\");\n\n        multiCalls.push(msg.sender);\n        if (multiCalls.length >= M) {\n            operational = mode;\n            multiCalls = new address[](0);\n        }\n    }\n\n\n    /********************************************************************************************/\n    /*                                       UTILITY FUNCTIONS                                  */\n    /********************************************************************************************/\n    function isOperational() public view returns(bool) {\n        return flightSuretyData.isOperational();\n    }\n\n    function setDataContract(address dataContract) external requireContractOwner {\n        flightSuretyData = FlightSuretyData(dataContract);\n    }\n\n    function isController(address _address) public view returns(bool) {\n        //return controllers.has(_address);\n        return (_address == contractOwner || controllers.has(_address));\n    }\n\n    function isRegistered(address _address) public view returns(bool) {\n        return registers.has(_address);\n    }\n\n    function isParticipant(address _address) public view returns(bool) {\n        return participants.has(_address); \n    }\n\n    function isCandidate(address _address) public view returns(bool) {\n        return candidates.has(_address);\n    }\n\n\n    /********************************************************************************************/\n    /*                                        AIRLINE FUNCTIONS                                 */\n    /********************************************************************************************/\n    function registerAirline(string memory _name, address _address) public requireIsOperational() {\n        require(!isRegistered(_address), \"ERROR: AIRLINE IS ALREADY REGISTERED\");\n        \n        if(aCounter < 4) {\n            require(msg.sender == contractOwner || isController(msg.sender), \"ERROR: CALLER IS NOT CONTROLLER\");\n            \n            aCounter ++;\n            flightSuretyData.registerAirline(_name, _address, aCounter, true);\n            \n            register(_address);\n            addController(_address);\n        \n        } else {\n            candidateAirline(_name, _address);\n\n            addCandidate(_address);\n        }\n    }\n\n    function checkAirlines(address _address) public view \n    returns(string memory name_, address address_, bool registered_, bool participant_, bool controller_, uint fundavailable_, uint fundcommitted_) {   \n        return flightSuretyData.checkAirlines(_address);\n    }\n\n    function candidateAirline(string memory _name, address _address) internal requireIsOperational() {\n        require(!isRegistered(_address), \"ERROR: AIRLINE IS ALREADY REGISTERED\");\n        require(!isCandidate(_address), \"ERROR: AIRLINE IS ALREADY A CANDIDATE\");\n        \n        proposals.push(Proposal({\n            proposedAddress: _address,\n            proposedName: _name,\n            voteCount: 0,\n            active: true\n            })\n        );\n    }\n\n    function checkCandidateAirlines() public view returns(Proposal[] memory ) {\n        return proposals;\n    }\n\n    function vote(string memory _name, address _address) public requireIsOperational() {\n        require(isRegistered(msg.sender), \"ERROR: VOTER IS NOT REGISTERED\");\n        require(!isRegistered(_address), \"ERROR: AIRLINE VOTED IS ALREADY REGISTERED\");\n        require(isCandidate(_address), \"ERROR: AIRLINE VOTED IS NOT A CANDIDATE\");\n        \n        bool found = false;\n        uint result = 0;\n        for (uint v = 0; v < voters[msg.sender].length; v++) {\n            if(voters[msg.sender][v] == _address){\n                found = true;\n                revert(\"ERROR: CALLER ALREADY VOTED FOR THIS AIRLINE\");\n            }\n        }\n        if(!found){\n            voters[msg.sender].push(_address);\n        }\n        for (uint p = 0; p < proposals.length; p++) {\n            if (proposals[p].proposedAddress == _address) {\n                proposals[p].voteCount += 1;\n                result = (proposals[p].voteCount * 100) / aCounter;\n                if(result >= 50){\n                    aCounter ++;\n                    flightSuretyData.registerAirline(_name, _address, aCounter, false);\n\n                    register(_address);\n                    removeCandidate(_address);\n                    proposals[p].active = false;\n                }\n                break;\n            }\n        }\n    }\n\n\n    /********************************************************************************************/\n    /*                                       FUNDING FUNCTIONS                                  */\n    /********************************************************************************************/\n    function fund() public payable requireIsOperational() {\n        require(isRegistered(msg.sender), \"ERROR: CALLER IS NOT REGISTERED\");\n        require(!isParticipant(msg.sender), \"ERROR: CALLER IS ALREADY A PARTICIPANT\");\n\n        flightSuretyData.fund{value: msg.value}(msg.sender);\n\n        addParticipant(msg.sender);\n    }\n\n\n    /********************************************************************************************/\n    /*                                        FLIGHT FUNCTIONS                                  */\n    /********************************************************************************************/\n    function registerFlight(string memory _flight, uint16 _year, uint8 _month, uint8 _day, uint8 _hour, uint8 _minute) public {\n        require(isParticipant(msg.sender), \"ERROR: CALLER IS NOT A PARTICIPANT\");\n        \n        uint _timestamp = getDateTime(_year, _month, _day, _hour, _minute);\n        require(_timestamp > block.timestamp + 172800, \"ERROR: FLIGHT TIME MUST BE AT LEAST 48 HOURS THAN NOW\");\n         \n        bytes32 _flightKey = getFlightKey(msg.sender, _flight, _timestamp);\n        require(!checkFlight(_flightKey), \"ERROR: FLIGHT ALREADY REGISTERED\");\n        \n        fCounter++;\n        flights[_flightKey] = Flight({\n            flight: _flight,\n            flightId: fCounter,\n            active: true,\n            isRegistered: true,\n            statusCode: 0,\n            updatedTimestamp: _timestamp,\n            airlineAddress: msg.sender\n        });\n\n        flightsReverse[fCounter] = _flightKey;\n\n    }\n\n    function checkFlight(bytes32 _flightKey) internal view requireIsOperational() returns(bool) {\n        return flights[_flightKey].isRegistered;\n    }\n\n    function updateFlightTimestamp(bytes32 _flightKey, uint256 _timestamp) internal requireIsOperational() {\n        flights[_flightKey].updatedTimestamp = _timestamp;\n    }\n\n    function updateFlightStatus(bytes32 _flightKey, uint8 _statusCode) internal requireIsOperational()  {\n        flights[_flightKey].statusCode = _statusCode;\n    }\n\n    function getFlightStatus(bytes32 _flightKey) internal view requireIsOperational() returns(uint8) {\n        return flights[_flightKey].statusCode;\n    }\n\n    function checkFlights(uint _flightId) public view requireIsOperational()\n        returns(bytes32 flightKey_, string memory flight_, bool active_, bool isRegistered_, uint8 status_, uint256 timestamp_, address address_) \n    {\n        bytes32 _flightKey = flightsReverse[_flightId];\n        require(checkFlight(_flightKey), \"ERROR: FLIGHT IS NOT REGISTERED\");\n        return(_flightKey\n            , flights[_flightKey].flight\n            , flights[_flightKey].active\n            , flights[_flightKey].isRegistered\n            , flights[_flightKey].statusCode\n            , flights[_flightKey].updatedTimestamp\n            , flights[_flightKey].airlineAddress\n        );\n    }\n\n\n    /********************************************************************************************/\n    /*                                   PROCESS FLIGHT FUNCTION                                */\n    /********************************************************************************************/\n    function processFlightStatus(string memory _flight, uint16 _year, uint8 _month, uint8 _day, uint8 _hour, uint8 _minute, uint8 _statusCode) internal {\n        uint _timestamp = getDateTime(_year, _month, _day, _hour, _minute);\n        bytes32 _flightKey = getFlightKey(msg.sender, _flight, _timestamp);\n        \n        require(checkFlight(_flightKey), \"ERROR: FLIGHT IS NOT REGISTERED\");\n\n        updateFlightTimestamp(_flightKey, _timestamp);\n        updateFlightStatus(_flightKey, _statusCode);\n\n        if (_statusCode == STATUS_CODE_LATE_AIRLINE) {\n            flightSuretyData.creditInsurees(_flightKey);\n        }\n    }\n\n\n    /********************************************************************************************/\n    /*                                     PASSENGER FUNCTIONS                                  */\n    /********************************************************************************************/\n    function buy(uint _flightId) public payable requireIsOperational() {\n        require(!isRegistered(msg.sender) && msg.sender != contractOwner, \"ERROR: CALLER IS NOT ALLOWED TO BUY INSURANCE\");\n        \n        bytes32 _flightKey = flightsReverse[_flightId];\n        require(checkFlight(_flightKey), \"ERROR: FLIGHT NOT FOUND\");\n\n        address _airlineAddress = flights[_flightKey].airlineAddress;\n\n        flightSuretyData.buy{value: msg.value}(_flightKey, msg.sender, _airlineAddress);\n\n    }\n\n    function checkPassengerInsurances() public view requireIsOperational() returns(bytes32[] memory) {\n        return flightSuretyData.checkPassengerInsurances(msg.sender);\n    }\n\n    function checkInsuranceAmountPaid(uint _flightId) public view requireIsOperational() returns(uint) {\n        bytes32 _flightKey = flightsReverse[_flightId];\n        return flightSuretyData.checkInsuranceAmountPaid(msg.sender, _flightKey);\n    }\n    \n    function checkInsurances(uint _insuranceId) public view requireIsOperational()\n    returns(bytes32 insuranceKey_, bytes32 flightKey_, address passengerAddress_, uint amountPaid_, uint amountAvailable_, bool claimable_, bool active_) {   \n        return flightSuretyData.checkInsurances(_insuranceId);\n    }\n\n\n\n\n\n    // Generate a request for oracles to fetch flight information\n    function fetchFlightStatus(address _airline, string calldata _flight, uint16 _year, uint8 _month, uint8 _day, uint8 _hour, uint8 _minute) external {\n        uint8 index = getRandomIndex(msg.sender);\n\n        uint _timestamp = getDateTime(_year, _month, _day, _hour, _minute);\n\n        // Generate a unique key for storing the request\n        bytes32 key = keccak256(abi.encodePacked(index, _airline, _flight, _timestamp));\n        oracleResponses[key].requester = msg.sender;\n        oracleResponses[key].isOpen = true;\n\n        emit OracleRequest(index, _airline, _flight, _timestamp);\n    }\n\n    // Query the status of any flight\n    function viewFlightStatus(string calldata _flight, uint16 _year, uint8 _month, uint8 _day, uint8 _hour, uint8 _minute) external view returns(uint8) {\n        uint _timestamp = getDateTime(_year, _month, _day, _hour, _minute);\n\n        bytes32 _flightKey = getFlightKey(msg.sender, _flight, _timestamp);\n        return getFlightStatus(_flightKey);\n    }\n\n    function withdrawCredit(string memory _flight, uint16 _year, uint8 _month, uint8 _day, uint8 _hour, uint8 _minute) public {\n        //uint _timestamp = flightSuretyData.getDateTime(_year, _month, _day, _hour, _minute);\n        uint _timestamp = getDateTime(_year, _month, _day, _hour, _minute);\n\n        bytes32 _flightKey = getFlightKey(msg.sender, _flight, _timestamp);\n        flightSuretyData.pay(msg.sender, _flightKey);\n    }\n\n// region ORACLE MANAGEMENT\n\n    // Incremented to add pseudo-randomness at various points\n    uint8 private nonce = 0;\n\n    // Fee to be paid when registering oracle\n    uint256 public constant REGISTRATION_FEE = 1 ether;\n\n    // Number of oracles that must respond for valid status\n    uint256 private constant MIN_RESPONSES = 3;\n\n\n    struct Oracle {\n        bool isRegistered;\n        uint8[3] indexes;\n    }\n\n    // Track all registered oracles\n    mapping(address => Oracle) private oracles;\n\n    // Model for responses from oracles\n    struct ResponseInfo {\n        address requester;                              // Account that requested status\n        bool isOpen;                                    // If open, oracle responses are accepted\n        mapping(uint8 => address[]) responses;          // Mapping key is the status code reported\n                                                        // This lets us group responses and identify\n                                                        // the response that majority of the oracles\n    }\n\n    // Track all oracle responses\n    // Key = hash(index, flight, timestamp)\n    mapping(bytes32 => ResponseInfo) private oracleResponses;\n\n    // Event fired each time an oracle submits a response\n    event FlightStatusInfo(address airline, string flight, uint256 timestamp, uint8 status);\n\n    event OracleReport(address airline, string flight, uint256 timestamp, uint8 status);\n\n    // Event fired when flight status request is submitted\n    // Oracles track this and if they have a matching index\n    // they fetch data and submit a response\n    event OracleRequest(uint8 index, address airline, string flight, uint256 timestamp);\n\n\n    // Register an oracle with the contract\n    function registerOracle() external payable {\n        // Require registration fee\n        require(msg.value >= REGISTRATION_FEE, \"ERROR: REGISTRATION FEE IS REQUIRED\");\n\n        uint8[3] memory indexes = generateIndexes(msg.sender);\n\n        oracles[msg.sender] = Oracle({\n                                        isRegistered: true,\n                                        indexes: indexes\n                                    });\n    }\n\n    function getMyIndexes() external view returns(uint8[3] memory) {\n        require(oracles[msg.sender].isRegistered, \"ERROR: ORACLE NOT REGISTERED\");\n\n        return oracles[msg.sender].indexes;\n    }\n\n    // Called by oracle when a response is available to an outstanding request\n    // For the response to be accepted, there must be a pending request that is open\n    // and matches one of the three Indexes randomly assigned to the oracle at the\n    // time of registration (i.e. uninvited oracles are not welcome)\n    function submitOracleResponse(uint8 index, address airline, string calldata flight, uint256 timestamp, uint8 statusCode)\n    external {\n        require((oracles[msg.sender].indexes[0] == index) || (oracles[msg.sender].indexes[1] == index) || (oracles[msg.sender].indexes[2] == index), \"ERROR: INDEX NOT MATCHING ORACLE REQUEST\");\n\n\n        bytes32 key = keccak256(abi.encodePacked(index, airline, flight, timestamp));\n        require(oracleResponses[key].isOpen, \"ERROR: FLIGHT/TIMESTAMP NOT MATCHING ORACLE REQUEST\");\n\n        oracleResponses[key].responses[statusCode].push(msg.sender);\n\n        // Information isn't considered verified until at least MIN_RESPONSES\n        // oracles respond with the *** same *** information\n        emit OracleReport(airline, flight, timestamp, statusCode);\n        if (oracleResponses[key].responses[statusCode].length >= MIN_RESPONSES) {\n\n            emit FlightStatusInfo(airline, flight, timestamp, statusCode);\n\n            // Handle flight status as appropriate\n            //processFlightStatus(flight, timestamp, statusCode);\n        }\n    }\n\n    function getFlightKey(address airline, string memory flight, uint256 timestamp) pure public returns(bytes32) {\n        return keccak256(abi.encodePacked(airline, flight, timestamp));\n    }\n\n    // Returns array of three non-duplicating integers from 0-9\n    function generateIndexes(address _account) internal returns(uint8[3] memory) {\n        uint8[3] memory indexes;\n        indexes[0] = getRandomIndex(_account);\n\n        indexes[1] = indexes[0];\n        while(indexes[1] == indexes[0]) {\n            indexes[1] = getRandomIndex(_account);\n        }\n\n        indexes[2] = indexes[1];\n        while((indexes[2] == indexes[0]) || (indexes[2] == indexes[1])) {\n            indexes[2] = getRandomIndex(_account);\n        }\n\n        return indexes;\n    }\n\n    // Returns array of three non-duplicating integers from 0-9\n    function getRandomIndex(address _account) internal returns (uint8) {\n        uint8 maxValue = 10;\n\n        // Pseudo random number...the incrementing nonce adds variation\n        uint8 random = uint8(uint256(keccak256(abi.encodePacked(blockhash(block.number - nonce++), _account))) % maxValue);\n\n        if (nonce > 250) {\n            nonce = 0;  // Can only fetch blockhashes for last 256 blocks so we adapt\n        }\n\n        return random;\n    }\n\n// endregion\n\n}\n\ncontract FlightSuretyData {\n\n    function isOperational() external view returns(bool) {}\n\n    function getFirstAirlineAddress() external view returns(address){}\n    \n    function registerAirline(string memory _name, address _address, uint _aCounter, bool _controller) external {}\n\n    function candidateAirline(string memory _name, address _address) external {}\n\n    function fund(address _address) external payable {}\n    \n    function checkAirlines(address _airlineAddress) external view \n    returns(string memory name_, address address_, bool registered_, bool participant_, bool controller_, uint fundavailable_, uint fundcommitted_) {}\n\n    function buy(bytes32 _flightKey, address _passengerAddress, address _airlineAddress) external payable {}\n\n    function checkInsurances(uint _insuranceId) external view\n    returns(bytes32 insuranceKey_, bytes32 flightKey_, address passengerAddress_, uint amountPaid_, uint amountAvailable_, bool claimable_, bool active_) {}\n\n    function checkPassengerInsurances(address _passengerAddress) external view returns(bytes32[] memory) {}\n\n    function checkInsuranceAmountPaid(address _passengerAddress, bytes32 _flightKey) external view returns(uint amountPaid_) {}\n\n    function creditInsurees(bytes32 _flightKey) external {}\n\n    function pay(address _passengerAddress, bytes32 _flightKey) external {}\n\n}\n",
  "sourcePath": "/Users/fernandomaximof/Documents/udacity-projects/project4/contracts/FlightSuretyApp.sol",
  "compiler": {
    "name": "solc",
    "version": "0.8.11+commit.d7f03943.Emscripten.clang"
  },
  "schemaVersion": "3.4.3",
  "updatedAt": "2022-02-01T04:02:39.500Z",
  "networkType": "ethereum",
  "devdoc": {
    "kind": "dev",
    "methods": {},
    "version": 1
  },
  "userdoc": {
    "kind": "user",
    "methods": {},
    "version": 1
  }
}