{
  "contractName": "FlightSuretyApp",
  "abi": [
    {
      "inputs": [
        {
          "internalType": "address",
          "name": "dataContract",
          "type": "address"
        }
      ],
      "stateMutability": "nonpayable",
      "type": "constructor"
    },
    {
      "anonymous": false,
      "inputs": [
        {
          "indexed": false,
          "internalType": "address",
          "name": "airline",
          "type": "address"
        },
        {
          "indexed": false,
          "internalType": "string",
          "name": "flight",
          "type": "string"
        },
        {
          "indexed": false,
          "internalType": "uint256",
          "name": "timestamp",
          "type": "uint256"
        },
        {
          "indexed": false,
          "internalType": "uint8",
          "name": "status",
          "type": "uint8"
        }
      ],
      "name": "FlightStatusInfo",
      "type": "event"
    },
    {
      "anonymous": false,
      "inputs": [
        {
          "indexed": false,
          "internalType": "address",
          "name": "airline",
          "type": "address"
        },
        {
          "indexed": false,
          "internalType": "string",
          "name": "flight",
          "type": "string"
        },
        {
          "indexed": false,
          "internalType": "uint256",
          "name": "timestamp",
          "type": "uint256"
        },
        {
          "indexed": false,
          "internalType": "uint8",
          "name": "status",
          "type": "uint8"
        }
      ],
      "name": "OracleReport",
      "type": "event"
    },
    {
      "anonymous": false,
      "inputs": [
        {
          "indexed": false,
          "internalType": "uint8",
          "name": "index",
          "type": "uint8"
        },
        {
          "indexed": false,
          "internalType": "address",
          "name": "airline",
          "type": "address"
        },
        {
          "indexed": false,
          "internalType": "string",
          "name": "flight",
          "type": "string"
        },
        {
          "indexed": false,
          "internalType": "uint256",
          "name": "timestamp",
          "type": "uint256"
        }
      ],
      "name": "OracleRequest",
      "type": "event"
    },
    {
      "inputs": [],
      "name": "REGISTRATION_FEE",
      "outputs": [
        {
          "internalType": "uint256",
          "name": "",
          "type": "uint256"
        }
      ],
      "stateMutability": "view",
      "type": "function",
      "constant": true
    },
    {
      "inputs": [
        {
          "internalType": "bytes32",
          "name": "",
          "type": "bytes32"
        }
      ],
      "name": "flights",
      "outputs": [
        {
          "internalType": "string",
          "name": "flight",
          "type": "string"
        },
        {
          "internalType": "uint256",
          "name": "flightId",
          "type": "uint256"
        },
        {
          "internalType": "bool",
          "name": "active",
          "type": "bool"
        },
        {
          "internalType": "bool",
          "name": "isRegistered",
          "type": "bool"
        },
        {
          "internalType": "uint8",
          "name": "statusCode",
          "type": "uint8"
        },
        {
          "internalType": "uint256",
          "name": "updatedTimestamp",
          "type": "uint256"
        },
        {
          "internalType": "address",
          "name": "airlineAddress",
          "type": "address"
        }
      ],
      "stateMutability": "view",
      "type": "function",
      "constant": true
    },
    {
      "inputs": [
        {
          "internalType": "uint256",
          "name": "",
          "type": "uint256"
        }
      ],
      "name": "flightsReverse",
      "outputs": [
        {
          "internalType": "bytes32",
          "name": "",
          "type": "bytes32"
        }
      ],
      "stateMutability": "view",
      "type": "function",
      "constant": true
    },
    {
      "inputs": [
        {
          "internalType": "uint16",
          "name": "_year",
          "type": "uint16"
        },
        {
          "internalType": "uint8",
          "name": "_month",
          "type": "uint8"
        },
        {
          "internalType": "uint8",
          "name": "_day",
          "type": "uint8"
        },
        {
          "internalType": "uint8",
          "name": "_hour",
          "type": "uint8"
        },
        {
          "internalType": "uint8",
          "name": "_minute",
          "type": "uint8"
        }
      ],
      "name": "getDateTime",
      "outputs": [
        {
          "internalType": "uint256",
          "name": "",
          "type": "uint256"
        }
      ],
      "stateMutability": "pure",
      "type": "function",
      "constant": true
    },
    {
      "inputs": [
        {
          "internalType": "bool",
          "name": "mode",
          "type": "bool"
        }
      ],
      "name": "setOperatingStatus",
      "outputs": [],
      "stateMutability": "nonpayable",
      "type": "function"
    },
    {
      "inputs": [],
      "name": "isOperational",
      "outputs": [
        {
          "internalType": "bool",
          "name": "",
          "type": "bool"
        }
      ],
      "stateMutability": "view",
      "type": "function",
      "constant": true
    },
    {
      "inputs": [
        {
          "internalType": "address",
          "name": "dataContract",
          "type": "address"
        }
      ],
      "name": "setDataContract",
      "outputs": [],
      "stateMutability": "nonpayable",
      "type": "function"
    },
    {
      "inputs": [
        {
          "internalType": "address",
          "name": "_address",
          "type": "address"
        }
      ],
      "name": "isController",
      "outputs": [
        {
          "internalType": "bool",
          "name": "",
          "type": "bool"
        }
      ],
      "stateMutability": "view",
      "type": "function",
      "constant": true
    },
    {
      "inputs": [
        {
          "internalType": "address",
          "name": "_address",
          "type": "address"
        }
      ],
      "name": "isRegistered",
      "outputs": [
        {
          "internalType": "bool",
          "name": "",
          "type": "bool"
        }
      ],
      "stateMutability": "view",
      "type": "function",
      "constant": true
    },
    {
      "inputs": [
        {
          "internalType": "address",
          "name": "_address",
          "type": "address"
        }
      ],
      "name": "isParticipant",
      "outputs": [
        {
          "internalType": "bool",
          "name": "",
          "type": "bool"
        }
      ],
      "stateMutability": "view",
      "type": "function",
      "constant": true
    },
    {
      "inputs": [
        {
          "internalType": "address",
          "name": "_address",
          "type": "address"
        }
      ],
      "name": "isCandidate",
      "outputs": [
        {
          "internalType": "bool",
          "name": "",
          "type": "bool"
        }
      ],
      "stateMutability": "view",
      "type": "function",
      "constant": true
    },
    {
      "inputs": [
        {
          "internalType": "string",
          "name": "_name",
          "type": "string"
        },
        {
          "internalType": "address",
          "name": "_address",
          "type": "address"
        }
      ],
      "name": "registerAirline",
      "outputs": [],
      "stateMutability": "nonpayable",
      "type": "function"
    },
    {
      "inputs": [
        {
          "internalType": "address",
          "name": "_address",
          "type": "address"
        }
      ],
      "name": "checkAirlines",
      "outputs": [
        {
          "internalType": "string",
          "name": "name_",
          "type": "string"
        },
        {
          "internalType": "address",
          "name": "address_",
          "type": "address"
        },
        {
          "internalType": "bool",
          "name": "registered_",
          "type": "bool"
        },
        {
          "internalType": "bool",
          "name": "participant_",
          "type": "bool"
        },
        {
          "internalType": "bool",
          "name": "controller_",
          "type": "bool"
        },
        {
          "internalType": "uint256",
          "name": "fundavailable_",
          "type": "uint256"
        },
        {
          "internalType": "uint256",
          "name": "fundcommitted_",
          "type": "uint256"
        }
      ],
      "stateMutability": "view",
      "type": "function",
      "constant": true
    },
    {
      "inputs": [],
      "name": "checkCandidateAirlines",
      "outputs": [
        {
          "components": [
            {
              "internalType": "address",
              "name": "proposedAddress",
              "type": "address"
            },
            {
              "internalType": "string",
              "name": "proposedName",
              "type": "string"
            },
            {
              "internalType": "uint256",
              "name": "voteCount",
              "type": "uint256"
            },
            {
              "internalType": "bool",
              "name": "active",
              "type": "bool"
            }
          ],
          "internalType": "struct FlightSuretyApp.Proposal[]",
          "name": "",
          "type": "tuple[]"
        }
      ],
      "stateMutability": "view",
      "type": "function",
      "constant": true
    },
    {
      "inputs": [
        {
          "internalType": "string",
          "name": "_name",
          "type": "string"
        },
        {
          "internalType": "address",
          "name": "_address",
          "type": "address"
        }
      ],
      "name": "vote",
      "outputs": [],
      "stateMutability": "nonpayable",
      "type": "function"
    },
    {
      "inputs": [],
      "name": "fund",
      "outputs": [],
      "stateMutability": "payable",
      "type": "function",
      "payable": true
    },
    {
      "inputs": [
        {
          "internalType": "string",
          "name": "_flight",
          "type": "string"
        },
        {
          "internalType": "uint16",
          "name": "_year",
          "type": "uint16"
        },
        {
          "internalType": "uint8",
          "name": "_month",
          "type": "uint8"
        },
        {
          "internalType": "uint8",
          "name": "_day",
          "type": "uint8"
        },
        {
          "internalType": "uint8",
          "name": "_hour",
          "type": "uint8"
        },
        {
          "internalType": "uint8",
          "name": "_minute",
          "type": "uint8"
        }
      ],
      "name": "registerFlight",
      "outputs": [],
      "stateMutability": "nonpayable",
      "type": "function"
    },
    {
      "inputs": [
        {
          "internalType": "bytes32",
          "name": "_flightKey",
          "type": "bytes32"
        }
      ],
      "name": "checkFlight",
      "outputs": [
        {
          "internalType": "bool",
          "name": "",
          "type": "bool"
        }
      ],
      "stateMutability": "view",
      "type": "function",
      "constant": true
    },
    {
      "inputs": [
        {
          "internalType": "uint256",
          "name": "_flightId",
          "type": "uint256"
        }
      ],
      "name": "checkFlights",
      "outputs": [
        {
          "internalType": "bytes32",
          "name": "flightKey_",
          "type": "bytes32"
        },
        {
          "internalType": "string",
          "name": "flight_",
          "type": "string"
        },
        {
          "internalType": "bool",
          "name": "active_",
          "type": "bool"
        },
        {
          "internalType": "bool",
          "name": "isRegistered_",
          "type": "bool"
        },
        {
          "internalType": "uint8",
          "name": "status_",
          "type": "uint8"
        },
        {
          "internalType": "uint256",
          "name": "timestamp_",
          "type": "uint256"
        },
        {
          "internalType": "address",
          "name": "address_",
          "type": "address"
        }
      ],
      "stateMutability": "view",
      "type": "function",
      "constant": true
    },
    {
      "inputs": [
        {
          "internalType": "uint256",
          "name": "_flightId",
          "type": "uint256"
        }
      ],
      "name": "buy",
      "outputs": [],
      "stateMutability": "payable",
      "type": "function",
      "payable": true
    },
    {
      "inputs": [],
      "name": "checkPassengerInsurances",
      "outputs": [
        {
          "internalType": "bytes32[]",
          "name": "",
          "type": "bytes32[]"
        }
      ],
      "stateMutability": "view",
      "type": "function",
      "constant": true
    },
    {
      "inputs": [
        {
          "internalType": "uint256",
          "name": "_flightId",
          "type": "uint256"
        }
      ],
      "name": "checkInsuranceAmountPaid",
      "outputs": [
        {
          "internalType": "uint256",
          "name": "",
          "type": "uint256"
        }
      ],
      "stateMutability": "view",
      "type": "function",
      "constant": true
    },
    {
      "inputs": [
        {
          "internalType": "uint256",
          "name": "_insuranceId",
          "type": "uint256"
        }
      ],
      "name": "checkInsurances",
      "outputs": [
        {
          "internalType": "bytes32",
          "name": "insuranceKey_",
          "type": "bytes32"
        },
        {
          "internalType": "bytes32",
          "name": "flightKey_",
          "type": "bytes32"
        },
        {
          "internalType": "address",
          "name": "passengerAddress_",
          "type": "address"
        },
        {
          "internalType": "uint256",
          "name": "amountPaid_",
          "type": "uint256"
        },
        {
          "internalType": "uint256",
          "name": "amountAvailable_",
          "type": "uint256"
        },
        {
          "internalType": "bool",
          "name": "claimable_",
          "type": "bool"
        },
        {
          "internalType": "bool",
          "name": "active_",
          "type": "bool"
        }
      ],
      "stateMutability": "view",
      "type": "function",
      "constant": true
    },
    {
      "inputs": [
        {
          "internalType": "address",
          "name": "_airline",
          "type": "address"
        },
        {
          "internalType": "string",
          "name": "_flight",
          "type": "string"
        },
        {
          "internalType": "uint16",
          "name": "_year",
          "type": "uint16"
        },
        {
          "internalType": "uint8",
          "name": "_month",
          "type": "uint8"
        },
        {
          "internalType": "uint8",
          "name": "_day",
          "type": "uint8"
        },
        {
          "internalType": "uint8",
          "name": "_hour",
          "type": "uint8"
        },
        {
          "internalType": "uint8",
          "name": "_minute",
          "type": "uint8"
        }
      ],
      "name": "fetchFlightStatus",
      "outputs": [],
      "stateMutability": "nonpayable",
      "type": "function"
    },
    {
      "inputs": [
        {
          "internalType": "uint256",
          "name": "_flightId",
          "type": "uint256"
        }
      ],
      "name": "viewFlightStatus",
      "outputs": [
        {
          "internalType": "uint8",
          "name": "",
          "type": "uint8"
        }
      ],
      "stateMutability": "view",
      "type": "function",
      "constant": true
    },
    {
      "inputs": [
        {
          "internalType": "string",
          "name": "_flight",
          "type": "string"
        },
        {
          "internalType": "uint16",
          "name": "_year",
          "type": "uint16"
        },
        {
          "internalType": "uint8",
          "name": "_month",
          "type": "uint8"
        },
        {
          "internalType": "uint8",
          "name": "_day",
          "type": "uint8"
        },
        {
          "internalType": "uint8",
          "name": "_hour",
          "type": "uint8"
        },
        {
          "internalType": "uint8",
          "name": "_minute",
          "type": "uint8"
        }
      ],
      "name": "withdrawCredit",
      "outputs": [],
      "stateMutability": "nonpayable",
      "type": "function"
    },
    {
      "inputs": [],
      "name": "registerOracle",
      "outputs": [],
      "stateMutability": "payable",
      "type": "function",
      "payable": true
    },
    {
      "inputs": [],
      "name": "getMyIndexes",
      "outputs": [
        {
          "internalType": "uint8[3]",
          "name": "",
          "type": "uint8[3]"
        }
      ],
      "stateMutability": "view",
      "type": "function",
      "constant": true
    },
    {
      "inputs": [
        {
          "internalType": "uint8",
          "name": "index",
          "type": "uint8"
        },
        {
          "internalType": "address",
          "name": "airline",
          "type": "address"
        },
        {
          "internalType": "string",
          "name": "flight",
          "type": "string"
        },
        {
          "internalType": "uint256",
          "name": "timestamp",
          "type": "uint256"
        },
        {
          "internalType": "uint8",
          "name": "statusCode",
          "type": "uint8"
        }
      ],
      "name": "submitOracleResponse",
      "outputs": [],
      "stateMutability": "nonpayable",
      "type": "function"
    },
    {
      "inputs": [
        {
          "internalType": "address",
          "name": "airline",
          "type": "address"
        },
        {
          "internalType": "string",
          "name": "flight",
          "type": "string"
        },
        {
          "internalType": "uint256",
          "name": "timestamp",
          "type": "uint256"
        }
      ],
      "name": "getFlightKey",
      "outputs": [
        {
          "internalType": "bytes32",
          "name": "",
          "type": "bytes32"
        }
      ],
      "stateMutability": "pure",
      "type": "function",
      "constant": true
    }
  ],
  "bytecode": "0x608060405260016000806101000a81548160ff021916908315150217905550600067ffffffffffffffff8111156200003c576200003b620005a2565b5b6040519080825280602002602001820160405280156200006b5781602001602082028036833780820191505090505b506001908051906020019062000083929190620004f4565b50600360025560016009556000600a556000600f60006101000a81548160ff021916908360ff160217905550348015620000bc57600080fd5b506040516200678c3803806200678c8339818101604052810190620000e291906200063b565b33600860006101000a81548173ffffffffffffffffffffffffffffffffffffffff021916908373ffffffffffffffffffffffffffffffffffffffff16021790555080600760006101000a81548173ffffffffffffffffffffffffffffffffffffffff021916908373ffffffffffffffffffffffffffffffffffffffff1602179055506000600760009054906101000a900473ffffffffffffffffffffffffffffffffffffffff1673ffffffffffffffffffffffffffffffffffffffff1663b59828036040518163ffffffff1660e01b8152600401602060405180830381865afa158015620001d4573d6000803e3d6000fd5b505050506040513d601f19601f82011682018060405250810190620001fa91906200063b565b90506200020d816200022660201b60201c565b6200021e816200029860201b60201c565b5050620007ae565b62000237816200030a60201b60201c565b156200027a576040517f08c379a00000000000000000000000000000000000000000000000000000000081526004016200027190620006f4565b60405180910390fd5b620002958160036200032e60201b62002cb21790919060201c565b50565b620002a981620003e460201b60201c565b15620002ec576040517f08c379a0000000000000000000000000000000000000000000000000000000008152600401620002e3906200078c565b60405180910390fd5b620003078160046200032e60201b62002cb21790919060201c565b50565b6000620003278260036200046160201b62002d5e1790919060201c565b9050919050565b600073ffffffffffffffffffffffffffffffffffffffff168173ffffffffffffffffffffffffffffffffffffffff1614156200036957600080fd5b6200037b82826200046160201b60201c565b156200038657600080fd5b60018260000160008373ffffffffffffffffffffffffffffffffffffffff1673ffffffffffffffffffffffffffffffffffffffff16815260200190815260200160002060006101000a81548160ff0219169083151502179055505050565b6000600860009054906101000a900473ffffffffffffffffffffffffffffffffffffffff1673ffffffffffffffffffffffffffffffffffffffff168273ffffffffffffffffffffffffffffffffffffffff1614806200045a5750620004598260046200046160201b62002d5e1790919060201c565b5b9050919050565b60008073ffffffffffffffffffffffffffffffffffffffff168273ffffffffffffffffffffffffffffffffffffffff1614156200049d57600080fd5b8260000160008373ffffffffffffffffffffffffffffffffffffffff1673ffffffffffffffffffffffffffffffffffffffff16815260200190815260200160002060009054906101000a900460ff16905092915050565b82805482825590600052602060002090810192821562000570579160200282015b828111156200056f5782518260006101000a81548173ffffffffffffffffffffffffffffffffffffffff021916908373ffffffffffffffffffffffffffffffffffffffff1602179055509160200191906001019062000515565b5b5090506200057f919062000583565b5090565b5b808211156200059e57600081600090555060010162000584565b5090565b7f4e487b7100000000000000000000000000000000000000000000000000000000600052604160045260246000fd5b600080fd5b600073ffffffffffffffffffffffffffffffffffffffff82169050919050565b60006200060382620005d6565b9050919050565b6200061581620005f6565b81146200062157600080fd5b50565b60008151905062000635816200060a565b92915050565b600060208284031215620006545762000653620005d1565b5b6000620006648482850162000624565b91505092915050565b600082825260208201905092915050565b7f4552524f523a204149524c494e4520495320414c52454144592052454749535460008201527f4552454400000000000000000000000000000000000000000000000000000000602082015250565b6000620006dc6024836200066d565b9150620006e9826200067e565b604082019050919050565b600060208201905081810360008301526200070f81620006cd565b9050919050565b7f4552524f523a204149524c494e4520495320414c5245414459204120434f4e5460008201527f524f4c4c45520000000000000000000000000000000000000000000000000000602082015250565b6000620007746026836200066d565b9150620007818262000716565b604082019050919050565b60006020820190508181036000830152620007a78162000765565b9050919050565b615fce80620007be6000396000f3fe6080604052600436106101cd5760003560e01c8063a9d2f269116100f7578063d51b9e9311610095578063e188ac9811610064578063e188ac981461068f578063ec27e29f146106d2578063edeb6c3a1461070f578063f0a354f114610752576101cd565b8063d51b9e93146105d0578063d737d8141461060d578063d96a094a14610636578063dfc0dff014610652576101cd565b8063b8d4136d116100d1578063b8d4136d14610502578063c10f27001461053f578063c3c5a54714610568578063cd905dff146105a5576101cd565b8063a9d2f26914610490578063b429afeb146104bb578063b60d4288146104f8576101cd565b80635a436c061161016f5780638529b35d1161013e5780638529b35d146103bc578063929066f5146103ff578063a190c3151461043c578063a96f5bdb14610467576101cd565b80635a436c06146103005780635f1cc0e61461032957806361b029ed1461035457806364b4f75114610391576101cd565b80631bb976bd116101ab5780631bb976bd1461024d57806320c5375e14610276578063339d2590146102b95780633ccd4aae146102c3576101cd565b806303959bb7146101d25780630e2c4129146101fb578063110466ed14610224575b600080fd5b3480156101de57600080fd5b506101f960048036038101906101f491906139c0565b61078f565b005b34801561020757600080fd5b50610222600480360381019061021d9190613b33565b610863565b005b34801561023057600080fd5b5061024b60048036038101906102469190613bc7565b610a7b565b005b34801561025957600080fd5b50610274600480360381019061026f9190613cc7565b610d4a565b005b34801561028257600080fd5b5061029d60048036038101906102989190613dbf565b610e6b565b6040516102b09796959493929190613eba565b60405180910390f35b6102c1610f7c565b005b3480156102cf57600080fd5b506102ea60048036038101906102e59190613f5c565b611069565b6040516102f79190613f98565b60405180910390f35b34801561030c57600080fd5b5061032760048036038101906103229190613b33565b611081565b005b34801561033557600080fd5b5061033e6115c6565b60405161034b919061405e565b60405180910390f35b34801561036057600080fd5b5061037b60048036038101906103769190613dbf565b611706565b6040516103889190614079565b60405180910390f35b34801561039d57600080fd5b506103a661177a565b6040516103b39190614094565b60405180910390f35b3480156103c857600080fd5b506103e360048036038101906103de9190613f5c565b611786565b6040516103f697969594939291906140af565b60405180910390f35b34801561040b57600080fd5b50610426600480360381019061042191906139c0565b6119b0565b6040516104339190614079565b60405180910390f35b34801561044857600080fd5b506104516119cd565b60405161045e91906142c1565b60405180910390f35b34801561047357600080fd5b5061048e600480360381019061048991906142e3565b611b39565b005b34801561049c57600080fd5b506104a5611bf2565b6040516104b2919061444a565b60405180910390f35b3480156104c757600080fd5b506104e260048036038101906104dd91906139c0565b611ce1565b6040516104ef9190614079565b60405180910390f35b610500611d56565b005b34801561050e57600080fd5b5061052960048036038101906105249190613f5c565b611ec7565b6040516105369190614094565b60405180910390f35b34801561054b57600080fd5b506105666004803603810190610561919061446c565b612016565b005b34801561057457600080fd5b5061058f600480360381019061058a91906139c0565b6123f0565b60405161059c9190614079565b60405180910390f35b3480156105b157600080fd5b506105ba61240d565b6040516105c79190614079565b60405180910390f35b3480156105dc57600080fd5b506105f760048036038101906105f291906139c0565b6124a5565b6040516106049190614079565b60405180910390f35b34801561061957600080fd5b50610634600480360381019061062f91906142e3565b6124c2565b005b610650600480360381019061064b9190613f5c565b612743565b005b34801561065e57600080fd5b5061067960048036038101906106749190614506565b61295f565b6040516106869190613f98565b60405180910390f35b34801561069b57600080fd5b506106b660048036038101906106b191906139c0565b612995565b6040516106c99796959493929190614575565b60405180910390f35b3480156106de57600080fd5b506106f960048036038101906106f49190613f5c565b612a5a565b60405161070691906145eb565b60405180910390f35b34801561071b57600080fd5b5061073660048036038101906107319190613f5c565b612acc565b6040516107499796959493929190614606565b60405180910390f35b34801561075e57600080fd5b5061077960048036038101906107749190614675565b612bd3565b6040516107869190614094565b60405180910390f35b600860009054906101000a900473ffffffffffffffffffffffffffffffffffffffff1673ffffffffffffffffffffffffffffffffffffffff163373ffffffffffffffffffffffffffffffffffffffff161461081f576040517f08c379a00000000000000000000000000000000000000000000000000000000081526004016108169061473c565b60405180910390fd5b80600760006101000a81548173ffffffffffffffffffffffffffffffffffffffff021916908373ffffffffffffffffffffffffffffffffffffffff16021790555050565b61086b61240d565b6108aa576040517f08c379a00000000000000000000000000000000000000000000000000000000081526004016108a1906147ce565b60405180910390fd5b6108b3816123f0565b156108f3576040517f08c379a00000000000000000000000000000000000000000000000000000000081526004016108ea90614860565b60405180910390fd5b60046009541015610a6357600860009054906101000a900473ffffffffffffffffffffffffffffffffffffffff1673ffffffffffffffffffffffffffffffffffffffff163373ffffffffffffffffffffffffffffffffffffffff16148061095f575061095e33611ce1565b5b61099e576040517f08c379a0000000000000000000000000000000000000000000000000000000008152600401610995906148cc565b60405180910390fd5b600960008154809291906109b19061491b565b9190505550600760009054906101000a900473ffffffffffffffffffffffffffffffffffffffff1673ffffffffffffffffffffffffffffffffffffffff1663b85a9e61838360095460016040518563ffffffff1660e01b8152600401610a1a9493929190614964565b600060405180830381600087803b158015610a3457600080fd5b505af1158015610a48573d6000803e3d6000fd5b50505050610a5581612df0565b610a5e81612e50565b610a77565b610a6d8282612eb0565b610a7681613083565b5b5050565b600860009054906101000a900473ffffffffffffffffffffffffffffffffffffffff1673ffffffffffffffffffffffffffffffffffffffff163373ffffffffffffffffffffffffffffffffffffffff161480610ae75750610ae6336004612d5e90919063ffffffff16565b5b610b26576040517f08c379a0000000000000000000000000000000000000000000000000000000008152600401610b1d906149fc565b60405180910390fd5b60008054906101000a900460ff1615158115151415610b7a576040517f08c379a0000000000000000000000000000000000000000000000000000000008152600401610b7190614a8e565b60405180910390fd5b6000805b600180549050811015610c19573373ffffffffffffffffffffffffffffffffffffffff1660018281548110610bb657610bb5614aae565b5b9060005260206000200160009054906101000a900473ffffffffffffffffffffffffffffffffffffffff1673ffffffffffffffffffffffffffffffffffffffff161415610c065760019150610c19565b8080610c119061491b565b915050610b7e565b508015610c5b576040517f08c379a0000000000000000000000000000000000000000000000000000000008152600401610c5290614b4f565b60405180910390fd5b6001339080600181540180825580915050600190039060005260206000200160009091909190916101000a81548173ffffffffffffffffffffffffffffffffffffffff021916908373ffffffffffffffffffffffffffffffffffffffff16021790555060025460018054905010610d4657816000806101000a81548160ff021916908315150217905550600067ffffffffffffffff811115610d0057610cff613a08565b5b604051908082528060200260200182016040528015610d2e5781602001602082028036833780820191505090505b5060019080519060200190610d44929190613765565b505b5050565b6000610d55336130e3565b90506000610d668787878787612bd3565b90506000828b8b8b85604051602001610d83959493929190614c3e565b604051602081830303815290604052805190602001209050336011600083815260200190815260200160002060000160006101000a81548173ffffffffffffffffffffffffffffffffffffffff021916908373ffffffffffffffffffffffffffffffffffffffff16021790555060016011600083815260200190815260200160002060000160146101000a81548160ff0219169083151502179055507f3ed01f2c3fc24c6b329d931e35b03e390d23497d22b3f90e15b600343e93df11838c8c8c86604051610e56959493929190614cb7565b60405180910390a15050505050505050505050565b600b602052806000526040600020600091509050806000018054610e8e90614d34565b80601f0160208091040260200160405190810160405280929190818152602001828054610eba90614d34565b8015610f075780601f10610edc57610100808354040283529160200191610f07565b820191906000526020600020905b815481529060010190602001808311610eea57829003601f168201915b5050505050908060010154908060020160009054906101000a900460ff16908060020160019054906101000a900460ff16908060020160029054906101000a900460ff16908060030154908060040160009054906101000a900473ffffffffffffffffffffffffffffffffffffffff16905087565b670de0b6b3a7640000341015610fc7576040517f08c379a0000000000000000000000000000000000000000000000000000000008152600401610fbe90614dd8565b60405180910390fd5b6000610fd2336131af565b9050604051806040016040528060011515815260200182815250601060003373ffffffffffffffffffffffffffffffffffffffff1673ffffffffffffffffffffffffffffffffffffffff16815260200190815260200160002060008201518160000160006101000a81548160ff0219169083151502179055506020820151816001019060036110629291906137ef565b5090505050565b600c6020528060005260406000206000915090505481565b61108961240d565b6110c8576040517f08c379a00000000000000000000000000000000000000000000000000000000081526004016110bf906147ce565b60405180910390fd5b6110d1336123f0565b611110576040517f08c379a000000000000000000000000000000000000000000000000000000000815260040161110790614e44565b60405180910390fd5b611119816123f0565b15611159576040517f08c379a000000000000000000000000000000000000000000000000000000000815260040161115090614ed6565b60405180910390fd5b611162816124a5565b6111a1576040517f08c379a000000000000000000000000000000000000000000000000000000000815260040161119890614f68565b60405180910390fd5b60008060005b600e60003373ffffffffffffffffffffffffffffffffffffffff1673ffffffffffffffffffffffffffffffffffffffff168152602001908152602001600020805490508110156112f2578373ffffffffffffffffffffffffffffffffffffffff16600e60003373ffffffffffffffffffffffffffffffffffffffff1673ffffffffffffffffffffffffffffffffffffffff168152602001908152602001600020828154811061125957611258614aae565b5b9060005260206000200160009054906101000a900473ffffffffffffffffffffffffffffffffffffffff1673ffffffffffffffffffffffffffffffffffffffff1614156112df57600192506040517f08c379a00000000000000000000000000000000000000000000000000000000081526004016112d690614ffa565b60405180910390fd5b80806112ea9061491b565b9150506111a7565b508161139957600e60003373ffffffffffffffffffffffffffffffffffffffff1673ffffffffffffffffffffffffffffffffffffffff168152602001908152602001600020839080600181540180825580915050600190039060005260206000200160009091909190916101000a81548173ffffffffffffffffffffffffffffffffffffffff021916908373ffffffffffffffffffffffffffffffffffffffff1602179055505b60005b600d805490508110156115bf578373ffffffffffffffffffffffffffffffffffffffff16600d82815481106113d4576113d3614aae565b5b906000526020600020906004020160000160009054906101000a900473ffffffffffffffffffffffffffffffffffffffff1673ffffffffffffffffffffffffffffffffffffffff1614156115ac576001600d828154811061143857611437614aae565b5b90600052602060002090600402016002016000828254611458919061501a565b925050819055506009546064600d838154811061147857611477614aae565b5b9060005260206000209060040201600201546114949190615070565b61149e91906150f9565b9150603282106115a757600960008154809291906114bb9061491b565b9190505550600760009054906101000a900473ffffffffffffffffffffffffffffffffffffffff1673ffffffffffffffffffffffffffffffffffffffff1663b85a9e61868660095460006040518563ffffffff1660e01b81526004016115249493929190614964565b600060405180830381600087803b15801561153e57600080fd5b505af1158015611552573d6000803e3d6000fd5b5050505061155f84612df0565b61156884613396565b6000600d828154811061157e5761157d614aae565b5b906000526020600020906004020160030160006101000a81548160ff0219169083151502179055505b6115bf565b80806115b79061491b565b91505061139c565b5050505050565b6115ce613889565b601060003373ffffffffffffffffffffffffffffffffffffffff1673ffffffffffffffffffffffffffffffffffffffff16815260200190815260200160002060000160009054906101000a900460ff1661165d576040517f08c379a000000000000000000000000000000000000000000000000000000000815260040161165490615176565b60405180910390fd5b601060003373ffffffffffffffffffffffffffffffffffffffff1673ffffffffffffffffffffffffffffffffffffffff1681526020019081526020016000206001016003806020026040519081016040528092919082600380156116fc576020028201916000905b82829054906101000a900460ff1660ff16815260200190600101906020826000010492830192600103820291508084116116c55790505b5050505050905090565b600061171061240d565b61174f576040517f08c379a0000000000000000000000000000000000000000000000000000000008152600401611746906147ce565b60405180910390fd5b600b600083815260200190815260200160002060020160019054906101000a900460ff169050919050565b670de0b6b3a764000081565b60006060600080600080600061179a61240d565b6117d9576040517f08c379a00000000000000000000000000000000000000000000000000000000081526004016117d0906147ce565b60405180910390fd5b6000600c60008a81526020019081526020016000205490506117fa81611706565b611839576040517f08c379a0000000000000000000000000000000000000000000000000000000008152600401611830906151e2565b60405180910390fd5b80600b6000838152602001908152602001600020600001600b600084815260200190815260200160002060020160009054906101000a900460ff16600b600085815260200190815260200160002060020160019054906101000a900460ff16600b600086815260200190815260200160002060020160029054906101000a900460ff16600b600087815260200190815260200160002060030154600b600088815260200190815260200160002060040160009054906101000a900473ffffffffffffffffffffffffffffffffffffffff1685805461191690614d34565b80601f016020809104026020016040519081016040528092919081815260200182805461194290614d34565b801561198f5780601f106119645761010080835404028352916020019161198f565b820191906000526020600020905b81548152906001019060200180831161197257829003601f168201915b50505050509550975097509750975097509750975050919395979092949650565b60006119c6826005612d5e90919063ffffffff16565b9050919050565b6060600d805480602002602001604051908101604052809291908181526020016000905b82821015611b3057838290600052602060002090600402016040518060800160405290816000820160009054906101000a900473ffffffffffffffffffffffffffffffffffffffff1673ffffffffffffffffffffffffffffffffffffffff1673ffffffffffffffffffffffffffffffffffffffff168152602001600182018054611a7a90614d34565b80601f0160208091040260200160405190810160405280929190818152602001828054611aa690614d34565b8015611af35780601f10611ac857610100808354040283529160200191611af3565b820191906000526020600020905b815481529060010190602001808311611ad657829003601f168201915b50505050508152602001600282015481526020016003820160009054906101000a900460ff161515151581525050815260200190600101906119f1565b50505050905090565b6000611b488686868686612bd3565b90506000611b5733898461295f565b9050600760009054906101000a900473ffffffffffffffffffffffffffffffffffffffff1673ffffffffffffffffffffffffffffffffffffffff166346f8f30433836040518363ffffffff1660e01b8152600401611bb6929190615202565b600060405180830381600087803b158015611bd057600080fd5b505af1158015611be4573d6000803e3d6000fd5b505050505050505050505050565b6060611bfc61240d565b611c3b576040517f08c379a0000000000000000000000000000000000000000000000000000000008152600401611c32906147ce565b60405180910390fd5b600760009054906101000a900473ffffffffffffffffffffffffffffffffffffffff1673ffffffffffffffffffffffffffffffffffffffff1663ff129763336040518263ffffffff1660e01b8152600401611c96919061522b565b600060405180830381865afa158015611cb3573d6000803e3d6000fd5b505050506040513d6000823e3d601f19601f82011682018060405250810190611cdc919061531e565b905090565b6000600860009054906101000a900473ffffffffffffffffffffffffffffffffffffffff1673ffffffffffffffffffffffffffffffffffffffff168273ffffffffffffffffffffffffffffffffffffffff161480611d4f5750611d4e826004612d5e90919063ffffffff16565b5b9050919050565b611d5e61240d565b611d9d576040517f08c379a0000000000000000000000000000000000000000000000000000000008152600401611d94906147ce565b60405180910390fd5b611da6336123f0565b611de5576040517f08c379a0000000000000000000000000000000000000000000000000000000008152600401611ddc906153b3565b60405180910390fd5b611dee336119b0565b15611e2e576040517f08c379a0000000000000000000000000000000000000000000000000000000008152600401611e2590615445565b60405180910390fd5b600760009054906101000a900473ffffffffffffffffffffffffffffffffffffffff1673ffffffffffffffffffffffffffffffffffffffff16632302440834336040518363ffffffff1660e01b8152600401611e8a919061522b565b6000604051808303818588803b158015611ea357600080fd5b505af1158015611eb7573d6000803e3d6000fd5b5050505050611ec5336133f5565b565b6000611ed161240d565b611f10576040517f08c379a0000000000000000000000000000000000000000000000000000000008152600401611f07906147ce565b60405180910390fd5b6000600c6000848152602001908152602001600020549050611f3181611706565b611f70576040517f08c379a0000000000000000000000000000000000000000000000000000000008152600401611f67906151e2565b60405180910390fd5b600760009054906101000a900473ffffffffffffffffffffffffffffffffffffffff1673ffffffffffffffffffffffffffffffffffffffff166348c1747833836040518363ffffffff1660e01b8152600401611fcd929190615202565b602060405180830381865afa158015611fea573d6000803e3d6000fd5b505050506040513d601f19601f8201168201806040525081019061200e919061547a565b915050919050565b8560ff16601060003373ffffffffffffffffffffffffffffffffffffffff1673ffffffffffffffffffffffffffffffffffffffff16815260200190815260200160002060010160006003811061206f5761206e614aae565b5b602091828204019190069054906101000a900460ff1660ff16148061210357508560ff16601060003373ffffffffffffffffffffffffffffffffffffffff1673ffffffffffffffffffffffffffffffffffffffff1681526020019081526020016000206001016001600381106120e8576120e7614aae565b5b602091828204019190069054906101000a900460ff1660ff16145b8061217d57508560ff16601060003373ffffffffffffffffffffffffffffffffffffffff1673ffffffffffffffffffffffffffffffffffffffff16815260200190815260200160002060010160026003811061216257612161614aae565b5b602091828204019190069054906101000a900460ff1660ff16145b6121bc576040517f08c379a00000000000000000000000000000000000000000000000000000000081526004016121b390615519565b60405180910390fd5b600086868686866040516020016121d7959493929190614c3e565b6040516020818303038152906040528051906020012090506011600082815260200190815260200160002060000160149054906101000a900460ff16612252576040517f08c379a0000000000000000000000000000000000000000000000000000000008152600401612249906155ab565b60405180910390fd5b6011600082815260200190815260200160002060010160008360ff1660ff168152602001908152602001600020339080600181540180825580915050600190039060005260206000200160009091909190916101000a81548173ffffffffffffffffffffffffffffffffffffffff021916908373ffffffffffffffffffffffffffffffffffffffff1602179055507f43c853095c2752648493c88b4baac4d580d2594ffb00c6f1d4242d844514f78386868686866040516123179594939291906155cb565b60405180910390a160036011600083815260200190815260200160002060010160008460ff1660ff16815260200190815260200160002080549050106123e7577fe23f5229de535c091e3b7bec2665f5d698192d3b31393066e8987b7a05076b6c868686868660405161238e9594939291906155cb565b60405180910390a16123e68686868080601f016020809104026020016040519081016040528093929190818152602001838380828437600081840152601f19601f820116905080830192505050505050508585613455565b5b50505050505050565b6000612406826003612d5e90919063ffffffff16565b9050919050565b6000600760009054906101000a900473ffffffffffffffffffffffffffffffffffffffff1673ffffffffffffffffffffffffffffffffffffffff1663cd905dff6040518163ffffffff1660e01b8152600401602060405180830381865afa15801561247c573d6000803e3d6000fd5b505050506040513d601f19601f820116820180604052508101906124a0919061562e565b905090565b60006124bb826006612d5e90919063ffffffff16565b9050919050565b6124cb336119b0565b61250a576040517f08c379a0000000000000000000000000000000000000000000000000000000008152600401612501906156cd565b60405180910390fd5b60006125198686868686612bd3565b90506202a3004261252a919061501a565b811161256b576040517f08c379a00000000000000000000000000000000000000000000000000000000081526004016125629061575f565b60405180910390fd5b600061257833898461295f565b905061258381611706565b156125c3576040517f08c379a00000000000000000000000000000000000000000000000000000000081526004016125ba906157cb565b60405180910390fd5b600a60008154809291906125d69061491b565b91905055506040518060e00160405280898152602001600a548152602001600115158152602001600115158152602001600060ff1681526020018381526020013373ffffffffffffffffffffffffffffffffffffffff16815250600b6000838152602001908152602001600020600082015181600001908051906020019061265f9291906138ab565b506020820151816001015560408201518160020160006101000a81548160ff02191690831515021790555060608201518160020160016101000a81548160ff02191690831515021790555060808201518160020160026101000a81548160ff021916908360ff16021790555060a0820151816003015560c08201518160040160006101000a81548173ffffffffffffffffffffffffffffffffffffffff021916908373ffffffffffffffffffffffffffffffffffffffff16021790555090505080600c6000600a548152602001908152602001600020819055505050505050505050565b61274b61240d565b61278a576040517f08c379a0000000000000000000000000000000000000000000000000000000008152600401612781906147ce565b60405180910390fd5b612793336123f0565b1580156127ee5750600860009054906101000a900473ffffffffffffffffffffffffffffffffffffffff1673ffffffffffffffffffffffffffffffffffffffff163373ffffffffffffffffffffffffffffffffffffffff1614155b61282d576040517f08c379a00000000000000000000000000000000000000000000000000000000081526004016128249061585d565b60405180910390fd5b6000600c600083815260200190815260200160002054905061284e81611706565b61288d576040517f08c379a0000000000000000000000000000000000000000000000000000000008152600401612884906158c9565b60405180910390fd5b6000600b600083815260200190815260200160002060040160009054906101000a900473ffffffffffffffffffffffffffffffffffffffff169050600760009054906101000a900473ffffffffffffffffffffffffffffffffffffffff1673ffffffffffffffffffffffffffffffffffffffff1663b33d7ba5343385856040518563ffffffff1660e01b8152600401612928939291906158e9565b6000604051808303818588803b15801561294157600080fd5b505af1158015612955573d6000803e3d6000fd5b5050505050505050565b600083838360405160200161297693929190615951565b6040516020818303038152906040528051906020012090509392505050565b6060600080600080600080600760009054906101000a900473ffffffffffffffffffffffffffffffffffffffff1673ffffffffffffffffffffffffffffffffffffffff1663e188ac98896040518263ffffffff1660e01b81526004016129fb919061522b565b600060405180830381865afa158015612a18573d6000803e3d6000fd5b505050506040513d6000823e3d601f19601f82011682018060405250810190612a419190615a0f565b9650965096509650965096509650919395979092949650565b600080600c6000848152602001908152602001600020549050612a7c81611706565b612abb576040517f08c379a0000000000000000000000000000000000000000000000000000000008152600401612ab2906151e2565b60405180910390fd5b612ac481613566565b915050919050565b6000806000806000806000612adf61240d565b612b1e576040517f08c379a0000000000000000000000000000000000000000000000000000000008152600401612b15906147ce565b60405180910390fd5b600760009054906101000a900473ffffffffffffffffffffffffffffffffffffffff1673ffffffffffffffffffffffffffffffffffffffff1663edeb6c3a896040518263ffffffff1660e01b8152600401612b799190614094565b60e060405180830381865afa158015612b96573d6000803e3d6000fd5b505050506040513d601f19601f82011682018060405250810190612bba9190615acd565b9650965096509650965096509650919395979092949650565b60008073__DateLib_______________________________635ececa4f6040518061010001604052808a61ffff1681526020018960ff1681526020018860ff1681526020018760ff1681526020018660ff168152602001600060ff168152602001600060ff168152602001600060ff168152506040518263ffffffff1660e01b8152600401612c629190615c2f565b602060405180830381865af4158015612c7f573d6000803e3d6000fd5b505050506040513d601f19601f82011682018060405250810190612ca3919061547a565b90508091505095945050505050565b600073ffffffffffffffffffffffffffffffffffffffff168173ffffffffffffffffffffffffffffffffffffffff161415612cec57600080fd5b612cf68282612d5e565b15612d0057600080fd5b60018260000160008373ffffffffffffffffffffffffffffffffffffffff1673ffffffffffffffffffffffffffffffffffffffff16815260200190815260200160002060006101000a81548160ff0219169083151502179055505050565b60008073ffffffffffffffffffffffffffffffffffffffff168273ffffffffffffffffffffffffffffffffffffffff161415612d9957600080fd5b8260000160008373ffffffffffffffffffffffffffffffffffffffff1673ffffffffffffffffffffffffffffffffffffffff16815260200190815260200160002060009054906101000a900460ff16905092915050565b612df9816123f0565b15612e39576040517f08c379a0000000000000000000000000000000000000000000000000000000008152600401612e3090614860565b60405180910390fd5b612e4d816003612cb290919063ffffffff16565b50565b612e5981611ce1565b15612e99576040517f08c379a0000000000000000000000000000000000000000000000000000000008152600401612e9090615cbd565b60405180910390fd5b612ead816004612cb290919063ffffffff16565b50565b612eb861240d565b612ef7576040517f08c379a0000000000000000000000000000000000000000000000000000000008152600401612eee906147ce565b60405180910390fd5b612f00816123f0565b15612f40576040517f08c379a0000000000000000000000000000000000000000000000000000000008152600401612f3790614860565b60405180910390fd5b612f49816124a5565b15612f89576040517f08c379a0000000000000000000000000000000000000000000000000000000008152600401612f8090615d4f565b60405180910390fd5b600d60405180608001604052808373ffffffffffffffffffffffffffffffffffffffff1681526020018481526020016000815260200160011515815250908060018154018082558091505060019003906000526020600020906004020160009091909190915060008201518160000160006101000a81548173ffffffffffffffffffffffffffffffffffffffff021916908373ffffffffffffffffffffffffffffffffffffffff16021790555060208201518160010190805190602001906130529291906138ab565b506040820151816002015560608201518160030160006101000a81548160ff02191690831515021790555050505050565b61308c816124a5565b156130cc576040517f08c379a00000000000000000000000000000000000000000000000000000000081526004016130c390615d4f565b60405180910390fd5b6130e0816006612cb290919063ffffffff16565b50565b600080600a905060008160ff16600f600081819054906101000a900460ff168092919061310f90615d6f565b91906101000a81548160ff021916908360ff16021790555060ff16436131359190615d99565b4085604051602001613148929190615dee565b6040516020818303038152906040528051906020012060001c61316b9190615e1a565b905060fa600f60009054906101000a900460ff1660ff1611156131a5576000600f60006101000a81548160ff021916908360ff1602179055505b8092505050919050565b6131b7613889565b6131bf613889565b6131c8836130e3565b816000600381106131dc576131db614aae565b5b602002019060ff16908160ff16815250508060006003811061320157613200614aae565b5b60200201518160016003811061321a57613219614aae565b5b602002019060ff16908160ff16815250505b806000600381106132405761323f614aae565b5b602002015160ff168160016003811061325c5761325b614aae565b5b602002015160ff16141561329d57613273836130e3565b8160016003811061328757613286614aae565b5b602002019060ff16908160ff168152505061322c565b806001600381106132b1576132b0614aae565b5b6020020151816002600381106132ca576132c9614aae565b5b602002019060ff16908160ff16815250505b806000600381106132f0576132ef614aae565b5b602002015160ff168160026003811061330c5761330b614aae565b5b602002015160ff16148061335557508060016003811061332f5761332e614aae565b5b602002015160ff168160026003811061334b5761334a614aae565b5b602002015160ff16145b1561338d57613363836130e3565b8160026003811061337757613376614aae565b5b602002019060ff16908160ff16815250506132dc565b80915050919050565b61339f816124a5565b6133de576040517f08c379a00000000000000000000000000000000000000000000000000000000081526004016133d590615ebd565b60405180910390fd5b6133f28160066135da90919063ffffffff16565b50565b6133fe816119b0565b1561343e576040517f08c379a000000000000000000000000000000000000000000000000000000000815260040161343590615f4f565b60405180910390fd5b613452816005612cb290919063ffffffff16565b50565b600061346285858561295f565b905061346d81611706565b6134ac576040517f08c379a00000000000000000000000000000000000000000000000000000000081526004016134a3906151e2565b60405180910390fd5b6134b68184613685565b6134c081836136eb565b601460ff168260ff16141561355f57600760009054906101000a900473ffffffffffffffffffffffffffffffffffffffff1673ffffffffffffffffffffffffffffffffffffffff1663ffc758e182876040518363ffffffff1660e01b815260040161352c929190615f6f565b600060405180830381600087803b15801561354657600080fd5b505af115801561355a573d6000803e3d6000fd5b505050505b5050505050565b600061357061240d565b6135af576040517f08c379a00000000000000000000000000000000000000000000000000000000081526004016135a6906147ce565b60405180910390fd5b600b600083815260200190815260200160002060020160029054906101000a900460ff169050919050565b600073ffffffffffffffffffffffffffffffffffffffff168173ffffffffffffffffffffffffffffffffffffffff16141561361457600080fd5b61361e8282612d5e565b61362757600080fd5b60008260000160008373ffffffffffffffffffffffffffffffffffffffff1673ffffffffffffffffffffffffffffffffffffffff16815260200190815260200160002060006101000a81548160ff0219169083151502179055505050565b61368d61240d565b6136cc576040517f08c379a00000000000000000000000000000000000000000000000000000000081526004016136c3906147ce565b60405180910390fd5b80600b6000848152602001908152602001600020600301819055505050565b6136f361240d565b613732576040517f08c379a0000000000000000000000000000000000000000000000000000000008152600401613729906147ce565b60405180910390fd5b80600b600084815260200190815260200160002060020160026101000a81548160ff021916908360ff1602179055505050565b8280548282559060005260206000209081019282156137de579160200282015b828111156137dd5782518260006101000a81548173ffffffffffffffffffffffffffffffffffffffff021916908373ffffffffffffffffffffffffffffffffffffffff16021790555091602001919060010190613785565b5b5090506137eb9190613931565b5090565b826003601f016020900481019282156138785791602002820160005b8382111561384957835183826101000a81548160ff021916908360ff160217905550926020019260010160208160000104928301926001030261380b565b80156138765782816101000a81549060ff0219169055600101602081600001049283019260010302613849565b505b5090506138859190613931565b5090565b6040518060600160405280600390602082028036833780820191505090505090565b8280546138b790614d34565b90600052602060002090601f0160209004810192826138d95760008555613920565b82601f106138f257805160ff1916838001178555613920565b82800160010185558215613920579182015b8281111561391f578251825591602001919060010190613904565b5b50905061392d9190613931565b5090565b5b8082111561394a576000816000905550600101613932565b5090565b6000604051905090565b600080fd5b600080fd5b600073ffffffffffffffffffffffffffffffffffffffff82169050919050565b600061398d82613962565b9050919050565b61399d81613982565b81146139a857600080fd5b50565b6000813590506139ba81613994565b92915050565b6000602082840312156139d6576139d5613958565b5b60006139e4848285016139ab565b91505092915050565b600080fd5b600080fd5b6000601f19601f8301169050919050565b7f4e487b7100000000000000000000000000000000000000000000000000000000600052604160045260246000fd5b613a40826139f7565b810181811067ffffffffffffffff82111715613a5f57613a5e613a08565b5b80604052505050565b6000613a7261394e565b9050613a7e8282613a37565b919050565b600067ffffffffffffffff821115613a9e57613a9d613a08565b5b613aa7826139f7565b9050602081019050919050565b82818337600083830152505050565b6000613ad6613ad184613a83565b613a68565b905082815260208101848484011115613af257613af16139f2565b5b613afd848285613ab4565b509392505050565b600082601f830112613b1a57613b196139ed565b5b8135613b2a848260208601613ac3565b91505092915050565b60008060408385031215613b4a57613b49613958565b5b600083013567ffffffffffffffff811115613b6857613b6761395d565b5b613b7485828601613b05565b9250506020613b85858286016139ab565b9150509250929050565b60008115159050919050565b613ba481613b8f565b8114613baf57600080fd5b50565b600081359050613bc181613b9b565b92915050565b600060208284031215613bdd57613bdc613958565b5b6000613beb84828501613bb2565b91505092915050565b600080fd5b600080fd5b60008083601f840112613c1457613c136139ed565b5b8235905067ffffffffffffffff811115613c3157613c30613bf4565b5b602083019150836001820283011115613c4d57613c4c613bf9565b5b9250929050565b600061ffff82169050919050565b613c6b81613c54565b8114613c7657600080fd5b50565b600081359050613c8881613c62565b92915050565b600060ff82169050919050565b613ca481613c8e565b8114613caf57600080fd5b50565b600081359050613cc181613c9b565b92915050565b60008060008060008060008060e0898b031215613ce757613ce6613958565b5b6000613cf58b828c016139ab565b985050602089013567ffffffffffffffff811115613d1657613d1561395d565b5b613d228b828c01613bfe565b97509750506040613d358b828c01613c79565b9550506060613d468b828c01613cb2565b9450506080613d578b828c01613cb2565b93505060a0613d688b828c01613cb2565b92505060c0613d798b828c01613cb2565b9150509295985092959890939650565b6000819050919050565b613d9c81613d89565b8114613da757600080fd5b50565b600081359050613db981613d93565b92915050565b600060208284031215613dd557613dd4613958565b5b6000613de384828501613daa565b91505092915050565b600081519050919050565b600082825260208201905092915050565b60005b83811015613e26578082015181840152602081019050613e0b565b83811115613e35576000848401525b50505050565b6000613e4682613dec565b613e508185613df7565b9350613e60818560208601613e08565b613e69816139f7565b840191505092915050565b6000819050919050565b613e8781613e74565b82525050565b613e9681613b8f565b82525050565b613ea581613c8e565b82525050565b613eb481613982565b82525050565b600060e0820190508181036000830152613ed4818a613e3b565b9050613ee36020830189613e7e565b613ef06040830188613e8d565b613efd6060830187613e8d565b613f0a6080830186613e9c565b613f1760a0830185613e7e565b613f2460c0830184613eab565b98975050505050505050565b613f3981613e74565b8114613f4457600080fd5b50565b600081359050613f5681613f30565b92915050565b600060208284031215613f7257613f71613958565b5b6000613f8084828501613f47565b91505092915050565b613f9281613d89565b82525050565b6000602082019050613fad6000830184613f89565b92915050565b600060039050919050565b600081905092915050565b6000819050919050565b613fdc81613c8e565b82525050565b6000613fee8383613fd3565b60208301905092915050565b6000602082019050919050565b61401081613fb3565b61401a8184613fbe565b925061402582613fc9565b8060005b8381101561405657815161403d8782613fe2565b965061404883613ffa565b925050600181019050614029565b505050505050565b60006060820190506140736000830184614007565b92915050565b600060208201905061408e6000830184613e8d565b92915050565b60006020820190506140a96000830184613e7e565b92915050565b600060e0820190506140c4600083018a613f89565b81810360208301526140d68189613e3b565b90506140e56040830188613e8d565b6140f26060830187613e8d565b6140ff6080830186613e9c565b61410c60a0830185613e7e565b61411960c0830184613eab565b98975050505050505050565b600081519050919050565b600082825260208201905092915050565b6000819050602082019050919050565b61415a81613982565b82525050565b600082825260208201905092915050565b600061417c82613dec565b6141868185614160565b9350614196818560208601613e08565b61419f816139f7565b840191505092915050565b6141b381613e74565b82525050565b6141c281613b8f565b82525050565b60006080830160008301516141e06000860182614151565b50602083015184820360208601526141f88282614171565b915050604083015161420d60408601826141aa565b50606083015161422060608601826141b9565b508091505092915050565b600061423783836141c8565b905092915050565b6000602082019050919050565b600061425782614125565b6142618185614130565b93508360208202850161427385614141565b8060005b858110156142af5784840389528151614290858261422b565b945061429b8361423f565b925060208a01995050600181019050614277565b50829750879550505050505092915050565b600060208201905081810360008301526142db818461424c565b905092915050565b60008060008060008060c08789031215614300576142ff613958565b5b600087013567ffffffffffffffff81111561431e5761431d61395d565b5b61432a89828a01613b05565b965050602061433b89828a01613c79565b955050604061434c89828a01613cb2565b945050606061435d89828a01613cb2565b935050608061436e89828a01613cb2565b92505060a061437f89828a01613cb2565b9150509295509295509295565b600081519050919050565b600082825260208201905092915050565b6000819050602082019050919050565b6143c181613d89565b82525050565b60006143d383836143b8565b60208301905092915050565b6000602082019050919050565b60006143f78261438c565b6144018185614397565b935061440c836143a8565b8060005b8381101561443d57815161442488826143c7565b975061442f836143df565b925050600181019050614410565b5085935050505092915050565b6000602082019050818103600083015261446481846143ec565b905092915050565b60008060008060008060a0878903121561448957614488613958565b5b600061449789828a01613cb2565b96505060206144a889828a016139ab565b955050604087013567ffffffffffffffff8111156144c9576144c861395d565b5b6144d589828a01613bfe565b945094505060606144e889828a01613f47565b92505060806144f989828a01613cb2565b9150509295509295509295565b60008060006060848603121561451f5761451e613958565b5b600061452d868287016139ab565b935050602084013567ffffffffffffffff81111561454e5761454d61395d565b5b61455a86828701613b05565b925050604061456b86828701613f47565b9150509250925092565b600060e082019050818103600083015261458f818a613e3b565b905061459e6020830189613eab565b6145ab6040830188613e8d565b6145b86060830187613e8d565b6145c56080830186613e8d565b6145d260a0830185613e7e565b6145df60c0830184613e7e565b98975050505050505050565b60006020820190506146006000830184613e9c565b92915050565b600060e08201905061461b600083018a613f89565b6146286020830189613f89565b6146356040830188613eab565b6146426060830187613e7e565b61464f6080830186613e7e565b61465c60a0830185613e8d565b61466960c0830184613e8d565b98975050505050505050565b600080600080600060a0868803121561469157614690613958565b5b600061469f88828901613c79565b95505060206146b088828901613cb2565b94505060406146c188828901613cb2565b93505060606146d288828901613cb2565b92505060806146e388828901613cb2565b9150509295509295909350565b7f43414c4c4552204953204e4f5420434f4e5452414354204f574e455200000000600082015250565b6000614726601c83613df7565b9150614731826146f0565b602082019050919050565b6000602082019050818103600083015261475581614719565b9050919050565b7f434f4e54524143542049532043555252454e544c59204e4f54204f504552415460008201527f494f4e414c000000000000000000000000000000000000000000000000000000602082015250565b60006147b8602583613df7565b91506147c38261475c565b604082019050919050565b600060208201905081810360008301526147e7816147ab565b9050919050565b7f4552524f523a204149524c494e4520495320414c52454144592052454749535460008201527f4552454400000000000000000000000000000000000000000000000000000000602082015250565b600061484a602483613df7565b9150614855826147ee565b604082019050919050565b600060208201905081810360008301526148798161483d565b9050919050565b7f4552524f523a2043414c4c4552204953204e4f5420434f4e54524f4c4c455200600082015250565b60006148b6601f83613df7565b91506148c182614880565b602082019050919050565b600060208201905081810360008301526148e5816148a9565b9050919050565b7f4e487b7100000000000000000000000000000000000000000000000000000000600052601160045260246000fd5b600061492682613e74565b91507fffffffffffffffffffffffffffffffffffffffffffffffffffffffffffffffff821415614959576149586148ec565b5b600182019050919050565b6000608082019050818103600083015261497e8187613e3b565b905061498d6020830186613eab565b61499a6040830185613e7e565b6149a76060830184613e8d565b95945050505050565b7f43414c4c4552204953204e4f54204120434f4e54524f4c4c4552000000000000600082015250565b60006149e6601a83613df7565b91506149f1826149b0565b602082019050919050565b60006020820190508181036000830152614a15816149d9565b9050919050565b7f4e4557204d4f4445204d555354204245204449464552454e542046524f4d205460008201527f4845204558495349544e47000000000000000000000000000000000000000000602082015250565b6000614a78602b83613df7565b9150614a8382614a1c565b604082019050919050565b60006020820190508181036000830152614aa781614a6b565b9050919050565b7f4e487b7100000000000000000000000000000000000000000000000000000000600052603260045260246000fd5b7f4552524f523a2043414c4c45522048415320414c52454144592043414c4c454460008201527f20544849532046554e4354494f4e000000000000000000000000000000000000602082015250565b6000614b39602e83613df7565b9150614b4482614add565b604082019050919050565b60006020820190508181036000830152614b6881614b2c565b9050919050565b60008160f81b9050919050565b6000614b8782614b6f565b9050919050565b614b9f614b9a82613c8e565b614b7c565b82525050565b60008160601b9050919050565b6000614bbd82614ba5565b9050919050565b6000614bcf82614bb2565b9050919050565b614be7614be282613982565b614bc4565b82525050565b600081905092915050565b6000614c048385614bed565b9350614c11838584613ab4565b82840190509392505050565b6000819050919050565b614c38614c3382613e74565b614c1d565b82525050565b6000614c4a8288614b8e565b600182019150614c5a8287614bd6565b601482019150614c6b828587614bf8565b9150614c778284614c27565b6020820191508190509695505050505050565b6000614c968385613df7565b9350614ca3838584613ab4565b614cac836139f7565b840190509392505050565b6000608082019050614ccc6000830188613e9c565b614cd96020830187613eab565b8181036040830152614cec818587614c8a565b9050614cfb6060830184613e7e565b9695505050505050565b7f4e487b7100000000000000000000000000000000000000000000000000000000600052602260045260246000fd5b60006002820490506001821680614d4c57607f821691505b60208210811415614d6057614d5f614d05565b5b50919050565b7f4552524f523a20524547495354524154494f4e2046454520495320524551554960008201527f5245440000000000000000000000000000000000000000000000000000000000602082015250565b6000614dc2602383613df7565b9150614dcd82614d66565b604082019050919050565b60006020820190508181036000830152614df181614db5565b9050919050565b7f4552524f523a20564f544552204953204e4f5420524547495354455245440000600082015250565b6000614e2e601e83613df7565b9150614e3982614df8565b602082019050919050565b60006020820190508181036000830152614e5d81614e21565b9050919050565b7f4552524f523a204149524c494e4520564f54454420495320414c52454144592060008201527f5245474953544552454400000000000000000000000000000000000000000000602082015250565b6000614ec0602a83613df7565b9150614ecb82614e64565b604082019050919050565b60006020820190508181036000830152614eef81614eb3565b9050919050565b7f4552524f523a204149524c494e4520564f544544204953204e4f54204120434160008201527f4e44494441544500000000000000000000000000000000000000000000000000602082015250565b6000614f52602783613df7565b9150614f5d82614ef6565b604082019050919050565b60006020820190508181036000830152614f8181614f45565b9050919050565b7f4552524f523a2043414c4c455220414c524541445920564f54454420464f522060008201527f54484953204149524c494e450000000000000000000000000000000000000000602082015250565b6000614fe4602c83613df7565b9150614fef82614f88565b604082019050919050565b6000602082019050818103600083015261501381614fd7565b9050919050565b600061502582613e74565b915061503083613e74565b9250827fffffffffffffffffffffffffffffffffffffffffffffffffffffffffffffffff03821115615065576150646148ec565b5b828201905092915050565b600061507b82613e74565b915061508683613e74565b9250817fffffffffffffffffffffffffffffffffffffffffffffffffffffffffffffffff04831182151516156150bf576150be6148ec565b5b828202905092915050565b7f4e487b7100000000000000000000000000000000000000000000000000000000600052601260045260246000fd5b600061510482613e74565b915061510f83613e74565b92508261511f5761511e6150ca565b5b828204905092915050565b7f4552524f523a204f5241434c45204e4f54205245474953544552454400000000600082015250565b6000615160601c83613df7565b915061516b8261512a565b602082019050919050565b6000602082019050818103600083015261518f81615153565b9050919050565b7f4552524f523a20464c49474854204953204e4f54205245474953544552454400600082015250565b60006151cc601f83613df7565b91506151d782615196565b602082019050919050565b600060208201905081810360008301526151fb816151bf565b9050919050565b60006040820190506152176000830185613eab565b6152246020830184613f89565b9392505050565b60006020820190506152406000830184613eab565b92915050565b600067ffffffffffffffff82111561526157615260613a08565b5b602082029050602081019050919050565b60008151905061528181613d93565b92915050565b600061529a61529584615246565b613a68565b905080838252602082019050602084028301858111156152bd576152bc613bf9565b5b835b818110156152e657806152d28882615272565b8452602084019350506020810190506152bf565b5050509392505050565b600082601f830112615305576153046139ed565b5b8151615315848260208601615287565b91505092915050565b60006020828403121561533457615333613958565b5b600082015167ffffffffffffffff8111156153525761535161395d565b5b61535e848285016152f0565b91505092915050565b7f4552524f523a2043414c4c4552204953204e4f54205245474953544552454400600082015250565b600061539d601f83613df7565b91506153a882615367565b602082019050919050565b600060208201905081810360008301526153cc81615390565b9050919050565b7f4552524f523a2043414c4c455220495320414c5245414459204120504152544960008201527f434950414e540000000000000000000000000000000000000000000000000000602082015250565b600061542f602683613df7565b915061543a826153d3565b604082019050919050565b6000602082019050818103600083015261545e81615422565b9050919050565b60008151905061547481613f30565b92915050565b6000602082840312156154905761548f613958565b5b600061549e84828501615465565b91505092915050565b7f4552524f523a20494e444558204e4f54204d41544348494e47204f5241434c4560008201527f2052455155455354000000000000000000000000000000000000000000000000602082015250565b6000615503602883613df7565b915061550e826154a7565b604082019050919050565b60006020820190508181036000830152615532816154f6565b9050919050565b7f4552524f523a20464c494748542f54494d455354414d50204e4f54204d41544360008201527f48494e47204f5241434c45205245515545535400000000000000000000000000602082015250565b6000615595603383613df7565b91506155a082615539565b604082019050919050565b600060208201905081810360008301526155c481615588565b9050919050565b60006080820190506155e06000830188613eab565b81810360208301526155f3818688614c8a565b90506156026040830185613e7e565b61560f6060830184613e9c565b9695505050505050565b60008151905061562881613b9b565b92915050565b60006020828403121561564457615643613958565b5b600061565284828501615619565b91505092915050565b7f4552524f523a2043414c4c4552204953204e4f5420412050415254494349504160008201527f4e54000000000000000000000000000000000000000000000000000000000000602082015250565b60006156b7602283613df7565b91506156c28261565b565b604082019050919050565b600060208201905081810360008301526156e6816156aa565b9050919050565b7f4552524f523a20464c494748542054494d45204d555354204245204154204c4560008201527f41535420343820484f555253205448414e204e4f570000000000000000000000602082015250565b6000615749603583613df7565b9150615754826156ed565b604082019050919050565b600060208201905081810360008301526157788161573c565b9050919050565b7f4552524f523a20464c4947485420414c52454144592052454749535445524544600082015250565b60006157b5602083613df7565b91506157c08261577f565b602082019050919050565b600060208201905081810360008301526157e4816157a8565b9050919050565b7f4552524f523a2043414c4c4552204953204e4f5420414c4c4f57454420544f2060008201527f42555920494e535552414e434500000000000000000000000000000000000000602082015250565b6000615847602d83613df7565b9150615852826157eb565b604082019050919050565b600060208201905081810360008301526158768161583a565b9050919050565b7f4552524f523a20464c49474854204e4f5420464f554e44000000000000000000600082015250565b60006158b3601783613df7565b91506158be8261587d565b602082019050919050565b600060208201905081810360008301526158e2816158a6565b9050919050565b60006060820190506158fe6000830186613eab565b61590b6020830185613f89565b6159186040830184613eab565b949350505050565b600061592b82613dec565b6159358185614bed565b9350615945818560208601613e08565b80840191505092915050565b600061595d8286614bd6565b60148201915061596d8285615920565b91506159798284614c27565b602082019150819050949350505050565b600061599d61599884613a83565b613a68565b9050828152602081018484840111156159b9576159b86139f2565b5b6159c4848285613e08565b509392505050565b600082601f8301126159e1576159e06139ed565b5b81516159f184826020860161598a565b91505092915050565b600081519050615a0981613994565b92915050565b600080600080600080600060e0888a031215615a2e57615a2d613958565b5b600088015167ffffffffffffffff811115615a4c57615a4b61395d565b5b615a588a828b016159cc565b9750506020615a698a828b016159fa565b9650506040615a7a8a828b01615619565b9550506060615a8b8a828b01615619565b9450506080615a9c8a828b01615619565b93505060a0615aad8a828b01615465565b92505060c0615abe8a828b01615465565b91505092959891949750929550565b600080600080600080600060e0888a031215615aec57615aeb613958565b5b6000615afa8a828b01615272565b9750506020615b0b8a828b01615272565b9650506040615b1c8a828b016159fa565b9550506060615b2d8a828b01615465565b9450506080615b3e8a828b01615465565b93505060a0615b4f8a828b01615619565b92505060c0615b608a828b01615619565b91505092959891949750929550565b615b7881613c54565b82525050565b615b8781613c8e565b82525050565b61010082016000820151615ba46000850182615b6f565b506020820151615bb76020850182615b7e565b506040820151615bca6040850182615b7e565b506060820151615bdd6060850182615b7e565b506080820151615bf06080850182615b7e565b5060a0820151615c0360a0850182615b7e565b5060c0820151615c1660c0850182615b7e565b5060e0820151615c2960e0850182615b7e565b50505050565b600061010082019050615c456000830184615b8d565b92915050565b7f4552524f523a204149524c494e4520495320414c5245414459204120434f4e5460008201527f524f4c4c45520000000000000000000000000000000000000000000000000000602082015250565b6000615ca7602683613df7565b9150615cb282615c4b565b604082019050919050565b60006020820190508181036000830152615cd681615c9a565b9050919050565b7f4552524f523a204149524c494e4520495320414c524541445920412043414e4460008201527f4944415445000000000000000000000000000000000000000000000000000000602082015250565b6000615d39602583613df7565b9150615d4482615cdd565b604082019050919050565b60006020820190508181036000830152615d6881615d2c565b9050919050565b6000615d7a82613c8e565b915060ff821415615d8e57615d8d6148ec565b5b600182019050919050565b6000615da482613e74565b9150615daf83613e74565b925082821015615dc257615dc16148ec565b5b828203905092915050565b6000819050919050565b615de8615de382613d89565b615dcd565b82525050565b6000615dfa8285615dd7565b602082019150615e0a8284614bd6565b6014820191508190509392505050565b6000615e2582613e74565b9150615e3083613e74565b925082615e4057615e3f6150ca565b5b828206905092915050565b7f4552524f523a204149524c494e45204953204e4f5420412043414e444944415460008201527f4500000000000000000000000000000000000000000000000000000000000000602082015250565b6000615ea7602183613df7565b9150615eb282615e4b565b604082019050919050565b60006020820190508181036000830152615ed681615e9a565b9050919050565b7f4552524f523a204149524c494e4520495320414c52454144592041205041525460008201527f49434950414e5400000000000000000000000000000000000000000000000000602082015250565b6000615f39602783613df7565b9150615f4482615edd565b604082019050919050565b60006020820190508181036000830152615f6881615f2c565b9050919050565b6000604082019050615f846000830185613f89565b615f916020830184613eab565b939250505056fea2646970667358221220c19aa9f8ed28a49bb42b9376316b6bc86604cc8e738fa142d22f69d1a3589f0664736f6c634300080b0033",
  "immutableReferences": {},
  "source": "// SPDX-License-Identifier: MIT\npragma solidity ^0.8.0;\n\nimport \"./DateLib.sol\";\nimport \"./RoleLib.sol\";\n\nimport \"@openzeppelin/contracts/utils/math/SafeMath.sol\";\n// import \"../node_modules/openzeppelin-solidity/contracts/math/SafeMath.sol\";\n\ncontract FlightSuretyApp {\n    using SafeMath for uint256;\n\n    bool private operational = true;            // BLOCKS ALL STATE CHANGES THROUGHOUT THE CONTRACT IF FALSE\n    address[] multiCalls = new address[](0);\n    uint M = 3;\n\n\n    /********************************************************************************************/\n    /*                                          DATELIB                                         */\n    /********************************************************************************************/\n    using DateLib for DateLib.DateTime;         //LIBRARY USED TO CONVERT HUMAN DATE TIME TO EPOCH TIMESTAMP\n\n    function getDateTime(uint16 _year, uint8 _month, uint8 _day, uint8 _hour, uint8 _minute) public pure returns(uint) {\n        uint unixDate = DateLib.toUnixTimestamp(DateLib.DateTime({\n            year: _year,\n            month: _month,\n            day: _day,\n            hour: _hour,\n            minute: _minute,\n            second: 0,\n            ms: 0,\n            weekday: 0\n        }));\n        \n        return unixDate;\n    }\n    \n    /********************************************************************************************/\n    /*                                         ROLELIB                                          */\n    /********************************************************************************************/\n    using RoleLib for RoleLib.Role;             //LIBRARY USED TO CLASSIFY AIRLINES INTO DIFFERENT ROLES\n\n    RoleLib.Role private registers;\n    RoleLib.Role private controllers;\n    RoleLib.Role private participants;\n    RoleLib.Role private candidates;            \n\n    function register(address _address) internal {\n        require(!isRegistered(_address), \"ERROR: AIRLINE IS ALREADY REGISTERED\");\n        registers.add(_address);\n    }\n\n    function addController(address _address) internal {\n        require(!isController(_address), \"ERROR: AIRLINE IS ALREADY A CONTROLLER\");\n        controllers.add(_address);\n    }\n\n    function addParticipant(address _address) internal {\n        require(!isParticipant(_address), \"ERROR: AIRLINE IS ALREADY A PARTICIPANT\");\n        participants.add(_address);\n    }\n    \n    function addCandidate(address _address) internal {\n        require(!isCandidate(_address), \"ERROR: AIRLINE IS ALREADY A CANDIDATE\");\n        candidates.add(_address);\n    }\n\n    function removeCandidate(address _address) internal {\n        require(isCandidate(_address), \"ERROR: AIRLINE IS NOT A CANDIDATE\");\n        candidates.remove(_address);\n    }\n\n\n    /********************************************************************************************/\n    /*                                       DATA VARIABLES                                     */\n    /********************************************************************************************/\n    FlightSuretyData flightSuretyData;\n    // Flight status codees\n    uint8 private constant STATUS_CODE_UNKNOWN = 0;\n    uint8 private constant STATUS_CODE_ON_TIME = 10;\n    uint8 private constant STATUS_CODE_LATE_AIRLINE = 20;\n    uint8 private constant STATUS_CODE_LATE_WEATHER = 30;\n    uint8 private constant STATUS_CODE_LATE_TECHNICAL = 40;\n    uint8 private constant STATUS_CODE_LATE_OTHER = 50;\n\n    address private contractOwner;          // Account used to deploy contract\n\n    uint aCounter = 1;\n    uint fCounter = 0;    \n\n    struct Flight{\n        string          flight;\n        uint            flightId;\n        bool            active;\n        bool            isRegistered;\n        uint8           statusCode;\n        uint256         updatedTimestamp;\n        address         airlineAddress;\n    }\n    mapping(bytes32 => Flight) public flights;\n    mapping(uint => bytes32) public flightsReverse;\n\n\n    /********************************************************************************************/\n    /*                             CANDIDATE AIRLINE VARIABLES                                  */\n    /********************************************************************************************/\n    struct Proposal {\n        address         proposedAddress;\n        string          proposedName;\n        uint            voteCount;\n        bool            active;\n    }\n    Proposal[] private proposals;\n    mapping(address => address[]) voters;\n\n\n    /********************************************************************************************/\n    /*                                       FUNCTION MODIFIERS                                 */\n    /********************************************************************************************/\n    modifier requireIsOperational() {\n        require(isOperational(), \"CONTRACT IS CURRENTLY NOT OPERATIONAL\");\n        _;\n    }\n    \n    modifier requireContractOwner() {\n        require(msg.sender == contractOwner, \"CALLER IS NOT CONTRACT OWNER\");\n        _;\n    }\n\n    modifier requireController() {\n        require(msg.sender == contractOwner || controllers.has(msg.sender), \"CALLER IS NOT A CONTROLLER\");\n        _;\n    }\n\n\n    /********************************************************************************************/\n    /*                                       CONSTRUCTOR                                        */\n    /********************************************************************************************/\n    constructor(address dataContract) {\n        contractOwner = msg.sender;\n        flightSuretyData = FlightSuretyData(dataContract);\n        address _firstAirlineAddress = flightSuretyData.getFirstAirlineAddress();\n        register(_firstAirlineAddress);\n        addController(_firstAirlineAddress);\n    }\n\n\n    /********************************************************************************************/\n    /*                                  OPERATIONAL STATUS CONTROL                              */\n    /********************************************************************************************/\n    function setOperatingStatus(bool mode) external requireController() {\n        require(mode != operational, \"NEW MODE MUST BE DIFERENT FROM THE EXISITNG\");\n\n        bool isDuplicate = false;\n        for(uint c = 0; c < multiCalls.length; c++) {\n            if (multiCalls[c] == msg.sender) {\n                isDuplicate = true;\n                break;\n            }\n        }\n        \n        require(!isDuplicate, \"ERROR: CALLER HAS ALREADY CALLED THIS FUNCTION\");\n\n        multiCalls.push(msg.sender);\n        if (multiCalls.length >= M) {\n            operational = mode;\n            multiCalls = new address[](0);\n        }\n    }\n\n\n    /********************************************************************************************/\n    /*                                       UTILITY FUNCTIONS                                  */\n    /********************************************************************************************/\n    function isOperational() public view returns(bool) {\n        return flightSuretyData.isOperational();\n    }\n\n    function setDataContract(address dataContract) external requireContractOwner {\n        flightSuretyData = FlightSuretyData(dataContract);\n    }\n\n    function isController(address _address) public view returns(bool) {\n        //return controllers.has(_address);\n        return (_address == contractOwner || controllers.has(_address));\n    }\n\n    function isRegistered(address _address) public view returns(bool) {\n        return registers.has(_address);\n    }\n\n    function isParticipant(address _address) public view returns(bool) {\n        return participants.has(_address); \n    }\n\n    function isCandidate(address _address) public view returns(bool) {\n        return candidates.has(_address);\n    }\n\n\n    /********************************************************************************************/\n    /*                                        AIRLINE FUNCTIONS                                 */\n    /********************************************************************************************/\n    function registerAirline(string memory _name, address _address) public requireIsOperational() {\n        require(!isRegistered(_address), \"ERROR: AIRLINE IS ALREADY REGISTERED\");\n        \n        if(aCounter < 4) {\n            require(msg.sender == contractOwner || isController(msg.sender), \"ERROR: CALLER IS NOT CONTROLLER\");\n            \n            aCounter ++;\n            flightSuretyData.registerAirline(_name, _address, aCounter, true);\n            \n            register(_address);\n            addController(_address);\n        \n        } else {\n            candidateAirline(_name, _address);\n\n            addCandidate(_address);\n        }\n    }\n\n    function checkAirlines(address _address) public view \n    returns(string memory name_, address address_, bool registered_, bool participant_, bool controller_, uint fundavailable_, uint fundcommitted_) {   \n        return flightSuretyData.checkAirlines(_address);\n    }\n\n    function candidateAirline(string memory _name, address _address) internal requireIsOperational() {\n        require(!isRegistered(_address), \"ERROR: AIRLINE IS ALREADY REGISTERED\");\n        require(!isCandidate(_address), \"ERROR: AIRLINE IS ALREADY A CANDIDATE\");\n        \n        proposals.push(Proposal({\n            proposedAddress: _address,\n            proposedName: _name,\n            voteCount: 0,\n            active: true\n            })\n        );\n    }\n\n    function checkCandidateAirlines() public view returns(Proposal[] memory ) {\n        return proposals;\n    }\n\n    function vote(string memory _name, address _address) public requireIsOperational() {\n        require(isRegistered(msg.sender), \"ERROR: VOTER IS NOT REGISTERED\");\n        require(!isRegistered(_address), \"ERROR: AIRLINE VOTED IS ALREADY REGISTERED\");\n        require(isCandidate(_address), \"ERROR: AIRLINE VOTED IS NOT A CANDIDATE\");\n        \n        bool found = false;\n        uint result = 0;\n        for (uint v = 0; v < voters[msg.sender].length; v++) {\n            if(voters[msg.sender][v] == _address){\n                found = true;\n                revert(\"ERROR: CALLER ALREADY VOTED FOR THIS AIRLINE\");\n            }\n        }\n        if(!found){\n            voters[msg.sender].push(_address);\n        }\n        for (uint p = 0; p < proposals.length; p++) {\n            if (proposals[p].proposedAddress == _address) {\n                proposals[p].voteCount += 1;\n                result = (proposals[p].voteCount * 100) / aCounter;\n                if(result >= 50){\n                    aCounter ++;\n                    flightSuretyData.registerAirline(_name, _address, aCounter, false);\n\n                    register(_address);\n                    removeCandidate(_address);\n                    proposals[p].active = false;\n                }\n                break;\n            }\n        }\n    }\n\n\n    /********************************************************************************************/\n    /*                                       FUNDING FUNCTIONS                                  */\n    /********************************************************************************************/\n    function fund() public payable requireIsOperational() {\n        require(isRegistered(msg.sender), \"ERROR: CALLER IS NOT REGISTERED\");\n        require(!isParticipant(msg.sender), \"ERROR: CALLER IS ALREADY A PARTICIPANT\");\n\n        flightSuretyData.fund{value: msg.value}(msg.sender);\n\n        addParticipant(msg.sender);\n    }\n\n\n    /********************************************************************************************/\n    /*                                        FLIGHT FUNCTIONS                                  */\n    /********************************************************************************************/\n    function registerFlight(string memory _flight, uint16 _year, uint8 _month, uint8 _day, uint8 _hour, uint8 _minute) public {\n        require(isParticipant(msg.sender), \"ERROR: CALLER IS NOT A PARTICIPANT\");\n        \n        uint _timestamp = getDateTime(_year, _month, _day, _hour, _minute);\n        require(_timestamp > block.timestamp + 172800, \"ERROR: FLIGHT TIME MUST BE AT LEAST 48 HOURS THAN NOW\");\n         \n        bytes32 _flightKey = getFlightKey(msg.sender, _flight, _timestamp);\n        require(!checkFlight(_flightKey), \"ERROR: FLIGHT ALREADY REGISTERED\");\n        \n        fCounter++;\n        flights[_flightKey] = Flight({\n            flight: _flight,\n            flightId: fCounter,\n            active: true,\n            isRegistered: true,\n            statusCode: 0,\n            updatedTimestamp: _timestamp,\n            airlineAddress: msg.sender\n        });\n\n        flightsReverse[fCounter] = _flightKey;\n\n    }\n\n    function checkFlight(bytes32 _flightKey) public view requireIsOperational() returns(bool) {\n        return flights[_flightKey].isRegistered;\n    }\n\n    function updateFlightTimestamp(bytes32 _flightKey, uint256 _timestamp) internal requireIsOperational() {\n        flights[_flightKey].updatedTimestamp = _timestamp;\n    }\n\n    function updateFlightStatus(bytes32 _flightKey, uint8 _statusCode) internal requireIsOperational()  {\n        flights[_flightKey].statusCode = _statusCode;\n    }\n\n    function getFlightStatus(bytes32 _flightKey) internal view requireIsOperational() returns(uint8) {\n        return flights[_flightKey].statusCode;\n    }\n\n    function checkFlights(uint _flightId) public view requireIsOperational()\n        returns(bytes32 flightKey_, string memory flight_, bool active_, bool isRegistered_, uint8 status_, uint256 timestamp_, address address_) \n    {\n        bytes32 _flightKey = flightsReverse[_flightId];\n        require(checkFlight(_flightKey), \"ERROR: FLIGHT IS NOT REGISTERED\");\n        return(_flightKey\n            , flights[_flightKey].flight\n            , flights[_flightKey].active\n            , flights[_flightKey].isRegistered\n            , flights[_flightKey].statusCode\n            , flights[_flightKey].updatedTimestamp\n            , flights[_flightKey].airlineAddress\n        );\n    }\n\n\n    /********************************************************************************************/\n    /*                                   PROCESS FLIGHT FUNCTION                                */\n    /********************************************************************************************/\n    //function processFlightStatus(bytes32 _flightKey, uint _timestamp, uint8 _statusCode) internal {\n    function processFlightStatus(address _airlineAddress, string memory _flight, uint _timestamp, uint8 _statusCode) internal {\n        bytes32 _flightKey = getFlightKey(_airlineAddress, _flight, _timestamp);\n        require(checkFlight(_flightKey), \"ERROR: FLIGHT IS NOT REGISTERED\");\n\n        updateFlightTimestamp(_flightKey, _timestamp);\n        updateFlightStatus(_flightKey, _statusCode);\n\n        if (_statusCode == STATUS_CODE_LATE_AIRLINE) {\n            flightSuretyData.creditInsurees(_flightKey, _airlineAddress);\n        }\n        // else if(_statusCode == STATUS_CODE_ON_TIME) {\n        //     flightSuretyData.creditInsurees(_flightKey, _airlineAddress);\n        // }\n    }\n\n\n    /********************************************************************************************/\n    /*                                     PASSENGER FUNCTIONS                                  */\n    /********************************************************************************************/\n    function buy(uint _flightId) public payable requireIsOperational() {\n        require(!isRegistered(msg.sender) && msg.sender != contractOwner, \"ERROR: CALLER IS NOT ALLOWED TO BUY INSURANCE\");\n        \n        bytes32 _flightKey = flightsReverse[_flightId];\n        require(checkFlight(_flightKey), \"ERROR: FLIGHT NOT FOUND\");\n\n        address _airlineAddress = flights[_flightKey].airlineAddress;\n\n        flightSuretyData.buy{value: msg.value}(msg.sender, _flightKey, _airlineAddress);\n\n    }\n\n    function checkPassengerInsurances() public view requireIsOperational() returns(bytes32[] memory) {\n        return flightSuretyData.checkPassengerInsurances(msg.sender);\n    }\n\n    function checkInsuranceAmountPaid(uint _flightId) public view requireIsOperational() returns(uint) {\n        bytes32 _flightKey = flightsReverse[_flightId];\n        require(checkFlight(_flightKey), \"ERROR: FLIGHT IS NOT REGISTERED\");\n        return flightSuretyData.checkInsuranceAmountPaid(msg.sender, _flightKey);\n    }\n    \n    function checkInsurances(uint _insuranceId) public view requireIsOperational()\n    returns(bytes32 insuranceKey_, bytes32 flightKey_, address passengerAddress_, uint amountPaid_, uint amountAvailable_, bool claimable_, bool active_) {   \n        return flightSuretyData.checkInsurances(_insuranceId);\n    }\n\n\n    /********************************************************************************************/\n    /*                                 FLIGHT STATUS FUNCTIONS                                  */\n    /********************************************************************************************/\n    // Generate a request for oracles to fetch flight information\n    function fetchFlightStatus(address _airline, string calldata _flight, uint16 _year, uint8 _month, uint8 _day, uint8 _hour, uint8 _minute) external {\n        uint8 index = getRandomIndex(msg.sender);\n\n        uint _timestamp = getDateTime(_year, _month, _day, _hour, _minute);\n\n        // Generate a unique key for storing the request\n        bytes32 key = keccak256(abi.encodePacked(index, _airline, _flight, _timestamp));\n        oracleResponses[key].requester = msg.sender;\n        oracleResponses[key].isOpen = true;\n\n        emit OracleRequest(index, _airline, _flight, _timestamp);\n    }\n\n    // Query the status of any flight\n    function viewFlightStatus(uint _flightId) external view returns(uint8) {\n        bytes32 _flightKey = flightsReverse[_flightId];\n        require(checkFlight(_flightKey), \"ERROR: FLIGHT IS NOT REGISTERED\");\n        return getFlightStatus(_flightKey);\n    }\n\n\n    /********************************************************************************************/\n    /*                                      WITHDRAW FUNCTIONS                                  */\n    /********************************************************************************************/\n    function withdrawCredit(string memory _flight, uint16 _year, uint8 _month, uint8 _day, uint8 _hour, uint8 _minute) public {\n        uint _timestamp = getDateTime(_year, _month, _day, _hour, _minute);\n\n        bytes32 _flightKey = getFlightKey(msg.sender, _flight, _timestamp);\n        flightSuretyData.pay(msg.sender, _flightKey);\n    }\n\n// region ORACLE MANAGEMENT\n\n    // Incremented to add pseudo-randomness at various points\n    uint8 private nonce = 0;\n\n    // Fee to be paid when registering oracle\n    uint256 public constant REGISTRATION_FEE = 1 ether;\n\n    // Number of oracles that must respond for valid status\n    uint256 private constant MIN_RESPONSES = 3;\n\n    struct Oracle {\n        bool        isRegistered;\n        uint8[3]    indexes;\n    }\n\n    // Track all registered oracles\n    mapping(address => Oracle) private oracles;\n\n    // Model for responses from oracles\n    struct ResponseInfo {\n        address     requester;                                  // Account that requested status\n        bool        isOpen;                                     // If open, oracle responses are accepted\n        mapping(uint8 => address[]) responses;                  // Mapping key is the status code reported\n                                                                // This lets us group responses and identify\n                                                                // the response that majority of the oracles\n    }\n\n    // Track all oracle responses\n    // Key = hash(index, flight, timestamp)\n    mapping(bytes32 => ResponseInfo) private oracleResponses;\n\n    // Event fired each time an oracle submits a response\n    event FlightStatusInfo(address airline, string flight, uint256 timestamp, uint8 status);\n\n    event OracleReport(address airline, string flight, uint256 timestamp, uint8 status);\n\n    // Event fired when flight status request is submitted\n    // Oracles track this and if they have a matching index\n    // they fetch data and submit a response\n    event OracleRequest(uint8 index, address airline, string flight, uint256 timestamp);\n\n    // Register an oracle with the contract\n    function registerOracle() external payable {\n        // Require registration fee\n        require(msg.value >= REGISTRATION_FEE, \"ERROR: REGISTRATION FEE IS REQUIRED\");\n\n        uint8[3] memory indexes = generateIndexes(msg.sender);\n\n        oracles[msg.sender] = Oracle(\n            {\n                isRegistered: true,\n                indexes: indexes\n            }\n        );\n    }\n\n    function getMyIndexes() external view returns(uint8[3] memory) {\n        require(oracles[msg.sender].isRegistered, \"ERROR: ORACLE NOT REGISTERED\");\n\n        return oracles[msg.sender].indexes;\n    }\n\n    // Called by oracle when a response is available to an outstanding request\n    // For the response to be accepted, there must be a pending request that is open\n    // and matches one of the three Indexes randomly assigned to the oracle at the\n    // time of registration (i.e. uninvited oracles are not welcome)\n    function submitOracleResponse(uint8 index, address airline, string calldata flight, uint256 timestamp, uint8 statusCode)\n    external {\n        require((oracles[msg.sender].indexes[0] == index) || (oracles[msg.sender].indexes[1] == index) || (oracles[msg.sender].indexes[2] == index), \"ERROR: INDEX NOT MATCHING ORACLE REQUEST\");\n\n\n        bytes32 key = keccak256(abi.encodePacked(index, airline, flight, timestamp));\n        require(oracleResponses[key].isOpen, \"ERROR: FLIGHT/TIMESTAMP NOT MATCHING ORACLE REQUEST\");\n\n        oracleResponses[key].responses[statusCode].push(msg.sender);\n\n        // Information isn't considered verified until at least MIN_RESPONSES\n        // oracles respond with the *** same *** information\n        emit OracleReport(airline, flight, timestamp, statusCode);\n        if (oracleResponses[key].responses[statusCode].length >= MIN_RESPONSES) {\n\n            emit FlightStatusInfo(airline, flight, timestamp, statusCode);\n\n            // Handle flight status as appropriate\n            processFlightStatus(airline, flight, timestamp, statusCode);\n        }\n    }\n\n    function getFlightKey(address airline, string memory flight, uint256 timestamp) pure public returns(bytes32) {\n        return keccak256(abi.encodePacked(airline, flight, timestamp));\n    }\n\n    // Returns array of three non-duplicating integers from 0-9\n    function generateIndexes(address _account) internal returns(uint8[3] memory) {\n        uint8[3] memory indexes;\n        indexes[0] = getRandomIndex(_account);\n\n        indexes[1] = indexes[0];\n        while(indexes[1] == indexes[0]) {\n            indexes[1] = getRandomIndex(_account);\n        }\n\n        indexes[2] = indexes[1];\n        while((indexes[2] == indexes[0]) || (indexes[2] == indexes[1])) {\n            indexes[2] = getRandomIndex(_account);\n        }\n\n        return indexes;\n    }\n\n    // Returns array of three non-duplicating integers from 0-9\n    function getRandomIndex(address _account) internal returns (uint8) {\n        uint8 maxValue = 10;\n\n        // Pseudo random number...the incrementing nonce adds variation\n        uint8 random = uint8(uint256(keccak256(abi.encodePacked(blockhash(block.number - nonce++), _account))) % maxValue);\n\n        if (nonce > 250) {\n            nonce = 0;  // Can only fetch blockhashes for last 256 blocks so we adapt\n        }\n\n        return random;\n    }\n\n// endregion\n\n}\n\ncontract FlightSuretyData {\n\n    function isOperational() external view returns(bool) {}\n\n    function getFirstAirlineAddress() external view returns(address){}\n    \n    function registerAirline(string memory _name, address _address, uint _aCounter, bool _controller) external {}\n\n    function candidateAirline(string memory _name, address _address) external {}\n\n    function fund(address _address) external payable {}\n    \n    function checkAirlines(address _airlineAddress) external view \n    returns(string memory name_, address address_, bool registered_, bool participant_, bool controller_, uint fundavailable_, uint fundcommitted_) {}\n\n    function buy(address _passengerAddress, bytes32 _flightKey, address _airlineAddress) external payable {}\n\n    function checkInsurances(uint _insuranceId) external view\n    returns(bytes32 insuranceKey_, bytes32 flightKey_, address passengerAddress_, uint amountPaid_, uint amountAvailable_, bool claimable_, bool active_) {}\n\n    function checkPassengerInsurances(address _passengerAddress) external view returns(bytes32[] memory) {}\n\n    function checkInsuranceAmountPaid(address _passengerAddress, bytes32 _flightKey) external view returns(uint amountPaid_) {}\n\n    function creditInsurees(bytes32 _flightKey, address _airlineAddress) external {}\n\n    function pay(address _passengerAddress, bytes32 _flightKey) external {}\n\n}\n",
  "sourcePath": "/Users/fernandomaximof/Documents/udacity-projects/project4/contracts/FlightSuretyApp.sol",
  "compiler": {
    "name": "solc",
    "version": "0.8.11+commit.d7f03943.Emscripten.clang"
  },
  "schemaVersion": "3.4.3",
  "updatedAt": "2022-02-03T04:49:26.166Z",
  "networkType": "ethereum",
  "devdoc": {
    "kind": "dev",
    "methods": {},
    "version": 1
  },
  "userdoc": {
    "kind": "user",
    "methods": {},
    "version": 1
  }
}