{
  "contractName": "FlightSuretyApp",
  "abi": [
    {
      "inputs": [
        {
          "internalType": "address",
          "name": "dataContract",
          "type": "address"
        }
      ],
      "stateMutability": "nonpayable",
      "type": "constructor"
    },
    {
      "anonymous": false,
      "inputs": [
        {
          "indexed": false,
          "internalType": "address",
          "name": "airline",
          "type": "address"
        },
        {
          "indexed": false,
          "internalType": "string",
          "name": "flight",
          "type": "string"
        },
        {
          "indexed": false,
          "internalType": "uint256",
          "name": "timestamp",
          "type": "uint256"
        },
        {
          "indexed": false,
          "internalType": "uint8",
          "name": "status",
          "type": "uint8"
        }
      ],
      "name": "FlightStatusInfo",
      "type": "event"
    },
    {
      "anonymous": false,
      "inputs": [
        {
          "indexed": false,
          "internalType": "address",
          "name": "airline",
          "type": "address"
        },
        {
          "indexed": false,
          "internalType": "string",
          "name": "flight",
          "type": "string"
        },
        {
          "indexed": false,
          "internalType": "uint256",
          "name": "timestamp",
          "type": "uint256"
        },
        {
          "indexed": false,
          "internalType": "uint8",
          "name": "status",
          "type": "uint8"
        }
      ],
      "name": "OracleReport",
      "type": "event"
    },
    {
      "anonymous": false,
      "inputs": [
        {
          "indexed": false,
          "internalType": "uint8",
          "name": "index",
          "type": "uint8"
        },
        {
          "indexed": false,
          "internalType": "address",
          "name": "airline",
          "type": "address"
        },
        {
          "indexed": false,
          "internalType": "string",
          "name": "flight",
          "type": "string"
        },
        {
          "indexed": false,
          "internalType": "uint256",
          "name": "timestamp",
          "type": "uint256"
        }
      ],
      "name": "OracleRequest",
      "type": "event"
    },
    {
      "inputs": [],
      "name": "REGISTRATION_FEE",
      "outputs": [
        {
          "internalType": "uint256",
          "name": "",
          "type": "uint256"
        }
      ],
      "stateMutability": "view",
      "type": "function",
      "constant": true
    },
    {
      "inputs": [
        {
          "internalType": "bytes32",
          "name": "",
          "type": "bytes32"
        }
      ],
      "name": "flights",
      "outputs": [
        {
          "internalType": "string",
          "name": "flight",
          "type": "string"
        },
        {
          "internalType": "uint256",
          "name": "flightId",
          "type": "uint256"
        },
        {
          "internalType": "bool",
          "name": "active",
          "type": "bool"
        },
        {
          "internalType": "bool",
          "name": "isRegistered",
          "type": "bool"
        },
        {
          "internalType": "uint8",
          "name": "statusCode",
          "type": "uint8"
        },
        {
          "internalType": "uint256",
          "name": "updatedTimestamp",
          "type": "uint256"
        },
        {
          "internalType": "address",
          "name": "airlineAddress",
          "type": "address"
        }
      ],
      "stateMutability": "view",
      "type": "function",
      "constant": true
    },
    {
      "inputs": [
        {
          "internalType": "uint256",
          "name": "",
          "type": "uint256"
        }
      ],
      "name": "flightsReverse",
      "outputs": [
        {
          "internalType": "bytes32",
          "name": "",
          "type": "bytes32"
        }
      ],
      "stateMutability": "view",
      "type": "function",
      "constant": true
    },
    {
      "inputs": [
        {
          "internalType": "uint16",
          "name": "_year",
          "type": "uint16"
        },
        {
          "internalType": "uint8",
          "name": "_month",
          "type": "uint8"
        },
        {
          "internalType": "uint8",
          "name": "_day",
          "type": "uint8"
        },
        {
          "internalType": "uint8",
          "name": "_hour",
          "type": "uint8"
        },
        {
          "internalType": "uint8",
          "name": "_minute",
          "type": "uint8"
        }
      ],
      "name": "getDateTime",
      "outputs": [
        {
          "internalType": "uint256",
          "name": "",
          "type": "uint256"
        }
      ],
      "stateMutability": "pure",
      "type": "function",
      "constant": true
    },
    {
      "inputs": [
        {
          "internalType": "bool",
          "name": "mode",
          "type": "bool"
        }
      ],
      "name": "setOperatingStatus",
      "outputs": [],
      "stateMutability": "nonpayable",
      "type": "function"
    },
    {
      "inputs": [],
      "name": "isOperational",
      "outputs": [
        {
          "internalType": "bool",
          "name": "",
          "type": "bool"
        }
      ],
      "stateMutability": "view",
      "type": "function",
      "constant": true
    },
    {
      "inputs": [
        {
          "internalType": "address",
          "name": "dataContract",
          "type": "address"
        }
      ],
      "name": "setDataContract",
      "outputs": [],
      "stateMutability": "nonpayable",
      "type": "function"
    },
    {
      "inputs": [
        {
          "internalType": "address",
          "name": "_address",
          "type": "address"
        }
      ],
      "name": "isController",
      "outputs": [
        {
          "internalType": "bool",
          "name": "",
          "type": "bool"
        }
      ],
      "stateMutability": "view",
      "type": "function",
      "constant": true
    },
    {
      "inputs": [
        {
          "internalType": "address",
          "name": "_address",
          "type": "address"
        }
      ],
      "name": "isRegistered",
      "outputs": [
        {
          "internalType": "bool",
          "name": "",
          "type": "bool"
        }
      ],
      "stateMutability": "view",
      "type": "function",
      "constant": true
    },
    {
      "inputs": [
        {
          "internalType": "address",
          "name": "_address",
          "type": "address"
        }
      ],
      "name": "isParticipant",
      "outputs": [
        {
          "internalType": "bool",
          "name": "",
          "type": "bool"
        }
      ],
      "stateMutability": "view",
      "type": "function",
      "constant": true
    },
    {
      "inputs": [
        {
          "internalType": "address",
          "name": "_address",
          "type": "address"
        }
      ],
      "name": "isCandidate",
      "outputs": [
        {
          "internalType": "bool",
          "name": "",
          "type": "bool"
        }
      ],
      "stateMutability": "view",
      "type": "function",
      "constant": true
    },
    {
      "inputs": [
        {
          "internalType": "string",
          "name": "_name",
          "type": "string"
        },
        {
          "internalType": "address",
          "name": "_address",
          "type": "address"
        }
      ],
      "name": "registerAirline",
      "outputs": [],
      "stateMutability": "nonpayable",
      "type": "function"
    },
    {
      "inputs": [
        {
          "internalType": "address",
          "name": "_address",
          "type": "address"
        }
      ],
      "name": "checkAirlines",
      "outputs": [
        {
          "internalType": "string",
          "name": "name_",
          "type": "string"
        },
        {
          "internalType": "address",
          "name": "address_",
          "type": "address"
        },
        {
          "internalType": "bool",
          "name": "registered_",
          "type": "bool"
        },
        {
          "internalType": "bool",
          "name": "participant_",
          "type": "bool"
        },
        {
          "internalType": "bool",
          "name": "controller_",
          "type": "bool"
        },
        {
          "internalType": "uint256",
          "name": "fundavailable_",
          "type": "uint256"
        },
        {
          "internalType": "uint256",
          "name": "fundcommitted_",
          "type": "uint256"
        }
      ],
      "stateMutability": "view",
      "type": "function",
      "constant": true
    },
    {
      "inputs": [],
      "name": "checkCandidateAirlines",
      "outputs": [
        {
          "components": [
            {
              "internalType": "address",
              "name": "proposedAddress",
              "type": "address"
            },
            {
              "internalType": "string",
              "name": "proposedName",
              "type": "string"
            },
            {
              "internalType": "uint256",
              "name": "voteCount",
              "type": "uint256"
            },
            {
              "internalType": "bool",
              "name": "active",
              "type": "bool"
            }
          ],
          "internalType": "struct FlightSuretyApp.Proposal[]",
          "name": "",
          "type": "tuple[]"
        }
      ],
      "stateMutability": "view",
      "type": "function",
      "constant": true
    },
    {
      "inputs": [
        {
          "internalType": "string",
          "name": "_name",
          "type": "string"
        },
        {
          "internalType": "address",
          "name": "_address",
          "type": "address"
        }
      ],
      "name": "vote",
      "outputs": [],
      "stateMutability": "nonpayable",
      "type": "function"
    },
    {
      "inputs": [],
      "name": "fund",
      "outputs": [],
      "stateMutability": "payable",
      "type": "function",
      "payable": true
    },
    {
      "inputs": [
        {
          "internalType": "string",
          "name": "_flight",
          "type": "string"
        },
        {
          "internalType": "uint16",
          "name": "_year",
          "type": "uint16"
        },
        {
          "internalType": "uint8",
          "name": "_month",
          "type": "uint8"
        },
        {
          "internalType": "uint8",
          "name": "_day",
          "type": "uint8"
        },
        {
          "internalType": "uint8",
          "name": "_hour",
          "type": "uint8"
        },
        {
          "internalType": "uint8",
          "name": "_minute",
          "type": "uint8"
        }
      ],
      "name": "registerFlight",
      "outputs": [],
      "stateMutability": "nonpayable",
      "type": "function"
    },
    {
      "inputs": [
        {
          "internalType": "bytes32",
          "name": "_flightKey",
          "type": "bytes32"
        }
      ],
      "name": "checkFlight",
      "outputs": [
        {
          "internalType": "bool",
          "name": "",
          "type": "bool"
        }
      ],
      "stateMutability": "view",
      "type": "function",
      "constant": true
    },
    {
      "inputs": [
        {
          "internalType": "uint256",
          "name": "_flightId",
          "type": "uint256"
        }
      ],
      "name": "checkFlights",
      "outputs": [
        {
          "internalType": "bytes32",
          "name": "flightKey_",
          "type": "bytes32"
        },
        {
          "internalType": "string",
          "name": "flight_",
          "type": "string"
        },
        {
          "internalType": "bool",
          "name": "active_",
          "type": "bool"
        },
        {
          "internalType": "bool",
          "name": "isRegistered_",
          "type": "bool"
        },
        {
          "internalType": "uint8",
          "name": "status_",
          "type": "uint8"
        },
        {
          "internalType": "uint256",
          "name": "timestamp_",
          "type": "uint256"
        },
        {
          "internalType": "address",
          "name": "address_",
          "type": "address"
        }
      ],
      "stateMutability": "view",
      "type": "function",
      "constant": true
    },
    {
      "inputs": [
        {
          "internalType": "uint256",
          "name": "_flightId",
          "type": "uint256"
        }
      ],
      "name": "buy",
      "outputs": [],
      "stateMutability": "payable",
      "type": "function",
      "payable": true
    },
    {
      "inputs": [],
      "name": "checkPassengerInsurances",
      "outputs": [
        {
          "internalType": "bytes32[]",
          "name": "",
          "type": "bytes32[]"
        }
      ],
      "stateMutability": "view",
      "type": "function",
      "constant": true
    },
    {
      "inputs": [
        {
          "internalType": "uint256",
          "name": "_flightId",
          "type": "uint256"
        }
      ],
      "name": "checkInsuranceAmountPaid",
      "outputs": [
        {
          "internalType": "uint256",
          "name": "",
          "type": "uint256"
        }
      ],
      "stateMutability": "view",
      "type": "function",
      "constant": true
    },
    {
      "inputs": [
        {
          "internalType": "uint256",
          "name": "_insuranceId",
          "type": "uint256"
        }
      ],
      "name": "checkInsurances",
      "outputs": [
        {
          "internalType": "bytes32",
          "name": "insuranceKey_",
          "type": "bytes32"
        },
        {
          "internalType": "bytes32",
          "name": "flightKey_",
          "type": "bytes32"
        },
        {
          "internalType": "address",
          "name": "passengerAddress_",
          "type": "address"
        },
        {
          "internalType": "uint256",
          "name": "amountPaid_",
          "type": "uint256"
        },
        {
          "internalType": "uint256",
          "name": "amountAvailable_",
          "type": "uint256"
        },
        {
          "internalType": "bool",
          "name": "claimable_",
          "type": "bool"
        },
        {
          "internalType": "bool",
          "name": "active_",
          "type": "bool"
        }
      ],
      "stateMutability": "view",
      "type": "function",
      "constant": true
    },
    {
      "inputs": [
        {
          "internalType": "address",
          "name": "_airline",
          "type": "address"
        },
        {
          "internalType": "string",
          "name": "_flight",
          "type": "string"
        },
        {
          "internalType": "uint256",
          "name": "_timestamp",
          "type": "uint256"
        }
      ],
      "name": "fetchFlightStatus",
      "outputs": [],
      "stateMutability": "nonpayable",
      "type": "function"
    },
    {
      "inputs": [
        {
          "internalType": "uint256",
          "name": "_flightId",
          "type": "uint256"
        }
      ],
      "name": "viewFlightStatus",
      "outputs": [
        {
          "internalType": "uint8",
          "name": "",
          "type": "uint8"
        }
      ],
      "stateMutability": "view",
      "type": "function",
      "constant": true
    },
    {
      "inputs": [
        {
          "internalType": "string",
          "name": "_flight",
          "type": "string"
        },
        {
          "internalType": "uint16",
          "name": "_year",
          "type": "uint16"
        },
        {
          "internalType": "uint8",
          "name": "_month",
          "type": "uint8"
        },
        {
          "internalType": "uint8",
          "name": "_day",
          "type": "uint8"
        },
        {
          "internalType": "uint8",
          "name": "_hour",
          "type": "uint8"
        },
        {
          "internalType": "uint8",
          "name": "_minute",
          "type": "uint8"
        }
      ],
      "name": "withdrawCredit",
      "outputs": [],
      "stateMutability": "nonpayable",
      "type": "function"
    },
    {
      "inputs": [],
      "name": "registerOracle",
      "outputs": [],
      "stateMutability": "payable",
      "type": "function",
      "payable": true
    },
    {
      "inputs": [],
      "name": "getMyIndexes",
      "outputs": [
        {
          "internalType": "uint8[3]",
          "name": "",
          "type": "uint8[3]"
        }
      ],
      "stateMutability": "view",
      "type": "function",
      "constant": true
    },
    {
      "inputs": [
        {
          "internalType": "uint8",
          "name": "index",
          "type": "uint8"
        },
        {
          "internalType": "address",
          "name": "airline",
          "type": "address"
        },
        {
          "internalType": "string",
          "name": "flight",
          "type": "string"
        },
        {
          "internalType": "uint256",
          "name": "timestamp",
          "type": "uint256"
        },
        {
          "internalType": "uint8",
          "name": "statusCode",
          "type": "uint8"
        }
      ],
      "name": "submitOracleResponse",
      "outputs": [],
      "stateMutability": "nonpayable",
      "type": "function"
    },
    {
      "inputs": [
        {
          "internalType": "address",
          "name": "airline",
          "type": "address"
        },
        {
          "internalType": "string",
          "name": "flight",
          "type": "string"
        },
        {
          "internalType": "uint256",
          "name": "timestamp",
          "type": "uint256"
        }
      ],
      "name": "getFlightKey",
      "outputs": [
        {
          "internalType": "bytes32",
          "name": "",
          "type": "bytes32"
        }
      ],
      "stateMutability": "pure",
      "type": "function",
      "constant": true
    }
  ],
  "bytecode": "0x608060405260016000806101000a81548160ff021916908315150217905550600067ffffffffffffffff8111156200003c576200003b620005a2565b5b6040519080825280602002602001820160405280156200006b5781602001602082028036833780820191505090505b506001908051906020019062000083929190620004f4565b50600360025560016009556000600a556000600f60006101000a81548160ff021916908360ff160217905550348015620000bc57600080fd5b506040516200676f3803806200676f8339818101604052810190620000e291906200063b565b33600860006101000a81548173ffffffffffffffffffffffffffffffffffffffff021916908373ffffffffffffffffffffffffffffffffffffffff16021790555080600760006101000a81548173ffffffffffffffffffffffffffffffffffffffff021916908373ffffffffffffffffffffffffffffffffffffffff1602179055506000600760009054906101000a900473ffffffffffffffffffffffffffffffffffffffff1673ffffffffffffffffffffffffffffffffffffffff1663b59828036040518163ffffffff1660e01b8152600401602060405180830381865afa158015620001d4573d6000803e3d6000fd5b505050506040513d601f19601f82011682018060405250810190620001fa91906200063b565b90506200020d816200022660201b60201c565b6200021e816200029860201b60201c565b5050620007ae565b62000237816200030a60201b60201c565b156200027a576040517f08c379a00000000000000000000000000000000000000000000000000000000081526004016200027190620006f4565b60405180910390fd5b620002958160036200032e60201b62002ce31790919060201c565b50565b620002a981620003e460201b60201c565b15620002ec576040517f08c379a0000000000000000000000000000000000000000000000000000000008152600401620002e3906200078c565b60405180910390fd5b620003078160046200032e60201b62002ce31790919060201c565b50565b6000620003278260036200046160201b62002d8f1790919060201c565b9050919050565b600073ffffffffffffffffffffffffffffffffffffffff168173ffffffffffffffffffffffffffffffffffffffff1614156200036957600080fd5b6200037b82826200046160201b60201c565b156200038657600080fd5b60018260000160008373ffffffffffffffffffffffffffffffffffffffff1673ffffffffffffffffffffffffffffffffffffffff16815260200190815260200160002060006101000a81548160ff0219169083151502179055505050565b6000600860009054906101000a900473ffffffffffffffffffffffffffffffffffffffff1673ffffffffffffffffffffffffffffffffffffffff168273ffffffffffffffffffffffffffffffffffffffff1614806200045a5750620004598260046200046160201b62002d8f1790919060201c565b5b9050919050565b60008073ffffffffffffffffffffffffffffffffffffffff168273ffffffffffffffffffffffffffffffffffffffff1614156200049d57600080fd5b8260000160008373ffffffffffffffffffffffffffffffffffffffff1673ffffffffffffffffffffffffffffffffffffffff16815260200190815260200160002060009054906101000a900460ff16905092915050565b82805482825590600052602060002090810192821562000570579160200282015b828111156200056f5782518260006101000a81548173ffffffffffffffffffffffffffffffffffffffff021916908373ffffffffffffffffffffffffffffffffffffffff1602179055509160200191906001019062000515565b5b5090506200057f919062000583565b5090565b5b808211156200059e57600081600090555060010162000584565b5090565b7f4e487b7100000000000000000000000000000000000000000000000000000000600052604160045260246000fd5b600080fd5b600073ffffffffffffffffffffffffffffffffffffffff82169050919050565b60006200060382620005d6565b9050919050565b6200061581620005f6565b81146200062157600080fd5b50565b60008151905062000635816200060a565b92915050565b600060208284031215620006545762000653620005d1565b5b6000620006648482850162000624565b91505092915050565b600082825260208201905092915050565b7f4552524f523a204149524c494e4520495320414c52454144592052454749535460008201527f4552454400000000000000000000000000000000000000000000000000000000602082015250565b6000620006dc6024836200066d565b9150620006e9826200067e565b604082019050919050565b600060208201905081810360008301526200070f81620006cd565b9050919050565b7f4552524f523a204149524c494e4520495320414c5245414459204120434f4e5460008201527f524f4c4c45520000000000000000000000000000000000000000000000000000602082015250565b6000620007746026836200066d565b9150620007818262000716565b604082019050919050565b60006020820190508181036000830152620007a78162000765565b9050919050565b615fb180620007be6000396000f3fe6080604052600436106101cd5760003560e01c8063b429afeb116100f7578063d737d81411610095578063ec27e29f11610064578063ec27e29f146106a9578063edeb6c3a146106e6578063f0a354f114610729578063f83f11c014610766576101cd565b8063d737d814146105e4578063d96a094a1461060d578063dfc0dff014610629578063e188ac9814610666576101cd565b8063c10f2700116100d1578063c10f270014610516578063c3c5a5471461053f578063cd905dff1461057c578063d51b9e93146105a7576101cd565b8063b429afeb14610492578063b60d4288146104cf578063b8d4136d146104d9576101cd565b80635f1cc0e61161016f578063929066f51161013e578063929066f5146103d6578063a190c31514610413578063a96f5bdb1461043e578063a9d2f26914610467576101cd565b80635f1cc0e61461030057806361b029ed1461032b57806364b4f751146103685780638529b35d14610393576101cd565b806320c5375e116101ab57806320c5375e1461024d578063339d2590146102905780633ccd4aae1461029a5780635a436c06146102d7576101cd565b806303959bb7146101d25780630e2c4129146101fb578063110466ed14610224575b600080fd5b3480156101de57600080fd5b506101f960048036038101906101f491906139f1565b61078f565b005b34801561020757600080fd5b50610222600480360381019061021d9190613b64565b610863565b005b34801561023057600080fd5b5061024b60048036038101906102469190613bf8565b610a7b565b005b34801561025957600080fd5b50610274600480360381019061026f9190613c5b565b610d4a565b6040516102879796959493929190613d63565b60405180910390f35b610298610e5b565b005b3480156102a657600080fd5b506102c160048036038101906102bc9190613e05565b610f48565b6040516102ce9190613e41565b60405180910390f35b3480156102e357600080fd5b506102fe60048036038101906102f99190613b64565b610f60565b005b34801561030c57600080fd5b506103156114a5565b6040516103229190613f07565b60405180910390f35b34801561033757600080fd5b50610352600480360381019061034d9190613c5b565b6115e5565b60405161035f9190613f22565b60405180910390f35b34801561037457600080fd5b5061037d611659565b60405161038a9190613f3d565b60405180910390f35b34801561039f57600080fd5b506103ba60048036038101906103b59190613e05565b611665565b6040516103cd9796959493929190613f58565b60405180910390f35b3480156103e257600080fd5b506103fd60048036038101906103f891906139f1565b61188f565b60405161040a9190613f22565b60405180910390f35b34801561041f57600080fd5b506104286118ac565b604051610435919061416a565b60405180910390f35b34801561044a57600080fd5b50610465600480360381019061046091906141f2565b611a18565b005b34801561047357600080fd5b5061047c611ad1565b6040516104899190614359565b60405180910390f35b34801561049e57600080fd5b506104b960048036038101906104b491906139f1565b611bc0565b6040516104c69190613f22565b60405180910390f35b6104d7611c35565b005b3480156104e557600080fd5b5061050060048036038101906104fb9190613e05565b611da6565b60405161050d9190613f3d565b60405180910390f35b34801561052257600080fd5b5061053d600480360381019061053891906143db565b611ef5565b005b34801561054b57600080fd5b50610566600480360381019061056191906139f1565b6122cf565b6040516105739190613f22565b60405180910390f35b34801561058857600080fd5b506105916122ec565b60405161059e9190613f22565b60405180910390f35b3480156105b357600080fd5b506105ce60048036038101906105c991906139f1565b612384565b6040516105db9190613f22565b60405180910390f35b3480156105f057600080fd5b5061060b600480360381019061060691906141f2565b6123a1565b005b61062760048036038101906106229190613e05565b612622565b005b34801561063557600080fd5b50610650600480360381019061064b9190614475565b61283e565b60405161065d9190613e41565b60405180910390f35b34801561067257600080fd5b5061068d600480360381019061068891906139f1565b612874565b6040516106a097969594939291906144e4565b60405180910390f35b3480156106b557600080fd5b506106d060048036038101906106cb9190613e05565b612939565b6040516106dd919061455a565b60405180910390f35b3480156106f257600080fd5b5061070d60048036038101906107089190613e05565b6129ab565b6040516107209796959493929190614575565b60405180910390f35b34801561073557600080fd5b50610750600480360381019061074b91906145e4565b612ab2565b60405161075d9190613f3d565b60405180910390f35b34801561077257600080fd5b5061078d6004803603810190610788919061465f565b612b91565b005b600860009054906101000a900473ffffffffffffffffffffffffffffffffffffffff1673ffffffffffffffffffffffffffffffffffffffff163373ffffffffffffffffffffffffffffffffffffffff161461081f576040517f08c379a00000000000000000000000000000000000000000000000000000000081526004016108169061471f565b60405180910390fd5b80600760006101000a81548173ffffffffffffffffffffffffffffffffffffffff021916908373ffffffffffffffffffffffffffffffffffffffff16021790555050565b61086b6122ec565b6108aa576040517f08c379a00000000000000000000000000000000000000000000000000000000081526004016108a1906147b1565b60405180910390fd5b6108b3816122cf565b156108f3576040517f08c379a00000000000000000000000000000000000000000000000000000000081526004016108ea90614843565b60405180910390fd5b60046009541015610a6357600860009054906101000a900473ffffffffffffffffffffffffffffffffffffffff1673ffffffffffffffffffffffffffffffffffffffff163373ffffffffffffffffffffffffffffffffffffffff16148061095f575061095e33611bc0565b5b61099e576040517f08c379a0000000000000000000000000000000000000000000000000000000008152600401610995906148af565b60405180910390fd5b600960008154809291906109b1906148fe565b9190505550600760009054906101000a900473ffffffffffffffffffffffffffffffffffffffff1673ffffffffffffffffffffffffffffffffffffffff1663b85a9e61838360095460016040518563ffffffff1660e01b8152600401610a1a9493929190614947565b600060405180830381600087803b158015610a3457600080fd5b505af1158015610a48573d6000803e3d6000fd5b50505050610a5581612e21565b610a5e81612e81565b610a77565b610a6d8282612ee1565b610a76816130b4565b5b5050565b600860009054906101000a900473ffffffffffffffffffffffffffffffffffffffff1673ffffffffffffffffffffffffffffffffffffffff163373ffffffffffffffffffffffffffffffffffffffff161480610ae75750610ae6336004612d8f90919063ffffffff16565b5b610b26576040517f08c379a0000000000000000000000000000000000000000000000000000000008152600401610b1d906149df565b60405180910390fd5b60008054906101000a900460ff1615158115151415610b7a576040517f08c379a0000000000000000000000000000000000000000000000000000000008152600401610b7190614a71565b60405180910390fd5b6000805b600180549050811015610c19573373ffffffffffffffffffffffffffffffffffffffff1660018281548110610bb657610bb5614a91565b5b9060005260206000200160009054906101000a900473ffffffffffffffffffffffffffffffffffffffff1673ffffffffffffffffffffffffffffffffffffffff161415610c065760019150610c19565b8080610c11906148fe565b915050610b7e565b508015610c5b576040517f08c379a0000000000000000000000000000000000000000000000000000000008152600401610c5290614b32565b60405180910390fd5b6001339080600181540180825580915050600190039060005260206000200160009091909190916101000a81548173ffffffffffffffffffffffffffffffffffffffff021916908373ffffffffffffffffffffffffffffffffffffffff16021790555060025460018054905010610d4657816000806101000a81548160ff021916908315150217905550600067ffffffffffffffff811115610d0057610cff613a39565b5b604051908082528060200260200182016040528015610d2e5781602001602082028036833780820191505090505b5060019080519060200190610d44929190613796565b505b5050565b600b602052806000526040600020600091509050806000018054610d6d90614b81565b80601f0160208091040260200160405190810160405280929190818152602001828054610d9990614b81565b8015610de65780601f10610dbb57610100808354040283529160200191610de6565b820191906000526020600020905b815481529060010190602001808311610dc957829003601f168201915b5050505050908060010154908060020160009054906101000a900460ff16908060020160019054906101000a900460ff16908060020160029054906101000a900460ff16908060030154908060040160009054906101000a900473ffffffffffffffffffffffffffffffffffffffff16905087565b670de0b6b3a7640000341015610ea6576040517f08c379a0000000000000000000000000000000000000000000000000000000008152600401610e9d90614c25565b60405180910390fd5b6000610eb133613114565b9050604051806040016040528060011515815260200182815250601060003373ffffffffffffffffffffffffffffffffffffffff1673ffffffffffffffffffffffffffffffffffffffff16815260200190815260200160002060008201518160000160006101000a81548160ff021916908315150217905550602082015181600101906003610f41929190613820565b5090505050565b600c6020528060005260406000206000915090505481565b610f686122ec565b610fa7576040517f08c379a0000000000000000000000000000000000000000000000000000000008152600401610f9e906147b1565b60405180910390fd5b610fb0336122cf565b610fef576040517f08c379a0000000000000000000000000000000000000000000000000000000008152600401610fe690614c91565b60405180910390fd5b610ff8816122cf565b15611038576040517f08c379a000000000000000000000000000000000000000000000000000000000815260040161102f90614d23565b60405180910390fd5b61104181612384565b611080576040517f08c379a000000000000000000000000000000000000000000000000000000000815260040161107790614db5565b60405180910390fd5b60008060005b600e60003373ffffffffffffffffffffffffffffffffffffffff1673ffffffffffffffffffffffffffffffffffffffff168152602001908152602001600020805490508110156111d1578373ffffffffffffffffffffffffffffffffffffffff16600e60003373ffffffffffffffffffffffffffffffffffffffff1673ffffffffffffffffffffffffffffffffffffffff168152602001908152602001600020828154811061113857611137614a91565b5b9060005260206000200160009054906101000a900473ffffffffffffffffffffffffffffffffffffffff1673ffffffffffffffffffffffffffffffffffffffff1614156111be57600192506040517f08c379a00000000000000000000000000000000000000000000000000000000081526004016111b590614e47565b60405180910390fd5b80806111c9906148fe565b915050611086565b508161127857600e60003373ffffffffffffffffffffffffffffffffffffffff1673ffffffffffffffffffffffffffffffffffffffff168152602001908152602001600020839080600181540180825580915050600190039060005260206000200160009091909190916101000a81548173ffffffffffffffffffffffffffffffffffffffff021916908373ffffffffffffffffffffffffffffffffffffffff1602179055505b60005b600d8054905081101561149e578373ffffffffffffffffffffffffffffffffffffffff16600d82815481106112b3576112b2614a91565b5b906000526020600020906004020160000160009054906101000a900473ffffffffffffffffffffffffffffffffffffffff1673ffffffffffffffffffffffffffffffffffffffff16141561148b576001600d828154811061131757611316614a91565b5b906000526020600020906004020160020160008282546113379190614e67565b925050819055506009546064600d838154811061135757611356614a91565b5b9060005260206000209060040201600201546113739190614ebd565b61137d9190614f46565b915060328210611486576009600081548092919061139a906148fe565b9190505550600760009054906101000a900473ffffffffffffffffffffffffffffffffffffffff1673ffffffffffffffffffffffffffffffffffffffff1663b85a9e61868660095460006040518563ffffffff1660e01b81526004016114039493929190614947565b600060405180830381600087803b15801561141d57600080fd5b505af1158015611431573d6000803e3d6000fd5b5050505061143e84612e21565b611447846132fb565b6000600d828154811061145d5761145c614a91565b5b906000526020600020906004020160030160006101000a81548160ff0219169083151502179055505b61149e565b8080611496906148fe565b91505061127b565b5050505050565b6114ad6138ba565b601060003373ffffffffffffffffffffffffffffffffffffffff1673ffffffffffffffffffffffffffffffffffffffff16815260200190815260200160002060000160009054906101000a900460ff1661153c576040517f08c379a000000000000000000000000000000000000000000000000000000000815260040161153390614fc3565b60405180910390fd5b601060003373ffffffffffffffffffffffffffffffffffffffff1673ffffffffffffffffffffffffffffffffffffffff1681526020019081526020016000206001016003806020026040519081016040528092919082600380156115db576020028201916000905b82829054906101000a900460ff1660ff16815260200190600101906020826000010492830192600103820291508084116115a45790505b5050505050905090565b60006115ef6122ec565b61162e576040517f08c379a0000000000000000000000000000000000000000000000000000000008152600401611625906147b1565b60405180910390fd5b600b600083815260200190815260200160002060020160019054906101000a900460ff169050919050565b670de0b6b3a764000081565b6000606060008060008060006116796122ec565b6116b8576040517f08c379a00000000000000000000000000000000000000000000000000000000081526004016116af906147b1565b60405180910390fd5b6000600c60008a81526020019081526020016000205490506116d9816115e5565b611718576040517f08c379a000000000000000000000000000000000000000000000000000000000815260040161170f9061502f565b60405180910390fd5b80600b6000838152602001908152602001600020600001600b600084815260200190815260200160002060020160009054906101000a900460ff16600b600085815260200190815260200160002060020160019054906101000a900460ff16600b600086815260200190815260200160002060020160029054906101000a900460ff16600b600087815260200190815260200160002060030154600b600088815260200190815260200160002060040160009054906101000a900473ffffffffffffffffffffffffffffffffffffffff168580546117f590614b81565b80601f016020809104026020016040519081016040528092919081815260200182805461182190614b81565b801561186e5780601f106118435761010080835404028352916020019161186e565b820191906000526020600020905b81548152906001019060200180831161185157829003601f168201915b50505050509550975097509750975097509750975050919395979092949650565b60006118a5826005612d8f90919063ffffffff16565b9050919050565b6060600d805480602002602001604051908101604052809291908181526020016000905b82821015611a0f57838290600052602060002090600402016040518060800160405290816000820160009054906101000a900473ffffffffffffffffffffffffffffffffffffffff1673ffffffffffffffffffffffffffffffffffffffff1673ffffffffffffffffffffffffffffffffffffffff16815260200160018201805461195990614b81565b80601f016020809104026020016040519081016040528092919081815260200182805461198590614b81565b80156119d25780601f106119a7576101008083540402835291602001916119d2565b820191906000526020600020905b8154815290600101906020018083116119b557829003601f168201915b50505050508152602001600282015481526020016003820160009054906101000a900460ff161515151581525050815260200190600101906118d0565b50505050905090565b6000611a278686868686612ab2565b90506000611a3633898461283e565b9050600760009054906101000a900473ffffffffffffffffffffffffffffffffffffffff1673ffffffffffffffffffffffffffffffffffffffff166346f8f30433836040518363ffffffff1660e01b8152600401611a9592919061504f565b600060405180830381600087803b158015611aaf57600080fd5b505af1158015611ac3573d6000803e3d6000fd5b505050505050505050505050565b6060611adb6122ec565b611b1a576040517f08c379a0000000000000000000000000000000000000000000000000000000008152600401611b11906147b1565b60405180910390fd5b600760009054906101000a900473ffffffffffffffffffffffffffffffffffffffff1673ffffffffffffffffffffffffffffffffffffffff1663ff129763336040518263ffffffff1660e01b8152600401611b759190615078565b600060405180830381865afa158015611b92573d6000803e3d6000fd5b505050506040513d6000823e3d601f19601f82011682018060405250810190611bbb919061516b565b905090565b6000600860009054906101000a900473ffffffffffffffffffffffffffffffffffffffff1673ffffffffffffffffffffffffffffffffffffffff168273ffffffffffffffffffffffffffffffffffffffff161480611c2e5750611c2d826004612d8f90919063ffffffff16565b5b9050919050565b611c3d6122ec565b611c7c576040517f08c379a0000000000000000000000000000000000000000000000000000000008152600401611c73906147b1565b60405180910390fd5b611c85336122cf565b611cc4576040517f08c379a0000000000000000000000000000000000000000000000000000000008152600401611cbb90615200565b60405180910390fd5b611ccd3361188f565b15611d0d576040517f08c379a0000000000000000000000000000000000000000000000000000000008152600401611d0490615292565b60405180910390fd5b600760009054906101000a900473ffffffffffffffffffffffffffffffffffffffff1673ffffffffffffffffffffffffffffffffffffffff16632302440834336040518363ffffffff1660e01b8152600401611d699190615078565b6000604051808303818588803b158015611d8257600080fd5b505af1158015611d96573d6000803e3d6000fd5b5050505050611da43361335a565b565b6000611db06122ec565b611def576040517f08c379a0000000000000000000000000000000000000000000000000000000008152600401611de6906147b1565b60405180910390fd5b6000600c6000848152602001908152602001600020549050611e10816115e5565b611e4f576040517f08c379a0000000000000000000000000000000000000000000000000000000008152600401611e469061502f565b60405180910390fd5b600760009054906101000a900473ffffffffffffffffffffffffffffffffffffffff1673ffffffffffffffffffffffffffffffffffffffff166348c1747833836040518363ffffffff1660e01b8152600401611eac92919061504f565b602060405180830381865afa158015611ec9573d6000803e3d6000fd5b505050506040513d601f19601f82011682018060405250810190611eed91906152c7565b915050919050565b8560ff16601060003373ffffffffffffffffffffffffffffffffffffffff1673ffffffffffffffffffffffffffffffffffffffff168152602001908152602001600020600101600060038110611f4e57611f4d614a91565b5b602091828204019190069054906101000a900460ff1660ff161480611fe257508560ff16601060003373ffffffffffffffffffffffffffffffffffffffff1673ffffffffffffffffffffffffffffffffffffffff168152602001908152602001600020600101600160038110611fc757611fc6614a91565b5b602091828204019190069054906101000a900460ff1660ff16145b8061205c57508560ff16601060003373ffffffffffffffffffffffffffffffffffffffff1673ffffffffffffffffffffffffffffffffffffffff16815260200190815260200160002060010160026003811061204157612040614a91565b5b602091828204019190069054906101000a900460ff1660ff16145b61209b576040517f08c379a000000000000000000000000000000000000000000000000000000000815260040161209290615366565b60405180910390fd5b600086868686866040516020016120b6959493929190615455565b6040516020818303038152906040528051906020012090506011600082815260200190815260200160002060000160149054906101000a900460ff16612131576040517f08c379a000000000000000000000000000000000000000000000000000000000815260040161212890615513565b60405180910390fd5b6011600082815260200190815260200160002060010160008360ff1660ff168152602001908152602001600020339080600181540180825580915050600190039060005260206000200160009091909190916101000a81548173ffffffffffffffffffffffffffffffffffffffff021916908373ffffffffffffffffffffffffffffffffffffffff1602179055507f43c853095c2752648493c88b4baac4d580d2594ffb00c6f1d4242d844514f78386868686866040516121f6959493929190615560565b60405180910390a160036011600083815260200190815260200160002060010160008460ff1660ff16815260200190815260200160002080549050106122c6577fe23f5229de535c091e3b7bec2665f5d698192d3b31393066e8987b7a05076b6c868686868660405161226d959493929190615560565b60405180910390a16122c58686868080601f016020809104026020016040519081016040528093929190818152602001838380828437600081840152601f19601f8201169050808301925050505050505085856133ba565b5b50505050505050565b60006122e5826003612d8f90919063ffffffff16565b9050919050565b6000600760009054906101000a900473ffffffffffffffffffffffffffffffffffffffff1673ffffffffffffffffffffffffffffffffffffffff1663cd905dff6040518163ffffffff1660e01b8152600401602060405180830381865afa15801561235b573d6000803e3d6000fd5b505050506040513d601f19601f8201168201806040525081019061237f91906155c3565b905090565b600061239a826006612d8f90919063ffffffff16565b9050919050565b6123aa3361188f565b6123e9576040517f08c379a00000000000000000000000000000000000000000000000000000000081526004016123e090615662565b60405180910390fd5b60006123f88686868686612ab2565b90506202a300426124099190614e67565b811161244a576040517f08c379a0000000000000000000000000000000000000000000000000000000008152600401612441906156f4565b60405180910390fd5b600061245733898461283e565b9050612462816115e5565b156124a2576040517f08c379a000000000000000000000000000000000000000000000000000000000815260040161249990615760565b60405180910390fd5b600a60008154809291906124b5906148fe565b91905055506040518060e00160405280898152602001600a548152602001600115158152602001600115158152602001600060ff1681526020018381526020013373ffffffffffffffffffffffffffffffffffffffff16815250600b6000838152602001908152602001600020600082015181600001908051906020019061253e9291906138dc565b506020820151816001015560408201518160020160006101000a81548160ff02191690831515021790555060608201518160020160016101000a81548160ff02191690831515021790555060808201518160020160026101000a81548160ff021916908360ff16021790555060a0820151816003015560c08201518160040160006101000a81548173ffffffffffffffffffffffffffffffffffffffff021916908373ffffffffffffffffffffffffffffffffffffffff16021790555090505080600c6000600a548152602001908152602001600020819055505050505050505050565b61262a6122ec565b612669576040517f08c379a0000000000000000000000000000000000000000000000000000000008152600401612660906147b1565b60405180910390fd5b612672336122cf565b1580156126cd5750600860009054906101000a900473ffffffffffffffffffffffffffffffffffffffff1673ffffffffffffffffffffffffffffffffffffffff163373ffffffffffffffffffffffffffffffffffffffff1614155b61270c576040517f08c379a0000000000000000000000000000000000000000000000000000000008152600401612703906157f2565b60405180910390fd5b6000600c600083815260200190815260200160002054905061272d816115e5565b61276c576040517f08c379a00000000000000000000000000000000000000000000000000000000081526004016127639061585e565b60405180910390fd5b6000600b600083815260200190815260200160002060040160009054906101000a900473ffffffffffffffffffffffffffffffffffffffff169050600760009054906101000a900473ffffffffffffffffffffffffffffffffffffffff1673ffffffffffffffffffffffffffffffffffffffff1663b33d7ba5343385856040518563ffffffff1660e01b81526004016128079392919061587e565b6000604051808303818588803b15801561282057600080fd5b505af1158015612834573d6000803e3d6000fd5b5050505050505050565b6000838383604051602001612855939291906158e6565b6040516020818303038152906040528051906020012090509392505050565b6060600080600080600080600760009054906101000a900473ffffffffffffffffffffffffffffffffffffffff1673ffffffffffffffffffffffffffffffffffffffff1663e188ac98896040518263ffffffff1660e01b81526004016128da9190615078565b600060405180830381865afa1580156128f7573d6000803e3d6000fd5b505050506040513d6000823e3d601f19601f8201168201806040525081019061292091906159a4565b9650965096509650965096509650919395979092949650565b600080600c600084815260200190815260200160002054905061295b816115e5565b61299a576040517f08c379a00000000000000000000000000000000000000000000000000000000081526004016129919061502f565b60405180910390fd5b6129a3816134cb565b915050919050565b60008060008060008060006129be6122ec565b6129fd576040517f08c379a00000000000000000000000000000000000000000000000000000000081526004016129f4906147b1565b60405180910390fd5b600760009054906101000a900473ffffffffffffffffffffffffffffffffffffffff1673ffffffffffffffffffffffffffffffffffffffff1663edeb6c3a896040518263ffffffff1660e01b8152600401612a589190613f3d565b60e060405180830381865afa158015612a75573d6000803e3d6000fd5b505050506040513d601f19601f82011682018060405250810190612a999190615a62565b9650965096509650965096509650919395979092949650565b60008073__DateLib_______________________________635ececa4f6040518061010001604052808a61ffff1681526020018960ff1681526020018860ff1681526020018760ff1681526020018660ff168152602001600060ff168152602001600060ff168152602001600060ff168152506040518263ffffffff1660e01b8152600401612b419190615bc4565b602060405180830381865af4158015612b5e573d6000803e3d6000fd5b505050506040513d601f19601f82011682018060405250810190612b8291906152c7565b90508091505095945050505050565b612b996122ec565b612bd8576040517f08c379a0000000000000000000000000000000000000000000000000000000008152600401612bcf906147b1565b60405180910390fd5b6000612be33361353f565b905060008186868686604051602001612c00959493929190615455565b604051602081830303815290604052805190602001209050336011600083815260200190815260200160002060000160006101000a81548173ffffffffffffffffffffffffffffffffffffffff021916908373ffffffffffffffffffffffffffffffffffffffff16021790555060016011600083815260200190815260200160002060000160146101000a81548160ff0219169083151502179055507f3ed01f2c3fc24c6b329d931e35b03e390d23497d22b3f90e15b600343e93df118287878787604051612cd3959493929190615be0565b60405180910390a1505050505050565b600073ffffffffffffffffffffffffffffffffffffffff168173ffffffffffffffffffffffffffffffffffffffff161415612d1d57600080fd5b612d278282612d8f565b15612d3157600080fd5b60018260000160008373ffffffffffffffffffffffffffffffffffffffff1673ffffffffffffffffffffffffffffffffffffffff16815260200190815260200160002060006101000a81548160ff0219169083151502179055505050565b60008073ffffffffffffffffffffffffffffffffffffffff168273ffffffffffffffffffffffffffffffffffffffff161415612dca57600080fd5b8260000160008373ffffffffffffffffffffffffffffffffffffffff1673ffffffffffffffffffffffffffffffffffffffff16815260200190815260200160002060009054906101000a900460ff16905092915050565b612e2a816122cf565b15612e6a576040517f08c379a0000000000000000000000000000000000000000000000000000000008152600401612e6190614843565b60405180910390fd5b612e7e816003612ce390919063ffffffff16565b50565b612e8a81611bc0565b15612eca576040517f08c379a0000000000000000000000000000000000000000000000000000000008152600401612ec190615ca0565b60405180910390fd5b612ede816004612ce390919063ffffffff16565b50565b612ee96122ec565b612f28576040517f08c379a0000000000000000000000000000000000000000000000000000000008152600401612f1f906147b1565b60405180910390fd5b612f31816122cf565b15612f71576040517f08c379a0000000000000000000000000000000000000000000000000000000008152600401612f6890614843565b60405180910390fd5b612f7a81612384565b15612fba576040517f08c379a0000000000000000000000000000000000000000000000000000000008152600401612fb190615d32565b60405180910390fd5b600d60405180608001604052808373ffffffffffffffffffffffffffffffffffffffff1681526020018481526020016000815260200160011515815250908060018154018082558091505060019003906000526020600020906004020160009091909190915060008201518160000160006101000a81548173ffffffffffffffffffffffffffffffffffffffff021916908373ffffffffffffffffffffffffffffffffffffffff16021790555060208201518160010190805190602001906130839291906138dc565b506040820151816002015560608201518160030160006101000a81548160ff02191690831515021790555050505050565b6130bd81612384565b156130fd576040517f08c379a00000000000000000000000000000000000000000000000000000000081526004016130f490615d32565b60405180910390fd5b613111816006612ce390919063ffffffff16565b50565b61311c6138ba565b6131246138ba565b61312d8361353f565b8160006003811061314157613140614a91565b5b602002019060ff16908160ff16815250508060006003811061316657613165614a91565b5b60200201518160016003811061317f5761317e614a91565b5b602002019060ff16908160ff16815250505b806000600381106131a5576131a4614a91565b5b602002015160ff16816001600381106131c1576131c0614a91565b5b602002015160ff161415613202576131d88361353f565b816001600381106131ec576131eb614a91565b5b602002019060ff16908160ff1681525050613191565b8060016003811061321657613215614a91565b5b60200201518160026003811061322f5761322e614a91565b5b602002019060ff16908160ff16815250505b8060006003811061325557613254614a91565b5b602002015160ff168160026003811061327157613270614a91565b5b602002015160ff1614806132ba57508060016003811061329457613293614a91565b5b602002015160ff16816002600381106132b0576132af614a91565b5b602002015160ff16145b156132f2576132c88361353f565b816002600381106132dc576132db614a91565b5b602002019060ff16908160ff1681525050613241565b80915050919050565b61330481612384565b613343576040517f08c379a000000000000000000000000000000000000000000000000000000000815260040161333a90615dc4565b60405180910390fd5b61335781600661360b90919063ffffffff16565b50565b6133638161188f565b156133a3576040517f08c379a000000000000000000000000000000000000000000000000000000000815260040161339a90615e56565b60405180910390fd5b6133b7816005612ce390919063ffffffff16565b50565b60006133c785858561283e565b90506133d2816115e5565b613411576040517f08c379a00000000000000000000000000000000000000000000000000000000081526004016134089061502f565b60405180910390fd5b61341b81846136b6565b613425818361371c565b601460ff168260ff1614156134c457600760009054906101000a900473ffffffffffffffffffffffffffffffffffffffff1673ffffffffffffffffffffffffffffffffffffffff1663ffc758e182876040518363ffffffff1660e01b8152600401613491929190615e76565b600060405180830381600087803b1580156134ab57600080fd5b505af11580156134bf573d6000803e3d6000fd5b505050505b5050505050565b60006134d56122ec565b613514576040517f08c379a000000000000000000000000000000000000000000000000000000000815260040161350b906147b1565b60405180910390fd5b600b600083815260200190815260200160002060020160029054906101000a900460ff169050919050565b600080600a905060008160ff16600f600081819054906101000a900460ff168092919061356b90615e9f565b91906101000a81548160ff021916908360ff16021790555060ff16436135919190615ec9565b40856040516020016135a4929190615f1e565b6040516020818303038152906040528051906020012060001c6135c79190615f4a565b905060fa600f60009054906101000a900460ff1660ff161115613601576000600f60006101000a81548160ff021916908360ff1602179055505b8092505050919050565b600073ffffffffffffffffffffffffffffffffffffffff168173ffffffffffffffffffffffffffffffffffffffff16141561364557600080fd5b61364f8282612d8f565b61365857600080fd5b60008260000160008373ffffffffffffffffffffffffffffffffffffffff1673ffffffffffffffffffffffffffffffffffffffff16815260200190815260200160002060006101000a81548160ff0219169083151502179055505050565b6136be6122ec565b6136fd576040517f08c379a00000000000000000000000000000000000000000000000000000000081526004016136f4906147b1565b60405180910390fd5b80600b6000848152602001908152602001600020600301819055505050565b6137246122ec565b613763576040517f08c379a000000000000000000000000000000000000000000000000000000000815260040161375a906147b1565b60405180910390fd5b80600b600084815260200190815260200160002060020160026101000a81548160ff021916908360ff1602179055505050565b82805482825590600052602060002090810192821561380f579160200282015b8281111561380e5782518260006101000a81548173ffffffffffffffffffffffffffffffffffffffff021916908373ffffffffffffffffffffffffffffffffffffffff160217905550916020019190600101906137b6565b5b50905061381c9190613962565b5090565b826003601f016020900481019282156138a95791602002820160005b8382111561387a57835183826101000a81548160ff021916908360ff160217905550926020019260010160208160000104928301926001030261383c565b80156138a75782816101000a81549060ff021916905560010160208160000104928301926001030261387a565b505b5090506138b69190613962565b5090565b6040518060600160405280600390602082028036833780820191505090505090565b8280546138e890614b81565b90600052602060002090601f01602090048101928261390a5760008555613951565b82601f1061392357805160ff1916838001178555613951565b82800160010185558215613951579182015b82811115613950578251825591602001919060010190613935565b5b50905061395e9190613962565b5090565b5b8082111561397b576000816000905550600101613963565b5090565b6000604051905090565b600080fd5b600080fd5b600073ffffffffffffffffffffffffffffffffffffffff82169050919050565b60006139be82613993565b9050919050565b6139ce816139b3565b81146139d957600080fd5b50565b6000813590506139eb816139c5565b92915050565b600060208284031215613a0757613a06613989565b5b6000613a15848285016139dc565b91505092915050565b600080fd5b600080fd5b6000601f19601f8301169050919050565b7f4e487b7100000000000000000000000000000000000000000000000000000000600052604160045260246000fd5b613a7182613a28565b810181811067ffffffffffffffff82111715613a9057613a8f613a39565b5b80604052505050565b6000613aa361397f565b9050613aaf8282613a68565b919050565b600067ffffffffffffffff821115613acf57613ace613a39565b5b613ad882613a28565b9050602081019050919050565b82818337600083830152505050565b6000613b07613b0284613ab4565b613a99565b905082815260208101848484011115613b2357613b22613a23565b5b613b2e848285613ae5565b509392505050565b600082601f830112613b4b57613b4a613a1e565b5b8135613b5b848260208601613af4565b91505092915050565b60008060408385031215613b7b57613b7a613989565b5b600083013567ffffffffffffffff811115613b9957613b9861398e565b5b613ba585828601613b36565b9250506020613bb6858286016139dc565b9150509250929050565b60008115159050919050565b613bd581613bc0565b8114613be057600080fd5b50565b600081359050613bf281613bcc565b92915050565b600060208284031215613c0e57613c0d613989565b5b6000613c1c84828501613be3565b91505092915050565b6000819050919050565b613c3881613c25565b8114613c4357600080fd5b50565b600081359050613c5581613c2f565b92915050565b600060208284031215613c7157613c70613989565b5b6000613c7f84828501613c46565b91505092915050565b600081519050919050565b600082825260208201905092915050565b60005b83811015613cc2578082015181840152602081019050613ca7565b83811115613cd1576000848401525b50505050565b6000613ce282613c88565b613cec8185613c93565b9350613cfc818560208601613ca4565b613d0581613a28565b840191505092915050565b6000819050919050565b613d2381613d10565b82525050565b613d3281613bc0565b82525050565b600060ff82169050919050565b613d4e81613d38565b82525050565b613d5d816139b3565b82525050565b600060e0820190508181036000830152613d7d818a613cd7565b9050613d8c6020830189613d1a565b613d996040830188613d29565b613da66060830187613d29565b613db36080830186613d45565b613dc060a0830185613d1a565b613dcd60c0830184613d54565b98975050505050505050565b613de281613d10565b8114613ded57600080fd5b50565b600081359050613dff81613dd9565b92915050565b600060208284031215613e1b57613e1a613989565b5b6000613e2984828501613df0565b91505092915050565b613e3b81613c25565b82525050565b6000602082019050613e566000830184613e32565b92915050565b600060039050919050565b600081905092915050565b6000819050919050565b613e8581613d38565b82525050565b6000613e978383613e7c565b60208301905092915050565b6000602082019050919050565b613eb981613e5c565b613ec38184613e67565b9250613ece82613e72565b8060005b83811015613eff578151613ee68782613e8b565b9650613ef183613ea3565b925050600181019050613ed2565b505050505050565b6000606082019050613f1c6000830184613eb0565b92915050565b6000602082019050613f376000830184613d29565b92915050565b6000602082019050613f526000830184613d1a565b92915050565b600060e082019050613f6d600083018a613e32565b8181036020830152613f7f8189613cd7565b9050613f8e6040830188613d29565b613f9b6060830187613d29565b613fa86080830186613d45565b613fb560a0830185613d1a565b613fc260c0830184613d54565b98975050505050505050565b600081519050919050565b600082825260208201905092915050565b6000819050602082019050919050565b614003816139b3565b82525050565b600082825260208201905092915050565b600061402582613c88565b61402f8185614009565b935061403f818560208601613ca4565b61404881613a28565b840191505092915050565b61405c81613d10565b82525050565b61406b81613bc0565b82525050565b60006080830160008301516140896000860182613ffa565b50602083015184820360208601526140a1828261401a565b91505060408301516140b66040860182614053565b5060608301516140c96060860182614062565b508091505092915050565b60006140e08383614071565b905092915050565b6000602082019050919050565b600061410082613fce565b61410a8185613fd9565b93508360208202850161411c85613fea565b8060005b85811015614158578484038952815161413985826140d4565b9450614144836140e8565b925060208a01995050600181019050614120565b50829750879550505050505092915050565b6000602082019050818103600083015261418481846140f5565b905092915050565b600061ffff82169050919050565b6141a38161418c565b81146141ae57600080fd5b50565b6000813590506141c08161419a565b92915050565b6141cf81613d38565b81146141da57600080fd5b50565b6000813590506141ec816141c6565b92915050565b60008060008060008060c0878903121561420f5761420e613989565b5b600087013567ffffffffffffffff81111561422d5761422c61398e565b5b61423989828a01613b36565b965050602061424a89828a016141b1565b955050604061425b89828a016141dd565b945050606061426c89828a016141dd565b935050608061427d89828a016141dd565b92505060a061428e89828a016141dd565b9150509295509295509295565b600081519050919050565b600082825260208201905092915050565b6000819050602082019050919050565b6142d081613c25565b82525050565b60006142e283836142c7565b60208301905092915050565b6000602082019050919050565b60006143068261429b565b61431081856142a6565b935061431b836142b7565b8060005b8381101561434c57815161433388826142d6565b975061433e836142ee565b92505060018101905061431f565b5085935050505092915050565b6000602082019050818103600083015261437381846142fb565b905092915050565b600080fd5b600080fd5b60008083601f84011261439b5761439a613a1e565b5b8235905067ffffffffffffffff8111156143b8576143b761437b565b5b6020830191508360018202830111156143d4576143d3614380565b5b9250929050565b60008060008060008060a087890312156143f8576143f7613989565b5b600061440689828a016141dd565b965050602061441789828a016139dc565b955050604087013567ffffffffffffffff8111156144385761443761398e565b5b61444489828a01614385565b9450945050606061445789828a01613df0565b925050608061446889828a016141dd565b9150509295509295509295565b60008060006060848603121561448e5761448d613989565b5b600061449c868287016139dc565b935050602084013567ffffffffffffffff8111156144bd576144bc61398e565b5b6144c986828701613b36565b92505060406144da86828701613df0565b9150509250925092565b600060e08201905081810360008301526144fe818a613cd7565b905061450d6020830189613d54565b61451a6040830188613d29565b6145276060830187613d29565b6145346080830186613d29565b61454160a0830185613d1a565b61454e60c0830184613d1a565b98975050505050505050565b600060208201905061456f6000830184613d45565b92915050565b600060e08201905061458a600083018a613e32565b6145976020830189613e32565b6145a46040830188613d54565b6145b16060830187613d1a565b6145be6080830186613d1a565b6145cb60a0830185613d29565b6145d860c0830184613d29565b98975050505050505050565b600080600080600060a08688031215614600576145ff613989565b5b600061460e888289016141b1565b955050602061461f888289016141dd565b9450506040614630888289016141dd565b9350506060614641888289016141dd565b9250506080614652888289016141dd565b9150509295509295909350565b6000806000806060858703121561467957614678613989565b5b6000614687878288016139dc565b945050602085013567ffffffffffffffff8111156146a8576146a761398e565b5b6146b487828801614385565b935093505060406146c787828801613df0565b91505092959194509250565b7f43414c4c4552204953204e4f5420434f4e5452414354204f574e455200000000600082015250565b6000614709601c83613c93565b9150614714826146d3565b602082019050919050565b60006020820190508181036000830152614738816146fc565b9050919050565b7f434f4e54524143542049532043555252454e544c59204e4f54204f504552415460008201527f494f4e414c000000000000000000000000000000000000000000000000000000602082015250565b600061479b602583613c93565b91506147a68261473f565b604082019050919050565b600060208201905081810360008301526147ca8161478e565b9050919050565b7f4552524f523a204149524c494e4520495320414c52454144592052454749535460008201527f4552454400000000000000000000000000000000000000000000000000000000602082015250565b600061482d602483613c93565b9150614838826147d1565b604082019050919050565b6000602082019050818103600083015261485c81614820565b9050919050565b7f4552524f523a2043414c4c4552204953204e4f5420434f4e54524f4c4c455200600082015250565b6000614899601f83613c93565b91506148a482614863565b602082019050919050565b600060208201905081810360008301526148c88161488c565b9050919050565b7f4e487b7100000000000000000000000000000000000000000000000000000000600052601160045260246000fd5b600061490982613d10565b91507fffffffffffffffffffffffffffffffffffffffffffffffffffffffffffffffff82141561493c5761493b6148cf565b5b600182019050919050565b600060808201905081810360008301526149618187613cd7565b90506149706020830186613d54565b61497d6040830185613d1a565b61498a6060830184613d29565b95945050505050565b7f43414c4c4552204953204e4f54204120434f4e54524f4c4c4552000000000000600082015250565b60006149c9601a83613c93565b91506149d482614993565b602082019050919050565b600060208201905081810360008301526149f8816149bc565b9050919050565b7f4e4557204d4f4445204d555354204245204449464552454e542046524f4d205460008201527f4845204558495349544e47000000000000000000000000000000000000000000602082015250565b6000614a5b602b83613c93565b9150614a66826149ff565b604082019050919050565b60006020820190508181036000830152614a8a81614a4e565b9050919050565b7f4e487b7100000000000000000000000000000000000000000000000000000000600052603260045260246000fd5b7f4552524f523a2043414c4c45522048415320414c52454144592043414c4c454460008201527f20544849532046554e4354494f4e000000000000000000000000000000000000602082015250565b6000614b1c602e83613c93565b9150614b2782614ac0565b604082019050919050565b60006020820190508181036000830152614b4b81614b0f565b9050919050565b7f4e487b7100000000000000000000000000000000000000000000000000000000600052602260045260246000fd5b60006002820490506001821680614b9957607f821691505b60208210811415614bad57614bac614b52565b5b50919050565b7f4552524f523a20524547495354524154494f4e2046454520495320524551554960008201527f5245440000000000000000000000000000000000000000000000000000000000602082015250565b6000614c0f602383613c93565b9150614c1a82614bb3565b604082019050919050565b60006020820190508181036000830152614c3e81614c02565b9050919050565b7f4552524f523a20564f544552204953204e4f5420524547495354455245440000600082015250565b6000614c7b601e83613c93565b9150614c8682614c45565b602082019050919050565b60006020820190508181036000830152614caa81614c6e565b9050919050565b7f4552524f523a204149524c494e4520564f54454420495320414c52454144592060008201527f5245474953544552454400000000000000000000000000000000000000000000602082015250565b6000614d0d602a83613c93565b9150614d1882614cb1565b604082019050919050565b60006020820190508181036000830152614d3c81614d00565b9050919050565b7f4552524f523a204149524c494e4520564f544544204953204e4f54204120434160008201527f4e44494441544500000000000000000000000000000000000000000000000000602082015250565b6000614d9f602783613c93565b9150614daa82614d43565b604082019050919050565b60006020820190508181036000830152614dce81614d92565b9050919050565b7f4552524f523a2043414c4c455220414c524541445920564f54454420464f522060008201527f54484953204149524c494e450000000000000000000000000000000000000000602082015250565b6000614e31602c83613c93565b9150614e3c82614dd5565b604082019050919050565b60006020820190508181036000830152614e6081614e24565b9050919050565b6000614e7282613d10565b9150614e7d83613d10565b9250827fffffffffffffffffffffffffffffffffffffffffffffffffffffffffffffffff03821115614eb257614eb16148cf565b5b828201905092915050565b6000614ec882613d10565b9150614ed383613d10565b9250817fffffffffffffffffffffffffffffffffffffffffffffffffffffffffffffffff0483118215151615614f0c57614f0b6148cf565b5b828202905092915050565b7f4e487b7100000000000000000000000000000000000000000000000000000000600052601260045260246000fd5b6000614f5182613d10565b9150614f5c83613d10565b925082614f6c57614f6b614f17565b5b828204905092915050565b7f4552524f523a204f5241434c45204e4f54205245474953544552454400000000600082015250565b6000614fad601c83613c93565b9150614fb882614f77565b602082019050919050565b60006020820190508181036000830152614fdc81614fa0565b9050919050565b7f4552524f523a20464c49474854204953204e4f54205245474953544552454400600082015250565b6000615019601f83613c93565b915061502482614fe3565b602082019050919050565b600060208201905081810360008301526150488161500c565b9050919050565b60006040820190506150646000830185613d54565b6150716020830184613e32565b9392505050565b600060208201905061508d6000830184613d54565b92915050565b600067ffffffffffffffff8211156150ae576150ad613a39565b5b602082029050602081019050919050565b6000815190506150ce81613c2f565b92915050565b60006150e76150e284615093565b613a99565b9050808382526020820190506020840283018581111561510a57615109614380565b5b835b81811015615133578061511f88826150bf565b84526020840193505060208101905061510c565b5050509392505050565b600082601f83011261515257615151613a1e565b5b81516151628482602086016150d4565b91505092915050565b60006020828403121561518157615180613989565b5b600082015167ffffffffffffffff81111561519f5761519e61398e565b5b6151ab8482850161513d565b91505092915050565b7f4552524f523a2043414c4c4552204953204e4f54205245474953544552454400600082015250565b60006151ea601f83613c93565b91506151f5826151b4565b602082019050919050565b60006020820190508181036000830152615219816151dd565b9050919050565b7f4552524f523a2043414c4c455220495320414c5245414459204120504152544960008201527f434950414e540000000000000000000000000000000000000000000000000000602082015250565b600061527c602683613c93565b915061528782615220565b604082019050919050565b600060208201905081810360008301526152ab8161526f565b9050919050565b6000815190506152c181613dd9565b92915050565b6000602082840312156152dd576152dc613989565b5b60006152eb848285016152b2565b91505092915050565b7f4552524f523a20494e444558204e4f54204d41544348494e47204f5241434c4560008201527f2052455155455354000000000000000000000000000000000000000000000000602082015250565b6000615350602883613c93565b915061535b826152f4565b604082019050919050565b6000602082019050818103600083015261537f81615343565b9050919050565b60008160f81b9050919050565b600061539e82615386565b9050919050565b6153b66153b182613d38565b615393565b82525050565b60008160601b9050919050565b60006153d4826153bc565b9050919050565b60006153e6826153c9565b9050919050565b6153fe6153f9826139b3565b6153db565b82525050565b600081905092915050565b600061541b8385615404565b9350615428838584613ae5565b82840190509392505050565b6000819050919050565b61544f61544a82613d10565b615434565b82525050565b600061546182886153a5565b60018201915061547182876153ed565b60148201915061548282858761540f565b915061548e828461543e565b6020820191508190509695505050505050565b7f4552524f523a20464c494748542f54494d455354414d50204e4f54204d41544360008201527f48494e47204f5241434c45205245515545535400000000000000000000000000602082015250565b60006154fd603383613c93565b9150615508826154a1565b604082019050919050565b6000602082019050818103600083015261552c816154f0565b9050919050565b600061553f8385613c93565b935061554c838584613ae5565b61555583613a28565b840190509392505050565b60006080820190506155756000830188613d54565b8181036020830152615588818688615533565b90506155976040830185613d1a565b6155a46060830184613d45565b9695505050505050565b6000815190506155bd81613bcc565b92915050565b6000602082840312156155d9576155d8613989565b5b60006155e7848285016155ae565b91505092915050565b7f4552524f523a2043414c4c4552204953204e4f5420412050415254494349504160008201527f4e54000000000000000000000000000000000000000000000000000000000000602082015250565b600061564c602283613c93565b9150615657826155f0565b604082019050919050565b6000602082019050818103600083015261567b8161563f565b9050919050565b7f4552524f523a20464c494748542054494d45204d555354204245204154204c4560008201527f41535420343820484f555253205448414e204e4f570000000000000000000000602082015250565b60006156de603583613c93565b91506156e982615682565b604082019050919050565b6000602082019050818103600083015261570d816156d1565b9050919050565b7f4552524f523a20464c4947485420414c52454144592052454749535445524544600082015250565b600061574a602083613c93565b915061575582615714565b602082019050919050565b600060208201905081810360008301526157798161573d565b9050919050565b7f4552524f523a2043414c4c4552204953204e4f5420414c4c4f57454420544f2060008201527f42555920494e535552414e434500000000000000000000000000000000000000602082015250565b60006157dc602d83613c93565b91506157e782615780565b604082019050919050565b6000602082019050818103600083015261580b816157cf565b9050919050565b7f4552524f523a20464c49474854204e4f5420464f554e44000000000000000000600082015250565b6000615848601783613c93565b915061585382615812565b602082019050919050565b600060208201905081810360008301526158778161583b565b9050919050565b60006060820190506158936000830186613d54565b6158a06020830185613e32565b6158ad6040830184613d54565b949350505050565b60006158c082613c88565b6158ca8185615404565b93506158da818560208601613ca4565b80840191505092915050565b60006158f282866153ed565b60148201915061590282856158b5565b915061590e828461543e565b602082019150819050949350505050565b600061593261592d84613ab4565b613a99565b90508281526020810184848401111561594e5761594d613a23565b5b615959848285613ca4565b509392505050565b600082601f83011261597657615975613a1e565b5b815161598684826020860161591f565b91505092915050565b60008151905061599e816139c5565b92915050565b600080600080600080600060e0888a0312156159c3576159c2613989565b5b600088015167ffffffffffffffff8111156159e1576159e061398e565b5b6159ed8a828b01615961565b97505060206159fe8a828b0161598f565b9650506040615a0f8a828b016155ae565b9550506060615a208a828b016155ae565b9450506080615a318a828b016155ae565b93505060a0615a428a828b016152b2565b92505060c0615a538a828b016152b2565b91505092959891949750929550565b600080600080600080600060e0888a031215615a8157615a80613989565b5b6000615a8f8a828b016150bf565b9750506020615aa08a828b016150bf565b9650506040615ab18a828b0161598f565b9550506060615ac28a828b016152b2565b9450506080615ad38a828b016152b2565b93505060a0615ae48a828b016155ae565b92505060c0615af58a828b016155ae565b91505092959891949750929550565b615b0d8161418c565b82525050565b615b1c81613d38565b82525050565b61010082016000820151615b396000850182615b04565b506020820151615b4c6020850182615b13565b506040820151615b5f6040850182615b13565b506060820151615b726060850182615b13565b506080820151615b856080850182615b13565b5060a0820151615b9860a0850182615b13565b5060c0820151615bab60c0850182615b13565b5060e0820151615bbe60e0850182615b13565b50505050565b600061010082019050615bda6000830184615b22565b92915050565b6000608082019050615bf56000830188613d45565b615c026020830187613d54565b8181036040830152615c15818587615533565b9050615c246060830184613d1a565b9695505050505050565b7f4552524f523a204149524c494e4520495320414c5245414459204120434f4e5460008201527f524f4c4c45520000000000000000000000000000000000000000000000000000602082015250565b6000615c8a602683613c93565b9150615c9582615c2e565b604082019050919050565b60006020820190508181036000830152615cb981615c7d565b9050919050565b7f4552524f523a204149524c494e4520495320414c524541445920412043414e4460008201527f4944415445000000000000000000000000000000000000000000000000000000602082015250565b6000615d1c602583613c93565b9150615d2782615cc0565b604082019050919050565b60006020820190508181036000830152615d4b81615d0f565b9050919050565b7f4552524f523a204149524c494e45204953204e4f5420412043414e444944415460008201527f4500000000000000000000000000000000000000000000000000000000000000602082015250565b6000615dae602183613c93565b9150615db982615d52565b604082019050919050565b60006020820190508181036000830152615ddd81615da1565b9050919050565b7f4552524f523a204149524c494e4520495320414c52454144592041205041525460008201527f49434950414e5400000000000000000000000000000000000000000000000000602082015250565b6000615e40602783613c93565b9150615e4b82615de4565b604082019050919050565b60006020820190508181036000830152615e6f81615e33565b9050919050565b6000604082019050615e8b6000830185613e32565b615e986020830184613d54565b9392505050565b6000615eaa82613d38565b915060ff821415615ebe57615ebd6148cf565b5b600182019050919050565b6000615ed482613d10565b9150615edf83613d10565b925082821015615ef257615ef16148cf565b5b828203905092915050565b6000819050919050565b615f18615f1382613c25565b615efd565b82525050565b6000615f2a8285615f07565b602082019150615f3a82846153ed565b6014820191508190509392505050565b6000615f5582613d10565b9150615f6083613d10565b925082615f7057615f6f614f17565b5b82820690509291505056fea2646970667358221220aa25b8c31156a9124ae267bf34898d700fe6b176385518ec43faf7b1231adc3a64736f6c634300080b0033",
  "immutableReferences": {},
  "source": "// SPDX-License-Identifier: MIT\npragma solidity ^0.8.0;\n\nimport \"./DateLib.sol\";\nimport \"./RoleLib.sol\";\n\nimport \"@openzeppelin/contracts/utils/math/SafeMath.sol\";\n// import \"../node_modules/openzeppelin-solidity/contracts/math/SafeMath.sol\";\n\ncontract FlightSuretyApp {\n    using SafeMath for uint256;\n\n    bool private operational = true;            // BLOCKS ALL STATE CHANGES THROUGHOUT THE CONTRACT IF FALSE\n    address[] multiCalls = new address[](0);\n    uint M = 3;\n\n\n    /********************************************************************************************/\n    /*                                          DATELIB                                         */\n    /********************************************************************************************/\n    using DateLib for DateLib.DateTime;         //LIBRARY USED TO CONVERT HUMAN DATE TIME TO EPOCH TIMESTAMP\n\n    function getDateTime(uint16 _year, uint8 _month, uint8 _day, uint8 _hour, uint8 _minute) public pure returns(uint) {\n        uint unixDate = DateLib.toUnixTimestamp(DateLib.DateTime({\n            year: _year,\n            month: _month,\n            day: _day,\n            hour: _hour,\n            minute: _minute,\n            second: 0,\n            ms: 0,\n            weekday: 0\n        }));\n        \n        return unixDate;\n    }\n    \n    /********************************************************************************************/\n    /*                                         ROLELIB                                          */\n    /********************************************************************************************/\n    using RoleLib for RoleLib.Role;             //LIBRARY USED TO CLASSIFY AIRLINES INTO DIFFERENT ROLES\n\n    RoleLib.Role private registers;\n    RoleLib.Role private controllers;\n    RoleLib.Role private participants;\n    RoleLib.Role private candidates;            \n\n    function register(address _address) internal {\n        require(!isRegistered(_address), \"ERROR: AIRLINE IS ALREADY REGISTERED\");\n        registers.add(_address);\n    }\n\n    function addController(address _address) internal {\n        require(!isController(_address), \"ERROR: AIRLINE IS ALREADY A CONTROLLER\");\n        controllers.add(_address);\n    }\n\n    function addParticipant(address _address) internal {\n        require(!isParticipant(_address), \"ERROR: AIRLINE IS ALREADY A PARTICIPANT\");\n        participants.add(_address);\n    }\n    \n    function addCandidate(address _address) internal {\n        require(!isCandidate(_address), \"ERROR: AIRLINE IS ALREADY A CANDIDATE\");\n        candidates.add(_address);\n    }\n\n    function removeCandidate(address _address) internal {\n        require(isCandidate(_address), \"ERROR: AIRLINE IS NOT A CANDIDATE\");\n        candidates.remove(_address);\n    }\n\n\n    /********************************************************************************************/\n    /*                                       DATA VARIABLES                                     */\n    /********************************************************************************************/\n    FlightSuretyData flightSuretyData;\n    // Flight status codees\n    uint8 private constant STATUS_CODE_UNKNOWN = 0;\n    uint8 private constant STATUS_CODE_ON_TIME = 10;\n    uint8 private constant STATUS_CODE_LATE_AIRLINE = 20;\n    uint8 private constant STATUS_CODE_LATE_WEATHER = 30;\n    uint8 private constant STATUS_CODE_LATE_TECHNICAL = 40;\n    uint8 private constant STATUS_CODE_LATE_OTHER = 50;\n\n    address private contractOwner;          // Account used to deploy contract\n\n    uint aCounter = 1;\n    uint fCounter = 0;    \n\n    struct Flight{\n        string          flight;\n        uint            flightId;\n        bool            active;\n        bool            isRegistered;\n        uint8           statusCode;\n        uint256         updatedTimestamp;\n        address         airlineAddress;\n    }\n    mapping(bytes32 => Flight) public flights;\n    mapping(uint => bytes32) public flightsReverse;\n\n\n    /********************************************************************************************/\n    /*                             CANDIDATE AIRLINE VARIABLES                                  */\n    /********************************************************************************************/\n    struct Proposal {\n        address         proposedAddress;\n        string          proposedName;\n        uint            voteCount;\n        bool            active;\n    }\n    Proposal[] private proposals;\n    mapping(address => address[]) voters;\n\n\n    /********************************************************************************************/\n    /*                                       FUNCTION MODIFIERS                                 */\n    /********************************************************************************************/\n    modifier requireIsOperational() {\n        require(isOperational(), \"CONTRACT IS CURRENTLY NOT OPERATIONAL\");\n        _;\n    }\n    \n    modifier requireContractOwner() {\n        require(msg.sender == contractOwner, \"CALLER IS NOT CONTRACT OWNER\");\n        _;\n    }\n\n    modifier requireController() {\n        require(msg.sender == contractOwner || controllers.has(msg.sender), \"CALLER IS NOT A CONTROLLER\");\n        _;\n    }\n\n\n    /********************************************************************************************/\n    /*                                       CONSTRUCTOR                                        */\n    /********************************************************************************************/\n    constructor(address dataContract) {\n        contractOwner = msg.sender;\n        flightSuretyData = FlightSuretyData(dataContract);\n        address _firstAirlineAddress = flightSuretyData.getFirstAirlineAddress();\n        register(_firstAirlineAddress);\n        addController(_firstAirlineAddress);\n    }\n\n\n    /********************************************************************************************/\n    /*                                  OPERATIONAL STATUS CONTROL                              */\n    /********************************************************************************************/\n    function setOperatingStatus(bool mode) external requireController() {\n        require(mode != operational, \"NEW MODE MUST BE DIFERENT FROM THE EXISITNG\");\n\n        bool isDuplicate = false;\n        for(uint c = 0; c < multiCalls.length; c++) {\n            if (multiCalls[c] == msg.sender) {\n                isDuplicate = true;\n                break;\n            }\n        }\n        \n        require(!isDuplicate, \"ERROR: CALLER HAS ALREADY CALLED THIS FUNCTION\");\n\n        multiCalls.push(msg.sender);\n        if (multiCalls.length >= M) {\n            operational = mode;\n            multiCalls = new address[](0);\n        }\n    }\n\n\n    /********************************************************************************************/\n    /*                                       UTILITY FUNCTIONS                                  */\n    /********************************************************************************************/\n    function isOperational() public view returns(bool) {\n        return flightSuretyData.isOperational();\n    }\n\n    function setDataContract(address dataContract) external requireContractOwner {\n        flightSuretyData = FlightSuretyData(dataContract);\n    }\n\n    function isController(address _address) public view returns(bool) {\n        //return controllers.has(_address);\n        return (_address == contractOwner || controllers.has(_address));\n    }\n\n    function isRegistered(address _address) public view returns(bool) {\n        return registers.has(_address);\n    }\n\n    function isParticipant(address _address) public view returns(bool) {\n        return participants.has(_address); \n    }\n\n    function isCandidate(address _address) public view returns(bool) {\n        return candidates.has(_address);\n    }\n\n\n    /********************************************************************************************/\n    /*                                        AIRLINE FUNCTIONS                                 */\n    /********************************************************************************************/\n    function registerAirline(string memory _name, address _address) public requireIsOperational() {\n        require(!isRegistered(_address), \"ERROR: AIRLINE IS ALREADY REGISTERED\");\n        \n        if(aCounter < 4) {\n            require(msg.sender == contractOwner || isController(msg.sender), \"ERROR: CALLER IS NOT CONTROLLER\");\n            \n            aCounter ++;\n            flightSuretyData.registerAirline(_name, _address, aCounter, true);\n            \n            register(_address);\n            addController(_address);\n        \n        } else {\n            candidateAirline(_name, _address);\n\n            addCandidate(_address);\n        }\n    }\n\n    function checkAirlines(address _address) public view \n    returns(string memory name_, address address_, bool registered_, bool participant_, bool controller_, uint fundavailable_, uint fundcommitted_) {   \n        return flightSuretyData.checkAirlines(_address);\n    }\n\n    function candidateAirline(string memory _name, address _address) internal requireIsOperational() {\n        require(!isRegistered(_address), \"ERROR: AIRLINE IS ALREADY REGISTERED\");\n        require(!isCandidate(_address), \"ERROR: AIRLINE IS ALREADY A CANDIDATE\");\n        \n        proposals.push(Proposal({\n            proposedAddress: _address,\n            proposedName: _name,\n            voteCount: 0,\n            active: true\n            })\n        );\n    }\n\n    function checkCandidateAirlines() public view returns(Proposal[] memory ) {\n        return proposals;\n    }\n\n    function vote(string memory _name, address _address) public requireIsOperational() {\n        require(isRegistered(msg.sender), \"ERROR: VOTER IS NOT REGISTERED\");\n        require(!isRegistered(_address), \"ERROR: AIRLINE VOTED IS ALREADY REGISTERED\");\n        require(isCandidate(_address), \"ERROR: AIRLINE VOTED IS NOT A CANDIDATE\");\n        \n        bool found = false;\n        uint result = 0;\n        for (uint v = 0; v < voters[msg.sender].length; v++) {\n            if(voters[msg.sender][v] == _address){\n                found = true;\n                revert(\"ERROR: CALLER ALREADY VOTED FOR THIS AIRLINE\");\n            }\n        }\n        if(!found){\n            voters[msg.sender].push(_address);\n        }\n        for (uint p = 0; p < proposals.length; p++) {\n            if (proposals[p].proposedAddress == _address) {\n                proposals[p].voteCount += 1;\n                result = (proposals[p].voteCount * 100) / aCounter;\n                if(result >= 50){\n                    aCounter ++;\n                    flightSuretyData.registerAirline(_name, _address, aCounter, false);\n\n                    register(_address);\n                    removeCandidate(_address);\n                    proposals[p].active = false;\n                }\n                break;\n            }\n        }\n    }\n\n\n    /********************************************************************************************/\n    /*                                       FUNDING FUNCTIONS                                  */\n    /********************************************************************************************/\n    function fund() public payable requireIsOperational() {\n        require(isRegistered(msg.sender), \"ERROR: CALLER IS NOT REGISTERED\");\n        require(!isParticipant(msg.sender), \"ERROR: CALLER IS ALREADY A PARTICIPANT\");\n\n        flightSuretyData.fund{value: msg.value}(msg.sender);\n\n        addParticipant(msg.sender);\n    }\n\n\n    /********************************************************************************************/\n    /*                                        FLIGHT FUNCTIONS                                  */\n    /********************************************************************************************/\n    function registerFlight(string memory _flight, uint16 _year, uint8 _month, uint8 _day, uint8 _hour, uint8 _minute) public {\n        require(isParticipant(msg.sender), \"ERROR: CALLER IS NOT A PARTICIPANT\");\n        \n        uint _timestamp = getDateTime(_year, _month, _day, _hour, _minute);\n        require(_timestamp > block.timestamp + 172800, \"ERROR: FLIGHT TIME MUST BE AT LEAST 48 HOURS THAN NOW\");\n         \n        bytes32 _flightKey = getFlightKey(msg.sender, _flight, _timestamp);\n        require(!checkFlight(_flightKey), \"ERROR: FLIGHT ALREADY REGISTERED\");\n        \n        fCounter++;\n        flights[_flightKey] = Flight({\n            flight: _flight,\n            flightId: fCounter,\n            active: true,\n            isRegistered: true,\n            statusCode: 0,\n            updatedTimestamp: _timestamp,\n            airlineAddress: msg.sender\n        });\n\n        flightsReverse[fCounter] = _flightKey;\n\n    }\n\n    function checkFlight(bytes32 _flightKey) public view requireIsOperational() returns(bool) {\n        return flights[_flightKey].isRegistered;\n    }\n\n    function updateFlightTimestamp(bytes32 _flightKey, uint256 _timestamp) internal requireIsOperational() {\n        flights[_flightKey].updatedTimestamp = _timestamp;\n    }\n\n    function updateFlightStatus(bytes32 _flightKey, uint8 _statusCode) internal requireIsOperational()  {\n        flights[_flightKey].statusCode = _statusCode;\n    }\n\n    function getFlightStatus(bytes32 _flightKey) internal view requireIsOperational() returns(uint8) {\n        return flights[_flightKey].statusCode;\n    }\n\n    function checkFlights(uint _flightId) public view requireIsOperational()\n        returns(bytes32 flightKey_, string memory flight_, bool active_, bool isRegistered_, uint8 status_, uint256 timestamp_, address address_) \n    {\n        bytes32 _flightKey = flightsReverse[_flightId];\n        require(checkFlight(_flightKey), \"ERROR: FLIGHT IS NOT REGISTERED\");\n        return(_flightKey\n            , flights[_flightKey].flight\n            , flights[_flightKey].active\n            , flights[_flightKey].isRegistered\n            , flights[_flightKey].statusCode\n            , flights[_flightKey].updatedTimestamp\n            , flights[_flightKey].airlineAddress\n        );\n    }\n\n\n    /********************************************************************************************/\n    /*                                   PROCESS FLIGHT FUNCTION                                */\n    /********************************************************************************************/\n    //function processFlightStatus(bytes32 _flightKey, uint _timestamp, uint8 _statusCode) internal {\n    function processFlightStatus(address _airlineAddress, string memory _flight, uint _timestamp, uint8 _statusCode) internal {\n        bytes32 _flightKey = getFlightKey(_airlineAddress, _flight, _timestamp);\n        require(checkFlight(_flightKey), \"ERROR: FLIGHT IS NOT REGISTERED\");\n\n        updateFlightTimestamp(_flightKey, _timestamp);\n        updateFlightStatus(_flightKey, _statusCode);\n\n        if (_statusCode == STATUS_CODE_LATE_AIRLINE) {\n            flightSuretyData.creditInsurees(_flightKey, _airlineAddress);\n        }\n        // else if(_statusCode == STATUS_CODE_ON_TIME) {\n        //     flightSuretyData.creditInsurees(_flightKey, _airlineAddress);\n        // }\n    }\n\n\n    /********************************************************************************************/\n    /*                                     PASSENGER FUNCTIONS                                  */\n    /********************************************************************************************/\n    function buy(uint _flightId) public payable requireIsOperational() {\n        require(!isRegistered(msg.sender) && msg.sender != contractOwner, \"ERROR: CALLER IS NOT ALLOWED TO BUY INSURANCE\");\n        \n        bytes32 _flightKey = flightsReverse[_flightId];\n        require(checkFlight(_flightKey), \"ERROR: FLIGHT NOT FOUND\");\n\n        address _airlineAddress = flights[_flightKey].airlineAddress;\n\n        flightSuretyData.buy{value: msg.value}(msg.sender, _flightKey, _airlineAddress);\n\n    }\n\n    function checkPassengerInsurances() public view requireIsOperational() returns(bytes32[] memory) {\n        return flightSuretyData.checkPassengerInsurances(msg.sender);\n    }\n\n    function checkInsuranceAmountPaid(uint _flightId) public view requireIsOperational() returns(uint) {\n        bytes32 _flightKey = flightsReverse[_flightId];\n        require(checkFlight(_flightKey), \"ERROR: FLIGHT IS NOT REGISTERED\");\n        return flightSuretyData.checkInsuranceAmountPaid(msg.sender, _flightKey);\n    }\n    \n    function checkInsurances(uint _insuranceId) public view requireIsOperational()\n    returns(bytes32 insuranceKey_, bytes32 flightKey_, address passengerAddress_, uint amountPaid_, uint amountAvailable_, bool claimable_, bool active_) {   \n        return flightSuretyData.checkInsurances(_insuranceId);\n    }\n\n\n    /********************************************************************************************/\n    /*                                 FLIGHT STATUS FUNCTIONS                                  */\n    /********************************************************************************************/\n    // Generate a request for oracles to fetch flight information\n    function fetchFlightStatus(address _airline, string calldata _flight, uint256 _timestamp) external requireIsOperational() {\n        uint8 index = getRandomIndex(msg.sender);\n        \n        // Generate a unique key for storing the request\n        bytes32 key = keccak256(abi.encodePacked(index, _airline, _flight, _timestamp));\n        oracleResponses[key].requester = msg.sender;\n        oracleResponses[key].isOpen = true;\n\n        emit OracleRequest(index, _airline, _flight, _timestamp);\n    }\n\n    // Query the status of any flight\n    function viewFlightStatus(uint _flightId) external view returns(uint8) {\n        bytes32 _flightKey = flightsReverse[_flightId];\n        require(checkFlight(_flightKey), \"ERROR: FLIGHT IS NOT REGISTERED\");\n        return getFlightStatus(_flightKey);\n    }\n\n\n    /********************************************************************************************/\n    /*                                      WITHDRAW FUNCTIONS                                  */\n    /********************************************************************************************/\n    function withdrawCredit(string memory _flight, uint16 _year, uint8 _month, uint8 _day, uint8 _hour, uint8 _minute) public {\n        uint _timestamp = getDateTime(_year, _month, _day, _hour, _minute);\n\n        bytes32 _flightKey = getFlightKey(msg.sender, _flight, _timestamp);\n        flightSuretyData.pay(msg.sender, _flightKey);\n    }\n\n// region ORACLE MANAGEMENT\n\n    // Incremented to add pseudo-randomness at various points\n    uint8 private nonce = 0;\n\n    // Fee to be paid when registering oracle\n    uint256 public constant REGISTRATION_FEE = 1 ether;\n\n    // Number of oracles that must respond for valid status\n    uint256 private constant MIN_RESPONSES = 3;\n\n    struct Oracle {\n        bool        isRegistered;\n        uint8[3]    indexes;\n    }\n\n    // Track all registered oracles\n    mapping(address => Oracle) private oracles;\n\n    // Model for responses from oracles\n    struct ResponseInfo {\n        address     requester;                                  // Account that requested status\n        bool        isOpen;                                     // If open, oracle responses are accepted\n        mapping(uint8 => address[]) responses;                  // Mapping key is the status code reported\n                                                                // This lets us group responses and identify\n                                                                // the response that majority of the oracles\n    }\n\n    // Track all oracle responses\n    // Key = hash(index, flight, timestamp)\n    mapping(bytes32 => ResponseInfo) private oracleResponses;\n\n    // Event fired each time an oracle submits a response\n    event FlightStatusInfo(address airline, string flight, uint256 timestamp, uint8 status);\n\n    event OracleReport(address airline, string flight, uint256 timestamp, uint8 status);\n\n    // Event fired when flight status request is submitted\n    // Oracles track this and if they have a matching index\n    // they fetch data and submit a response\n    event OracleRequest(uint8 index, address airline, string flight, uint256 timestamp);\n\n    // Register an oracle with the contract\n    function registerOracle() external payable {\n        // Require registration fee\n        require(msg.value >= REGISTRATION_FEE, \"ERROR: REGISTRATION FEE IS REQUIRED\");\n\n        uint8[3] memory indexes = generateIndexes(msg.sender);\n\n        oracles[msg.sender] = Oracle(\n            {\n                isRegistered: true,\n                indexes: indexes\n            }\n        );\n    }\n\n    function getMyIndexes() external view returns(uint8[3] memory) {\n        require(oracles[msg.sender].isRegistered, \"ERROR: ORACLE NOT REGISTERED\");\n\n        return oracles[msg.sender].indexes;\n    }\n\n    // Called by oracle when a response is available to an outstanding request\n    // For the response to be accepted, there must be a pending request that is open\n    // and matches one of the three Indexes randomly assigned to the oracle at the\n    // time of registration (i.e. uninvited oracles are not welcome)\n    function submitOracleResponse(uint8 index, address airline, string calldata flight, uint256 timestamp, uint8 statusCode)\n    external {\n        require((oracles[msg.sender].indexes[0] == index) || (oracles[msg.sender].indexes[1] == index) || (oracles[msg.sender].indexes[2] == index), \"ERROR: INDEX NOT MATCHING ORACLE REQUEST\");\n\n\n        bytes32 key = keccak256(abi.encodePacked(index, airline, flight, timestamp));\n        require(oracleResponses[key].isOpen, \"ERROR: FLIGHT/TIMESTAMP NOT MATCHING ORACLE REQUEST\");\n\n        oracleResponses[key].responses[statusCode].push(msg.sender);\n\n        // Information isn't considered verified until at least MIN_RESPONSES\n        // oracles respond with the *** same *** information\n        emit OracleReport(airline, flight, timestamp, statusCode);\n        if (oracleResponses[key].responses[statusCode].length >= MIN_RESPONSES) {\n\n            emit FlightStatusInfo(airline, flight, timestamp, statusCode);\n\n            // Handle flight status as appropriate\n            processFlightStatus(airline, flight, timestamp, statusCode);\n        }\n    }\n\n    function getFlightKey(address airline, string memory flight, uint256 timestamp) pure public returns(bytes32) {\n        return keccak256(abi.encodePacked(airline, flight, timestamp));\n    }\n\n    // Returns array of three non-duplicating integers from 0-9\n    function generateIndexes(address _account) internal returns(uint8[3] memory) {\n        uint8[3] memory indexes;\n        indexes[0] = getRandomIndex(_account);\n\n        indexes[1] = indexes[0];\n        while(indexes[1] == indexes[0]) {\n            indexes[1] = getRandomIndex(_account);\n        }\n\n        indexes[2] = indexes[1];\n        while((indexes[2] == indexes[0]) || (indexes[2] == indexes[1])) {\n            indexes[2] = getRandomIndex(_account);\n        }\n\n        return indexes;\n    }\n\n    // Returns array of three non-duplicating integers from 0-9\n    function getRandomIndex(address _account) internal returns (uint8) {\n        uint8 maxValue = 10;\n\n        // Pseudo random number...the incrementing nonce adds variation\n        uint8 random = uint8(uint256(keccak256(abi.encodePacked(blockhash(block.number - nonce++), _account))) % maxValue);\n\n        if (nonce > 250) {\n            nonce = 0;  // Can only fetch blockhashes for last 256 blocks so we adapt\n        }\n\n        return random;\n    }\n\n// endregion\n\n}\n\ncontract FlightSuretyData {\n\n    function isOperational() external view returns(bool) {}\n\n    function getFirstAirlineAddress() external view returns(address){}\n    \n    function registerAirline(string memory _name, address _address, uint _aCounter, bool _controller) external {}\n\n    function candidateAirline(string memory _name, address _address) external {}\n\n    function fund(address _address) external payable {}\n    \n    function checkAirlines(address _airlineAddress) external view \n    returns(string memory name_, address address_, bool registered_, bool participant_, bool controller_, uint fundavailable_, uint fundcommitted_) {}\n\n    function buy(address _passengerAddress, bytes32 _flightKey, address _airlineAddress) external payable {}\n\n    function checkInsurances(uint _insuranceId) external view\n    returns(bytes32 insuranceKey_, bytes32 flightKey_, address passengerAddress_, uint amountPaid_, uint amountAvailable_, bool claimable_, bool active_) {}\n\n    function checkPassengerInsurances(address _passengerAddress) external view returns(bytes32[] memory) {}\n\n    function checkInsuranceAmountPaid(address _passengerAddress, bytes32 _flightKey) external view returns(uint amountPaid_) {}\n\n    function creditInsurees(bytes32 _flightKey, address _airlineAddress) external {}\n\n    function pay(address _passengerAddress, bytes32 _flightKey) external {}\n\n}\n",
  "sourcePath": "/Users/fernandomaximof/Documents/udacity-projects/project4/contracts/FlightSuretyApp.sol",
  "compiler": {
    "name": "solc",
    "version": "0.8.11+commit.d7f03943.Emscripten.clang"
  },
  "schemaVersion": "3.4.3",
  "updatedAt": "2022-02-03T09:52:06.997Z",
  "networkType": "ethereum",
  "devdoc": {
    "kind": "dev",
    "methods": {},
    "version": 1
  },
  "userdoc": {
    "kind": "user",
    "methods": {},
    "version": 1
  }
}