{
  "contractName": "FlightSuretyApp",
  "abi": [
    {
      "inputs": [
        {
          "internalType": "address",
          "name": "dataContract",
          "type": "address"
        }
      ],
      "stateMutability": "nonpayable",
      "type": "constructor"
    },
    {
      "anonymous": false,
      "inputs": [
        {
          "indexed": false,
          "internalType": "address",
          "name": "airline",
          "type": "address"
        },
        {
          "indexed": false,
          "internalType": "string",
          "name": "flight",
          "type": "string"
        },
        {
          "indexed": false,
          "internalType": "uint256",
          "name": "timestamp",
          "type": "uint256"
        },
        {
          "indexed": false,
          "internalType": "uint8",
          "name": "status",
          "type": "uint8"
        }
      ],
      "name": "FlightStatusInfo",
      "type": "event"
    },
    {
      "anonymous": false,
      "inputs": [
        {
          "indexed": false,
          "internalType": "address",
          "name": "airline",
          "type": "address"
        },
        {
          "indexed": false,
          "internalType": "string",
          "name": "flight",
          "type": "string"
        },
        {
          "indexed": false,
          "internalType": "uint256",
          "name": "timestamp",
          "type": "uint256"
        },
        {
          "indexed": false,
          "internalType": "uint8",
          "name": "status",
          "type": "uint8"
        }
      ],
      "name": "OracleReport",
      "type": "event"
    },
    {
      "anonymous": false,
      "inputs": [
        {
          "indexed": false,
          "internalType": "uint8",
          "name": "index",
          "type": "uint8"
        },
        {
          "indexed": false,
          "internalType": "address",
          "name": "airline",
          "type": "address"
        },
        {
          "indexed": false,
          "internalType": "string",
          "name": "flight",
          "type": "string"
        },
        {
          "indexed": false,
          "internalType": "uint256",
          "name": "timestamp",
          "type": "uint256"
        }
      ],
      "name": "OracleRequest",
      "type": "event"
    },
    {
      "inputs": [],
      "name": "REGISTRATION_FEE",
      "outputs": [
        {
          "internalType": "uint256",
          "name": "",
          "type": "uint256"
        }
      ],
      "stateMutability": "view",
      "type": "function",
      "constant": true
    },
    {
      "inputs": [
        {
          "internalType": "bytes32",
          "name": "",
          "type": "bytes32"
        }
      ],
      "name": "flights",
      "outputs": [
        {
          "internalType": "string",
          "name": "flight",
          "type": "string"
        },
        {
          "internalType": "uint256",
          "name": "flightId",
          "type": "uint256"
        },
        {
          "internalType": "bool",
          "name": "active",
          "type": "bool"
        },
        {
          "internalType": "bool",
          "name": "isRegistered",
          "type": "bool"
        },
        {
          "internalType": "uint8",
          "name": "statusCode",
          "type": "uint8"
        },
        {
          "internalType": "uint256",
          "name": "updatedTimestamp",
          "type": "uint256"
        },
        {
          "internalType": "address",
          "name": "airlineAddress",
          "type": "address"
        }
      ],
      "stateMutability": "view",
      "type": "function",
      "constant": true
    },
    {
      "inputs": [
        {
          "internalType": "uint256",
          "name": "",
          "type": "uint256"
        }
      ],
      "name": "flightsReverse",
      "outputs": [
        {
          "internalType": "bytes32",
          "name": "",
          "type": "bytes32"
        }
      ],
      "stateMutability": "view",
      "type": "function",
      "constant": true
    },
    {
      "inputs": [
        {
          "internalType": "uint16",
          "name": "_year",
          "type": "uint16"
        },
        {
          "internalType": "uint8",
          "name": "_month",
          "type": "uint8"
        },
        {
          "internalType": "uint8",
          "name": "_day",
          "type": "uint8"
        },
        {
          "internalType": "uint8",
          "name": "_hour",
          "type": "uint8"
        },
        {
          "internalType": "uint8",
          "name": "_minute",
          "type": "uint8"
        }
      ],
      "name": "getDateTime",
      "outputs": [
        {
          "internalType": "uint256",
          "name": "",
          "type": "uint256"
        }
      ],
      "stateMutability": "pure",
      "type": "function",
      "constant": true
    },
    {
      "inputs": [
        {
          "internalType": "bool",
          "name": "mode",
          "type": "bool"
        }
      ],
      "name": "setOperatingStatus",
      "outputs": [],
      "stateMutability": "nonpayable",
      "type": "function"
    },
    {
      "inputs": [],
      "name": "isOperational",
      "outputs": [
        {
          "internalType": "bool",
          "name": "",
          "type": "bool"
        }
      ],
      "stateMutability": "view",
      "type": "function",
      "constant": true
    },
    {
      "inputs": [
        {
          "internalType": "address",
          "name": "dataContract",
          "type": "address"
        }
      ],
      "name": "setDataContract",
      "outputs": [],
      "stateMutability": "nonpayable",
      "type": "function"
    },
    {
      "inputs": [
        {
          "internalType": "address",
          "name": "_address",
          "type": "address"
        }
      ],
      "name": "isController",
      "outputs": [
        {
          "internalType": "bool",
          "name": "",
          "type": "bool"
        }
      ],
      "stateMutability": "view",
      "type": "function",
      "constant": true
    },
    {
      "inputs": [
        {
          "internalType": "address",
          "name": "_address",
          "type": "address"
        }
      ],
      "name": "isRegistered",
      "outputs": [
        {
          "internalType": "bool",
          "name": "",
          "type": "bool"
        }
      ],
      "stateMutability": "view",
      "type": "function",
      "constant": true
    },
    {
      "inputs": [
        {
          "internalType": "address",
          "name": "_address",
          "type": "address"
        }
      ],
      "name": "isParticipant",
      "outputs": [
        {
          "internalType": "bool",
          "name": "",
          "type": "bool"
        }
      ],
      "stateMutability": "view",
      "type": "function",
      "constant": true
    },
    {
      "inputs": [
        {
          "internalType": "address",
          "name": "_address",
          "type": "address"
        }
      ],
      "name": "isCandidate",
      "outputs": [
        {
          "internalType": "bool",
          "name": "",
          "type": "bool"
        }
      ],
      "stateMutability": "view",
      "type": "function",
      "constant": true
    },
    {
      "inputs": [
        {
          "internalType": "string",
          "name": "_name",
          "type": "string"
        },
        {
          "internalType": "address",
          "name": "_address",
          "type": "address"
        }
      ],
      "name": "registerAirline",
      "outputs": [],
      "stateMutability": "nonpayable",
      "type": "function"
    },
    {
      "inputs": [
        {
          "internalType": "address",
          "name": "_address",
          "type": "address"
        }
      ],
      "name": "checkAirlines",
      "outputs": [
        {
          "internalType": "string",
          "name": "name_",
          "type": "string"
        },
        {
          "internalType": "address",
          "name": "address_",
          "type": "address"
        },
        {
          "internalType": "bool",
          "name": "registered_",
          "type": "bool"
        },
        {
          "internalType": "bool",
          "name": "participant_",
          "type": "bool"
        },
        {
          "internalType": "bool",
          "name": "controller_",
          "type": "bool"
        },
        {
          "internalType": "uint256",
          "name": "fundavailable_",
          "type": "uint256"
        },
        {
          "internalType": "uint256",
          "name": "fundcommitted_",
          "type": "uint256"
        }
      ],
      "stateMutability": "view",
      "type": "function",
      "constant": true
    },
    {
      "inputs": [],
      "name": "checkCandidateAirlines",
      "outputs": [
        {
          "components": [
            {
              "internalType": "address",
              "name": "proposedAddress",
              "type": "address"
            },
            {
              "internalType": "string",
              "name": "proposedName",
              "type": "string"
            },
            {
              "internalType": "uint256",
              "name": "voteCount",
              "type": "uint256"
            },
            {
              "internalType": "bool",
              "name": "active",
              "type": "bool"
            }
          ],
          "internalType": "struct FlightSuretyApp.Proposal[]",
          "name": "",
          "type": "tuple[]"
        }
      ],
      "stateMutability": "view",
      "type": "function",
      "constant": true
    },
    {
      "inputs": [
        {
          "internalType": "string",
          "name": "_name",
          "type": "string"
        },
        {
          "internalType": "address",
          "name": "_address",
          "type": "address"
        }
      ],
      "name": "vote",
      "outputs": [],
      "stateMutability": "nonpayable",
      "type": "function"
    },
    {
      "inputs": [],
      "name": "fund",
      "outputs": [],
      "stateMutability": "payable",
      "type": "function",
      "payable": true
    },
    {
      "inputs": [
        {
          "internalType": "string",
          "name": "_flight",
          "type": "string"
        },
        {
          "internalType": "uint16",
          "name": "_year",
          "type": "uint16"
        },
        {
          "internalType": "uint8",
          "name": "_month",
          "type": "uint8"
        },
        {
          "internalType": "uint8",
          "name": "_day",
          "type": "uint8"
        },
        {
          "internalType": "uint8",
          "name": "_hour",
          "type": "uint8"
        },
        {
          "internalType": "uint8",
          "name": "_minute",
          "type": "uint8"
        }
      ],
      "name": "registerFlight",
      "outputs": [],
      "stateMutability": "nonpayable",
      "type": "function"
    },
    {
      "inputs": [
        {
          "internalType": "bytes32",
          "name": "_flightKey",
          "type": "bytes32"
        }
      ],
      "name": "checkFlight",
      "outputs": [
        {
          "internalType": "bool",
          "name": "",
          "type": "bool"
        }
      ],
      "stateMutability": "view",
      "type": "function",
      "constant": true
    },
    {
      "inputs": [
        {
          "internalType": "uint256",
          "name": "_flightId",
          "type": "uint256"
        }
      ],
      "name": "checkFlights",
      "outputs": [
        {
          "internalType": "bytes32",
          "name": "flightKey_",
          "type": "bytes32"
        },
        {
          "internalType": "string",
          "name": "flight_",
          "type": "string"
        },
        {
          "internalType": "bool",
          "name": "active_",
          "type": "bool"
        },
        {
          "internalType": "bool",
          "name": "isRegistered_",
          "type": "bool"
        },
        {
          "internalType": "uint8",
          "name": "status_",
          "type": "uint8"
        },
        {
          "internalType": "uint256",
          "name": "timestamp_",
          "type": "uint256"
        },
        {
          "internalType": "address",
          "name": "address_",
          "type": "address"
        }
      ],
      "stateMutability": "view",
      "type": "function",
      "constant": true
    },
    {
      "inputs": [
        {
          "internalType": "uint256",
          "name": "_flightId",
          "type": "uint256"
        }
      ],
      "name": "buy",
      "outputs": [],
      "stateMutability": "payable",
      "type": "function",
      "payable": true
    },
    {
      "inputs": [],
      "name": "checkPassengerInsurances",
      "outputs": [
        {
          "internalType": "bytes32[]",
          "name": "",
          "type": "bytes32[]"
        }
      ],
      "stateMutability": "view",
      "type": "function",
      "constant": true
    },
    {
      "inputs": [
        {
          "internalType": "uint256",
          "name": "_flightId",
          "type": "uint256"
        }
      ],
      "name": "checkInsuranceAmountPaid",
      "outputs": [
        {
          "internalType": "uint256",
          "name": "",
          "type": "uint256"
        }
      ],
      "stateMutability": "view",
      "type": "function",
      "constant": true
    },
    {
      "inputs": [
        {
          "internalType": "uint256",
          "name": "_insuranceId",
          "type": "uint256"
        }
      ],
      "name": "checkInsurances",
      "outputs": [
        {
          "internalType": "bytes32",
          "name": "insuranceKey_",
          "type": "bytes32"
        },
        {
          "internalType": "bytes32",
          "name": "flightKey_",
          "type": "bytes32"
        },
        {
          "internalType": "address",
          "name": "passengerAddress_",
          "type": "address"
        },
        {
          "internalType": "uint256",
          "name": "amountPaid_",
          "type": "uint256"
        },
        {
          "internalType": "uint256",
          "name": "amountAvailable_",
          "type": "uint256"
        },
        {
          "internalType": "bool",
          "name": "claimable_",
          "type": "bool"
        },
        {
          "internalType": "bool",
          "name": "active_",
          "type": "bool"
        }
      ],
      "stateMutability": "view",
      "type": "function",
      "constant": true
    },
    {
      "inputs": [
        {
          "internalType": "address",
          "name": "_airline",
          "type": "address"
        },
        {
          "internalType": "string",
          "name": "_flight",
          "type": "string"
        },
        {
          "internalType": "uint16",
          "name": "_year",
          "type": "uint16"
        },
        {
          "internalType": "uint8",
          "name": "_month",
          "type": "uint8"
        },
        {
          "internalType": "uint8",
          "name": "_day",
          "type": "uint8"
        },
        {
          "internalType": "uint8",
          "name": "_hour",
          "type": "uint8"
        },
        {
          "internalType": "uint8",
          "name": "_minute",
          "type": "uint8"
        }
      ],
      "name": "fetchFlightStatus",
      "outputs": [],
      "stateMutability": "nonpayable",
      "type": "function"
    },
    {
      "inputs": [
        {
          "internalType": "string",
          "name": "_flight",
          "type": "string"
        },
        {
          "internalType": "uint16",
          "name": "_year",
          "type": "uint16"
        },
        {
          "internalType": "uint8",
          "name": "_month",
          "type": "uint8"
        },
        {
          "internalType": "uint8",
          "name": "_day",
          "type": "uint8"
        },
        {
          "internalType": "uint8",
          "name": "_hour",
          "type": "uint8"
        },
        {
          "internalType": "uint8",
          "name": "_minute",
          "type": "uint8"
        }
      ],
      "name": "viewFlightStatus",
      "outputs": [
        {
          "internalType": "uint8",
          "name": "",
          "type": "uint8"
        }
      ],
      "stateMutability": "view",
      "type": "function",
      "constant": true
    },
    {
      "inputs": [
        {
          "internalType": "string",
          "name": "_flight",
          "type": "string"
        },
        {
          "internalType": "uint16",
          "name": "_year",
          "type": "uint16"
        },
        {
          "internalType": "uint8",
          "name": "_month",
          "type": "uint8"
        },
        {
          "internalType": "uint8",
          "name": "_day",
          "type": "uint8"
        },
        {
          "internalType": "uint8",
          "name": "_hour",
          "type": "uint8"
        },
        {
          "internalType": "uint8",
          "name": "_minute",
          "type": "uint8"
        }
      ],
      "name": "withdrawCredit",
      "outputs": [],
      "stateMutability": "nonpayable",
      "type": "function"
    },
    {
      "inputs": [],
      "name": "registerOracle",
      "outputs": [],
      "stateMutability": "payable",
      "type": "function",
      "payable": true
    },
    {
      "inputs": [],
      "name": "getMyIndexes",
      "outputs": [
        {
          "internalType": "uint8[3]",
          "name": "",
          "type": "uint8[3]"
        }
      ],
      "stateMutability": "view",
      "type": "function",
      "constant": true
    },
    {
      "inputs": [
        {
          "internalType": "uint8",
          "name": "index",
          "type": "uint8"
        },
        {
          "internalType": "address",
          "name": "airline",
          "type": "address"
        },
        {
          "internalType": "string",
          "name": "flight",
          "type": "string"
        },
        {
          "internalType": "uint256",
          "name": "timestamp",
          "type": "uint256"
        },
        {
          "internalType": "uint8",
          "name": "statusCode",
          "type": "uint8"
        }
      ],
      "name": "submitOracleResponse",
      "outputs": [],
      "stateMutability": "nonpayable",
      "type": "function"
    },
    {
      "inputs": [
        {
          "internalType": "address",
          "name": "airline",
          "type": "address"
        },
        {
          "internalType": "string",
          "name": "flight",
          "type": "string"
        },
        {
          "internalType": "uint256",
          "name": "timestamp",
          "type": "uint256"
        }
      ],
      "name": "getFlightKey",
      "outputs": [
        {
          "internalType": "bytes32",
          "name": "",
          "type": "bytes32"
        }
      ],
      "stateMutability": "pure",
      "type": "function",
      "constant": true
    }
  ],
  "bytecode": "0x608060405260016000806101000a81548160ff021916908315150217905550600067ffffffffffffffff8111156200003c576200003b620005a2565b5b6040519080825280602002602001820160405280156200006b5781602001602082028036833780820191505090505b506001908051906020019062000083929190620004f4565b50600360025560016009556000600a556000600f60006101000a81548160ff021916908360ff160217905550348015620000bc57600080fd5b50604051620065dc380380620065dc8339818101604052810190620000e291906200063b565b33600860006101000a81548173ffffffffffffffffffffffffffffffffffffffff021916908373ffffffffffffffffffffffffffffffffffffffff16021790555080600760006101000a81548173ffffffffffffffffffffffffffffffffffffffff021916908373ffffffffffffffffffffffffffffffffffffffff1602179055506000600760009054906101000a900473ffffffffffffffffffffffffffffffffffffffff1673ffffffffffffffffffffffffffffffffffffffff1663b59828036040518163ffffffff1660e01b8152600401602060405180830381865afa158015620001d4573d6000803e3d6000fd5b505050506040513d601f19601f82011682018060405250810190620001fa91906200063b565b90506200020d816200022660201b60201c565b6200021e816200029860201b60201c565b5050620007ae565b62000237816200030a60201b60201c565b156200027a576040517f08c379a00000000000000000000000000000000000000000000000000000000081526004016200027190620006f4565b60405180910390fd5b620002958160036200032e60201b62002c6d1790919060201c565b50565b620002a981620003e460201b60201c565b15620002ec576040517f08c379a0000000000000000000000000000000000000000000000000000000008152600401620002e3906200078c565b60405180910390fd5b620003078160046200032e60201b62002c6d1790919060201c565b50565b6000620003278260036200046160201b62002d191790919060201c565b9050919050565b600073ffffffffffffffffffffffffffffffffffffffff168173ffffffffffffffffffffffffffffffffffffffff1614156200036957600080fd5b6200037b82826200046160201b60201c565b156200038657600080fd5b60018260000160008373ffffffffffffffffffffffffffffffffffffffff1673ffffffffffffffffffffffffffffffffffffffff16815260200190815260200160002060006101000a81548160ff0219169083151502179055505050565b6000600860009054906101000a900473ffffffffffffffffffffffffffffffffffffffff1673ffffffffffffffffffffffffffffffffffffffff168273ffffffffffffffffffffffffffffffffffffffff1614806200045a5750620004598260046200046160201b62002d191790919060201c565b5b9050919050565b60008073ffffffffffffffffffffffffffffffffffffffff168273ffffffffffffffffffffffffffffffffffffffff1614156200049d57600080fd5b8260000160008373ffffffffffffffffffffffffffffffffffffffff1673ffffffffffffffffffffffffffffffffffffffff16815260200190815260200160002060009054906101000a900460ff16905092915050565b82805482825590600052602060002090810192821562000570579160200282015b828111156200056f5782518260006101000a81548173ffffffffffffffffffffffffffffffffffffffff021916908373ffffffffffffffffffffffffffffffffffffffff1602179055509160200191906001019062000515565b5b5090506200057f919062000583565b5090565b5b808211156200059e57600081600090555060010162000584565b5090565b7f4e487b7100000000000000000000000000000000000000000000000000000000600052604160045260246000fd5b600080fd5b600073ffffffffffffffffffffffffffffffffffffffff82169050919050565b60006200060382620005d6565b9050919050565b6200061581620005f6565b81146200062157600080fd5b50565b60008151905062000635816200060a565b92915050565b600060208284031215620006545762000653620005d1565b5b6000620006648482850162000624565b91505092915050565b600082825260208201905092915050565b7f4552524f523a204149524c494e4520495320414c52454144592052454749535460008201527f4552454400000000000000000000000000000000000000000000000000000000602082015250565b6000620006dc6024836200066d565b9150620006e9826200067e565b604082019050919050565b600060208201905081810360008301526200070f81620006cd565b9050919050565b7f4552524f523a204149524c494e4520495320414c5245414459204120434f4e5460008201527f524f4c4c45520000000000000000000000000000000000000000000000000000602082015250565b6000620007746026836200066d565b9150620007818262000716565b604082019050919050565b60006020820190508181036000830152620007a78162000765565b9050919050565b615e1e80620007be6000396000f3fe6080604052600436106101cd5760003560e01c8063a9d2f269116100f7578063d51b9e9311610095578063dfc0dff011610064578063dfc0dff01461068f578063e188ac98146106cc578063edeb6c3a1461070f578063f0a354f114610752576101cd565b8063d51b9e93146105d0578063d737d8141461060d578063d96a094a14610636578063dcb8c5b414610652576101cd565b8063b8d4136d116100d1578063b8d4136d14610502578063c10f27001461053f578063c3c5a54714610568578063cd905dff146105a5576101cd565b8063a9d2f26914610490578063b429afeb146104bb578063b60d4288146104f8576101cd565b80635a436c061161016f5780638529b35d1161013e5780638529b35d146103bc578063929066f5146103ff578063a190c3151461043c578063a96f5bdb14610467576101cd565b80635a436c06146103005780635f1cc0e61461032957806361b029ed1461035457806364b4f75114610391576101cd565b80631bb976bd116101ab5780631bb976bd1461024d57806320c5375e14610276578063339d2590146102b95780633ccd4aae146102c3576101cd565b806303959bb7146101d25780630e2c4129146101fb578063110466ed14610224575b600080fd5b3480156101de57600080fd5b506101f960048036038101906101f4919061378a565b61078f565b005b34801561020757600080fd5b50610222600480360381019061021d91906138fd565b610863565b005b34801561023057600080fd5b5061024b60048036038101906102469190613991565b610a7b565b005b34801561025957600080fd5b50610274600480360381019061026f9190613a91565b610d4a565b005b34801561028257600080fd5b5061029d60048036038101906102989190613b89565b610e6b565b6040516102b09796959493929190613c84565b60405180910390f35b6102c1610f7c565b005b3480156102cf57600080fd5b506102ea60048036038101906102e59190613d26565b611069565b6040516102f79190613d62565b60405180910390f35b34801561030c57600080fd5b50610327600480360381019061032291906138fd565b611081565b005b34801561033557600080fd5b5061033e6115c6565b60405161034b9190613e28565b60405180910390f35b34801561036057600080fd5b5061037b60048036038101906103769190613b89565b611706565b6040516103889190613e43565b60405180910390f35b34801561039d57600080fd5b506103a661177a565b6040516103b39190613e5e565b60405180910390f35b3480156103c857600080fd5b506103e360048036038101906103de9190613d26565b611786565b6040516103f69796959493929190613e79565b60405180910390f35b34801561040b57600080fd5b506104266004803603810190610421919061378a565b6119b0565b6040516104339190613e43565b60405180910390f35b34801561044857600080fd5b506104516119cd565b60405161045e919061408b565b60405180910390f35b34801561047357600080fd5b5061048e600480360381019061048991906140ad565b611b39565b005b34801561049c57600080fd5b506104a5611bf2565b6040516104b29190614214565b60405180910390f35b3480156104c757600080fd5b506104e260048036038101906104dd919061378a565b611ce1565b6040516104ef9190613e43565b60405180910390f35b610500611d56565b005b34801561050e57600080fd5b5061052960048036038101906105249190613d26565b611ec7565b6040516105369190613e5e565b60405180910390f35b34801561054b57600080fd5b5061056660048036038101906105619190614236565b612016565b005b34801561057457600080fd5b5061058f600480360381019061058a919061378a565b6123a0565b60405161059c9190613e43565b60405180910390f35b3480156105b157600080fd5b506105ba6123bd565b6040516105c79190613e43565b60405180910390f35b3480156105dc57600080fd5b506105f760048036038101906105f2919061378a565b612455565b6040516106049190613e43565b60405180910390f35b34801561061957600080fd5b50610634600480360381019061062f91906140ad565b612472565b005b610650600480360381019061064b9190613d26565b6126f3565b005b34801561065e57600080fd5b50610679600480360381019061067491906142d0565b61290f565b604051610686919061437f565b60405180910390f35b34801561069b57600080fd5b506106b660048036038101906106b1919061439a565b61298c565b6040516106c39190613d62565b60405180910390f35b3480156106d857600080fd5b506106f360048036038101906106ee919061378a565b6129c2565b6040516107069796959493929190614409565b60405180910390f35b34801561071b57600080fd5b5061073660048036038101906107319190613d26565b612a87565b604051610749979695949392919061447f565b60405180910390f35b34801561075e57600080fd5b50610779600480360381019061077491906144ee565b612b8e565b6040516107869190613e5e565b60405180910390f35b600860009054906101000a900473ffffffffffffffffffffffffffffffffffffffff1673ffffffffffffffffffffffffffffffffffffffff163373ffffffffffffffffffffffffffffffffffffffff161461081f576040517f08c379a0000000000000000000000000000000000000000000000000000000008152600401610816906145b5565b60405180910390fd5b80600760006101000a81548173ffffffffffffffffffffffffffffffffffffffff021916908373ffffffffffffffffffffffffffffffffffffffff16021790555050565b61086b6123bd565b6108aa576040517f08c379a00000000000000000000000000000000000000000000000000000000081526004016108a190614647565b60405180910390fd5b6108b3816123a0565b156108f3576040517f08c379a00000000000000000000000000000000000000000000000000000000081526004016108ea906146d9565b60405180910390fd5b60046009541015610a6357600860009054906101000a900473ffffffffffffffffffffffffffffffffffffffff1673ffffffffffffffffffffffffffffffffffffffff163373ffffffffffffffffffffffffffffffffffffffff16148061095f575061095e33611ce1565b5b61099e576040517f08c379a000000000000000000000000000000000000000000000000000000000815260040161099590614745565b60405180910390fd5b600960008154809291906109b190614794565b9190505550600760009054906101000a900473ffffffffffffffffffffffffffffffffffffffff1673ffffffffffffffffffffffffffffffffffffffff1663b85a9e61838360095460016040518563ffffffff1660e01b8152600401610a1a94939291906147dd565b600060405180830381600087803b158015610a3457600080fd5b505af1158015610a48573d6000803e3d6000fd5b50505050610a5581612dab565b610a5e81612e0b565b610a77565b610a6d8282612e6b565b610a768161303e565b5b5050565b600860009054906101000a900473ffffffffffffffffffffffffffffffffffffffff1673ffffffffffffffffffffffffffffffffffffffff163373ffffffffffffffffffffffffffffffffffffffff161480610ae75750610ae6336004612d1990919063ffffffff16565b5b610b26576040517f08c379a0000000000000000000000000000000000000000000000000000000008152600401610b1d90614875565b60405180910390fd5b60008054906101000a900460ff1615158115151415610b7a576040517f08c379a0000000000000000000000000000000000000000000000000000000008152600401610b7190614907565b60405180910390fd5b6000805b600180549050811015610c19573373ffffffffffffffffffffffffffffffffffffffff1660018281548110610bb657610bb5614927565b5b9060005260206000200160009054906101000a900473ffffffffffffffffffffffffffffffffffffffff1673ffffffffffffffffffffffffffffffffffffffff161415610c065760019150610c19565b8080610c1190614794565b915050610b7e565b508015610c5b576040517f08c379a0000000000000000000000000000000000000000000000000000000008152600401610c52906149c8565b60405180910390fd5b6001339080600181540180825580915050600190039060005260206000200160009091909190916101000a81548173ffffffffffffffffffffffffffffffffffffffff021916908373ffffffffffffffffffffffffffffffffffffffff16021790555060025460018054905010610d4657816000806101000a81548160ff021916908315150217905550600067ffffffffffffffff811115610d0057610cff6137d2565b5b604051908082528060200260200182016040528015610d2e5781602001602082028036833780820191505090505b5060019080519060200190610d4492919061352f565b505b5050565b6000610d553361309e565b90506000610d668787878787612b8e565b90506000828b8b8b85604051602001610d83959493929190614ab7565b604051602081830303815290604052805190602001209050336011600083815260200190815260200160002060000160006101000a81548173ffffffffffffffffffffffffffffffffffffffff021916908373ffffffffffffffffffffffffffffffffffffffff16021790555060016011600083815260200190815260200160002060000160146101000a81548160ff0219169083151502179055507f3ed01f2c3fc24c6b329d931e35b03e390d23497d22b3f90e15b600343e93df11838c8c8c86604051610e56959493929190614b30565b60405180910390a15050505050505050505050565b600b602052806000526040600020600091509050806000018054610e8e90614bad565b80601f0160208091040260200160405190810160405280929190818152602001828054610eba90614bad565b8015610f075780601f10610edc57610100808354040283529160200191610f07565b820191906000526020600020905b815481529060010190602001808311610eea57829003601f168201915b5050505050908060010154908060020160009054906101000a900460ff16908060020160019054906101000a900460ff16908060020160029054906101000a900460ff16908060030154908060040160009054906101000a900473ffffffffffffffffffffffffffffffffffffffff16905087565b670de0b6b3a7640000341015610fc7576040517f08c379a0000000000000000000000000000000000000000000000000000000008152600401610fbe90614c51565b60405180910390fd5b6000610fd23361316a565b9050604051806040016040528060011515815260200182815250601060003373ffffffffffffffffffffffffffffffffffffffff1673ffffffffffffffffffffffffffffffffffffffff16815260200190815260200160002060008201518160000160006101000a81548160ff0219169083151502179055506020820151816001019060036110629291906135b9565b5090505050565b600c6020528060005260406000206000915090505481565b6110896123bd565b6110c8576040517f08c379a00000000000000000000000000000000000000000000000000000000081526004016110bf90614647565b60405180910390fd5b6110d1336123a0565b611110576040517f08c379a000000000000000000000000000000000000000000000000000000000815260040161110790614cbd565b60405180910390fd5b611119816123a0565b15611159576040517f08c379a000000000000000000000000000000000000000000000000000000000815260040161115090614d4f565b60405180910390fd5b61116281612455565b6111a1576040517f08c379a000000000000000000000000000000000000000000000000000000000815260040161119890614de1565b60405180910390fd5b60008060005b600e60003373ffffffffffffffffffffffffffffffffffffffff1673ffffffffffffffffffffffffffffffffffffffff168152602001908152602001600020805490508110156112f2578373ffffffffffffffffffffffffffffffffffffffff16600e60003373ffffffffffffffffffffffffffffffffffffffff1673ffffffffffffffffffffffffffffffffffffffff168152602001908152602001600020828154811061125957611258614927565b5b9060005260206000200160009054906101000a900473ffffffffffffffffffffffffffffffffffffffff1673ffffffffffffffffffffffffffffffffffffffff1614156112df57600192506040517f08c379a00000000000000000000000000000000000000000000000000000000081526004016112d690614e73565b60405180910390fd5b80806112ea90614794565b9150506111a7565b508161139957600e60003373ffffffffffffffffffffffffffffffffffffffff1673ffffffffffffffffffffffffffffffffffffffff168152602001908152602001600020839080600181540180825580915050600190039060005260206000200160009091909190916101000a81548173ffffffffffffffffffffffffffffffffffffffff021916908373ffffffffffffffffffffffffffffffffffffffff1602179055505b60005b600d805490508110156115bf578373ffffffffffffffffffffffffffffffffffffffff16600d82815481106113d4576113d3614927565b5b906000526020600020906004020160000160009054906101000a900473ffffffffffffffffffffffffffffffffffffffff1673ffffffffffffffffffffffffffffffffffffffff1614156115ac576001600d828154811061143857611437614927565b5b906000526020600020906004020160020160008282546114589190614e93565b925050819055506009546064600d838154811061147857611477614927565b5b9060005260206000209060040201600201546114949190614ee9565b61149e9190614f72565b9150603282106115a757600960008154809291906114bb90614794565b9190505550600760009054906101000a900473ffffffffffffffffffffffffffffffffffffffff1673ffffffffffffffffffffffffffffffffffffffff1663b85a9e61868660095460006040518563ffffffff1660e01b815260040161152494939291906147dd565b600060405180830381600087803b15801561153e57600080fd5b505af1158015611552573d6000803e3d6000fd5b5050505061155f84612dab565b61156884613351565b6000600d828154811061157e5761157d614927565b5b906000526020600020906004020160030160006101000a81548160ff0219169083151502179055505b6115bf565b80806115b790614794565b91505061139c565b5050505050565b6115ce613653565b601060003373ffffffffffffffffffffffffffffffffffffffff1673ffffffffffffffffffffffffffffffffffffffff16815260200190815260200160002060000160009054906101000a900460ff1661165d576040517f08c379a000000000000000000000000000000000000000000000000000000000815260040161165490614fef565b60405180910390fd5b601060003373ffffffffffffffffffffffffffffffffffffffff1673ffffffffffffffffffffffffffffffffffffffff1681526020019081526020016000206001016003806020026040519081016040528092919082600380156116fc576020028201916000905b82829054906101000a900460ff1660ff16815260200190600101906020826000010492830192600103820291508084116116c55790505b5050505050905090565b60006117106123bd565b61174f576040517f08c379a000000000000000000000000000000000000000000000000000000000815260040161174690614647565b60405180910390fd5b600b600083815260200190815260200160002060020160019054906101000a900460ff169050919050565b670de0b6b3a764000081565b60006060600080600080600061179a6123bd565b6117d9576040517f08c379a00000000000000000000000000000000000000000000000000000000081526004016117d090614647565b60405180910390fd5b6000600c60008a81526020019081526020016000205490506117fa81611706565b611839576040517f08c379a00000000000000000000000000000000000000000000000000000000081526004016118309061505b565b60405180910390fd5b80600b6000838152602001908152602001600020600001600b600084815260200190815260200160002060020160009054906101000a900460ff16600b600085815260200190815260200160002060020160019054906101000a900460ff16600b600086815260200190815260200160002060020160029054906101000a900460ff16600b600087815260200190815260200160002060030154600b600088815260200190815260200160002060040160009054906101000a900473ffffffffffffffffffffffffffffffffffffffff1685805461191690614bad565b80601f016020809104026020016040519081016040528092919081815260200182805461194290614bad565b801561198f5780601f106119645761010080835404028352916020019161198f565b820191906000526020600020905b81548152906001019060200180831161197257829003601f168201915b50505050509550975097509750975097509750975050919395979092949650565b60006119c6826005612d1990919063ffffffff16565b9050919050565b6060600d805480602002602001604051908101604052809291908181526020016000905b82821015611b3057838290600052602060002090600402016040518060800160405290816000820160009054906101000a900473ffffffffffffffffffffffffffffffffffffffff1673ffffffffffffffffffffffffffffffffffffffff1673ffffffffffffffffffffffffffffffffffffffff168152602001600182018054611a7a90614bad565b80601f0160208091040260200160405190810160405280929190818152602001828054611aa690614bad565b8015611af35780601f10611ac857610100808354040283529160200191611af3565b820191906000526020600020905b815481529060010190602001808311611ad657829003601f168201915b50505050508152602001600282015481526020016003820160009054906101000a900460ff161515151581525050815260200190600101906119f1565b50505050905090565b6000611b488686868686612b8e565b90506000611b5733898461298c565b9050600760009054906101000a900473ffffffffffffffffffffffffffffffffffffffff1673ffffffffffffffffffffffffffffffffffffffff166346f8f30433836040518363ffffffff1660e01b8152600401611bb692919061507b565b600060405180830381600087803b158015611bd057600080fd5b505af1158015611be4573d6000803e3d6000fd5b505050505050505050505050565b6060611bfc6123bd565b611c3b576040517f08c379a0000000000000000000000000000000000000000000000000000000008152600401611c3290614647565b60405180910390fd5b600760009054906101000a900473ffffffffffffffffffffffffffffffffffffffff1673ffffffffffffffffffffffffffffffffffffffff1663ff129763336040518263ffffffff1660e01b8152600401611c9691906150a4565b600060405180830381865afa158015611cb3573d6000803e3d6000fd5b505050506040513d6000823e3d601f19601f82011682018060405250810190611cdc9190615197565b905090565b6000600860009054906101000a900473ffffffffffffffffffffffffffffffffffffffff1673ffffffffffffffffffffffffffffffffffffffff168273ffffffffffffffffffffffffffffffffffffffff161480611d4f5750611d4e826004612d1990919063ffffffff16565b5b9050919050565b611d5e6123bd565b611d9d576040517f08c379a0000000000000000000000000000000000000000000000000000000008152600401611d9490614647565b60405180910390fd5b611da6336123a0565b611de5576040517f08c379a0000000000000000000000000000000000000000000000000000000008152600401611ddc9061522c565b60405180910390fd5b611dee336119b0565b15611e2e576040517f08c379a0000000000000000000000000000000000000000000000000000000008152600401611e25906152be565b60405180910390fd5b600760009054906101000a900473ffffffffffffffffffffffffffffffffffffffff1673ffffffffffffffffffffffffffffffffffffffff16632302440834336040518363ffffffff1660e01b8152600401611e8a91906150a4565b6000604051808303818588803b158015611ea357600080fd5b505af1158015611eb7573d6000803e3d6000fd5b5050505050611ec5336133b0565b565b6000611ed16123bd565b611f10576040517f08c379a0000000000000000000000000000000000000000000000000000000008152600401611f0790614647565b60405180910390fd5b6000600c6000848152602001908152602001600020549050611f3181611706565b611f70576040517f08c379a0000000000000000000000000000000000000000000000000000000008152600401611f679061505b565b60405180910390fd5b600760009054906101000a900473ffffffffffffffffffffffffffffffffffffffff1673ffffffffffffffffffffffffffffffffffffffff166348c1747833836040518363ffffffff1660e01b8152600401611fcd92919061507b565b602060405180830381865afa158015611fea573d6000803e3d6000fd5b505050506040513d601f19601f8201168201806040525081019061200e91906152f3565b915050919050565b8560ff16601060003373ffffffffffffffffffffffffffffffffffffffff1673ffffffffffffffffffffffffffffffffffffffff16815260200190815260200160002060010160006003811061206f5761206e614927565b5b602091828204019190069054906101000a900460ff1660ff16148061210357508560ff16601060003373ffffffffffffffffffffffffffffffffffffffff1673ffffffffffffffffffffffffffffffffffffffff1681526020019081526020016000206001016001600381106120e8576120e7614927565b5b602091828204019190069054906101000a900460ff1660ff16145b8061217d57508560ff16601060003373ffffffffffffffffffffffffffffffffffffffff1673ffffffffffffffffffffffffffffffffffffffff16815260200190815260200160002060010160026003811061216257612161614927565b5b602091828204019190069054906101000a900460ff1660ff16145b6121bc576040517f08c379a00000000000000000000000000000000000000000000000000000000081526004016121b390615392565b60405180910390fd5b600086868686866040516020016121d7959493929190614ab7565b6040516020818303038152906040528051906020012090506011600082815260200190815260200160002060000160149054906101000a900460ff16612252576040517f08c379a000000000000000000000000000000000000000000000000000000000815260040161224990615424565b60405180910390fd5b6011600082815260200190815260200160002060010160008360ff1660ff168152602001908152602001600020339080600181540180825580915050600190039060005260206000200160009091909190916101000a81548173ffffffffffffffffffffffffffffffffffffffff021916908373ffffffffffffffffffffffffffffffffffffffff1602179055507f43c853095c2752648493c88b4baac4d580d2594ffb00c6f1d4242d844514f7838686868686604051612317959493929190615444565b60405180910390a160036011600083815260200190815260200160002060010160008460ff1660ff1681526020019081526020016000208054905010612397577fe23f5229de535c091e3b7bec2665f5d698192d3b31393066e8987b7a05076b6c868686868660405161238e959493929190615444565b60405180910390a15b50505050505050565b60006123b6826003612d1990919063ffffffff16565b9050919050565b6000600760009054906101000a900473ffffffffffffffffffffffffffffffffffffffff1673ffffffffffffffffffffffffffffffffffffffff1663cd905dff6040518163ffffffff1660e01b8152600401602060405180830381865afa15801561242c573d6000803e3d6000fd5b505050506040513d601f19601f8201168201806040525081019061245091906154a7565b905090565b600061246b826006612d1990919063ffffffff16565b9050919050565b61247b336119b0565b6124ba576040517f08c379a00000000000000000000000000000000000000000000000000000000081526004016124b190615546565b60405180910390fd5b60006124c98686868686612b8e565b90506202a300426124da9190614e93565b811161251b576040517f08c379a0000000000000000000000000000000000000000000000000000000008152600401612512906155d8565b60405180910390fd5b600061252833898461298c565b905061253381611706565b15612573576040517f08c379a000000000000000000000000000000000000000000000000000000000815260040161256a90615644565b60405180910390fd5b600a600081548092919061258690614794565b91905055506040518060e00160405280898152602001600a548152602001600115158152602001600115158152602001600060ff1681526020018381526020013373ffffffffffffffffffffffffffffffffffffffff16815250600b6000838152602001908152602001600020600082015181600001908051906020019061260f929190613675565b506020820151816001015560408201518160020160006101000a81548160ff02191690831515021790555060608201518160020160016101000a81548160ff02191690831515021790555060808201518160020160026101000a81548160ff021916908360ff16021790555060a0820151816003015560c08201518160040160006101000a81548173ffffffffffffffffffffffffffffffffffffffff021916908373ffffffffffffffffffffffffffffffffffffffff16021790555090505080600c6000600a548152602001908152602001600020819055505050505050505050565b6126fb6123bd565b61273a576040517f08c379a000000000000000000000000000000000000000000000000000000000815260040161273190614647565b60405180910390fd5b612743336123a0565b15801561279e5750600860009054906101000a900473ffffffffffffffffffffffffffffffffffffffff1673ffffffffffffffffffffffffffffffffffffffff163373ffffffffffffffffffffffffffffffffffffffff1614155b6127dd576040517f08c379a00000000000000000000000000000000000000000000000000000000081526004016127d4906156d6565b60405180910390fd5b6000600c60008381526020019081526020016000205490506127fe81611706565b61283d576040517f08c379a000000000000000000000000000000000000000000000000000000000815260040161283490615742565b60405180910390fd5b6000600b600083815260200190815260200160002060040160009054906101000a900473ffffffffffffffffffffffffffffffffffffffff169050600760009054906101000a900473ffffffffffffffffffffffffffffffffffffffff1673ffffffffffffffffffffffffffffffffffffffff1663ffc2ec9a348433856040518563ffffffff1660e01b81526004016128d893929190615762565b6000604051808303818588803b1580156128f157600080fd5b505af1158015612905573d6000803e3d6000fd5b5050505050505050565b60008061291f8787878787612b8e565b90506000612972338b8b8080601f016020809104026020016040519081016040528093929190818152602001838380828437600081840152601f19601f820116905080830192505050505050508461298c565b905061297d81613410565b92505050979650505050505050565b60008383836040516020016129a3939291906157ca565b6040516020818303038152906040528051906020012090509392505050565b6060600080600080600080600760009054906101000a900473ffffffffffffffffffffffffffffffffffffffff1673ffffffffffffffffffffffffffffffffffffffff1663e188ac98896040518263ffffffff1660e01b8152600401612a2891906150a4565b600060405180830381865afa158015612a45573d6000803e3d6000fd5b505050506040513d6000823e3d601f19601f82011682018060405250810190612a6e9190615888565b9650965096509650965096509650919395979092949650565b6000806000806000806000612a9a6123bd565b612ad9576040517f08c379a0000000000000000000000000000000000000000000000000000000008152600401612ad090614647565b60405180910390fd5b600760009054906101000a900473ffffffffffffffffffffffffffffffffffffffff1673ffffffffffffffffffffffffffffffffffffffff1663edeb6c3a896040518263ffffffff1660e01b8152600401612b349190613e5e565b60e060405180830381865afa158015612b51573d6000803e3d6000fd5b505050506040513d601f19601f82011682018060405250810190612b759190615946565b9650965096509650965096509650919395979092949650565b60008073__DateLib_______________________________635ececa4f6040518061010001604052808a61ffff1681526020018960ff1681526020018860ff1681526020018760ff1681526020018660ff168152602001600060ff168152602001600060ff168152602001600060ff168152506040518263ffffffff1660e01b8152600401612c1d9190615aa8565b602060405180830381865af4158015612c3a573d6000803e3d6000fd5b505050506040513d601f19601f82011682018060405250810190612c5e91906152f3565b90508091505095945050505050565b600073ffffffffffffffffffffffffffffffffffffffff168173ffffffffffffffffffffffffffffffffffffffff161415612ca757600080fd5b612cb18282612d19565b15612cbb57600080fd5b60018260000160008373ffffffffffffffffffffffffffffffffffffffff1673ffffffffffffffffffffffffffffffffffffffff16815260200190815260200160002060006101000a81548160ff0219169083151502179055505050565b60008073ffffffffffffffffffffffffffffffffffffffff168273ffffffffffffffffffffffffffffffffffffffff161415612d5457600080fd5b8260000160008373ffffffffffffffffffffffffffffffffffffffff1673ffffffffffffffffffffffffffffffffffffffff16815260200190815260200160002060009054906101000a900460ff16905092915050565b612db4816123a0565b15612df4576040517f08c379a0000000000000000000000000000000000000000000000000000000008152600401612deb906146d9565b60405180910390fd5b612e08816003612c6d90919063ffffffff16565b50565b612e1481611ce1565b15612e54576040517f08c379a0000000000000000000000000000000000000000000000000000000008152600401612e4b90615b36565b60405180910390fd5b612e68816004612c6d90919063ffffffff16565b50565b612e736123bd565b612eb2576040517f08c379a0000000000000000000000000000000000000000000000000000000008152600401612ea990614647565b60405180910390fd5b612ebb816123a0565b15612efb576040517f08c379a0000000000000000000000000000000000000000000000000000000008152600401612ef2906146d9565b60405180910390fd5b612f0481612455565b15612f44576040517f08c379a0000000000000000000000000000000000000000000000000000000008152600401612f3b90615bc8565b60405180910390fd5b600d60405180608001604052808373ffffffffffffffffffffffffffffffffffffffff1681526020018481526020016000815260200160011515815250908060018154018082558091505060019003906000526020600020906004020160009091909190915060008201518160000160006101000a81548173ffffffffffffffffffffffffffffffffffffffff021916908373ffffffffffffffffffffffffffffffffffffffff160217905550602082015181600101908051906020019061300d929190613675565b506040820151816002015560608201518160030160006101000a81548160ff02191690831515021790555050505050565b61304781612455565b15613087576040517f08c379a000000000000000000000000000000000000000000000000000000000815260040161307e90615bc8565b60405180910390fd5b61309b816006612c6d90919063ffffffff16565b50565b600080600a905060008160ff16600f600081819054906101000a900460ff16809291906130ca90615be8565b91906101000a81548160ff021916908360ff16021790555060ff16436130f09190615c12565b4085604051602001613103929190615c67565b6040516020818303038152906040528051906020012060001c6131269190615c93565b905060fa600f60009054906101000a900460ff1660ff161115613160576000600f60006101000a81548160ff021916908360ff1602179055505b8092505050919050565b613172613653565b61317a613653565b6131838361309e565b8160006003811061319757613196614927565b5b602002019060ff16908160ff1681525050806000600381106131bc576131bb614927565b5b6020020151816001600381106131d5576131d4614927565b5b602002019060ff16908160ff16815250505b806000600381106131fb576131fa614927565b5b602002015160ff168160016003811061321757613216614927565b5b602002015160ff1614156132585761322e8361309e565b8160016003811061324257613241614927565b5b602002019060ff16908160ff16815250506131e7565b8060016003811061326c5761326b614927565b5b60200201518160026003811061328557613284614927565b5b602002019060ff16908160ff16815250505b806000600381106132ab576132aa614927565b5b602002015160ff16816002600381106132c7576132c6614927565b5b602002015160ff1614806133105750806001600381106132ea576132e9614927565b5b602002015160ff168160026003811061330657613305614927565b5b602002015160ff16145b156133485761331e8361309e565b8160026003811061333257613331614927565b5b602002019060ff16908160ff1681525050613297565b80915050919050565b61335a81612455565b613399576040517f08c379a000000000000000000000000000000000000000000000000000000000815260040161339090615d36565b60405180910390fd5b6133ad81600661348490919063ffffffff16565b50565b6133b9816119b0565b156133f9576040517f08c379a00000000000000000000000000000000000000000000000000000000081526004016133f090615dc8565b60405180910390fd5b61340d816005612c6d90919063ffffffff16565b50565b600061341a6123bd565b613459576040517f08c379a000000000000000000000000000000000000000000000000000000000815260040161345090614647565b60405180910390fd5b600b600083815260200190815260200160002060020160029054906101000a900460ff169050919050565b600073ffffffffffffffffffffffffffffffffffffffff168173ffffffffffffffffffffffffffffffffffffffff1614156134be57600080fd5b6134c88282612d19565b6134d157600080fd5b60008260000160008373ffffffffffffffffffffffffffffffffffffffff1673ffffffffffffffffffffffffffffffffffffffff16815260200190815260200160002060006101000a81548160ff0219169083151502179055505050565b8280548282559060005260206000209081019282156135a8579160200282015b828111156135a75782518260006101000a81548173ffffffffffffffffffffffffffffffffffffffff021916908373ffffffffffffffffffffffffffffffffffffffff1602179055509160200191906001019061354f565b5b5090506135b591906136fb565b5090565b826003601f016020900481019282156136425791602002820160005b8382111561361357835183826101000a81548160ff021916908360ff16021790555092602001926001016020816000010492830192600103026135d5565b80156136405782816101000a81549060ff0219169055600101602081600001049283019260010302613613565b505b50905061364f91906136fb565b5090565b6040518060600160405280600390602082028036833780820191505090505090565b82805461368190614bad565b90600052602060002090601f0160209004810192826136a357600085556136ea565b82601f106136bc57805160ff19168380011785556136ea565b828001600101855582156136ea579182015b828111156136e95782518255916020019190600101906136ce565b5b5090506136f791906136fb565b5090565b5b808211156137145760008160009055506001016136fc565b5090565b6000604051905090565b600080fd5b600080fd5b600073ffffffffffffffffffffffffffffffffffffffff82169050919050565b60006137578261372c565b9050919050565b6137678161374c565b811461377257600080fd5b50565b6000813590506137848161375e565b92915050565b6000602082840312156137a05761379f613722565b5b60006137ae84828501613775565b91505092915050565b600080fd5b600080fd5b6000601f19601f8301169050919050565b7f4e487b7100000000000000000000000000000000000000000000000000000000600052604160045260246000fd5b61380a826137c1565b810181811067ffffffffffffffff82111715613829576138286137d2565b5b80604052505050565b600061383c613718565b90506138488282613801565b919050565b600067ffffffffffffffff821115613868576138676137d2565b5b613871826137c1565b9050602081019050919050565b82818337600083830152505050565b60006138a061389b8461384d565b613832565b9050828152602081018484840111156138bc576138bb6137bc565b5b6138c784828561387e565b509392505050565b600082601f8301126138e4576138e36137b7565b5b81356138f484826020860161388d565b91505092915050565b6000806040838503121561391457613913613722565b5b600083013567ffffffffffffffff81111561393257613931613727565b5b61393e858286016138cf565b925050602061394f85828601613775565b9150509250929050565b60008115159050919050565b61396e81613959565b811461397957600080fd5b50565b60008135905061398b81613965565b92915050565b6000602082840312156139a7576139a6613722565b5b60006139b58482850161397c565b91505092915050565b600080fd5b600080fd5b60008083601f8401126139de576139dd6137b7565b5b8235905067ffffffffffffffff8111156139fb576139fa6139be565b5b602083019150836001820283011115613a1757613a166139c3565b5b9250929050565b600061ffff82169050919050565b613a3581613a1e565b8114613a4057600080fd5b50565b600081359050613a5281613a2c565b92915050565b600060ff82169050919050565b613a6e81613a58565b8114613a7957600080fd5b50565b600081359050613a8b81613a65565b92915050565b60008060008060008060008060e0898b031215613ab157613ab0613722565b5b6000613abf8b828c01613775565b985050602089013567ffffffffffffffff811115613ae057613adf613727565b5b613aec8b828c016139c8565b97509750506040613aff8b828c01613a43565b9550506060613b108b828c01613a7c565b9450506080613b218b828c01613a7c565b93505060a0613b328b828c01613a7c565b92505060c0613b438b828c01613a7c565b9150509295985092959890939650565b6000819050919050565b613b6681613b53565b8114613b7157600080fd5b50565b600081359050613b8381613b5d565b92915050565b600060208284031215613b9f57613b9e613722565b5b6000613bad84828501613b74565b91505092915050565b600081519050919050565b600082825260208201905092915050565b60005b83811015613bf0578082015181840152602081019050613bd5565b83811115613bff576000848401525b50505050565b6000613c1082613bb6565b613c1a8185613bc1565b9350613c2a818560208601613bd2565b613c33816137c1565b840191505092915050565b6000819050919050565b613c5181613c3e565b82525050565b613c6081613959565b82525050565b613c6f81613a58565b82525050565b613c7e8161374c565b82525050565b600060e0820190508181036000830152613c9e818a613c05565b9050613cad6020830189613c48565b613cba6040830188613c57565b613cc76060830187613c57565b613cd46080830186613c66565b613ce160a0830185613c48565b613cee60c0830184613c75565b98975050505050505050565b613d0381613c3e565b8114613d0e57600080fd5b50565b600081359050613d2081613cfa565b92915050565b600060208284031215613d3c57613d3b613722565b5b6000613d4a84828501613d11565b91505092915050565b613d5c81613b53565b82525050565b6000602082019050613d776000830184613d53565b92915050565b600060039050919050565b600081905092915050565b6000819050919050565b613da681613a58565b82525050565b6000613db88383613d9d565b60208301905092915050565b6000602082019050919050565b613dda81613d7d565b613de48184613d88565b9250613def82613d93565b8060005b83811015613e20578151613e078782613dac565b9650613e1283613dc4565b925050600181019050613df3565b505050505050565b6000606082019050613e3d6000830184613dd1565b92915050565b6000602082019050613e586000830184613c57565b92915050565b6000602082019050613e736000830184613c48565b92915050565b600060e082019050613e8e600083018a613d53565b8181036020830152613ea08189613c05565b9050613eaf6040830188613c57565b613ebc6060830187613c57565b613ec96080830186613c66565b613ed660a0830185613c48565b613ee360c0830184613c75565b98975050505050505050565b600081519050919050565b600082825260208201905092915050565b6000819050602082019050919050565b613f248161374c565b82525050565b600082825260208201905092915050565b6000613f4682613bb6565b613f508185613f2a565b9350613f60818560208601613bd2565b613f69816137c1565b840191505092915050565b613f7d81613c3e565b82525050565b613f8c81613959565b82525050565b6000608083016000830151613faa6000860182613f1b565b5060208301518482036020860152613fc28282613f3b565b9150506040830151613fd76040860182613f74565b506060830151613fea6060860182613f83565b508091505092915050565b60006140018383613f92565b905092915050565b6000602082019050919050565b600061402182613eef565b61402b8185613efa565b93508360208202850161403d85613f0b565b8060005b85811015614079578484038952815161405a8582613ff5565b945061406583614009565b925060208a01995050600181019050614041565b50829750879550505050505092915050565b600060208201905081810360008301526140a58184614016565b905092915050565b60008060008060008060c087890312156140ca576140c9613722565b5b600087013567ffffffffffffffff8111156140e8576140e7613727565b5b6140f489828a016138cf565b965050602061410589828a01613a43565b955050604061411689828a01613a7c565b945050606061412789828a01613a7c565b935050608061413889828a01613a7c565b92505060a061414989828a01613a7c565b9150509295509295509295565b600081519050919050565b600082825260208201905092915050565b6000819050602082019050919050565b61418b81613b53565b82525050565b600061419d8383614182565b60208301905092915050565b6000602082019050919050565b60006141c182614156565b6141cb8185614161565b93506141d683614172565b8060005b838110156142075781516141ee8882614191565b97506141f9836141a9565b9250506001810190506141da565b5085935050505092915050565b6000602082019050818103600083015261422e81846141b6565b905092915050565b60008060008060008060a0878903121561425357614252613722565b5b600061426189828a01613a7c565b965050602061427289828a01613775565b955050604087013567ffffffffffffffff81111561429357614292613727565b5b61429f89828a016139c8565b945094505060606142b289828a01613d11565b92505060806142c389828a01613a7c565b9150509295509295509295565b600080600080600080600060c0888a0312156142ef576142ee613722565b5b600088013567ffffffffffffffff81111561430d5761430c613727565b5b6143198a828b016139c8565b9750975050602061432c8a828b01613a43565b955050604061433d8a828b01613a7c565b945050606061434e8a828b01613a7c565b935050608061435f8a828b01613a7c565b92505060a06143708a828b01613a7c565b91505092959891949750929550565b60006020820190506143946000830184613c66565b92915050565b6000806000606084860312156143b3576143b2613722565b5b60006143c186828701613775565b935050602084013567ffffffffffffffff8111156143e2576143e1613727565b5b6143ee868287016138cf565b92505060406143ff86828701613d11565b9150509250925092565b600060e0820190508181036000830152614423818a613c05565b90506144326020830189613c75565b61443f6040830188613c57565b61444c6060830187613c57565b6144596080830186613c57565b61446660a0830185613c48565b61447360c0830184613c48565b98975050505050505050565b600060e082019050614494600083018a613d53565b6144a16020830189613d53565b6144ae6040830188613c75565b6144bb6060830187613c48565b6144c86080830186613c48565b6144d560a0830185613c57565b6144e260c0830184613c57565b98975050505050505050565b600080600080600060a0868803121561450a57614509613722565b5b600061451888828901613a43565b955050602061452988828901613a7c565b945050604061453a88828901613a7c565b935050606061454b88828901613a7c565b925050608061455c88828901613a7c565b9150509295509295909350565b7f43414c4c4552204953204e4f5420434f4e5452414354204f574e455200000000600082015250565b600061459f601c83613bc1565b91506145aa82614569565b602082019050919050565b600060208201905081810360008301526145ce81614592565b9050919050565b7f434f4e54524143542049532043555252454e544c59204e4f54204f504552415460008201527f494f4e414c000000000000000000000000000000000000000000000000000000602082015250565b6000614631602583613bc1565b915061463c826145d5565b604082019050919050565b6000602082019050818103600083015261466081614624565b9050919050565b7f4552524f523a204149524c494e4520495320414c52454144592052454749535460008201527f4552454400000000000000000000000000000000000000000000000000000000602082015250565b60006146c3602483613bc1565b91506146ce82614667565b604082019050919050565b600060208201905081810360008301526146f2816146b6565b9050919050565b7f4552524f523a2043414c4c4552204953204e4f5420434f4e54524f4c4c455200600082015250565b600061472f601f83613bc1565b915061473a826146f9565b602082019050919050565b6000602082019050818103600083015261475e81614722565b9050919050565b7f4e487b7100000000000000000000000000000000000000000000000000000000600052601160045260246000fd5b600061479f82613c3e565b91507fffffffffffffffffffffffffffffffffffffffffffffffffffffffffffffffff8214156147d2576147d1614765565b5b600182019050919050565b600060808201905081810360008301526147f78187613c05565b90506148066020830186613c75565b6148136040830185613c48565b6148206060830184613c57565b95945050505050565b7f43414c4c4552204953204e4f54204120434f4e54524f4c4c4552000000000000600082015250565b600061485f601a83613bc1565b915061486a82614829565b602082019050919050565b6000602082019050818103600083015261488e81614852565b9050919050565b7f4e4557204d4f4445204d555354204245204449464552454e542046524f4d205460008201527f4845204558495349544e47000000000000000000000000000000000000000000602082015250565b60006148f1602b83613bc1565b91506148fc82614895565b604082019050919050565b60006020820190508181036000830152614920816148e4565b9050919050565b7f4e487b7100000000000000000000000000000000000000000000000000000000600052603260045260246000fd5b7f4552524f523a2043414c4c45522048415320414c52454144592043414c4c454460008201527f20544849532046554e4354494f4e000000000000000000000000000000000000602082015250565b60006149b2602e83613bc1565b91506149bd82614956565b604082019050919050565b600060208201905081810360008301526149e1816149a5565b9050919050565b60008160f81b9050919050565b6000614a00826149e8565b9050919050565b614a18614a1382613a58565b6149f5565b82525050565b60008160601b9050919050565b6000614a3682614a1e565b9050919050565b6000614a4882614a2b565b9050919050565b614a60614a5b8261374c565b614a3d565b82525050565b600081905092915050565b6000614a7d8385614a66565b9350614a8a83858461387e565b82840190509392505050565b6000819050919050565b614ab1614aac82613c3e565b614a96565b82525050565b6000614ac38288614a07565b600182019150614ad38287614a4f565b601482019150614ae4828587614a71565b9150614af08284614aa0565b6020820191508190509695505050505050565b6000614b0f8385613bc1565b9350614b1c83858461387e565b614b25836137c1565b840190509392505050565b6000608082019050614b456000830188613c66565b614b526020830187613c75565b8181036040830152614b65818587614b03565b9050614b746060830184613c48565b9695505050505050565b7f4e487b7100000000000000000000000000000000000000000000000000000000600052602260045260246000fd5b60006002820490506001821680614bc557607f821691505b60208210811415614bd957614bd8614b7e565b5b50919050565b7f4552524f523a20524547495354524154494f4e2046454520495320524551554960008201527f5245440000000000000000000000000000000000000000000000000000000000602082015250565b6000614c3b602383613bc1565b9150614c4682614bdf565b604082019050919050565b60006020820190508181036000830152614c6a81614c2e565b9050919050565b7f4552524f523a20564f544552204953204e4f5420524547495354455245440000600082015250565b6000614ca7601e83613bc1565b9150614cb282614c71565b602082019050919050565b60006020820190508181036000830152614cd681614c9a565b9050919050565b7f4552524f523a204149524c494e4520564f54454420495320414c52454144592060008201527f5245474953544552454400000000000000000000000000000000000000000000602082015250565b6000614d39602a83613bc1565b9150614d4482614cdd565b604082019050919050565b60006020820190508181036000830152614d6881614d2c565b9050919050565b7f4552524f523a204149524c494e4520564f544544204953204e4f54204120434160008201527f4e44494441544500000000000000000000000000000000000000000000000000602082015250565b6000614dcb602783613bc1565b9150614dd682614d6f565b604082019050919050565b60006020820190508181036000830152614dfa81614dbe565b9050919050565b7f4552524f523a2043414c4c455220414c524541445920564f54454420464f522060008201527f54484953204149524c494e450000000000000000000000000000000000000000602082015250565b6000614e5d602c83613bc1565b9150614e6882614e01565b604082019050919050565b60006020820190508181036000830152614e8c81614e50565b9050919050565b6000614e9e82613c3e565b9150614ea983613c3e565b9250827fffffffffffffffffffffffffffffffffffffffffffffffffffffffffffffffff03821115614ede57614edd614765565b5b828201905092915050565b6000614ef482613c3e565b9150614eff83613c3e565b9250817fffffffffffffffffffffffffffffffffffffffffffffffffffffffffffffffff0483118215151615614f3857614f37614765565b5b828202905092915050565b7f4e487b7100000000000000000000000000000000000000000000000000000000600052601260045260246000fd5b6000614f7d82613c3e565b9150614f8883613c3e565b925082614f9857614f97614f43565b5b828204905092915050565b7f4552524f523a204f5241434c45204e4f54205245474953544552454400000000600082015250565b6000614fd9601c83613bc1565b9150614fe482614fa3565b602082019050919050565b6000602082019050818103600083015261500881614fcc565b9050919050565b7f4552524f523a20464c49474854204953204e4f54205245474953544552454400600082015250565b6000615045601f83613bc1565b91506150508261500f565b602082019050919050565b6000602082019050818103600083015261507481615038565b9050919050565b60006040820190506150906000830185613c75565b61509d6020830184613d53565b9392505050565b60006020820190506150b96000830184613c75565b92915050565b600067ffffffffffffffff8211156150da576150d96137d2565b5b602082029050602081019050919050565b6000815190506150fa81613b5d565b92915050565b600061511361510e846150bf565b613832565b90508083825260208201905060208402830185811115615136576151356139c3565b5b835b8181101561515f578061514b88826150eb565b845260208401935050602081019050615138565b5050509392505050565b600082601f83011261517e5761517d6137b7565b5b815161518e848260208601615100565b91505092915050565b6000602082840312156151ad576151ac613722565b5b600082015167ffffffffffffffff8111156151cb576151ca613727565b5b6151d784828501615169565b91505092915050565b7f4552524f523a2043414c4c4552204953204e4f54205245474953544552454400600082015250565b6000615216601f83613bc1565b9150615221826151e0565b602082019050919050565b6000602082019050818103600083015261524581615209565b9050919050565b7f4552524f523a2043414c4c455220495320414c5245414459204120504152544960008201527f434950414e540000000000000000000000000000000000000000000000000000602082015250565b60006152a8602683613bc1565b91506152b38261524c565b604082019050919050565b600060208201905081810360008301526152d78161529b565b9050919050565b6000815190506152ed81613cfa565b92915050565b60006020828403121561530957615308613722565b5b6000615317848285016152de565b91505092915050565b7f4552524f523a20494e444558204e4f54204d41544348494e47204f5241434c4560008201527f2052455155455354000000000000000000000000000000000000000000000000602082015250565b600061537c602883613bc1565b915061538782615320565b604082019050919050565b600060208201905081810360008301526153ab8161536f565b9050919050565b7f4552524f523a20464c494748542f54494d455354414d50204e4f54204d41544360008201527f48494e47204f5241434c45205245515545535400000000000000000000000000602082015250565b600061540e603383613bc1565b9150615419826153b2565b604082019050919050565b6000602082019050818103600083015261543d81615401565b9050919050565b60006080820190506154596000830188613c75565b818103602083015261546c818688614b03565b905061547b6040830185613c48565b6154886060830184613c66565b9695505050505050565b6000815190506154a181613965565b92915050565b6000602082840312156154bd576154bc613722565b5b60006154cb84828501615492565b91505092915050565b7f4552524f523a2043414c4c4552204953204e4f5420412050415254494349504160008201527f4e54000000000000000000000000000000000000000000000000000000000000602082015250565b6000615530602283613bc1565b915061553b826154d4565b604082019050919050565b6000602082019050818103600083015261555f81615523565b9050919050565b7f4552524f523a20464c494748542054494d45204d555354204245204154204c4560008201527f41535420343820484f555253205448414e204e4f570000000000000000000000602082015250565b60006155c2603583613bc1565b91506155cd82615566565b604082019050919050565b600060208201905081810360008301526155f1816155b5565b9050919050565b7f4552524f523a20464c4947485420414c52454144592052454749535445524544600082015250565b600061562e602083613bc1565b9150615639826155f8565b602082019050919050565b6000602082019050818103600083015261565d81615621565b9050919050565b7f4552524f523a2043414c4c4552204953204e4f5420414c4c4f57454420544f2060008201527f42555920494e535552414e434500000000000000000000000000000000000000602082015250565b60006156c0602d83613bc1565b91506156cb82615664565b604082019050919050565b600060208201905081810360008301526156ef816156b3565b9050919050565b7f4552524f523a20464c49474854204e4f5420464f554e44000000000000000000600082015250565b600061572c601783613bc1565b9150615737826156f6565b602082019050919050565b6000602082019050818103600083015261575b8161571f565b9050919050565b60006060820190506157776000830186613d53565b6157846020830185613c75565b6157916040830184613c75565b949350505050565b60006157a482613bb6565b6157ae8185614a66565b93506157be818560208601613bd2565b80840191505092915050565b60006157d68286614a4f565b6014820191506157e68285615799565b91506157f28284614aa0565b602082019150819050949350505050565b60006158166158118461384d565b613832565b905082815260208101848484011115615832576158316137bc565b5b61583d848285613bd2565b509392505050565b600082601f83011261585a576158596137b7565b5b815161586a848260208601615803565b91505092915050565b6000815190506158828161375e565b92915050565b600080600080600080600060e0888a0312156158a7576158a6613722565b5b600088015167ffffffffffffffff8111156158c5576158c4613727565b5b6158d18a828b01615845565b97505060206158e28a828b01615873565b96505060406158f38a828b01615492565b95505060606159048a828b01615492565b94505060806159158a828b01615492565b93505060a06159268a828b016152de565b92505060c06159378a828b016152de565b91505092959891949750929550565b600080600080600080600060e0888a03121561596557615964613722565b5b60006159738a828b016150eb565b97505060206159848a828b016150eb565b96505060406159958a828b01615873565b95505060606159a68a828b016152de565b94505060806159b78a828b016152de565b93505060a06159c88a828b01615492565b92505060c06159d98a828b01615492565b91505092959891949750929550565b6159f181613a1e565b82525050565b615a0081613a58565b82525050565b61010082016000820151615a1d60008501826159e8565b506020820151615a3060208501826159f7565b506040820151615a4360408501826159f7565b506060820151615a5660608501826159f7565b506080820151615a6960808501826159f7565b5060a0820151615a7c60a08501826159f7565b5060c0820151615a8f60c08501826159f7565b5060e0820151615aa260e08501826159f7565b50505050565b600061010082019050615abe6000830184615a06565b92915050565b7f4552524f523a204149524c494e4520495320414c5245414459204120434f4e5460008201527f524f4c4c45520000000000000000000000000000000000000000000000000000602082015250565b6000615b20602683613bc1565b9150615b2b82615ac4565b604082019050919050565b60006020820190508181036000830152615b4f81615b13565b9050919050565b7f4552524f523a204149524c494e4520495320414c524541445920412043414e4460008201527f4944415445000000000000000000000000000000000000000000000000000000602082015250565b6000615bb2602583613bc1565b9150615bbd82615b56565b604082019050919050565b60006020820190508181036000830152615be181615ba5565b9050919050565b6000615bf382613a58565b915060ff821415615c0757615c06614765565b5b600182019050919050565b6000615c1d82613c3e565b9150615c2883613c3e565b925082821015615c3b57615c3a614765565b5b828203905092915050565b6000819050919050565b615c61615c5c82613b53565b615c46565b82525050565b6000615c738285615c50565b602082019150615c838284614a4f565b6014820191508190509392505050565b6000615c9e82613c3e565b9150615ca983613c3e565b925082615cb957615cb8614f43565b5b828206905092915050565b7f4552524f523a204149524c494e45204953204e4f5420412043414e444944415460008201527f4500000000000000000000000000000000000000000000000000000000000000602082015250565b6000615d20602183613bc1565b9150615d2b82615cc4565b604082019050919050565b60006020820190508181036000830152615d4f81615d13565b9050919050565b7f4552524f523a204149524c494e4520495320414c52454144592041205041525460008201527f49434950414e5400000000000000000000000000000000000000000000000000602082015250565b6000615db2602783613bc1565b9150615dbd82615d56565b604082019050919050565b60006020820190508181036000830152615de181615da5565b905091905056fea2646970667358221220df3af5ef5d00e70c150123b56d3d27727bb1d2a2eff5ff9dd5075a02db39fca564736f6c634300080b0033",
  "immutableReferences": {},
  "source": "// SPDX-License-Identifier: MIT\npragma solidity ^0.8.0;\n\nimport \"./DateLib.sol\";\nimport \"./RoleLib.sol\";\n\nimport \"@openzeppelin/contracts/utils/math/SafeMath.sol\";\n// import \"../node_modules/openzeppelin-solidity/contracts/math/SafeMath.sol\";\n\ncontract FlightSuretyApp {\n    using SafeMath for uint256;\n\n    bool private operational = true;            // BLOCKS ALL STATE CHANGES THROUGHOUT THE CONTRACT IF FALSE\n    address[] multiCalls = new address[](0);\n    uint M = 3;\n\n\n    /********************************************************************************************/\n    /*                                          DATELIB                                         */\n    /********************************************************************************************/\n    using DateLib for DateLib.DateTime;         //LIBRARY USED TO CONVERT HUMAN DATE TIME TO EPOCH TIMESTAMP\n\n    function getDateTime(uint16 _year, uint8 _month, uint8 _day, uint8 _hour, uint8 _minute) public pure returns(uint) {\n        uint unixDate = DateLib.toUnixTimestamp(DateLib.DateTime({\n            year: _year,\n            month: _month,\n            day: _day,\n            hour: _hour,\n            minute: _minute,\n            second: 0,\n            ms: 0,\n            weekday: 0\n        }));\n        \n        return unixDate;\n    }\n    \n    /********************************************************************************************/\n    /*                                         ROLELIB                                          */\n    /********************************************************************************************/\n    using RoleLib for RoleLib.Role;             //LIBRARY USED TO CLASSIFY AIRLINES INTO DIFFERENT ROLES\n\n    RoleLib.Role private registers;\n    RoleLib.Role private controllers;\n    RoleLib.Role private participants;\n    RoleLib.Role private candidates;            \n\n    function register(address _address) internal {\n        require(!isRegistered(_address), \"ERROR: AIRLINE IS ALREADY REGISTERED\");\n        registers.add(_address);\n    }\n\n    function addController(address _address) internal {\n        require(!isController(_address), \"ERROR: AIRLINE IS ALREADY A CONTROLLER\");\n        controllers.add(_address);\n    }\n\n    function addParticipant(address _address) internal {\n        require(!isParticipant(_address), \"ERROR: AIRLINE IS ALREADY A PARTICIPANT\");\n        participants.add(_address);\n    }\n    \n    function addCandidate(address _address) internal {\n        require(!isCandidate(_address), \"ERROR: AIRLINE IS ALREADY A CANDIDATE\");\n        candidates.add(_address);\n    }\n\n    function removeCandidate(address _address) internal {\n        require(isCandidate(_address), \"ERROR: AIRLINE IS NOT A CANDIDATE\");\n        candidates.remove(_address);\n    }\n\n\n    /********************************************************************************************/\n    /*                                       DATA VARIABLES                                     */\n    /********************************************************************************************/\n    FlightSuretyData flightSuretyData;\n    // Flight status codees\n    uint8 private constant STATUS_CODE_UNKNOWN = 0;\n    uint8 private constant STATUS_CODE_ON_TIME = 10;\n    uint8 private constant STATUS_CODE_LATE_AIRLINE = 20;\n    uint8 private constant STATUS_CODE_LATE_WEATHER = 30;\n    uint8 private constant STATUS_CODE_LATE_TECHNICAL = 40;\n    uint8 private constant STATUS_CODE_LATE_OTHER = 50;\n\n    address private contractOwner;          // Account used to deploy contract\n\n    uint aCounter = 1;\n    uint fCounter = 0;    \n\n    struct Flight{\n        string          flight;\n        uint            flightId;\n        bool            active;\n        bool            isRegistered;\n        uint8           statusCode;\n        uint256         updatedTimestamp;\n        address         airlineAddress;\n    }\n    mapping(bytes32 => Flight) public flights;\n    mapping(uint => bytes32) public flightsReverse;\n\n\n    /********************************************************************************************/\n    /*                             CANDIDATE AIRLINE VARIABLES                                  */\n    /********************************************************************************************/\n    struct Proposal {\n        address         proposedAddress;\n        string          proposedName;\n        uint            voteCount;\n        bool            active;\n    }\n    Proposal[] private proposals;\n    mapping(address => address[]) voters;\n\n\n    /********************************************************************************************/\n    /*                                       FUNCTION MODIFIERS                                 */\n    /********************************************************************************************/\n    modifier requireIsOperational() {\n        require(isOperational(), \"CONTRACT IS CURRENTLY NOT OPERATIONAL\");\n        _;\n    }\n    \n    modifier requireContractOwner() {\n        require(msg.sender == contractOwner, \"CALLER IS NOT CONTRACT OWNER\");\n        _;\n    }\n\n    modifier requireController() {\n        require(msg.sender == contractOwner || controllers.has(msg.sender), \"CALLER IS NOT A CONTROLLER\");\n        _;\n    }\n\n\n    /********************************************************************************************/\n    /*                                       CONSTRUCTOR                                        */\n    /********************************************************************************************/\n    constructor(address dataContract) {\n        contractOwner = msg.sender;\n        flightSuretyData = FlightSuretyData(dataContract);\n        address _firstAirlineAddress = flightSuretyData.getFirstAirlineAddress();\n        register(_firstAirlineAddress);\n        addController(_firstAirlineAddress);\n    }\n\n\n    /********************************************************************************************/\n    /*                                  OPERATIONAL STATUS CONTROL                              */\n    /********************************************************************************************/\n    function setOperatingStatus(bool mode) external requireController() {\n        require(mode != operational, \"NEW MODE MUST BE DIFERENT FROM THE EXISITNG\");\n\n        bool isDuplicate = false;\n        for(uint c = 0; c < multiCalls.length; c++) {\n            if (multiCalls[c] == msg.sender) {\n                isDuplicate = true;\n                break;\n            }\n        }\n        \n        require(!isDuplicate, \"ERROR: CALLER HAS ALREADY CALLED THIS FUNCTION\");\n\n        multiCalls.push(msg.sender);\n        if (multiCalls.length >= M) {\n            operational = mode;\n            multiCalls = new address[](0);\n        }\n    }\n\n\n    /********************************************************************************************/\n    /*                                       UTILITY FUNCTIONS                                  */\n    /********************************************************************************************/\n    function isOperational() public view returns(bool) {\n        return flightSuretyData.isOperational();\n    }\n\n    function setDataContract(address dataContract) external requireContractOwner {\n        flightSuretyData = FlightSuretyData(dataContract);\n    }\n\n    function isController(address _address) public view returns(bool) {\n        //return controllers.has(_address);\n        return (_address == contractOwner || controllers.has(_address));\n    }\n\n    function isRegistered(address _address) public view returns(bool) {\n        return registers.has(_address);\n    }\n\n    function isParticipant(address _address) public view returns(bool) {\n        return participants.has(_address); \n    }\n\n    function isCandidate(address _address) public view returns(bool) {\n        return candidates.has(_address);\n    }\n\n\n    /********************************************************************************************/\n    /*                                        AIRLINE FUNCTIONS                                 */\n    /********************************************************************************************/\n    function registerAirline(string memory _name, address _address) public requireIsOperational() {\n        require(!isRegistered(_address), \"ERROR: AIRLINE IS ALREADY REGISTERED\");\n        \n        if(aCounter < 4) {\n            require(msg.sender == contractOwner || isController(msg.sender), \"ERROR: CALLER IS NOT CONTROLLER\");\n            \n            aCounter ++;\n            flightSuretyData.registerAirline(_name, _address, aCounter, true);\n            \n            register(_address);\n            addController(_address);\n        \n        } else {\n            candidateAirline(_name, _address);\n\n            addCandidate(_address);\n        }\n    }\n\n    function checkAirlines(address _address) public view \n    returns(string memory name_, address address_, bool registered_, bool participant_, bool controller_, uint fundavailable_, uint fundcommitted_) {   \n        return flightSuretyData.checkAirlines(_address);\n    }\n\n    function candidateAirline(string memory _name, address _address) internal requireIsOperational() {\n        require(!isRegistered(_address), \"ERROR: AIRLINE IS ALREADY REGISTERED\");\n        require(!isCandidate(_address), \"ERROR: AIRLINE IS ALREADY A CANDIDATE\");\n        \n        proposals.push(Proposal({\n            proposedAddress: _address,\n            proposedName: _name,\n            voteCount: 0,\n            active: true\n            })\n        );\n    }\n\n    function checkCandidateAirlines() public view returns(Proposal[] memory ) {\n        return proposals;\n    }\n\n    function vote(string memory _name, address _address) public requireIsOperational() {\n        require(isRegistered(msg.sender), \"ERROR: VOTER IS NOT REGISTERED\");\n        require(!isRegistered(_address), \"ERROR: AIRLINE VOTED IS ALREADY REGISTERED\");\n        require(isCandidate(_address), \"ERROR: AIRLINE VOTED IS NOT A CANDIDATE\");\n        \n        bool found = false;\n        uint result = 0;\n        for (uint v = 0; v < voters[msg.sender].length; v++) {\n            if(voters[msg.sender][v] == _address){\n                found = true;\n                revert(\"ERROR: CALLER ALREADY VOTED FOR THIS AIRLINE\");\n            }\n        }\n        if(!found){\n            voters[msg.sender].push(_address);\n        }\n        for (uint p = 0; p < proposals.length; p++) {\n            if (proposals[p].proposedAddress == _address) {\n                proposals[p].voteCount += 1;\n                result = (proposals[p].voteCount * 100) / aCounter;\n                if(result >= 50){\n                    aCounter ++;\n                    flightSuretyData.registerAirline(_name, _address, aCounter, false);\n\n                    register(_address);\n                    removeCandidate(_address);\n                    proposals[p].active = false;\n                }\n                break;\n            }\n        }\n    }\n\n\n    /********************************************************************************************/\n    /*                                       FUNDING FUNCTIONS                                  */\n    /********************************************************************************************/\n    function fund() public payable requireIsOperational() {\n        require(isRegistered(msg.sender), \"ERROR: CALLER IS NOT REGISTERED\");\n        require(!isParticipant(msg.sender), \"ERROR: CALLER IS ALREADY A PARTICIPANT\");\n\n        flightSuretyData.fund{value: msg.value}(msg.sender);\n\n        addParticipant(msg.sender);\n    }\n\n\n    /********************************************************************************************/\n    /*                                        FLIGHT FUNCTIONS                                  */\n    /********************************************************************************************/\n    function registerFlight(string memory _flight, uint16 _year, uint8 _month, uint8 _day, uint8 _hour, uint8 _minute) public {\n        require(isParticipant(msg.sender), \"ERROR: CALLER IS NOT A PARTICIPANT\");\n        \n        uint _timestamp = getDateTime(_year, _month, _day, _hour, _minute);\n        require(_timestamp > block.timestamp + 172800, \"ERROR: FLIGHT TIME MUST BE AT LEAST 48 HOURS THAN NOW\");\n         \n        bytes32 _flightKey = getFlightKey(msg.sender, _flight, _timestamp);\n        require(!checkFlight(_flightKey), \"ERROR: FLIGHT ALREADY REGISTERED\");\n        \n        fCounter++;\n        flights[_flightKey] = Flight({\n            flight: _flight,\n            flightId: fCounter,\n            active: true,\n            isRegistered: true,\n            statusCode: 0,\n            updatedTimestamp: _timestamp,\n            airlineAddress: msg.sender\n        });\n\n        flightsReverse[fCounter] = _flightKey;\n\n    }\n\n    function checkFlight(bytes32 _flightKey) public view requireIsOperational() returns(bool) {\n        return flights[_flightKey].isRegistered;\n    }\n\n    function updateFlightTimestamp(bytes32 _flightKey, uint256 _timestamp) internal requireIsOperational() {\n        flights[_flightKey].updatedTimestamp = _timestamp;\n    }\n\n    function updateFlightStatus(bytes32 _flightKey, uint8 _statusCode) internal requireIsOperational()  {\n        flights[_flightKey].statusCode = _statusCode;\n    }\n\n    function getFlightStatus(bytes32 _flightKey) internal view requireIsOperational() returns(uint8) {\n        return flights[_flightKey].statusCode;\n    }\n\n    function checkFlights(uint _flightId) public view requireIsOperational()\n        returns(bytes32 flightKey_, string memory flight_, bool active_, bool isRegistered_, uint8 status_, uint256 timestamp_, address address_) \n    {\n        bytes32 _flightKey = flightsReverse[_flightId];\n        require(checkFlight(_flightKey), \"ERROR: FLIGHT IS NOT REGISTERED\");\n        return(_flightKey\n            , flights[_flightKey].flight\n            , flights[_flightKey].active\n            , flights[_flightKey].isRegistered\n            , flights[_flightKey].statusCode\n            , flights[_flightKey].updatedTimestamp\n            , flights[_flightKey].airlineAddress\n        );\n    }\n\n\n    /********************************************************************************************/\n    /*                                   PROCESS FLIGHT FUNCTION                                */\n    /********************************************************************************************/\n    function processFlightStatus(string memory _flight, uint16 _year, uint8 _month, uint8 _day, uint8 _hour, uint8 _minute, uint8 _statusCode) internal {\n        uint _timestamp = getDateTime(_year, _month, _day, _hour, _minute);\n        bytes32 _flightKey = getFlightKey(msg.sender, _flight, _timestamp);\n        \n        require(checkFlight(_flightKey), \"ERROR: FLIGHT IS NOT REGISTERED\");\n\n        updateFlightTimestamp(_flightKey, _timestamp);\n        updateFlightStatus(_flightKey, _statusCode);\n\n        if (_statusCode == STATUS_CODE_LATE_AIRLINE) {\n            flightSuretyData.creditInsurees(_flightKey);\n        }\n    }\n\n\n    /********************************************************************************************/\n    /*                                     PASSENGER FUNCTIONS                                  */\n    /********************************************************************************************/\n    function buy(uint _flightId) public payable requireIsOperational() {\n        require(!isRegistered(msg.sender) && msg.sender != contractOwner, \"ERROR: CALLER IS NOT ALLOWED TO BUY INSURANCE\");\n        \n        bytes32 _flightKey = flightsReverse[_flightId];\n        require(checkFlight(_flightKey), \"ERROR: FLIGHT NOT FOUND\");\n\n        address _airlineAddress = flights[_flightKey].airlineAddress;\n\n        flightSuretyData.buy{value: msg.value}(_flightKey, msg.sender, _airlineAddress);\n\n    }\n\n    function checkPassengerInsurances() public view requireIsOperational() returns(bytes32[] memory) {\n        return flightSuretyData.checkPassengerInsurances(msg.sender);\n    }\n\n    function checkInsuranceAmountPaid(uint _flightId) public view requireIsOperational() returns(uint) {\n        bytes32 _flightKey = flightsReverse[_flightId];\n        require(checkFlight(_flightKey), \"ERROR: FLIGHT IS NOT REGISTERED\");\n        return flightSuretyData.checkInsuranceAmountPaid(msg.sender, _flightKey);\n    }\n    \n    function checkInsurances(uint _insuranceId) public view requireIsOperational()\n    returns(bytes32 insuranceKey_, bytes32 flightKey_, address passengerAddress_, uint amountPaid_, uint amountAvailable_, bool claimable_, bool active_) {   \n        return flightSuretyData.checkInsurances(_insuranceId);\n    }\n\n\n\n\n\n    // Generate a request for oracles to fetch flight information\n    function fetchFlightStatus(address _airline, string calldata _flight, uint16 _year, uint8 _month, uint8 _day, uint8 _hour, uint8 _minute) external {\n        uint8 index = getRandomIndex(msg.sender);\n\n        uint _timestamp = getDateTime(_year, _month, _day, _hour, _minute);\n\n        // Generate a unique key for storing the request\n        bytes32 key = keccak256(abi.encodePacked(index, _airline, _flight, _timestamp));\n        oracleResponses[key].requester = msg.sender;\n        oracleResponses[key].isOpen = true;\n\n        emit OracleRequest(index, _airline, _flight, _timestamp);\n    }\n\n    // Query the status of any flight\n    function viewFlightStatus(string calldata _flight, uint16 _year, uint8 _month, uint8 _day, uint8 _hour, uint8 _minute) external view returns(uint8) {\n        uint _timestamp = getDateTime(_year, _month, _day, _hour, _minute);\n\n        bytes32 _flightKey = getFlightKey(msg.sender, _flight, _timestamp);\n        return getFlightStatus(_flightKey);\n    }\n\n    function withdrawCredit(string memory _flight, uint16 _year, uint8 _month, uint8 _day, uint8 _hour, uint8 _minute) public {\n        //uint _timestamp = flightSuretyData.getDateTime(_year, _month, _day, _hour, _minute);\n        uint _timestamp = getDateTime(_year, _month, _day, _hour, _minute);\n\n        bytes32 _flightKey = getFlightKey(msg.sender, _flight, _timestamp);\n        flightSuretyData.pay(msg.sender, _flightKey);\n    }\n\n// region ORACLE MANAGEMENT\n\n    // Incremented to add pseudo-randomness at various points\n    uint8 private nonce = 0;\n\n    // Fee to be paid when registering oracle\n    uint256 public constant REGISTRATION_FEE = 1 ether;\n\n    // Number of oracles that must respond for valid status\n    uint256 private constant MIN_RESPONSES = 3;\n\n\n    struct Oracle {\n        bool isRegistered;\n        uint8[3] indexes;\n    }\n\n    // Track all registered oracles\n    mapping(address => Oracle) private oracles;\n\n    // Model for responses from oracles\n    struct ResponseInfo {\n        address requester;                              // Account that requested status\n        bool isOpen;                                    // If open, oracle responses are accepted\n        mapping(uint8 => address[]) responses;          // Mapping key is the status code reported\n                                                        // This lets us group responses and identify\n                                                        // the response that majority of the oracles\n    }\n\n    // Track all oracle responses\n    // Key = hash(index, flight, timestamp)\n    mapping(bytes32 => ResponseInfo) private oracleResponses;\n\n    // Event fired each time an oracle submits a response\n    event FlightStatusInfo(address airline, string flight, uint256 timestamp, uint8 status);\n\n    event OracleReport(address airline, string flight, uint256 timestamp, uint8 status);\n\n    // Event fired when flight status request is submitted\n    // Oracles track this and if they have a matching index\n    // they fetch data and submit a response\n    event OracleRequest(uint8 index, address airline, string flight, uint256 timestamp);\n\n\n    // Register an oracle with the contract\n    function registerOracle() external payable {\n        // Require registration fee\n        require(msg.value >= REGISTRATION_FEE, \"ERROR: REGISTRATION FEE IS REQUIRED\");\n\n        uint8[3] memory indexes = generateIndexes(msg.sender);\n\n        oracles[msg.sender] = Oracle({\n                                        isRegistered: true,\n                                        indexes: indexes\n                                    });\n    }\n\n    function getMyIndexes() external view returns(uint8[3] memory) {\n        require(oracles[msg.sender].isRegistered, \"ERROR: ORACLE NOT REGISTERED\");\n\n        return oracles[msg.sender].indexes;\n    }\n\n    // Called by oracle when a response is available to an outstanding request\n    // For the response to be accepted, there must be a pending request that is open\n    // and matches one of the three Indexes randomly assigned to the oracle at the\n    // time of registration (i.e. uninvited oracles are not welcome)\n    function submitOracleResponse(uint8 index, address airline, string calldata flight, uint256 timestamp, uint8 statusCode)\n    external {\n        require((oracles[msg.sender].indexes[0] == index) || (oracles[msg.sender].indexes[1] == index) || (oracles[msg.sender].indexes[2] == index), \"ERROR: INDEX NOT MATCHING ORACLE REQUEST\");\n\n\n        bytes32 key = keccak256(abi.encodePacked(index, airline, flight, timestamp));\n        require(oracleResponses[key].isOpen, \"ERROR: FLIGHT/TIMESTAMP NOT MATCHING ORACLE REQUEST\");\n\n        oracleResponses[key].responses[statusCode].push(msg.sender);\n\n        // Information isn't considered verified until at least MIN_RESPONSES\n        // oracles respond with the *** same *** information\n        emit OracleReport(airline, flight, timestamp, statusCode);\n        if (oracleResponses[key].responses[statusCode].length >= MIN_RESPONSES) {\n\n            emit FlightStatusInfo(airline, flight, timestamp, statusCode);\n\n            // Handle flight status as appropriate\n            //processFlightStatus(flight, timestamp, statusCode);\n        }\n    }\n\n    function getFlightKey(address airline, string memory flight, uint256 timestamp) pure public returns(bytes32) {\n        return keccak256(abi.encodePacked(airline, flight, timestamp));\n    }\n\n    // Returns array of three non-duplicating integers from 0-9\n    function generateIndexes(address _account) internal returns(uint8[3] memory) {\n        uint8[3] memory indexes;\n        indexes[0] = getRandomIndex(_account);\n\n        indexes[1] = indexes[0];\n        while(indexes[1] == indexes[0]) {\n            indexes[1] = getRandomIndex(_account);\n        }\n\n        indexes[2] = indexes[1];\n        while((indexes[2] == indexes[0]) || (indexes[2] == indexes[1])) {\n            indexes[2] = getRandomIndex(_account);\n        }\n\n        return indexes;\n    }\n\n    // Returns array of three non-duplicating integers from 0-9\n    function getRandomIndex(address _account) internal returns (uint8) {\n        uint8 maxValue = 10;\n\n        // Pseudo random number...the incrementing nonce adds variation\n        uint8 random = uint8(uint256(keccak256(abi.encodePacked(blockhash(block.number - nonce++), _account))) % maxValue);\n\n        if (nonce > 250) {\n            nonce = 0;  // Can only fetch blockhashes for last 256 blocks so we adapt\n        }\n\n        return random;\n    }\n\n// endregion\n\n}\n\ncontract FlightSuretyData {\n\n    function isOperational() external view returns(bool) {}\n\n    function getFirstAirlineAddress() external view returns(address){}\n    \n    function registerAirline(string memory _name, address _address, uint _aCounter, bool _controller) external {}\n\n    function candidateAirline(string memory _name, address _address) external {}\n\n    function fund(address _address) external payable {}\n    \n    function checkAirlines(address _airlineAddress) external view \n    returns(string memory name_, address address_, bool registered_, bool participant_, bool controller_, uint fundavailable_, uint fundcommitted_) {}\n\n    function buy(bytes32 _flightKey, address _passengerAddress, address _airlineAddress) external payable {}\n\n    function checkInsurances(uint _insuranceId) external view\n    returns(bytes32 insuranceKey_, bytes32 flightKey_, address passengerAddress_, uint amountPaid_, uint amountAvailable_, bool claimable_, bool active_) {}\n\n    function checkPassengerInsurances(address _passengerAddress) external view returns(bytes32[] memory) {}\n\n    function checkInsuranceAmountPaid(address _passengerAddress, bytes32 _flightKey) external view returns(uint amountPaid_) {}\n\n    function creditInsurees(bytes32 _flightKey) external {}\n\n    function pay(address _passengerAddress, bytes32 _flightKey) external {}\n\n}\n",
  "sourcePath": "/Users/fernandomaximof/Documents/udacity-projects/project4/contracts/FlightSuretyApp.sol",
  "compiler": {
    "name": "solc",
    "version": "0.8.11+commit.d7f03943.Emscripten.clang"
  },
  "schemaVersion": "3.4.3",
  "updatedAt": "2022-02-01T09:04:38.878Z",
  "networkType": "ethereum",
  "devdoc": {
    "kind": "dev",
    "methods": {},
    "version": 1
  },
  "userdoc": {
    "kind": "user",
    "methods": {},
    "version": 1
  }
}