{
  "contractName": "FlightSuretyApp",
  "abi": [
    {
      "inputs": [
        {
          "internalType": "address",
          "name": "dataContract",
          "type": "address"
        }
      ],
      "stateMutability": "nonpayable",
      "type": "constructor"
    },
    {
      "anonymous": false,
      "inputs": [
        {
          "indexed": false,
          "internalType": "address",
          "name": "airline",
          "type": "address"
        },
        {
          "indexed": false,
          "internalType": "string",
          "name": "flight",
          "type": "string"
        },
        {
          "indexed": false,
          "internalType": "uint256",
          "name": "timestamp",
          "type": "uint256"
        },
        {
          "indexed": false,
          "internalType": "uint8",
          "name": "status",
          "type": "uint8"
        }
      ],
      "name": "FlightStatusInfo",
      "type": "event"
    },
    {
      "anonymous": false,
      "inputs": [
        {
          "indexed": false,
          "internalType": "address",
          "name": "airline",
          "type": "address"
        },
        {
          "indexed": false,
          "internalType": "string",
          "name": "flight",
          "type": "string"
        },
        {
          "indexed": false,
          "internalType": "uint256",
          "name": "timestamp",
          "type": "uint256"
        },
        {
          "indexed": false,
          "internalType": "uint8",
          "name": "status",
          "type": "uint8"
        }
      ],
      "name": "OracleReport",
      "type": "event"
    },
    {
      "anonymous": false,
      "inputs": [
        {
          "indexed": false,
          "internalType": "uint8",
          "name": "index",
          "type": "uint8"
        },
        {
          "indexed": false,
          "internalType": "address",
          "name": "airline",
          "type": "address"
        },
        {
          "indexed": false,
          "internalType": "string",
          "name": "flight",
          "type": "string"
        },
        {
          "indexed": false,
          "internalType": "uint256",
          "name": "timestamp",
          "type": "uint256"
        }
      ],
      "name": "OracleRequest",
      "type": "event"
    },
    {
      "inputs": [],
      "name": "REGISTRATION_FEE",
      "outputs": [
        {
          "internalType": "uint256",
          "name": "",
          "type": "uint256"
        }
      ],
      "stateMutability": "view",
      "type": "function",
      "constant": true
    },
    {
      "inputs": [
        {
          "internalType": "uint16",
          "name": "_year",
          "type": "uint16"
        },
        {
          "internalType": "uint8",
          "name": "_month",
          "type": "uint8"
        },
        {
          "internalType": "uint8",
          "name": "_day",
          "type": "uint8"
        },
        {
          "internalType": "uint8",
          "name": "_hour",
          "type": "uint8"
        },
        {
          "internalType": "uint8",
          "name": "_minute",
          "type": "uint8"
        }
      ],
      "name": "getDateTime",
      "outputs": [
        {
          "internalType": "uint256",
          "name": "",
          "type": "uint256"
        }
      ],
      "stateMutability": "pure",
      "type": "function",
      "constant": true
    },
    {
      "inputs": [
        {
          "internalType": "bool",
          "name": "mode",
          "type": "bool"
        }
      ],
      "name": "setOperatingStatus",
      "outputs": [],
      "stateMutability": "nonpayable",
      "type": "function"
    },
    {
      "inputs": [],
      "name": "isOperational",
      "outputs": [
        {
          "internalType": "bool",
          "name": "",
          "type": "bool"
        }
      ],
      "stateMutability": "view",
      "type": "function",
      "constant": true
    },
    {
      "inputs": [
        {
          "internalType": "address",
          "name": "dataContract",
          "type": "address"
        }
      ],
      "name": "setDataContract",
      "outputs": [],
      "stateMutability": "nonpayable",
      "type": "function"
    },
    {
      "inputs": [
        {
          "internalType": "address",
          "name": "_address",
          "type": "address"
        }
      ],
      "name": "isController",
      "outputs": [
        {
          "internalType": "bool",
          "name": "",
          "type": "bool"
        }
      ],
      "stateMutability": "view",
      "type": "function",
      "constant": true
    },
    {
      "inputs": [
        {
          "internalType": "address",
          "name": "_address",
          "type": "address"
        }
      ],
      "name": "isRegistered",
      "outputs": [
        {
          "internalType": "bool",
          "name": "",
          "type": "bool"
        }
      ],
      "stateMutability": "view",
      "type": "function",
      "constant": true
    },
    {
      "inputs": [
        {
          "internalType": "address",
          "name": "_address",
          "type": "address"
        }
      ],
      "name": "isParticipant",
      "outputs": [
        {
          "internalType": "bool",
          "name": "",
          "type": "bool"
        }
      ],
      "stateMutability": "view",
      "type": "function",
      "constant": true
    },
    {
      "inputs": [
        {
          "internalType": "address",
          "name": "_address",
          "type": "address"
        }
      ],
      "name": "isCandidate",
      "outputs": [
        {
          "internalType": "bool",
          "name": "",
          "type": "bool"
        }
      ],
      "stateMutability": "view",
      "type": "function",
      "constant": true
    },
    {
      "inputs": [
        {
          "internalType": "string",
          "name": "_name",
          "type": "string"
        },
        {
          "internalType": "address",
          "name": "_address",
          "type": "address"
        }
      ],
      "name": "registerAirline",
      "outputs": [],
      "stateMutability": "nonpayable",
      "type": "function"
    },
    {
      "inputs": [
        {
          "internalType": "string",
          "name": "_name",
          "type": "string"
        },
        {
          "internalType": "address",
          "name": "_address",
          "type": "address"
        }
      ],
      "name": "candidateAirline",
      "outputs": [],
      "stateMutability": "nonpayable",
      "type": "function"
    },
    {
      "inputs": [
        {
          "internalType": "string",
          "name": "_name",
          "type": "string"
        },
        {
          "internalType": "address",
          "name": "_address",
          "type": "address"
        }
      ],
      "name": "vote",
      "outputs": [],
      "stateMutability": "nonpayable",
      "type": "function"
    },
    {
      "inputs": [],
      "name": "fund",
      "outputs": [],
      "stateMutability": "payable",
      "type": "function",
      "payable": true
    },
    {
      "inputs": [
        {
          "internalType": "address",
          "name": "_address",
          "type": "address"
        }
      ],
      "name": "checkAirlines",
      "outputs": [
        {
          "internalType": "string",
          "name": "name_",
          "type": "string"
        },
        {
          "internalType": "address",
          "name": "address_",
          "type": "address"
        },
        {
          "internalType": "bool",
          "name": "registered_",
          "type": "bool"
        },
        {
          "internalType": "bool",
          "name": "participant_",
          "type": "bool"
        },
        {
          "internalType": "bool",
          "name": "controller_",
          "type": "bool"
        },
        {
          "internalType": "uint256",
          "name": "fundavailable_",
          "type": "uint256"
        },
        {
          "internalType": "uint256",
          "name": "fundcommitted_",
          "type": "uint256"
        }
      ],
      "stateMutability": "view",
      "type": "function",
      "constant": true
    },
    {
      "inputs": [],
      "name": "checkCandidateAirlines",
      "outputs": [
        {
          "components": [
            {
              "internalType": "address",
              "name": "proposedAddress",
              "type": "address"
            },
            {
              "internalType": "string",
              "name": "proposedName",
              "type": "string"
            },
            {
              "internalType": "uint256",
              "name": "voteCount",
              "type": "uint256"
            },
            {
              "internalType": "bool",
              "name": "active",
              "type": "bool"
            }
          ],
          "internalType": "struct FlightSuretyApp.Proposal[]",
          "name": "",
          "type": "tuple[]"
        }
      ],
      "stateMutability": "view",
      "type": "function",
      "constant": true
    },
    {
      "inputs": [
        {
          "internalType": "string",
          "name": "_flight",
          "type": "string"
        },
        {
          "internalType": "uint16",
          "name": "_year",
          "type": "uint16"
        },
        {
          "internalType": "uint8",
          "name": "_month",
          "type": "uint8"
        },
        {
          "internalType": "uint8",
          "name": "_day",
          "type": "uint8"
        },
        {
          "internalType": "uint8",
          "name": "_hour",
          "type": "uint8"
        },
        {
          "internalType": "uint8",
          "name": "_minute",
          "type": "uint8"
        }
      ],
      "name": "registerFlight",
      "outputs": [],
      "stateMutability": "nonpayable",
      "type": "function"
    },
    {
      "inputs": [
        {
          "internalType": "uint256",
          "name": "_flightId",
          "type": "uint256"
        }
      ],
      "name": "checkFlights",
      "outputs": [
        {
          "internalType": "bytes32",
          "name": "key_",
          "type": "bytes32"
        },
        {
          "internalType": "string",
          "name": "flight_",
          "type": "string"
        },
        {
          "internalType": "bool",
          "name": "active_",
          "type": "bool"
        },
        {
          "internalType": "uint8",
          "name": "status_",
          "type": "uint8"
        },
        {
          "internalType": "uint256",
          "name": "timestamp_",
          "type": "uint256"
        },
        {
          "internalType": "address",
          "name": "address_",
          "type": "address"
        }
      ],
      "stateMutability": "view",
      "type": "function",
      "constant": true
    },
    {
      "inputs": [
        {
          "internalType": "address",
          "name": "_airline",
          "type": "address"
        },
        {
          "internalType": "string",
          "name": "_flight",
          "type": "string"
        },
        {
          "internalType": "uint16",
          "name": "_year",
          "type": "uint16"
        },
        {
          "internalType": "uint8",
          "name": "_month",
          "type": "uint8"
        },
        {
          "internalType": "uint8",
          "name": "_day",
          "type": "uint8"
        },
        {
          "internalType": "uint8",
          "name": "_hour",
          "type": "uint8"
        },
        {
          "internalType": "uint8",
          "name": "_minute",
          "type": "uint8"
        }
      ],
      "name": "fetchFlightStatus",
      "outputs": [],
      "stateMutability": "nonpayable",
      "type": "function"
    },
    {
      "inputs": [
        {
          "internalType": "string",
          "name": "_flight",
          "type": "string"
        },
        {
          "internalType": "uint16",
          "name": "_year",
          "type": "uint16"
        },
        {
          "internalType": "uint8",
          "name": "_month",
          "type": "uint8"
        },
        {
          "internalType": "uint8",
          "name": "_day",
          "type": "uint8"
        },
        {
          "internalType": "uint8",
          "name": "_hour",
          "type": "uint8"
        },
        {
          "internalType": "uint8",
          "name": "_minute",
          "type": "uint8"
        }
      ],
      "name": "viewFlightStatus",
      "outputs": [
        {
          "internalType": "uint8",
          "name": "",
          "type": "uint8"
        }
      ],
      "stateMutability": "view",
      "type": "function",
      "constant": true
    },
    {
      "inputs": [
        {
          "internalType": "string",
          "name": "_flight",
          "type": "string"
        },
        {
          "internalType": "uint16",
          "name": "_year",
          "type": "uint16"
        },
        {
          "internalType": "uint8",
          "name": "_month",
          "type": "uint8"
        },
        {
          "internalType": "uint8",
          "name": "_day",
          "type": "uint8"
        },
        {
          "internalType": "uint8",
          "name": "_hour",
          "type": "uint8"
        },
        {
          "internalType": "uint8",
          "name": "_minute",
          "type": "uint8"
        }
      ],
      "name": "withdrawCredit",
      "outputs": [],
      "stateMutability": "nonpayable",
      "type": "function"
    },
    {
      "inputs": [],
      "name": "registerOracle",
      "outputs": [],
      "stateMutability": "payable",
      "type": "function",
      "payable": true
    },
    {
      "inputs": [],
      "name": "getMyIndexes",
      "outputs": [
        {
          "internalType": "uint8[3]",
          "name": "",
          "type": "uint8[3]"
        }
      ],
      "stateMutability": "view",
      "type": "function",
      "constant": true
    },
    {
      "inputs": [
        {
          "internalType": "uint8",
          "name": "index",
          "type": "uint8"
        },
        {
          "internalType": "address",
          "name": "airline",
          "type": "address"
        },
        {
          "internalType": "string",
          "name": "flight",
          "type": "string"
        },
        {
          "internalType": "uint256",
          "name": "timestamp",
          "type": "uint256"
        },
        {
          "internalType": "uint8",
          "name": "statusCode",
          "type": "uint8"
        }
      ],
      "name": "submitOracleResponse",
      "outputs": [],
      "stateMutability": "nonpayable",
      "type": "function"
    }
  ],
  "bytecode": "0x608060405260016000806101000a81548160ff021916908315150217905550600067ffffffffffffffff8111156200003c576200003b6200059d565b5b6040519080825280602002602001820160405280156200006b5781602001602082028036833780820191505090505b506001908051906020019062000083929190620004ef565b50600360025560016009556000600c60006101000a81548160ff021916908360ff160217905550348015620000b757600080fd5b5060405162005641380380620056418339818101604052810190620000dd919062000636565b33600860006101000a81548173ffffffffffffffffffffffffffffffffffffffff021916908373ffffffffffffffffffffffffffffffffffffffff16021790555080600760006101000a81548173ffffffffffffffffffffffffffffffffffffffff021916908373ffffffffffffffffffffffffffffffffffffffff1602179055506000600760009054906101000a900473ffffffffffffffffffffffffffffffffffffffff1673ffffffffffffffffffffffffffffffffffffffff1663b59828036040518163ffffffff1660e01b8152600401602060405180830381865afa158015620001cf573d6000803e3d6000fd5b505050506040513d601f19601f82011682018060405250810190620001f5919062000636565b905062000208816200022160201b60201c565b62000219816200029360201b60201c565b5050620007a9565b62000232816200030560201b60201c565b1562000275576040517f08c379a00000000000000000000000000000000000000000000000000000000081526004016200026c90620006ef565b60405180910390fd5b620002908160036200032960201b620023bb1790919060201c565b50565b620002a481620003df60201b60201c565b15620002e7576040517f08c379a0000000000000000000000000000000000000000000000000000000008152600401620002de9062000787565b60405180910390fd5b620003028160046200032960201b620023bb1790919060201c565b50565b6000620003228260036200045c60201b620024671790919060201c565b9050919050565b600073ffffffffffffffffffffffffffffffffffffffff168173ffffffffffffffffffffffffffffffffffffffff1614156200036457600080fd5b6200037682826200045c60201b60201c565b156200038157600080fd5b60018260000160008373ffffffffffffffffffffffffffffffffffffffff1673ffffffffffffffffffffffffffffffffffffffff16815260200190815260200160002060006101000a81548160ff0219169083151502179055505050565b6000600860009054906101000a900473ffffffffffffffffffffffffffffffffffffffff1673ffffffffffffffffffffffffffffffffffffffff168273ffffffffffffffffffffffffffffffffffffffff161480620004555750620004548260046200045c60201b620024671790919060201c565b5b9050919050565b60008073ffffffffffffffffffffffffffffffffffffffff168273ffffffffffffffffffffffffffffffffffffffff1614156200049857600080fd5b8260000160008373ffffffffffffffffffffffffffffffffffffffff1673ffffffffffffffffffffffffffffffffffffffff16815260200190815260200160002060009054906101000a900460ff16905092915050565b8280548282559060005260206000209081019282156200056b579160200282015b828111156200056a5782518260006101000a81548173ffffffffffffffffffffffffffffffffffffffff021916908373ffffffffffffffffffffffffffffffffffffffff1602179055509160200191906001019062000510565b5b5090506200057a91906200057e565b5090565b5b80821115620005995760008160009055506001016200057f565b5090565b7f4e487b7100000000000000000000000000000000000000000000000000000000600052604160045260246000fd5b600080fd5b600073ffffffffffffffffffffffffffffffffffffffff82169050919050565b6000620005fe82620005d1565b9050919050565b6200061081620005f1565b81146200061c57600080fd5b50565b600081519050620006308162000605565b92915050565b6000602082840312156200064f576200064e620005cc565b5b60006200065f848285016200061f565b91505092915050565b600082825260208201905092915050565b7f4552524f523a204149524c494e4520495320414c52454144592052454749535460008201527f4552454400000000000000000000000000000000000000000000000000000000602082015250565b6000620006d760248362000668565b9150620006e48262000679565b604082019050919050565b600060208201905081810360008301526200070a81620006c8565b9050919050565b7f4552524f523a204149524c494e4520495320414c5245414459204120434f4e5460008201527f524f4c4c45520000000000000000000000000000000000000000000000000000602082015250565b60006200076f60268362000668565b91506200077c8262000711565b604082019050919050565b60006020820190508181036000830152620007a28162000760565b9050919050565b614e8880620007b96000396000f3fe6080604052600436106101405760003560e01c8063a190c315116100b6578063cd905dff1161006f578063cd905dff1461041b578063d51b9e9314610446578063d737d81414610483578063dcb8c5b4146104ac578063e188ac98146104e9578063f0a354f11461052c57610140565b8063a190c3151461031a578063a96f5bdb14610345578063b429afeb1461036e578063b60d4288146103ab578063c10f2700146103b5578063c3c5a547146103de57610140565b80635a436c06116101085780635a436c06146101f35780635b1c37fe1461021c5780635f1cc0e61461024557806364b4f751146102705780638529b35d1461029b578063929066f5146102dd57610140565b806303959bb7146101455780630e2c41291461016e578063110466ed146101975780631bb976bd146101c0578063339d2590146101e9575b600080fd5b34801561015157600080fd5b5061016c60048036038101906101679190612cc7565b610569565b005b34801561017a57600080fd5b5061019560048036038101906101909190612e3a565b61063d565b005b3480156101a357600080fd5b506101be60048036038101906101b99190612ece565b610855565b005b3480156101cc57600080fd5b506101e760048036038101906101e29190612fce565b610b24565b005b6101f1610c45565b005b3480156101ff57600080fd5b5061021a60048036038101906102159190612e3a565b610d32565b005b34801561022857600080fd5b50610243600480360381019061023e9190612e3a565b611277565b005b34801561025157600080fd5b5061025a61144a565b604051610267919061313b565b60405180910390f35b34801561027c57600080fd5b5061028561158a565b604051610292919061316f565b60405180910390f35b3480156102a757600080fd5b506102c260048036038101906102bd91906131b6565b611596565b6040516102d4969594939291906132b1565b60405180910390f35b3480156102e957600080fd5b5061030460048036038101906102ff9190612cc7565b611656565b6040516103119190613319565b60405180910390f35b34801561032657600080fd5b5061032f611673565b60405161033c91906134d0565b60405180910390f35b34801561035157600080fd5b5061036c600480360381019061036791906134f2565b6117df565b005b34801561037a57600080fd5b5061039560048036038101906103909190612cc7565b611896565b6040516103a29190613319565b60405180910390f35b6103b361190b565b005b3480156103c157600080fd5b506103dc60048036038101906103d7919061359b565b611a7c565b005b3480156103ea57600080fd5b5061040560048036038101906104009190612cc7565b611e06565b6040516104129190613319565b60405180910390f35b34801561042757600080fd5b50610430611e23565b60405161043d9190613319565b60405180910390f35b34801561045257600080fd5b5061046d60048036038101906104689190612cc7565b611ebb565b60405161047a9190613319565b60405180910390f35b34801561048f57600080fd5b506104aa60048036038101906104a591906134f2565b611ed8565b005b3480156104b857600080fd5b506104d360048036038101906104ce9190613635565b612107565b6040516104e091906136e4565b60405180910390f35b3480156104f557600080fd5b50610510600480360381019061050b9190612cc7565b612217565b60405161052397969594939291906136ff565b60405180910390f35b34801561053857600080fd5b50610553600480360381019061054e9190613775565b6122dc565b604051610560919061316f565b60405180910390f35b600860009054906101000a900473ffffffffffffffffffffffffffffffffffffffff1673ffffffffffffffffffffffffffffffffffffffff163373ffffffffffffffffffffffffffffffffffffffff16146105f9576040517f08c379a00000000000000000000000000000000000000000000000000000000081526004016105f09061383c565b60405180910390fd5b80600760006101000a81548173ffffffffffffffffffffffffffffffffffffffff021916908373ffffffffffffffffffffffffffffffffffffffff16021790555050565b610645611e23565b610684576040517f08c379a000000000000000000000000000000000000000000000000000000000815260040161067b906138ce565b60405180910390fd5b61068d81611e06565b156106cd576040517f08c379a00000000000000000000000000000000000000000000000000000000081526004016106c490613960565b60405180910390fd5b6004600954101561083d57600860009054906101000a900473ffffffffffffffffffffffffffffffffffffffff1673ffffffffffffffffffffffffffffffffffffffff163373ffffffffffffffffffffffffffffffffffffffff161480610739575061073833611896565b5b610778576040517f08c379a000000000000000000000000000000000000000000000000000000000815260040161076f906139cc565b60405180910390fd5b6009600081548092919061078b90613a1b565b9190505550600760009054906101000a900473ffffffffffffffffffffffffffffffffffffffff1673ffffffffffffffffffffffffffffffffffffffff1663b85a9e61838360095460016040518563ffffffff1660e01b81526004016107f49493929190613a64565b600060405180830381600087803b15801561080e57600080fd5b505af1158015610822573d6000803e3d6000fd5b5050505061082f816124f9565b61083881612559565b610851565b6108478282611277565b610850816125b9565b5b5050565b600860009054906101000a900473ffffffffffffffffffffffffffffffffffffffff1673ffffffffffffffffffffffffffffffffffffffff163373ffffffffffffffffffffffffffffffffffffffff1614806108c157506108c033600461246790919063ffffffff16565b5b610900576040517f08c379a00000000000000000000000000000000000000000000000000000000081526004016108f790613afc565b60405180910390fd5b60008054906101000a900460ff1615158115151415610954576040517f08c379a000000000000000000000000000000000000000000000000000000000815260040161094b90613b8e565b60405180910390fd5b6000805b6001805490508110156109f3573373ffffffffffffffffffffffffffffffffffffffff16600182815481106109905761098f613bae565b5b9060005260206000200160009054906101000a900473ffffffffffffffffffffffffffffffffffffffff1673ffffffffffffffffffffffffffffffffffffffff1614156109e057600191506109f3565b80806109eb90613a1b565b915050610958565b508015610a35576040517f08c379a0000000000000000000000000000000000000000000000000000000008152600401610a2c90613c4f565b60405180910390fd5b6001339080600181540180825580915050600190039060005260206000200160009091909190916101000a81548173ffffffffffffffffffffffffffffffffffffffff021916908373ffffffffffffffffffffffffffffffffffffffff16021790555060025460018054905010610b2057816000806101000a81548160ff021916908315150217905550600067ffffffffffffffff811115610ada57610ad9612d0f565b5b604051908082528060200260200182016040528015610b085781602001602082028036833780820191505090505b5060019080519060200190610b1e929190612a6c565b505b5050565b6000610b2f33612619565b90506000610b4087878787876122dc565b90506000828b8b8b85604051602001610b5d959493929190613d3e565b60405160208183030381529060405280519060200120905033600e600083815260200190815260200160002060000160006101000a81548173ffffffffffffffffffffffffffffffffffffffff021916908373ffffffffffffffffffffffffffffffffffffffff1602179055506001600e600083815260200190815260200160002060000160146101000a81548160ff0219169083151502179055507f3ed01f2c3fc24c6b329d931e35b03e390d23497d22b3f90e15b600343e93df11838c8c8c86604051610c30959493929190613db7565b60405180910390a15050505050505050505050565b670de0b6b3a7640000341015610c90576040517f08c379a0000000000000000000000000000000000000000000000000000000008152600401610c8790613e77565b60405180910390fd5b6000610c9b336126e5565b9050604051806040016040528060011515815260200182815250600d60003373ffffffffffffffffffffffffffffffffffffffff1673ffffffffffffffffffffffffffffffffffffffff16815260200190815260200160002060008201518160000160006101000a81548160ff021916908315150217905550602082015181600101906003610d2b929190612af6565b5090505050565b610d3a611e23565b610d79576040517f08c379a0000000000000000000000000000000000000000000000000000000008152600401610d70906138ce565b60405180910390fd5b610d8233611e06565b610dc1576040517f08c379a0000000000000000000000000000000000000000000000000000000008152600401610db890613ee3565b60405180910390fd5b610dca81611e06565b15610e0a576040517f08c379a0000000000000000000000000000000000000000000000000000000008152600401610e0190613f75565b60405180910390fd5b610e1381611ebb565b610e52576040517f08c379a0000000000000000000000000000000000000000000000000000000008152600401610e4990614007565b60405180910390fd5b60008060005b600b60003373ffffffffffffffffffffffffffffffffffffffff1673ffffffffffffffffffffffffffffffffffffffff16815260200190815260200160002080549050811015610fa3578373ffffffffffffffffffffffffffffffffffffffff16600b60003373ffffffffffffffffffffffffffffffffffffffff1673ffffffffffffffffffffffffffffffffffffffff1681526020019081526020016000208281548110610f0a57610f09613bae565b5b9060005260206000200160009054906101000a900473ffffffffffffffffffffffffffffffffffffffff1673ffffffffffffffffffffffffffffffffffffffff161415610f9057600192506040517f08c379a0000000000000000000000000000000000000000000000000000000008152600401610f8790614099565b60405180910390fd5b8080610f9b90613a1b565b915050610e58565b508161104a57600b60003373ffffffffffffffffffffffffffffffffffffffff1673ffffffffffffffffffffffffffffffffffffffff168152602001908152602001600020839080600181540180825580915050600190039060005260206000200160009091909190916101000a81548173ffffffffffffffffffffffffffffffffffffffff021916908373ffffffffffffffffffffffffffffffffffffffff1602179055505b60005b600a80549050811015611270578373ffffffffffffffffffffffffffffffffffffffff16600a828154811061108557611084613bae565b5b906000526020600020906004020160000160009054906101000a900473ffffffffffffffffffffffffffffffffffffffff1673ffffffffffffffffffffffffffffffffffffffff16141561125d576001600a82815481106110e9576110e8613bae565b5b9060005260206000209060040201600201600082825461110991906140b9565b925050819055506009546064600a838154811061112957611128613bae565b5b906000526020600020906004020160020154611145919061410f565b61114f9190614198565b915060328210611258576009600081548092919061116c90613a1b565b9190505550600760009054906101000a900473ffffffffffffffffffffffffffffffffffffffff1673ffffffffffffffffffffffffffffffffffffffff1663b85a9e61868660095460006040518563ffffffff1660e01b81526004016111d59493929190613a64565b600060405180830381600087803b1580156111ef57600080fd5b505af1158015611203573d6000803e3d6000fd5b50505050611210846124f9565b611219846128cc565b6000600a828154811061122f5761122e613bae565b5b906000526020600020906004020160030160006101000a81548160ff0219169083151502179055505b611270565b808061126890613a1b565b91505061104d565b5050505050565b61127f611e23565b6112be576040517f08c379a00000000000000000000000000000000000000000000000000000000081526004016112b5906138ce565b60405180910390fd5b6112c781611e06565b15611307576040517f08c379a00000000000000000000000000000000000000000000000000000000081526004016112fe90613960565b60405180910390fd5b61131081611ebb565b15611350576040517f08c379a00000000000000000000000000000000000000000000000000000000081526004016113479061423b565b60405180910390fd5b600a60405180608001604052808373ffffffffffffffffffffffffffffffffffffffff1681526020018481526020016000815260200160011515815250908060018154018082558091505060019003906000526020600020906004020160009091909190915060008201518160000160006101000a81548173ffffffffffffffffffffffffffffffffffffffff021916908373ffffffffffffffffffffffffffffffffffffffff1602179055506020820151816001019080519060200190611419929190612b90565b506040820151816002015560608201518160030160006101000a81548160ff02191690831515021790555050505050565b611452612c16565b600d60003373ffffffffffffffffffffffffffffffffffffffff1673ffffffffffffffffffffffffffffffffffffffff16815260200190815260200160002060000160009054906101000a900460ff166114e1576040517f08c379a00000000000000000000000000000000000000000000000000000000081526004016114d8906142a7565b60405180910390fd5b600d60003373ffffffffffffffffffffffffffffffffffffffff1673ffffffffffffffffffffffffffffffffffffffff168152602001908152602001600020600101600380602002604051908101604052809291908260038015611580576020028201916000905b82829054906101000a900460ff1660ff16815260200190600101906020826000010492830192600103820291508084116115495790505b5050505050905090565b670de0b6b3a764000081565b60006060600080600080600760009054906101000a900473ffffffffffffffffffffffffffffffffffffffff1673ffffffffffffffffffffffffffffffffffffffff16638529b35d886040518263ffffffff1660e01b81526004016115fb919061316f565b600060405180830381865afa158015611618573d6000803e3d6000fd5b505050506040513d6000823e3d601f19601f8201168201806040525081019061164191906143b7565b95509550955095509550955091939550919395565b600061166c82600561246790919063ffffffff16565b9050919050565b6060600a805480602002602001604051908101604052809291908181526020016000905b828210156117d657838290600052602060002090600402016040518060800160405290816000820160009054906101000a900473ffffffffffffffffffffffffffffffffffffffff1673ffffffffffffffffffffffffffffffffffffffff1673ffffffffffffffffffffffffffffffffffffffff1681526020016001820180546117209061448f565b80601f016020809104026020016040519081016040528092919081815260200182805461174c9061448f565b80156117995780601f1061176e57610100808354040283529160200191611799565b820191906000526020600020905b81548152906001019060200180831161177c57829003601f168201915b50505050508152602001600282015481526020016003820160009054906101000a900460ff16151515158152505081526020019060010190611697565b50505050905090565b60006117ee86868686866122dc565b905060006117fd33898461292b565b9050600760009054906101000a900473ffffffffffffffffffffffffffffffffffffffff1673ffffffffffffffffffffffffffffffffffffffff16638609cad1826040518263ffffffff1660e01b815260040161185a91906144c1565b600060405180830381600087803b15801561187457600080fd5b505af1158015611888573d6000803e3d6000fd5b505050505050505050505050565b6000600860009054906101000a900473ffffffffffffffffffffffffffffffffffffffff1673ffffffffffffffffffffffffffffffffffffffff168273ffffffffffffffffffffffffffffffffffffffff161480611904575061190382600461246790919063ffffffff16565b5b9050919050565b611913611e23565b611952576040517f08c379a0000000000000000000000000000000000000000000000000000000008152600401611949906138ce565b60405180910390fd5b61195b33611e06565b61199a576040517f08c379a000000000000000000000000000000000000000000000000000000000815260040161199190614528565b60405180910390fd5b6119a333611656565b156119e3576040517f08c379a00000000000000000000000000000000000000000000000000000000081526004016119da906145ba565b60405180910390fd5b600760009054906101000a900473ffffffffffffffffffffffffffffffffffffffff1673ffffffffffffffffffffffffffffffffffffffff16632302440834336040518363ffffffff1660e01b8152600401611a3f91906145da565b6000604051808303818588803b158015611a5857600080fd5b505af1158015611a6c573d6000803e3d6000fd5b5050505050611a7a33612961565b565b8560ff16600d60003373ffffffffffffffffffffffffffffffffffffffff1673ffffffffffffffffffffffffffffffffffffffff168152602001908152602001600020600101600060038110611ad557611ad4613bae565b5b602091828204019190069054906101000a900460ff1660ff161480611b6957508560ff16600d60003373ffffffffffffffffffffffffffffffffffffffff1673ffffffffffffffffffffffffffffffffffffffff168152602001908152602001600020600101600160038110611b4e57611b4d613bae565b5b602091828204019190069054906101000a900460ff1660ff16145b80611be357508560ff16600d60003373ffffffffffffffffffffffffffffffffffffffff1673ffffffffffffffffffffffffffffffffffffffff168152602001908152602001600020600101600260038110611bc857611bc7613bae565b5b602091828204019190069054906101000a900460ff1660ff16145b611c22576040517f08c379a0000000000000000000000000000000000000000000000000000000008152600401611c1990614667565b60405180910390fd5b60008686868686604051602001611c3d959493929190613d3e565b604051602081830303815290604052805190602001209050600e600082815260200190815260200160002060000160149054906101000a900460ff16611cb8576040517f08c379a0000000000000000000000000000000000000000000000000000000008152600401611caf906146f9565b60405180910390fd5b600e600082815260200190815260200160002060010160008360ff1660ff168152602001908152602001600020339080600181540180825580915050600190039060005260206000200160009091909190916101000a81548173ffffffffffffffffffffffffffffffffffffffff021916908373ffffffffffffffffffffffffffffffffffffffff1602179055507f43c853095c2752648493c88b4baac4d580d2594ffb00c6f1d4242d844514f7838686868686604051611d7d959493929190614719565b60405180910390a16003600e600083815260200190815260200160002060010160008460ff1660ff1681526020019081526020016000208054905010611dfd577fe23f5229de535c091e3b7bec2665f5d698192d3b31393066e8987b7a05076b6c8686868686604051611df4959493929190614719565b60405180910390a15b50505050505050565b6000611e1c82600361246790919063ffffffff16565b9050919050565b6000600760009054906101000a900473ffffffffffffffffffffffffffffffffffffffff1673ffffffffffffffffffffffffffffffffffffffff1663cd905dff6040518163ffffffff1660e01b8152600401602060405180830381865afa158015611e92573d6000803e3d6000fd5b505050506040513d601f19601f82011682018060405250810190611eb69190614767565b905090565b6000611ed182600661246790919063ffffffff16565b9050919050565b611ee133611656565b611f20576040517f08c379a0000000000000000000000000000000000000000000000000000000008152600401611f1790614806565b60405180910390fd5b6000611f2f86868686866122dc565b90506202a30042611f4091906140b9565b8111611f81576040517f08c379a0000000000000000000000000000000000000000000000000000000008152600401611f7890614898565b60405180910390fd5b6000611f8e33898461292b565b9050600760009054906101000a900473ffffffffffffffffffffffffffffffffffffffff1673ffffffffffffffffffffffffffffffffffffffff166361b029ed826040518263ffffffff1660e01b8152600401611feb91906144c1565b602060405180830381865afa158015612008573d6000803e3d6000fd5b505050506040513d601f19601f8201168201806040525081019061202c9190614767565b1561206c576040517f08c379a000000000000000000000000000000000000000000000000000000000815260040161206390614904565b60405180910390fd5b600760009054906101000a900473ffffffffffffffffffffffffffffffffffffffff1673ffffffffffffffffffffffffffffffffffffffff1663c984208c828a856040518463ffffffff1660e01b81526004016120cb93929190614924565b600060405180830381600087803b1580156120e557600080fd5b505af11580156120f9573d6000803e3d6000fd5b505050505050505050505050565b60008061211787878787876122dc565b9050600061216a338b8b8080601f016020809104026020016040519081016040528093929190818152602001838380828437600081840152601f19601f820116905080830192505050505050508461292b565b9050600760009054906101000a900473ffffffffffffffffffffffffffffffffffffffff1673ffffffffffffffffffffffffffffffffffffffff166379fca285826040518263ffffffff1660e01b81526004016121c791906144c1565b602060405180830381865afa1580156121e4573d6000803e3d6000fd5b505050506040513d601f19601f820116820180604052508101906122089190614962565b92505050979650505050505050565b6060600080600080600080600760009054906101000a900473ffffffffffffffffffffffffffffffffffffffff1673ffffffffffffffffffffffffffffffffffffffff1663e188ac98896040518263ffffffff1660e01b815260040161227d91906145da565b600060405180830381865afa15801561229a573d6000803e3d6000fd5b505050506040513d6000823e3d601f19601f820116820180604052508101906122c3919061498f565b9650965096509650965096509650919395979092949650565b60008073__DateLib_______________________________635ececa4f6040518061010001604052808a61ffff1681526020018960ff1681526020018860ff1681526020018760ff1681526020018660ff168152602001600060ff168152602001600060ff168152602001600060ff168152506040518263ffffffff1660e01b815260040161236b9190614b0d565b602060405180830381865af4158015612388573d6000803e3d6000fd5b505050506040513d601f19601f820116820180604052508101906123ac9190614b29565b90508091505095945050505050565b600073ffffffffffffffffffffffffffffffffffffffff168173ffffffffffffffffffffffffffffffffffffffff1614156123f557600080fd5b6123ff8282612467565b1561240957600080fd5b60018260000160008373ffffffffffffffffffffffffffffffffffffffff1673ffffffffffffffffffffffffffffffffffffffff16815260200190815260200160002060006101000a81548160ff0219169083151502179055505050565b60008073ffffffffffffffffffffffffffffffffffffffff168273ffffffffffffffffffffffffffffffffffffffff1614156124a257600080fd5b8260000160008373ffffffffffffffffffffffffffffffffffffffff1673ffffffffffffffffffffffffffffffffffffffff16815260200190815260200160002060009054906101000a900460ff16905092915050565b61250281611e06565b15612542576040517f08c379a000000000000000000000000000000000000000000000000000000000815260040161253990613960565b60405180910390fd5b6125568160036123bb90919063ffffffff16565b50565b61256281611896565b156125a2576040517f08c379a000000000000000000000000000000000000000000000000000000000815260040161259990614bc8565b60405180910390fd5b6125b68160046123bb90919063ffffffff16565b50565b6125c281611ebb565b15612602576040517f08c379a00000000000000000000000000000000000000000000000000000000081526004016125f99061423b565b60405180910390fd5b6126168160066123bb90919063ffffffff16565b50565b600080600a905060008160ff16600c600081819054906101000a900460ff168092919061264590614be8565b91906101000a81548160ff021916908360ff16021790555060ff164361266b9190614c12565b408560405160200161267e929190614c67565b6040516020818303038152906040528051906020012060001c6126a19190614c93565b905060fa600c60009054906101000a900460ff1660ff1611156126db576000600c60006101000a81548160ff021916908360ff1602179055505b8092505050919050565b6126ed612c16565b6126f5612c16565b6126fe83612619565b8160006003811061271257612711613bae565b5b602002019060ff16908160ff16815250508060006003811061273757612736613bae565b5b6020020151816001600381106127505761274f613bae565b5b602002019060ff16908160ff16815250505b8060006003811061277657612775613bae565b5b602002015160ff168160016003811061279257612791613bae565b5b602002015160ff1614156127d3576127a983612619565b816001600381106127bd576127bc613bae565b5b602002019060ff16908160ff1681525050612762565b806001600381106127e7576127e6613bae565b5b602002015181600260038110612800576127ff613bae565b5b602002019060ff16908160ff16815250505b8060006003811061282657612825613bae565b5b602002015160ff168160026003811061284257612841613bae565b5b602002015160ff16148061288b57508060016003811061286557612864613bae565b5b602002015160ff168160026003811061288157612880613bae565b5b602002015160ff16145b156128c35761289983612619565b816002600381106128ad576128ac613bae565b5b602002019060ff16908160ff1681525050612812565b80915050919050565b6128d581611ebb565b612914576040517f08c379a000000000000000000000000000000000000000000000000000000000815260040161290b90614d36565b60405180910390fd5b6129288160066129c190919063ffffffff16565b50565b600083838360405160200161294293929190614d87565b6040516020818303038152906040528051906020012090509392505050565b61296a81611656565b156129aa576040517f08c379a00000000000000000000000000000000000000000000000000000000081526004016129a190614e32565b60405180910390fd5b6129be8160056123bb90919063ffffffff16565b50565b600073ffffffffffffffffffffffffffffffffffffffff168173ffffffffffffffffffffffffffffffffffffffff1614156129fb57600080fd5b612a058282612467565b612a0e57600080fd5b60008260000160008373ffffffffffffffffffffffffffffffffffffffff1673ffffffffffffffffffffffffffffffffffffffff16815260200190815260200160002060006101000a81548160ff0219169083151502179055505050565b828054828255906000526020600020908101928215612ae5579160200282015b82811115612ae45782518260006101000a81548173ffffffffffffffffffffffffffffffffffffffff021916908373ffffffffffffffffffffffffffffffffffffffff16021790555091602001919060010190612a8c565b5b509050612af29190612c38565b5090565b826003601f01602090048101928215612b7f5791602002820160005b83821115612b5057835183826101000a81548160ff021916908360ff1602179055509260200192600101602081600001049283019260010302612b12565b8015612b7d5782816101000a81549060ff0219169055600101602081600001049283019260010302612b50565b505b509050612b8c9190612c38565b5090565b828054612b9c9061448f565b90600052602060002090601f016020900481019282612bbe5760008555612c05565b82601f10612bd757805160ff1916838001178555612c05565b82800160010185558215612c05579182015b82811115612c04578251825591602001919060010190612be9565b5b509050612c129190612c38565b5090565b6040518060600160405280600390602082028036833780820191505090505090565b5b80821115612c51576000816000905550600101612c39565b5090565b6000604051905090565b600080fd5b600080fd5b600073ffffffffffffffffffffffffffffffffffffffff82169050919050565b6000612c9482612c69565b9050919050565b612ca481612c89565b8114612caf57600080fd5b50565b600081359050612cc181612c9b565b92915050565b600060208284031215612cdd57612cdc612c5f565b5b6000612ceb84828501612cb2565b91505092915050565b600080fd5b600080fd5b6000601f19601f8301169050919050565b7f4e487b7100000000000000000000000000000000000000000000000000000000600052604160045260246000fd5b612d4782612cfe565b810181811067ffffffffffffffff82111715612d6657612d65612d0f565b5b80604052505050565b6000612d79612c55565b9050612d858282612d3e565b919050565b600067ffffffffffffffff821115612da557612da4612d0f565b5b612dae82612cfe565b9050602081019050919050565b82818337600083830152505050565b6000612ddd612dd884612d8a565b612d6f565b905082815260208101848484011115612df957612df8612cf9565b5b612e04848285612dbb565b509392505050565b600082601f830112612e2157612e20612cf4565b5b8135612e31848260208601612dca565b91505092915050565b60008060408385031215612e5157612e50612c5f565b5b600083013567ffffffffffffffff811115612e6f57612e6e612c64565b5b612e7b85828601612e0c565b9250506020612e8c85828601612cb2565b9150509250929050565b60008115159050919050565b612eab81612e96565b8114612eb657600080fd5b50565b600081359050612ec881612ea2565b92915050565b600060208284031215612ee457612ee3612c5f565b5b6000612ef284828501612eb9565b91505092915050565b600080fd5b600080fd5b60008083601f840112612f1b57612f1a612cf4565b5b8235905067ffffffffffffffff811115612f3857612f37612efb565b5b602083019150836001820283011115612f5457612f53612f00565b5b9250929050565b600061ffff82169050919050565b612f7281612f5b565b8114612f7d57600080fd5b50565b600081359050612f8f81612f69565b92915050565b600060ff82169050919050565b612fab81612f95565b8114612fb657600080fd5b50565b600081359050612fc881612fa2565b92915050565b60008060008060008060008060e0898b031215612fee57612fed612c5f565b5b6000612ffc8b828c01612cb2565b985050602089013567ffffffffffffffff81111561301d5761301c612c64565b5b6130298b828c01612f05565b9750975050604061303c8b828c01612f80565b955050606061304d8b828c01612fb9565b945050608061305e8b828c01612fb9565b93505060a061306f8b828c01612fb9565b92505060c06130808b828c01612fb9565b9150509295985092959890939650565b600060039050919050565b600081905092915050565b6000819050919050565b6130b981612f95565b82525050565b60006130cb83836130b0565b60208301905092915050565b6000602082019050919050565b6130ed81613090565b6130f7818461309b565b9250613102826130a6565b8060005b8381101561313357815161311a87826130bf565b9650613125836130d7565b925050600181019050613106565b505050505050565b600060608201905061315060008301846130e4565b92915050565b6000819050919050565b61316981613156565b82525050565b60006020820190506131846000830184613160565b92915050565b61319381613156565b811461319e57600080fd5b50565b6000813590506131b08161318a565b92915050565b6000602082840312156131cc576131cb612c5f565b5b60006131da848285016131a1565b91505092915050565b6000819050919050565b6131f6816131e3565b82525050565b600081519050919050565b600082825260208201905092915050565b60005b8381101561323657808201518184015260208101905061321b565b83811115613245576000848401525b50505050565b6000613256826131fc565b6132608185613207565b9350613270818560208601613218565b61327981612cfe565b840191505092915050565b61328d81612e96565b82525050565b61329c81612f95565b82525050565b6132ab81612c89565b82525050565b600060c0820190506132c660008301896131ed565b81810360208301526132d8818861324b565b90506132e76040830187613284565b6132f46060830186613293565b6133016080830185613160565b61330e60a08301846132a2565b979650505050505050565b600060208201905061332e6000830184613284565b92915050565b600081519050919050565b600082825260208201905092915050565b6000819050602082019050919050565b61336981612c89565b82525050565b600082825260208201905092915050565b600061338b826131fc565b613395818561336f565b93506133a5818560208601613218565b6133ae81612cfe565b840191505092915050565b6133c281613156565b82525050565b6133d181612e96565b82525050565b60006080830160008301516133ef6000860182613360565b50602083015184820360208601526134078282613380565b915050604083015161341c60408601826133b9565b50606083015161342f60608601826133c8565b508091505092915050565b600061344683836133d7565b905092915050565b6000602082019050919050565b600061346682613334565b613470818561333f565b93508360208202850161348285613350565b8060005b858110156134be578484038952815161349f858261343a565b94506134aa8361344e565b925060208a01995050600181019050613486565b50829750879550505050505092915050565b600060208201905081810360008301526134ea818461345b565b905092915050565b60008060008060008060c0878903121561350f5761350e612c5f565b5b600087013567ffffffffffffffff81111561352d5761352c612c64565b5b61353989828a01612e0c565b965050602061354a89828a01612f80565b955050604061355b89828a01612fb9565b945050606061356c89828a01612fb9565b935050608061357d89828a01612fb9565b92505060a061358e89828a01612fb9565b9150509295509295509295565b60008060008060008060a087890312156135b8576135b7612c5f565b5b60006135c689828a01612fb9565b96505060206135d789828a01612cb2565b955050604087013567ffffffffffffffff8111156135f8576135f7612c64565b5b61360489828a01612f05565b9450945050606061361789828a016131a1565b925050608061362889828a01612fb9565b9150509295509295509295565b600080600080600080600060c0888a03121561365457613653612c5f565b5b600088013567ffffffffffffffff81111561367257613671612c64565b5b61367e8a828b01612f05565b975097505060206136918a828b01612f80565b95505060406136a28a828b01612fb9565b94505060606136b38a828b01612fb9565b93505060806136c48a828b01612fb9565b92505060a06136d58a828b01612fb9565b91505092959891949750929550565b60006020820190506136f96000830184613293565b92915050565b600060e0820190508181036000830152613719818a61324b565b905061372860208301896132a2565b6137356040830188613284565b6137426060830187613284565b61374f6080830186613284565b61375c60a0830185613160565b61376960c0830184613160565b98975050505050505050565b600080600080600060a0868803121561379157613790612c5f565b5b600061379f88828901612f80565b95505060206137b088828901612fb9565b94505060406137c188828901612fb9565b93505060606137d288828901612fb9565b92505060806137e388828901612fb9565b9150509295509295909350565b7f43414c4c4552204953204e4f5420434f4e5452414354204f574e455200000000600082015250565b6000613826601c83613207565b9150613831826137f0565b602082019050919050565b6000602082019050818103600083015261385581613819565b9050919050565b7f434f4e54524143542049532043555252454e544c59204e4f54204f504552415460008201527f494f4e414c000000000000000000000000000000000000000000000000000000602082015250565b60006138b8602583613207565b91506138c38261385c565b604082019050919050565b600060208201905081810360008301526138e7816138ab565b9050919050565b7f4552524f523a204149524c494e4520495320414c52454144592052454749535460008201527f4552454400000000000000000000000000000000000000000000000000000000602082015250565b600061394a602483613207565b9150613955826138ee565b604082019050919050565b600060208201905081810360008301526139798161393d565b9050919050565b7f4552524f523a2043414c4c4552204953204e4f5420434f4e54524f4c4c455200600082015250565b60006139b6601f83613207565b91506139c182613980565b602082019050919050565b600060208201905081810360008301526139e5816139a9565b9050919050565b7f4e487b7100000000000000000000000000000000000000000000000000000000600052601160045260246000fd5b6000613a2682613156565b91507fffffffffffffffffffffffffffffffffffffffffffffffffffffffffffffffff821415613a5957613a586139ec565b5b600182019050919050565b60006080820190508181036000830152613a7e818761324b565b9050613a8d60208301866132a2565b613a9a6040830185613160565b613aa76060830184613284565b95945050505050565b7f43414c4c4552204953204e4f54204120434f4e54524f4c4c4552000000000000600082015250565b6000613ae6601a83613207565b9150613af182613ab0565b602082019050919050565b60006020820190508181036000830152613b1581613ad9565b9050919050565b7f4e4557204d4f4445204d555354204245204449464552454e542046524f4d205460008201527f4845204558495349544e47000000000000000000000000000000000000000000602082015250565b6000613b78602b83613207565b9150613b8382613b1c565b604082019050919050565b60006020820190508181036000830152613ba781613b6b565b9050919050565b7f4e487b7100000000000000000000000000000000000000000000000000000000600052603260045260246000fd5b7f4552524f523a2043414c4c45522048415320414c52454144592043414c4c454460008201527f20544849532046554e4354494f4e000000000000000000000000000000000000602082015250565b6000613c39602e83613207565b9150613c4482613bdd565b604082019050919050565b60006020820190508181036000830152613c6881613c2c565b9050919050565b60008160f81b9050919050565b6000613c8782613c6f565b9050919050565b613c9f613c9a82612f95565b613c7c565b82525050565b60008160601b9050919050565b6000613cbd82613ca5565b9050919050565b6000613ccf82613cb2565b9050919050565b613ce7613ce282612c89565b613cc4565b82525050565b600081905092915050565b6000613d048385613ced565b9350613d11838584612dbb565b82840190509392505050565b6000819050919050565b613d38613d3382613156565b613d1d565b82525050565b6000613d4a8288613c8e565b600182019150613d5a8287613cd6565b601482019150613d6b828587613cf8565b9150613d778284613d27565b6020820191508190509695505050505050565b6000613d968385613207565b9350613da3838584612dbb565b613dac83612cfe565b840190509392505050565b6000608082019050613dcc6000830188613293565b613dd960208301876132a2565b8181036040830152613dec818587613d8a565b9050613dfb6060830184613160565b9695505050505050565b7f4552524f523a20524547495354524154494f4e2046454520495320524551554960008201527f5245440000000000000000000000000000000000000000000000000000000000602082015250565b6000613e61602383613207565b9150613e6c82613e05565b604082019050919050565b60006020820190508181036000830152613e9081613e54565b9050919050565b7f4552524f523a20564f544552204953204e4f5420524547495354455245440000600082015250565b6000613ecd601e83613207565b9150613ed882613e97565b602082019050919050565b60006020820190508181036000830152613efc81613ec0565b9050919050565b7f4552524f523a204149524c494e4520564f54454420495320414c52454144592060008201527f5245474953544552454400000000000000000000000000000000000000000000602082015250565b6000613f5f602a83613207565b9150613f6a82613f03565b604082019050919050565b60006020820190508181036000830152613f8e81613f52565b9050919050565b7f4552524f523a204149524c494e4520564f544544204953204e4f54204120434160008201527f4e44494441544500000000000000000000000000000000000000000000000000602082015250565b6000613ff1602783613207565b9150613ffc82613f95565b604082019050919050565b6000602082019050818103600083015261402081613fe4565b9050919050565b7f4552524f523a2043414c4c455220414c524541445920564f54454420464f522060008201527f54484953204149524c494e450000000000000000000000000000000000000000602082015250565b6000614083602c83613207565b915061408e82614027565b604082019050919050565b600060208201905081810360008301526140b281614076565b9050919050565b60006140c482613156565b91506140cf83613156565b9250827fffffffffffffffffffffffffffffffffffffffffffffffffffffffffffffffff03821115614104576141036139ec565b5b828201905092915050565b600061411a82613156565b915061412583613156565b9250817fffffffffffffffffffffffffffffffffffffffffffffffffffffffffffffffff048311821515161561415e5761415d6139ec565b5b828202905092915050565b7f4e487b7100000000000000000000000000000000000000000000000000000000600052601260045260246000fd5b60006141a382613156565b91506141ae83613156565b9250826141be576141bd614169565b5b828204905092915050565b7f4552524f523a204149524c494e4520495320414c524541445920412043414e4460008201527f4944415445000000000000000000000000000000000000000000000000000000602082015250565b6000614225602583613207565b9150614230826141c9565b604082019050919050565b6000602082019050818103600083015261425481614218565b9050919050565b7f4552524f523a204f5241434c45204e4f54205245474953544552454400000000600082015250565b6000614291601c83613207565b915061429c8261425b565b602082019050919050565b600060208201905081810360008301526142c081614284565b9050919050565b6142d0816131e3565b81146142db57600080fd5b50565b6000815190506142ed816142c7565b92915050565b600061430661430184612d8a565b612d6f565b90508281526020810184848401111561432257614321612cf9565b5b61432d848285613218565b509392505050565b600082601f83011261434a57614349612cf4565b5b815161435a8482602086016142f3565b91505092915050565b60008151905061437281612ea2565b92915050565b60008151905061438781612fa2565b92915050565b60008151905061439c8161318a565b92915050565b6000815190506143b181612c9b565b92915050565b60008060008060008060c087890312156143d4576143d3612c5f565b5b60006143e289828a016142de565b965050602087015167ffffffffffffffff81111561440357614402612c64565b5b61440f89828a01614335565b955050604061442089828a01614363565b945050606061443189828a01614378565b935050608061444289828a0161438d565b92505060a061445389828a016143a2565b9150509295509295509295565b7f4e487b7100000000000000000000000000000000000000000000000000000000600052602260045260246000fd5b600060028204905060018216806144a757607f821691505b602082108114156144bb576144ba614460565b5b50919050565b60006020820190506144d660008301846131ed565b92915050565b7f4552524f523a2043414c4c4552204953204e4f54205245474953544552454400600082015250565b6000614512601f83613207565b915061451d826144dc565b602082019050919050565b6000602082019050818103600083015261454181614505565b9050919050565b7f4552524f523a2043414c4c455220495320414c5245414459204120504152544960008201527f434950414e540000000000000000000000000000000000000000000000000000602082015250565b60006145a4602683613207565b91506145af82614548565b604082019050919050565b600060208201905081810360008301526145d381614597565b9050919050565b60006020820190506145ef60008301846132a2565b92915050565b7f4552524f523a20494e444558204e4f54204d41544348494e47204f5241434c4560008201527f2052455155455354000000000000000000000000000000000000000000000000602082015250565b6000614651602883613207565b915061465c826145f5565b604082019050919050565b6000602082019050818103600083015261468081614644565b9050919050565b7f4552524f523a20464c494748542f54494d455354414d50204e4f54204d41544360008201527f48494e47204f5241434c45205245515545535400000000000000000000000000602082015250565b60006146e3603383613207565b91506146ee82614687565b604082019050919050565b60006020820190508181036000830152614712816146d6565b9050919050565b600060808201905061472e60008301886132a2565b8181036020830152614741818688613d8a565b90506147506040830185613160565b61475d6060830184613293565b9695505050505050565b60006020828403121561477d5761477c612c5f565b5b600061478b84828501614363565b91505092915050565b7f4552524f523a2043414c4c4552204953204e4f5420412050415254494349504160008201527f4e54000000000000000000000000000000000000000000000000000000000000602082015250565b60006147f0602283613207565b91506147fb82614794565b604082019050919050565b6000602082019050818103600083015261481f816147e3565b9050919050565b7f4552524f523a20464c494748542054494d45204d555354204245204154204c4560008201527f41535420343820484f555253205448414e204e4f570000000000000000000000602082015250565b6000614882603583613207565b915061488d82614826565b604082019050919050565b600060208201905081810360008301526148b181614875565b9050919050565b7f4552524f523a20464c4947485420414c52454144592052454749535445524544600082015250565b60006148ee602083613207565b91506148f9826148b8565b602082019050919050565b6000602082019050818103600083015261491d816148e1565b9050919050565b600060608201905061493960008301866131ed565b818103602083015261494b818561324b565b905061495a6040830184613160565b949350505050565b60006020828403121561497857614977612c5f565b5b600061498684828501614378565b91505092915050565b600080600080600080600060e0888a0312156149ae576149ad612c5f565b5b600088015167ffffffffffffffff8111156149cc576149cb612c64565b5b6149d88a828b01614335565b97505060206149e98a828b016143a2565b96505060406149fa8a828b01614363565b9550506060614a0b8a828b01614363565b9450506080614a1c8a828b01614363565b93505060a0614a2d8a828b0161438d565b92505060c0614a3e8a828b0161438d565b91505092959891949750929550565b614a5681612f5b565b82525050565b614a6581612f95565b82525050565b61010082016000820151614a826000850182614a4d565b506020820151614a956020850182614a5c565b506040820151614aa86040850182614a5c565b506060820151614abb6060850182614a5c565b506080820151614ace6080850182614a5c565b5060a0820151614ae160a0850182614a5c565b5060c0820151614af460c0850182614a5c565b5060e0820151614b0760e0850182614a5c565b50505050565b600061010082019050614b236000830184614a6b565b92915050565b600060208284031215614b3f57614b3e612c5f565b5b6000614b4d8482850161438d565b91505092915050565b7f4552524f523a204149524c494e4520495320414c5245414459204120434f4e5460008201527f524f4c4c45520000000000000000000000000000000000000000000000000000602082015250565b6000614bb2602683613207565b9150614bbd82614b56565b604082019050919050565b60006020820190508181036000830152614be181614ba5565b9050919050565b6000614bf382612f95565b915060ff821415614c0757614c066139ec565b5b600182019050919050565b6000614c1d82613156565b9150614c2883613156565b925082821015614c3b57614c3a6139ec565b5b828203905092915050565b6000819050919050565b614c61614c5c826131e3565b614c46565b82525050565b6000614c738285614c50565b602082019150614c838284613cd6565b6014820191508190509392505050565b6000614c9e82613156565b9150614ca983613156565b925082614cb957614cb8614169565b5b828206905092915050565b7f4552524f523a204149524c494e45204953204e4f5420412043414e444944415460008201527f4500000000000000000000000000000000000000000000000000000000000000602082015250565b6000614d20602183613207565b9150614d2b82614cc4565b604082019050919050565b60006020820190508181036000830152614d4f81614d13565b9050919050565b6000614d61826131fc565b614d6b8185613ced565b9350614d7b818560208601613218565b80840191505092915050565b6000614d938286613cd6565b601482019150614da38285614d56565b9150614daf8284613d27565b602082019150819050949350505050565b7f4552524f523a204149524c494e4520495320414c52454144592041205041525460008201527f49434950414e5400000000000000000000000000000000000000000000000000602082015250565b6000614e1c602783613207565b9150614e2782614dc0565b604082019050919050565b60006020820190508181036000830152614e4b81614e0f565b905091905056fea2646970667358221220ed37883843cc30e58af786603a626650e11a134e3e1a3a81624ee91a39fe455964736f6c634300080b0033",
  "immutableReferences": {},
  "source": "// SPDX-License-Identifier: MIT\npragma solidity ^0.8.0;\n\nimport \"./DateLib.sol\";\nimport \"./RoleLib.sol\";\n\nimport \"@openzeppelin/contracts/utils/math/SafeMath.sol\";\n// import \"../node_modules/openzeppelin-solidity/contracts/math/SafeMath.sol\";\n\ncontract FlightSuretyApp {\n    using SafeMath for uint256;\n\n    bool private operational = true;            // BLOCKS ALL STATE CHANGES THROUGHOUT THE CONTRACT IF FALSE\n    address[] multiCalls = new address[](0);\n    uint M = 3;\n\n\n    /********************************************************************************************/\n    /*                                          DATELIB                                         */\n    /********************************************************************************************/\n    using DateLib for DateLib.DateTime;         //LIBRARY USED TO CONVERT HUMAN DATE TIME TO EPOCH TIMESTAMP\n\n    function getDateTime(uint16 _year, uint8 _month, uint8 _day, uint8 _hour, uint8 _minute) public pure returns(uint) {\n        uint unixDate = DateLib.toUnixTimestamp(DateLib.DateTime({\n            year: _year,\n            month: _month,\n            day: _day,\n            hour: _hour,\n            minute: _minute,\n            second: 0,\n            ms: 0,\n            weekday: 0\n        }));\n        \n        return unixDate;\n    }\n\n    \n    /********************************************************************************************/\n    /*                                         ROLELIB                                          */\n    /********************************************************************************************/\n    using RoleLib for RoleLib.Role;             //LIBRARY USED TO CLASSIFY AIRLINES INTO DIFFERENT ROLES\n\n    RoleLib.Role private registers;\n    RoleLib.Role private controllers;\n    RoleLib.Role private participants;\n    RoleLib.Role private candidates;            \n\n    function register(address _address) internal {\n        require(!isRegistered(_address), \"ERROR: AIRLINE IS ALREADY REGISTERED\");\n        registers.add(_address);\n    }\n\n    function addController(address _address) internal {\n        require(!isController(_address), \"ERROR: AIRLINE IS ALREADY A CONTROLLER\");\n        controllers.add(_address);\n    }\n\n    function addParticipant(address _address) internal {\n        require(!isParticipant(_address), \"ERROR: AIRLINE IS ALREADY A PARTICIPANT\");\n        participants.add(_address);\n    }\n    \n    function addCandidate(address _address) internal {\n        require(!isCandidate(_address), \"ERROR: AIRLINE IS ALREADY A CANDIDATE\");\n        candidates.add(_address);\n    }\n\n    function removeCandidate(address _address) internal {\n        require(isCandidate(_address), \"ERROR: AIRLINE IS NOT A CANDIDATE\");\n        candidates.remove(_address);\n    }\n\n\n    /********************************************************************************************/\n    /*                                       DATA VARIABLES                                     */\n    /********************************************************************************************/\n    FlightSuretyData flightSuretyData;\n    // Flight status codees\n    uint8 private constant STATUS_CODE_UNKNOWN = 0;\n    uint8 private constant STATUS_CODE_ON_TIME = 10;\n    uint8 private constant STATUS_CODE_LATE_AIRLINE = 20;\n    uint8 private constant STATUS_CODE_LATE_WEATHER = 30;\n    uint8 private constant STATUS_CODE_LATE_TECHNICAL = 40;\n    uint8 private constant STATUS_CODE_LATE_OTHER = 50;\n\n    address private contractOwner;          // Account used to deploy contract\n\n    uint aCounter = 1;\n\n    // // flights data\n    // struct Flight {\n    //     bool isRegistered;\n    //     string flightCode;\n    //     string destination;\n    //     uint8 statusCode;\n    //     uint256 updatedTimestamp;\n    //     address airline;\n    // }\n    // mapping(bytes32 => Flight) private flights;\n    // mapping(address => address[]) private airlineVoters;\n\n\n    /********************************************************************************************/\n    /*                             CANDIDATE AIRLINE VARIABLES                                  */\n    /********************************************************************************************/\n    struct Proposal {\n        address         proposedAddress;\n        string          proposedName;\n        uint            voteCount;\n        bool            active;\n    }\n    Proposal[] private proposals;\n    mapping(address => address[]) voters;\n\n\n    /********************************************************************************************/\n    /*                                       FUNCTION MODIFIERS                                 */\n    /********************************************************************************************/\n    modifier requireIsOperational() {\n        require(isOperational(), \"CONTRACT IS CURRENTLY NOT OPERATIONAL\");\n        _;\n    }\n    \n    modifier requireContractOwner() {\n        require(msg.sender == contractOwner, \"CALLER IS NOT CONTRACT OWNER\");\n        _;\n    }\n\n    modifier requireController() {\n        require(msg.sender == contractOwner || controllers.has(msg.sender), \"CALLER IS NOT A CONTROLLER\");\n        _;\n    }\n\n\n    /********************************************************************************************/\n    /*                                       CONSTRUCTOR                                        */\n    /********************************************************************************************/\n    constructor(address dataContract) {\n        contractOwner = msg.sender;\n        flightSuretyData = FlightSuretyData(dataContract);\n        address _firstAirlineAddress = flightSuretyData.getFirstAirlineAddress();\n        register(_firstAirlineAddress);\n        addController(_firstAirlineAddress);\n    }\n\n    // function setFirstController() external requireContractOwner() {\n    //     address _firstAirlineAddress = flightSuretyData.getFirstAirlineAddress();\n    //     register(_firstAirlineAddress);\n    //     addController(_firstAirlineAddress);\n    // }\n\n\n    /********************************************************************************************/\n    /*                                  OPERATIONAL STATUS CONTROL                              */\n    /********************************************************************************************/\n    function setOperatingStatus(bool mode) external requireController() {\n        require(mode != operational, \"NEW MODE MUST BE DIFERENT FROM THE EXISITNG\");\n\n        bool isDuplicate = false;\n        for(uint c = 0; c < multiCalls.length; c++) {\n            if (multiCalls[c] == msg.sender) {\n                isDuplicate = true;\n                break;\n            }\n        }\n        \n        require(!isDuplicate, \"ERROR: CALLER HAS ALREADY CALLED THIS FUNCTION\");\n\n        multiCalls.push(msg.sender);\n        if (multiCalls.length >= M) {\n            operational = mode;\n            multiCalls = new address[](0);\n        }\n    }\n\n\n    /********************************************************************************************/\n    /*                                       UTILITY FUNCTIONS                                  */\n    /********************************************************************************************/\n    function isOperational() public view returns(bool) {\n        return flightSuretyData.isOperational();\n    }\n\n    function setDataContract(address dataContract) external requireContractOwner {\n        flightSuretyData = FlightSuretyData(dataContract);\n    }\n\n    function isController(address _address) public view returns(bool) {\n        //return controllers.has(_address);\n        return (_address == contractOwner || controllers.has(_address));\n    }\n\n    function isRegistered(address _address) public view returns(bool) {\n        return registers.has(_address);\n    }\n\n    function isParticipant(address _address) public view returns(bool) {\n        return participants.has(_address); \n    }\n\n    function isCandidate(address _address) public view returns(bool) {\n        return candidates.has(_address);\n    }\n\n\n    /********************************************************************************************/\n    /*                                        AIRLINE FUNCTIONS                                 */\n    /********************************************************************************************/\n    function registerAirline(string memory _name, address _address) public requireIsOperational() {\n        require(!isRegistered(_address), \"ERROR: AIRLINE IS ALREADY REGISTERED\");\n        \n        if(aCounter < 4) {\n            require(msg.sender == contractOwner || isController(msg.sender), \"ERROR: CALLER IS NOT CONTROLLER\");\n            \n            aCounter ++;\n            flightSuretyData.registerAirline(_name, _address, aCounter, true);\n            \n            register(_address);\n            addController(_address);\n        \n        } else {\n            candidateAirline(_name, _address);\n\n            addCandidate(_address);\n        }\n    }\n\n    function candidateAirline(string memory _name, address _address) public requireIsOperational() {\n        require(!isRegistered(_address), \"ERROR: AIRLINE IS ALREADY REGISTERED\");\n        require(!isCandidate(_address), \"ERROR: AIRLINE IS ALREADY A CANDIDATE\");\n        \n        proposals.push(Proposal({\n            proposedAddress: _address,\n            proposedName: _name,\n            voteCount: 0,\n            active: true\n            })\n        );\n    }\n\n    function vote(string memory _name, address _address) public requireIsOperational() {\n        require(isRegistered(msg.sender), \"ERROR: VOTER IS NOT REGISTERED\");\n        require(!isRegistered(_address), \"ERROR: AIRLINE VOTED IS ALREADY REGISTERED\");\n        require(isCandidate(_address), \"ERROR: AIRLINE VOTED IS NOT A CANDIDATE\");\n        \n        bool found = false;\n        uint result = 0;\n        for (uint v = 0; v < voters[msg.sender].length; v++) {\n            if(voters[msg.sender][v] == _address){\n                found = true;\n                revert(\"ERROR: CALLER ALREADY VOTED FOR THIS AIRLINE\");\n            }\n        }\n        if(!found){\n            voters[msg.sender].push(_address);\n        }\n        for (uint p = 0; p < proposals.length; p++) {\n            if (proposals[p].proposedAddress == _address) {\n                proposals[p].voteCount += 1;\n                result = (proposals[p].voteCount * 100) / aCounter;\n                if(result >= 50){\n                    aCounter ++;\n                    flightSuretyData.registerAirline(_name, _address, aCounter, false);\n\n                    register(_address);\n                    removeCandidate(_address);\n                    proposals[p].active = false;\n                }\n                break;\n            }\n        }\n    }\n\n    function fund() external payable requireIsOperational() {\n        require(isRegistered(msg.sender), \"ERROR: CALLER IS NOT REGISTERED\");\n        require(!isParticipant(msg.sender), \"ERROR: CALLER IS ALREADY A PARTICIPANT\");\n\n        flightSuretyData.fund{value: msg.value}(msg.sender);\n\n        addParticipant(msg.sender);\n    }\n\n    function checkAirlines(address _address) external view \n    returns(string memory name_, address address_, bool registered_, bool participant_, bool controller_, uint fundavailable_, uint fundcommitted_) {   \n        return flightSuretyData.checkAirlines(_address);\n    }\n\n    function checkCandidateAirlines() public view returns(Proposal[] memory ) {\n        return proposals;\n    }\n\n\n    /********************************************************************************************/\n    /*                                        FLIGHT FUNCTIONS                                  */\n    /********************************************************************************************/\n    function registerFlight (string memory _flight, uint16 _year, uint8 _month, uint8 _day, uint8 _hour, uint8 _minute) external {\n        require(isParticipant(msg.sender), \"ERROR: CALLER IS NOT A PARTICIPANT\");\n        \n        uint _timestamp = getDateTime(_year, _month, _day, _hour, _minute);\n        \n        require(_timestamp > block.timestamp + 172800, \"ERROR: FLIGHT TIME MUST BE AT LEAST 48 HOURS THAN NOW\");\n         \n        bytes32 _flightKey = getFlightKey(msg.sender, _flight, _timestamp);\n        \n        require(!flightSuretyData.checkFlight(_flightKey), \"ERROR: FLIGHT ALREADY REGISTERED\");\n\n        flightSuretyData.registerFlight(_flightKey, _flight, _timestamp);\n\n    }\n\n    function checkFlights(uint _flightId) external view\n    returns(bytes32 key_, string memory flight_, bool active_, uint8 status_, uint256 timestamp_, address address_) {\n        return flightSuretyData.checkFlights(_flightId);\n    }\n\n    function processFlightStatus(string memory _flight, uint16 _year, uint8 _month, uint8 _day, uint8 _hour, uint8 _minute, uint8 _statusCode) internal {\n        uint _timestamp = getDateTime(_year, _month, _day, _hour, _minute);\n        bytes32 _flightKey = getFlightKey(msg.sender, _flight, _timestamp);\n        \n        require(flightSuretyData.checkFlight(_flightKey), \"ERROR: FLIGHT IS NOT REGISTERED\");\n\n        flightSuretyData.updateFlightTimestamp(_flightKey, _timestamp);\n        flightSuretyData.updateFlightStatus(_flightKey, _statusCode);\n\n        if (_statusCode == STATUS_CODE_LATE_AIRLINE) {\n            flightSuretyData.creditInsurees(_flightKey);\n        }\n    }\n\n    // Generate a request for oracles to fetch flight information\n    function fetchFlightStatus(address _airline, string calldata _flight, uint16 _year, uint8 _month, uint8 _day, uint8 _hour, uint8 _minute) external {\n        uint8 index = getRandomIndex(msg.sender);\n\n        uint _timestamp = getDateTime(_year, _month, _day, _hour, _minute);\n\n        // Generate a unique key for storing the request\n        bytes32 key = keccak256(abi.encodePacked(index, _airline, _flight, _timestamp));\n        oracleResponses[key].requester = msg.sender;\n        oracleResponses[key].isOpen = true;\n\n        emit OracleRequest(index, _airline, _flight, _timestamp);\n    }\n\n    // Query the status of any flight\n    function viewFlightStatus(string calldata _flight, uint16 _year, uint8 _month, uint8 _day, uint8 _hour, uint8 _minute) external view returns(uint8) {\n        uint _timestamp = getDateTime(_year, _month, _day, _hour, _minute);\n\n        bytes32 _flightKey = getFlightKey(msg.sender, _flight, _timestamp);\n        return flightSuretyData.getFlightStatus(_flightKey);\n    }\n\n    function withdrawCredit(string memory _flight, uint16 _year, uint8 _month, uint8 _day, uint8 _hour, uint8 _minute) public {\n        //uint _timestamp = flightSuretyData.getDateTime(_year, _month, _day, _hour, _minute);\n        uint _timestamp = getDateTime(_year, _month, _day, _hour, _minute);\n\n        bytes32 _flightKey = getFlightKey(msg.sender, _flight, _timestamp);\n        flightSuretyData.pay(_flightKey);\n    }\n\n// region ORACLE MANAGEMENT\n\n    // Incremented to add pseudo-randomness at various points\n    uint8 private nonce = 0;\n\n    // Fee to be paid when registering oracle\n    uint256 public constant REGISTRATION_FEE = 1 ether;\n\n    // Number of oracles that must respond for valid status\n    uint256 private constant MIN_RESPONSES = 3;\n\n\n    struct Oracle {\n        bool isRegistered;\n        uint8[3] indexes;\n    }\n\n    // Track all registered oracles\n    mapping(address => Oracle) private oracles;\n\n    // Model for responses from oracles\n    struct ResponseInfo {\n        address requester;                              // Account that requested status\n        bool isOpen;                                    // If open, oracle responses are accepted\n        mapping(uint8 => address[]) responses;          // Mapping key is the status code reported\n                                                        // This lets us group responses and identify\n                                                        // the response that majority of the oracles\n    }\n\n    // Track all oracle responses\n    // Key = hash(index, flight, timestamp)\n    mapping(bytes32 => ResponseInfo) private oracleResponses;\n\n    // Event fired each time an oracle submits a response\n    event FlightStatusInfo(address airline, string flight, uint256 timestamp, uint8 status);\n\n    event OracleReport(address airline, string flight, uint256 timestamp, uint8 status);\n\n    // Event fired when flight status request is submitted\n    // Oracles track this and if they have a matching index\n    // they fetch data and submit a response\n    event OracleRequest(uint8 index, address airline, string flight, uint256 timestamp);\n\n\n    // Register an oracle with the contract\n    function registerOracle() external payable {\n        // Require registration fee\n        require(msg.value >= REGISTRATION_FEE, \"ERROR: REGISTRATION FEE IS REQUIRED\");\n\n        uint8[3] memory indexes = generateIndexes(msg.sender);\n\n        oracles[msg.sender] = Oracle({\n                                        isRegistered: true,\n                                        indexes: indexes\n                                    });\n    }\n\n    function getMyIndexes() external view returns(uint8[3] memory) {\n        require(oracles[msg.sender].isRegistered, \"ERROR: ORACLE NOT REGISTERED\");\n\n        return oracles[msg.sender].indexes;\n    }\n\n    // Called by oracle when a response is available to an outstanding request\n    // For the response to be accepted, there must be a pending request that is open\n    // and matches one of the three Indexes randomly assigned to the oracle at the\n    // time of registration (i.e. uninvited oracles are not welcome)\n    function submitOracleResponse(uint8 index, address airline, string calldata flight, uint256 timestamp, uint8 statusCode)\n    external {\n        require((oracles[msg.sender].indexes[0] == index) || (oracles[msg.sender].indexes[1] == index) || (oracles[msg.sender].indexes[2] == index), \"ERROR: INDEX NOT MATCHING ORACLE REQUEST\");\n\n\n        bytes32 key = keccak256(abi.encodePacked(index, airline, flight, timestamp));\n        require(oracleResponses[key].isOpen, \"ERROR: FLIGHT/TIMESTAMP NOT MATCHING ORACLE REQUEST\");\n\n        oracleResponses[key].responses[statusCode].push(msg.sender);\n\n        // Information isn't considered verified until at least MIN_RESPONSES\n        // oracles respond with the *** same *** information\n        emit OracleReport(airline, flight, timestamp, statusCode);\n        if (oracleResponses[key].responses[statusCode].length >= MIN_RESPONSES) {\n\n            emit FlightStatusInfo(airline, flight, timestamp, statusCode);\n\n            // Handle flight status as appropriate\n            //processFlightStatus(flight, timestamp, statusCode);\n        }\n    }\n\n    function getFlightKey(address airline, string memory flight, uint256 timestamp) pure internal returns(bytes32) {\n        return keccak256(abi.encodePacked(airline, flight, timestamp));\n    }\n\n    // Returns array of three non-duplicating integers from 0-9\n    function generateIndexes(address _account) internal returns(uint8[3] memory) {\n        uint8[3] memory indexes;\n        indexes[0] = getRandomIndex(_account);\n\n        indexes[1] = indexes[0];\n        while(indexes[1] == indexes[0]) {\n            indexes[1] = getRandomIndex(_account);\n        }\n\n        indexes[2] = indexes[1];\n        while((indexes[2] == indexes[0]) || (indexes[2] == indexes[1])) {\n            indexes[2] = getRandomIndex(_account);\n        }\n\n        return indexes;\n    }\n\n    // Returns array of three non-duplicating integers from 0-9\n    function getRandomIndex(address _account) internal returns (uint8) {\n        uint8 maxValue = 10;\n\n        // Pseudo random number...the incrementing nonce adds variation\n        uint8 random = uint8(uint256(keccak256(abi.encodePacked(blockhash(block.number - nonce++), _account))) % maxValue);\n\n        if (nonce > 250) {\n            nonce = 0;  // Can only fetch blockhashes for last 256 blocks so we adapt\n        }\n\n        return random;\n    }\n\n// endregion\n\n}\n\ncontract FlightSuretyData {\n\n\n    function isOperational() external view returns(bool) {}\n\n    function getFirstAirlineAddress() external view returns(address){}\n    \n    function registerAirline(string memory _name, address _address, uint _aCounter, bool _controller) external {}\n\n    function candidateAirline(string memory _name, address _address) external {}\n\n    function fund(address _address) external payable {}\n    \n    function checkAirlines(address _airlineAddress) external view \n    returns(string memory name_, address address_, bool registered_, bool participant_, bool controller_, uint fundavailable_, uint fundcommitted_) {}\n\n    function registerFlight(bytes32 _flightKey, string memory _flight, uint _timestamp) external {}\n\n    function checkFlight(bytes32 _flightKey) external view returns(bool) {}\n\n    function checkFlights(uint _flightId) external view\n    returns(bytes32 key_, string memory flight_, bool active_, uint8 status_, uint256 timestamp_, address address_) {}\n\n    function updateFlightTimestamp(bytes32 _flightKey, uint256 _timestamp) external {}\n    \n    function updateFlightStatus(bytes32 _flightKey, uint8 _statusCode) external {}\n\n    function getFlightStatus(bytes32 _flightKey) external view returns(uint8) {}\n\n    function creditInsurees(bytes32 _flightKey) external {}\n\n    function pay(bytes32 _flightKey) external {}\n\n    //function getDateTime(uint16 _year, uint8 _month, uint8 _day, uint8 _hour, uint8 _minute) public pure returns(uint) {}\n}\n",
  "sourcePath": "/Users/fernandomaximof/Documents/udacity-projects/project4old/contracts/FlightSuretyApp.sol",
  "compiler": {
    "name": "solc",
    "version": "0.8.11+commit.d7f03943.Emscripten.clang"
  },
  "schemaVersion": "3.4.3",
  "updatedAt": "2022-01-29T07:30:30.138Z",
  "networkType": "ethereum",
  "devdoc": {
    "kind": "dev",
    "methods": {},
    "version": 1
  },
  "userdoc": {
    "kind": "user",
    "methods": {},
    "version": 1
  }
}