{
  "contractName": "FlightSuretyData",
  "abi": [
    {
      "inputs": [],
      "stateMutability": "nonpayable",
      "type": "constructor"
    },
    {
      "anonymous": false,
      "inputs": [
        {
          "indexed": false,
          "internalType": "address",
          "name": "",
          "type": "address"
        }
      ],
      "name": "Acquisition",
      "type": "event"
    },
    {
      "anonymous": false,
      "inputs": [
        {
          "indexed": false,
          "internalType": "address",
          "name": "",
          "type": "address"
        }
      ],
      "name": "Candidate",
      "type": "event"
    },
    {
      "anonymous": false,
      "inputs": [
        {
          "indexed": false,
          "internalType": "address",
          "name": "",
          "type": "address"
        }
      ],
      "name": "Funding",
      "type": "event"
    },
    {
      "anonymous": false,
      "inputs": [
        {
          "indexed": false,
          "internalType": "address",
          "name": "",
          "type": "address"
        }
      ],
      "name": "Payment",
      "type": "event"
    },
    {
      "anonymous": false,
      "inputs": [
        {
          "indexed": false,
          "internalType": "address",
          "name": "",
          "type": "address"
        }
      ],
      "name": "Registration",
      "type": "event"
    },
    {
      "stateMutability": "payable",
      "type": "fallback",
      "payable": true
    },
    {
      "inputs": [
        {
          "internalType": "address",
          "name": "",
          "type": "address"
        }
      ],
      "name": "airlines",
      "outputs": [
        {
          "internalType": "uint256",
          "name": "airlineId",
          "type": "uint256"
        },
        {
          "internalType": "string",
          "name": "airlineName",
          "type": "string"
        },
        {
          "internalType": "address payable",
          "name": "airlineAddress",
          "type": "address"
        },
        {
          "internalType": "bool",
          "name": "registered",
          "type": "bool"
        },
        {
          "internalType": "bool",
          "name": "participant",
          "type": "bool"
        },
        {
          "internalType": "bool",
          "name": "controller",
          "type": "bool"
        },
        {
          "internalType": "uint256",
          "name": "fundAvailable",
          "type": "uint256"
        },
        {
          "internalType": "uint256",
          "name": "fundCommitted",
          "type": "uint256"
        }
      ],
      "stateMutability": "view",
      "type": "function",
      "constant": true
    },
    {
      "inputs": [
        {
          "internalType": "bytes32",
          "name": "",
          "type": "bytes32"
        }
      ],
      "name": "flights",
      "outputs": [
        {
          "internalType": "bytes32",
          "name": "flightKey",
          "type": "bytes32"
        },
        {
          "internalType": "string",
          "name": "flight",
          "type": "string"
        },
        {
          "internalType": "bool",
          "name": "active",
          "type": "bool"
        },
        {
          "internalType": "uint8",
          "name": "statusCode",
          "type": "uint8"
        },
        {
          "internalType": "uint256",
          "name": "updatedTimestamp",
          "type": "uint256"
        },
        {
          "internalType": "address",
          "name": "airlineAddress",
          "type": "address"
        }
      ],
      "stateMutability": "view",
      "type": "function",
      "constant": true
    },
    {
      "stateMutability": "payable",
      "type": "receive",
      "payable": true
    },
    {
      "inputs": [
        {
          "internalType": "uint16",
          "name": "_year",
          "type": "uint16"
        },
        {
          "internalType": "uint8",
          "name": "_month",
          "type": "uint8"
        },
        {
          "internalType": "uint8",
          "name": "_day",
          "type": "uint8"
        },
        {
          "internalType": "uint8",
          "name": "_hour",
          "type": "uint8"
        },
        {
          "internalType": "uint8",
          "name": "_minute",
          "type": "uint8"
        }
      ],
      "name": "getDateTime",
      "outputs": [
        {
          "internalType": "uint256",
          "name": "",
          "type": "uint256"
        }
      ],
      "stateMutability": "pure",
      "type": "function",
      "constant": true
    },
    {
      "inputs": [],
      "name": "kill",
      "outputs": [],
      "stateMutability": "nonpayable",
      "type": "function"
    },
    {
      "inputs": [],
      "name": "isOperational",
      "outputs": [
        {
          "internalType": "bool",
          "name": "",
          "type": "bool"
        }
      ],
      "stateMutability": "view",
      "type": "function",
      "constant": true
    },
    {
      "inputs": [
        {
          "internalType": "address",
          "name": "_address",
          "type": "address"
        }
      ],
      "name": "isRegistered",
      "outputs": [
        {
          "internalType": "bool",
          "name": "",
          "type": "bool"
        }
      ],
      "stateMutability": "view",
      "type": "function",
      "constant": true
    },
    {
      "inputs": [
        {
          "internalType": "address",
          "name": "_address",
          "type": "address"
        }
      ],
      "name": "isController",
      "outputs": [
        {
          "internalType": "bool",
          "name": "",
          "type": "bool"
        }
      ],
      "stateMutability": "view",
      "type": "function",
      "constant": true
    },
    {
      "inputs": [
        {
          "internalType": "address",
          "name": "_address",
          "type": "address"
        }
      ],
      "name": "isParticipant",
      "outputs": [
        {
          "internalType": "bool",
          "name": "",
          "type": "bool"
        }
      ],
      "stateMutability": "view",
      "type": "function",
      "constant": true
    },
    {
      "inputs": [
        {
          "internalType": "address",
          "name": "_address",
          "type": "address"
        }
      ],
      "name": "isCandidate",
      "outputs": [
        {
          "internalType": "bool",
          "name": "",
          "type": "bool"
        }
      ],
      "stateMutability": "view",
      "type": "function",
      "constant": true
    },
    {
      "inputs": [
        {
          "internalType": "bool",
          "name": "mode",
          "type": "bool"
        }
      ],
      "name": "setOperatingStatus",
      "outputs": [],
      "stateMutability": "nonpayable",
      "type": "function"
    },
    {
      "inputs": [
        {
          "internalType": "string",
          "name": "_airlineName",
          "type": "string"
        },
        {
          "internalType": "address",
          "name": "_airlineAddress",
          "type": "address"
        }
      ],
      "name": "registerAirline",
      "outputs": [],
      "stateMutability": "nonpayable",
      "type": "function"
    },
    {
      "inputs": [],
      "name": "fund",
      "outputs": [],
      "stateMutability": "payable",
      "type": "function",
      "payable": true
    },
    {
      "inputs": [
        {
          "internalType": "string",
          "name": "_vName",
          "type": "string"
        },
        {
          "internalType": "address",
          "name": "_vAddress",
          "type": "address"
        }
      ],
      "name": "vote",
      "outputs": [],
      "stateMutability": "nonpayable",
      "type": "function"
    },
    {
      "inputs": [
        {
          "internalType": "string",
          "name": "_flight",
          "type": "string"
        },
        {
          "internalType": "uint16",
          "name": "_year",
          "type": "uint16"
        },
        {
          "internalType": "uint8",
          "name": "_month",
          "type": "uint8"
        },
        {
          "internalType": "uint8",
          "name": "_day",
          "type": "uint8"
        },
        {
          "internalType": "uint8",
          "name": "_hour",
          "type": "uint8"
        },
        {
          "internalType": "uint8",
          "name": "_minute",
          "type": "uint8"
        }
      ],
      "name": "registerFlight",
      "outputs": [],
      "stateMutability": "nonpayable",
      "type": "function"
    },
    {
      "inputs": [
        {
          "internalType": "bytes32",
          "name": "_flightKey",
          "type": "bytes32"
        }
      ],
      "name": "checkFlight",
      "outputs": [
        {
          "internalType": "bool",
          "name": "",
          "type": "bool"
        }
      ],
      "stateMutability": "view",
      "type": "function",
      "constant": true
    },
    {
      "inputs": [
        {
          "internalType": "bytes32",
          "name": "_flightKey",
          "type": "bytes32"
        },
        {
          "internalType": "uint256",
          "name": "_timestamp",
          "type": "uint256"
        }
      ],
      "name": "updateFlightTimestamp",
      "outputs": [],
      "stateMutability": "nonpayable",
      "type": "function"
    },
    {
      "inputs": [
        {
          "internalType": "bytes32",
          "name": "_flightKey",
          "type": "bytes32"
        },
        {
          "internalType": "uint8",
          "name": "_statusCode",
          "type": "uint8"
        }
      ],
      "name": "updateFlightStatus",
      "outputs": [],
      "stateMutability": "nonpayable",
      "type": "function"
    },
    {
      "inputs": [
        {
          "internalType": "bytes32",
          "name": "_flightKey",
          "type": "bytes32"
        }
      ],
      "name": "getFlightStatus",
      "outputs": [
        {
          "internalType": "uint8",
          "name": "",
          "type": "uint8"
        }
      ],
      "stateMutability": "view",
      "type": "function",
      "constant": true
    },
    {
      "inputs": [
        {
          "internalType": "string",
          "name": "_flight",
          "type": "string"
        },
        {
          "internalType": "uint16",
          "name": "_year",
          "type": "uint16"
        },
        {
          "internalType": "uint8",
          "name": "_month",
          "type": "uint8"
        },
        {
          "internalType": "uint8",
          "name": "_day",
          "type": "uint8"
        },
        {
          "internalType": "uint8",
          "name": "_hour",
          "type": "uint8"
        },
        {
          "internalType": "uint8",
          "name": "_minute",
          "type": "uint8"
        }
      ],
      "name": "buy",
      "outputs": [],
      "stateMutability": "payable",
      "type": "function",
      "payable": true
    },
    {
      "inputs": [
        {
          "internalType": "bytes32",
          "name": "_flightKey",
          "type": "bytes32"
        }
      ],
      "name": "creditInsurees",
      "outputs": [],
      "stateMutability": "nonpayable",
      "type": "function"
    },
    {
      "inputs": [
        {
          "internalType": "bytes32",
          "name": "_flightKey",
          "type": "bytes32"
        }
      ],
      "name": "pay",
      "outputs": [],
      "stateMutability": "payable",
      "type": "function",
      "payable": true
    },
    {
      "inputs": [
        {
          "internalType": "address",
          "name": "_airlineAddress",
          "type": "address"
        }
      ],
      "name": "checkAirlines",
      "outputs": [
        {
          "internalType": "string",
          "name": "name_",
          "type": "string"
        },
        {
          "internalType": "address",
          "name": "address_",
          "type": "address"
        },
        {
          "internalType": "bool",
          "name": "registered_",
          "type": "bool"
        },
        {
          "internalType": "bool",
          "name": "participant_",
          "type": "bool"
        },
        {
          "internalType": "bool",
          "name": "controller_",
          "type": "bool"
        },
        {
          "internalType": "uint256",
          "name": "fundavailable_",
          "type": "uint256"
        },
        {
          "internalType": "uint256",
          "name": "fundcommitted_",
          "type": "uint256"
        }
      ],
      "stateMutability": "view",
      "type": "function",
      "constant": true
    },
    {
      "inputs": [
        {
          "internalType": "uint256",
          "name": "_flightId",
          "type": "uint256"
        }
      ],
      "name": "checkFlights",
      "outputs": [
        {
          "internalType": "bytes32",
          "name": "key_",
          "type": "bytes32"
        },
        {
          "internalType": "string",
          "name": "flight_",
          "type": "string"
        },
        {
          "internalType": "bool",
          "name": "active_",
          "type": "bool"
        },
        {
          "internalType": "uint8",
          "name": "status_",
          "type": "uint8"
        },
        {
          "internalType": "uint256",
          "name": "timestamp_",
          "type": "uint256"
        },
        {
          "internalType": "address",
          "name": "address_",
          "type": "address"
        }
      ],
      "stateMutability": "view",
      "type": "function",
      "constant": true
    },
    {
      "inputs": [],
      "name": "checkCandidateAirlines",
      "outputs": [
        {
          "components": [
            {
              "internalType": "address",
              "name": "proposedAddress",
              "type": "address"
            },
            {
              "internalType": "string",
              "name": "proposedName",
              "type": "string"
            },
            {
              "internalType": "uint256",
              "name": "voteCount",
              "type": "uint256"
            },
            {
              "internalType": "bool",
              "name": "active",
              "type": "bool"
            }
          ],
          "internalType": "struct FlightSuretyData.Proposal[]",
          "name": "",
          "type": "tuple[]"
        }
      ],
      "stateMutability": "view",
      "type": "function",
      "constant": true
    },
    {
      "inputs": [
        {
          "internalType": "uint256",
          "name": "_iId",
          "type": "uint256"
        }
      ],
      "name": "checkInsurances",
      "outputs": [
        {
          "internalType": "bytes32",
          "name": "flightKey_",
          "type": "bytes32"
        },
        {
          "internalType": "address",
          "name": "passengerAddress_",
          "type": "address"
        },
        {
          "internalType": "uint256",
          "name": "amountPaid_",
          "type": "uint256"
        },
        {
          "internalType": "uint256",
          "name": "amountAvailable_",
          "type": "uint256"
        },
        {
          "internalType": "bool",
          "name": "claimable_",
          "type": "bool"
        },
        {
          "internalType": "bool",
          "name": "active_",
          "type": "bool"
        }
      ],
      "stateMutability": "view",
      "type": "function",
      "constant": true
    }
  ],
  "bytecode": "0x60806040526001600060146101000a81548160ff021916908315150217905550600067ffffffffffffffff8111156200003d576200003c62000694565b5b6040519080825280602002602001820160405280156200006c5781602001602082028036833780820191505090505b50600190805190602001906200008492919062000555565b5060036002553480156200009757600080fd5b50336000806101000a81548173ffffffffffffffffffffffffffffffffffffffff021916908373ffffffffffffffffffffffffffffffffffffffff1602179055506001600881905550600073f258b0a25ee7d6f02a9a1118afdf77cac6d72784905060006040518060400160405280600f81526020017f416972204e6577205a65616c616e640000000000000000000000000000000000815250905060405180610100016040528060085481526020018281526020018373ffffffffffffffffffffffffffffffffffffffff168152602001600115158152602001600015158152602001600115158152602001600081526020016000815250600760008473ffffffffffffffffffffffffffffffffffffffff1673ffffffffffffffffffffffffffffffffffffffff168152602001908152602001600020600082015181600001556020820151816001019080519060200190620001f7929190620005e4565b5060408201518160020160006101000a81548173ffffffffffffffffffffffffffffffffffffffff021916908373ffffffffffffffffffffffffffffffffffffffff16021790555060608201518160020160146101000a81548160ff02191690831515021790555060808201518160020160156101000a81548160ff02191690831515021790555060a08201518160020160166101000a81548160ff02191690831515021790555060c0820151816003015560e08201518160040155905050620002c782620002e060201b60201c565b620002d8826200035260201b60201c565b505062000869565b620002f181620003c460201b60201c565b1562000334576040517f08c379a00000000000000000000000000000000000000000000000000000000081526004016200032b906200074a565b60405180910390fd5b6200034f816003620003e860201b62002b701790919060201c565b50565b62000363816200049e60201b60201c565b15620003a6576040517f08c379a00000000000000000000000000000000000000000000000000000000081526004016200039d90620007e2565b60405180910390fd5b620003c1816004620003e860201b62002b701790919060201c565b50565b6000620003e1826003620004c260201b62002c1c1790919060201c565b9050919050565b600073ffffffffffffffffffffffffffffffffffffffff168173ffffffffffffffffffffffffffffffffffffffff1614156200042357600080fd5b620004358282620004c260201b60201c565b156200044057600080fd5b60018260000160008373ffffffffffffffffffffffffffffffffffffffff1673ffffffffffffffffffffffffffffffffffffffff16815260200190815260200160002060006101000a81548160ff0219169083151502179055505050565b6000620004bb826004620004c260201b62002c1c1790919060201c565b9050919050565b60008073ffffffffffffffffffffffffffffffffffffffff168273ffffffffffffffffffffffffffffffffffffffff161415620004fe57600080fd5b8260000160008373ffffffffffffffffffffffffffffffffffffffff1673ffffffffffffffffffffffffffffffffffffffff16815260200190815260200160002060009054906101000a900460ff16905092915050565b828054828255906000526020600020908101928215620005d1579160200282015b82811115620005d05782518260006101000a81548173ffffffffffffffffffffffffffffffffffffffff021916908373ffffffffffffffffffffffffffffffffffffffff1602179055509160200191906001019062000576565b5b509050620005e0919062000675565b5090565b828054620005f29062000833565b90600052602060002090601f01602090048101928262000616576000855562000662565b82601f106200063157805160ff191683800117855562000662565b8280016001018555821562000662579182015b828111156200066157825182559160200191906001019062000644565b5b50905062000671919062000675565b5090565b5b808211156200069057600081600090555060010162000676565b5090565b7f4e487b7100000000000000000000000000000000000000000000000000000000600052604160045260246000fd5b600082825260208201905092915050565b7f4552524f523a204149524c494e4520495320414c52454144592052454749535460008201527f4552454400000000000000000000000000000000000000000000000000000000602082015250565b600062000732602483620006c3565b91506200073f82620006d4565b604082019050919050565b60006020820190508181036000830152620007658162000723565b9050919050565b7f4552524f523a204149524c494e4520495320414c5245414459204120434f4e5460008201527f524f4c4c45520000000000000000000000000000000000000000000000000000602082015250565b6000620007ca602683620006c3565b9150620007d7826200076c565b604082019050919050565b60006020820190508181036000830152620007fd81620007bb565b9050919050565b7f4e487b7100000000000000000000000000000000000000000000000000000000600052602260045260246000fd5b600060028204905060018216806200084c57607f821691505b6020821081141562000863576200086262000804565b5b50919050565b6153ad80620008796000396000f3fe60806040526004361061016a5760003560e01c8063929066f5116100d1578063cd905dff1161008a578063dda5bd5611610064578063dda5bd561461055b578063e188ac9814610577578063edeb6c3a146105ba578063f0a354f1146105fc57610171565b8063cd905dff146104ca578063d51b9e93146104f5578063d737d8141461053257610171565b8063929066f5146103b5578063a190c315146103f2578063b429afeb1461041d578063b60d42881461045a578063c3c5a54714610464578063cc2f6eba146104a157610171565b80634a3bc19d116101235780634a3bc19d1461028b5780635a436c06146102b457806361b029ed146102dd57806379fca2851461031a5780638529b35d146103575780638609cad11461039957610171565b80630e2c412914610173578063110466ed1461019c57806320c5375e146101c55780633f2aecea14610207578063416847691461023057806341c0e1b51461027457610171565b3661017157005b005b34801561017f57600080fd5b5061019a60048036038101906101959190613796565b610639565b005b3480156101a857600080fd5b506101c360048036038101906101be919061382a565b6109cb565b005b3480156101d157600080fd5b506101ec60048036038101906101e7919061388d565b610c9b565b6040516101fe969594939291906139a4565b60405180910390f35b34801561021357600080fd5b5061022e60048036038101906102299190613a38565b610d99565b005b34801561023c57600080fd5b5061025760048036038101906102529190613a78565b610dcc565b60405161026b989796959493929190613ac6565b60405180910390f35b34801561028057600080fd5b50610289610ee3565b005b34801561029757600080fd5b506102b260048036038101906102ad9190613b77565b611000565b005b3480156102c057600080fd5b506102db60048036038101906102d69190613796565b61101f565b005b3480156102e957600080fd5b5061030460048036038101906102ff919061388d565b6114b6565b6040516103119190613bb7565b60405180910390f35b34801561032657600080fd5b50610341600480360381019061033c919061388d565b61153b565b60405161034e9190613bd2565b60405180910390f35b34801561036357600080fd5b5061037e60048036038101906103799190613bed565b611568565b604051610390969594939291906139a4565b60405180910390f35b6103b360048036038101906103ae919061388d565b6116ef565b005b3480156103c157600080fd5b506103dc60048036038101906103d79190613a78565b6117ad565b6040516103e99190613bb7565b60405180910390f35b3480156103fe57600080fd5b506104076117ca565b6040516104149190613db6565b60405180910390f35b34801561042957600080fd5b50610444600480360381019061043f9190613a78565b611936565b6040516104519190613bb7565b60405180910390f35b610462611953565b005b34801561047057600080fd5b5061048b60048036038101906104869190613a78565b611bde565b6040516104989190613bb7565b60405180910390f35b3480156104ad57600080fd5b506104c860048036038101906104c3919061388d565b611bfb565b005b3480156104d657600080fd5b506104df611e85565b6040516104ec9190613bb7565b60405180910390f35b34801561050157600080fd5b5061051c60048036038101906105179190613a78565b611e9b565b6040516105299190613bb7565b60405180910390f35b34801561053e57600080fd5b5061055960048036038101906105549190613e12565b611eb8565b005b61057560048036038101906105709190613e12565b612175565b005b34801561058357600080fd5b5061059e60048036038101906105999190613a78565b6126cb565b6040516105b19796959493929190613ebb565b60405180910390f35b3480156105c657600080fd5b506105e160048036038101906105dc9190613bed565b612996565b6040516105f396959493929190613f31565b60405180910390f35b34801561060857600080fd5b50610623600480360381019061061e9190613f92565b612a91565b604051610630919061400d565b60405180910390f35b600060149054906101000a900460ff16610688576040517f08c379a000000000000000000000000000000000000000000000000000000000815260040161067f9061409a565b60405180910390fd5b61069181611bde565b156106d1576040517f08c379a00000000000000000000000000000000000000000000000000000000081526004016106c89061412c565b60405180910390fd5b600460085410156109bc5760008054906101000a900473ffffffffffffffffffffffffffffffffffffffff1673ffffffffffffffffffffffffffffffffffffffff163373ffffffffffffffffffffffffffffffffffffffff16148061073b575061073a33611936565b5b61077a576040517f08c379a000000000000000000000000000000000000000000000000000000000815260040161077190614198565b60405180910390fd5b6008600081548092919061078d906141e7565b919050555060405180610100016040528060085481526020018381526020018273ffffffffffffffffffffffffffffffffffffffff168152602001600115158152602001600015158152602001600015158152602001600081526020016000815250600760008373ffffffffffffffffffffffffffffffffffffffff1673ffffffffffffffffffffffffffffffffffffffff1681526020019081526020016000206000820151816000015560208201518160010190805190602001906108549291906134b1565b5060408201518160020160006101000a81548173ffffffffffffffffffffffffffffffffffffffff021916908373ffffffffffffffffffffffffffffffffffffffff16021790555060608201518160020160146101000a81548160ff02191690831515021790555060808201518160020160156101000a81548160ff02191690831515021790555060a08201518160020160166101000a81548160ff02191690831515021790555060c0820151816003015560e0820151816004015590505061091c81612cae565b6001600760008373ffffffffffffffffffffffffffffffffffffffff1673ffffffffffffffffffffffffffffffffffffffff16815260200190815260200160002060020160166101000a81548160ff02191690831515021790555061098081612d0e565b7f478f5152d8fc568db3f8de9fb402fd9d98a1a7541ecfe434e59cf574fbfc5524816040516109af9190614230565b60405180910390a16109c7565b6109c68282612d6e565b5b5050565b60008054906101000a900473ffffffffffffffffffffffffffffffffffffffff1673ffffffffffffffffffffffffffffffffffffffff163373ffffffffffffffffffffffffffffffffffffffff161480610a355750610a34336004612c1c90919063ffffffff16565b5b610a74576040517f08c379a0000000000000000000000000000000000000000000000000000000008152600401610a6b906142bd565b60405180910390fd5b600060149054906101000a900460ff1615158115151415610aca576040517f08c379a0000000000000000000000000000000000000000000000000000000008152600401610ac19061434f565b60405180910390fd5b6000805b600180549050811015610b69573373ffffffffffffffffffffffffffffffffffffffff1660018281548110610b0657610b0561436f565b5b9060005260206000200160009054906101000a900473ffffffffffffffffffffffffffffffffffffffff1673ffffffffffffffffffffffffffffffffffffffff161415610b565760019150610b69565b8080610b61906141e7565b915050610ace565b508015610bab576040517f08c379a0000000000000000000000000000000000000000000000000000000008152600401610ba290614410565b60405180910390fd5b6001339080600181540180825580915050600190039060005260206000200160009091909190916101000a81548173ffffffffffffffffffffffffffffffffffffffff021916908373ffffffffffffffffffffffffffffffffffffffff16021790555060025460018054905010610c975781600060146101000a81548160ff021916908315150217905550600067ffffffffffffffff811115610c5157610c5061360d565b5b604051908082528060200260200182016040528015610c7f5781602001602082028036833780820191505090505b5060019080519060200190610c95929190613537565b505b5050565b6009602052806000526040600020600091509050806000015490806001018054610cc49061445f565b80601f0160208091040260200160405190810160405280929190818152602001828054610cf09061445f565b8015610d3d5780601f10610d1257610100808354040283529160200191610d3d565b820191906000526020600020905b815481529060010190602001808311610d2057829003601f168201915b5050505050908060020160009054906101000a900460ff16908060020160019054906101000a900460ff16908060030154908060040160009054906101000a900473ffffffffffffffffffffffffffffffffffffffff16905086565b806009600084815260200190815260200160002060020160016101000a81548160ff021916908360ff1602179055505050565b6007602052806000526040600020600091509050806000015490806001018054610df59061445f565b80601f0160208091040260200160405190810160405280929190818152602001828054610e219061445f565b8015610e6e5780601f10610e4357610100808354040283529160200191610e6e565b820191906000526020600020905b815481529060010190602001808311610e5157829003601f168201915b5050505050908060020160009054906101000a900473ffffffffffffffffffffffffffffffffffffffff16908060020160149054906101000a900460ff16908060020160159054906101000a900460ff16908060020160169054906101000a900460ff16908060030154908060040154905088565b60008054906101000a900473ffffffffffffffffffffffffffffffffffffffff1673ffffffffffffffffffffffffffffffffffffffff163373ffffffffffffffffffffffffffffffffffffffff1614610f71576040517f08c379a0000000000000000000000000000000000000000000000000000000008152600401610f68906144dd565b60405180910390fd5b60008054906101000a900473ffffffffffffffffffffffffffffffffffffffff1673ffffffffffffffffffffffffffffffffffffffff163373ffffffffffffffffffffffffffffffffffffffff161415610ffe5760008054906101000a900473ffffffffffffffffffffffffffffffffffffffff1673ffffffffffffffffffffffffffffffffffffffff16ff5b565b8060096000848152602001908152602001600020600301819055505050565b600060149054906101000a900460ff1661106e576040517f08c379a00000000000000000000000000000000000000000000000000000000081526004016110659061409a565b60405180910390fd5b61107733611bde565b6110b6576040517f08c379a00000000000000000000000000000000000000000000000000000000081526004016110ad90614549565b60405180910390fd5b6110bf81611bde565b156110ff576040517f08c379a00000000000000000000000000000000000000000000000000000000081526004016110f6906145db565b60405180910390fd5b61110881611e9b565b611147576040517f08c379a000000000000000000000000000000000000000000000000000000000815260040161113e9061466d565b60405180910390fd5b60008060005b600d60003373ffffffffffffffffffffffffffffffffffffffff1673ffffffffffffffffffffffffffffffffffffffff16815260200190815260200160002080549050811015611298578373ffffffffffffffffffffffffffffffffffffffff16600d60003373ffffffffffffffffffffffffffffffffffffffff1673ffffffffffffffffffffffffffffffffffffffff16815260200190815260200160002082815481106111ff576111fe61436f565b5b9060005260206000200160009054906101000a900473ffffffffffffffffffffffffffffffffffffffff1673ffffffffffffffffffffffffffffffffffffffff16141561128557600192506040517f08c379a000000000000000000000000000000000000000000000000000000000815260040161127c906146ff565b60405180910390fd5b8080611290906141e7565b91505061114d565b508161133f57600d60003373ffffffffffffffffffffffffffffffffffffffff1673ffffffffffffffffffffffffffffffffffffffff168152602001908152602001600020839080600181540180825580915050600190039060005260206000200160009091909190916101000a81548173ffffffffffffffffffffffffffffffffffffffff021916908373ffffffffffffffffffffffffffffffffffffffff1602179055505b60005b600c805490508110156114af578373ffffffffffffffffffffffffffffffffffffffff16600c828154811061137a5761137961436f565b5b906000526020600020906004020160000160009054906101000a900473ffffffffffffffffffffffffffffffffffffffff1673ffffffffffffffffffffffffffffffffffffffff16141561149c576001600c82815481106113de576113dd61436f565b5b906000526020600020906004020160020160008282546113fe919061471f565b925050819055506008546064600c838154811061141e5761141d61436f565b5b90600052602060002090600402016002015461143a9190614775565b61144491906147fe565b915060328210611497576114588585612f89565b6000600c828154811061146e5761146d61436f565b5b906000526020600020906004020160030160006101000a81548160ff0219169083151502179055505b6114af565b80806114a7906141e7565b915050611342565b5050505050565b600080600073ffffffffffffffffffffffffffffffffffffffff166009600085815260200190815260200160002060040160009054906101000a900473ffffffffffffffffffffffffffffffffffffffff1673ffffffffffffffffffffffffffffffffffffffff16141561152d5760009050611532565b600190505b80915050919050565b60006009600083815260200190815260200160002060020160019054906101000a900460ff169050919050565b600060606000806000806000600a60008981526020019081526020016000205490506009600082815260200190815260200160002060000154600960008381526020019081526020016000206001016009600084815260200190815260200160002060020160009054906101000a900460ff166009600085815260200190815260200160002060020160019054906101000a900460ff1660096000868152602001908152602001600020600301546009600087815260200190815260200160002060040160009054906101000a900473ffffffffffffffffffffffffffffffffffffffff168480546116599061445f565b80601f01602080910402602001604051908101604052809291908181526020018280546116859061445f565b80156116d25780601f106116a7576101008083540402835291602001916116d2565b820191906000526020600020905b8154815290600101906020018083116116b557829003601f168201915b505050505094509650965096509650965096505091939550919395565b600060149054906101000a900460ff1661173e576040517f08c379a00000000000000000000000000000000000000000000000000000000081526004016117359061409a565b60405180910390fd5b600061174a3383613207565b90503373ffffffffffffffffffffffffffffffffffffffff166108fc600e6000848152602001908152602001600020600401549081150290604051600060405180830381858888f193505050501580156117a8573d6000803e3d6000fd5b505050565b60006117c3826005612c1c90919063ffffffff16565b9050919050565b6060600c805480602002602001604051908101604052809291908181526020016000905b8282101561192d57838290600052602060002090600402016040518060800160405290816000820160009054906101000a900473ffffffffffffffffffffffffffffffffffffffff1673ffffffffffffffffffffffffffffffffffffffff1673ffffffffffffffffffffffffffffffffffffffff1681526020016001820180546118779061445f565b80601f01602080910402602001604051908101604052809291908181526020018280546118a39061445f565b80156118f05780601f106118c5576101008083540402835291602001916118f0565b820191906000526020600020905b8154815290600101906020018083116118d357829003601f168201915b50505050508152602001600282015481526020016003820160009054906101000a900460ff161515151581525050815260200190600101906117ee565b50505050905090565b600061194c826004612c1c90919063ffffffff16565b9050919050565b678ac7230489e800008034101561199f576040517f08c379a00000000000000000000000000000000000000000000000000000000081526004016119969061487b565b60405180910390fd5b678ac7230489e8000034146119e9576040517f08c379a00000000000000000000000000000000000000000000000000000000081526004016119e09061490d565b60405180910390fd5b600060149054906101000a900460ff16611a38576040517f08c379a0000000000000000000000000000000000000000000000000000000008152600401611a2f9061409a565b60405180910390fd5b611a4133611bde565b611a80576040517f08c379a0000000000000000000000000000000000000000000000000000000008152600401611a7790614549565b60405180910390fd5b611a89336117ad565b15611ac9576040517f08c379a0000000000000000000000000000000000000000000000000000000008152600401611ac09061499f565b60405180910390fd5b60008054906101000a900473ffffffffffffffffffffffffffffffffffffffff1673ffffffffffffffffffffffffffffffffffffffff166108fc349081150290604051600060405180830381858888f19350505050158015611b2f573d6000803e3d6000fd5b506001600760003373ffffffffffffffffffffffffffffffffffffffff1673ffffffffffffffffffffffffffffffffffffffff16815260200190815260200160002060020160156101000a81548160ff02191690831515021790555034600760003373ffffffffffffffffffffffffffffffffffffffff1673ffffffffffffffffffffffffffffffffffffffff16815260200190815260200160002060030181905550611bdb3361325c565b50565b6000611bf4826003612c1c90919063ffffffff16565b9050919050565b6000611c073383613207565b905081600e60008381526020019081526020016000206001015414611c61576040517f08c379a0000000000000000000000000000000000000000000000000000000008152600401611c5890614a0b565b60405180910390fd5b600e600082815260200190815260200160002060050160009054906101000a900460ff16611cc4576040517f08c379a0000000000000000000000000000000000000000000000000000000008152600401611cbb90614a77565b60405180910390fd5b60006009600084815260200190815260200160002060040160009054906101000a900473ffffffffffffffffffffffffffffffffffffffff1690506000600e60008481526020019081526020016000206003015490506000611d31611d2a83600f6132bc565b600a6132d2565b90506000600760008573ffffffffffffffffffffffffffffffffffffffff1673ffffffffffffffffffffffffffffffffffffffff1681526020019081526020016000206003015490506000600760008673ffffffffffffffffffffffffffffffffffffffff1673ffffffffffffffffffffffffffffffffffffffff16815260200190815260200160002060040154905082600e600088815260200190815260200160002060040181905550611de682846132e8565b600760008773ffffffffffffffffffffffffffffffffffffffff1673ffffffffffffffffffffffffffffffffffffffff16815260200190815260200160002060030181905550611e3681846132e8565b600760008773ffffffffffffffffffffffffffffffffffffffff1673ffffffffffffffffffffffffffffffffffffffff1681526020019081526020016000206004018190555050505050505050565b60008060149054906101000a900460ff16905090565b6000611eb1826006612c1c90919063ffffffff16565b9050919050565b611ec1336117ad565b611f00576040517f08c379a0000000000000000000000000000000000000000000000000000000008152600401611ef790614b09565b60405180910390fd5b6000611f0f8686868686612a91565b90506202a30042611f20919061471f565b8111611f61576040517f08c379a0000000000000000000000000000000000000000000000000000000008152600401611f5890614b9b565b60405180910390fd5b6000611f6d88836132fe565b9050600073ffffffffffffffffffffffffffffffffffffffff166009600083815260200190815260200160002060040160009054906101000a900473ffffffffffffffffffffffffffffffffffffffff1673ffffffffffffffffffffffffffffffffffffffff1614612014576040517f08c379a000000000000000000000000000000000000000000000000000000000815260040161200b90614c07565b60405180910390fd5b6040518060c00160405280828152602001898152602001600115158152602001600060ff16815260200161204b8989898989612a91565b81526020013373ffffffffffffffffffffffffffffffffffffffff16815250600960008381526020019081526020016000206000820151816000015560208201518160010190805190602001906120a39291906134b1565b5060408201518160020160006101000a81548160ff02191690831515021790555060608201518160020160016101000a81548160ff021916908360ff1602179055506080820151816003015560a08201518160040160006101000a81548173ffffffffffffffffffffffffffffffffffffffff021916908373ffffffffffffffffffffffffffffffffffffffff160217905550905050600b600081548092919061214c906141e7565b919050555080600a6000600b548152602001908152602001600020819055505050505050505050565b633b9aca0034101580156121915750670de0b6b3a76400003411155b6121d0576040517f08c379a00000000000000000000000000000000000000000000000000000000081526004016121c790614c99565b60405180910390fd5b600060149054906101000a900460ff1661221f576040517f08c379a00000000000000000000000000000000000000000000000000000000081526004016122169061409a565b60405180910390fd5b61222833611bde565b158015612281575060008054906101000a900473ffffffffffffffffffffffffffffffffffffffff1673ffffffffffffffffffffffffffffffffffffffff163373ffffffffffffffffffffffffffffffffffffffff1614155b6122c0576040517f08c379a00000000000000000000000000000000000000000000000000000000081526004016122b790614d2b565b60405180910390fd5b60006122cf8686868686612a91565b905060006122dd88836132fe565b9050876040516020016122f09190614d87565b604051602081830303815290604052805190602001206009600083815260200190815260200160002060010160405160200161232c9190614e32565b6040516020818303038152906040528051906020012014612382576040517f08c379a000000000000000000000000000000000000000000000000000000000815260040161237990614e95565b60405180910390fd5b60006009600083815260200190815260200160002060040160009054906101000a900473ffffffffffffffffffffffffffffffffffffffff16905060006123c93384613207565b905082600e6000838152602001908152602001600020600101541415612424576040517f08c379a000000000000000000000000000000000000000000000000000000000815260040161241b90614f27565b60405180910390fd5b60008054906101000a900473ffffffffffffffffffffffffffffffffffffffff1673ffffffffffffffffffffffffffffffffffffffff166108fc349081150290604051600060405180830381858888f1935050505015801561248a573d6000803e3d6000fd5b506010600081548092919061249e906141e7565b91905055506040518060e001604052808281526020018481526020013373ffffffffffffffffffffffffffffffffffffffff1681526020013481526020016000815260200160001515815260200160011515815250600e6000838152602001908152602001600020600082015181600001556020820151816001015560408201518160020160006101000a81548173ffffffffffffffffffffffffffffffffffffffff021916908373ffffffffffffffffffffffffffffffffffffffff160217905550606082015181600301556080820151816004015560a08201518160050160006101000a81548160ff02191690831515021790555060c08201518160050160016101000a81548160ff02191690831515021790555090505080600f600060105481526020019081526020016000208190555061261e600760008473ffffffffffffffffffffffffffffffffffffffff1673ffffffffffffffffffffffffffffffffffffffff1681526020019081526020016000206003015434613331565b600760008473ffffffffffffffffffffffffffffffffffffffff1673ffffffffffffffffffffffffffffffffffffffff1681526020019081526020016000206003018190555061267961267234600f6132bc565b600a6132d2565b600760008473ffffffffffffffffffffffffffffffffffffffff1673ffffffffffffffffffffffffffffffffffffffff1681526020019081526020016000206004018190555050505050505050505050565b6060600080600080600080600760008973ffffffffffffffffffffffffffffffffffffffff1673ffffffffffffffffffffffffffffffffffffffff168152602001908152602001600020600101600760008a73ffffffffffffffffffffffffffffffffffffffff1673ffffffffffffffffffffffffffffffffffffffff16815260200190815260200160002060020160009054906101000a900473ffffffffffffffffffffffffffffffffffffffff16600760008b73ffffffffffffffffffffffffffffffffffffffff1673ffffffffffffffffffffffffffffffffffffffff16815260200190815260200160002060020160149054906101000a900460ff16600760008c73ffffffffffffffffffffffffffffffffffffffff1673ffffffffffffffffffffffffffffffffffffffff16815260200190815260200160002060020160159054906101000a900460ff16600760008d73ffffffffffffffffffffffffffffffffffffffff1673ffffffffffffffffffffffffffffffffffffffff16815260200190815260200160002060020160169054906101000a900460ff16600760008e73ffffffffffffffffffffffffffffffffffffffff1673ffffffffffffffffffffffffffffffffffffffff16815260200190815260200160002060030154600760008f73ffffffffffffffffffffffffffffffffffffffff1673ffffffffffffffffffffffffffffffffffffffff168152602001908152602001600020600401548680546128fd9061445f565b80601f01602080910402602001604051908101604052809291908181526020018280546129299061445f565b80156129765780601f1061294b57610100808354040283529160200191612976565b820191906000526020600020905b81548152906001019060200180831161295957829003601f168201915b505050505096509650965096509650965096509650919395979092949650565b6000806000806000806000600f6000898152602001908152602001600020549050600e600082815260200190815260200160002060010154600e600083815260200190815260200160002060020160009054906101000a900473ffffffffffffffffffffffffffffffffffffffff16600e600084815260200190815260200160002060030154600e600085815260200190815260200160002060040154600e600086815260200190815260200160002060050160009054906101000a900460ff16600e600087815260200190815260200160002060050160019054906101000a900460ff169650965096509650965096505091939550919395565b60008073__DateLib_______________________________635ececa4f6040518061010001604052808a61ffff1681526020018960ff1681526020018860ff1681526020018760ff1681526020018660ff168152602001600060ff168152602001600060ff168152602001600060ff168152506040518263ffffffff1660e01b8152600401612b209190615007565b602060405180830381865af4158015612b3d573d6000803e3d6000fd5b505050506040513d601f19601f82011682018060405250810190612b619190615038565b90508091505095945050505050565b600073ffffffffffffffffffffffffffffffffffffffff168173ffffffffffffffffffffffffffffffffffffffff161415612baa57600080fd5b612bb48282612c1c565b15612bbe57600080fd5b60018260000160008373ffffffffffffffffffffffffffffffffffffffff1673ffffffffffffffffffffffffffffffffffffffff16815260200190815260200160002060006101000a81548160ff0219169083151502179055505050565b60008073ffffffffffffffffffffffffffffffffffffffff168273ffffffffffffffffffffffffffffffffffffffff161415612c5757600080fd5b8260000160008373ffffffffffffffffffffffffffffffffffffffff1673ffffffffffffffffffffffffffffffffffffffff16815260200190815260200160002060009054906101000a900460ff16905092915050565b612cb781611bde565b15612cf7576040517f08c379a0000000000000000000000000000000000000000000000000000000008152600401612cee9061412c565b60405180910390fd5b612d0b816003612b7090919063ffffffff16565b50565b612d1781611936565b15612d57576040517f08c379a0000000000000000000000000000000000000000000000000000000008152600401612d4e906150d7565b60405180910390fd5b612d6b816004612b7090919063ffffffff16565b50565b600060149054906101000a900460ff16612dbd576040517f08c379a0000000000000000000000000000000000000000000000000000000008152600401612db49061409a565b60405180910390fd5b612dc681611bde565b15612e06576040517f08c379a0000000000000000000000000000000000000000000000000000000008152600401612dfd9061412c565b60405180910390fd5b612e0f81611e9b565b15612e4f576040517f08c379a0000000000000000000000000000000000000000000000000000000008152600401612e4690615169565b60405180910390fd5b600c60405180608001604052808373ffffffffffffffffffffffffffffffffffffffff1681526020018481526020016000815260200160011515815250908060018154018082558091505060019003906000526020600020906004020160009091909190915060008201518160000160006101000a81548173ffffffffffffffffffffffffffffffffffffffff021916908373ffffffffffffffffffffffffffffffffffffffff1602179055506020820151816001019080519060200190612f189291906134b1565b506040820151816002015560608201518160030160006101000a81548160ff0219169083151502179055505050612f4e81613347565b7f8cc40b9abca4a505a92028908f9d913d621d18112c69412806506f02333f26b481604051612f7d9190614230565b60405180910390a15050565b600060149054906101000a900460ff16612fd8576040517f08c379a0000000000000000000000000000000000000000000000000000000008152600401612fcf9061409a565b60405180910390fd5b612fe181611bde565b15613021576040517f08c379a00000000000000000000000000000000000000000000000000000000081526004016130189061412c565b60405180910390fd5b60086000815480929190613034906141e7565b919050555060405180610100016040528060085481526020018381526020018273ffffffffffffffffffffffffffffffffffffffff168152602001600115158152602001600015158152602001600015158152602001600081526020016000815250600760008373ffffffffffffffffffffffffffffffffffffffff1673ffffffffffffffffffffffffffffffffffffffff1681526020019081526020016000206000820151816000015560208201518160010190805190602001906130fb9291906134b1565b5060408201518160020160006101000a81548173ffffffffffffffffffffffffffffffffffffffff021916908373ffffffffffffffffffffffffffffffffffffffff16021790555060608201518160020160146101000a81548160ff02191690831515021790555060808201518160020160156101000a81548160ff02191690831515021790555060a08201518160020160166101000a81548160ff02191690831515021790555060c0820151816003015560e082015181600401559050506131c381612cae565b6131cc816133a7565b7f478f5152d8fc568db3f8de9fb402fd9d98a1a7541ecfe434e59cf574fbfc5524816040516131fb9190614230565b60405180910390a15050565b60008060608473ffffffffffffffffffffffffffffffffffffffff16901b60001b9050808360405160200161323d9291906151aa565b6040516020818303038152906040528051906020012091505092915050565b613265816117ad565b156132a5576040517f08c379a000000000000000000000000000000000000000000000000000000000815260040161329c90615248565b60405180910390fd5b6132b9816005612b7090919063ffffffff16565b50565b600081836132ca9190614775565b905092915050565b600081836132e091906147fe565b905092915050565b600081836132f69190615268565b905092915050565b600082826040516020016133139291906152bd565b60405160208183030381529060405280519060200120905092915050565b6000818361333f919061471f565b905092915050565b61335081611e9b565b15613390576040517f08c379a000000000000000000000000000000000000000000000000000000000815260040161338790615169565b60405180910390fd5b6133a4816006612b7090919063ffffffff16565b50565b6133b081611e9b565b6133ef576040517f08c379a00000000000000000000000000000000000000000000000000000000081526004016133e690615357565b60405180910390fd5b61340381600661340690919063ffffffff16565b50565b600073ffffffffffffffffffffffffffffffffffffffff168173ffffffffffffffffffffffffffffffffffffffff16141561344057600080fd5b61344a8282612c1c565b61345357600080fd5b60008260000160008373ffffffffffffffffffffffffffffffffffffffff1673ffffffffffffffffffffffffffffffffffffffff16815260200190815260200160002060006101000a81548160ff0219169083151502179055505050565b8280546134bd9061445f565b90600052602060002090601f0160209004810192826134df5760008555613526565b82601f106134f857805160ff1916838001178555613526565b82800160010185558215613526579182015b8281111561352557825182559160200191906001019061350a565b5b50905061353391906135c1565b5090565b8280548282559060005260206000209081019282156135b0579160200282015b828111156135af5782518260006101000a81548173ffffffffffffffffffffffffffffffffffffffff021916908373ffffffffffffffffffffffffffffffffffffffff16021790555091602001919060010190613557565b5b5090506135bd91906135c1565b5090565b5b808211156135da5760008160009055506001016135c2565b5090565b6000604051905090565b600080fd5b600080fd5b600080fd5b600080fd5b6000601f19601f8301169050919050565b7f4e487b7100000000000000000000000000000000000000000000000000000000600052604160045260246000fd5b613645826135fc565b810181811067ffffffffffffffff821117156136645761366361360d565b5b80604052505050565b60006136776135de565b9050613683828261363c565b919050565b600067ffffffffffffffff8211156136a3576136a261360d565b5b6136ac826135fc565b9050602081019050919050565b82818337600083830152505050565b60006136db6136d684613688565b61366d565b9050828152602081018484840111156136f7576136f66135f7565b5b6137028482856136b9565b509392505050565b600082601f83011261371f5761371e6135f2565b5b813561372f8482602086016136c8565b91505092915050565b600073ffffffffffffffffffffffffffffffffffffffff82169050919050565b600061376382613738565b9050919050565b61377381613758565b811461377e57600080fd5b50565b6000813590506137908161376a565b92915050565b600080604083850312156137ad576137ac6135e8565b5b600083013567ffffffffffffffff8111156137cb576137ca6135ed565b5b6137d78582860161370a565b92505060206137e885828601613781565b9150509250929050565b60008115159050919050565b613807816137f2565b811461381257600080fd5b50565b600081359050613824816137fe565b92915050565b6000602082840312156138405761383f6135e8565b5b600061384e84828501613815565b91505092915050565b6000819050919050565b61386a81613857565b811461387557600080fd5b50565b60008135905061388781613861565b92915050565b6000602082840312156138a3576138a26135e8565b5b60006138b184828501613878565b91505092915050565b6138c381613857565b82525050565b600081519050919050565b600082825260208201905092915050565b60005b838110156139035780820151818401526020810190506138e8565b83811115613912576000848401525b50505050565b6000613923826138c9565b61392d81856138d4565b935061393d8185602086016138e5565b613946816135fc565b840191505092915050565b61395a816137f2565b82525050565b600060ff82169050919050565b61397681613960565b82525050565b6000819050919050565b61398f8161397c565b82525050565b61399e81613758565b82525050565b600060c0820190506139b960008301896138ba565b81810360208301526139cb8188613918565b90506139da6040830187613951565b6139e7606083018661396d565b6139f46080830185613986565b613a0160a0830184613995565b979650505050505050565b613a1581613960565b8114613a2057600080fd5b50565b600081359050613a3281613a0c565b92915050565b60008060408385031215613a4f57613a4e6135e8565b5b6000613a5d85828601613878565b9250506020613a6e85828601613a23565b9150509250929050565b600060208284031215613a8e57613a8d6135e8565b5b6000613a9c84828501613781565b91505092915050565b6000613ab082613738565b9050919050565b613ac081613aa5565b82525050565b600061010082019050613adc600083018b613986565b8181036020830152613aee818a613918565b9050613afd6040830189613ab7565b613b0a6060830188613951565b613b176080830187613951565b613b2460a0830186613951565b613b3160c0830185613986565b613b3e60e0830184613986565b9998505050505050505050565b613b548161397c565b8114613b5f57600080fd5b50565b600081359050613b7181613b4b565b92915050565b60008060408385031215613b8e57613b8d6135e8565b5b6000613b9c85828601613878565b9250506020613bad85828601613b62565b9150509250929050565b6000602082019050613bcc6000830184613951565b92915050565b6000602082019050613be7600083018461396d565b92915050565b600060208284031215613c0357613c026135e8565b5b6000613c1184828501613b62565b91505092915050565b600081519050919050565b600082825260208201905092915050565b6000819050602082019050919050565b613c4f81613758565b82525050565b600082825260208201905092915050565b6000613c71826138c9565b613c7b8185613c55565b9350613c8b8185602086016138e5565b613c94816135fc565b840191505092915050565b613ca88161397c565b82525050565b613cb7816137f2565b82525050565b6000608083016000830151613cd56000860182613c46565b5060208301518482036020860152613ced8282613c66565b9150506040830151613d026040860182613c9f565b506060830151613d156060860182613cae565b508091505092915050565b6000613d2c8383613cbd565b905092915050565b6000602082019050919050565b6000613d4c82613c1a565b613d568185613c25565b935083602082028501613d6885613c36565b8060005b85811015613da45784840389528151613d858582613d20565b9450613d9083613d34565b925060208a01995050600181019050613d6c565b50829750879550505050505092915050565b60006020820190508181036000830152613dd08184613d41565b905092915050565b600061ffff82169050919050565b613def81613dd8565b8114613dfa57600080fd5b50565b600081359050613e0c81613de6565b92915050565b60008060008060008060c08789031215613e2f57613e2e6135e8565b5b600087013567ffffffffffffffff811115613e4d57613e4c6135ed565b5b613e5989828a0161370a565b9650506020613e6a89828a01613dfd565b9550506040613e7b89828a01613a23565b9450506060613e8c89828a01613a23565b9350506080613e9d89828a01613a23565b92505060a0613eae89828a01613a23565b9150509295509295509295565b600060e0820190508181036000830152613ed5818a613918565b9050613ee46020830189613995565b613ef16040830188613951565b613efe6060830187613951565b613f0b6080830186613951565b613f1860a0830185613986565b613f2560c0830184613986565b98975050505050505050565b600060c082019050613f4660008301896138ba565b613f536020830188613995565b613f606040830187613986565b613f6d6060830186613986565b613f7a6080830185613951565b613f8760a0830184613951565b979650505050505050565b600080600080600060a08688031215613fae57613fad6135e8565b5b6000613fbc88828901613dfd565b9550506020613fcd88828901613a23565b9450506040613fde88828901613a23565b9350506060613fef88828901613a23565b925050608061400088828901613a23565b9150509295509295909350565b60006020820190506140226000830184613986565b92915050565b7f434f4e54524143542049532043555252454e544c59204e4f54204f504552415460008201527f494f4e414c000000000000000000000000000000000000000000000000000000602082015250565b60006140846025836138d4565b915061408f82614028565b604082019050919050565b600060208201905081810360008301526140b381614077565b9050919050565b7f4552524f523a204149524c494e4520495320414c52454144592052454749535460008201527f4552454400000000000000000000000000000000000000000000000000000000602082015250565b60006141166024836138d4565b9150614121826140ba565b604082019050919050565b6000602082019050818103600083015261414581614109565b9050919050565b7f4552524f523a2043414c4c4552204953204e4f5420434f4e54524f4c4c455200600082015250565b6000614182601f836138d4565b915061418d8261414c565b602082019050919050565b600060208201905081810360008301526141b181614175565b9050919050565b7f4e487b7100000000000000000000000000000000000000000000000000000000600052601160045260246000fd5b60006141f28261397c565b91507fffffffffffffffffffffffffffffffffffffffffffffffffffffffffffffffff821415614225576142246141b8565b5b600182019050919050565b60006020820190506142456000830184613995565b92915050565b7f43414c4c4552204953204e4f5420414e20415554484f52495a454420434f4e5460008201527f5241435400000000000000000000000000000000000000000000000000000000602082015250565b60006142a76024836138d4565b91506142b28261424b565b604082019050919050565b600060208201905081810360008301526142d68161429a565b9050919050565b7f4e4557204d4f4445204d555354204245204449464552454e542046524f4d205460008201527f4845204558495349544e47000000000000000000000000000000000000000000602082015250565b6000614339602b836138d4565b9150614344826142dd565b604082019050919050565b600060208201905081810360008301526143688161432c565b9050919050565b7f4e487b7100000000000000000000000000000000000000000000000000000000600052603260045260246000fd5b7f4552524f523a2043414c4c45522048415320414c52454144592043414c4c454460008201527f20544849532046554e4354494f4e000000000000000000000000000000000000602082015250565b60006143fa602e836138d4565b91506144058261439e565b604082019050919050565b60006020820190508181036000830152614429816143ed565b9050919050565b7f4e487b7100000000000000000000000000000000000000000000000000000000600052602260045260246000fd5b6000600282049050600182168061447757607f821691505b6020821081141561448b5761448a614430565b5b50919050565b7f43414c4c4552204953204e4f5420434f4e5452414354204f574e455200000000600082015250565b60006144c7601c836138d4565b91506144d282614491565b602082019050919050565b600060208201905081810360008301526144f6816144ba565b9050919050565b7f4552524f523a2043414c4c4552204953204e4f54205245474953544552454400600082015250565b6000614533601f836138d4565b915061453e826144fd565b602082019050919050565b6000602082019050818103600083015261456281614526565b9050919050565b7f4552524f523a204149524c494e4520564f54454420495320414c52454144592060008201527f5245474953544552454400000000000000000000000000000000000000000000602082015250565b60006145c5602a836138d4565b91506145d082614569565b604082019050919050565b600060208201905081810360008301526145f4816145b8565b9050919050565b7f4552524f523a204149524c494e4520564f544544204953204e4f54204120434160008201527f4e44494441544500000000000000000000000000000000000000000000000000602082015250565b60006146576027836138d4565b9150614662826145fb565b604082019050919050565b600060208201905081810360008301526146868161464a565b9050919050565b7f4552524f523a2043414c4c455220414c524541445920564f54454420464f522060008201527f54484953204149524c494e450000000000000000000000000000000000000000602082015250565b60006146e9602c836138d4565b91506146f48261468d565b604082019050919050565b60006020820190508181036000830152614718816146dc565b9050919050565b600061472a8261397c565b91506147358361397c565b9250827fffffffffffffffffffffffffffffffffffffffffffffffffffffffffffffffff0382111561476a576147696141b8565b5b828201905092915050565b60006147808261397c565b915061478b8361397c565b9250817fffffffffffffffffffffffffffffffffffffffffffffffffffffffffffffffff04831182151516156147c4576147c36141b8565b5b828202905092915050565b7f4e487b7100000000000000000000000000000000000000000000000000000000600052601260045260246000fd5b60006148098261397c565b91506148148361397c565b925082614824576148236147cf565b5b828204905092915050565b7f414d4f554e54204953204e4f5420454e4f554748540000000000000000000000600082015250565b60006148656015836138d4565b91506148708261482f565b602082019050919050565b6000602082019050818103600083015261489481614858565b9050919050565b7f4149524c494e45204d555354205452414e534645522045584143544c5920313060008201527f2045544845525300000000000000000000000000000000000000000000000000602082015250565b60006148f76027836138d4565b91506149028261489b565b604082019050919050565b60006020820190508181036000830152614926816148ea565b9050919050565b7f4552524f523a2043414c4c455220495320414c5245414459204120504152544960008201527f434950414e540000000000000000000000000000000000000000000000000000602082015250565b60006149896026836138d4565b91506149948261492d565b604082019050919050565b600060208201905081810360008301526149b88161497c565b9050919050565b7f4552524f523a20494e535552414e4345204e4f5420464f554e44000000000000600082015250565b60006149f5601a836138d4565b9150614a00826149bf565b602082019050919050565b60006020820190508181036000830152614a24816149e8565b9050919050565b7f4552524f523a204e4f5448494e4720544f20434c41494d000000000000000000600082015250565b6000614a616017836138d4565b9150614a6c82614a2b565b602082019050919050565b60006020820190508181036000830152614a9081614a54565b9050919050565b7f4552524f523a2043414c4c4552204953204e4f5420412050415254494349504160008201527f4e54000000000000000000000000000000000000000000000000000000000000602082015250565b6000614af36022836138d4565b9150614afe82614a97565b604082019050919050565b60006020820190508181036000830152614b2281614ae6565b9050919050565b7f4552524f523a20464c494748542054494d45204d555354204245204154204c4560008201527f41535420343820484f555253205448414e204e4f570000000000000000000000602082015250565b6000614b856035836138d4565b9150614b9082614b29565b604082019050919050565b60006020820190508181036000830152614bb481614b78565b9050919050565b7f4552524f523a20464c4947485420414c52454144592052454749535445524544600082015250565b6000614bf16020836138d4565b9150614bfc82614bbb565b602082019050919050565b60006020820190508181036000830152614c2081614be4565b9050919050565b7f43414c4c4552204d555354205350454e44204245545745454e2031204757454960008201527f20414e4420312045544845520000000000000000000000000000000000000000602082015250565b6000614c83602c836138d4565b9150614c8e82614c27565b604082019050919050565b60006020820190508181036000830152614cb281614c76565b9050919050565b7f4552524f523a2043414c4c4552204953204e4f5420414c4c4f57454420544f2060008201527f42555920494e535552414e434500000000000000000000000000000000000000602082015250565b6000614d15602d836138d4565b9150614d2082614cb9565b604082019050919050565b60006020820190508181036000830152614d4481614d08565b9050919050565b600081905092915050565b6000614d61826138c9565b614d6b8185614d4b565b9350614d7b8185602086016138e5565b80840191505092915050565b6000614d938284614d56565b915081905092915050565b60008190508160005260206000209050919050565b60008154614dc08161445f565b614dca8186614d4b565b94506001821660008114614de55760018114614df657614e29565b60ff19831686528186019350614e29565b614dff85614d9e565b60005b83811015614e2157815481890152600182019150602081019050614e02565b838801955050505b50505092915050565b6000614e3e8284614db3565b915081905092915050565b7f4552524f523a20464c49474854204e4f5420464f554e44000000000000000000600082015250565b6000614e7f6017836138d4565b9150614e8a82614e49565b602082019050919050565b60006020820190508181036000830152614eae81614e72565b9050919050565b7f4552524f523a2050415353454e47455220414c524541445920424f554748542060008201527f5448495320464c4947485420494e535552414e43450000000000000000000000602082015250565b6000614f116035836138d4565b9150614f1c82614eb5565b604082019050919050565b60006020820190508181036000830152614f4081614f04565b9050919050565b614f5081613dd8565b82525050565b614f5f81613960565b82525050565b61010082016000820151614f7c6000850182614f47565b506020820151614f8f6020850182614f56565b506040820151614fa26040850182614f56565b506060820151614fb56060850182614f56565b506080820151614fc86080850182614f56565b5060a0820151614fdb60a0850182614f56565b5060c0820151614fee60c0850182614f56565b5060e082015161500160e0850182614f56565b50505050565b60006101008201905061501d6000830184614f65565b92915050565b60008151905061503281613b4b565b92915050565b60006020828403121561504e5761504d6135e8565b5b600061505c84828501615023565b91505092915050565b7f4552524f523a204149524c494e4520495320414c5245414459204120434f4e5460008201527f524f4c4c45520000000000000000000000000000000000000000000000000000602082015250565b60006150c16026836138d4565b91506150cc82615065565b604082019050919050565b600060208201905081810360008301526150f0816150b4565b9050919050565b7f4552524f523a204149524c494e4520495320414c524541445920412043414e4460008201527f4944415445000000000000000000000000000000000000000000000000000000602082015250565b60006151536025836138d4565b915061515e826150f7565b604082019050919050565b6000602082019050818103600083015261518281615146565b9050919050565b6000819050919050565b6151a461519f82613857565b615189565b82525050565b60006151b68285615193565b6020820191506151c68284615193565b6020820191508190509392505050565b7f4552524f523a204149524c494e4520495320414c52454144592041205041525460008201527f49434950414e5400000000000000000000000000000000000000000000000000602082015250565b60006152326027836138d4565b915061523d826151d6565b604082019050919050565b6000602082019050818103600083015261526181615225565b9050919050565b60006152738261397c565b915061527e8361397c565b925082821015615291576152906141b8565b5b828203905092915050565b6000819050919050565b6152b76152b28261397c565b61529c565b82525050565b60006152c98285614d56565b91506152d582846152a6565b6020820191508190509392505050565b7f4552524f523a204149524c494e45204953204e4f5420412043414e444944415460008201527f4500000000000000000000000000000000000000000000000000000000000000602082015250565b60006153416021836138d4565b915061534c826152e5565b604082019050919050565b6000602082019050818103600083015261537081615334565b905091905056fea26469706673582212202660bca5ddacfb8fc89f1d0dd0a1f292bd860ea267dccba231967238bb7e5a1c64736f6c634300080b0033",
  "immutableReferences": {},
  "source": "// SPDX-License-Identifier: MIT\npragma solidity ^0.8.0;\n\n// Import Libraries\nimport \"./DateLib.sol\";\n\nimport \"./accesscontrol/RoleLib.sol\";\n\nimport \"@openzeppelin/contracts/utils/math/SafeMath.sol\";\n\ncontract FlightSuretyData {\n\n    address payable contractOwner;              // ACCOUNT USED TO DEPLOY CONTRACT\n    bool private operational = true;            // BLOCKS ALL STATE CHANGES THROUGHOUT THE CONTRACT IF FALSE\n    address[] multiCalls = new address[](0);\n    uint M = 3;\n    \n\n    /********************************************************************************************/\n    /*                                         SAFEMATH                                         */\n    /********************************************************************************************/\n    using SafeMath for uint256;                 //LIBRARY USED TO EXECUTE MATH OPERATIONS         \n\n\n    /********************************************************************************************/\n    /*                                          DATELIB                                         */\n    /********************************************************************************************/\n    using DateLib for DateLib.DateTime;         //LIBRARY USED TO CONVERT HUMAN DATE TIME TO EPOCH TIMESTAMP\n\n    function getDateTime(uint16 _year, uint8 _month, uint8 _day, uint8 _hour, uint8 _minute) public pure returns(uint) {\n        uint unixDate = DateLib.toUnixTimestamp(DateLib.DateTime({\n            year: _year,\n            month: _month,\n            day: _day,\n            hour: _hour,\n            minute: _minute,\n            second: 0,\n            ms: 0,\n            weekday: 0\n        })\n        );\n        return unixDate;\n    }\n\n\n    /********************************************************************************************/\n    /*                                         ROLELIB                                          */\n    /********************************************************************************************/\n    using RoleLib for RoleLib.Role;             //LIBRARY USED TO CLASSIFY AIRLINES INTO DIFFERENT ROLES\n\n    RoleLib.Role private registers;\n    RoleLib.Role private controllers;\n    RoleLib.Role private participants;\n    RoleLib.Role private candidates;            \n\n    function register(address _address) internal {\n        require(!isRegistered(_address), \"ERROR: AIRLINE IS ALREADY REGISTERED\");\n        registers.add(_address);\n    }\n\n    function addController(address _address) internal {\n        require(!isController(_address), \"ERROR: AIRLINE IS ALREADY A CONTROLLER\");\n        controllers.add(_address);\n    }\n\n    function addParticipant(address _address) internal {\n        require(!isParticipant(_address), \"ERROR: AIRLINE IS ALREADY A PARTICIPANT\");\n        participants.add(_address);\n    }\n    \n    function addCandidate(address _address) internal {\n        require(!isCandidate(_address), \"ERROR: AIRLINE IS ALREADY A CANDIDATE\");\n        candidates.add(_address);\n    }\n\n    function removeCandidate(address _address) internal {\n        require(isCandidate(_address), \"ERROR: AIRLINE IS NOT A CANDIDATE\");\n        candidates.remove(_address);\n    }\n\n\n    /********************************************************************************************/\n    /*                                      AIRLINE VARIABLES                                   */\n    /********************************************************************************************/\n    struct Airline {\n        uint            airlineId;\n        string          airlineName;\n        address payable airlineAddress;\n        bool            registered;\n        bool            participant;\n        bool            controller;\n        uint            fundAvailable;\n        uint            fundCommitted;\n    }\n    mapping(address => Airline) public airlines;\n    uint aCounter;\n\n\n    /********************************************************************************************/\n    /*                                      FLIGHT VARIABLES                                    */\n    /********************************************************************************************/\n    struct Flight {\n        bytes32         flightKey;\n        string          flight;\n        bool            active;\n        uint8           statusCode;\n        uint256         updatedTimestamp;\n        address         airlineAddress;\n    }\n    mapping(bytes32 => Flight) public flights;\n    mapping(uint => bytes32) private flightsReverse;\n    uint fCounter;\n\n\n    /********************************************************************************************/\n    /*                             CANDIDATE AIRLINE VARIABLES                                  */\n    /********************************************************************************************/\n    struct Proposal {\n        address         proposedAddress;\n        string          proposedName;\n        uint            voteCount;\n        bool            active;\n    }\n    Proposal[] private proposals;\n    mapping(address => address[]) voters;\n\n\n    /********************************************************************************************/\n    /*                                       DATA VARIABLES                                     */\n    /********************************************************************************************/\n    struct Insurance {\n        bytes32         insuranceKey;\n        bytes32         flightKey;\n        address payable passengerAddress;\n        uint            amountPaid;\n        uint            amountAvailable;\n        bool            claimable;\n        bool            active;\n    }\n    mapping(bytes32 => Insurance) insurances;\n    mapping(uint => bytes32) private insurancesReverse;\n    uint iCounter;\n\n\n    /********************************************************************************************/\n    /*                                       EVENT DEFINITIONS                                  */\n    /********************************************************************************************/\n    event Registration(address);\n    event Candidate(address);\n    event Funding(address);\n    event Acquisition(address);\n    event Payment(address);\n\n\n    /********************************************************************************************/\n    /*                                       FUNCTION MODIFIERS                                 */\n    /********************************************************************************************/\n    modifier requireIsOperational() {\n        require(operational, \"CONTRACT IS CURRENTLY NOT OPERATIONAL\");\n        _;\n    }\n\n    modifier verifyCaller(address _address) {\n        require(msg.sender == _address, \"CALLER IS NOT ALLOWED TO EXECUTE FUNCTION\"); \n        _;\n    }\n\n    modifier requireContractOwner() {\n        require(msg.sender == contractOwner, \"CALLER IS NOT CONTRACT OWNER\");\n        _;\n    }\n\n    modifier requireController() {\n        require(msg.sender == contractOwner || controllers.has(msg.sender), \"CALLER IS NOT AN AUTHORIZED CONTRACT\");\n        _;\n    }\n\n    modifier paidEnough(uint _price) { \n        require(msg.value >= _price, \"AMOUNT IS NOT ENOUGHT\"); \n        _;\n    }\n  \n    modifier checkParticipantValue() {\n        require(msg.value == 10 ether, \"AIRLINE MUST TRANSFER EXACTLY 10 ETHERS\");\n        _;\n    }\n\n    modifier checkPassengerValue() {\n        require(msg.value >= 1 gwei && msg.value <= 1 ether, \"CALLER MUST SPEND BETWEEN 1 GWEI AND 1 ETHER\");\n        _;\n    }\n\n\n    /********************************************************************************************/\n    /*                                       CONSTRUCTOR DEFINITION                             */\n    /********************************************************************************************/    \n    /* The deploying account becomes contractOwner */\n    constructor() {\n        contractOwner = payable(msg.sender);\n        aCounter = 1;\n        address _firsairlineAddress = 0xF258b0a25eE7D6f02a9a1118afdF77CaC6D72784;\n        string memory _firstName = \"Air New Zealand\";\n        airlines[_firsairlineAddress] = Airline(\n            {\n                airlineId: aCounter,\n                airlineName: _firstName,\n                airlineAddress: payable(_firsairlineAddress),\n                registered: true,\n                participant: false,\n                controller: true,\n                fundAvailable: 0,\n                fundCommitted: 0\n            });\n        register(_firsairlineAddress);\n        addController(_firsairlineAddress);\n    }\n\n\n    /********************************************************************************************/\n    /*                                       UTILITY FUNCTIONS                                  */\n    /********************************************************************************************/\n    function kill() public requireContractOwner() {\n        if (msg.sender == contractOwner) {\n            selfdestruct(contractOwner);\n        }\n    }\n\n    function isOperational() public view returns(bool) {\n        return operational;\n    }\n    \n    function isRegistered(address _address) public view returns(bool) {\n        return registers.has(_address);\n    }\n\n    function isController(address _address) public view returns(bool) {\n        return controllers.has(_address);\n    }\n\n    function isParticipant(address _address) public view returns(bool) {\n        return participants.has(_address); \n    }\n\n    function isCandidate(address _address) public view returns(bool) {\n        return candidates.has(_address);\n    }\n\n\n    /********************************************************************************************/\n    /*                                  OPERATIONAL STATUS CONTROL                              */\n    /********************************************************************************************/\n    function setOperatingStatus(bool mode) external requireController() {\n        require(mode != operational, \"NEW MODE MUST BE DIFERENT FROM THE EXISITNG\");\n\n        bool isDuplicate = false;\n        for(uint c = 0; c < multiCalls.length; c++) {\n            if (multiCalls[c] == msg.sender) {\n                isDuplicate = true;\n                break;\n            }\n        }\n        \n        require(!isDuplicate, \"ERROR: CALLER HAS ALREADY CALLED THIS FUNCTION\");\n\n        multiCalls.push(msg.sender);\n        if (multiCalls.length >= M) {\n            operational = mode;\n            multiCalls = new address[](0);\n        }\n    }\n\n\n    /********************************************************************************************/\n    /*                       SMART CONTRACT REGISTER AIRLINES FUNCTIONS                         */\n    /********************************************************************************************/\n    function candidateAirline(string memory _cName, address _cAddress) internal requireIsOperational() {\n        require(!isRegistered(_cAddress), \"ERROR: AIRLINE IS ALREADY REGISTERED\");\n        require(!isCandidate(_cAddress), \"ERROR: AIRLINE IS ALREADY A CANDIDATE\");\n\n        proposals.push(Proposal({\n            proposedAddress: _cAddress,\n            proposedName: _cName,\n            voteCount: 0,\n            active: true\n        }));\n        addCandidate(_cAddress);\n     \n        emit Candidate(_cAddress);\n    }\n    \n    function registerAirline(string memory _airlineName, address _airlineAddress) external requireIsOperational() {\n        require(!isRegistered(_airlineAddress), \"ERROR: AIRLINE IS ALREADY REGISTERED\");\n        if(aCounter < 4) {\n            require(msg.sender == contractOwner || isController(msg.sender), \"ERROR: CALLER IS NOT CONTROLLER\");\n\n            aCounter ++;\n            airlines[_airlineAddress] = Airline(\n                {\n                    airlineId: aCounter,\n                    airlineName: _airlineName,\n                    airlineAddress: payable(_airlineAddress),                    \n                    registered: true,\n                    participant: false,\n                    controller: false,\n                    fundAvailable: 0,\n                    fundCommitted: 0\n                }\n            );\n            register(_airlineAddress);\n            airlines[_airlineAddress].controller = true;\n            addController(_airlineAddress);\n            \n            emit Registration(_airlineAddress);\n\n        }\n        else {\n            candidateAirline(_airlineName, _airlineAddress);\n        }\n    }\n\n    function registerAirlineByVote(string memory _airlineName2, address _airlineAddress2) internal requireIsOperational() {\n        require(!isRegistered(_airlineAddress2), \"ERROR: AIRLINE IS ALREADY REGISTERED\");\n\n        aCounter ++;\n        airlines[_airlineAddress2] = Airline(\n            {\n                airlineId: aCounter,\n                airlineName: _airlineName2,\n                airlineAddress: payable(_airlineAddress2),                    \n                registered: true,\n                participant: false,\n                controller: false,\n                fundAvailable: 0,\n                fundCommitted: 0\n            }\n        );\n        register(_airlineAddress2);\n        removeCandidate(_airlineAddress2);\n\n        emit Registration(_airlineAddress2);\n    }\n\n\n    /********************************************************************************************/\n    /*                          SMART CONTRACT PARTICIPANT FUNCTIONS                            */\n    /********************************************************************************************/\n    function fund() public payable paidEnough(10 ether) checkParticipantValue() requireIsOperational() {\n        require(isRegistered(msg.sender), \"ERROR: CALLER IS NOT REGISTERED\");\n        require(!isParticipant(msg.sender), \"ERROR: CALLER IS ALREADY A PARTICIPANT\");\n\n        contractOwner.transfer(msg.value);\n\n        airlines[msg.sender].participant = true;\n        airlines[msg.sender].fundAvailable = msg.value;\n        addParticipant(msg.sender);\n    \n        //emit Funding(msg.sender);\n    }\n\n\n    /********************************************************************************************/\n    /*                              SMART CONTRACT VOTING FUNCTIONS                             */\n    /********************************************************************************************/\n    function vote(string memory _vName, address _vAddress) public requireIsOperational() {\n        require(isRegistered(msg.sender), \"ERROR: CALLER IS NOT REGISTERED\");\n        require(!isRegistered(_vAddress), \"ERROR: AIRLINE VOTED IS ALREADY REGISTERED\");\n        require(isCandidate(_vAddress), \"ERROR: AIRLINE VOTED IS NOT A CANDIDATE\");\n\n        bool found = false;\n        uint result = 0;\n        for (uint v = 0; v < voters[msg.sender].length; v++) {\n            if(voters[msg.sender][v] == _vAddress){\n                found = true;\n                revert(\"ERROR: CALLER ALREADY VOTED FOR THIS AIRLINE\");\n            }\n        }\n        if(!found){\n            voters[msg.sender].push(_vAddress);\n        }\n        for (uint p = 0; p < proposals.length; p++) {\n            if (proposals[p].proposedAddress == _vAddress) {\n                proposals[p].voteCount += 1;\n                result = (proposals[p].voteCount * 100) / aCounter;\n                if(result >= 50){\n                   registerAirlineByVote(_vName, _vAddress);\n                   proposals[p].active = false;\n                }\n                break;\n            }\n        }\n    }\n\n\n    /********************************************************************************************/\n    /*                                  KEYS GENEARTOR FUNCTIONS                                */\n    /********************************************************************************************/\n    function getFlightKey(//address _airline, \n        string memory _flight, uint _timestamp) pure internal returns(bytes32){\n        return keccak256(abi.encodePacked(//_airline, \n            _flight, _timestamp));\n    \n    }\n    \n    function getInsuranceKey(address _passengerAddress, bytes32 _flightKey) pure internal returns(bytes32) {\n        bytes32 _addressToBytes32 = bytes32(uint256(uint160(_passengerAddress)) << 96);\n        return keccak256(abi.encodePacked(_addressToBytes32, _flightKey));\n    }\n\n\n    /********************************************************************************************/\n    /*                          SMART CONTRACT REGISTER FLIGHT FUNCTIONS                        */\n    /********************************************************************************************/\n    function registerFlight (string memory _flight, uint16 _year, uint8 _month, uint8 _day, uint8 _hour, uint8 _minute) external {\n        require(isParticipant(msg.sender), \"ERROR: CALLER IS NOT A PARTICIPANT\");\n        \n        uint _timestamp = getDateTime(_year, _month, _day, _hour, _minute);\n        require(_timestamp > block.timestamp + 172800, \"ERROR: FLIGHT TIME MUST BE AT LEAST 48 HOURS THAN NOW\");\n         \n        bytes32 flightKey = getFlightKey(//msg.sender, \n            _flight, _timestamp);\n        \n        require(flights[flightKey].airlineAddress == address(0), \"ERROR: FLIGHT ALREADY REGISTERED\");\n        \n        flights[flightKey] = Flight({\n            flightKey: flightKey,\n            flight: _flight,\n            active: true,\n            statusCode: 0,\n            updatedTimestamp: getDateTime(_year, _month, _day, _hour, _minute),\n            airlineAddress: msg.sender\n        });\n        \n        fCounter++;\n        flightsReverse[fCounter] = flightKey;\n    \n    }\n\n    function checkFlight(bytes32 _flightKey) external view returns(bool) {\n        bool _isRegistered;\n        if (flights[_flightKey].airlineAddress == address(0)) {\n            _isRegistered = false;\n        }\n        else {\n            _isRegistered = true;\n        }\n\n        return _isRegistered;\n    }\n\n    function updateFlightTimestamp(bytes32 _flightKey, uint256 _timestamp) external {\n        flights[_flightKey].updatedTimestamp = _timestamp;\n    }\n\n    function updateFlightStatus(bytes32 _flightKey, uint8 _statusCode) external {\n        flights[_flightKey].statusCode = _statusCode;\n    }\n\n    function getFlightStatus(bytes32 _flightKey) external view returns(uint8) {\n        return flights[_flightKey].statusCode;\n    }\n\n\n\n    /********************************************************************************************/\n    /*                              SMART CONTRACT BUYING FUNCTIONS                             */\n    /********************************************************************************************/\n    function buy(string memory _flight, uint16 _year, uint8 _month, uint8 _day, uint8 _hour, uint8 _minute) public payable checkPassengerValue() requireIsOperational() {\n        require(!isRegistered(msg.sender) && msg.sender != contractOwner, \"ERROR: CALLER IS NOT ALLOWED TO BUY INSURANCE\");\n        \n        uint _timestamp = getDateTime(_year, _month, _day, _hour, _minute);\n        \n        bytes32 flightKey = getFlightKey(//msg.sender, \n            _flight, _timestamp);\n        \n        require(keccak256(abi.encodePacked(flights[flightKey].flight)) == keccak256(abi.encodePacked(_flight)), \"ERROR: FLIGHT NOT FOUND\");\n        \n        address _airlineAddress = flights[flightKey].airlineAddress;\n\n        bytes32 _insuranceKey = getInsuranceKey(msg.sender, flightKey);\n        \n        require(insurances[_insuranceKey].flightKey != flightKey, \"ERROR: PASSENGER ALREADY BOUGHT THIS FLIGHT INSURANCE\");\n        contractOwner.transfer(msg.value);\n        iCounter ++;\n        insurances[_insuranceKey] = Insurance(\n            {\n                insuranceKey: _insuranceKey,\n                flightKey: flightKey,\n                passengerAddress: payable(msg.sender),\n                amountPaid: msg.value,\n                amountAvailable: 0,\n                claimable: false,\n                active: true\n            }\n        );\n        insurancesReverse[iCounter] = _insuranceKey;\n\n        airlines[_airlineAddress].fundAvailable = SafeMath.add(airlines[_airlineAddress].fundAvailable, msg.value);\n        airlines[_airlineAddress].fundCommitted = SafeMath.div(SafeMath.mul(msg.value, 15), 10);\n        \n    }\n\n    /**\n     *  @dev Credits payouts to insurees\n    */\n    function creditInsurees(bytes32 _flightKey) external {\n        bytes32 _insuranceKey = getInsuranceKey(msg.sender, _flightKey);\n        require(insurances[_insuranceKey].flightKey == _flightKey, \"ERROR: INSURANCE NOT FOUND\");\n        require(insurances[_insuranceKey].claimable, \"ERROR: NOTHING TO CLAIM\");\n\n        address _airlineAddress = flights[_flightKey].airlineAddress;\n        uint _amountPaid = insurances[_insuranceKey].amountPaid;\n        uint _amountToCredit = SafeMath.div(SafeMath.mul(_amountPaid, 15), 10);\n\n        uint _fundAvailable = airlines[_airlineAddress].fundAvailable;\n        uint _fundCommitted = airlines[_airlineAddress].fundCommitted;\n\n        insurances[_insuranceKey].amountAvailable = _amountToCredit;\n\n        airlines[_airlineAddress].fundAvailable = SafeMath.sub(_fundAvailable, _amountToCredit);\n        airlines[_airlineAddress].fundCommitted = SafeMath.sub(_fundCommitted, _amountToCredit);\n    }\n    \n\n    /**\n     *  @dev Transfers eligible payout funds to insuree\n     *\n    */\n    function pay(bytes32 _flightKey) public payable requireIsOperational() {\n        bytes32 _insuranceKey = getInsuranceKey(msg.sender, _flightKey);\n        payable(msg.sender).transfer(insurances[_insuranceKey].amountAvailable);\n    }\n\n   /**\n    * @dev Initial funding for the insurance. Unless there are too many delayed flights\n    *      resulting in insurance payouts, the contract should be self-sustaining\n    *\n    */   \n\n    // function getFlightKey(address airline, string memory flight, uint256 timestamp) pure internal returns(bytes32) {\n    //     return keccak256(abi.encodePacked(airline, flight, timestamp));\n    // }\n\n    /**\n    * @dev Fallback function for funding smart contract.\n    *\n    */\n    fallback() external payable {\n    }\n    \n    receive() external payable {\n    }\n\n\n    /********************************************************************************************/\n    /*                               SMART CONTRACT CHECK FUNCTIONS                             */\n    /********************************************************************************************/\n    function checkAirlines(address _airlineAddress) public view returns(string memory name_, address address_, \n        bool registered_, bool participant_, bool controller_, \n        uint fundavailable_, uint fundcommitted_) {\n        \n        return(airlines[_airlineAddress].airlineName\n            , airlines[_airlineAddress].airlineAddress\n            , airlines[_airlineAddress].registered\n            , airlines[_airlineAddress].participant\n            , airlines[_airlineAddress].controller\n            , airlines[_airlineAddress].fundAvailable\n            , airlines[_airlineAddress].fundCommitted\n        );\n    \n    }\n\n    function checkFlights(uint _flightId) public view returns(bytes32 key_, string memory flight_, bool active_, uint8 status_, uint256 timestamp_, address address_) {\n        bytes32 _flightKey = flightsReverse[_flightId];\n        return(flights[_flightKey].flightKey\n            , flights[_flightKey].flight\n            , flights[_flightKey].active\n            , flights[_flightKey].statusCode\n            , flights[_flightKey].updatedTimestamp        \n            , flights[_flightKey].airlineAddress\n        );\n    \n    }\n\n    function checkCandidateAirlines() public view returns(Proposal[] memory ) {\n        return proposals;\n    }\n\n    function checkInsurances(uint _iId) public view \n    returns(bytes32 flightKey_, address passengerAddress_, uint amountPaid_, \n        uint amountAvailable_, bool claimable_, bool active_) {\n        bytes32 _insuranceKey = insurancesReverse[_iId];\n        return(insurances[_insuranceKey].flightKey\n            , insurances[_insuranceKey].passengerAddress\n            , insurances[_insuranceKey].amountPaid\n            , insurances[_insuranceKey].amountAvailable\n            , insurances[_insuranceKey].claimable\n            , insurances[_insuranceKey].active\n        );\n    }\n}",
  "sourcePath": "/Users/fernandomaximof/Documents/udacity-projects/project4/contracts/FlightSuretyData.sol",
  "compiler": {
    "name": "solc",
    "version": "0.8.11+commit.d7f03943.Emscripten.clang"
  },
  "schemaVersion": "3.4.3",
  "updatedAt": "2022-01-26T10:32:22.716Z",
  "networkType": "ethereum",
  "devdoc": {
    "kind": "dev",
    "methods": {
      "creditInsurees(bytes32)": {
        "details": "Credits payouts to insurees"
      },
      "pay(bytes32)": {
        "details": "Transfers eligible payout funds to insuree"
      }
    },
    "version": 1
  },
  "userdoc": {
    "kind": "user",
    "methods": {},
    "version": 1
  }
}