{
  "contractName": "FlightSuretyData",
  "abi": [
    {
      "inputs": [],
      "stateMutability": "nonpayable",
      "type": "constructor"
    },
    {
      "anonymous": false,
      "inputs": [
        {
          "indexed": false,
          "internalType": "address",
          "name": "",
          "type": "address"
        }
      ],
      "name": "Acquisition",
      "type": "event"
    },
    {
      "anonymous": false,
      "inputs": [
        {
          "indexed": false,
          "internalType": "address",
          "name": "",
          "type": "address"
        }
      ],
      "name": "Candidate",
      "type": "event"
    },
    {
      "anonymous": false,
      "inputs": [
        {
          "indexed": false,
          "internalType": "address",
          "name": "",
          "type": "address"
        }
      ],
      "name": "Funding",
      "type": "event"
    },
    {
      "anonymous": false,
      "inputs": [
        {
          "indexed": false,
          "internalType": "address",
          "name": "",
          "type": "address"
        }
      ],
      "name": "Payment",
      "type": "event"
    },
    {
      "anonymous": false,
      "inputs": [
        {
          "indexed": false,
          "internalType": "address",
          "name": "",
          "type": "address"
        }
      ],
      "name": "Registration",
      "type": "event"
    },
    {
      "stateMutability": "payable",
      "type": "fallback"
    },
    {
      "stateMutability": "payable",
      "type": "receive"
    },
    {
      "inputs": [],
      "name": "kill",
      "outputs": [],
      "stateMutability": "nonpayable",
      "type": "function"
    },
    {
      "inputs": [],
      "name": "isOperational",
      "outputs": [
        {
          "internalType": "bool",
          "name": "",
          "type": "bool"
        }
      ],
      "stateMutability": "view",
      "type": "function"
    },
    {
      "inputs": [
        {
          "internalType": "address",
          "name": "_address",
          "type": "address"
        }
      ],
      "name": "isRegistered",
      "outputs": [
        {
          "internalType": "bool",
          "name": "",
          "type": "bool"
        }
      ],
      "stateMutability": "view",
      "type": "function"
    },
    {
      "inputs": [
        {
          "internalType": "address",
          "name": "_address",
          "type": "address"
        }
      ],
      "name": "isController",
      "outputs": [
        {
          "internalType": "bool",
          "name": "",
          "type": "bool"
        }
      ],
      "stateMutability": "view",
      "type": "function"
    },
    {
      "inputs": [
        {
          "internalType": "address",
          "name": "_address",
          "type": "address"
        }
      ],
      "name": "isParticipant",
      "outputs": [
        {
          "internalType": "bool",
          "name": "",
          "type": "bool"
        }
      ],
      "stateMutability": "view",
      "type": "function"
    },
    {
      "inputs": [
        {
          "internalType": "address",
          "name": "_address",
          "type": "address"
        }
      ],
      "name": "isCandidate",
      "outputs": [
        {
          "internalType": "bool",
          "name": "",
          "type": "bool"
        }
      ],
      "stateMutability": "view",
      "type": "function"
    },
    {
      "inputs": [
        {
          "internalType": "bool",
          "name": "mode",
          "type": "bool"
        }
      ],
      "name": "setOperatingStatus",
      "outputs": [],
      "stateMutability": "nonpayable",
      "type": "function"
    },
    {
      "inputs": [
        {
          "internalType": "string",
          "name": "_airlineName",
          "type": "string"
        },
        {
          "internalType": "address",
          "name": "_airlineAddress",
          "type": "address"
        }
      ],
      "name": "registerAirline",
      "outputs": [],
      "stateMutability": "nonpayable",
      "type": "function"
    },
    {
      "inputs": [],
      "name": "fund",
      "outputs": [],
      "stateMutability": "payable",
      "type": "function"
    },
    {
      "inputs": [
        {
          "internalType": "string",
          "name": "_vName",
          "type": "string"
        },
        {
          "internalType": "address",
          "name": "_vAddress",
          "type": "address"
        }
      ],
      "name": "vote",
      "outputs": [],
      "stateMutability": "nonpayable",
      "type": "function"
    },
    {
      "inputs": [
        {
          "internalType": "string",
          "name": "_flight",
          "type": "string"
        },
        {
          "internalType": "uint16",
          "name": "_year",
          "type": "uint16"
        },
        {
          "internalType": "uint8",
          "name": "_month",
          "type": "uint8"
        },
        {
          "internalType": "uint8",
          "name": "_day",
          "type": "uint8"
        },
        {
          "internalType": "uint8",
          "name": "_hour",
          "type": "uint8"
        },
        {
          "internalType": "uint8",
          "name": "_minute",
          "type": "uint8"
        }
      ],
      "name": "registerFlight",
      "outputs": [],
      "stateMutability": "nonpayable",
      "type": "function"
    },
    {
      "inputs": [
        {
          "internalType": "string",
          "name": "_flight",
          "type": "string"
        },
        {
          "internalType": "uint16",
          "name": "_year",
          "type": "uint16"
        },
        {
          "internalType": "uint8",
          "name": "_month",
          "type": "uint8"
        },
        {
          "internalType": "uint8",
          "name": "_day",
          "type": "uint8"
        },
        {
          "internalType": "uint8",
          "name": "_hour",
          "type": "uint8"
        },
        {
          "internalType": "uint8",
          "name": "_minute",
          "type": "uint8"
        }
      ],
      "name": "buy",
      "outputs": [],
      "stateMutability": "payable",
      "type": "function"
    },
    {
      "inputs": [
        {
          "internalType": "bytes32",
          "name": "_flightKey",
          "type": "bytes32"
        }
      ],
      "name": "creditInsurees",
      "outputs": [],
      "stateMutability": "nonpayable",
      "type": "function"
    },
    {
      "inputs": [
        {
          "internalType": "bytes32",
          "name": "_flightKey",
          "type": "bytes32"
        }
      ],
      "name": "pay",
      "outputs": [],
      "stateMutability": "payable",
      "type": "function"
    },
    {
      "inputs": [
        {
          "internalType": "address",
          "name": "_airlineAddress",
          "type": "address"
        }
      ],
      "name": "checkAirlines",
      "outputs": [
        {
          "internalType": "string",
          "name": "name_",
          "type": "string"
        },
        {
          "internalType": "address",
          "name": "address_",
          "type": "address"
        },
        {
          "internalType": "bool",
          "name": "registered_",
          "type": "bool"
        },
        {
          "internalType": "bool",
          "name": "participant_",
          "type": "bool"
        },
        {
          "internalType": "bool",
          "name": "controller_",
          "type": "bool"
        },
        {
          "internalType": "uint256",
          "name": "fundavailable_",
          "type": "uint256"
        },
        {
          "internalType": "uint256",
          "name": "fundcommitted_",
          "type": "uint256"
        }
      ],
      "stateMutability": "view",
      "type": "function"
    },
    {
      "inputs": [
        {
          "internalType": "uint256",
          "name": "_flightId",
          "type": "uint256"
        }
      ],
      "name": "checkFlights",
      "outputs": [
        {
          "internalType": "bytes32",
          "name": "key_",
          "type": "bytes32"
        },
        {
          "internalType": "string",
          "name": "flight_",
          "type": "string"
        },
        {
          "internalType": "bool",
          "name": "active_",
          "type": "bool"
        },
        {
          "internalType": "uint8",
          "name": "status_",
          "type": "uint8"
        },
        {
          "internalType": "uint256",
          "name": "timestamp_",
          "type": "uint256"
        },
        {
          "internalType": "address",
          "name": "address_",
          "type": "address"
        }
      ],
      "stateMutability": "view",
      "type": "function"
    },
    {
      "inputs": [],
      "name": "checkCandidateAirlines",
      "outputs": [
        {
          "components": [
            {
              "internalType": "address",
              "name": "proposedAddress",
              "type": "address"
            },
            {
              "internalType": "string",
              "name": "proposedName",
              "type": "string"
            },
            {
              "internalType": "uint256",
              "name": "voteCount",
              "type": "uint256"
            },
            {
              "internalType": "bool",
              "name": "active",
              "type": "bool"
            }
          ],
          "internalType": "struct FlightSuretyData.Proposal[]",
          "name": "",
          "type": "tuple[]"
        }
      ],
      "stateMutability": "view",
      "type": "function"
    },
    {
      "inputs": [
        {
          "internalType": "uint256",
          "name": "_iId",
          "type": "uint256"
        }
      ],
      "name": "checkInsurances",
      "outputs": [
        {
          "internalType": "bytes32",
          "name": "flightKey_",
          "type": "bytes32"
        },
        {
          "internalType": "address",
          "name": "passengerAddress_",
          "type": "address"
        },
        {
          "internalType": "uint256",
          "name": "amountPaid_",
          "type": "uint256"
        },
        {
          "internalType": "uint256",
          "name": "amountAvailable_",
          "type": "uint256"
        },
        {
          "internalType": "bool",
          "name": "claimable_",
          "type": "bool"
        },
        {
          "internalType": "bool",
          "name": "active_",
          "type": "bool"
        }
      ],
      "stateMutability": "view",
      "type": "function"
    }
  ],
  "bytecode": "0x60806040526001600060146101000a81548160ff021916908315150217905550600067ffffffffffffffff8111156200003d576200003c62000694565b5b6040519080825280602002602001820160405280156200006c5781602001602082028036833780820191505090505b50600190805190602001906200008492919062000555565b5060036002553480156200009757600080fd5b50336000806101000a81548173ffffffffffffffffffffffffffffffffffffffff021916908373ffffffffffffffffffffffffffffffffffffffff1602179055506001600881905550600073f258b0a25ee7d6f02a9a1118afdf77cac6d72784905060006040518060400160405280600f81526020017f416972204e6577205a65616c616e640000000000000000000000000000000000815250905060405180610100016040528060085481526020018281526020018373ffffffffffffffffffffffffffffffffffffffff168152602001600115158152602001600015158152602001600115158152602001600081526020016000815250600760008473ffffffffffffffffffffffffffffffffffffffff1673ffffffffffffffffffffffffffffffffffffffff168152602001908152602001600020600082015181600001556020820151816001019080519060200190620001f7929190620005e4565b5060408201518160020160006101000a81548173ffffffffffffffffffffffffffffffffffffffff021916908373ffffffffffffffffffffffffffffffffffffffff16021790555060608201518160020160146101000a81548160ff02191690831515021790555060808201518160020160156101000a81548160ff02191690831515021790555060a08201518160020160166101000a81548160ff02191690831515021790555060c0820151816003015560e08201518160040155905050620002c782620002e060201b60201c565b620002d8826200035260201b60201c565b505062000869565b620002f181620003c460201b60201c565b1562000334576040517f08c379a00000000000000000000000000000000000000000000000000000000081526004016200032b906200074a565b60405180910390fd5b6200034f816003620003e860201b6200258c1790919060201c565b50565b62000363816200049e60201b60201c565b15620003a6576040517f08c379a00000000000000000000000000000000000000000000000000000000081526004016200039d90620007e2565b60405180910390fd5b620003c1816004620003e860201b6200258c1790919060201c565b50565b6000620003e1826003620004c260201b620026381790919060201c565b9050919050565b600073ffffffffffffffffffffffffffffffffffffffff168173ffffffffffffffffffffffffffffffffffffffff1614156200042357600080fd5b620004358282620004c260201b60201c565b156200044057600080fd5b60018260000160008373ffffffffffffffffffffffffffffffffffffffff1673ffffffffffffffffffffffffffffffffffffffff16815260200190815260200160002060006101000a81548160ff0219169083151502179055505050565b6000620004bb826004620004c260201b620026381790919060201c565b9050919050565b60008073ffffffffffffffffffffffffffffffffffffffff168273ffffffffffffffffffffffffffffffffffffffff161415620004fe57600080fd5b8260000160008373ffffffffffffffffffffffffffffffffffffffff1673ffffffffffffffffffffffffffffffffffffffff16815260200190815260200160002060009054906101000a900460ff16905092915050565b828054828255906000526020600020908101928215620005d1579160200282015b82811115620005d05782518260006101000a81548173ffffffffffffffffffffffffffffffffffffffff021916908373ffffffffffffffffffffffffffffffffffffffff1602179055509160200191906001019062000576565b5b509050620005e0919062000675565b5090565b828054620005f29062000833565b90600052602060002090601f01602090048101928262000616576000855562000662565b82601f106200063157805160ff191683800117855562000662565b8280016001018555821562000662579182015b828111156200066157825182559160200191906001019062000644565b5b50905062000671919062000675565b5090565b5b808211156200069057600081600090555060010162000676565b5090565b7f4e487b7100000000000000000000000000000000000000000000000000000000600052604160045260246000fd5b600082825260208201905092915050565b7f4552524f523a204149524c494e4520495320414c52454144592052454749535460008201527f4552454400000000000000000000000000000000000000000000000000000000602082015250565b600062000732602483620006c3565b91506200073f82620006d4565b604082019050919050565b60006020820190508181036000830152620007658162000723565b9050919050565b7f4552524f523a204149524c494e4520495320414c5245414459204120434f4e5460008201527f524f4c4c45520000000000000000000000000000000000000000000000000000602082015250565b6000620007ca602683620006c3565b9150620007d7826200076c565b604082019050919050565b60006020820190508181036000830152620007fd81620007bb565b9050919050565b7f4e487b7100000000000000000000000000000000000000000000000000000000600052602260045260246000fd5b600060028204905060018216806200084c57607f821691505b6020821081141562000863576200086262000804565b5b50919050565b614cd180620008796000396000f3fe60806040526004361061010d5760003560e01c8063b60d428811610095578063d51b9e9311610064578063d51b9e9314610346578063d737d81414610383578063dda5bd56146103ac578063e188ac98146103c8578063edeb6c3a1461040b57610114565b8063b60d4288146102ab578063c3c5a547146102b5578063cc2f6eba146102f2578063cd905dff1461031b57610114565b80638529b35d116100dc5780638529b35d146101a85780638609cad1146101ea578063929066f514610206578063a190c31514610243578063b429afeb1461026e57610114565b80630e2c412914610116578063110466ed1461013f57806341c0e1b5146101685780635a436c061461017f57610114565b3661011457005b005b34801561012257600080fd5b5061013d60048036038101906101389190613291565b61044d565b005b34801561014b57600080fd5b5061016660048036038101906101619190613325565b6107df565b005b34801561017457600080fd5b5061017d610aaf565b005b34801561018b57600080fd5b506101a660048036038101906101a19190613291565b610bcc565b005b3480156101b457600080fd5b506101cf60048036038101906101ca9190613388565b611063565b6040516101e19695949392919061349f565b60405180910390f35b61020460048036038101906101ff9190613533565b6111ea565b005b34801561021257600080fd5b5061022d60048036038101906102289190613560565b6112a8565b60405161023a919061358d565b60405180910390f35b34801561024f57600080fd5b506102586112c5565b6040516102659190613744565b60405180910390f35b34801561027a57600080fd5b5061029560048036038101906102909190613560565b611431565b6040516102a2919061358d565b60405180910390f35b6102b361144e565b005b3480156102c157600080fd5b506102dc60048036038101906102d79190613560565b6116d9565b6040516102e9919061358d565b60405180910390f35b3480156102fe57600080fd5b5061031960048036038101906103149190613533565b6116f6565b005b34801561032757600080fd5b50610330611980565b60405161033d919061358d565b60405180910390f35b34801561035257600080fd5b5061036d60048036038101906103689190613560565b611996565b60405161037a919061358d565b60405180910390f35b34801561038f57600080fd5b506103aa60048036038101906103a591906137cc565b6119b3565b005b6103c660048036038101906103c191906137cc565b611c70565b005b3480156103d457600080fd5b506103ef60048036038101906103ea9190613560565b6121c6565b6040516104029796959493929190613875565b60405180910390f35b34801561041757600080fd5b50610432600480360381019061042d9190613388565b612491565b604051610444969594939291906138eb565b60405180910390f35b600060149054906101000a900460ff1661049c576040517f08c379a0000000000000000000000000000000000000000000000000000000008152600401610493906139be565b60405180910390fd5b6104a5816116d9565b156104e5576040517f08c379a00000000000000000000000000000000000000000000000000000000081526004016104dc90613a50565b60405180910390fd5b600460085410156107d05760008054906101000a900473ffffffffffffffffffffffffffffffffffffffff1673ffffffffffffffffffffffffffffffffffffffff163373ffffffffffffffffffffffffffffffffffffffff16148061054f575061054e33611431565b5b61058e576040517f08c379a000000000000000000000000000000000000000000000000000000000815260040161058590613abc565b60405180910390fd5b600860008154809291906105a190613b0b565b919050555060405180610100016040528060085481526020018381526020018273ffffffffffffffffffffffffffffffffffffffff168152602001600115158152602001600015158152602001600015158152602001600081526020016000815250600760008373ffffffffffffffffffffffffffffffffffffffff1673ffffffffffffffffffffffffffffffffffffffff168152602001908152602001600020600082015181600001556020820151816001019080519060200190610668929190612fac565b5060408201518160020160006101000a81548173ffffffffffffffffffffffffffffffffffffffff021916908373ffffffffffffffffffffffffffffffffffffffff16021790555060608201518160020160146101000a81548160ff02191690831515021790555060808201518160020160156101000a81548160ff02191690831515021790555060a08201518160020160166101000a81548160ff02191690831515021790555060c0820151816003015560e08201518160040155905050610730816126ca565b6001600760008373ffffffffffffffffffffffffffffffffffffffff1673ffffffffffffffffffffffffffffffffffffffff16815260200190815260200160002060020160166101000a81548160ff0219169083151502179055506107948161272a565b7f478f5152d8fc568db3f8de9fb402fd9d98a1a7541ecfe434e59cf574fbfc5524816040516107c39190613b54565b60405180910390a16107db565b6107da828261278a565b5b5050565b60008054906101000a900473ffffffffffffffffffffffffffffffffffffffff1673ffffffffffffffffffffffffffffffffffffffff163373ffffffffffffffffffffffffffffffffffffffff161480610849575061084833600461263890919063ffffffff16565b5b610888576040517f08c379a000000000000000000000000000000000000000000000000000000000815260040161087f90613be1565b60405180910390fd5b600060149054906101000a900460ff16151581151514156108de576040517f08c379a00000000000000000000000000000000000000000000000000000000081526004016108d590613c73565b60405180910390fd5b6000805b60018054905081101561097d573373ffffffffffffffffffffffffffffffffffffffff166001828154811061091a57610919613c93565b5b9060005260206000200160009054906101000a900473ffffffffffffffffffffffffffffffffffffffff1673ffffffffffffffffffffffffffffffffffffffff16141561096a576001915061097d565b808061097590613b0b565b9150506108e2565b5080156109bf576040517f08c379a00000000000000000000000000000000000000000000000000000000081526004016109b690613d34565b60405180910390fd5b6001339080600181540180825580915050600190039060005260206000200160009091909190916101000a81548173ffffffffffffffffffffffffffffffffffffffff021916908373ffffffffffffffffffffffffffffffffffffffff16021790555060025460018054905010610aab5781600060146101000a81548160ff021916908315150217905550600067ffffffffffffffff811115610a6557610a64613108565b5b604051908082528060200260200182016040528015610a935781602001602082028036833780820191505090505b5060019080519060200190610aa9929190613032565b505b5050565b60008054906101000a900473ffffffffffffffffffffffffffffffffffffffff1673ffffffffffffffffffffffffffffffffffffffff163373ffffffffffffffffffffffffffffffffffffffff1614610b3d576040517f08c379a0000000000000000000000000000000000000000000000000000000008152600401610b3490613da0565b60405180910390fd5b60008054906101000a900473ffffffffffffffffffffffffffffffffffffffff1673ffffffffffffffffffffffffffffffffffffffff163373ffffffffffffffffffffffffffffffffffffffff161415610bca5760008054906101000a900473ffffffffffffffffffffffffffffffffffffffff1673ffffffffffffffffffffffffffffffffffffffff16ff5b565b600060149054906101000a900460ff16610c1b576040517f08c379a0000000000000000000000000000000000000000000000000000000008152600401610c12906139be565b60405180910390fd5b610c24336116d9565b610c63576040517f08c379a0000000000000000000000000000000000000000000000000000000008152600401610c5a90613e0c565b60405180910390fd5b610c6c816116d9565b15610cac576040517f08c379a0000000000000000000000000000000000000000000000000000000008152600401610ca390613e9e565b60405180910390fd5b610cb581611996565b610cf4576040517f08c379a0000000000000000000000000000000000000000000000000000000008152600401610ceb90613f30565b60405180910390fd5b60008060005b600d60003373ffffffffffffffffffffffffffffffffffffffff1673ffffffffffffffffffffffffffffffffffffffff16815260200190815260200160002080549050811015610e45578373ffffffffffffffffffffffffffffffffffffffff16600d60003373ffffffffffffffffffffffffffffffffffffffff1673ffffffffffffffffffffffffffffffffffffffff1681526020019081526020016000208281548110610dac57610dab613c93565b5b9060005260206000200160009054906101000a900473ffffffffffffffffffffffffffffffffffffffff1673ffffffffffffffffffffffffffffffffffffffff161415610e3257600192506040517f08c379a0000000000000000000000000000000000000000000000000000000008152600401610e2990613fc2565b60405180910390fd5b8080610e3d90613b0b565b915050610cfa565b5081610eec57600d60003373ffffffffffffffffffffffffffffffffffffffff1673ffffffffffffffffffffffffffffffffffffffff168152602001908152602001600020839080600181540180825580915050600190039060005260206000200160009091909190916101000a81548173ffffffffffffffffffffffffffffffffffffffff021916908373ffffffffffffffffffffffffffffffffffffffff1602179055505b60005b600c8054905081101561105c578373ffffffffffffffffffffffffffffffffffffffff16600c8281548110610f2757610f26613c93565b5b906000526020600020906004020160000160009054906101000a900473ffffffffffffffffffffffffffffffffffffffff1673ffffffffffffffffffffffffffffffffffffffff161415611049576001600c8281548110610f8b57610f8a613c93565b5b90600052602060002090600402016002016000828254610fab9190613fe2565b925050819055506008546064600c8381548110610fcb57610fca613c93565b5b906000526020600020906004020160020154610fe79190614038565b610ff191906140c1565b9150603282106110445761100585856129a5565b6000600c828154811061101b5761101a613c93565b5b906000526020600020906004020160030160006101000a81548160ff0219169083151502179055505b61105c565b808061105490613b0b565b915050610eef565b5050505050565b600060606000806000806000600a60008981526020019081526020016000205490506009600082815260200190815260200160002060000154600960008381526020019081526020016000206001016009600084815260200190815260200160002060020160009054906101000a900460ff166009600085815260200190815260200160002060020160019054906101000a900460ff1660096000868152602001908152602001600020600301546009600087815260200190815260200160002060040160009054906101000a900473ffffffffffffffffffffffffffffffffffffffff1684805461115490614121565b80601f016020809104026020016040519081016040528092919081815260200182805461118090614121565b80156111cd5780601f106111a2576101008083540402835291602001916111cd565b820191906000526020600020905b8154815290600101906020018083116111b057829003601f168201915b505050505094509650965096509650965096505091939550919395565b600060149054906101000a900460ff16611239576040517f08c379a0000000000000000000000000000000000000000000000000000000008152600401611230906139be565b60405180910390fd5b60006112453383612c23565b90503373ffffffffffffffffffffffffffffffffffffffff166108fc600e6000848152602001908152602001600020600401549081150290604051600060405180830381858888f193505050501580156112a3573d6000803e3d6000fd5b505050565b60006112be82600561263890919063ffffffff16565b9050919050565b6060600c805480602002602001604051908101604052809291908181526020016000905b8282101561142857838290600052602060002090600402016040518060800160405290816000820160009054906101000a900473ffffffffffffffffffffffffffffffffffffffff1673ffffffffffffffffffffffffffffffffffffffff1673ffffffffffffffffffffffffffffffffffffffff16815260200160018201805461137290614121565b80601f016020809104026020016040519081016040528092919081815260200182805461139e90614121565b80156113eb5780601f106113c0576101008083540402835291602001916113eb565b820191906000526020600020905b8154815290600101906020018083116113ce57829003601f168201915b50505050508152602001600282015481526020016003820160009054906101000a900460ff161515151581525050815260200190600101906112e9565b50505050905090565b600061144782600461263890919063ffffffff16565b9050919050565b678ac7230489e800008034101561149a576040517f08c379a00000000000000000000000000000000000000000000000000000000081526004016114919061419f565b60405180910390fd5b678ac7230489e8000034146114e4576040517f08c379a00000000000000000000000000000000000000000000000000000000081526004016114db90614231565b60405180910390fd5b600060149054906101000a900460ff16611533576040517f08c379a000000000000000000000000000000000000000000000000000000000815260040161152a906139be565b60405180910390fd5b61153c336116d9565b61157b576040517f08c379a000000000000000000000000000000000000000000000000000000000815260040161157290613e0c565b60405180910390fd5b611584336112a8565b156115c4576040517f08c379a00000000000000000000000000000000000000000000000000000000081526004016115bb906142c3565b60405180910390fd5b60008054906101000a900473ffffffffffffffffffffffffffffffffffffffff1673ffffffffffffffffffffffffffffffffffffffff166108fc349081150290604051600060405180830381858888f1935050505015801561162a573d6000803e3d6000fd5b506001600760003373ffffffffffffffffffffffffffffffffffffffff1673ffffffffffffffffffffffffffffffffffffffff16815260200190815260200160002060020160156101000a81548160ff02191690831515021790555034600760003373ffffffffffffffffffffffffffffffffffffffff1673ffffffffffffffffffffffffffffffffffffffff168152602001908152602001600020600301819055506116d633612c78565b50565b60006116ef82600361263890919063ffffffff16565b9050919050565b60006117023383612c23565b905081600e6000838152602001908152602001600020600101541461175c576040517f08c379a00000000000000000000000000000000000000000000000000000000081526004016117539061432f565b60405180910390fd5b600e600082815260200190815260200160002060050160009054906101000a900460ff166117bf576040517f08c379a00000000000000000000000000000000000000000000000000000000081526004016117b69061439b565b60405180910390fd5b60006009600084815260200190815260200160002060040160009054906101000a900473ffffffffffffffffffffffffffffffffffffffff1690506000600e6000848152602001908152602001600020600301549050600061182c61182583600f612cd8565b600a612cee565b90506000600760008573ffffffffffffffffffffffffffffffffffffffff1673ffffffffffffffffffffffffffffffffffffffff1681526020019081526020016000206003015490506000600760008673ffffffffffffffffffffffffffffffffffffffff1673ffffffffffffffffffffffffffffffffffffffff16815260200190815260200160002060040154905082600e6000888152602001908152602001600020600401819055506118e18284612d04565b600760008773ffffffffffffffffffffffffffffffffffffffff1673ffffffffffffffffffffffffffffffffffffffff168152602001908152602001600020600301819055506119318184612d04565b600760008773ffffffffffffffffffffffffffffffffffffffff1673ffffffffffffffffffffffffffffffffffffffff1681526020019081526020016000206004018190555050505050505050565b60008060149054906101000a900460ff16905090565b60006119ac82600661263890919063ffffffff16565b9050919050565b6119bc336112a8565b6119fb576040517f08c379a00000000000000000000000000000000000000000000000000000000081526004016119f29061442d565b60405180910390fd5b6000611a0a8686868686612d1a565b90506202a30042611a1b9190613fe2565b8111611a5c576040517f08c379a0000000000000000000000000000000000000000000000000000000008152600401611a53906144bf565b60405180910390fd5b6000611a688883612df9565b9050600073ffffffffffffffffffffffffffffffffffffffff166009600083815260200190815260200160002060040160009054906101000a900473ffffffffffffffffffffffffffffffffffffffff1673ffffffffffffffffffffffffffffffffffffffff1614611b0f576040517f08c379a0000000000000000000000000000000000000000000000000000000008152600401611b069061452b565b60405180910390fd5b6040518060c00160405280828152602001898152602001600115158152602001600060ff168152602001611b468989898989612d1a565b81526020013373ffffffffffffffffffffffffffffffffffffffff1681525060096000838152602001908152602001600020600082015181600001556020820151816001019080519060200190611b9e929190612fac565b5060408201518160020160006101000a81548160ff02191690831515021790555060608201518160020160016101000a81548160ff021916908360ff1602179055506080820151816003015560a08201518160040160006101000a81548173ffffffffffffffffffffffffffffffffffffffff021916908373ffffffffffffffffffffffffffffffffffffffff160217905550905050600b6000815480929190611c4790613b0b565b919050555080600a6000600b548152602001908152602001600020819055505050505050505050565b633b9aca003410158015611c8c5750670de0b6b3a76400003411155b611ccb576040517f08c379a0000000000000000000000000000000000000000000000000000000008152600401611cc2906145bd565b60405180910390fd5b600060149054906101000a900460ff16611d1a576040517f08c379a0000000000000000000000000000000000000000000000000000000008152600401611d11906139be565b60405180910390fd5b611d23336116d9565b158015611d7c575060008054906101000a900473ffffffffffffffffffffffffffffffffffffffff1673ffffffffffffffffffffffffffffffffffffffff163373ffffffffffffffffffffffffffffffffffffffff1614155b611dbb576040517f08c379a0000000000000000000000000000000000000000000000000000000008152600401611db29061464f565b60405180910390fd5b6000611dca8686868686612d1a565b90506000611dd88883612df9565b905087604051602001611deb91906146ab565b6040516020818303038152906040528051906020012060096000838152602001908152602001600020600101604051602001611e279190614756565b6040516020818303038152906040528051906020012014611e7d576040517f08c379a0000000000000000000000000000000000000000000000000000000008152600401611e74906147b9565b60405180910390fd5b60006009600083815260200190815260200160002060040160009054906101000a900473ffffffffffffffffffffffffffffffffffffffff1690506000611ec43384612c23565b905082600e6000838152602001908152602001600020600101541415611f1f576040517f08c379a0000000000000000000000000000000000000000000000000000000008152600401611f169061484b565b60405180910390fd5b60008054906101000a900473ffffffffffffffffffffffffffffffffffffffff1673ffffffffffffffffffffffffffffffffffffffff166108fc349081150290604051600060405180830381858888f19350505050158015611f85573d6000803e3d6000fd5b5060106000815480929190611f9990613b0b565b91905055506040518060e001604052808281526020018481526020013373ffffffffffffffffffffffffffffffffffffffff1681526020013481526020016000815260200160001515815260200160011515815250600e6000838152602001908152602001600020600082015181600001556020820151816001015560408201518160020160006101000a81548173ffffffffffffffffffffffffffffffffffffffff021916908373ffffffffffffffffffffffffffffffffffffffff160217905550606082015181600301556080820151816004015560a08201518160050160006101000a81548160ff02191690831515021790555060c08201518160050160016101000a81548160ff02191690831515021790555090505080600f6000601054815260200190815260200160002081905550612119600760008473ffffffffffffffffffffffffffffffffffffffff1673ffffffffffffffffffffffffffffffffffffffff1681526020019081526020016000206003015434612e2c565b600760008473ffffffffffffffffffffffffffffffffffffffff1673ffffffffffffffffffffffffffffffffffffffff1681526020019081526020016000206003018190555061217461216d34600f612cd8565b600a612cee565b600760008473ffffffffffffffffffffffffffffffffffffffff1673ffffffffffffffffffffffffffffffffffffffff1681526020019081526020016000206004018190555050505050505050505050565b6060600080600080600080600760008973ffffffffffffffffffffffffffffffffffffffff1673ffffffffffffffffffffffffffffffffffffffff168152602001908152602001600020600101600760008a73ffffffffffffffffffffffffffffffffffffffff1673ffffffffffffffffffffffffffffffffffffffff16815260200190815260200160002060020160009054906101000a900473ffffffffffffffffffffffffffffffffffffffff16600760008b73ffffffffffffffffffffffffffffffffffffffff1673ffffffffffffffffffffffffffffffffffffffff16815260200190815260200160002060020160149054906101000a900460ff16600760008c73ffffffffffffffffffffffffffffffffffffffff1673ffffffffffffffffffffffffffffffffffffffff16815260200190815260200160002060020160159054906101000a900460ff16600760008d73ffffffffffffffffffffffffffffffffffffffff1673ffffffffffffffffffffffffffffffffffffffff16815260200190815260200160002060020160169054906101000a900460ff16600760008e73ffffffffffffffffffffffffffffffffffffffff1673ffffffffffffffffffffffffffffffffffffffff16815260200190815260200160002060030154600760008f73ffffffffffffffffffffffffffffffffffffffff1673ffffffffffffffffffffffffffffffffffffffff168152602001908152602001600020600401548680546123f890614121565b80601f016020809104026020016040519081016040528092919081815260200182805461242490614121565b80156124715780601f1061244657610100808354040283529160200191612471565b820191906000526020600020905b81548152906001019060200180831161245457829003601f168201915b505050505096509650965096509650965096509650919395979092949650565b6000806000806000806000600f6000898152602001908152602001600020549050600e600082815260200190815260200160002060010154600e600083815260200190815260200160002060020160009054906101000a900473ffffffffffffffffffffffffffffffffffffffff16600e600084815260200190815260200160002060030154600e600085815260200190815260200160002060040154600e600086815260200190815260200160002060050160009054906101000a900460ff16600e600087815260200190815260200160002060050160019054906101000a900460ff169650965096509650965096505091939550919395565b600073ffffffffffffffffffffffffffffffffffffffff168173ffffffffffffffffffffffffffffffffffffffff1614156125c657600080fd5b6125d08282612638565b156125da57600080fd5b60018260000160008373ffffffffffffffffffffffffffffffffffffffff1673ffffffffffffffffffffffffffffffffffffffff16815260200190815260200160002060006101000a81548160ff0219169083151502179055505050565b60008073ffffffffffffffffffffffffffffffffffffffff168273ffffffffffffffffffffffffffffffffffffffff16141561267357600080fd5b8260000160008373ffffffffffffffffffffffffffffffffffffffff1673ffffffffffffffffffffffffffffffffffffffff16815260200190815260200160002060009054906101000a900460ff16905092915050565b6126d3816116d9565b15612713576040517f08c379a000000000000000000000000000000000000000000000000000000000815260040161270a90613a50565b60405180910390fd5b61272781600361258c90919063ffffffff16565b50565b61273381611431565b15612773576040517f08c379a000000000000000000000000000000000000000000000000000000000815260040161276a906148dd565b60405180910390fd5b61278781600461258c90919063ffffffff16565b50565b600060149054906101000a900460ff166127d9576040517f08c379a00000000000000000000000000000000000000000000000000000000081526004016127d0906139be565b60405180910390fd5b6127e2816116d9565b15612822576040517f08c379a000000000000000000000000000000000000000000000000000000000815260040161281990613a50565b60405180910390fd5b61282b81611996565b1561286b576040517f08c379a00000000000000000000000000000000000000000000000000000000081526004016128629061496f565b60405180910390fd5b600c60405180608001604052808373ffffffffffffffffffffffffffffffffffffffff1681526020018481526020016000815260200160011515815250908060018154018082558091505060019003906000526020600020906004020160009091909190915060008201518160000160006101000a81548173ffffffffffffffffffffffffffffffffffffffff021916908373ffffffffffffffffffffffffffffffffffffffff1602179055506020820151816001019080519060200190612934929190612fac565b506040820151816002015560608201518160030160006101000a81548160ff021916908315150217905550505061296a81612e42565b7f8cc40b9abca4a505a92028908f9d913d621d18112c69412806506f02333f26b4816040516129999190613b54565b60405180910390a15050565b600060149054906101000a900460ff166129f4576040517f08c379a00000000000000000000000000000000000000000000000000000000081526004016129eb906139be565b60405180910390fd5b6129fd816116d9565b15612a3d576040517f08c379a0000000000000000000000000000000000000000000000000000000008152600401612a3490613a50565b60405180910390fd5b60086000815480929190612a5090613b0b565b919050555060405180610100016040528060085481526020018381526020018273ffffffffffffffffffffffffffffffffffffffff168152602001600115158152602001600015158152602001600015158152602001600081526020016000815250600760008373ffffffffffffffffffffffffffffffffffffffff1673ffffffffffffffffffffffffffffffffffffffff168152602001908152602001600020600082015181600001556020820151816001019080519060200190612b17929190612fac565b5060408201518160020160006101000a81548173ffffffffffffffffffffffffffffffffffffffff021916908373ffffffffffffffffffffffffffffffffffffffff16021790555060608201518160020160146101000a81548160ff02191690831515021790555060808201518160020160156101000a81548160ff02191690831515021790555060a08201518160020160166101000a81548160ff02191690831515021790555060c0820151816003015560e08201518160040155905050612bdf816126ca565b612be881612ea2565b7f478f5152d8fc568db3f8de9fb402fd9d98a1a7541ecfe434e59cf574fbfc552481604051612c179190613b54565b60405180910390a15050565b60008060608473ffffffffffffffffffffffffffffffffffffffff16901b60001b90508083604051602001612c599291906149b0565b6040516020818303038152906040528051906020012091505092915050565b612c81816112a8565b15612cc1576040517f08c379a0000000000000000000000000000000000000000000000000000000008152600401612cb890614a4e565b60405180910390fd5b612cd581600561258c90919063ffffffff16565b50565b60008183612ce69190614038565b905092915050565b60008183612cfc91906140c1565b905092915050565b60008183612d129190614a6e565b905092915050565b60008073__DateLib_______________________________635ececa4f6040518061010001604052808a61ffff1681526020018960ff1681526020018860ff1681526020018760ff1681526020018660ff168152602001600060ff168152602001600060ff168152602001600060ff168152506040518263ffffffff1660e01b8152600401612da99190614b62565b602060405180830381865af4158015612dc6573d6000803e3d6000fd5b505050506040513d601f19601f82011682018060405250810190612dea9190614b93565b90508091505095945050505050565b60008282604051602001612e0e929190614be1565b60405160208183030381529060405280519060200120905092915050565b60008183612e3a9190613fe2565b905092915050565b612e4b81611996565b15612e8b576040517f08c379a0000000000000000000000000000000000000000000000000000000008152600401612e829061496f565b60405180910390fd5b612e9f81600661258c90919063ffffffff16565b50565b612eab81611996565b612eea576040517f08c379a0000000000000000000000000000000000000000000000000000000008152600401612ee190614c7b565b60405180910390fd5b612efe816006612f0190919063ffffffff16565b50565b600073ffffffffffffffffffffffffffffffffffffffff168173ffffffffffffffffffffffffffffffffffffffff161415612f3b57600080fd5b612f458282612638565b612f4e57600080fd5b60008260000160008373ffffffffffffffffffffffffffffffffffffffff1673ffffffffffffffffffffffffffffffffffffffff16815260200190815260200160002060006101000a81548160ff0219169083151502179055505050565b828054612fb890614121565b90600052602060002090601f016020900481019282612fda5760008555613021565b82601f10612ff357805160ff1916838001178555613021565b82800160010185558215613021579182015b82811115613020578251825591602001919060010190613005565b5b50905061302e91906130bc565b5090565b8280548282559060005260206000209081019282156130ab579160200282015b828111156130aa5782518260006101000a81548173ffffffffffffffffffffffffffffffffffffffff021916908373ffffffffffffffffffffffffffffffffffffffff16021790555091602001919060010190613052565b5b5090506130b891906130bc565b5090565b5b808211156130d55760008160009055506001016130bd565b5090565b6000604051905090565b600080fd5b600080fd5b600080fd5b600080fd5b6000601f19601f8301169050919050565b7f4e487b7100000000000000000000000000000000000000000000000000000000600052604160045260246000fd5b613140826130f7565b810181811067ffffffffffffffff8211171561315f5761315e613108565b5b80604052505050565b60006131726130d9565b905061317e8282613137565b919050565b600067ffffffffffffffff82111561319e5761319d613108565b5b6131a7826130f7565b9050602081019050919050565b82818337600083830152505050565b60006131d66131d184613183565b613168565b9050828152602081018484840111156131f2576131f16130f2565b5b6131fd8482856131b4565b509392505050565b600082601f83011261321a576132196130ed565b5b813561322a8482602086016131c3565b91505092915050565b600073ffffffffffffffffffffffffffffffffffffffff82169050919050565b600061325e82613233565b9050919050565b61326e81613253565b811461327957600080fd5b50565b60008135905061328b81613265565b92915050565b600080604083850312156132a8576132a76130e3565b5b600083013567ffffffffffffffff8111156132c6576132c56130e8565b5b6132d285828601613205565b92505060206132e38582860161327c565b9150509250929050565b60008115159050919050565b613302816132ed565b811461330d57600080fd5b50565b60008135905061331f816132f9565b92915050565b60006020828403121561333b5761333a6130e3565b5b600061334984828501613310565b91505092915050565b6000819050919050565b61336581613352565b811461337057600080fd5b50565b6000813590506133828161335c565b92915050565b60006020828403121561339e5761339d6130e3565b5b60006133ac84828501613373565b91505092915050565b6000819050919050565b6133c8816133b5565b82525050565b600081519050919050565b600082825260208201905092915050565b60005b838110156134085780820151818401526020810190506133ed565b83811115613417576000848401525b50505050565b6000613428826133ce565b61343281856133d9565b93506134428185602086016133ea565b61344b816130f7565b840191505092915050565b61345f816132ed565b82525050565b600060ff82169050919050565b61347b81613465565b82525050565b61348a81613352565b82525050565b61349981613253565b82525050565b600060c0820190506134b460008301896133bf565b81810360208301526134c6818861341d565b90506134d56040830187613456565b6134e26060830186613472565b6134ef6080830185613481565b6134fc60a0830184613490565b979650505050505050565b613510816133b5565b811461351b57600080fd5b50565b60008135905061352d81613507565b92915050565b600060208284031215613549576135486130e3565b5b60006135578482850161351e565b91505092915050565b600060208284031215613576576135756130e3565b5b60006135848482850161327c565b91505092915050565b60006020820190506135a26000830184613456565b92915050565b600081519050919050565b600082825260208201905092915050565b6000819050602082019050919050565b6135dd81613253565b82525050565b600082825260208201905092915050565b60006135ff826133ce565b61360981856135e3565b93506136198185602086016133ea565b613622816130f7565b840191505092915050565b61363681613352565b82525050565b613645816132ed565b82525050565b600060808301600083015161366360008601826135d4565b506020830151848203602086015261367b82826135f4565b9150506040830151613690604086018261362d565b5060608301516136a3606086018261363c565b508091505092915050565b60006136ba838361364b565b905092915050565b6000602082019050919050565b60006136da826135a8565b6136e481856135b3565b9350836020820285016136f6856135c4565b8060005b85811015613732578484038952815161371385826136ae565b945061371e836136c2565b925060208a019950506001810190506136fa565b50829750879550505050505092915050565b6000602082019050818103600083015261375e81846136cf565b905092915050565b600061ffff82169050919050565b61377d81613766565b811461378857600080fd5b50565b60008135905061379a81613774565b92915050565b6137a981613465565b81146137b457600080fd5b50565b6000813590506137c6816137a0565b92915050565b60008060008060008060c087890312156137e9576137e86130e3565b5b600087013567ffffffffffffffff811115613807576138066130e8565b5b61381389828a01613205565b965050602061382489828a0161378b565b955050604061383589828a016137b7565b945050606061384689828a016137b7565b935050608061385789828a016137b7565b92505060a061386889828a016137b7565b9150509295509295509295565b600060e082019050818103600083015261388f818a61341d565b905061389e6020830189613490565b6138ab6040830188613456565b6138b86060830187613456565b6138c56080830186613456565b6138d260a0830185613481565b6138df60c0830184613481565b98975050505050505050565b600060c08201905061390060008301896133bf565b61390d6020830188613490565b61391a6040830187613481565b6139276060830186613481565b6139346080830185613456565b61394160a0830184613456565b979650505050505050565b7f434f4e54524143542049532043555252454e544c59204e4f54204f504552415460008201527f494f4e414c000000000000000000000000000000000000000000000000000000602082015250565b60006139a86025836133d9565b91506139b38261394c565b604082019050919050565b600060208201905081810360008301526139d78161399b565b9050919050565b7f4552524f523a204149524c494e4520495320414c52454144592052454749535460008201527f4552454400000000000000000000000000000000000000000000000000000000602082015250565b6000613a3a6024836133d9565b9150613a45826139de565b604082019050919050565b60006020820190508181036000830152613a6981613a2d565b9050919050565b7f4552524f523a2043414c4c4552204953204e4f5420434f4e54524f4c4c455200600082015250565b6000613aa6601f836133d9565b9150613ab182613a70565b602082019050919050565b60006020820190508181036000830152613ad581613a99565b9050919050565b7f4e487b7100000000000000000000000000000000000000000000000000000000600052601160045260246000fd5b6000613b1682613352565b91507fffffffffffffffffffffffffffffffffffffffffffffffffffffffffffffffff821415613b4957613b48613adc565b5b600182019050919050565b6000602082019050613b696000830184613490565b92915050565b7f43414c4c4552204953204e4f5420414e20415554484f52495a454420434f4e5460008201527f5241435400000000000000000000000000000000000000000000000000000000602082015250565b6000613bcb6024836133d9565b9150613bd682613b6f565b604082019050919050565b60006020820190508181036000830152613bfa81613bbe565b9050919050565b7f4e4557204d4f4445204d555354204245204449464552454e542046524f4d205460008201527f4845204558495349544e47000000000000000000000000000000000000000000602082015250565b6000613c5d602b836133d9565b9150613c6882613c01565b604082019050919050565b60006020820190508181036000830152613c8c81613c50565b9050919050565b7f4e487b7100000000000000000000000000000000000000000000000000000000600052603260045260246000fd5b7f4552524f523a2043414c4c45522048415320414c52454144592043414c4c454460008201527f20544849532046554e4354494f4e000000000000000000000000000000000000602082015250565b6000613d1e602e836133d9565b9150613d2982613cc2565b604082019050919050565b60006020820190508181036000830152613d4d81613d11565b9050919050565b7f43414c4c4552204953204e4f5420434f4e5452414354204f574e455200000000600082015250565b6000613d8a601c836133d9565b9150613d9582613d54565b602082019050919050565b60006020820190508181036000830152613db981613d7d565b9050919050565b7f4552524f523a2043414c4c4552204953204e4f54205245474953544552454400600082015250565b6000613df6601f836133d9565b9150613e0182613dc0565b602082019050919050565b60006020820190508181036000830152613e2581613de9565b9050919050565b7f4552524f523a204149524c494e4520564f54454420495320414c52454144592060008201527f5245474953544552454400000000000000000000000000000000000000000000602082015250565b6000613e88602a836133d9565b9150613e9382613e2c565b604082019050919050565b60006020820190508181036000830152613eb781613e7b565b9050919050565b7f4552524f523a204149524c494e4520564f544544204953204e4f54204120434160008201527f4e44494441544500000000000000000000000000000000000000000000000000602082015250565b6000613f1a6027836133d9565b9150613f2582613ebe565b604082019050919050565b60006020820190508181036000830152613f4981613f0d565b9050919050565b7f4552524f523a2043414c4c455220414c524541445920564f54454420464f522060008201527f54484953204149524c494e450000000000000000000000000000000000000000602082015250565b6000613fac602c836133d9565b9150613fb782613f50565b604082019050919050565b60006020820190508181036000830152613fdb81613f9f565b9050919050565b6000613fed82613352565b9150613ff883613352565b9250827fffffffffffffffffffffffffffffffffffffffffffffffffffffffffffffffff0382111561402d5761402c613adc565b5b828201905092915050565b600061404382613352565b915061404e83613352565b9250817fffffffffffffffffffffffffffffffffffffffffffffffffffffffffffffffff048311821515161561408757614086613adc565b5b828202905092915050565b7f4e487b7100000000000000000000000000000000000000000000000000000000600052601260045260246000fd5b60006140cc82613352565b91506140d783613352565b9250826140e7576140e6614092565b5b828204905092915050565b7f4e487b7100000000000000000000000000000000000000000000000000000000600052602260045260246000fd5b6000600282049050600182168061413957607f821691505b6020821081141561414d5761414c6140f2565b5b50919050565b7f414d4f554e54204953204e4f5420454e4f554748540000000000000000000000600082015250565b60006141896015836133d9565b915061419482614153565b602082019050919050565b600060208201905081810360008301526141b88161417c565b9050919050565b7f4149524c494e45204d555354205452414e534645522045584143544c5920313060008201527f2045544845525300000000000000000000000000000000000000000000000000602082015250565b600061421b6027836133d9565b9150614226826141bf565b604082019050919050565b6000602082019050818103600083015261424a8161420e565b9050919050565b7f4552524f523a2043414c4c455220495320414c5245414459204120504152544960008201527f434950414e540000000000000000000000000000000000000000000000000000602082015250565b60006142ad6026836133d9565b91506142b882614251565b604082019050919050565b600060208201905081810360008301526142dc816142a0565b9050919050565b7f4552524f523a20494e535552414e4345204e4f5420464f554e44000000000000600082015250565b6000614319601a836133d9565b9150614324826142e3565b602082019050919050565b600060208201905081810360008301526143488161430c565b9050919050565b7f4552524f523a204e4f5448494e4720544f20434c41494d000000000000000000600082015250565b60006143856017836133d9565b91506143908261434f565b602082019050919050565b600060208201905081810360008301526143b481614378565b9050919050565b7f4552524f523a2043414c4c4552204953204e4f5420412050415254494349504160008201527f4e54000000000000000000000000000000000000000000000000000000000000602082015250565b60006144176022836133d9565b9150614422826143bb565b604082019050919050565b600060208201905081810360008301526144468161440a565b9050919050565b7f4552524f523a20464c494748542054494d45204d555354204245204154204c4560008201527f41535420343820484f555253205448414e204e4f570000000000000000000000602082015250565b60006144a96035836133d9565b91506144b48261444d565b604082019050919050565b600060208201905081810360008301526144d88161449c565b9050919050565b7f4552524f523a20464c4947485420414c52454144592052454749535445524544600082015250565b60006145156020836133d9565b9150614520826144df565b602082019050919050565b6000602082019050818103600083015261454481614508565b9050919050565b7f43414c4c4552204d555354205350454e44204245545745454e2031204757454960008201527f20414e4420312045544845520000000000000000000000000000000000000000602082015250565b60006145a7602c836133d9565b91506145b28261454b565b604082019050919050565b600060208201905081810360008301526145d68161459a565b9050919050565b7f4552524f523a2043414c4c4552204953204e4f5420414c4c4f57454420544f2060008201527f42555920494e535552414e434500000000000000000000000000000000000000602082015250565b6000614639602d836133d9565b9150614644826145dd565b604082019050919050565b600060208201905081810360008301526146688161462c565b9050919050565b600081905092915050565b6000614685826133ce565b61468f818561466f565b935061469f8185602086016133ea565b80840191505092915050565b60006146b7828461467a565b915081905092915050565b60008190508160005260206000209050919050565b600081546146e481614121565b6146ee818661466f565b94506001821660008114614709576001811461471a5761474d565b60ff1983168652818601935061474d565b614723856146c2565b60005b8381101561474557815481890152600182019150602081019050614726565b838801955050505b50505092915050565b600061476282846146d7565b915081905092915050565b7f4552524f523a20464c49474854204e4f5420464f554e44000000000000000000600082015250565b60006147a36017836133d9565b91506147ae8261476d565b602082019050919050565b600060208201905081810360008301526147d281614796565b9050919050565b7f4552524f523a2050415353454e47455220414c524541445920424f554748542060008201527f5448495320464c4947485420494e535552414e43450000000000000000000000602082015250565b60006148356035836133d9565b9150614840826147d9565b604082019050919050565b6000602082019050818103600083015261486481614828565b9050919050565b7f4552524f523a204149524c494e4520495320414c5245414459204120434f4e5460008201527f524f4c4c45520000000000000000000000000000000000000000000000000000602082015250565b60006148c76026836133d9565b91506148d28261486b565b604082019050919050565b600060208201905081810360008301526148f6816148ba565b9050919050565b7f4552524f523a204149524c494e4520495320414c524541445920412043414e4460008201527f4944415445000000000000000000000000000000000000000000000000000000602082015250565b60006149596025836133d9565b9150614964826148fd565b604082019050919050565b600060208201905081810360008301526149888161494c565b9050919050565b6000819050919050565b6149aa6149a5826133b5565b61498f565b82525050565b60006149bc8285614999565b6020820191506149cc8284614999565b6020820191508190509392505050565b7f4552524f523a204149524c494e4520495320414c52454144592041205041525460008201527f49434950414e5400000000000000000000000000000000000000000000000000602082015250565b6000614a386027836133d9565b9150614a43826149dc565b604082019050919050565b60006020820190508181036000830152614a6781614a2b565b9050919050565b6000614a7982613352565b9150614a8483613352565b925082821015614a9757614a96613adc565b5b828203905092915050565b614aab81613766565b82525050565b614aba81613465565b82525050565b61010082016000820151614ad76000850182614aa2565b506020820151614aea6020850182614ab1565b506040820151614afd6040850182614ab1565b506060820151614b106060850182614ab1565b506080820151614b236080850182614ab1565b5060a0820151614b3660a0850182614ab1565b5060c0820151614b4960c0850182614ab1565b5060e0820151614b5c60e0850182614ab1565b50505050565b600061010082019050614b786000830184614ac0565b92915050565b600081519050614b8d8161335c565b92915050565b600060208284031215614ba957614ba86130e3565b5b6000614bb784828501614b7e565b91505092915050565b6000819050919050565b614bdb614bd682613352565b614bc0565b82525050565b6000614bed828561467a565b9150614bf98284614bca565b6020820191508190509392505050565b7f4552524f523a204149524c494e45204953204e4f5420412043414e444944415460008201527f4500000000000000000000000000000000000000000000000000000000000000602082015250565b6000614c656021836133d9565b9150614c7082614c09565b604082019050919050565b60006020820190508181036000830152614c9481614c58565b905091905056fea2646970667358221220cf73602d2e6a46ff8f1aa9c336ddb5cd7d0d8903e07c0dc4994bf83d2b22428a64736f6c634300080b0033",
  "immutableReferences": {},
  "source": "// SPDX-License-Identifier: MIT\npragma solidity ^0.8.0;\n\n// Import Libraries\nimport \"./DateLib.sol\";\n\nimport \"./RoleLib.sol\";\n\nimport \"@openzeppelin/contracts/utils/math/SafeMath.sol\";\n\ncontract FlightSuretyData {\n\n    address payable contractOwner;              // ACCOUNT USED TO DEPLOY CONTRACT\n    bool private operational = true;            // BLOCKS ALL STATE CHANGES THROUGHOUT THE CONTRACT IF FALSE\n    address[] multiCalls = new address[](0);\n    uint M = 3;\n    \n\n    /********************************************************************************************/\n    /*                                         SAFEMATH                                         */\n    /********************************************************************************************/\n    using SafeMath for uint256;                 //LIBRARY USED TO EXECUTE MATH OPERATIONS         \n\n\n    /********************************************************************************************/\n    /*                                          DATELIB                                         */\n    /********************************************************************************************/\n    using DateLib for DateLib.DateTime;         //LIBRARY USED TO CONVERT HUMAN DATE TIME TO EPOCH TIMESTAMP\n\n    function getDateTime(uint16 _year, uint8 _month, uint8 _day, uint8 _hour, uint8 _minute) internal pure returns(uint) {\n        uint unixDate = DateLib.toUnixTimestamp(DateLib.DateTime({\n            year: _year,\n            month: _month,\n            day: _day,\n            hour: _hour,\n            minute: _minute,\n            second: 0,\n            ms: 0,\n            weekday: 0\n        })\n        );\n        return unixDate;\n    }\n\n\n    /********************************************************************************************/\n    /*                                         ROLELIB                                          */\n    /********************************************************************************************/\n    using RoleLib for RoleLib.Role;             //LIBRARY USED TO CLASSIFY AIRLINES INTO DIFFERENT ROLES\n\n    RoleLib.Role private registers;\n    RoleLib.Role private controllers;\n    RoleLib.Role private participants;\n    RoleLib.Role private candidates;            \n\n    function register(address _address) internal {\n        require(!isRegistered(_address), \"ERROR: AIRLINE IS ALREADY REGISTERED\");\n        registers.add(_address);\n    }\n\n    function addController(address _address) internal {\n        require(!isController(_address), \"ERROR: AIRLINE IS ALREADY A CONTROLLER\");\n        controllers.add(_address);\n    }\n\n    function addParticipant(address _address) internal {\n        require(!isParticipant(_address), \"ERROR: AIRLINE IS ALREADY A PARTICIPANT\");\n        participants.add(_address);\n    }\n    \n    function addCandidate(address _address) internal {\n        require(!isCandidate(_address), \"ERROR: AIRLINE IS ALREADY A CANDIDATE\");\n        candidates.add(_address);\n    }\n\n    function removeCandidate(address _address) internal {\n        require(isCandidate(_address), \"ERROR: AIRLINE IS NOT A CANDIDATE\");\n        candidates.remove(_address);\n    }\n\n\n    /********************************************************************************************/\n    /*                                      AIRLINE VARIABLES                                   */\n    /********************************************************************************************/\n    struct Airline {\n        uint            airlineId;\n        string          airlineName;\n        address payable airlineAddress;\n        bool            registered;\n        bool            participant;\n        bool            controller;\n        uint            fundAvailable;\n        uint            fundCommitted;\n    }\n    mapping(address => Airline) private airlines;\n    uint aCounter;\n\n\n    /********************************************************************************************/\n    /*                                      FLIGHT VARIABLES                                    */\n    /********************************************************************************************/\n    struct Flight {\n        bytes32         flightKey;\n        string          flight;\n        bool            active;\n        uint8           statusCode;\n        uint256         updatedTimestamp;\n        address         airlineAddress;\n    }\n    mapping(bytes32 => Flight) private flights;\n    mapping(uint => bytes32) private flightsReverse;\n    uint fCounter;\n\n\n    /********************************************************************************************/\n    /*                             CANDIDATE AIRLINE VARIABLES                                  */\n    /********************************************************************************************/\n    struct Proposal {\n        address         proposedAddress;\n        string          proposedName;\n        uint            voteCount;\n        bool            active;\n    }\n    Proposal[] private proposals;\n    mapping(address => address[]) private voters;\n\n\n    /********************************************************************************************/\n    /*                                       DATA VARIABLES                                     */\n    /********************************************************************************************/\n    struct Insurance {\n        bytes32         insuranceKey;\n        bytes32         flightKey;\n        address payable passengerAddress;\n        uint            amountPaid;\n        uint            amountAvailable;\n        bool            claimable;\n        bool            active;\n    }\n    mapping(bytes32 => Insurance) private insurances;\n    mapping(uint => bytes32) private insurancesReverse;\n    uint iCounter;\n\n\n    /********************************************************************************************/\n    /*                                       EVENT DEFINITIONS                                  */\n    /********************************************************************************************/\n    event Registration(address);\n    event Candidate(address);\n    event Funding(address);\n    event Acquisition(address);\n    event Payment(address);\n\n\n    /********************************************************************************************/\n    /*                                       FUNCTION MODIFIERS                                 */\n    /********************************************************************************************/\n    modifier requireIsOperational() {\n        require(operational, \"CONTRACT IS CURRENTLY NOT OPERATIONAL\");\n        _;\n    }\n\n    modifier verifyCaller(address _address) {\n        require(msg.sender == _address, \"CALLER IS NOT ALLOWED TO EXECUTE FUNCTION\"); \n        _;\n    }\n\n    modifier requireContractOwner() {\n        require(msg.sender == contractOwner, \"CALLER IS NOT CONTRACT OWNER\");\n        _;\n    }\n\n    modifier requireController() {\n        require(msg.sender == contractOwner || controllers.has(msg.sender), \"CALLER IS NOT AN AUTHORIZED CONTRACT\");\n        _;\n    }\n\n    modifier paidEnough(uint _price) { \n        require(msg.value >= _price, \"AMOUNT IS NOT ENOUGHT\"); \n        _;\n    }\n  \n    modifier checkParticipantValue() {\n        require(msg.value == 10 ether, \"AIRLINE MUST TRANSFER EXACTLY 10 ETHERS\");\n        _;\n    }\n\n    modifier checkPassengerValue() {\n        require(msg.value >= 1 gwei && msg.value <= 1 ether, \"CALLER MUST SPEND BETWEEN 1 GWEI AND 1 ETHER\");\n        _;\n    }\n\n\n    /********************************************************************************************/\n    /*                                       CONSTRUCTOR DEFINITION                             */\n    /********************************************************************************************/    \n    /* The deploying account becomes contractOwner */\n    constructor() {\n        contractOwner = payable(msg.sender);\n        aCounter = 1;\n        address _firsairlineAddress = 0xF258b0a25eE7D6f02a9a1118afdF77CaC6D72784;\n        string memory _firstName = \"Air New Zealand\";\n        airlines[_firsairlineAddress] = Airline(\n            {\n                airlineId: aCounter,\n                airlineName: _firstName,\n                airlineAddress: payable(_firsairlineAddress),\n                registered: true,\n                participant: false,\n                controller: true,\n                fundAvailable: 0,\n                fundCommitted: 0\n            });\n        register(_firsairlineAddress);\n        addController(_firsairlineAddress);\n    }\n\n\n    /********************************************************************************************/\n    /*                                       UTILITY FUNCTIONS                                  */\n    /********************************************************************************************/\n    function kill() public requireContractOwner() {\n        if (msg.sender == contractOwner) {\n            selfdestruct(contractOwner);\n        }\n    }\n\n    function isOperational() public view returns(bool) {\n        return operational;\n    }\n    \n    function isRegistered(address _address) public view returns(bool) {\n        return registers.has(_address);\n    }\n\n    function isController(address _address) public view returns(bool) {\n        return controllers.has(_address);\n    }\n\n    function isParticipant(address _address) public view returns(bool) {\n        return participants.has(_address); \n    }\n\n    function isCandidate(address _address) public view returns(bool) {\n        return candidates.has(_address);\n    }\n\n\n    /********************************************************************************************/\n    /*                                  OPERATIONAL STATUS CONTROL                              */\n    /********************************************************************************************/\n    function setOperatingStatus(bool mode) external requireController() {\n        require(mode != operational, \"NEW MODE MUST BE DIFERENT FROM THE EXISITNG\");\n\n        bool isDuplicate = false;\n        for(uint c = 0; c < multiCalls.length; c++) {\n            if (multiCalls[c] == msg.sender) {\n                isDuplicate = true;\n                break;\n            }\n        }\n        \n        require(!isDuplicate, \"ERROR: CALLER HAS ALREADY CALLED THIS FUNCTION\");\n\n        multiCalls.push(msg.sender);\n        if (multiCalls.length >= M) {\n            operational = mode;\n            multiCalls = new address[](0);\n        }\n    }\n\n\n    /********************************************************************************************/\n    /*                       SMART CONTRACT REGISTER AIRLINES FUNCTIONS                         */\n    /********************************************************************************************/\n    function candidateAirline(string memory _cName, address _cAddress) internal requireIsOperational() {\n        require(!isRegistered(_cAddress), \"ERROR: AIRLINE IS ALREADY REGISTERED\");\n        require(!isCandidate(_cAddress), \"ERROR: AIRLINE IS ALREADY A CANDIDATE\");\n\n        proposals.push(Proposal({\n            proposedAddress: _cAddress,\n            proposedName: _cName,\n            voteCount: 0,\n            active: true\n        }));\n        addCandidate(_cAddress);\n     \n        emit Candidate(_cAddress);\n    }\n    \n    function registerAirline(string memory _airlineName, address _airlineAddress) external requireIsOperational() {\n        require(!isRegistered(_airlineAddress), \"ERROR: AIRLINE IS ALREADY REGISTERED\");\n        if(aCounter < 4) {\n            require(msg.sender == contractOwner || isController(msg.sender), \"ERROR: CALLER IS NOT CONTROLLER\");\n\n            aCounter ++;\n            airlines[_airlineAddress] = Airline(\n                {\n                    airlineId: aCounter,\n                    airlineName: _airlineName,\n                    airlineAddress: payable(_airlineAddress),                    \n                    registered: true,\n                    participant: false,\n                    controller: false,\n                    fundAvailable: 0,\n                    fundCommitted: 0\n                }\n            );\n            register(_airlineAddress);\n            airlines[_airlineAddress].controller = true;\n            addController(_airlineAddress);\n            \n            emit Registration(_airlineAddress);\n\n        }\n        else {\n            candidateAirline(_airlineName, _airlineAddress);\n        }\n    }\n\n    function registerAirlineByVote(string memory _airlineName2, address _airlineAddress2) internal requireIsOperational() {\n        require(!isRegistered(_airlineAddress2), \"ERROR: AIRLINE IS ALREADY REGISTERED\");\n\n        aCounter ++;\n        airlines[_airlineAddress2] = Airline(\n            {\n                airlineId: aCounter,\n                airlineName: _airlineName2,\n                airlineAddress: payable(_airlineAddress2),                    \n                registered: true,\n                participant: false,\n                controller: false,\n                fundAvailable: 0,\n                fundCommitted: 0\n            }\n        );\n        register(_airlineAddress2);\n        removeCandidate(_airlineAddress2);\n\n        emit Registration(_airlineAddress2);\n    }\n\n\n    /********************************************************************************************/\n    /*                          SMART CONTRACT PARTICIPANT FUNCTIONS                            */\n    /********************************************************************************************/\n    function fund() public payable paidEnough(10 ether) checkParticipantValue() requireIsOperational() {\n        require(isRegistered(msg.sender), \"ERROR: CALLER IS NOT REGISTERED\");\n        require(!isParticipant(msg.sender), \"ERROR: CALLER IS ALREADY A PARTICIPANT\");\n\n        contractOwner.transfer(msg.value);\n\n        airlines[msg.sender].participant = true;\n        airlines[msg.sender].fundAvailable = msg.value;\n        addParticipant(msg.sender);\n    \n        //emit Funding(msg.sender);\n    }\n\n\n    /********************************************************************************************/\n    /*                              SMART CONTRACT VOTING FUNCTIONS                             */\n    /********************************************************************************************/\n    function vote(string memory _vName, address _vAddress) public requireIsOperational() {\n        require(isRegistered(msg.sender), \"ERROR: CALLER IS NOT REGISTERED\");\n        require(!isRegistered(_vAddress), \"ERROR: AIRLINE VOTED IS ALREADY REGISTERED\");\n        require(isCandidate(_vAddress), \"ERROR: AIRLINE VOTED IS NOT A CANDIDATE\");\n\n        bool found = false;\n        uint result = 0;\n        for (uint v = 0; v < voters[msg.sender].length; v++) {\n            if(voters[msg.sender][v] == _vAddress){\n                found = true;\n                revert(\"ERROR: CALLER ALREADY VOTED FOR THIS AIRLINE\");\n            }\n        }\n        if(!found){\n            voters[msg.sender].push(_vAddress);\n        }\n        for (uint p = 0; p < proposals.length; p++) {\n            if (proposals[p].proposedAddress == _vAddress) {\n                proposals[p].voteCount += 1;\n                result = (proposals[p].voteCount * 100) / aCounter;\n                if(result >= 50){\n                   registerAirlineByVote(_vName, _vAddress);\n                   proposals[p].active = false;\n                }\n                break;\n            }\n        }\n    }\n\n\n    /********************************************************************************************/\n    /*                                  KEYS GENEARTOR FUNCTIONS                                */\n    /********************************************************************************************/\n    function getFlightKey(//address _airline, \n        string memory _flight, uint _timestamp) pure internal returns(bytes32){\n        return keccak256(abi.encodePacked(//_airline, \n            _flight, _timestamp));\n    \n    }\n    \n    function getInsuranceKey(address _passengerAddress, bytes32 _flightKey) pure internal returns(bytes32) {\n        bytes32 _addressToBytes32 = bytes32(uint256(uint160(_passengerAddress)) << 96);\n        return keccak256(abi.encodePacked(_addressToBytes32, _flightKey));\n    }\n\n\n    /********************************************************************************************/\n    /*                          SMART CONTRACT REGISTER FLIGHT FUNCTIONS                        */\n    /********************************************************************************************/\n    function registerFlight (string memory _flight, uint16 _year, uint8 _month, uint8 _day, uint8 _hour, uint8 _minute) external {\n        require(isParticipant(msg.sender), \"ERROR: CALLER IS NOT A PARTICIPANT\");\n        \n        uint _timestamp = getDateTime(_year, _month, _day, _hour, _minute);\n        require(_timestamp > block.timestamp + 172800, \"ERROR: FLIGHT TIME MUST BE AT LEAST 48 HOURS THAN NOW\");\n         \n        bytes32 flightKey = getFlightKey(//msg.sender, \n            _flight, _timestamp);\n        \n        require(flights[flightKey].airlineAddress == address(0), \"ERROR: FLIGHT ALREADY REGISTERED\");\n        \n        flights[flightKey] = Flight({\n            flightKey: flightKey,\n            flight: _flight,\n            active: true,\n            statusCode: 0,\n            updatedTimestamp: getDateTime(_year, _month, _day, _hour, _minute),\n            airlineAddress: msg.sender\n        });\n        \n        fCounter++;\n        flightsReverse[fCounter] = flightKey;\n    \n    }\n\n\n    /********************************************************************************************/\n    /*                              SMART CONTRACT BUYING FUNCTIONS                             */\n    /********************************************************************************************/\n    function buy(string memory _flight, uint16 _year, uint8 _month, uint8 _day, uint8 _hour, uint8 _minute) public payable checkPassengerValue() requireIsOperational() {\n        require(!isRegistered(msg.sender) && msg.sender != contractOwner, \"ERROR: CALLER IS NOT ALLOWED TO BUY INSURANCE\");\n        \n        uint _timestamp = getDateTime(_year, _month, _day, _hour, _minute);\n        \n        bytes32 flightKey = getFlightKey(//msg.sender, \n            _flight, _timestamp);\n        \n        require(keccak256(abi.encodePacked(flights[flightKey].flight)) == keccak256(abi.encodePacked(_flight)), \"ERROR: FLIGHT NOT FOUND\");\n        \n        address _airlineAddress = flights[flightKey].airlineAddress;\n\n        bytes32 _insuranceKey = getInsuranceKey(msg.sender, flightKey);\n        \n        require(insurances[_insuranceKey].flightKey != flightKey, \"ERROR: PASSENGER ALREADY BOUGHT THIS FLIGHT INSURANCE\");\n        contractOwner.transfer(msg.value);\n        iCounter ++;\n        insurances[_insuranceKey] = Insurance(\n            {\n                insuranceKey: _insuranceKey,\n                flightKey: flightKey,\n                passengerAddress: payable(msg.sender),\n                amountPaid: msg.value,\n                amountAvailable: 0,\n                claimable: false,\n                active: true\n            }\n        );\n        insurancesReverse[iCounter] = _insuranceKey;\n\n        airlines[_airlineAddress].fundAvailable = SafeMath.add(airlines[_airlineAddress].fundAvailable, msg.value);\n        airlines[_airlineAddress].fundCommitted = SafeMath.div(SafeMath.mul(msg.value, 15), 10);\n        \n    }\n\n    /**\n     *  @dev Credits payouts to insurees\n    */\n    function creditInsurees(bytes32 _flightKey) external {\n        bytes32 _insuranceKey = getInsuranceKey(msg.sender, _flightKey);\n        require(insurances[_insuranceKey].flightKey == _flightKey, \"ERROR: INSURANCE NOT FOUND\");\n        require(insurances[_insuranceKey].claimable, \"ERROR: NOTHING TO CLAIM\");\n\n        address _airlineAddress = flights[_flightKey].airlineAddress;\n        uint _amountPaid = insurances[_insuranceKey].amountPaid;\n        uint _amountToCredit = SafeMath.div(SafeMath.mul(_amountPaid, 15), 10);\n\n        uint _fundAvailable = airlines[_airlineAddress].fundAvailable;\n        uint _fundCommitted = airlines[_airlineAddress].fundCommitted;\n\n        insurances[_insuranceKey].amountAvailable = _amountToCredit;\n\n        airlines[_airlineAddress].fundAvailable = SafeMath.sub(_fundAvailable, _amountToCredit);\n        airlines[_airlineAddress].fundCommitted = SafeMath.sub(_fundCommitted, _amountToCredit);\n    }\n    \n\n    /**\n     *  @dev Transfers eligible payout funds to insuree\n     *\n    */\n    function pay(bytes32 _flightKey) public payable requireIsOperational() {\n        bytes32 _insuranceKey = getInsuranceKey(msg.sender, _flightKey);\n        payable(msg.sender).transfer(insurances[_insuranceKey].amountAvailable);\n    }\n\n   /**\n    * @dev Initial funding for the insurance. Unless there are too many delayed flights\n    *      resulting in insurance payouts, the contract should be self-sustaining\n    *\n    */   \n\n    // function getFlightKey(address airline, string memory flight, uint256 timestamp) pure internal returns(bytes32) {\n    //     return keccak256(abi.encodePacked(airline, flight, timestamp));\n    // }\n\n    /**\n    * @dev Fallback function for funding smart contract.\n    *\n    */\n    fallback() external payable {\n    }\n    \n    receive() external payable {\n    }\n\n\n    /********************************************************************************************/\n    /*                               SMART CONTRACT CHECK FUNCTIONS                             */\n    /********************************************************************************************/\n    function checkAirlines(address _airlineAddress) public view returns(string memory name_, address address_, \n        bool registered_, bool participant_, bool controller_, \n        uint fundavailable_, uint fundcommitted_) {\n        \n        return(airlines[_airlineAddress].airlineName\n            , airlines[_airlineAddress].airlineAddress\n            , airlines[_airlineAddress].registered\n            , airlines[_airlineAddress].participant\n            , airlines[_airlineAddress].controller\n            , airlines[_airlineAddress].fundAvailable\n            , airlines[_airlineAddress].fundCommitted\n        );\n    \n    }\n\n    function checkFlights(uint _flightId) public view returns(bytes32 key_, string memory flight_, bool active_, uint8 status_, uint256 timestamp_, address address_) {\n        bytes32 _flightKey = flightsReverse[_flightId];\n        return(flights[_flightKey].flightKey\n            , flights[_flightKey].flight\n            , flights[_flightKey].active\n            , flights[_flightKey].statusCode\n            , flights[_flightKey].updatedTimestamp        \n            , flights[_flightKey].airlineAddress\n        );\n    \n    }\n\n    function checkCandidateAirlines() public view returns(Proposal[] memory ) {\n        return proposals;\n    }\n\n    function checkInsurances(uint _iId) public view \n    returns(bytes32 flightKey_, address passengerAddress_, uint amountPaid_, \n        uint amountAvailable_, bool claimable_, bool active_) {\n        bytes32 _insuranceKey = insurancesReverse[_iId];\n        return(insurances[_insuranceKey].flightKey\n            , insurances[_insuranceKey].passengerAddress\n            , insurances[_insuranceKey].amountPaid\n            , insurances[_insuranceKey].amountAvailable\n            , insurances[_insuranceKey].claimable\n            , insurances[_insuranceKey].active\n        );\n    }\n}",
  "sourcePath": "/Users/fernandomaximof/Documents/udacity-projects/project4/contracts/FlightSuretyData.sol",
  "compiler": {
    "name": "solc",
    "version": "0.8.11+commit.d7f03943.Emscripten.clang"
  },
  "schemaVersion": "3.4.3",
  "updatedAt": "2022-01-26T05:12:50.524Z",
  "networkType": "ethereum",
  "devdoc": {
    "kind": "dev",
    "methods": {
      "creditInsurees(bytes32)": {
        "details": "Credits payouts to insurees"
      },
      "pay(bytes32)": {
        "details": "Transfers eligible payout funds to insuree"
      }
    },
    "version": 1
  },
  "userdoc": {
    "kind": "user",
    "methods": {},
    "version": 1
  }
}