{
  "contractName": "FlightSuretyData",
  "abi": [
    {
      "inputs": [],
      "stateMutability": "nonpayable",
      "type": "constructor"
    },
    {
      "anonymous": false,
      "inputs": [
        {
          "indexed": false,
          "internalType": "address",
          "name": "",
          "type": "address"
        }
      ],
      "name": "Acquisition",
      "type": "event"
    },
    {
      "anonymous": false,
      "inputs": [
        {
          "indexed": false,
          "internalType": "address",
          "name": "",
          "type": "address"
        }
      ],
      "name": "Candidate",
      "type": "event"
    },
    {
      "anonymous": false,
      "inputs": [
        {
          "indexed": false,
          "internalType": "address",
          "name": "",
          "type": "address"
        }
      ],
      "name": "Funding",
      "type": "event"
    },
    {
      "anonymous": false,
      "inputs": [
        {
          "indexed": false,
          "internalType": "address",
          "name": "",
          "type": "address"
        }
      ],
      "name": "Payment",
      "type": "event"
    },
    {
      "anonymous": false,
      "inputs": [
        {
          "indexed": false,
          "internalType": "address",
          "name": "",
          "type": "address"
        }
      ],
      "name": "Registration",
      "type": "event"
    },
    {
      "stateMutability": "payable",
      "type": "fallback",
      "payable": true
    },
    {
      "inputs": [
        {
          "internalType": "address",
          "name": "",
          "type": "address"
        }
      ],
      "name": "airlines",
      "outputs": [
        {
          "internalType": "uint256",
          "name": "airlineId",
          "type": "uint256"
        },
        {
          "internalType": "string",
          "name": "airlineName",
          "type": "string"
        },
        {
          "internalType": "address payable",
          "name": "airlineAddress",
          "type": "address"
        },
        {
          "internalType": "bool",
          "name": "registered",
          "type": "bool"
        },
        {
          "internalType": "bool",
          "name": "participant",
          "type": "bool"
        },
        {
          "internalType": "bool",
          "name": "controller",
          "type": "bool"
        },
        {
          "internalType": "uint256",
          "name": "fundAvailable",
          "type": "uint256"
        },
        {
          "internalType": "uint256",
          "name": "fundCommitted",
          "type": "uint256"
        }
      ],
      "stateMutability": "view",
      "type": "function",
      "constant": true
    },
    {
      "inputs": [
        {
          "internalType": "bytes32",
          "name": "",
          "type": "bytes32"
        }
      ],
      "name": "flights",
      "outputs": [
        {
          "internalType": "bytes32",
          "name": "flightKey",
          "type": "bytes32"
        },
        {
          "internalType": "string",
          "name": "flight",
          "type": "string"
        },
        {
          "internalType": "bool",
          "name": "active",
          "type": "bool"
        },
        {
          "internalType": "uint8",
          "name": "statusCode",
          "type": "uint8"
        },
        {
          "internalType": "uint256",
          "name": "updatedTimestamp",
          "type": "uint256"
        },
        {
          "internalType": "address",
          "name": "airlineAddress",
          "type": "address"
        }
      ],
      "stateMutability": "view",
      "type": "function",
      "constant": true
    },
    {
      "stateMutability": "payable",
      "type": "receive",
      "payable": true
    },
    {
      "inputs": [],
      "name": "getFirstAirlineAddress",
      "outputs": [
        {
          "internalType": "address",
          "name": "",
          "type": "address"
        }
      ],
      "stateMutability": "view",
      "type": "function",
      "constant": true
    },
    {
      "inputs": [],
      "name": "kill",
      "outputs": [],
      "stateMutability": "nonpayable",
      "type": "function"
    },
    {
      "inputs": [],
      "name": "isOperational",
      "outputs": [
        {
          "internalType": "bool",
          "name": "",
          "type": "bool"
        }
      ],
      "stateMutability": "view",
      "type": "function",
      "constant": true
    },
    {
      "inputs": [
        {
          "internalType": "address",
          "name": "_caller",
          "type": "address"
        }
      ],
      "name": "authorizeCaller",
      "outputs": [],
      "stateMutability": "nonpayable",
      "type": "function"
    },
    {
      "inputs": [
        {
          "internalType": "address",
          "name": "_caller",
          "type": "address"
        }
      ],
      "name": "isAuthorized",
      "outputs": [
        {
          "internalType": "bool",
          "name": "",
          "type": "bool"
        }
      ],
      "stateMutability": "view",
      "type": "function",
      "constant": true
    },
    {
      "inputs": [
        {
          "internalType": "address",
          "name": "_caller",
          "type": "address"
        }
      ],
      "name": "deAuthorizeCaller",
      "outputs": [],
      "stateMutability": "nonpayable",
      "type": "function"
    },
    {
      "inputs": [
        {
          "internalType": "string",
          "name": "_name",
          "type": "string"
        },
        {
          "internalType": "address",
          "name": "_address",
          "type": "address"
        },
        {
          "internalType": "uint256",
          "name": "_aCounter",
          "type": "uint256"
        },
        {
          "internalType": "bool",
          "name": "_controller",
          "type": "bool"
        }
      ],
      "name": "registerAirline",
      "outputs": [],
      "stateMutability": "nonpayable",
      "type": "function"
    },
    {
      "inputs": [
        {
          "internalType": "address",
          "name": "_address",
          "type": "address"
        }
      ],
      "name": "fund",
      "outputs": [],
      "stateMutability": "payable",
      "type": "function",
      "payable": true
    },
    {
      "inputs": [
        {
          "internalType": "bytes32",
          "name": "_flightKey",
          "type": "bytes32"
        },
        {
          "internalType": "string",
          "name": "_flight",
          "type": "string"
        },
        {
          "internalType": "uint256",
          "name": "_timestamp",
          "type": "uint256"
        }
      ],
      "name": "registerFlight",
      "outputs": [],
      "stateMutability": "nonpayable",
      "type": "function"
    },
    {
      "inputs": [
        {
          "internalType": "bytes32",
          "name": "_flightKey",
          "type": "bytes32"
        }
      ],
      "name": "checkFlight",
      "outputs": [
        {
          "internalType": "bool",
          "name": "",
          "type": "bool"
        }
      ],
      "stateMutability": "view",
      "type": "function",
      "constant": true
    },
    {
      "inputs": [
        {
          "internalType": "bytes32",
          "name": "_flightKey",
          "type": "bytes32"
        },
        {
          "internalType": "uint256",
          "name": "_timestamp",
          "type": "uint256"
        }
      ],
      "name": "updateFlightTimestamp",
      "outputs": [],
      "stateMutability": "nonpayable",
      "type": "function"
    },
    {
      "inputs": [
        {
          "internalType": "bytes32",
          "name": "_flightKey",
          "type": "bytes32"
        },
        {
          "internalType": "uint8",
          "name": "_statusCode",
          "type": "uint8"
        }
      ],
      "name": "updateFlightStatus",
      "outputs": [],
      "stateMutability": "nonpayable",
      "type": "function"
    },
    {
      "inputs": [
        {
          "internalType": "bytes32",
          "name": "_flightKey",
          "type": "bytes32"
        }
      ],
      "name": "getFlightStatus",
      "outputs": [
        {
          "internalType": "uint8",
          "name": "",
          "type": "uint8"
        }
      ],
      "stateMutability": "view",
      "type": "function",
      "constant": true
    },
    {
      "inputs": [
        {
          "internalType": "bytes32",
          "name": "_flightKey",
          "type": "bytes32"
        }
      ],
      "name": "creditInsurees",
      "outputs": [],
      "stateMutability": "nonpayable",
      "type": "function"
    },
    {
      "inputs": [
        {
          "internalType": "bytes32",
          "name": "_flightKey",
          "type": "bytes32"
        }
      ],
      "name": "pay",
      "outputs": [],
      "stateMutability": "payable",
      "type": "function",
      "payable": true
    },
    {
      "inputs": [
        {
          "internalType": "address",
          "name": "_airlineAddress",
          "type": "address"
        }
      ],
      "name": "checkAirlines",
      "outputs": [
        {
          "internalType": "string",
          "name": "name_",
          "type": "string"
        },
        {
          "internalType": "address",
          "name": "address_",
          "type": "address"
        },
        {
          "internalType": "bool",
          "name": "registered_",
          "type": "bool"
        },
        {
          "internalType": "bool",
          "name": "participant_",
          "type": "bool"
        },
        {
          "internalType": "bool",
          "name": "controller_",
          "type": "bool"
        },
        {
          "internalType": "uint256",
          "name": "fundavailable_",
          "type": "uint256"
        },
        {
          "internalType": "uint256",
          "name": "fundcommitted_",
          "type": "uint256"
        }
      ],
      "stateMutability": "view",
      "type": "function",
      "constant": true
    },
    {
      "inputs": [
        {
          "internalType": "uint256",
          "name": "_flightId",
          "type": "uint256"
        }
      ],
      "name": "checkFlights",
      "outputs": [
        {
          "internalType": "bytes32",
          "name": "key_",
          "type": "bytes32"
        },
        {
          "internalType": "string",
          "name": "flight_",
          "type": "string"
        },
        {
          "internalType": "bool",
          "name": "active_",
          "type": "bool"
        },
        {
          "internalType": "uint8",
          "name": "status_",
          "type": "uint8"
        },
        {
          "internalType": "uint256",
          "name": "timestamp_",
          "type": "uint256"
        },
        {
          "internalType": "address",
          "name": "address_",
          "type": "address"
        }
      ],
      "stateMutability": "view",
      "type": "function",
      "constant": true
    },
    {
      "inputs": [
        {
          "internalType": "uint256",
          "name": "_iId",
          "type": "uint256"
        }
      ],
      "name": "checkInsurances",
      "outputs": [
        {
          "internalType": "bytes32",
          "name": "flightKey_",
          "type": "bytes32"
        },
        {
          "internalType": "address",
          "name": "passengerAddress_",
          "type": "address"
        },
        {
          "internalType": "uint256",
          "name": "amountPaid_",
          "type": "uint256"
        },
        {
          "internalType": "uint256",
          "name": "amountAvailable_",
          "type": "uint256"
        },
        {
          "internalType": "bool",
          "name": "claimable_",
          "type": "bool"
        },
        {
          "internalType": "bool",
          "name": "active_",
          "type": "bool"
        }
      ],
      "stateMutability": "view",
      "type": "function",
      "constant": true
    }
  ],
  "bytecode": "0x60806040526001600060146101000a81548160ff02191690831515021790555073f258b0a25ee7d6f02a9a1118afdf77cac6d72784600360006101000a81548173ffffffffffffffffffffffffffffffffffffffff021916908373ffffffffffffffffffffffffffffffffffffffff1602179055506040518060400160405280600f81526020017f416972204e6577205a65616c616e64000000000000000000000000000000000081525060049080519060200190620000c19291906200036e565b50348015620000cf57600080fd5b50336000806101000a81548173ffffffffffffffffffffffffffffffffffffffff021916908373ffffffffffffffffffffffffffffffffffffffff160217905550604051806101000160405280600081526020016004805462000132906200044d565b80601f016020809104026020016040519081016040528092919081815260200182805462000160906200044d565b8015620001b15780601f106200018557610100808354040283529160200191620001b1565b820191906000526020600020905b8154815290600101906020018083116200019357829003601f168201915b50505050508152602001600360009054906101000a900473ffffffffffffffffffffffffffffffffffffffff1673ffffffffffffffffffffffffffffffffffffffff16815260200160011515815260200160001515815260200160011515815260200160008152602001600081525060026000600360009054906101000a900473ffffffffffffffffffffffffffffffffffffffff1673ffffffffffffffffffffffffffffffffffffffff1673ffffffffffffffffffffffffffffffffffffffff168152602001908152602001600020600082015181600001556020820151816001019080519060200190620002a99291906200036e565b5060408201518160020160006101000a81548173ffffffffffffffffffffffffffffffffffffffff021916908373ffffffffffffffffffffffffffffffffffffffff16021790555060608201518160020160146101000a81548160ff02191690831515021790555060808201518160020160156101000a81548160ff02191690831515021790555060a08201518160020160166101000a81548160ff02191690831515021790555060c0820151816003015560e0820151816004015590505062000483565b8280546200037c906200044d565b90600052602060002090601f016020900481019282620003a05760008555620003ec565b82601f10620003bb57805160ff1916838001178555620003ec565b82800160010185558215620003ec579182015b82811115620003eb578251825591602001919060010190620003ce565b5b509050620003fb9190620003ff565b5090565b5b808211156200041a57600081600090555060010162000400565b5090565b7f4e487b7100000000000000000000000000000000000000000000000000000000600052602260045260246000fd5b600060028204905060018216806200046657607f821691505b602082108114156200047d576200047c6200041e565b5b50919050565b61308980620004936000396000f3fe6080604052600436106101235760003560e01c80638529b35d116100a0578063cc2f6eba11610064578063cc2f6eba146103de578063cd905dff14610407578063e188ac9814610432578063edeb6c3a14610475578063fe9fbb80146104b75761012a565b80638529b35d146103035780638609cad114610345578063b598280314610361578063b85a9e611461038c578063c984208c146103b55761012a565b806341684769116100e7578063416847691461020557806341c0e1b5146102495780634a3bc19d1461026057806361b029ed1461028957806379fca285146102c65761012a565b80631bcd250a1461012c57806320c5375e1461015557806323024408146101975780632c388d5d146101b35780633f2aecea146101dc5761012a565b3661012a57005b005b34801561013857600080fd5b50610153600480360381019061014e91906123da565b6104f4565b005b34801561016157600080fd5b5061017c6004803603810190610177919061243d565b6105dd565b60405161018e96959493929190612571565b60405180910390f35b6101b160048036038101906101ac91906123da565b6106db565b005b3480156101bf57600080fd5b506101da60048036038101906101d591906123da565b610904565b005b3480156101e857600080fd5b5061020360048036038101906101fe9190612605565b6109ec565b005b34801561021157600080fd5b5061022c600480360381019061022791906123da565b610b01565b604051610240989796959493929190612666565b60405180910390f35b34801561025557600080fd5b5061025e610c18565b005b34801561026c57600080fd5b5061028760048036038101906102829190612717565b610d35565b005b34801561029557600080fd5b506102b060048036038101906102ab919061243d565b610e36565b6040516102bd9190612757565b60405180910390f35b3480156102d257600080fd5b506102ed60048036038101906102e8919061243d565b610f9d565b6040516102fa9190612772565b60405180910390f35b34801561030f57600080fd5b5061032a6004803603810190610325919061278d565b6110ac565b60405161033c96959493929190612571565b60405180910390f35b61035f600480360381019061035a919061243d565b611315565b005b34801561036d57600080fd5b506103766113d3565b60405161038391906127ba565b60405180910390f35b34801561039857600080fd5b506103b360048036038101906103ae9190612936565b6113fd565b005b3480156103c157600080fd5b506103dc60048036038101906103d791906129b9565b61169a565b005b3480156103ea57600080fd5b506104056004803603810190610400919061243d565b6118cc565b005b34801561041357600080fd5b5061041c611c38565b6040516104299190612757565b60405180910390f35b34801561043e57600080fd5b50610459600480360381019061045491906123da565b611c4e565b60405161046c9796959493929190612a28565b60405180910390f35b34801561048157600080fd5b5061049c6004803603810190610497919061278d565b611ffb565b6040516104ae96959493929190612a9e565b60405180910390f35b3480156104c357600080fd5b506104de60048036038101906104d991906123da565b6121d8565b6040516104eb9190612757565b60405180910390f35b60008054906101000a900473ffffffffffffffffffffffffffffffffffffffff1673ffffffffffffffffffffffffffffffffffffffff163373ffffffffffffffffffffffffffffffffffffffff1614610582576040517f08c379a000000000000000000000000000000000000000000000000000000000815260040161057990612b4b565b60405180910390fd5b6000600160008373ffffffffffffffffffffffffffffffffffffffff1673ffffffffffffffffffffffffffffffffffffffff16815260200190815260200160002060006101000a81548160ff02191690831515021790555050565b600560205280600052604060002060009150905080600001549080600101805461060690612b9a565b80601f016020809104026020016040519081016040528092919081815260200182805461063290612b9a565b801561067f5780601f106106545761010080835404028352916020019161067f565b820191906000526020600020905b81548152906001019060200180831161066257829003601f168201915b5050505050908060020160009054906101000a900460ff16908060020160019054906101000a900460ff16908060030154908060040160009054906101000a900473ffffffffffffffffffffffffffffffffffffffff16905086565b678ac7230489e8000080341015610727576040517f08c379a000000000000000000000000000000000000000000000000000000000815260040161071e90612c18565b60405180910390fd5b678ac7230489e800003414610771576040517f08c379a000000000000000000000000000000000000000000000000000000000815260040161076890612caa565b60405180910390fd5b600060149054906101000a900460ff166107c0576040517f08c379a00000000000000000000000000000000000000000000000000000000081526004016107b790612d3c565b60405180910390fd5b60008054906101000a900473ffffffffffffffffffffffffffffffffffffffff1673ffffffffffffffffffffffffffffffffffffffff166108fc349081150290604051600060405180830381858888f19350505050158015610826573d6000803e3d6000fd5b506001600260008473ffffffffffffffffffffffffffffffffffffffff1673ffffffffffffffffffffffffffffffffffffffff16815260200190815260200160002060020160156101000a81548160ff02191690831515021790555034600260008473ffffffffffffffffffffffffffffffffffffffff1673ffffffffffffffffffffffffffffffffffffffff168152602001908152602001600020600301819055507f74fd33b93b98017671fda1e0c45b783f7e31895388503a3959006c338043daf5826040516108f891906127ba565b60405180910390a15050565b60008054906101000a900473ffffffffffffffffffffffffffffffffffffffff1673ffffffffffffffffffffffffffffffffffffffff163373ffffffffffffffffffffffffffffffffffffffff1614610992576040517f08c379a000000000000000000000000000000000000000000000000000000000815260040161098990612b4b565b60405180910390fd5b60018060008373ffffffffffffffffffffffffffffffffffffffff1673ffffffffffffffffffffffffffffffffffffffff16815260200190815260200160002060006101000a81548160ff02191690831515021790555050565b60011515600160003373ffffffffffffffffffffffffffffffffffffffff1673ffffffffffffffffffffffffffffffffffffffff16815260200190815260200160002060009054906101000a900460ff16151514610a7f576040517f08c379a0000000000000000000000000000000000000000000000000000000008152600401610a7690612da8565b60405180910390fd5b600060149054906101000a900460ff16610ace576040517f08c379a0000000000000000000000000000000000000000000000000000000008152600401610ac590612d3c565b60405180910390fd5b806005600084815260200190815260200160002060020160016101000a81548160ff021916908360ff1602179055505050565b6002602052806000526040600020600091509050806000015490806001018054610b2a90612b9a565b80601f0160208091040260200160405190810160405280929190818152602001828054610b5690612b9a565b8015610ba35780601f10610b7857610100808354040283529160200191610ba3565b820191906000526020600020905b815481529060010190602001808311610b8657829003601f168201915b5050505050908060020160009054906101000a900473ffffffffffffffffffffffffffffffffffffffff16908060020160149054906101000a900460ff16908060020160159054906101000a900460ff16908060020160169054906101000a900460ff16908060030154908060040154905088565b60008054906101000a900473ffffffffffffffffffffffffffffffffffffffff1673ffffffffffffffffffffffffffffffffffffffff163373ffffffffffffffffffffffffffffffffffffffff1614610ca6576040517f08c379a0000000000000000000000000000000000000000000000000000000008152600401610c9d90612b4b565b60405180910390fd5b60008054906101000a900473ffffffffffffffffffffffffffffffffffffffff1673ffffffffffffffffffffffffffffffffffffffff163373ffffffffffffffffffffffffffffffffffffffff161415610d335760008054906101000a900473ffffffffffffffffffffffffffffffffffffffff1673ffffffffffffffffffffffffffffffffffffffff16ff5b565b60011515600160003373ffffffffffffffffffffffffffffffffffffffff1673ffffffffffffffffffffffffffffffffffffffff16815260200190815260200160002060009054906101000a900460ff16151514610dc8576040517f08c379a0000000000000000000000000000000000000000000000000000000008152600401610dbf90612da8565b60405180910390fd5b600060149054906101000a900460ff16610e17576040517f08c379a0000000000000000000000000000000000000000000000000000000008152600401610e0e90612d3c565b60405180910390fd5b8060056000848152602001908152602001600020600301819055505050565b600060011515600160003373ffffffffffffffffffffffffffffffffffffffff1673ffffffffffffffffffffffffffffffffffffffff16815260200190815260200160002060009054906101000a900460ff16151514610ecb576040517f08c379a0000000000000000000000000000000000000000000000000000000008152600401610ec290612da8565b60405180910390fd5b600060149054906101000a900460ff16610f1a576040517f08c379a0000000000000000000000000000000000000000000000000000000008152600401610f1190612d3c565b60405180910390fd5b60008073ffffffffffffffffffffffffffffffffffffffff166005600085815260200190815260200160002060040160009054906101000a900473ffffffffffffffffffffffffffffffffffffffff1673ffffffffffffffffffffffffffffffffffffffff161415610f8f5760009050610f94565b600190505b80915050919050565b600060011515600160003373ffffffffffffffffffffffffffffffffffffffff1673ffffffffffffffffffffffffffffffffffffffff16815260200190815260200160002060009054906101000a900460ff16151514611032576040517f08c379a000000000000000000000000000000000000000000000000000000000815260040161102990612da8565b60405180910390fd5b600060149054906101000a900460ff16611081576040517f08c379a000000000000000000000000000000000000000000000000000000000815260040161107890612d3c565b60405180910390fd5b6005600083815260200190815260200160002060020160019054906101000a900460ff169050919050565b6000606060008060008060011515600160003373ffffffffffffffffffffffffffffffffffffffff1673ffffffffffffffffffffffffffffffffffffffff16815260200190815260200160002060009054906101000a900460ff16151514611149576040517f08c379a000000000000000000000000000000000000000000000000000000000815260040161114090612da8565b60405180910390fd5b600060149054906101000a900460ff16611198576040517f08c379a000000000000000000000000000000000000000000000000000000000815260040161118f90612d3c565b60405180910390fd5b6000600660008981526020019081526020016000205490506005600082815260200190815260200160002060000154600560008381526020019081526020016000206001016005600084815260200190815260200160002060020160009054906101000a900460ff166005600085815260200190815260200160002060020160019054906101000a900460ff1660056000868152602001908152602001600020600301546005600087815260200190815260200160002060040160009054906101000a900473ffffffffffffffffffffffffffffffffffffffff1684805461127f90612b9a565b80601f01602080910402602001604051908101604052809291908181526020018280546112ab90612b9a565b80156112f85780601f106112cd576101008083540402835291602001916112f8565b820191906000526020600020905b8154815290600101906020018083116112db57829003601f168201915b505050505094509650965096509650965096505091939550919395565b600060149054906101000a900460ff16611364576040517f08c379a000000000000000000000000000000000000000000000000000000000815260040161135b90612d3c565b60405180910390fd5b6000611370338361222e565b90503373ffffffffffffffffffffffffffffffffffffffff166108fc60086000848152602001908152602001600020600401549081150290604051600060405180830381858888f193505050501580156113ce573d6000803e3d6000fd5b505050565b6000600360009054906101000a900473ffffffffffffffffffffffffffffffffffffffff16905090565b60011515600160003373ffffffffffffffffffffffffffffffffffffffff1673ffffffffffffffffffffffffffffffffffffffff16815260200190815260200160002060009054906101000a900460ff16151514611490576040517f08c379a000000000000000000000000000000000000000000000000000000000815260040161148790612da8565b60405180910390fd5b600060149054906101000a900460ff166114df576040517f08c379a00000000000000000000000000000000000000000000000000000000081526004016114d690612d3c565b60405180910390fd5b6040518061010001604052808381526020018581526020018473ffffffffffffffffffffffffffffffffffffffff1681526020016001151581526020016000151581526020018215158152602001600081526020016000815250600260008573ffffffffffffffffffffffffffffffffffffffff1673ffffffffffffffffffffffffffffffffffffffff16815260200190815260200160002060008201518160000155602082015181600101908051906020019061159e9291906122c5565b5060408201518160020160006101000a81548173ffffffffffffffffffffffffffffffffffffffff021916908373ffffffffffffffffffffffffffffffffffffffff16021790555060608201518160020160146101000a81548160ff02191690831515021790555060808201518160020160156101000a81548160ff02191690831515021790555060a08201518160020160166101000a81548160ff02191690831515021790555060c0820151816003015560e082015181600401559050507f478f5152d8fc568db3f8de9fb402fd9d98a1a7541ecfe434e59cf574fbfc55248360405161168c91906127ba565b60405180910390a150505050565b60011515600160003373ffffffffffffffffffffffffffffffffffffffff1673ffffffffffffffffffffffffffffffffffffffff16815260200190815260200160002060009054906101000a900460ff1615151461172d576040517f08c379a000000000000000000000000000000000000000000000000000000000815260040161172490612da8565b60405180910390fd5b600060149054906101000a900460ff1661177c576040517f08c379a000000000000000000000000000000000000000000000000000000000815260040161177390612d3c565b60405180910390fd5b6040518060c00160405280848152602001838152602001600115158152602001600060ff1681526020018281526020013373ffffffffffffffffffffffffffffffffffffffff16815250600560008581526020019081526020016000206000820151816000015560208201518160010190805190602001906117ff9291906122c5565b5060408201518160020160006101000a81548160ff02191690831515021790555060608201518160020160016101000a81548160ff021916908360ff1602179055506080820151816003015560a08201518160040160006101000a81548173ffffffffffffffffffffffffffffffffffffffff021916908373ffffffffffffffffffffffffffffffffffffffff160217905550905050600760008154809291906118a890612df7565b91905055508260066000600754815260200190815260200160002081905550505050565b60011515600160003373ffffffffffffffffffffffffffffffffffffffff1673ffffffffffffffffffffffffffffffffffffffff16815260200190815260200160002060009054906101000a900460ff1615151461195f576040517f08c379a000000000000000000000000000000000000000000000000000000000815260040161195690612da8565b60405180910390fd5b600060149054906101000a900460ff166119ae576040517f08c379a00000000000000000000000000000000000000000000000000000000081526004016119a590612d3c565b60405180910390fd5b60006119ba338361222e565b905081600860008381526020019081526020016000206001015414611a14576040517f08c379a0000000000000000000000000000000000000000000000000000000008152600401611a0b90612e8c565b60405180910390fd5b6008600082815260200190815260200160002060050160009054906101000a900460ff16611a77576040517f08c379a0000000000000000000000000000000000000000000000000000000008152600401611a6e90612ef8565b60405180910390fd5b60006005600084815260200190815260200160002060040160009054906101000a900473ffffffffffffffffffffffffffffffffffffffff1690506000600860008481526020019081526020016000206003015490506000611ae4611add83600f612283565b600a612299565b90506000600260008573ffffffffffffffffffffffffffffffffffffffff1673ffffffffffffffffffffffffffffffffffffffff1681526020019081526020016000206003015490506000600260008673ffffffffffffffffffffffffffffffffffffffff1673ffffffffffffffffffffffffffffffffffffffff168152602001908152602001600020600401549050826008600088815260200190815260200160002060040181905550611b9982846122af565b600260008773ffffffffffffffffffffffffffffffffffffffff1673ffffffffffffffffffffffffffffffffffffffff16815260200190815260200160002060030181905550611be981846122af565b600260008773ffffffffffffffffffffffffffffffffffffffff1673ffffffffffffffffffffffffffffffffffffffff1681526020019081526020016000206004018190555050505050505050565b60008060149054906101000a900460ff16905090565b606060008060008060008060011515600160003373ffffffffffffffffffffffffffffffffffffffff1673ffffffffffffffffffffffffffffffffffffffff16815260200190815260200160002060009054906101000a900460ff16151514611cec576040517f08c379a0000000000000000000000000000000000000000000000000000000008152600401611ce390612da8565b60405180910390fd5b600060149054906101000a900460ff16611d3b576040517f08c379a0000000000000000000000000000000000000000000000000000000008152600401611d3290612d3c565b60405180910390fd5b600260008973ffffffffffffffffffffffffffffffffffffffff1673ffffffffffffffffffffffffffffffffffffffff168152602001908152602001600020600101600260008a73ffffffffffffffffffffffffffffffffffffffff1673ffffffffffffffffffffffffffffffffffffffff16815260200190815260200160002060020160009054906101000a900473ffffffffffffffffffffffffffffffffffffffff16600260008b73ffffffffffffffffffffffffffffffffffffffff1673ffffffffffffffffffffffffffffffffffffffff16815260200190815260200160002060020160149054906101000a900460ff16600260008c73ffffffffffffffffffffffffffffffffffffffff1673ffffffffffffffffffffffffffffffffffffffff16815260200190815260200160002060020160159054906101000a900460ff16600260008d73ffffffffffffffffffffffffffffffffffffffff1673ffffffffffffffffffffffffffffffffffffffff16815260200190815260200160002060020160169054906101000a900460ff16600260008e73ffffffffffffffffffffffffffffffffffffffff1673ffffffffffffffffffffffffffffffffffffffff16815260200190815260200160002060030154600260008f73ffffffffffffffffffffffffffffffffffffffff1673ffffffffffffffffffffffffffffffffffffffff16815260200190815260200160002060040154868054611f6290612b9a565b80601f0160208091040260200160405190810160405280929190818152602001828054611f8e90612b9a565b8015611fdb5780601f10611fb057610100808354040283529160200191611fdb565b820191906000526020600020905b815481529060010190602001808311611fbe57829003601f168201915b505050505096509650965096509650965096509650919395979092949650565b60008060008060008060011515600160003373ffffffffffffffffffffffffffffffffffffffff1673ffffffffffffffffffffffffffffffffffffffff16815260200190815260200160002060009054906101000a900460ff16151514612097576040517f08c379a000000000000000000000000000000000000000000000000000000000815260040161208e90612da8565b60405180910390fd5b600060149054906101000a900460ff166120e6576040517f08c379a00000000000000000000000000000000000000000000000000000000081526004016120dd90612d3c565b60405180910390fd5b60006009600089815260200190815260200160002054905060086000828152602001908152602001600020600101546008600083815260200190815260200160002060020160009054906101000a900473ffffffffffffffffffffffffffffffffffffffff16600860008481526020019081526020016000206003015460086000858152602001908152602001600020600401546008600086815260200190815260200160002060050160009054906101000a900460ff166008600087815260200190815260200160002060050160019054906101000a900460ff169650965096509650965096505091939550919395565b6000600160008373ffffffffffffffffffffffffffffffffffffffff1673ffffffffffffffffffffffffffffffffffffffff16815260200190815260200160002060009054906101000a900460ff169050919050565b60008060608473ffffffffffffffffffffffffffffffffffffffff16901b60001b90508083604051602001612264929190612f39565b6040516020818303038152906040528051906020012091505092915050565b600081836122919190612f65565b905092915050565b600081836122a79190612fee565b905092915050565b600081836122bd919061301f565b905092915050565b8280546122d190612b9a565b90600052602060002090601f0160209004810192826122f3576000855561233a565b82601f1061230c57805160ff191683800117855561233a565b8280016001018555821561233a579182015b8281111561233957825182559160200191906001019061231e565b5b509050612347919061234b565b5090565b5b8082111561236457600081600090555060010161234c565b5090565b6000604051905090565b600080fd5b600080fd5b600073ffffffffffffffffffffffffffffffffffffffff82169050919050565b60006123a78261237c565b9050919050565b6123b78161239c565b81146123c257600080fd5b50565b6000813590506123d4816123ae565b92915050565b6000602082840312156123f0576123ef612372565b5b60006123fe848285016123c5565b91505092915050565b6000819050919050565b61241a81612407565b811461242557600080fd5b50565b60008135905061243781612411565b92915050565b60006020828403121561245357612452612372565b5b600061246184828501612428565b91505092915050565b61247381612407565b82525050565b600081519050919050565b600082825260208201905092915050565b60005b838110156124b3578082015181840152602081019050612498565b838111156124c2576000848401525b50505050565b6000601f19601f8301169050919050565b60006124e482612479565b6124ee8185612484565b93506124fe818560208601612495565b612507816124c8565b840191505092915050565b60008115159050919050565b61252781612512565b82525050565b600060ff82169050919050565b6125438161252d565b82525050565b6000819050919050565b61255c81612549565b82525050565b61256b8161239c565b82525050565b600060c082019050612586600083018961246a565b818103602083015261259881886124d9565b90506125a7604083018761251e565b6125b4606083018661253a565b6125c16080830185612553565b6125ce60a0830184612562565b979650505050505050565b6125e28161252d565b81146125ed57600080fd5b50565b6000813590506125ff816125d9565b92915050565b6000806040838503121561261c5761261b612372565b5b600061262a85828601612428565b925050602061263b858286016125f0565b9150509250929050565b60006126508261237c565b9050919050565b61266081612645565b82525050565b60006101008201905061267c600083018b612553565b818103602083015261268e818a6124d9565b905061269d6040830189612657565b6126aa606083018861251e565b6126b7608083018761251e565b6126c460a083018661251e565b6126d160c0830185612553565b6126de60e0830184612553565b9998505050505050505050565b6126f481612549565b81146126ff57600080fd5b50565b600081359050612711816126eb565b92915050565b6000806040838503121561272e5761272d612372565b5b600061273c85828601612428565b925050602061274d85828601612702565b9150509250929050565b600060208201905061276c600083018461251e565b92915050565b6000602082019050612787600083018461253a565b92915050565b6000602082840312156127a3576127a2612372565b5b60006127b184828501612702565b91505092915050565b60006020820190506127cf6000830184612562565b92915050565b600080fd5b600080fd5b7f4e487b7100000000000000000000000000000000000000000000000000000000600052604160045260246000fd5b612817826124c8565b810181811067ffffffffffffffff82111715612836576128356127df565b5b80604052505050565b6000612849612368565b9050612855828261280e565b919050565b600067ffffffffffffffff821115612875576128746127df565b5b61287e826124c8565b9050602081019050919050565b82818337600083830152505050565b60006128ad6128a88461285a565b61283f565b9050828152602081018484840111156128c9576128c86127da565b5b6128d484828561288b565b509392505050565b600082601f8301126128f1576128f06127d5565b5b813561290184826020860161289a565b91505092915050565b61291381612512565b811461291e57600080fd5b50565b6000813590506129308161290a565b92915050565b600080600080608085870312156129505761294f612372565b5b600085013567ffffffffffffffff81111561296e5761296d612377565b5b61297a878288016128dc565b945050602061298b878288016123c5565b935050604061299c87828801612702565b92505060606129ad87828801612921565b91505092959194509250565b6000806000606084860312156129d2576129d1612372565b5b60006129e086828701612428565b935050602084013567ffffffffffffffff811115612a0157612a00612377565b5b612a0d868287016128dc565b9250506040612a1e86828701612702565b9150509250925092565b600060e0820190508181036000830152612a42818a6124d9565b9050612a516020830189612562565b612a5e604083018861251e565b612a6b606083018761251e565b612a78608083018661251e565b612a8560a0830185612553565b612a9260c0830184612553565b98975050505050505050565b600060c082019050612ab3600083018961246a565b612ac06020830188612562565b612acd6040830187612553565b612ada6060830186612553565b612ae7608083018561251e565b612af460a083018461251e565b979650505050505050565b7f43414c4c4552204953204e4f5420434f4e5452414354204f574e455200000000600082015250565b6000612b35601c83612484565b9150612b4082612aff565b602082019050919050565b60006020820190508181036000830152612b6481612b28565b9050919050565b7f4e487b7100000000000000000000000000000000000000000000000000000000600052602260045260246000fd5b60006002820490506001821680612bb257607f821691505b60208210811415612bc657612bc5612b6b565b5b50919050565b7f414d4f554e54204953204e4f5420454e4f554748540000000000000000000000600082015250565b6000612c02601583612484565b9150612c0d82612bcc565b602082019050919050565b60006020820190508181036000830152612c3181612bf5565b9050919050565b7f4149524c494e45204d555354205452414e534645522045584143544c5920313060008201527f2045544845525300000000000000000000000000000000000000000000000000602082015250565b6000612c94602783612484565b9150612c9f82612c38565b604082019050919050565b60006020820190508181036000830152612cc381612c87565b9050919050565b7f434f4e54524143542049532043555252454e544c59204e4f54204f504552415460008201527f494f4e414c000000000000000000000000000000000000000000000000000000602082015250565b6000612d26602583612484565b9150612d3182612cca565b604082019050919050565b60006020820190508181036000830152612d5581612d19565b9050919050565b7f43616c6c6572206973206e6f7420617574686f72697a65640000000000000000600082015250565b6000612d92601883612484565b9150612d9d82612d5c565b602082019050919050565b60006020820190508181036000830152612dc181612d85565b9050919050565b7f4e487b7100000000000000000000000000000000000000000000000000000000600052601160045260246000fd5b6000612e0282612549565b91507fffffffffffffffffffffffffffffffffffffffffffffffffffffffffffffffff821415612e3557612e34612dc8565b5b600182019050919050565b7f4552524f523a20494e535552414e4345204e4f5420464f554e44000000000000600082015250565b6000612e76601a83612484565b9150612e8182612e40565b602082019050919050565b60006020820190508181036000830152612ea581612e69565b9050919050565b7f4552524f523a204e4f5448494e4720544f20434c41494d000000000000000000600082015250565b6000612ee2601783612484565b9150612eed82612eac565b602082019050919050565b60006020820190508181036000830152612f1181612ed5565b9050919050565b6000819050919050565b612f33612f2e82612407565b612f18565b82525050565b6000612f458285612f22565b602082019150612f558284612f22565b6020820191508190509392505050565b6000612f7082612549565b9150612f7b83612549565b9250817fffffffffffffffffffffffffffffffffffffffffffffffffffffffffffffffff0483118215151615612fb457612fb3612dc8565b5b828202905092915050565b7f4e487b7100000000000000000000000000000000000000000000000000000000600052601260045260246000fd5b6000612ff982612549565b915061300483612549565b92508261301457613013612fbf565b5b828204905092915050565b600061302a82612549565b915061303583612549565b92508282101561304857613047612dc8565b5b82820390509291505056fea26469706673582212209d7e512302eecb79db428e97cfb687d0baee40e3462f55b1152c5f9e7afccc6764736f6c634300080b0033",
  "immutableReferences": {},
  "source": "// SPDX-License-Identifier: MIT\npragma solidity ^0.8.0;\n\nimport \"@openzeppelin/contracts/utils/math/SafeMath.sol\";\n\ncontract FlightSuretyData {\n\n    address payable contractOwner;              // ACCOUNT USED TO DEPLOY CONTRACT\n    bool private operational = true;            // BLOCKS ALL STATE CHANGES THROUGHOUT THE CONTRACT IF FALSE\n\n    mapping(address => bool) AuthorizedCallers; //AUTHORIZED CALLERS \n    \n    using SafeMath for uint256;                 //LIBRARY USED TO EXECUTE MATH OPERATIONS\n\n\n    /********************************************************************************************/\n    /*                                      AIRLINE VARIABLES                                   */\n    /********************************************************************************************/\n    struct Airline {\n        uint            airlineId;\n        string          airlineName;\n        address payable airlineAddress;\n        bool            registered;\n        bool            participant;\n        bool            controller;\n        uint            fundAvailable;\n        uint            fundCommitted;\n    }\n    mapping(address => Airline) public airlines;\n\n    address _firstAirlineAddress = 0xF258b0a25eE7D6f02a9a1118afdF77CaC6D72784;\n    string _firstName = \"Air New Zealand\";\n\n    /********************************************************************************************/\n    /*                                      FLIGHT VARIABLES                                    */\n    /********************************************************************************************/\n    struct Flight {\n        bytes32         flightKey;\n        string          flight;\n        bool            active;\n        uint8           statusCode;\n        uint256         updatedTimestamp;\n        address         airlineAddress;\n    }\n    mapping(bytes32 => Flight) public flights;\n    mapping(uint => bytes32) private flightsReverse;\n    uint fCounter;\n\n\n    /********************************************************************************************/\n    /*                                  INSURANCE VARIABLES                                     */\n    /********************************************************************************************/\n    struct Insurance {\n        bytes32         insuranceKey;\n        bytes32         flightKey;\n        address payable passengerAddress;\n        uint            amountPaid;\n        uint            amountAvailable;\n        bool            claimable;\n        bool            active;\n    }\n    mapping(bytes32 => Insurance) insurances;\n    mapping(uint => bytes32) private insurancesReverse;\n    uint iCounter;\n\n\n    /********************************************************************************************/\n    /*                                       EVENT DEFINITIONS                                  */\n    /********************************************************************************************/\n    event Registration(address);\n    event Candidate(address);\n    event Funding(address);\n    event Acquisition(address);\n    event Payment(address);\n\n\n    /********************************************************************************************/\n    /*                                       FUNCTION MODIFIERS                                 */\n    /********************************************************************************************/\n    modifier requireIsOperational() {\n        require(operational, \"CONTRACT IS CURRENTLY NOT OPERATIONAL\");\n        _;\n    }\n\n    modifier verifyCaller(address _address) {\n        require(msg.sender == _address, \"CALLER IS NOT ALLOWED TO EXECUTE FUNCTION\"); \n        _;\n    }\n\n    modifier requireContractOwner() {\n        require(msg.sender == contractOwner, \"CALLER IS NOT CONTRACT OWNER\");\n        _;\n    }\n\n    modifier requireAuthorizedCaller(){\n        require(AuthorizedCallers[msg.sender] == true, \"Caller is not authorized\");\n        _;\n    }\n\n    modifier paidEnough(uint _price) { \n        require(msg.value >= _price, \"AMOUNT IS NOT ENOUGHT\"); \n        _;\n    }\n  \n    modifier checkParticipantValue() {\n        require(msg.value == 10 ether, \"AIRLINE MUST TRANSFER EXACTLY 10 ETHERS\");\n        _;\n    }\n\n    modifier checkPassengerValue() {\n        require(msg.value >= 1 gwei && msg.value <= 1 ether, \"CALLER MUST SPEND BETWEEN 1 GWEI AND 1 ETHER\");\n        _;\n    }\n\n\n    /********************************************************************************************/\n    /*                                       CONSTRUCTOR DEFINITION                             */\n    /********************************************************************************************/    \n    /* The deploying account becomes contractOwner */\n    constructor() {\n        contractOwner = payable(msg.sender);\n        airlines[_firstAirlineAddress] = Airline(\n            {\n                airlineId: 0,\n                airlineName: _firstName,\n                airlineAddress: payable(_firstAirlineAddress),\n                registered: true,\n                participant: false,\n                controller: true,\n                fundAvailable: 0,\n                fundCommitted: 0\n            });\n\n    }\n\n    function getFirstAirlineAddress() external view returns(address){\n        return _firstAirlineAddress;\n    }\n\n\n    /********************************************************************************************/\n    /*                                       UTILITY FUNCTIONS                                  */\n    /********************************************************************************************/\n    function kill() public requireContractOwner() {\n        if (msg.sender == contractOwner) {\n            selfdestruct(contractOwner);\n        }\n    }\n\n    function isOperational() external view returns(bool) {\n        return operational;\n    }\n\n    function authorizeCaller(address _caller) public requireContractOwner {\n        AuthorizedCallers[_caller] = true;\n    }\n\n    function isAuthorized(address _caller) public view returns(bool) {\n        return AuthorizedCallers[_caller];\n    }\n\n    function deAuthorizeCaller(address _caller) public requireContractOwner {\n        AuthorizedCallers[_caller] = false;\n    }\n\n\n    /********************************************************************************************/\n    /*                       SMART CONTRACT REGISTER AIRLINES FUNCTIONS                         */\n    /********************************************************************************************/\n    function registerAirline(string memory _name, address _address, uint _aCounter, bool _controller) external requireAuthorizedCaller() requireIsOperational() {\n        airlines[_address] = Airline(\n            {\n                airlineId: _aCounter,\n                airlineName: _name,\n                airlineAddress: payable(_address),                    \n                registered: true,\n                participant: false,\n                controller: _controller,\n                fundAvailable: 0,\n                fundCommitted: 0\n            }\n        );\n            \n        emit Registration(_address);\n        \n    }\n\n\n    /********************************************************************************************/\n    /*                          SMART CONTRACT PARTICIPANT FUNCTIONS                            */\n    /********************************************************************************************/\n    function fund(address _address) external payable paidEnough(10 ether) checkParticipantValue() requireIsOperational() {\n        contractOwner.transfer(msg.value);\n\n        airlines[_address].participant = true;\n        airlines[_address].fundAvailable = msg.value;\n    \n        emit Funding(_address);\n    }\n\n\n    /********************************************************************************************/\n    /*                                  KEYS GENEARTOR FUNCTIONS                                */\n    /********************************************************************************************/\n    function getInsuranceKey(address _passengerAddress, bytes32 _flightKey) pure internal returns(bytes32) {\n        bytes32 _addressToBytes32 = bytes32(uint256(uint160(_passengerAddress)) << 96);\n        return keccak256(abi.encodePacked(_addressToBytes32, _flightKey));\n    }\n\n\n    /********************************************************************************************/\n    /*                          SMART CONTRACT REGISTER FLIGHT FUNCTIONS                        */\n    /********************************************************************************************/\n    function registerFlight(bytes32 _flightKey, string memory _flight, uint _timestamp) external requireAuthorizedCaller() requireIsOperational() {\n        flights[_flightKey] = Flight({\n            flightKey: _flightKey,\n            flight: _flight,\n            active: true,\n            statusCode: 0,\n            updatedTimestamp: _timestamp,\n            airlineAddress: msg.sender\n        });\n        \n        fCounter++;\n        flightsReverse[fCounter] = _flightKey;\n    \n    }\n\n    function checkFlight(bytes32 _flightKey) external view requireAuthorizedCaller() requireIsOperational() returns(bool) {\n        bool _flightRegistered;\n        \n        if (flights[_flightKey].airlineAddress == address(0)) {\n            _flightRegistered = false;\n        }\n        else {\n            _flightRegistered = true;\n        }\n\n        return _flightRegistered;\n    }\n\n    function updateFlightTimestamp(bytes32 _flightKey, uint256 _timestamp) external requireAuthorizedCaller() requireIsOperational()  {\n        flights[_flightKey].updatedTimestamp = _timestamp;\n    }\n\n    function updateFlightStatus(bytes32 _flightKey, uint8 _statusCode) external requireAuthorizedCaller() requireIsOperational()  {\n        flights[_flightKey].statusCode = _statusCode;\n    }\n\n    function getFlightStatus(bytes32 _flightKey) external view requireAuthorizedCaller() requireIsOperational() returns(uint8) {\n        return flights[_flightKey].statusCode;\n    }\n\n\n\n    /********************************************************************************************/\n    /*                              SMART CONTRACT BUYING FUNCTIONS                             */\n    /********************************************************************************************/\n    //function buy(string memory _flight, uint16 _year, uint8 _month, uint8 _day, uint8 _hour, uint8 _minute) public payable checkPassengerValue() requireAuthorizedCaller() requireIsOperational() {\n    // // // // function buy(string memory _flight, uint _timestamp) public payable checkPassengerValue() requireAuthorizedCaller() requireIsOperational() {\n    // // // //     require(!isRegistered(msg.sender) && msg.sender != contractOwner, \"ERROR: CALLER IS NOT ALLOWED TO BUY INSURANCE\");\n        \n    // // // //     //uint _timestamp = getDateTime(_year, _month, _day, _hour, _minute);\n        \n    // // // //     bytes32 flightKey = getFlightKey(//msg.sender, \n    // // // //         _flight, _timestamp);\n        \n    // // // //     require(keccak256(abi.encodePacked(flights[flightKey].flight)) == keccak256(abi.encodePacked(_flight)), \"ERROR: FLIGHT NOT FOUND\");\n        \n    // // // //     address _airlineAddress = flights[flightKey].airlineAddress;\n\n    // // // //     bytes32 _insuranceKey = getInsuranceKey(msg.sender, flightKey);\n        \n    // // // //     require(insurances[_insuranceKey].flightKey != flightKey, \"ERROR: PASSENGER ALREADY BOUGHT THIS FLIGHT INSURANCE\");\n    // // // //     contractOwner.transfer(msg.value);\n    // // // //     iCounter ++;\n    // // // //     insurances[_insuranceKey] = Insurance(\n    // // // //         {\n    // // // //             insuranceKey: _insuranceKey,\n    // // // //             flightKey: flightKey,\n    // // // //             passengerAddress: payable(msg.sender),\n    // // // //             amountPaid: msg.value,\n    // // // //             amountAvailable: 0,\n    // // // //             claimable: false,\n    // // // //             active: true\n    // // // //         }\n    // // // //     );\n    // // // //     insurancesReverse[iCounter] = _insuranceKey;\n\n    // // // //     airlines[_airlineAddress].fundAvailable = SafeMath.add(airlines[_airlineAddress].fundAvailable, msg.value);\n    // // // //     airlines[_airlineAddress].fundCommitted = SafeMath.div(SafeMath.mul(msg.value, 15), 10);\n        \n    // // // // }\n\n    /**\n     *  @dev Credits payouts to insurees\n    */\n    function creditInsurees(bytes32 _flightKey) external requireAuthorizedCaller() requireIsOperational() {\n        bytes32 _insuranceKey = getInsuranceKey(msg.sender, _flightKey);\n        require(insurances[_insuranceKey].flightKey == _flightKey, \"ERROR: INSURANCE NOT FOUND\");\n        require(insurances[_insuranceKey].claimable, \"ERROR: NOTHING TO CLAIM\");\n\n        address _airlineAddress = flights[_flightKey].airlineAddress;\n        uint _amountPaid = insurances[_insuranceKey].amountPaid;\n        uint _amountToCredit = SafeMath.div(SafeMath.mul(_amountPaid, 15), 10);\n\n        uint _fundAvailable = airlines[_airlineAddress].fundAvailable;\n        uint _fundCommitted = airlines[_airlineAddress].fundCommitted;\n\n        insurances[_insuranceKey].amountAvailable = _amountToCredit;\n\n        airlines[_airlineAddress].fundAvailable = SafeMath.sub(_fundAvailable, _amountToCredit);\n        airlines[_airlineAddress].fundCommitted = SafeMath.sub(_fundCommitted, _amountToCredit);\n    }\n    \n\n    /**\n     *  @dev Transfers eligible payout funds to insuree\n     *\n    */\n    function pay(bytes32 _flightKey) public payable requireIsOperational() {\n        bytes32 _insuranceKey = getInsuranceKey(msg.sender, _flightKey);\n        payable(msg.sender).transfer(insurances[_insuranceKey].amountAvailable);\n    }\n\n   /**\n    * @dev Initial funding for the insurance. Unless there are too many delayed flights\n    *      resulting in insurance payouts, the contract should be self-sustaining\n    *\n    */\n\n    /**\n    * @dev Fallback function for funding smart contract.\n    *\n    */\n    fallback() external payable {\n    }\n    \n    receive() external payable {\n    }\n\n\n    /********************************************************************************************/\n    /*                               SMART CONTRACT CHECK FUNCTIONS                             */\n    /********************************************************************************************/\n    function checkAirlines(address _airlineAddress) external view requireAuthorizedCaller() requireIsOperational()\n        returns(string memory name_, address address_, bool registered_, bool participant_, bool controller_, uint fundavailable_, uint fundcommitted_)  \n    {\n        \n        return(airlines[_airlineAddress].airlineName\n            , airlines[_airlineAddress].airlineAddress\n            , airlines[_airlineAddress].registered\n            , airlines[_airlineAddress].participant\n            , airlines[_airlineAddress].controller\n            , airlines[_airlineAddress].fundAvailable\n            , airlines[_airlineAddress].fundCommitted\n        );\n    \n    }\n\n    function checkFlights(uint _flightId) external view requireAuthorizedCaller() requireIsOperational()\n        returns(bytes32 key_, string memory flight_, bool active_, uint8 status_, uint256 timestamp_, address address_) \n    {\n        bytes32 _flightKey = flightsReverse[_flightId];\n        return(flights[_flightKey].flightKey\n            , flights[_flightKey].flight\n            , flights[_flightKey].active\n            , flights[_flightKey].statusCode\n            , flights[_flightKey].updatedTimestamp        \n            , flights[_flightKey].airlineAddress\n        );\n    }\n\n    function checkInsurances(uint _iId) external view requireAuthorizedCaller() requireIsOperational()\n        returns(bytes32 flightKey_, address passengerAddress_, uint amountPaid_, uint amountAvailable_, bool claimable_, bool active_) \n    {\n        bytes32 _insuranceKey = insurancesReverse[_iId];\n        return(insurances[_insuranceKey].flightKey\n            , insurances[_insuranceKey].passengerAddress\n            , insurances[_insuranceKey].amountPaid\n            , insurances[_insuranceKey].amountAvailable\n            , insurances[_insuranceKey].claimable\n            , insurances[_insuranceKey].active\n        );\n    }\n}",
  "sourcePath": "/Users/fernandomaximof/Documents/udacity-projects/project4old/contracts/FlightSuretyData.sol",
  "compiler": {
    "name": "solc",
    "version": "0.8.11+commit.d7f03943.Emscripten.clang"
  },
  "schemaVersion": "3.4.3",
  "updatedAt": "2022-01-29T07:30:30.187Z",
  "networkType": "ethereum",
  "devdoc": {
    "kind": "dev",
    "methods": {
      "creditInsurees(bytes32)": {
        "details": "Credits payouts to insurees"
      },
      "pay(bytes32)": {
        "details": "Transfers eligible payout funds to insuree"
      }
    },
    "version": 1
  },
  "userdoc": {
    "kind": "user",
    "methods": {},
    "version": 1
  }
}