{
  "contractName": "FlightSuretyData",
  "abi": [
    {
      "inputs": [],
      "stateMutability": "nonpayable",
      "type": "constructor"
    },
    {
      "anonymous": false,
      "inputs": [
        {
          "indexed": false,
          "internalType": "address",
          "name": "",
          "type": "address"
        }
      ],
      "name": "Acquisition",
      "type": "event"
    },
    {
      "anonymous": false,
      "inputs": [
        {
          "indexed": false,
          "internalType": "address",
          "name": "",
          "type": "address"
        }
      ],
      "name": "Candidate",
      "type": "event"
    },
    {
      "anonymous": false,
      "inputs": [
        {
          "indexed": false,
          "internalType": "address",
          "name": "",
          "type": "address"
        }
      ],
      "name": "Funding",
      "type": "event"
    },
    {
      "anonymous": false,
      "inputs": [
        {
          "indexed": false,
          "internalType": "address",
          "name": "",
          "type": "address"
        }
      ],
      "name": "Payment",
      "type": "event"
    },
    {
      "anonymous": false,
      "inputs": [
        {
          "indexed": false,
          "internalType": "address",
          "name": "",
          "type": "address"
        }
      ],
      "name": "Registration",
      "type": "event"
    },
    {
      "stateMutability": "payable",
      "type": "fallback",
      "payable": true
    },
    {
      "inputs": [
        {
          "internalType": "address",
          "name": "",
          "type": "address"
        }
      ],
      "name": "airlines",
      "outputs": [
        {
          "internalType": "uint256",
          "name": "airlineId",
          "type": "uint256"
        },
        {
          "internalType": "string",
          "name": "airlineName",
          "type": "string"
        },
        {
          "internalType": "address payable",
          "name": "airlineAddress",
          "type": "address"
        },
        {
          "internalType": "bool",
          "name": "registered",
          "type": "bool"
        },
        {
          "internalType": "bool",
          "name": "participant",
          "type": "bool"
        },
        {
          "internalType": "bool",
          "name": "controller",
          "type": "bool"
        },
        {
          "internalType": "uint256",
          "name": "fundAvailable",
          "type": "uint256"
        },
        {
          "internalType": "uint256",
          "name": "fundCommitted",
          "type": "uint256"
        }
      ],
      "stateMutability": "view",
      "type": "function",
      "constant": true
    },
    {
      "stateMutability": "payable",
      "type": "receive",
      "payable": true
    },
    {
      "inputs": [],
      "name": "getFirstAirlineAddress",
      "outputs": [
        {
          "internalType": "address",
          "name": "",
          "type": "address"
        }
      ],
      "stateMutability": "view",
      "type": "function",
      "constant": true
    },
    {
      "inputs": [],
      "name": "kill",
      "outputs": [],
      "stateMutability": "nonpayable",
      "type": "function"
    },
    {
      "inputs": [],
      "name": "isOperational",
      "outputs": [
        {
          "internalType": "bool",
          "name": "",
          "type": "bool"
        }
      ],
      "stateMutability": "view",
      "type": "function",
      "constant": true
    },
    {
      "inputs": [
        {
          "internalType": "address",
          "name": "_caller",
          "type": "address"
        }
      ],
      "name": "authorizeCaller",
      "outputs": [],
      "stateMutability": "nonpayable",
      "type": "function"
    },
    {
      "inputs": [
        {
          "internalType": "address",
          "name": "_caller",
          "type": "address"
        }
      ],
      "name": "isAuthorized",
      "outputs": [
        {
          "internalType": "bool",
          "name": "",
          "type": "bool"
        }
      ],
      "stateMutability": "view",
      "type": "function",
      "constant": true
    },
    {
      "inputs": [
        {
          "internalType": "address",
          "name": "_caller",
          "type": "address"
        }
      ],
      "name": "deAuthorizeCaller",
      "outputs": [],
      "stateMutability": "nonpayable",
      "type": "function"
    },
    {
      "inputs": [
        {
          "internalType": "string",
          "name": "_name",
          "type": "string"
        },
        {
          "internalType": "address",
          "name": "_address",
          "type": "address"
        },
        {
          "internalType": "uint256",
          "name": "_aCounter",
          "type": "uint256"
        },
        {
          "internalType": "bool",
          "name": "_controller",
          "type": "bool"
        }
      ],
      "name": "registerAirline",
      "outputs": [],
      "stateMutability": "nonpayable",
      "type": "function"
    },
    {
      "inputs": [
        {
          "internalType": "address",
          "name": "_address",
          "type": "address"
        }
      ],
      "name": "fund",
      "outputs": [],
      "stateMutability": "payable",
      "type": "function",
      "payable": true
    },
    {
      "inputs": [
        {
          "internalType": "address",
          "name": "_passengerAddress",
          "type": "address"
        },
        {
          "internalType": "bytes32",
          "name": "_flightKey",
          "type": "bytes32"
        },
        {
          "internalType": "address",
          "name": "_airlineAddress",
          "type": "address"
        }
      ],
      "name": "buy",
      "outputs": [],
      "stateMutability": "payable",
      "type": "function",
      "payable": true
    },
    {
      "inputs": [
        {
          "internalType": "bytes32",
          "name": "_flightKey",
          "type": "bytes32"
        },
        {
          "internalType": "address",
          "name": "_airlineAddress",
          "type": "address"
        }
      ],
      "name": "creditInsurees",
      "outputs": [],
      "stateMutability": "nonpayable",
      "type": "function"
    },
    {
      "inputs": [
        {
          "internalType": "address",
          "name": "_passengerAddress",
          "type": "address"
        },
        {
          "internalType": "bytes32",
          "name": "_flightKey",
          "type": "bytes32"
        }
      ],
      "name": "pay",
      "outputs": [],
      "stateMutability": "payable",
      "type": "function",
      "payable": true
    },
    {
      "inputs": [
        {
          "internalType": "address",
          "name": "_airlineAddress",
          "type": "address"
        }
      ],
      "name": "checkAirlines",
      "outputs": [
        {
          "internalType": "string",
          "name": "name_",
          "type": "string"
        },
        {
          "internalType": "address",
          "name": "address_",
          "type": "address"
        },
        {
          "internalType": "bool",
          "name": "registered_",
          "type": "bool"
        },
        {
          "internalType": "bool",
          "name": "participant_",
          "type": "bool"
        },
        {
          "internalType": "bool",
          "name": "controller_",
          "type": "bool"
        },
        {
          "internalType": "uint256",
          "name": "fundavailable_",
          "type": "uint256"
        },
        {
          "internalType": "uint256",
          "name": "fundcommitted_",
          "type": "uint256"
        }
      ],
      "stateMutability": "view",
      "type": "function",
      "constant": true
    },
    {
      "inputs": [
        {
          "internalType": "uint256",
          "name": "_insuranceId",
          "type": "uint256"
        }
      ],
      "name": "checkInsurances",
      "outputs": [
        {
          "internalType": "bytes32",
          "name": "insuranceKey_",
          "type": "bytes32"
        },
        {
          "internalType": "bytes32",
          "name": "flightKey_",
          "type": "bytes32"
        },
        {
          "internalType": "address",
          "name": "passengerAddress_",
          "type": "address"
        },
        {
          "internalType": "uint256",
          "name": "amountPaid_",
          "type": "uint256"
        },
        {
          "internalType": "uint256",
          "name": "amountAvailable_",
          "type": "uint256"
        },
        {
          "internalType": "bool",
          "name": "claimable_",
          "type": "bool"
        },
        {
          "internalType": "bool",
          "name": "active_",
          "type": "bool"
        }
      ],
      "stateMutability": "view",
      "type": "function",
      "constant": true
    },
    {
      "inputs": [
        {
          "internalType": "address",
          "name": "_passengerAddress",
          "type": "address"
        }
      ],
      "name": "checkPassengerInsurances",
      "outputs": [
        {
          "internalType": "bytes32[]",
          "name": "",
          "type": "bytes32[]"
        }
      ],
      "stateMutability": "view",
      "type": "function",
      "constant": true
    },
    {
      "inputs": [
        {
          "internalType": "address",
          "name": "_passengerAddress",
          "type": "address"
        },
        {
          "internalType": "bytes32",
          "name": "_flightKey",
          "type": "bytes32"
        }
      ],
      "name": "checkInsuranceAmountPaid",
      "outputs": [
        {
          "internalType": "uint256",
          "name": "amountPaid_",
          "type": "uint256"
        }
      ],
      "stateMutability": "view",
      "type": "function",
      "constant": true
    }
  ],
  "bytecode": "0x60806040526001600060146101000a81548160ff02191690831515021790555073f258b0a25ee7d6f02a9a1118afdf77cac6d72784600360006101000a81548173ffffffffffffffffffffffffffffffffffffffff021916908373ffffffffffffffffffffffffffffffffffffffff1602179055506040518060400160405280600f81526020017f416972204e6577205a65616c616e64000000000000000000000000000000000081525060049080519060200190620000c19291906200036e565b50348015620000cf57600080fd5b50336000806101000a81548173ffffffffffffffffffffffffffffffffffffffff021916908373ffffffffffffffffffffffffffffffffffffffff160217905550604051806101000160405280600081526020016004805462000132906200044d565b80601f016020809104026020016040519081016040528092919081815260200182805462000160906200044d565b8015620001b15780601f106200018557610100808354040283529160200191620001b1565b820191906000526020600020905b8154815290600101906020018083116200019357829003601f168201915b50505050508152602001600360009054906101000a900473ffffffffffffffffffffffffffffffffffffffff1673ffffffffffffffffffffffffffffffffffffffff16815260200160011515815260200160001515815260200160011515815260200160008152602001600081525060026000600360009054906101000a900473ffffffffffffffffffffffffffffffffffffffff1673ffffffffffffffffffffffffffffffffffffffff1673ffffffffffffffffffffffffffffffffffffffff168152602001908152602001600020600082015181600001556020820151816001019080519060200190620002a99291906200036e565b5060408201518160020160006101000a81548173ffffffffffffffffffffffffffffffffffffffff021916908373ffffffffffffffffffffffffffffffffffffffff16021790555060608201518160020160146101000a81548160ff02191690831515021790555060808201518160020160156101000a81548160ff02191690831515021790555060a08201518160020160166101000a81548160ff02191690831515021790555060c0820151816003015560e0820151816004015590505062000483565b8280546200037c906200044d565b90600052602060002090601f016020900481019282620003a05760008555620003ec565b82601f10620003bb57805160ff1916838001178555620003ec565b82800160010185558215620003ec579182015b82811115620003eb578251825591602001919060010190620003ce565b5b509050620003fb9190620003ff565b5090565b5b808211156200041a57600081600090555060010162000400565b5090565b7f4e487b7100000000000000000000000000000000000000000000000000000000600052602260045260246000fd5b600060028204905060018216806200046657607f821691505b602082108114156200047d576200047c6200041e565b5b50919050565b612ec580620004936000396000f3fe6080604052600436106100f75760003560e01c8063b59828031161008a578063edeb6c3a11610059578063edeb6c3a14610300578063fe9fbb8014610343578063ff12976314610380578063ffc758e1146103bd576100fe565b8063b59828031461023e578063b85a9e6114610269578063cd905dff14610292578063e188ac98146102bd576100fe565b806341c0e1b5116100c657806341c0e1b5146101b257806346f8f304146101c957806348c17478146101e5578063b33d7ba514610222576100fe565b80631bcd250a1461010057806323024408146101295780632c388d5d14610145578063416847691461016e576100fe565b366100fe57005b005b34801561010c57600080fd5b5061012760048036038101906101229190612078565b6103e6565b005b610143600480360381019061013e9190612078565b6104cf565b005b34801561015157600080fd5b5061016c60048036038101906101679190612078565b6106f8565b005b34801561017a57600080fd5b5061019560048036038101906101909190612078565b6107e0565b6040516101a9989796959493929190612193565b60405180910390f35b3480156101be57600080fd5b506101c76108f7565b005b6101e360048036038101906101de919061224e565b610a14565b005b3480156101f157600080fd5b5061020c6004803603810190610207919061224e565b610ad3565b604051610219919061228e565b60405180910390f35b61023c600480360381019061023791906122a9565b610ba9565b005b34801561024a57600080fd5b50610253611090565b604051610260919061230b565b60405180910390f35b34801561027557600080fd5b50610290600480360381019061028b91906124b3565b6110ba565b005b34801561029e57600080fd5b506102a7611357565b6040516102b49190612536565b60405180910390f35b3480156102c957600080fd5b506102e460048036038101906102df9190612078565b61136d565b6040516102f79796959493929190612551565b60405180910390f35b34801561030c57600080fd5b50610327600480360381019061032291906125c7565b61171a565b60405161033a9796959493929190612603565b60405180910390f35b34801561034f57600080fd5b5061036a60048036038101906103659190612078565b61195a565b6040516103779190612536565b60405180910390f35b34801561038c57600080fd5b506103a760048036038101906103a29190612078565b6119b0565b6040516103b49190612730565b60405180910390f35b3480156103c957600080fd5b506103e460048036038101906103df9190612752565b611b29565b005b60008054906101000a900473ffffffffffffffffffffffffffffffffffffffff1673ffffffffffffffffffffffffffffffffffffffff163373ffffffffffffffffffffffffffffffffffffffff1614610474576040517f08c379a000000000000000000000000000000000000000000000000000000000815260040161046b906127de565b60405180910390fd5b6000600160008373ffffffffffffffffffffffffffffffffffffffff1673ffffffffffffffffffffffffffffffffffffffff16815260200190815260200160002060006101000a81548160ff02191690831515021790555050565b678ac7230489e800008034101561051b576040517f08c379a00000000000000000000000000000000000000000000000000000000081526004016105129061284a565b60405180910390fd5b678ac7230489e800003414610565576040517f08c379a000000000000000000000000000000000000000000000000000000000815260040161055c906128dc565b60405180910390fd5b600060149054906101000a900460ff166105b4576040517f08c379a00000000000000000000000000000000000000000000000000000000081526004016105ab9061296e565b60405180910390fd5b60008054906101000a900473ffffffffffffffffffffffffffffffffffffffff1673ffffffffffffffffffffffffffffffffffffffff166108fc349081150290604051600060405180830381858888f1935050505015801561061a573d6000803e3d6000fd5b506001600260008473ffffffffffffffffffffffffffffffffffffffff1673ffffffffffffffffffffffffffffffffffffffff16815260200190815260200160002060020160156101000a81548160ff02191690831515021790555034600260008473ffffffffffffffffffffffffffffffffffffffff1673ffffffffffffffffffffffffffffffffffffffff168152602001908152602001600020600301819055507f74fd33b93b98017671fda1e0c45b783f7e31895388503a3959006c338043daf5826040516106ec919061230b565b60405180910390a15050565b60008054906101000a900473ffffffffffffffffffffffffffffffffffffffff1673ffffffffffffffffffffffffffffffffffffffff163373ffffffffffffffffffffffffffffffffffffffff1614610786576040517f08c379a000000000000000000000000000000000000000000000000000000000815260040161077d906127de565b60405180910390fd5b60018060008373ffffffffffffffffffffffffffffffffffffffff1673ffffffffffffffffffffffffffffffffffffffff16815260200190815260200160002060006101000a81548160ff02191690831515021790555050565b6002602052806000526040600020600091509050806000015490806001018054610809906129bd565b80601f0160208091040260200160405190810160405280929190818152602001828054610835906129bd565b80156108825780601f1061085757610100808354040283529160200191610882565b820191906000526020600020905b81548152906001019060200180831161086557829003601f168201915b5050505050908060020160009054906101000a900473ffffffffffffffffffffffffffffffffffffffff16908060020160149054906101000a900460ff16908060020160159054906101000a900460ff16908060020160169054906101000a900460ff16908060030154908060040154905088565b60008054906101000a900473ffffffffffffffffffffffffffffffffffffffff1673ffffffffffffffffffffffffffffffffffffffff163373ffffffffffffffffffffffffffffffffffffffff1614610985576040517f08c379a000000000000000000000000000000000000000000000000000000000815260040161097c906127de565b60405180910390fd5b60008054906101000a900473ffffffffffffffffffffffffffffffffffffffff1673ffffffffffffffffffffffffffffffffffffffff163373ffffffffffffffffffffffffffffffffffffffff161415610a125760008054906101000a900473ffffffffffffffffffffffffffffffffffffffff1673ffffffffffffffffffffffffffffffffffffffff16ff5b565b600060149054906101000a900460ff16610a63576040517f08c379a0000000000000000000000000000000000000000000000000000000008152600401610a5a9061296e565b60405180910390fd5b6000610a6f8383611eb6565b90508273ffffffffffffffffffffffffffffffffffffffff166108fc60056000848152602001908152602001600020600401549081150290604051600060405180830381858888f19350505050158015610acd573d6000803e3d6000fd5b50505050565b60008060149054906101000a900460ff16610b23576040517f08c379a0000000000000000000000000000000000000000000000000000000008152600401610b1a9061296e565b60405180910390fd5b6000610b2f8484611eb6565b905082600560008381526020019081526020016000206001015414610b89576040517f08c379a0000000000000000000000000000000000000000000000000000000008152600401610b8090612a3b565b60405180910390fd5b600560008281526020019081526020016000206003015491505092915050565b633b9aca003410158015610bc55750670de0b6b3a76400003411155b610c04576040517f08c379a0000000000000000000000000000000000000000000000000000000008152600401610bfb90612acd565b60405180910390fd5b60011515600160003373ffffffffffffffffffffffffffffffffffffffff1673ffffffffffffffffffffffffffffffffffffffff16815260200190815260200160002060009054906101000a900460ff16151514610c97576040517f08c379a0000000000000000000000000000000000000000000000000000000008152600401610c8e90612b39565b60405180910390fd5b600060149054906101000a900460ff16610ce6576040517f08c379a0000000000000000000000000000000000000000000000000000000008152600401610cdd9061296e565b60405180910390fd5b6000610cf28484611eb6565b90508260056000838152602001908152602001600020600101541415610d4d576040517f08c379a0000000000000000000000000000000000000000000000000000000008152600401610d4490612bcb565b60405180910390fd5b60008054906101000a900473ffffffffffffffffffffffffffffffffffffffff1673ffffffffffffffffffffffffffffffffffffffff166108fc349081150290604051600060405180830381858888f19350505050158015610db3573d6000803e3d6000fd5b5060096000815480929190610dc790612c1a565b91905055506040518060e0016040528060095481526020018481526020018573ffffffffffffffffffffffffffffffffffffffff168152602001348152602001600081526020016000151581526020016001151581525060056000838152602001908152602001600020600082015181600001556020820151816001015560408201518160020160006101000a81548173ffffffffffffffffffffffffffffffffffffffff021916908373ffffffffffffffffffffffffffffffffffffffff160217905550606082015181600301556080820151816004015560a08201518160050160006101000a81548160ff02191690831515021790555060c08201518160050160016101000a81548160ff0219169083151502179055509050508060066000600954815260200190815260200160002081905550600760008573ffffffffffffffffffffffffffffffffffffffff1673ffffffffffffffffffffffffffffffffffffffff16815260200190815260200160002081908060018154018082558091505060019003906000526020600020016000909190919091505560086000848152602001908152602001600020819080600181540180825580915050600190039060005260206000200160009091909190915055610fe9600260008473ffffffffffffffffffffffffffffffffffffffff1673ffffffffffffffffffffffffffffffffffffffff1681526020019081526020016000206003015434611f0b565b600260008473ffffffffffffffffffffffffffffffffffffffff1673ffffffffffffffffffffffffffffffffffffffff1681526020019081526020016000206003018190555061104461103d34600f611f21565b600a611f37565b600260008473ffffffffffffffffffffffffffffffffffffffff1673ffffffffffffffffffffffffffffffffffffffff1681526020019081526020016000206004018190555050505050565b6000600360009054906101000a900473ffffffffffffffffffffffffffffffffffffffff16905090565b60011515600160003373ffffffffffffffffffffffffffffffffffffffff1673ffffffffffffffffffffffffffffffffffffffff16815260200190815260200160002060009054906101000a900460ff1615151461114d576040517f08c379a000000000000000000000000000000000000000000000000000000000815260040161114490612b39565b60405180910390fd5b600060149054906101000a900460ff1661119c576040517f08c379a00000000000000000000000000000000000000000000000000000000081526004016111939061296e565b60405180910390fd5b6040518061010001604052808381526020018581526020018473ffffffffffffffffffffffffffffffffffffffff1681526020016001151581526020016000151581526020018215158152602001600081526020016000815250600260008573ffffffffffffffffffffffffffffffffffffffff1673ffffffffffffffffffffffffffffffffffffffff16815260200190815260200160002060008201518160000155602082015181600101908051906020019061125b929190611f63565b5060408201518160020160006101000a81548173ffffffffffffffffffffffffffffffffffffffff021916908373ffffffffffffffffffffffffffffffffffffffff16021790555060608201518160020160146101000a81548160ff02191690831515021790555060808201518160020160156101000a81548160ff02191690831515021790555060a08201518160020160166101000a81548160ff02191690831515021790555060c0820151816003015560e082015181600401559050507f478f5152d8fc568db3f8de9fb402fd9d98a1a7541ecfe434e59cf574fbfc552483604051611349919061230b565b60405180910390a150505050565b60008060149054906101000a900460ff16905090565b606060008060008060008060011515600160003373ffffffffffffffffffffffffffffffffffffffff1673ffffffffffffffffffffffffffffffffffffffff16815260200190815260200160002060009054906101000a900460ff1615151461140b576040517f08c379a000000000000000000000000000000000000000000000000000000000815260040161140290612b39565b60405180910390fd5b600060149054906101000a900460ff1661145a576040517f08c379a00000000000000000000000000000000000000000000000000000000081526004016114519061296e565b60405180910390fd5b600260008973ffffffffffffffffffffffffffffffffffffffff1673ffffffffffffffffffffffffffffffffffffffff168152602001908152602001600020600101600260008a73ffffffffffffffffffffffffffffffffffffffff1673ffffffffffffffffffffffffffffffffffffffff16815260200190815260200160002060020160009054906101000a900473ffffffffffffffffffffffffffffffffffffffff16600260008b73ffffffffffffffffffffffffffffffffffffffff1673ffffffffffffffffffffffffffffffffffffffff16815260200190815260200160002060020160149054906101000a900460ff16600260008c73ffffffffffffffffffffffffffffffffffffffff1673ffffffffffffffffffffffffffffffffffffffff16815260200190815260200160002060020160159054906101000a900460ff16600260008d73ffffffffffffffffffffffffffffffffffffffff1673ffffffffffffffffffffffffffffffffffffffff16815260200190815260200160002060020160169054906101000a900460ff16600260008e73ffffffffffffffffffffffffffffffffffffffff1673ffffffffffffffffffffffffffffffffffffffff16815260200190815260200160002060030154600260008f73ffffffffffffffffffffffffffffffffffffffff1673ffffffffffffffffffffffffffffffffffffffff16815260200190815260200160002060040154868054611681906129bd565b80601f01602080910402602001604051908101604052809291908181526020018280546116ad906129bd565b80156116fa5780601f106116cf576101008083540402835291602001916116fa565b820191906000526020600020905b8154815290600101906020018083116116dd57829003601f168201915b505050505096509650965096509650965096509650919395979092949650565b600080600080600080600060011515600160003373ffffffffffffffffffffffffffffffffffffffff1673ffffffffffffffffffffffffffffffffffffffff16815260200190815260200160002060009054906101000a900460ff161515146117b8576040517f08c379a00000000000000000000000000000000000000000000000000000000081526004016117af90612b39565b60405180910390fd5b600060149054906101000a900460ff16611807576040517f08c379a00000000000000000000000000000000000000000000000000000000081526004016117fe9061296e565b60405180910390fd5b6000600660008a81526020019081526020016000205490506000801b6005600083815260200190815260200160002060010154141561187b576040517f08c379a000000000000000000000000000000000000000000000000000000000815260040161187290612a3b565b60405180910390fd5b8060056000838152602001908152602001600020600101546005600084815260200190815260200160002060020160009054906101000a900473ffffffffffffffffffffffffffffffffffffffff16600560008581526020019081526020016000206003015460056000868152602001908152602001600020600401546005600087815260200190815260200160002060050160009054906101000a900460ff166005600088815260200190815260200160002060050160019054906101000a900460ff16975097509750975097509750975050919395979092949650565b6000600160008373ffffffffffffffffffffffffffffffffffffffff1673ffffffffffffffffffffffffffffffffffffffff16815260200190815260200160002060009054906101000a900460ff169050919050565b606060011515600160003373ffffffffffffffffffffffffffffffffffffffff1673ffffffffffffffffffffffffffffffffffffffff16815260200190815260200160002060009054906101000a900460ff16151514611a45576040517f08c379a0000000000000000000000000000000000000000000000000000000008152600401611a3c90612b39565b60405180910390fd5b600060149054906101000a900460ff16611a94576040517f08c379a0000000000000000000000000000000000000000000000000000000008152600401611a8b9061296e565b60405180910390fd5b600760008373ffffffffffffffffffffffffffffffffffffffff1673ffffffffffffffffffffffffffffffffffffffff168152602001908152602001600020805480602002602001604051908101604052809291908181526020018280548015611b1d57602002820191906000526020600020905b815481526020019060010190808311611b09575b50505050509050919050565b60011515600160003373ffffffffffffffffffffffffffffffffffffffff1673ffffffffffffffffffffffffffffffffffffffff16815260200190815260200160002060009054906101000a900460ff16151514611bbc576040517f08c379a0000000000000000000000000000000000000000000000000000000008152600401611bb390612b39565b60405180910390fd5b600060149054906101000a900460ff16611c0b576040517f08c379a0000000000000000000000000000000000000000000000000000000008152600401611c029061296e565b60405180910390fd5b6000600860008481526020019081526020016000208054905011611c64576040517f08c379a0000000000000000000000000000000000000000000000000000000008152600401611c5b90612a3b565b60405180910390fd5b60005b6008600084815260200190815260200160002080549050811015611eb1576000600860008581526020019081526020016000208281548110611cac57611cab612c63565b5b906000526020600020015490506005600082815260200190815260200160002060050160009054906101000a900460ff16611d1c576040517f08c379a0000000000000000000000000000000000000000000000000000000008152600401611d1390612cde565b60405180910390fd5b6000600560008381526020019081526020016000206003015490506000611d4e611d4783600f611f21565b600a611f37565b90506000600260008773ffffffffffffffffffffffffffffffffffffffff1673ffffffffffffffffffffffffffffffffffffffff1681526020019081526020016000206003015490506000600260008873ffffffffffffffffffffffffffffffffffffffff1673ffffffffffffffffffffffffffffffffffffffff168152602001908152602001600020600401549050826005600087815260200190815260200160002060040181905550611e038284611f4d565b600260008973ffffffffffffffffffffffffffffffffffffffff1673ffffffffffffffffffffffffffffffffffffffff16815260200190815260200160002060030181905550611e538184611f4d565b600260008973ffffffffffffffffffffffffffffffffffffffff1673ffffffffffffffffffffffffffffffffffffffff1681526020019081526020016000206004018190555050505050508080611ea990612c1a565b915050611c67565b505050565b60008060608473ffffffffffffffffffffffffffffffffffffffff16901b60001b90508083604051602001611eec929190612d1f565b6040516020818303038152906040528051906020012091505092915050565b60008183611f199190612d4b565b905092915050565b60008183611f2f9190612da1565b905092915050565b60008183611f459190612e2a565b905092915050565b60008183611f5b9190612e5b565b905092915050565b828054611f6f906129bd565b90600052602060002090601f016020900481019282611f915760008555611fd8565b82601f10611faa57805160ff1916838001178555611fd8565b82800160010185558215611fd8579182015b82811115611fd7578251825591602001919060010190611fbc565b5b509050611fe59190611fe9565b5090565b5b80821115612002576000816000905550600101611fea565b5090565b6000604051905090565b600080fd5b600080fd5b600073ffffffffffffffffffffffffffffffffffffffff82169050919050565b60006120458261201a565b9050919050565b6120558161203a565b811461206057600080fd5b50565b6000813590506120728161204c565b92915050565b60006020828403121561208e5761208d612010565b5b600061209c84828501612063565b91505092915050565b6000819050919050565b6120b8816120a5565b82525050565b600081519050919050565b600082825260208201905092915050565b60005b838110156120f85780820151818401526020810190506120dd565b83811115612107576000848401525b50505050565b6000601f19601f8301169050919050565b6000612129826120be565b61213381856120c9565b93506121438185602086016120da565b61214c8161210d565b840191505092915050565b60006121628261201a565b9050919050565b61217281612157565b82525050565b60008115159050919050565b61218d81612178565b82525050565b6000610100820190506121a9600083018b6120af565b81810360208301526121bb818a61211e565b90506121ca6040830189612169565b6121d76060830188612184565b6121e46080830187612184565b6121f160a0830186612184565b6121fe60c08301856120af565b61220b60e08301846120af565b9998505050505050505050565b6000819050919050565b61222b81612218565b811461223657600080fd5b50565b60008135905061224881612222565b92915050565b6000806040838503121561226557612264612010565b5b600061227385828601612063565b925050602061228485828601612239565b9150509250929050565b60006020820190506122a360008301846120af565b92915050565b6000806000606084860312156122c2576122c1612010565b5b60006122d086828701612063565b93505060206122e186828701612239565b92505060406122f286828701612063565b9150509250925092565b6123058161203a565b82525050565b600060208201905061232060008301846122fc565b92915050565b600080fd5b600080fd5b7f4e487b7100000000000000000000000000000000000000000000000000000000600052604160045260246000fd5b6123688261210d565b810181811067ffffffffffffffff8211171561238757612386612330565b5b80604052505050565b600061239a612006565b90506123a6828261235f565b919050565b600067ffffffffffffffff8211156123c6576123c5612330565b5b6123cf8261210d565b9050602081019050919050565b82818337600083830152505050565b60006123fe6123f9846123ab565b612390565b90508281526020810184848401111561241a5761241961232b565b5b6124258482856123dc565b509392505050565b600082601f83011261244257612441612326565b5b81356124528482602086016123eb565b91505092915050565b612464816120a5565b811461246f57600080fd5b50565b6000813590506124818161245b565b92915050565b61249081612178565b811461249b57600080fd5b50565b6000813590506124ad81612487565b92915050565b600080600080608085870312156124cd576124cc612010565b5b600085013567ffffffffffffffff8111156124eb576124ea612015565b5b6124f78782880161242d565b945050602061250887828801612063565b935050604061251987828801612472565b925050606061252a8782880161249e565b91505092959194509250565b600060208201905061254b6000830184612184565b92915050565b600060e082019050818103600083015261256b818a61211e565b905061257a60208301896122fc565b6125876040830188612184565b6125946060830187612184565b6125a16080830186612184565b6125ae60a08301856120af565b6125bb60c08301846120af565b98975050505050505050565b6000602082840312156125dd576125dc612010565b5b60006125eb84828501612472565b91505092915050565b6125fd81612218565b82525050565b600060e082019050612618600083018a6125f4565b61262560208301896125f4565b61263260408301886122fc565b61263f60608301876120af565b61264c60808301866120af565b61265960a0830185612184565b61266660c0830184612184565b98975050505050505050565b600081519050919050565b600082825260208201905092915050565b6000819050602082019050919050565b6126a781612218565b82525050565b60006126b9838361269e565b60208301905092915050565b6000602082019050919050565b60006126dd82612672565b6126e7818561267d565b93506126f28361268e565b8060005b8381101561272357815161270a88826126ad565b9750612715836126c5565b9250506001810190506126f6565b5085935050505092915050565b6000602082019050818103600083015261274a81846126d2565b905092915050565b6000806040838503121561276957612768612010565b5b600061277785828601612239565b925050602061278885828601612063565b9150509250929050565b7f43414c4c4552204953204e4f5420434f4e5452414354204f574e455200000000600082015250565b60006127c8601c836120c9565b91506127d382612792565b602082019050919050565b600060208201905081810360008301526127f7816127bb565b9050919050565b7f414d4f554e54204953204e4f5420454e4f554748540000000000000000000000600082015250565b60006128346015836120c9565b915061283f826127fe565b602082019050919050565b6000602082019050818103600083015261286381612827565b9050919050565b7f4149524c494e45204d555354205452414e534645522045584143544c5920313060008201527f2045544845525300000000000000000000000000000000000000000000000000602082015250565b60006128c66027836120c9565b91506128d18261286a565b604082019050919050565b600060208201905081810360008301526128f5816128b9565b9050919050565b7f434f4e54524143542049532043555252454e544c59204e4f54204f504552415460008201527f494f4e414c000000000000000000000000000000000000000000000000000000602082015250565b60006129586025836120c9565b9150612963826128fc565b604082019050919050565b600060208201905081810360008301526129878161294b565b9050919050565b7f4e487b7100000000000000000000000000000000000000000000000000000000600052602260045260246000fd5b600060028204905060018216806129d557607f821691505b602082108114156129e9576129e861298e565b5b50919050565b7f4552524f523a20494e535552414e4345204e4f5420464f554e44000000000000600082015250565b6000612a25601a836120c9565b9150612a30826129ef565b602082019050919050565b60006020820190508181036000830152612a5481612a18565b9050919050565b7f43414c4c4552204d555354205350454e44204245545745454e2031204757454960008201527f20414e4420312045544845520000000000000000000000000000000000000000602082015250565b6000612ab7602c836120c9565b9150612ac282612a5b565b604082019050919050565b60006020820190508181036000830152612ae681612aaa565b9050919050565b7f43616c6c6572206973206e6f7420617574686f72697a65640000000000000000600082015250565b6000612b236018836120c9565b9150612b2e82612aed565b602082019050919050565b60006020820190508181036000830152612b5281612b16565b9050919050565b7f4552524f523a2050415353454e47455220414c524541445920424f554748542060008201527f5448495320464c4947485420494e535552414e43450000000000000000000000602082015250565b6000612bb56035836120c9565b9150612bc082612b59565b604082019050919050565b60006020820190508181036000830152612be481612ba8565b9050919050565b7f4e487b7100000000000000000000000000000000000000000000000000000000600052601160045260246000fd5b6000612c25826120a5565b91507fffffffffffffffffffffffffffffffffffffffffffffffffffffffffffffffff821415612c5857612c57612beb565b5b600182019050919050565b7f4e487b7100000000000000000000000000000000000000000000000000000000600052603260045260246000fd5b7f4552524f523a204e4f5448494e4720544f20434c41494d000000000000000000600082015250565b6000612cc86017836120c9565b9150612cd382612c92565b602082019050919050565b60006020820190508181036000830152612cf781612cbb565b9050919050565b6000819050919050565b612d19612d1482612218565b612cfe565b82525050565b6000612d2b8285612d08565b602082019150612d3b8284612d08565b6020820191508190509392505050565b6000612d56826120a5565b9150612d61836120a5565b9250827fffffffffffffffffffffffffffffffffffffffffffffffffffffffffffffffff03821115612d9657612d95612beb565b5b828201905092915050565b6000612dac826120a5565b9150612db7836120a5565b9250817fffffffffffffffffffffffffffffffffffffffffffffffffffffffffffffffff0483118215151615612df057612def612beb565b5b828202905092915050565b7f4e487b7100000000000000000000000000000000000000000000000000000000600052601260045260246000fd5b6000612e35826120a5565b9150612e40836120a5565b925082612e5057612e4f612dfb565b5b828204905092915050565b6000612e66826120a5565b9150612e71836120a5565b925082821015612e8457612e83612beb565b5b82820390509291505056fea2646970667358221220764a64c16ddf1854a09c0c55936eb06ca05eb467ca7cf87f140764e21f033a2164736f6c634300080b0033",
  "immutableReferences": {},
  "source": "// SPDX-License-Identifier: MIT\npragma solidity ^0.8.0;\n\nimport \"@openzeppelin/contracts/utils/math/SafeMath.sol\";\n\ncontract FlightSuretyData {\n\n    address payable contractOwner;              // ACCOUNT USED TO DEPLOY CONTRACT\n    bool private operational = true;            // BLOCKS ALL STATE CHANGES THROUGHOUT THE CONTRACT IF FALSE\n\n    mapping(address => bool) AuthorizedCallers; //AUTHORIZED CALLERS \n    \n    using SafeMath for uint256;                 //LIBRARY USED TO EXECUTE MATH OPERATIONS\n\n\n    /********************************************************************************************/\n    /*                                      AIRLINE VARIABLES                                   */\n    /********************************************************************************************/\n    struct Airline {\n        uint            airlineId;\n        string          airlineName;\n        address payable airlineAddress;\n        bool            registered;\n        bool            participant;\n        bool            controller;\n        uint            fundAvailable;\n        uint            fundCommitted;\n    }\n    mapping(address => Airline) public airlines;\n\n    address _firstAirlineAddress = 0xF258b0a25eE7D6f02a9a1118afdF77CaC6D72784;\n    string _firstName = \"Air New Zealand\";\n\n\n    /********************************************************************************************/\n    /*                                  INSURANCE VARIABLES                                     */\n    /********************************************************************************************/\n    struct Insurance {\n        uint            insuranceId;\n        bytes32         flightKey;\n        address payable passengerAddress;\n        uint            amountPaid;\n        uint            amountAvailable;\n        bool            claimable;\n        bool            active;\n    }\n    mapping(bytes32 => Insurance) insurances;\n    mapping(uint => bytes32) insurancesReverse;\n    mapping(address => bytes32[]) passengerInsurances;\n    mapping(bytes32 => bytes32[]) flightInsurances;\n    uint iCounter;\n\n\n    /********************************************************************************************/\n    /*                                       EVENT DEFINITIONS                                  */\n    /********************************************************************************************/\n    event Registration(address);\n    event Candidate(address);\n    event Funding(address);\n    event Acquisition(address);\n    event Payment(address);\n\n\n    /********************************************************************************************/\n    /*                                       FUNCTION MODIFIERS                                 */\n    /********************************************************************************************/\n    modifier requireIsOperational() {\n        require(operational, \"CONTRACT IS CURRENTLY NOT OPERATIONAL\");\n        _;\n    }\n\n    modifier verifyCaller(address _address) {\n        require(msg.sender == _address, \"CALLER IS NOT ALLOWED TO EXECUTE FUNCTION\"); \n        _;\n    }\n\n    modifier requireContractOwner() {\n        require(msg.sender == contractOwner, \"CALLER IS NOT CONTRACT OWNER\");\n        _;\n    }\n\n    modifier requireAuthorizedCaller(){\n        require(AuthorizedCallers[msg.sender] == true, \"Caller is not authorized\");\n        _;\n    }\n\n    modifier paidEnough(uint _price) { \n        require(msg.value >= _price, \"AMOUNT IS NOT ENOUGHT\"); \n        _;\n    }\n  \n    modifier checkParticipantValue() {\n        require(msg.value == 10 ether, \"AIRLINE MUST TRANSFER EXACTLY 10 ETHERS\");\n        _;\n    }\n\n    modifier checkPassengerValue() {\n        require(msg.value >= 1 gwei && msg.value <= 1 ether, \"CALLER MUST SPEND BETWEEN 1 GWEI AND 1 ETHER\");\n        _;\n    }\n\n\n    /********************************************************************************************/\n    /*                                       CONSTRUCTOR DEFINITION                             */\n    /********************************************************************************************/    \n    /* The deploying account becomes contractOwner */\n    constructor() {\n        contractOwner = payable(msg.sender);\n        airlines[_firstAirlineAddress] = Airline(\n            {\n                airlineId: 0,\n                airlineName: _firstName,\n                airlineAddress: payable(_firstAirlineAddress),\n                registered: true,\n                participant: false,\n                controller: true,\n                fundAvailable: 0,\n                fundCommitted: 0\n            });\n\n    }\n\n    function getFirstAirlineAddress() external view returns(address){\n        return _firstAirlineAddress;\n    }\n\n\n    /********************************************************************************************/\n    /*                                       UTILITY FUNCTIONS                                  */\n    /********************************************************************************************/\n    function kill() public requireContractOwner() {\n        if (msg.sender == contractOwner) {\n            selfdestruct(contractOwner);\n        }\n    }\n\n    function isOperational() external view returns(bool) {\n        return operational;\n    }\n\n    function authorizeCaller(address _caller) public requireContractOwner {\n        AuthorizedCallers[_caller] = true;\n    }\n\n    function isAuthorized(address _caller) public view returns(bool) {\n        return AuthorizedCallers[_caller];\n    }\n\n    function deAuthorizeCaller(address _caller) public requireContractOwner {\n        AuthorizedCallers[_caller] = false;\n    }\n\n\n    /********************************************************************************************/\n    /*                       SMART CONTRACT REGISTER AIRLINES FUNCTIONS                         */\n    /********************************************************************************************/\n    function registerAirline(string memory _name, address _address, uint _aCounter, bool _controller) external requireAuthorizedCaller() requireIsOperational() {\n        airlines[_address] = Airline(\n            {\n                airlineId: _aCounter,\n                airlineName: _name,\n                airlineAddress: payable(_address),                    \n                registered: true,\n                participant: false,\n                controller: _controller,\n                fundAvailable: 0,\n                fundCommitted: 0\n            }\n        );\n            \n        emit Registration(_address);\n        \n    }\n\n\n    /********************************************************************************************/\n    /*                          SMART CONTRACT PARTICIPANT FUNCTIONS                            */\n    /********************************************************************************************/\n    function fund(address _address) external payable paidEnough(10 ether) checkParticipantValue() requireIsOperational() {\n        contractOwner.transfer(msg.value);\n\n        airlines[_address].participant = true;\n        airlines[_address].fundAvailable = msg.value;\n    \n        emit Funding(_address);\n    }\n\n\n    /********************************************************************************************/\n    /*                                  KEYS GENEARTOR FUNCTIONS                                */\n    /********************************************************************************************/\n    function getInsuranceKey(address _passengerAddress, bytes32 _flightKey) pure internal returns(bytes32) {\n        bytes32 _addressToBytes32 = bytes32(uint256(uint160(_passengerAddress)) << 96);\n        return keccak256(abi.encodePacked(_addressToBytes32, _flightKey));\n        //return keccak256(abi.encodePacked(_passengerAddress, _flightKey));\n    }\n\n\n    /********************************************************************************************/\n    /*                              SMART CONTRACT BUYING FUNCTIONS                             */\n    /********************************************************************************************/\n    function buy(address _passengerAddress, bytes32 _flightKey, address _airlineAddress) external payable \n    checkPassengerValue() requireAuthorizedCaller() requireIsOperational() {        \n        \n        bytes32 _insuranceKey = getInsuranceKey(_passengerAddress, _flightKey);\n        \n        require(insurances[_insuranceKey].flightKey != _flightKey, \"ERROR: PASSENGER ALREADY BOUGHT THIS FLIGHT INSURANCE\");\n        contractOwner.transfer(msg.value);\n        \n        iCounter ++;\n        insurances[_insuranceKey] = Insurance(\n            {\n                insuranceId: iCounter,\n                flightKey: _flightKey,\n                passengerAddress: payable(_passengerAddress),\n                amountPaid: msg.value,\n                amountAvailable: 0,\n                claimable: false,\n                active: true\n            }\n        );\n        insurancesReverse[iCounter] = _insuranceKey;\n        passengerInsurances[_passengerAddress].push(_insuranceKey);\n        flightInsurances[_flightKey].push(_insuranceKey);\n\n        airlines[_airlineAddress].fundAvailable = SafeMath.add(airlines[_airlineAddress].fundAvailable, msg.value);\n        airlines[_airlineAddress].fundCommitted = SafeMath.div(SafeMath.mul(msg.value, 15), 10);\n    }\n\n    function creditInsurees(bytes32 _flightKey, address _airlineAddress) \n    external requireAuthorizedCaller() requireIsOperational() {\n        require(flightInsurances[_flightKey].length > 0, \"ERROR: INSURANCE NOT FOUND\");\n\n        for(uint c = 0; c < flightInsurances[_flightKey].length; c++) {\n            bytes32 _insuranceKey = flightInsurances[_flightKey][c];\n            require(insurances[_insuranceKey].claimable, \"ERROR: NOTHING TO CLAIM\");\n\n            uint _amountPaid = insurances[_insuranceKey].amountPaid;\n            uint _amountToCredit = SafeMath.div(SafeMath.mul(_amountPaid, 15), 10);\n\n            uint _fundAvailable = airlines[_airlineAddress].fundAvailable;\n            uint _fundCommitted = airlines[_airlineAddress].fundCommitted;\n\n            insurances[_insuranceKey].amountAvailable = _amountToCredit;\n\n            airlines[_airlineAddress].fundAvailable = SafeMath.sub(_fundAvailable, _amountToCredit);\n            airlines[_airlineAddress].fundCommitted = SafeMath.sub(_fundCommitted, _amountToCredit);\n        }\n    }\n    \n\n    /**\n     *  @dev Transfers eligible payout funds to insuree\n     *\n    */\n    function pay(address _passengerAddress, bytes32 _flightKey) public payable requireIsOperational() {\n        bytes32 _insuranceKey = getInsuranceKey(_passengerAddress, _flightKey);\n        payable(_passengerAddress).transfer(insurances[_insuranceKey].amountAvailable);\n    }\n\n   /**\n    * @dev Initial funding for the insurance. Unless there are too many delayed flights\n    *      resulting in insurance payouts, the contract should be self-sustaining\n    *\n    */\n\n    /**\n    * @dev Fallback function for funding smart contract.\n    *\n    */\n    fallback() external payable {\n    }\n    \n    receive() external payable {\n    }\n\n\n    /********************************************************************************************/\n    /*                               SMART CONTRACT CHECK FUNCTIONS                             */\n    /********************************************************************************************/\n    function checkAirlines(address _airlineAddress) external view requireAuthorizedCaller() requireIsOperational()\n        returns(string memory name_, address address_, bool registered_, bool participant_, bool controller_, uint fundavailable_, uint fundcommitted_)  \n    {\n        \n        return(airlines[_airlineAddress].airlineName\n            , airlines[_airlineAddress].airlineAddress\n            , airlines[_airlineAddress].registered\n            , airlines[_airlineAddress].participant\n            , airlines[_airlineAddress].controller\n            , airlines[_airlineAddress].fundAvailable\n            , airlines[_airlineAddress].fundCommitted\n        );\n    \n    }\n    \n    function checkInsurances(uint _insuranceId) external view requireAuthorizedCaller() requireIsOperational()\n        returns(bytes32 insuranceKey_, bytes32 flightKey_, address passengerAddress_, uint amountPaid_, uint amountAvailable_, bool claimable_, bool active_) \n    {\n        bytes32 _insuranceKey = insurancesReverse[_insuranceId];\n        require(insurances[_insuranceKey].flightKey != 0, \"ERROR: INSURANCE NOT FOUND\");\n        return(_insuranceKey\n            , insurances[_insuranceKey].flightKey\n            , insurances[_insuranceKey].passengerAddress\n            , insurances[_insuranceKey].amountPaid\n            , insurances[_insuranceKey].amountAvailable\n            , insurances[_insuranceKey].claimable\n            , insurances[_insuranceKey].active\n        );\n    }\n\n    function checkPassengerInsurances(address _passengerAddress) external view requireAuthorizedCaller() requireIsOperational() returns(bytes32[] memory) {\n        return passengerInsurances[_passengerAddress];\n    }\n\n    function checkInsuranceAmountPaid(address _passengerAddress, bytes32 _flightKey) external view requireIsOperational() returns(uint amountPaid_) {\n        bytes32 _insuranceKey = getInsuranceKey(_passengerAddress, _flightKey);\n        require(insurances[_insuranceKey].flightKey == _flightKey, \"ERROR: INSURANCE NOT FOUND\");\n        return insurances[_insuranceKey].amountPaid;\n    }\n\n}",
  "sourcePath": "/Users/fernandomaximof/Documents/udacity-projects/project4/contracts/FlightSuretyData.sol",
  "compiler": {
    "name": "solc",
    "version": "0.8.11+commit.d7f03943.Emscripten.clang"
  },
  "schemaVersion": "3.4.3",
  "updatedAt": "2022-02-03T09:52:07.033Z",
  "networkType": "ethereum",
  "devdoc": {
    "kind": "dev",
    "methods": {
      "pay(address,bytes32)": {
        "details": "Transfers eligible payout funds to insuree"
      }
    },
    "version": 1
  },
  "userdoc": {
    "kind": "user",
    "methods": {},
    "version": 1
  }
}