{
  "contractName": "FlightSuretyData",
  "abi": [
    {
      "inputs": [],
      "stateMutability": "nonpayable",
      "type": "constructor"
    },
    {
      "anonymous": false,
      "inputs": [
        {
          "indexed": false,
          "internalType": "address",
          "name": "",
          "type": "address"
        }
      ],
      "name": "Acquisition",
      "type": "event"
    },
    {
      "anonymous": false,
      "inputs": [
        {
          "indexed": false,
          "internalType": "address",
          "name": "",
          "type": "address"
        }
      ],
      "name": "Candidate",
      "type": "event"
    },
    {
      "anonymous": false,
      "inputs": [
        {
          "indexed": false,
          "internalType": "address",
          "name": "",
          "type": "address"
        }
      ],
      "name": "Funding",
      "type": "event"
    },
    {
      "anonymous": false,
      "inputs": [
        {
          "indexed": false,
          "internalType": "address",
          "name": "",
          "type": "address"
        }
      ],
      "name": "Payment",
      "type": "event"
    },
    {
      "anonymous": false,
      "inputs": [
        {
          "indexed": false,
          "internalType": "address",
          "name": "",
          "type": "address"
        }
      ],
      "name": "Registration",
      "type": "event"
    },
    {
      "stateMutability": "payable",
      "type": "fallback",
      "payable": true
    },
    {
      "inputs": [
        {
          "internalType": "address",
          "name": "",
          "type": "address"
        }
      ],
      "name": "airlines",
      "outputs": [
        {
          "internalType": "uint256",
          "name": "airlineId",
          "type": "uint256"
        },
        {
          "internalType": "string",
          "name": "airlineName",
          "type": "string"
        },
        {
          "internalType": "address payable",
          "name": "airlineAddress",
          "type": "address"
        },
        {
          "internalType": "bool",
          "name": "registered",
          "type": "bool"
        },
        {
          "internalType": "bool",
          "name": "participant",
          "type": "bool"
        },
        {
          "internalType": "bool",
          "name": "controller",
          "type": "bool"
        },
        {
          "internalType": "uint256",
          "name": "fundAvailable",
          "type": "uint256"
        },
        {
          "internalType": "uint256",
          "name": "fundCommitted",
          "type": "uint256"
        }
      ],
      "stateMutability": "view",
      "type": "function",
      "constant": true
    },
    {
      "stateMutability": "payable",
      "type": "receive",
      "payable": true
    },
    {
      "inputs": [],
      "name": "getFirstAirlineAddress",
      "outputs": [
        {
          "internalType": "address",
          "name": "",
          "type": "address"
        }
      ],
      "stateMutability": "view",
      "type": "function",
      "constant": true
    },
    {
      "inputs": [],
      "name": "kill",
      "outputs": [],
      "stateMutability": "nonpayable",
      "type": "function"
    },
    {
      "inputs": [],
      "name": "isOperational",
      "outputs": [
        {
          "internalType": "bool",
          "name": "",
          "type": "bool"
        }
      ],
      "stateMutability": "view",
      "type": "function",
      "constant": true
    },
    {
      "inputs": [
        {
          "internalType": "address",
          "name": "_caller",
          "type": "address"
        }
      ],
      "name": "authorizeCaller",
      "outputs": [],
      "stateMutability": "nonpayable",
      "type": "function"
    },
    {
      "inputs": [
        {
          "internalType": "address",
          "name": "_caller",
          "type": "address"
        }
      ],
      "name": "isAuthorized",
      "outputs": [
        {
          "internalType": "bool",
          "name": "",
          "type": "bool"
        }
      ],
      "stateMutability": "view",
      "type": "function",
      "constant": true
    },
    {
      "inputs": [
        {
          "internalType": "address",
          "name": "_caller",
          "type": "address"
        }
      ],
      "name": "deAuthorizeCaller",
      "outputs": [],
      "stateMutability": "nonpayable",
      "type": "function"
    },
    {
      "inputs": [
        {
          "internalType": "string",
          "name": "_name",
          "type": "string"
        },
        {
          "internalType": "address",
          "name": "_address",
          "type": "address"
        },
        {
          "internalType": "uint256",
          "name": "_aCounter",
          "type": "uint256"
        },
        {
          "internalType": "bool",
          "name": "_controller",
          "type": "bool"
        }
      ],
      "name": "registerAirline",
      "outputs": [],
      "stateMutability": "nonpayable",
      "type": "function"
    },
    {
      "inputs": [
        {
          "internalType": "address",
          "name": "_address",
          "type": "address"
        }
      ],
      "name": "fund",
      "outputs": [],
      "stateMutability": "payable",
      "type": "function",
      "payable": true
    },
    {
      "inputs": [
        {
          "internalType": "bytes32",
          "name": "_flightKey",
          "type": "bytes32"
        },
        {
          "internalType": "address",
          "name": "_passengerAddress",
          "type": "address"
        },
        {
          "internalType": "address",
          "name": "_airlineAddress",
          "type": "address"
        }
      ],
      "name": "buy",
      "outputs": [],
      "stateMutability": "payable",
      "type": "function",
      "payable": true
    },
    {
      "inputs": [
        {
          "internalType": "address",
          "name": "_passengerAddress",
          "type": "address"
        },
        {
          "internalType": "bytes32",
          "name": "_flightKey",
          "type": "bytes32"
        },
        {
          "internalType": "address",
          "name": "_airlineAddress",
          "type": "address"
        }
      ],
      "name": "creditInsurees",
      "outputs": [],
      "stateMutability": "nonpayable",
      "type": "function"
    },
    {
      "inputs": [
        {
          "internalType": "address",
          "name": "_passengerAddress",
          "type": "address"
        },
        {
          "internalType": "bytes32",
          "name": "_flightKey",
          "type": "bytes32"
        }
      ],
      "name": "pay",
      "outputs": [],
      "stateMutability": "payable",
      "type": "function",
      "payable": true
    },
    {
      "inputs": [
        {
          "internalType": "address",
          "name": "_airlineAddress",
          "type": "address"
        }
      ],
      "name": "checkAirlines",
      "outputs": [
        {
          "internalType": "string",
          "name": "name_",
          "type": "string"
        },
        {
          "internalType": "address",
          "name": "address_",
          "type": "address"
        },
        {
          "internalType": "bool",
          "name": "registered_",
          "type": "bool"
        },
        {
          "internalType": "bool",
          "name": "participant_",
          "type": "bool"
        },
        {
          "internalType": "bool",
          "name": "controller_",
          "type": "bool"
        },
        {
          "internalType": "uint256",
          "name": "fundavailable_",
          "type": "uint256"
        },
        {
          "internalType": "uint256",
          "name": "fundcommitted_",
          "type": "uint256"
        }
      ],
      "stateMutability": "view",
      "type": "function",
      "constant": true
    },
    {
      "inputs": [
        {
          "internalType": "uint256",
          "name": "_insuranceId",
          "type": "uint256"
        }
      ],
      "name": "checkInsurances",
      "outputs": [
        {
          "internalType": "bytes32",
          "name": "insuranceKey_",
          "type": "bytes32"
        },
        {
          "internalType": "bytes32",
          "name": "flightKey_",
          "type": "bytes32"
        },
        {
          "internalType": "address",
          "name": "passengerAddress_",
          "type": "address"
        },
        {
          "internalType": "uint256",
          "name": "amountPaid_",
          "type": "uint256"
        },
        {
          "internalType": "uint256",
          "name": "amountAvailable_",
          "type": "uint256"
        },
        {
          "internalType": "bool",
          "name": "claimable_",
          "type": "bool"
        },
        {
          "internalType": "bool",
          "name": "active_",
          "type": "bool"
        }
      ],
      "stateMutability": "view",
      "type": "function",
      "constant": true
    },
    {
      "inputs": [
        {
          "internalType": "address",
          "name": "_passengerAddress",
          "type": "address"
        }
      ],
      "name": "checkPassengerInsurances",
      "outputs": [
        {
          "internalType": "bytes32[]",
          "name": "",
          "type": "bytes32[]"
        }
      ],
      "stateMutability": "view",
      "type": "function",
      "constant": true
    },
    {
      "inputs": [
        {
          "internalType": "address",
          "name": "_passengerAddress",
          "type": "address"
        },
        {
          "internalType": "bytes32",
          "name": "_flightKey",
          "type": "bytes32"
        }
      ],
      "name": "checkInsuranceAmountPaid",
      "outputs": [
        {
          "internalType": "uint256",
          "name": "amountPaid_",
          "type": "uint256"
        }
      ],
      "stateMutability": "view",
      "type": "function",
      "constant": true
    }
  ],
  "bytecode": "0x60806040526001600060146101000a81548160ff02191690831515021790555073f258b0a25ee7d6f02a9a1118afdf77cac6d72784600360006101000a81548173ffffffffffffffffffffffffffffffffffffffff021916908373ffffffffffffffffffffffffffffffffffffffff1602179055506040518060400160405280600f81526020017f416972204e6577205a65616c616e64000000000000000000000000000000000081525060049080519060200190620000c19291906200036e565b50348015620000cf57600080fd5b50336000806101000a81548173ffffffffffffffffffffffffffffffffffffffff021916908373ffffffffffffffffffffffffffffffffffffffff160217905550604051806101000160405280600081526020016004805462000132906200044d565b80601f016020809104026020016040519081016040528092919081815260200182805462000160906200044d565b8015620001b15780601f106200018557610100808354040283529160200191620001b1565b820191906000526020600020905b8154815290600101906020018083116200019357829003601f168201915b50505050508152602001600360009054906101000a900473ffffffffffffffffffffffffffffffffffffffff1673ffffffffffffffffffffffffffffffffffffffff16815260200160011515815260200160001515815260200160011515815260200160008152602001600081525060026000600360009054906101000a900473ffffffffffffffffffffffffffffffffffffffff1673ffffffffffffffffffffffffffffffffffffffff1673ffffffffffffffffffffffffffffffffffffffff168152602001908152602001600020600082015181600001556020820151816001019080519060200190620002a99291906200036e565b5060408201518160020160006101000a81548173ffffffffffffffffffffffffffffffffffffffff021916908373ffffffffffffffffffffffffffffffffffffffff16021790555060608201518160020160146101000a81548160ff02191690831515021790555060808201518160020160156101000a81548160ff02191690831515021790555060a08201518160020160166101000a81548160ff02191690831515021790555060c0820151816003015560e0820151816004015590505062000483565b8280546200037c906200044d565b90600052602060002090601f016020900481019282620003a05760008555620003ec565b82601f10620003bb57805160ff1916838001178555620003ec565b82800160010185558215620003ec579182015b82811115620003eb578251825591602001919060010190620003ce565b5b509050620003fb9190620003ff565b5090565b5b808211156200041a57600081600090555060010162000400565b5090565b7f4e487b7100000000000000000000000000000000000000000000000000000000600052602260045260246000fd5b600060028204905060018216806200046657607f821691505b602082108114156200047d576200047c6200041e565b5b50919050565b612e1480620004936000396000f3fe6080604052600436106100f75760003560e01c8063b85a9e611161008a578063f142bc8811610059578063f142bc8814610327578063fe9fbb8014610350578063ff1297631461038d578063ffc2ec9a146103ca576100fe565b8063b85a9e611461024d578063cd905dff14610276578063e188ac98146102a1578063edeb6c3a146102e4576100fe565b806341c0e1b5116100c657806341c0e1b5146101b257806346f8f304146101c957806348c17478146101e5578063b598280314610222576100fe565b80631bcd250a1461010057806323024408146101295780632c388d5d14610145578063416847691461016e576100fe565b366100fe57005b005b34801561010c57600080fd5b5061012760048036038101906101229190611fe3565b6103e6565b005b610143600480360381019061013e9190611fe3565b6104cf565b005b34801561015157600080fd5b5061016c60048036038101906101679190611fe3565b6106f8565b005b34801561017a57600080fd5b5061019560048036038101906101909190611fe3565b6107e0565b6040516101a99897969594939291906120fe565b60405180910390f35b3480156101be57600080fd5b506101c76108f7565b005b6101e360048036038101906101de91906121b9565b610a14565b005b3480156101f157600080fd5b5061020c600480360381019061020791906121b9565b610ad3565b60405161021991906121f9565b60405180910390f35b34801561022e57600080fd5b50610237610ba9565b6040516102449190612223565b60405180910390f35b34801561025957600080fd5b50610274600480360381019061026f91906123cb565b610bd3565b005b34801561028257600080fd5b5061028b610e70565b604051610298919061244e565b60405180910390f35b3480156102ad57600080fd5b506102c860048036038101906102c39190611fe3565b610e86565b6040516102db9796959493929190612469565b60405180910390f35b3480156102f057600080fd5b5061030b600480360381019061030691906124df565b611233565b60405161031e979695949392919061251b565b60405180910390f35b34801561033357600080fd5b5061034e6004803603810190610349919061258a565b611473565b005b34801561035c57600080fd5b5061037760048036038101906103729190611fe3565b6117a5565b604051610384919061244e565b60405180910390f35b34801561039957600080fd5b506103b460048036038101906103af9190611fe3565b6117fb565b6040516103c1919061269b565b60405180910390f35b6103e460048036038101906103df91906126bd565b611974565b005b60008054906101000a900473ffffffffffffffffffffffffffffffffffffffff1673ffffffffffffffffffffffffffffffffffffffff163373ffffffffffffffffffffffffffffffffffffffff1614610474576040517f08c379a000000000000000000000000000000000000000000000000000000000815260040161046b9061275c565b60405180910390fd5b6000600160008373ffffffffffffffffffffffffffffffffffffffff1673ffffffffffffffffffffffffffffffffffffffff16815260200190815260200160002060006101000a81548160ff02191690831515021790555050565b678ac7230489e800008034101561051b576040517f08c379a0000000000000000000000000000000000000000000000000000000008152600401610512906127c8565b60405180910390fd5b678ac7230489e800003414610565576040517f08c379a000000000000000000000000000000000000000000000000000000000815260040161055c9061285a565b60405180910390fd5b600060149054906101000a900460ff166105b4576040517f08c379a00000000000000000000000000000000000000000000000000000000081526004016105ab906128ec565b60405180910390fd5b60008054906101000a900473ffffffffffffffffffffffffffffffffffffffff1673ffffffffffffffffffffffffffffffffffffffff166108fc349081150290604051600060405180830381858888f1935050505015801561061a573d6000803e3d6000fd5b506001600260008473ffffffffffffffffffffffffffffffffffffffff1673ffffffffffffffffffffffffffffffffffffffff16815260200190815260200160002060020160156101000a81548160ff02191690831515021790555034600260008473ffffffffffffffffffffffffffffffffffffffff1673ffffffffffffffffffffffffffffffffffffffff168152602001908152602001600020600301819055507f74fd33b93b98017671fda1e0c45b783f7e31895388503a3959006c338043daf5826040516106ec9190612223565b60405180910390a15050565b60008054906101000a900473ffffffffffffffffffffffffffffffffffffffff1673ffffffffffffffffffffffffffffffffffffffff163373ffffffffffffffffffffffffffffffffffffffff1614610786576040517f08c379a000000000000000000000000000000000000000000000000000000000815260040161077d9061275c565b60405180910390fd5b60018060008373ffffffffffffffffffffffffffffffffffffffff1673ffffffffffffffffffffffffffffffffffffffff16815260200190815260200160002060006101000a81548160ff02191690831515021790555050565b60026020528060005260406000206000915090508060000154908060010180546108099061293b565b80601f01602080910402602001604051908101604052809291908181526020018280546108359061293b565b80156108825780601f1061085757610100808354040283529160200191610882565b820191906000526020600020905b81548152906001019060200180831161086557829003601f168201915b5050505050908060020160009054906101000a900473ffffffffffffffffffffffffffffffffffffffff16908060020160149054906101000a900460ff16908060020160159054906101000a900460ff16908060020160169054906101000a900460ff16908060030154908060040154905088565b60008054906101000a900473ffffffffffffffffffffffffffffffffffffffff1673ffffffffffffffffffffffffffffffffffffffff163373ffffffffffffffffffffffffffffffffffffffff1614610985576040517f08c379a000000000000000000000000000000000000000000000000000000000815260040161097c9061275c565b60405180910390fd5b60008054906101000a900473ffffffffffffffffffffffffffffffffffffffff1673ffffffffffffffffffffffffffffffffffffffff163373ffffffffffffffffffffffffffffffffffffffff161415610a125760008054906101000a900473ffffffffffffffffffffffffffffffffffffffff1673ffffffffffffffffffffffffffffffffffffffff16ff5b565b600060149054906101000a900460ff16610a63576040517f08c379a0000000000000000000000000000000000000000000000000000000008152600401610a5a906128ec565b60405180910390fd5b6000610a6f8383611e21565b90508273ffffffffffffffffffffffffffffffffffffffff166108fc60056000848152602001908152602001600020600401549081150290604051600060405180830381858888f19350505050158015610acd573d6000803e3d6000fd5b50505050565b60008060149054906101000a900460ff16610b23576040517f08c379a0000000000000000000000000000000000000000000000000000000008152600401610b1a906128ec565b60405180910390fd5b6000610b2f8484611e21565b905082600560008381526020019081526020016000206001015414610b89576040517f08c379a0000000000000000000000000000000000000000000000000000000008152600401610b80906129b9565b60405180910390fd5b600560008281526020019081526020016000206003015491505092915050565b6000600360009054906101000a900473ffffffffffffffffffffffffffffffffffffffff16905090565b60011515600160003373ffffffffffffffffffffffffffffffffffffffff1673ffffffffffffffffffffffffffffffffffffffff16815260200190815260200160002060009054906101000a900460ff16151514610c66576040517f08c379a0000000000000000000000000000000000000000000000000000000008152600401610c5d90612a25565b60405180910390fd5b600060149054906101000a900460ff16610cb5576040517f08c379a0000000000000000000000000000000000000000000000000000000008152600401610cac906128ec565b60405180910390fd5b6040518061010001604052808381526020018581526020018473ffffffffffffffffffffffffffffffffffffffff1681526020016001151581526020016000151581526020018215158152602001600081526020016000815250600260008573ffffffffffffffffffffffffffffffffffffffff1673ffffffffffffffffffffffffffffffffffffffff168152602001908152602001600020600082015181600001556020820151816001019080519060200190610d74929190611ece565b5060408201518160020160006101000a81548173ffffffffffffffffffffffffffffffffffffffff021916908373ffffffffffffffffffffffffffffffffffffffff16021790555060608201518160020160146101000a81548160ff02191690831515021790555060808201518160020160156101000a81548160ff02191690831515021790555060a08201518160020160166101000a81548160ff02191690831515021790555060c0820151816003015560e082015181600401559050507f478f5152d8fc568db3f8de9fb402fd9d98a1a7541ecfe434e59cf574fbfc552483604051610e629190612223565b60405180910390a150505050565b60008060149054906101000a900460ff16905090565b606060008060008060008060011515600160003373ffffffffffffffffffffffffffffffffffffffff1673ffffffffffffffffffffffffffffffffffffffff16815260200190815260200160002060009054906101000a900460ff16151514610f24576040517f08c379a0000000000000000000000000000000000000000000000000000000008152600401610f1b90612a25565b60405180910390fd5b600060149054906101000a900460ff16610f73576040517f08c379a0000000000000000000000000000000000000000000000000000000008152600401610f6a906128ec565b60405180910390fd5b600260008973ffffffffffffffffffffffffffffffffffffffff1673ffffffffffffffffffffffffffffffffffffffff168152602001908152602001600020600101600260008a73ffffffffffffffffffffffffffffffffffffffff1673ffffffffffffffffffffffffffffffffffffffff16815260200190815260200160002060020160009054906101000a900473ffffffffffffffffffffffffffffffffffffffff16600260008b73ffffffffffffffffffffffffffffffffffffffff1673ffffffffffffffffffffffffffffffffffffffff16815260200190815260200160002060020160149054906101000a900460ff16600260008c73ffffffffffffffffffffffffffffffffffffffff1673ffffffffffffffffffffffffffffffffffffffff16815260200190815260200160002060020160159054906101000a900460ff16600260008d73ffffffffffffffffffffffffffffffffffffffff1673ffffffffffffffffffffffffffffffffffffffff16815260200190815260200160002060020160169054906101000a900460ff16600260008e73ffffffffffffffffffffffffffffffffffffffff1673ffffffffffffffffffffffffffffffffffffffff16815260200190815260200160002060030154600260008f73ffffffffffffffffffffffffffffffffffffffff1673ffffffffffffffffffffffffffffffffffffffff1681526020019081526020016000206004015486805461119a9061293b565b80601f01602080910402602001604051908101604052809291908181526020018280546111c69061293b565b80156112135780601f106111e857610100808354040283529160200191611213565b820191906000526020600020905b8154815290600101906020018083116111f657829003601f168201915b505050505096509650965096509650965096509650919395979092949650565b600080600080600080600060011515600160003373ffffffffffffffffffffffffffffffffffffffff1673ffffffffffffffffffffffffffffffffffffffff16815260200190815260200160002060009054906101000a900460ff161515146112d1576040517f08c379a00000000000000000000000000000000000000000000000000000000081526004016112c890612a25565b60405180910390fd5b600060149054906101000a900460ff16611320576040517f08c379a0000000000000000000000000000000000000000000000000000000008152600401611317906128ec565b60405180910390fd5b6000600660008a81526020019081526020016000205490506000801b60056000838152602001908152602001600020600101541415611394576040517f08c379a000000000000000000000000000000000000000000000000000000000815260040161138b906129b9565b60405180910390fd5b8060056000838152602001908152602001600020600101546005600084815260200190815260200160002060020160009054906101000a900473ffffffffffffffffffffffffffffffffffffffff16600560008581526020019081526020016000206003015460056000868152602001908152602001600020600401546005600087815260200190815260200160002060050160009054906101000a900460ff166005600088815260200190815260200160002060050160019054906101000a900460ff16975097509750975097509750975050919395979092949650565b60011515600160003373ffffffffffffffffffffffffffffffffffffffff1673ffffffffffffffffffffffffffffffffffffffff16815260200190815260200160002060009054906101000a900460ff16151514611506576040517f08c379a00000000000000000000000000000000000000000000000000000000081526004016114fd90612a25565b60405180910390fd5b600060149054906101000a900460ff16611555576040517f08c379a000000000000000000000000000000000000000000000000000000000815260040161154c906128ec565b60405180910390fd5b60006115618484611e21565b9050826005600083815260200190815260200160002060010154146115bb576040517f08c379a00000000000000000000000000000000000000000000000000000000081526004016115b2906129b9565b60405180910390fd5b6005600082815260200190815260200160002060050160009054906101000a900460ff1661161e576040517f08c379a000000000000000000000000000000000000000000000000000000000815260040161161590612a91565b60405180910390fd5b600060056000838152602001908152602001600020600301549050600061165061164983600f611e76565b600a611e8c565b90506000600260008673ffffffffffffffffffffffffffffffffffffffff1673ffffffffffffffffffffffffffffffffffffffff1681526020019081526020016000206003015490506000600260008773ffffffffffffffffffffffffffffffffffffffff1673ffffffffffffffffffffffffffffffffffffffff1681526020019081526020016000206004015490508260056000878152602001908152602001600020600401819055506117058284611ea2565b600260008873ffffffffffffffffffffffffffffffffffffffff1673ffffffffffffffffffffffffffffffffffffffff168152602001908152602001600020600301819055506117558184611ea2565b600260008873ffffffffffffffffffffffffffffffffffffffff1673ffffffffffffffffffffffffffffffffffffffff168152602001908152602001600020600401819055505050505050505050565b6000600160008373ffffffffffffffffffffffffffffffffffffffff1673ffffffffffffffffffffffffffffffffffffffff16815260200190815260200160002060009054906101000a900460ff169050919050565b606060011515600160003373ffffffffffffffffffffffffffffffffffffffff1673ffffffffffffffffffffffffffffffffffffffff16815260200190815260200160002060009054906101000a900460ff16151514611890576040517f08c379a000000000000000000000000000000000000000000000000000000000815260040161188790612a25565b60405180910390fd5b600060149054906101000a900460ff166118df576040517f08c379a00000000000000000000000000000000000000000000000000000000081526004016118d6906128ec565b60405180910390fd5b600760008373ffffffffffffffffffffffffffffffffffffffff1673ffffffffffffffffffffffffffffffffffffffff16815260200190815260200160002080548060200260200160405190810160405280929190818152602001828054801561196857602002820191906000526020600020905b815481526020019060010190808311611954575b50505050509050919050565b633b9aca0034101580156119905750670de0b6b3a76400003411155b6119cf576040517f08c379a00000000000000000000000000000000000000000000000000000000081526004016119c690612b23565b60405180910390fd5b60011515600160003373ffffffffffffffffffffffffffffffffffffffff1673ffffffffffffffffffffffffffffffffffffffff16815260200190815260200160002060009054906101000a900460ff16151514611a62576040517f08c379a0000000000000000000000000000000000000000000000000000000008152600401611a5990612a25565b60405180910390fd5b600060149054906101000a900460ff16611ab1576040517f08c379a0000000000000000000000000000000000000000000000000000000008152600401611aa8906128ec565b60405180910390fd5b6000611abd8385611e21565b90508360056000838152602001908152602001600020600101541415611b18576040517f08c379a0000000000000000000000000000000000000000000000000000000008152600401611b0f90612bb5565b60405180910390fd5b60008054906101000a900473ffffffffffffffffffffffffffffffffffffffff1673ffffffffffffffffffffffffffffffffffffffff166108fc349081150290604051600060405180830381858888f19350505050158015611b7e573d6000803e3d6000fd5b5060086000815480929190611b9290612c04565b91905055506040518060e0016040528060085481526020018581526020018473ffffffffffffffffffffffffffffffffffffffff168152602001348152602001600081526020016000151581526020016001151581525060056000838152602001908152602001600020600082015181600001556020820151816001015560408201518160020160006101000a81548173ffffffffffffffffffffffffffffffffffffffff021916908373ffffffffffffffffffffffffffffffffffffffff160217905550606082015181600301556080820151816004015560a08201518160050160006101000a81548160ff02191690831515021790555060c08201518160050160016101000a81548160ff0219169083151502179055509050508060066000600854815260200190815260200160002081905550600760008473ffffffffffffffffffffffffffffffffffffffff1673ffffffffffffffffffffffffffffffffffffffff168152602001908152602001600020819080600181540180825580915050600190039060005260206000200160009091909190915055611d7a600260008473ffffffffffffffffffffffffffffffffffffffff1673ffffffffffffffffffffffffffffffffffffffff1681526020019081526020016000206003015434611eb8565b600260008473ffffffffffffffffffffffffffffffffffffffff1673ffffffffffffffffffffffffffffffffffffffff16815260200190815260200160002060030181905550611dd5611dce34600f611e76565b600a611e8c565b600260008473ffffffffffffffffffffffffffffffffffffffff1673ffffffffffffffffffffffffffffffffffffffff1681526020019081526020016000206004018190555050505050565b60008060608473ffffffffffffffffffffffffffffffffffffffff16901b60001b90508083604051602001611e57929190612c6e565b6040516020818303038152906040528051906020012091505092915050565b60008183611e849190612c9a565b905092915050565b60008183611e9a9190612d23565b905092915050565b60008183611eb09190612d54565b905092915050565b60008183611ec69190612d88565b905092915050565b828054611eda9061293b565b90600052602060002090601f016020900481019282611efc5760008555611f43565b82601f10611f1557805160ff1916838001178555611f43565b82800160010185558215611f43579182015b82811115611f42578251825591602001919060010190611f27565b5b509050611f509190611f54565b5090565b5b80821115611f6d576000816000905550600101611f55565b5090565b6000604051905090565b600080fd5b600080fd5b600073ffffffffffffffffffffffffffffffffffffffff82169050919050565b6000611fb082611f85565b9050919050565b611fc081611fa5565b8114611fcb57600080fd5b50565b600081359050611fdd81611fb7565b92915050565b600060208284031215611ff957611ff8611f7b565b5b600061200784828501611fce565b91505092915050565b6000819050919050565b61202381612010565b82525050565b600081519050919050565b600082825260208201905092915050565b60005b83811015612063578082015181840152602081019050612048565b83811115612072576000848401525b50505050565b6000601f19601f8301169050919050565b600061209482612029565b61209e8185612034565b93506120ae818560208601612045565b6120b781612078565b840191505092915050565b60006120cd82611f85565b9050919050565b6120dd816120c2565b82525050565b60008115159050919050565b6120f8816120e3565b82525050565b600061010082019050612114600083018b61201a565b8181036020830152612126818a612089565b905061213560408301896120d4565b61214260608301886120ef565b61214f60808301876120ef565b61215c60a08301866120ef565b61216960c083018561201a565b61217660e083018461201a565b9998505050505050505050565b6000819050919050565b61219681612183565b81146121a157600080fd5b50565b6000813590506121b38161218d565b92915050565b600080604083850312156121d0576121cf611f7b565b5b60006121de85828601611fce565b92505060206121ef858286016121a4565b9150509250929050565b600060208201905061220e600083018461201a565b92915050565b61221d81611fa5565b82525050565b60006020820190506122386000830184612214565b92915050565b600080fd5b600080fd5b7f4e487b7100000000000000000000000000000000000000000000000000000000600052604160045260246000fd5b61228082612078565b810181811067ffffffffffffffff8211171561229f5761229e612248565b5b80604052505050565b60006122b2611f71565b90506122be8282612277565b919050565b600067ffffffffffffffff8211156122de576122dd612248565b5b6122e782612078565b9050602081019050919050565b82818337600083830152505050565b6000612316612311846122c3565b6122a8565b90508281526020810184848401111561233257612331612243565b5b61233d8482856122f4565b509392505050565b600082601f83011261235a5761235961223e565b5b813561236a848260208601612303565b91505092915050565b61237c81612010565b811461238757600080fd5b50565b60008135905061239981612373565b92915050565b6123a8816120e3565b81146123b357600080fd5b50565b6000813590506123c58161239f565b92915050565b600080600080608085870312156123e5576123e4611f7b565b5b600085013567ffffffffffffffff81111561240357612402611f80565b5b61240f87828801612345565b945050602061242087828801611fce565b93505060406124318782880161238a565b9250506060612442878288016123b6565b91505092959194509250565b600060208201905061246360008301846120ef565b92915050565b600060e0820190508181036000830152612483818a612089565b90506124926020830189612214565b61249f60408301886120ef565b6124ac60608301876120ef565b6124b960808301866120ef565b6124c660a083018561201a565b6124d360c083018461201a565b98975050505050505050565b6000602082840312156124f5576124f4611f7b565b5b60006125038482850161238a565b91505092915050565b61251581612183565b82525050565b600060e082019050612530600083018a61250c565b61253d602083018961250c565b61254a6040830188612214565b612557606083018761201a565b612564608083018661201a565b61257160a08301856120ef565b61257e60c08301846120ef565b98975050505050505050565b6000806000606084860312156125a3576125a2611f7b565b5b60006125b186828701611fce565b93505060206125c2868287016121a4565b92505060406125d386828701611fce565b9150509250925092565b600081519050919050565b600082825260208201905092915050565b6000819050602082019050919050565b61261281612183565b82525050565b60006126248383612609565b60208301905092915050565b6000602082019050919050565b6000612648826125dd565b61265281856125e8565b935061265d836125f9565b8060005b8381101561268e5781516126758882612618565b975061268083612630565b925050600181019050612661565b5085935050505092915050565b600060208201905081810360008301526126b5818461263d565b905092915050565b6000806000606084860312156126d6576126d5611f7b565b5b60006126e4868287016121a4565b93505060206126f586828701611fce565b925050604061270686828701611fce565b9150509250925092565b7f43414c4c4552204953204e4f5420434f4e5452414354204f574e455200000000600082015250565b6000612746601c83612034565b915061275182612710565b602082019050919050565b6000602082019050818103600083015261277581612739565b9050919050565b7f414d4f554e54204953204e4f5420454e4f554748540000000000000000000000600082015250565b60006127b2601583612034565b91506127bd8261277c565b602082019050919050565b600060208201905081810360008301526127e1816127a5565b9050919050565b7f4149524c494e45204d555354205452414e534645522045584143544c5920313060008201527f2045544845525300000000000000000000000000000000000000000000000000602082015250565b6000612844602783612034565b915061284f826127e8565b604082019050919050565b6000602082019050818103600083015261287381612837565b9050919050565b7f434f4e54524143542049532043555252454e544c59204e4f54204f504552415460008201527f494f4e414c000000000000000000000000000000000000000000000000000000602082015250565b60006128d6602583612034565b91506128e18261287a565b604082019050919050565b60006020820190508181036000830152612905816128c9565b9050919050565b7f4e487b7100000000000000000000000000000000000000000000000000000000600052602260045260246000fd5b6000600282049050600182168061295357607f821691505b602082108114156129675761296661290c565b5b50919050565b7f4552524f523a20494e535552414e4345204e4f5420464f554e44000000000000600082015250565b60006129a3601a83612034565b91506129ae8261296d565b602082019050919050565b600060208201905081810360008301526129d281612996565b9050919050565b7f43616c6c6572206973206e6f7420617574686f72697a65640000000000000000600082015250565b6000612a0f601883612034565b9150612a1a826129d9565b602082019050919050565b60006020820190508181036000830152612a3e81612a02565b9050919050565b7f4552524f523a204e4f5448494e4720544f20434c41494d000000000000000000600082015250565b6000612a7b601783612034565b9150612a8682612a45565b602082019050919050565b60006020820190508181036000830152612aaa81612a6e565b9050919050565b7f43414c4c4552204d555354205350454e44204245545745454e2031204757454960008201527f20414e4420312045544845520000000000000000000000000000000000000000602082015250565b6000612b0d602c83612034565b9150612b1882612ab1565b604082019050919050565b60006020820190508181036000830152612b3c81612b00565b9050919050565b7f4552524f523a2050415353454e47455220414c524541445920424f554748542060008201527f5448495320464c4947485420494e535552414e43450000000000000000000000602082015250565b6000612b9f603583612034565b9150612baa82612b43565b604082019050919050565b60006020820190508181036000830152612bce81612b92565b9050919050565b7f4e487b7100000000000000000000000000000000000000000000000000000000600052601160045260246000fd5b6000612c0f82612010565b91507fffffffffffffffffffffffffffffffffffffffffffffffffffffffffffffffff821415612c4257612c41612bd5565b5b600182019050919050565b6000819050919050565b612c68612c6382612183565b612c4d565b82525050565b6000612c7a8285612c57565b602082019150612c8a8284612c57565b6020820191508190509392505050565b6000612ca582612010565b9150612cb083612010565b9250817fffffffffffffffffffffffffffffffffffffffffffffffffffffffffffffffff0483118215151615612ce957612ce8612bd5565b5b828202905092915050565b7f4e487b7100000000000000000000000000000000000000000000000000000000600052601260045260246000fd5b6000612d2e82612010565b9150612d3983612010565b925082612d4957612d48612cf4565b5b828204905092915050565b6000612d5f82612010565b9150612d6a83612010565b925082821015612d7d57612d7c612bd5565b5b828203905092915050565b6000612d9382612010565b9150612d9e83612010565b9250827fffffffffffffffffffffffffffffffffffffffffffffffffffffffffffffffff03821115612dd357612dd2612bd5565b5b82820190509291505056fea264697066735822122071d123014a925e84c4c29671c6ef77f4dbfddbba5191b1debd8571cb5941f5b064736f6c634300080b0033",
  "immutableReferences": {},
  "source": "// SPDX-License-Identifier: MIT\npragma solidity ^0.8.0;\n\nimport \"@openzeppelin/contracts/utils/math/SafeMath.sol\";\n\ncontract FlightSuretyData {\n\n    address payable contractOwner;              // ACCOUNT USED TO DEPLOY CONTRACT\n    bool private operational = true;            // BLOCKS ALL STATE CHANGES THROUGHOUT THE CONTRACT IF FALSE\n\n    mapping(address => bool) AuthorizedCallers; //AUTHORIZED CALLERS \n    \n    using SafeMath for uint256;                 //LIBRARY USED TO EXECUTE MATH OPERATIONS\n\n\n    /********************************************************************************************/\n    /*                                      AIRLINE VARIABLES                                   */\n    /********************************************************************************************/\n    struct Airline {\n        uint            airlineId;\n        string          airlineName;\n        address payable airlineAddress;\n        bool            registered;\n        bool            participant;\n        bool            controller;\n        uint            fundAvailable;\n        uint            fundCommitted;\n    }\n    mapping(address => Airline) public airlines;\n\n    address _firstAirlineAddress = 0xF258b0a25eE7D6f02a9a1118afdF77CaC6D72784;\n    string _firstName = \"Air New Zealand\";\n\n\n    /********************************************************************************************/\n    /*                                  INSURANCE VARIABLES                                     */\n    /********************************************************************************************/\n    struct Insurance {\n        uint            insuranceId;\n        bytes32         flightKey;\n        address payable passengerAddress;\n        uint            amountPaid;\n        uint            amountAvailable;\n        bool            claimable;\n        bool            active;\n    }\n    mapping(bytes32 => Insurance) insurances;\n    mapping(uint => bytes32) insurancesReverse;\n    mapping(address => bytes32[]) passengerInsurances;\n    uint iCounter;\n\n\n    /********************************************************************************************/\n    /*                                       EVENT DEFINITIONS                                  */\n    /********************************************************************************************/\n    event Registration(address);\n    event Candidate(address);\n    event Funding(address);\n    event Acquisition(address);\n    event Payment(address);\n\n\n    /********************************************************************************************/\n    /*                                       FUNCTION MODIFIERS                                 */\n    /********************************************************************************************/\n    modifier requireIsOperational() {\n        require(operational, \"CONTRACT IS CURRENTLY NOT OPERATIONAL\");\n        _;\n    }\n\n    modifier verifyCaller(address _address) {\n        require(msg.sender == _address, \"CALLER IS NOT ALLOWED TO EXECUTE FUNCTION\"); \n        _;\n    }\n\n    modifier requireContractOwner() {\n        require(msg.sender == contractOwner, \"CALLER IS NOT CONTRACT OWNER\");\n        _;\n    }\n\n    modifier requireAuthorizedCaller(){\n        require(AuthorizedCallers[msg.sender] == true, \"Caller is not authorized\");\n        _;\n    }\n\n    modifier paidEnough(uint _price) { \n        require(msg.value >= _price, \"AMOUNT IS NOT ENOUGHT\"); \n        _;\n    }\n  \n    modifier checkParticipantValue() {\n        require(msg.value == 10 ether, \"AIRLINE MUST TRANSFER EXACTLY 10 ETHERS\");\n        _;\n    }\n\n    modifier checkPassengerValue() {\n        require(msg.value >= 1 gwei && msg.value <= 1 ether, \"CALLER MUST SPEND BETWEEN 1 GWEI AND 1 ETHER\");\n        _;\n    }\n\n\n    /********************************************************************************************/\n    /*                                       CONSTRUCTOR DEFINITION                             */\n    /********************************************************************************************/    \n    /* The deploying account becomes contractOwner */\n    constructor() {\n        contractOwner = payable(msg.sender);\n        airlines[_firstAirlineAddress] = Airline(\n            {\n                airlineId: 0,\n                airlineName: _firstName,\n                airlineAddress: payable(_firstAirlineAddress),\n                registered: true,\n                participant: false,\n                controller: true,\n                fundAvailable: 0,\n                fundCommitted: 0\n            });\n\n    }\n\n    function getFirstAirlineAddress() external view returns(address){\n        return _firstAirlineAddress;\n    }\n\n\n    /********************************************************************************************/\n    /*                                       UTILITY FUNCTIONS                                  */\n    /********************************************************************************************/\n    function kill() public requireContractOwner() {\n        if (msg.sender == contractOwner) {\n            selfdestruct(contractOwner);\n        }\n    }\n\n    function isOperational() external view returns(bool) {\n        return operational;\n    }\n\n    function authorizeCaller(address _caller) public requireContractOwner {\n        AuthorizedCallers[_caller] = true;\n    }\n\n    function isAuthorized(address _caller) public view returns(bool) {\n        return AuthorizedCallers[_caller];\n    }\n\n    function deAuthorizeCaller(address _caller) public requireContractOwner {\n        AuthorizedCallers[_caller] = false;\n    }\n\n\n    /********************************************************************************************/\n    /*                       SMART CONTRACT REGISTER AIRLINES FUNCTIONS                         */\n    /********************************************************************************************/\n    function registerAirline(string memory _name, address _address, uint _aCounter, bool _controller) external requireAuthorizedCaller() requireIsOperational() {\n        airlines[_address] = Airline(\n            {\n                airlineId: _aCounter,\n                airlineName: _name,\n                airlineAddress: payable(_address),                    \n                registered: true,\n                participant: false,\n                controller: _controller,\n                fundAvailable: 0,\n                fundCommitted: 0\n            }\n        );\n            \n        emit Registration(_address);\n        \n    }\n\n\n    /********************************************************************************************/\n    /*                          SMART CONTRACT PARTICIPANT FUNCTIONS                            */\n    /********************************************************************************************/\n    function fund(address _address) external payable paidEnough(10 ether) checkParticipantValue() requireIsOperational() {\n        contractOwner.transfer(msg.value);\n\n        airlines[_address].participant = true;\n        airlines[_address].fundAvailable = msg.value;\n    \n        emit Funding(_address);\n    }\n\n\n    /********************************************************************************************/\n    /*                                  KEYS GENEARTOR FUNCTIONS                                */\n    /********************************************************************************************/\n    function getInsuranceKey(address _passengerAddress, bytes32 _flightKey) pure internal returns(bytes32) {\n        bytes32 _addressToBytes32 = bytes32(uint256(uint160(_passengerAddress)) << 96);\n        return keccak256(abi.encodePacked(_addressToBytes32, _flightKey));\n        //return keccak256(abi.encodePacked(_passengerAddress, _flightKey));\n    }\n\n\n    /********************************************************************************************/\n    /*                              SMART CONTRACT BUYING FUNCTIONS                             */\n    /********************************************************************************************/\n    function buy(bytes32 _flightKey, address _passengerAddress, address _airlineAddress) external payable \n    checkPassengerValue() requireAuthorizedCaller() requireIsOperational() {        \n        \n        bytes32 _insuranceKey = getInsuranceKey(_passengerAddress, _flightKey);\n        \n        require(insurances[_insuranceKey].flightKey != _flightKey, \"ERROR: PASSENGER ALREADY BOUGHT THIS FLIGHT INSURANCE\");\n        contractOwner.transfer(msg.value);\n        \n        iCounter ++;\n        insurances[_insuranceKey] = Insurance(\n            {\n                insuranceId: iCounter,\n                flightKey: _flightKey,\n                passengerAddress: payable(_passengerAddress),\n                amountPaid: msg.value,\n                amountAvailable: 0,\n                claimable: false,\n                active: true\n            }\n        );\n        insurancesReverse[iCounter] = _insuranceKey;\n        passengerInsurances[_passengerAddress].push(_insuranceKey);\n\n        airlines[_airlineAddress].fundAvailable = SafeMath.add(airlines[_airlineAddress].fundAvailable, msg.value);\n        airlines[_airlineAddress].fundCommitted = SafeMath.div(SafeMath.mul(msg.value, 15), 10);\n    }\n\n    /**\n     *  @dev Credits payouts to insurees\n    */\n    function creditInsurees(address _passengerAddress, bytes32 _flightKey, address _airlineAddress) \n    external requireAuthorizedCaller() requireIsOperational() {\n        bytes32 _insuranceKey = getInsuranceKey(_passengerAddress, _flightKey);\n        require(insurances[_insuranceKey].flightKey == _flightKey, \"ERROR: INSURANCE NOT FOUND\");\n        require(insurances[_insuranceKey].claimable, \"ERROR: NOTHING TO CLAIM\");\n\n        uint _amountPaid = insurances[_insuranceKey].amountPaid;\n        uint _amountToCredit = SafeMath.div(SafeMath.mul(_amountPaid, 15), 10);\n\n        uint _fundAvailable = airlines[_airlineAddress].fundAvailable;\n        uint _fundCommitted = airlines[_airlineAddress].fundCommitted;\n\n        insurances[_insuranceKey].amountAvailable = _amountToCredit;\n\n        airlines[_airlineAddress].fundAvailable = SafeMath.sub(_fundAvailable, _amountToCredit);\n        airlines[_airlineAddress].fundCommitted = SafeMath.sub(_fundCommitted, _amountToCredit);\n    }\n    \n\n    /**\n     *  @dev Transfers eligible payout funds to insuree\n     *\n    */\n    function pay(address _passengerAddress, bytes32 _flightKey) public payable requireIsOperational() {\n        bytes32 _insuranceKey = getInsuranceKey(_passengerAddress, _flightKey);\n        payable(_passengerAddress).transfer(insurances[_insuranceKey].amountAvailable);\n    }\n\n   /**\n    * @dev Initial funding for the insurance. Unless there are too many delayed flights\n    *      resulting in insurance payouts, the contract should be self-sustaining\n    *\n    */\n\n    /**\n    * @dev Fallback function for funding smart contract.\n    *\n    */\n    fallback() external payable {\n    }\n    \n    receive() external payable {\n    }\n\n\n    /********************************************************************************************/\n    /*                               SMART CONTRACT CHECK FUNCTIONS                             */\n    /********************************************************************************************/\n    function checkAirlines(address _airlineAddress) external view requireAuthorizedCaller() requireIsOperational()\n        returns(string memory name_, address address_, bool registered_, bool participant_, bool controller_, uint fundavailable_, uint fundcommitted_)  \n    {\n        \n        return(airlines[_airlineAddress].airlineName\n            , airlines[_airlineAddress].airlineAddress\n            , airlines[_airlineAddress].registered\n            , airlines[_airlineAddress].participant\n            , airlines[_airlineAddress].controller\n            , airlines[_airlineAddress].fundAvailable\n            , airlines[_airlineAddress].fundCommitted\n        );\n    \n    }\n    \n    function checkInsurances(uint _insuranceId) external view requireAuthorizedCaller() requireIsOperational()\n        returns(bytes32 insuranceKey_, bytes32 flightKey_, address passengerAddress_, uint amountPaid_, uint amountAvailable_, bool claimable_, bool active_) \n    {\n        bytes32 _insuranceKey = insurancesReverse[_insuranceId];\n        require(insurances[_insuranceKey].flightKey != 0, \"ERROR: INSURANCE NOT FOUND\");\n        return(_insuranceKey\n            , insurances[_insuranceKey].flightKey\n            , insurances[_insuranceKey].passengerAddress\n            , insurances[_insuranceKey].amountPaid\n            , insurances[_insuranceKey].amountAvailable\n            , insurances[_insuranceKey].claimable\n            , insurances[_insuranceKey].active\n        );\n    }\n\n    function checkPassengerInsurances(address _passengerAddress) external view requireAuthorizedCaller() requireIsOperational() returns(bytes32[] memory) {\n        return passengerInsurances[_passengerAddress];\n    }\n\n    function checkInsuranceAmountPaid(address _passengerAddress, bytes32 _flightKey) external view requireIsOperational() returns(uint amountPaid_) {\n        bytes32 _insuranceKey = getInsuranceKey(_passengerAddress, _flightKey);\n        require(insurances[_insuranceKey].flightKey == _flightKey, \"ERROR: INSURANCE NOT FOUND\");\n        return insurances[_insuranceKey].amountPaid;\n    }\n\n}",
  "sourcePath": "/Users/fernandomaximof/Documents/udacity-projects/project4/contracts/FlightSuretyData.sol",
  "compiler": {
    "name": "solc",
    "version": "0.8.11+commit.d7f03943.Emscripten.clang"
  },
  "schemaVersion": "3.4.3",
  "updatedAt": "2022-02-01T09:04:38.924Z",
  "networkType": "ethereum",
  "devdoc": {
    "kind": "dev",
    "methods": {
      "creditInsurees(address,bytes32,address)": {
        "details": "Credits payouts to insurees"
      },
      "pay(address,bytes32)": {
        "details": "Transfers eligible payout funds to insuree"
      }
    },
    "version": 1
  },
  "userdoc": {
    "kind": "user",
    "methods": {},
    "version": 1
  }
}