{
  "contractName": "DistributorRole",
  "abi": [
    {
      "inputs": [],
      "stateMutability": "nonpayable",
      "type": "constructor"
    },
    {
      "anonymous": false,
      "inputs": [
        {
          "indexed": true,
          "internalType": "address",
          "name": "account",
          "type": "address"
        }
      ],
      "name": "DistributorAdded",
      "type": "event"
    },
    {
      "anonymous": false,
      "inputs": [
        {
          "indexed": true,
          "internalType": "address",
          "name": "account",
          "type": "address"
        }
      ],
      "name": "DistributorRemoved",
      "type": "event"
    },
    {
      "inputs": [
        {
          "internalType": "address",
          "name": "account",
          "type": "address"
        }
      ],
      "name": "isDistributor",
      "outputs": [
        {
          "internalType": "bool",
          "name": "",
          "type": "bool"
        }
      ],
      "stateMutability": "view",
      "type": "function",
      "constant": true
    },
    {
      "inputs": [
        {
          "internalType": "address",
          "name": "account",
          "type": "address"
        }
      ],
      "name": "addDistributor",
      "outputs": [],
      "stateMutability": "nonpayable",
      "type": "function"
    },
    {
      "inputs": [],
      "name": "renounceDistributor",
      "outputs": [],
      "stateMutability": "nonpayable",
      "type": "function"
    },
    {
      "inputs": [],
      "name": "checkDistributor",
      "outputs": [
        {
          "internalType": "address",
          "name": "",
          "type": "address"
        }
      ],
      "stateMutability": "view",
      "type": "function",
      "constant": true
    }
  ],
  "bytecode": "0x608060405234801561001057600080fd5b506100203361002560201b60201c565b6101c7565b61003d81600061008360201b6101251790919060201c565b8073ffffffffffffffffffffffffffffffffffffffff167fddbf200aa634dc3fb81cfd68583dd1040d1c751d335e1d86b631bde3e977fea860405160405180910390a250565b600073ffffffffffffffffffffffffffffffffffffffff168173ffffffffffffffffffffffffffffffffffffffff1614156100bd57600080fd5b6100cd828261013560201b60201c565b156100d757600080fd5b60018260000160008373ffffffffffffffffffffffffffffffffffffffff1673ffffffffffffffffffffffffffffffffffffffff16815260200190815260200160002060006101000a81548160ff0219169083151502179055505050565b60008073ffffffffffffffffffffffffffffffffffffffff168273ffffffffffffffffffffffffffffffffffffffff16141561017057600080fd5b8260000160008373ffffffffffffffffffffffffffffffffffffffff1673ffffffffffffffffffffffffffffffffffffffff16815260200190815260200160002060009054906101000a900460ff16905092915050565b6104e8806101d66000396000f3fe608060405234801561001057600080fd5b506004361061004c5760003560e01c8063644241db146100515780637250e2241461005b5780638b424021146100775780638f0c86fa14610095575b600080fd5b6100596100c5565b005b61007560048036038101906100709190610425565b6100d0565b005b61007f6100ee565b60405161008c9190610461565b60405180910390f35b6100af60048036038101906100aa9190610425565b610108565b6040516100bc9190610497565b60405180910390f35b6100ce336101d1565b565b6100d933610108565b6100e257600080fd5b6100eb8161022b565b50565b60006100f933610108565b61010257600080fd5b33905090565b600061011e82600061028590919063ffffffff16565b9050919050565b600073ffffffffffffffffffffffffffffffffffffffff168173ffffffffffffffffffffffffffffffffffffffff16141561015f57600080fd5b6101698282610285565b1561017357600080fd5b60018260000160008373ffffffffffffffffffffffffffffffffffffffff1673ffffffffffffffffffffffffffffffffffffffff16815260200190815260200160002060006101000a81548160ff0219169083151502179055505050565b6101e581600061031790919063ffffffff16565b8073ffffffffffffffffffffffffffffffffffffffff167f126174f6cf49c81cdb4a9214c6b8f037bef55b4ec31e4fc776cea2a1c8a88d5960405160405180910390a250565b61023f81600061012590919063ffffffff16565b8073ffffffffffffffffffffffffffffffffffffffff167fddbf200aa634dc3fb81cfd68583dd1040d1c751d335e1d86b631bde3e977fea860405160405180910390a250565b60008073ffffffffffffffffffffffffffffffffffffffff168273ffffffffffffffffffffffffffffffffffffffff1614156102c057600080fd5b8260000160008373ffffffffffffffffffffffffffffffffffffffff1673ffffffffffffffffffffffffffffffffffffffff16815260200190815260200160002060009054906101000a900460ff16905092915050565b600073ffffffffffffffffffffffffffffffffffffffff168173ffffffffffffffffffffffffffffffffffffffff16141561035157600080fd5b61035b8282610285565b61036457600080fd5b60008260000160008373ffffffffffffffffffffffffffffffffffffffff1673ffffffffffffffffffffffffffffffffffffffff16815260200190815260200160002060006101000a81548160ff0219169083151502179055505050565b600080fd5b600073ffffffffffffffffffffffffffffffffffffffff82169050919050565b60006103f2826103c7565b9050919050565b610402816103e7565b811461040d57600080fd5b50565b60008135905061041f816103f9565b92915050565b60006020828403121561043b5761043a6103c2565b5b600061044984828501610410565b91505092915050565b61045b816103e7565b82525050565b60006020820190506104766000830184610452565b92915050565b60008115159050919050565b6104918161047c565b82525050565b60006020820190506104ac6000830184610488565b9291505056fea264697066735822122022a8b3d0cffcfdc5e284a44e76e15f4b61bb72d66709e2db894bc92d1f5033ac64736f6c634300080a0033",
  "immutableReferences": {},
  "source": "// SPDX-License-Identifier: MIT\npragma solidity ^0.8.0;\n\n// Import the library 'Roles'\nimport \"./Roles.sol\";\n\n// Define a contract 'DistributorRole' to manage this role - add, remove, check\ncontract DistributorRole {\n  using Roles for Roles.Role;\n\n  // Define 2 events, one for Adding, and other for Removing\n  event DistributorAdded(address indexed account);\n  event DistributorRemoved(address indexed account);\n\n  // Define a struct 'distributors' by inheriting from 'Roles' library, struct Role\n  Roles.Role private distributors;\n\n  // In the constructor make the address that deploys this contract the 1st distributor\n  constructor() {\n    _addDistributor(msg.sender);\n  }\n\n  // Define a modifier that checks to see if msg.sender has the appropriate role\n  modifier onlyDistributor() {\n    require(isDistributor(msg.sender));\n    _;\n  }\n\n  // Define a function 'isDistributor' to check this role\n  function isDistributor(address account) public view returns (bool) {\n    return distributors.has(account);\n  }\n\n  // Define a function 'addDistributor' that adds this role\n  function addDistributor(address account) public onlyDistributor {\n    _addDistributor(account);\n  }\n\n  // Define a function 'renounceDistributor' to renounce this role\n  function renounceDistributor() public {\n    _removeDistributor(msg.sender);\n  }\n\n  // Define an internal function '_addDistributor' to add this role, called by 'addDistributor'\n  function _addDistributor(address account) internal {\n    distributors.add(account);\n    emit DistributorAdded(account);\n  }\n\n  // Define an internal function '_removeDistributor' to remove this role, called by 'removeDistributor'\n  function _removeDistributor(address account) internal {\n    distributors.remove(account);\n    emit DistributorRemoved(account);\n  }\n\n  function checkDistributor() onlyDistributor() public view returns (address) {\n     return msg.sender;\n  }\n}",
  "sourcePath": "/Users/fernandomaximof/Documents/udacity-projects/project3/contracts/coffeeaccesscontrol/DistributorRole.sol",
  "compiler": {
    "name": "solc",
    "version": "0.8.10+commit.fc410830.Emscripten.clang"
  },
  "schemaVersion": "3.4.3",
  "updatedAt": "2021-12-09T10:27:25.210Z",
  "networkType": "ethereum",
  "devdoc": {
    "kind": "dev",
    "methods": {},
    "version": 1
  },
  "userdoc": {
    "kind": "user",
    "methods": {},
    "version": 1
  }
}