{
  "contractName": "RetailerRole",
  "abi": [
    {
      "inputs": [],
      "stateMutability": "nonpayable",
      "type": "constructor"
    },
    {
      "anonymous": false,
      "inputs": [
        {
          "indexed": true,
          "internalType": "address",
          "name": "account",
          "type": "address"
        }
      ],
      "name": "RetailerAdded",
      "type": "event"
    },
    {
      "anonymous": false,
      "inputs": [
        {
          "indexed": true,
          "internalType": "address",
          "name": "account",
          "type": "address"
        }
      ],
      "name": "RetailerRemoved",
      "type": "event"
    },
    {
      "inputs": [
        {
          "internalType": "address",
          "name": "account",
          "type": "address"
        }
      ],
      "name": "isRetailer",
      "outputs": [
        {
          "internalType": "bool",
          "name": "",
          "type": "bool"
        }
      ],
      "stateMutability": "view",
      "type": "function",
      "constant": true
    },
    {
      "inputs": [
        {
          "internalType": "address",
          "name": "account",
          "type": "address"
        }
      ],
      "name": "addRetailer",
      "outputs": [],
      "stateMutability": "nonpayable",
      "type": "function"
    },
    {
      "inputs": [],
      "name": "renounceRetailer",
      "outputs": [],
      "stateMutability": "nonpayable",
      "type": "function"
    },
    {
      "inputs": [],
      "name": "checkRetailer",
      "outputs": [
        {
          "internalType": "address",
          "name": "",
          "type": "address"
        }
      ],
      "stateMutability": "view",
      "type": "function",
      "constant": true
    }
  ],
  "bytecode": "0x608060405234801561001057600080fd5b506100203361002560201b60201c565b6101c7565b61003d81600061008360201b6101251790919060201c565b8073ffffffffffffffffffffffffffffffffffffffff167f71ae26cad02663e3d92efd6ec56031a80d74a20c0ab4183faa8bf262261c9baa60405160405180910390a250565b600073ffffffffffffffffffffffffffffffffffffffff168173ffffffffffffffffffffffffffffffffffffffff1614156100bd57600080fd5b6100cd828261013560201b60201c565b156100d757600080fd5b60018260000160008373ffffffffffffffffffffffffffffffffffffffff1673ffffffffffffffffffffffffffffffffffffffff16815260200190815260200160002060006101000a81548160ff0219169083151502179055505050565b60008073ffffffffffffffffffffffffffffffffffffffff168273ffffffffffffffffffffffffffffffffffffffff16141561017057600080fd5b8260000160008373ffffffffffffffffffffffffffffffffffffffff1673ffffffffffffffffffffffffffffffffffffffff16815260200190815260200160002060009054906101000a900460ff16905092915050565b6104e8806101d66000396000f3fe608060405234801561001057600080fd5b506004361061004c5760003560e01c80635da09b88146100515780638ec4f50514610081578063b35cc65e1461009d578063db0e6a2f146100bb575b600080fd5b61006b60048036038101906100669190610425565b6100c5565b604051610078919061046d565b60405180910390f35b61009b60048036038101906100969190610425565b6100e2565b005b6100a5610100565b6040516100b29190610497565b60405180910390f35b6100c361011a565b005b60006100db8260006101d190919063ffffffff16565b9050919050565b6100eb336100c5565b6100f457600080fd5b6100fd81610263565b50565b600061010b336100c5565b61011457600080fd5b33905090565b610123336102bd565b565b600073ffffffffffffffffffffffffffffffffffffffff168173ffffffffffffffffffffffffffffffffffffffff16141561015f57600080fd5b61016982826101d1565b1561017357600080fd5b60018260000160008373ffffffffffffffffffffffffffffffffffffffff1673ffffffffffffffffffffffffffffffffffffffff16815260200190815260200160002060006101000a81548160ff0219169083151502179055505050565b60008073ffffffffffffffffffffffffffffffffffffffff168273ffffffffffffffffffffffffffffffffffffffff16141561020c57600080fd5b8260000160008373ffffffffffffffffffffffffffffffffffffffff1673ffffffffffffffffffffffffffffffffffffffff16815260200190815260200160002060009054906101000a900460ff16905092915050565b61027781600061012590919063ffffffff16565b8073ffffffffffffffffffffffffffffffffffffffff167f71ae26cad02663e3d92efd6ec56031a80d74a20c0ab4183faa8bf262261c9baa60405160405180910390a250565b6102d181600061031790919063ffffffff16565b8073ffffffffffffffffffffffffffffffffffffffff167fdb7176e79cffef81cb01767dd0447a0b24bb72ca9778d4b245581086b2a7e6db60405160405180910390a250565b600073ffffffffffffffffffffffffffffffffffffffff168173ffffffffffffffffffffffffffffffffffffffff16141561035157600080fd5b61035b82826101d1565b61036457600080fd5b60008260000160008373ffffffffffffffffffffffffffffffffffffffff1673ffffffffffffffffffffffffffffffffffffffff16815260200190815260200160002060006101000a81548160ff0219169083151502179055505050565b600080fd5b600073ffffffffffffffffffffffffffffffffffffffff82169050919050565b60006103f2826103c7565b9050919050565b610402816103e7565b811461040d57600080fd5b50565b60008135905061041f816103f9565b92915050565b60006020828403121561043b5761043a6103c2565b5b600061044984828501610410565b91505092915050565b60008115159050919050565b61046781610452565b82525050565b6000602082019050610482600083018461045e565b92915050565b610491816103e7565b82525050565b60006020820190506104ac6000830184610488565b9291505056fea264697066735822122018ad2a16ea04458c68f619dc1e4ed206d00cd402e38cb5bb2ee1eb4e82ca2f9a64736f6c634300080a0033",
  "immutableReferences": {},
  "source": "// SPDX-License-Identifier: MIT\npragma solidity ^0.8.0;\n\n// Import the library 'Roles'\nimport \"./Roles.sol\";\n\n// Define a contract 'RetailerRole' to manage this role - add, remove, check\ncontract RetailerRole {\n  using Roles for Roles.Role;\n\n  // Define 2 events, one for Adding, and other for Removing\n  event RetailerAdded(address indexed account);\n  event RetailerRemoved(address indexed account);  \n\n  // Define a struct 'retailers' by inheriting from 'Roles' library, struct Role\n  Roles.Role private retailers;\n\n  // In the constructor make the address that deploys this contract the 1st retailer\n  constructor() {\n    _addRetailer(msg.sender);    \n  }\n\n  // Define a modifier that checks to see if msg.sender has the appropriate role\n  modifier onlyRetailer() {\n    require(isRetailer(msg.sender));\n    _;\n  }\n\n  // Define a function 'isRetailer' to check this role\n  function isRetailer(address account) public view returns (bool) {\n    return retailers.has(account);\n  }\n\n  // Define a function 'addRetailer' that adds this role\n  function addRetailer(address account) public onlyRetailer {\n    _addRetailer(account);\n  }\n\n  // Define a function 'renounceRetailer' to renounce this role\n  function renounceRetailer() public {\n    _removeRetailer(msg.sender);\n  }\n\n  // Define an internal function '_addRetailer' to add this role, called by 'addRetailer'\n  function _addRetailer(address account) internal {\n    retailers.add(account);\n    emit RetailerAdded(account);\n  }\n\n  // Define an internal function '_removeRetailer' to remove this role, called by 'removeRetailer'\n  function _removeRetailer(address account) internal {\n    retailers.remove(account);\n    emit RetailerRemoved(account);\n  }\n\n  function checkRetailer() onlyRetailer() public view returns (address) {\n     return msg.sender;\n  }\n}",
  "sourcePath": "/Users/fernandomaximof/Documents/udacity-projects/project3/contracts/coffeeaccesscontrol/RetailerRole.sol",
  "compiler": {
    "name": "solc",
    "version": "0.8.10+commit.fc410830.Emscripten.clang"
  },
  "schemaVersion": "3.4.3",
  "updatedAt": "2021-12-11T10:01:05.418Z",
  "networkType": "ethereum",
  "devdoc": {
    "kind": "dev",
    "methods": {},
    "version": 1
  },
  "userdoc": {
    "kind": "user",
    "methods": {},
    "version": 1
  }
}