{
  "contractName": "SupplyChain",
  "abi": [
    {
      "inputs": [],
      "stateMutability": "nonpayable",
      "type": "constructor"
    },
    {
      "anonymous": false,
      "inputs": [
        {
          "indexed": true,
          "internalType": "address",
          "name": "account",
          "type": "address"
        }
      ],
      "name": "ConsumerAdded",
      "type": "event"
    },
    {
      "anonymous": false,
      "inputs": [
        {
          "indexed": true,
          "internalType": "address",
          "name": "account",
          "type": "address"
        }
      ],
      "name": "ConsumerRemoved",
      "type": "event"
    },
    {
      "anonymous": false,
      "inputs": [
        {
          "indexed": true,
          "internalType": "address",
          "name": "account",
          "type": "address"
        }
      ],
      "name": "DistributorAdded",
      "type": "event"
    },
    {
      "anonymous": false,
      "inputs": [
        {
          "indexed": true,
          "internalType": "address",
          "name": "account",
          "type": "address"
        }
      ],
      "name": "DistributorRemoved",
      "type": "event"
    },
    {
      "anonymous": false,
      "inputs": [
        {
          "indexed": true,
          "internalType": "address",
          "name": "account",
          "type": "address"
        }
      ],
      "name": "FarmerAdded",
      "type": "event"
    },
    {
      "anonymous": false,
      "inputs": [
        {
          "indexed": true,
          "internalType": "address",
          "name": "account",
          "type": "address"
        }
      ],
      "name": "FarmerRemoved",
      "type": "event"
    },
    {
      "anonymous": false,
      "inputs": [
        {
          "indexed": false,
          "internalType": "uint256",
          "name": "upc",
          "type": "uint256"
        }
      ],
      "name": "ForSale",
      "type": "event"
    },
    {
      "anonymous": false,
      "inputs": [
        {
          "indexed": false,
          "internalType": "uint256",
          "name": "upc",
          "type": "uint256"
        }
      ],
      "name": "Harvested",
      "type": "event"
    },
    {
      "anonymous": false,
      "inputs": [
        {
          "indexed": false,
          "internalType": "uint256",
          "name": "upc",
          "type": "uint256"
        }
      ],
      "name": "Packed",
      "type": "event"
    },
    {
      "anonymous": false,
      "inputs": [
        {
          "indexed": false,
          "internalType": "uint256",
          "name": "upc",
          "type": "uint256"
        }
      ],
      "name": "Processed",
      "type": "event"
    },
    {
      "anonymous": false,
      "inputs": [
        {
          "indexed": false,
          "internalType": "uint256",
          "name": "upc",
          "type": "uint256"
        }
      ],
      "name": "Purchased",
      "type": "event"
    },
    {
      "anonymous": false,
      "inputs": [
        {
          "indexed": false,
          "internalType": "uint256",
          "name": "upc",
          "type": "uint256"
        }
      ],
      "name": "Received",
      "type": "event"
    },
    {
      "anonymous": false,
      "inputs": [
        {
          "indexed": true,
          "internalType": "address",
          "name": "account",
          "type": "address"
        }
      ],
      "name": "RetailerAdded",
      "type": "event"
    },
    {
      "anonymous": false,
      "inputs": [
        {
          "indexed": true,
          "internalType": "address",
          "name": "account",
          "type": "address"
        }
      ],
      "name": "RetailerRemoved",
      "type": "event"
    },
    {
      "anonymous": false,
      "inputs": [
        {
          "indexed": false,
          "internalType": "uint256",
          "name": "upc",
          "type": "uint256"
        }
      ],
      "name": "Shipped",
      "type": "event"
    },
    {
      "anonymous": false,
      "inputs": [
        {
          "indexed": false,
          "internalType": "uint256",
          "name": "upc",
          "type": "uint256"
        }
      ],
      "name": "Sold",
      "type": "event"
    },
    {
      "anonymous": false,
      "inputs": [
        {
          "indexed": true,
          "internalType": "address",
          "name": "oldOwner",
          "type": "address"
        },
        {
          "indexed": true,
          "internalType": "address",
          "name": "newOwner",
          "type": "address"
        }
      ],
      "name": "TransferOwnership",
      "type": "event"
    },
    {
      "inputs": [
        {
          "internalType": "address",
          "name": "account",
          "type": "address"
        }
      ],
      "name": "addConsumer",
      "outputs": [],
      "stateMutability": "nonpayable",
      "type": "function"
    },
    {
      "inputs": [
        {
          "internalType": "address",
          "name": "account",
          "type": "address"
        }
      ],
      "name": "addDistributor",
      "outputs": [],
      "stateMutability": "nonpayable",
      "type": "function"
    },
    {
      "inputs": [
        {
          "internalType": "address",
          "name": "account",
          "type": "address"
        }
      ],
      "name": "addFarmer",
      "outputs": [],
      "stateMutability": "nonpayable",
      "type": "function"
    },
    {
      "inputs": [
        {
          "internalType": "address",
          "name": "account",
          "type": "address"
        }
      ],
      "name": "addRetailer",
      "outputs": [],
      "stateMutability": "nonpayable",
      "type": "function"
    },
    {
      "inputs": [],
      "name": "checkConsumer",
      "outputs": [
        {
          "internalType": "address",
          "name": "",
          "type": "address"
        }
      ],
      "stateMutability": "view",
      "type": "function",
      "constant": true
    },
    {
      "inputs": [],
      "name": "checkDistributor",
      "outputs": [
        {
          "internalType": "address",
          "name": "",
          "type": "address"
        }
      ],
      "stateMutability": "view",
      "type": "function",
      "constant": true
    },
    {
      "inputs": [],
      "name": "checkRetailer",
      "outputs": [
        {
          "internalType": "address",
          "name": "",
          "type": "address"
        }
      ],
      "stateMutability": "view",
      "type": "function",
      "constant": true
    },
    {
      "inputs": [
        {
          "internalType": "address",
          "name": "account",
          "type": "address"
        }
      ],
      "name": "isConsumer",
      "outputs": [
        {
          "internalType": "bool",
          "name": "",
          "type": "bool"
        }
      ],
      "stateMutability": "view",
      "type": "function",
      "constant": true
    },
    {
      "inputs": [
        {
          "internalType": "address",
          "name": "account",
          "type": "address"
        }
      ],
      "name": "isDistributor",
      "outputs": [
        {
          "internalType": "bool",
          "name": "",
          "type": "bool"
        }
      ],
      "stateMutability": "view",
      "type": "function",
      "constant": true
    },
    {
      "inputs": [
        {
          "internalType": "address",
          "name": "account",
          "type": "address"
        }
      ],
      "name": "isFarmer",
      "outputs": [
        {
          "internalType": "bool",
          "name": "",
          "type": "bool"
        }
      ],
      "stateMutability": "view",
      "type": "function",
      "constant": true
    },
    {
      "inputs": [],
      "name": "isOwner",
      "outputs": [
        {
          "internalType": "bool",
          "name": "",
          "type": "bool"
        }
      ],
      "stateMutability": "view",
      "type": "function",
      "constant": true
    },
    {
      "inputs": [
        {
          "internalType": "address",
          "name": "account",
          "type": "address"
        }
      ],
      "name": "isRetailer",
      "outputs": [
        {
          "internalType": "bool",
          "name": "",
          "type": "bool"
        }
      ],
      "stateMutability": "view",
      "type": "function",
      "constant": true
    },
    {
      "inputs": [],
      "name": "ownerOri",
      "outputs": [
        {
          "internalType": "address",
          "name": "",
          "type": "address"
        }
      ],
      "stateMutability": "view",
      "type": "function",
      "constant": true
    },
    {
      "inputs": [],
      "name": "renounceConsumer",
      "outputs": [],
      "stateMutability": "nonpayable",
      "type": "function"
    },
    {
      "inputs": [],
      "name": "renounceDistributor",
      "outputs": [],
      "stateMutability": "nonpayable",
      "type": "function"
    },
    {
      "inputs": [],
      "name": "renounceFarmer",
      "outputs": [],
      "stateMutability": "nonpayable",
      "type": "function"
    },
    {
      "inputs": [],
      "name": "renounceOwnership",
      "outputs": [],
      "stateMutability": "nonpayable",
      "type": "function"
    },
    {
      "inputs": [],
      "name": "renounceRetailer",
      "outputs": [],
      "stateMutability": "nonpayable",
      "type": "function"
    },
    {
      "inputs": [
        {
          "internalType": "address",
          "name": "newOwner",
          "type": "address"
        }
      ],
      "name": "transferOwnership",
      "outputs": [],
      "stateMutability": "nonpayable",
      "type": "function"
    },
    {
      "inputs": [],
      "name": "kill",
      "outputs": [],
      "stateMutability": "nonpayable",
      "type": "function"
    },
    {
      "inputs": [
        {
          "internalType": "uint256",
          "name": "_upc",
          "type": "uint256"
        },
        {
          "internalType": "address payable",
          "name": "_originFarmerID",
          "type": "address"
        },
        {
          "internalType": "string",
          "name": "_originFarmName",
          "type": "string"
        },
        {
          "internalType": "string",
          "name": "_originFarmInformation",
          "type": "string"
        },
        {
          "internalType": "string",
          "name": "_originFarmLatitude",
          "type": "string"
        },
        {
          "internalType": "string",
          "name": "_originFarmLongitude",
          "type": "string"
        },
        {
          "internalType": "string",
          "name": "_productNotes",
          "type": "string"
        }
      ],
      "name": "harvestItem",
      "outputs": [],
      "stateMutability": "nonpayable",
      "type": "function"
    },
    {
      "inputs": [
        {
          "internalType": "uint256",
          "name": "_upc",
          "type": "uint256"
        }
      ],
      "name": "processItem",
      "outputs": [],
      "stateMutability": "nonpayable",
      "type": "function"
    },
    {
      "inputs": [
        {
          "internalType": "uint256",
          "name": "_upc",
          "type": "uint256"
        }
      ],
      "name": "packItem",
      "outputs": [],
      "stateMutability": "nonpayable",
      "type": "function"
    },
    {
      "inputs": [
        {
          "internalType": "uint256",
          "name": "_upc",
          "type": "uint256"
        },
        {
          "internalType": "uint256",
          "name": "_price",
          "type": "uint256"
        }
      ],
      "name": "sellItem",
      "outputs": [],
      "stateMutability": "nonpayable",
      "type": "function"
    },
    {
      "inputs": [
        {
          "internalType": "uint256",
          "name": "_upc",
          "type": "uint256"
        }
      ],
      "name": "buyItem",
      "outputs": [],
      "stateMutability": "payable",
      "type": "function",
      "payable": true
    },
    {
      "inputs": [
        {
          "internalType": "uint256",
          "name": "_upc",
          "type": "uint256"
        }
      ],
      "name": "shipItem",
      "outputs": [],
      "stateMutability": "nonpayable",
      "type": "function"
    },
    {
      "inputs": [
        {
          "internalType": "uint256",
          "name": "_upc",
          "type": "uint256"
        }
      ],
      "name": "receiveItem",
      "outputs": [],
      "stateMutability": "payable",
      "type": "function",
      "payable": true
    },
    {
      "inputs": [
        {
          "internalType": "uint256",
          "name": "_upc",
          "type": "uint256"
        }
      ],
      "name": "purchaseItem",
      "outputs": [],
      "stateMutability": "payable",
      "type": "function",
      "payable": true
    },
    {
      "inputs": [
        {
          "internalType": "uint256",
          "name": "_upc",
          "type": "uint256"
        }
      ],
      "name": "fetchItemBufferOne",
      "outputs": [
        {
          "internalType": "uint256",
          "name": "itemSKU",
          "type": "uint256"
        },
        {
          "internalType": "uint256",
          "name": "itemUPC",
          "type": "uint256"
        },
        {
          "internalType": "address",
          "name": "ownerID",
          "type": "address"
        },
        {
          "internalType": "address",
          "name": "originFarmerID",
          "type": "address"
        },
        {
          "internalType": "string",
          "name": "originFarmName",
          "type": "string"
        },
        {
          "internalType": "string",
          "name": "originFarmInformation",
          "type": "string"
        },
        {
          "internalType": "string",
          "name": "originFarmLatitude",
          "type": "string"
        },
        {
          "internalType": "string",
          "name": "originFarmLongitude",
          "type": "string"
        }
      ],
      "stateMutability": "view",
      "type": "function",
      "constant": true
    },
    {
      "inputs": [
        {
          "internalType": "uint256",
          "name": "_upc",
          "type": "uint256"
        }
      ],
      "name": "fetchItemBufferTwo",
      "outputs": [
        {
          "internalType": "uint256",
          "name": "itemSKU",
          "type": "uint256"
        },
        {
          "internalType": "uint256",
          "name": "itemUPC",
          "type": "uint256"
        },
        {
          "internalType": "uint256",
          "name": "productID",
          "type": "uint256"
        },
        {
          "internalType": "string",
          "name": "productNotes",
          "type": "string"
        },
        {
          "internalType": "uint256",
          "name": "productPrice",
          "type": "uint256"
        },
        {
          "internalType": "uint256",
          "name": "itemState",
          "type": "uint256"
        },
        {
          "internalType": "address",
          "name": "distributorID",
          "type": "address"
        },
        {
          "internalType": "address",
          "name": "retailerID",
          "type": "address"
        },
        {
          "internalType": "address",
          "name": "consumerID",
          "type": "address"
        }
      ],
      "stateMutability": "view",
      "type": "function",
      "constant": true
    }
  ],
  "bytecode": "0x60806040523480156200001157600080fd5b5062000023336200017f60201b60201c565b6200003433620001e060201b60201c565b62000045336200024160201b60201c565b6200005633620002a260201b60201c565b33600460006101000a81548173ffffffffffffffffffffffffffffffffffffffff021916908373ffffffffffffffffffffffffffffffffffffffff160217905550600460009054906101000a900473ffffffffffffffffffffffffffffffffffffffff1673ffffffffffffffffffffffffffffffffffffffff16600073ffffffffffffffffffffffffffffffffffffffff167f5c486528ec3e3f0ea91181cff8116f02bfa350e03b8b6f12e00765adbb5af85c60405160405180910390a3620001296200030360201b6200192f1760201c565b600560006101000a81548173ffffffffffffffffffffffffffffffffffffffff021916908373ffffffffffffffffffffffffffffffffffffffff1602179055506001600781905550600160068190555062000476565b6200019a8160006200032d60201b62001e131790919060201c565b8073ffffffffffffffffffffffffffffffffffffffff167f2e0ded4123377a3c2bc9a26f1717655a129e2f20752924d42e730ec89c83dbd060405160405180910390a250565b620001fb8160016200032d60201b62001e131790919060201c565b8073ffffffffffffffffffffffffffffffffffffffff167fddbf200aa634dc3fb81cfd68583dd1040d1c751d335e1d86b631bde3e977fea860405160405180910390a250565b6200025c8160026200032d60201b62001e131790919060201c565b8073ffffffffffffffffffffffffffffffffffffffff167f71ae26cad02663e3d92efd6ec56031a80d74a20c0ab4183faa8bf262261c9baa60405160405180910390a250565b620002bd8160036200032d60201b62001e131790919060201c565b8073ffffffffffffffffffffffffffffffffffffffff167f28b26e7a3d20aedbc5f8f2ebf7da671c0491723a2b78f47a097b0e46dee0714260405160405180910390a250565b6000600460009054906101000a900473ffffffffffffffffffffffffffffffffffffffff16905090565b600073ffffffffffffffffffffffffffffffffffffffff168173ffffffffffffffffffffffffffffffffffffffff1614156200036857600080fd5b6200037a8282620003e360201b60201c565b156200038557600080fd5b60018260000160008373ffffffffffffffffffffffffffffffffffffffff1673ffffffffffffffffffffffffffffffffffffffff16815260200190815260200160002060006101000a81548160ff0219169083151502179055505050565b60008073ffffffffffffffffffffffffffffffffffffffff168273ffffffffffffffffffffffffffffffffffffffff1614156200041f57600080fd5b8260000160008373ffffffffffffffffffffffffffffffffffffffff1673ffffffffffffffffffffffffffffffffffffffff16815260200190815260200160002060009054906101000a900460ff16905092915050565b612c1c80620004866000396000f3fe6080604052600436106101cd5760003560e01c80638ec4f505116100f7578063bdd8a6a811610095578063e7fb74c711610064578063e7fb74c714610607578063f2fde38b14610623578063f30fc4801461064c578063f61c899a14610675576101cd565b8063bdd8a6a814610580578063d38ea5bf146105a9578063db0e6a2f146105c5578063e2b4d24d146105dc576101cd565b8063a26be999116100d1578063a26be999146104d1578063adba6520146104ed578063b35cc65e14610518578063b942906914610543576101cd565b80638ec4f505146104405780638f0c86fa146104695780638f32d59b146104a6576101cd565b806366225ff91161016f57806380c3f96d1161013e57806380c3f96d1461039857806380fc0ce4146103c1578063834ff739146103d85780638b42402114610415576101cd565b806366225ff9146102cf578063715018a6146103145780637250e2241461032b57806377c4591314610354576101cd565b806349dae766116101ab57806349dae7661461023b5780635da09b881461026457806361e6982d146102a1578063644241db146102b8576101cd565b8063112940f9146101d25780632d923561146101fb57806341c0e1b514610224575b600080fd5b3480156101de57600080fd5b506101f960048036038101906101f491906124db565b61069e565b005b34801561020757600080fd5b50610222600480360381019061021d919061253e565b6106bc565b005b34801561023057600080fd5b506102396107b9565b005b34801561024757600080fd5b50610262600480360381019061025d919061257e565b61084c565b005b34801561027057600080fd5b5061028b600480360381019061028691906124db565b61092d565b60405161029891906125c6565b60405180910390f35b3480156102ad57600080fd5b506102b661094a565b005b3480156102c457600080fd5b506102cd610955565b005b3480156102db57600080fd5b506102f660048036038101906102f1919061257e565b610960565b60405161030b99989796959493929190612698565b60405180910390f35b34801561032057600080fd5b50610329610b64565b005b34801561033757600080fd5b50610352600480360381019061034d91906124db565b610c36565b005b34801561036057600080fd5b5061037b6004803603810190610376919061257e565b610c54565b60405161038f98979695949392919061272c565b60405180910390f35b3480156103a457600080fd5b506103bf60048036038101906103ba91906124db565b610f93565b005b3480156103cd57600080fd5b506103d6610fb1565b005b3480156103e457600080fd5b506103ff60048036038101906103fa91906124db565b610fbc565b60405161040c91906125c6565b60405180910390f35b34801561042157600080fd5b5061042a610fd9565b60405161043791906127c6565b60405180910390f35b34801561044c57600080fd5b50610467600480360381019061046291906124db565b610ff3565b005b34801561047557600080fd5b50610490600480360381019061048b91906124db565b611011565b60405161049d91906125c6565b60405180910390f35b3480156104b257600080fd5b506104bb61102e565b6040516104c891906125c6565b60405180910390f35b6104eb60048036038101906104e6919061257e565b611086565b005b3480156104f957600080fd5b50610502611361565b60405161050f91906127c6565b60405180910390f35b34801561052457600080fd5b5061052d61137b565b60405161053a91906127c6565b60405180910390f35b34801561054f57600080fd5b5061056a600480360381019061056591906124db565b611395565b60405161057791906125c6565b60405180910390f35b34801561058c57600080fd5b506105a760048036038101906105a29190612954565b6113b2565b005b6105c360048036038101906105be919061257e565b611649565b005b3480156105d157600080fd5b506105da611924565b005b3480156105e857600080fd5b506105f161192f565b6040516105fe91906127c6565b60405180910390f35b610621600480360381019061061c919061257e565b611959565b005b34801561062f57600080fd5b5061064a600480360381019061064591906124db565b611c34565b005b34801561065857600080fd5b50610673600480360381019061066e919061257e565b611c51565b005b34801561068157600080fd5b5061069c6004803603810190610697919061257e565b611d32565b005b6106a733610fbc565b6106b057600080fd5b6106b981611ebf565b50565b81600260078111156106d1576106d0612a82565b5b60086000838152602001908152602001600020600b0160009054906101000a900460ff16600781111561070757610706612a82565b5b1461071157600080fd5b61071a33611395565b61072357600080fd5b600360086000858152602001908152602001600020600b0160006101000a81548160ff0219169083600781111561075d5761075c612a82565b5b02179055508160086000858152602001908152602001600020600a01819055507fa96ae0fc3224ebd79eebfe54bd130cc9cb94416cddd1f2386115e00b72532468836040516107ac9190612ab1565b60405180910390a1505050565b600560009054906101000a900473ffffffffffffffffffffffffffffffffffffffff1673ffffffffffffffffffffffffffffffffffffffff163373ffffffffffffffffffffffffffffffffffffffff16141561084a57600560009054906101000a900473ffffffffffffffffffffffffffffffffffffffff1673ffffffffffffffffffffffffffffffffffffffff16ff5b565b806000600781111561086157610860612a82565b5b60086000838152602001908152602001600020600b0160009054906101000a900460ff16600781111561089757610896612a82565b5b146108a157600080fd5b6108aa33611395565b6108b357600080fd5b600160086000848152602001908152602001600020600b0160006101000a81548160ff021916908360078111156108ed576108ec612a82565b5b02179055507f5afe3b1bf87069693c075da5c22a98d63d1aef98a30dbbe538d0781a98b77ee5826040516109219190612ab1565b60405180910390a15050565b6000610943826002611f1990919063ffffffff16565b9050919050565b61095333611fab565b565b61095e33612005565b565b600080600060606000806000806000600860008b8152602001908152602001600020600001549850600860008b8152602001908152602001600020600101549750600860008b8152602001908152602001600020600801549650600860008b815260200190815260200160002060090180546109db90612afb565b80601f0160208091040260200160405190810160405280929190818152602001828054610a0790612afb565b8015610a545780601f10610a2957610100808354040283529160200191610a54565b820191906000526020600020905b815481529060010190602001808311610a3757829003601f168201915b50505050509550600860008b8152602001908152602001600020600a01549450600860008b8152602001908152602001600020600b0160009054906101000a900460ff166007811115610aaa57610aa9612a82565b5b9350600860008b8152602001908152602001600020600b0160019054906101000a900473ffffffffffffffffffffffffffffffffffffffff169250600860008b8152602001908152602001600020600c0160009054906101000a900473ffffffffffffffffffffffffffffffffffffffff169150600860008b8152602001908152602001600020600d0160009054906101000a900473ffffffffffffffffffffffffffffffffffffffff1690509193959799909294969850565b610b6c61102e565b610b7557600080fd5b600073ffffffffffffffffffffffffffffffffffffffff16600460009054906101000a900473ffffffffffffffffffffffffffffffffffffffff1673ffffffffffffffffffffffffffffffffffffffff167f5c486528ec3e3f0ea91181cff8116f02bfa350e03b8b6f12e00765adbb5af85c60405160405180910390a36000600460006101000a81548173ffffffffffffffffffffffffffffffffffffffff021916908373ffffffffffffffffffffffffffffffffffffffff160217905550565b610c3f33611011565b610c4857600080fd5b610c518161205f565b50565b600080600080606080606080600860008a8152602001908152602001600020600001549750600860008a8152602001908152602001600020600101549650600860008a815260200190815260200160002060020160009054906101000a900473ffffffffffffffffffffffffffffffffffffffff169550600860008a815260200190815260200160002060030160009054906101000a900473ffffffffffffffffffffffffffffffffffffffff169450600860008a81526020019081526020016000206004018054610d2590612afb565b80601f0160208091040260200160405190810160405280929190818152602001828054610d5190612afb565b8015610d9e5780601f10610d7357610100808354040283529160200191610d9e565b820191906000526020600020905b815481529060010190602001808311610d8157829003601f168201915b50505050509350600860008a81526020019081526020016000206005018054610dc690612afb565b80601f0160208091040260200160405190810160405280929190818152602001828054610df290612afb565b8015610e3f5780601f10610e1457610100808354040283529160200191610e3f565b820191906000526020600020905b815481529060010190602001808311610e2257829003601f168201915b50505050509250600860008a81526020019081526020016000206006018054610e6790612afb565b80601f0160208091040260200160405190810160405280929190818152602001828054610e9390612afb565b8015610ee05780601f10610eb557610100808354040283529160200191610ee0565b820191906000526020600020905b815481529060010190602001808311610ec357829003601f168201915b50505050509150600860008a81526020019081526020016000206007018054610f0890612afb565b80601f0160208091040260200160405190810160405280929190818152602001828054610f3490612afb565b8015610f815780601f10610f5657610100808354040283529160200191610f81565b820191906000526020600020905b815481529060010190602001808311610f6457829003601f168201915b50505050509050919395975091939597565b610f9c33611395565b610fa557600080fd5b610fae816120b9565b50565b610fba33612113565b565b6000610fd2826003611f1990919063ffffffff16565b9050919050565b6000610fe433611011565b610fed57600080fd5b33905090565b610ffc3361092d565b61100557600080fd5b61100e8161216d565b50565b6000611027826001611f1990919063ffffffff16565b9050919050565b6000600460009054906101000a900473ffffffffffffffffffffffffffffffffffffffff1673ffffffffffffffffffffffffffffffffffffffff163373ffffffffffffffffffffffffffffffffffffffff1614905090565b806005600781111561109b5761109a612a82565b5b60086000838152602001908152602001600020600b0160009054906101000a900460ff1660078111156110d1576110d0612a82565b5b146110db57600080fd5b60086000838152602001908152602001600020600a0154803410156110ff57600080fd5b82600060086000838152602001908152602001600020600a01549050600081346111299190612b5c565b9050600560009054906101000a900473ffffffffffffffffffffffffffffffffffffffff1673ffffffffffffffffffffffffffffffffffffffff166108fc829081150290604051600060405180830381858888f19350505050158015611193573d6000803e3d6000fd5b5061119d3361092d565b6111a657600080fd5b60086000878152602001908152602001600020600b0160019054906101000a900473ffffffffffffffffffffffffffffffffffffffff1673ffffffffffffffffffffffffffffffffffffffff166108fc60086000898152602001908152602001600020600a01549081150290604051600060405180830381858888f19350505050158015611238573d6000803e3d6000fd5b50336008600088815260200190815260200160002060020160006101000a81548173ffffffffffffffffffffffffffffffffffffffff021916908373ffffffffffffffffffffffffffffffffffffffff1602179055503360086000888152602001908152602001600020600c0160006101000a81548173ffffffffffffffffffffffffffffffffffffffff021916908373ffffffffffffffffffffffffffffffffffffffff160217905550600660086000888152602001908152602001600020600b0160006101000a81548160ff0219169083600781111561131d5761131c612a82565b5b02179055507fa8142743f8f70a4c26f3691cf4ed59718381fb2f18070ec52be1f1022d855557866040516113519190612ab1565b60405180910390a1505050505050565b600061136c33610fbc565b61137557600080fd5b33905090565b60006113863361092d565b61138f57600080fd5b33905090565b60006113ab826000611f1990919063ffffffff16565b9050919050565b6007546008600089815260200190815260200160002060000181905550866008600089815260200190815260200160002060010181905550600560009054906101000a900473ffffffffffffffffffffffffffffffffffffffff166008600089815260200190815260200160002060020160006101000a81548173ffffffffffffffffffffffffffffffffffffffff021916908373ffffffffffffffffffffffffffffffffffffffff160217905550856008600089815260200190815260200160002060030160006101000a81548173ffffffffffffffffffffffffffffffffffffffff021916908373ffffffffffffffffffffffffffffffffffffffff160217905550846008600089815260200190815260200160002060040190805190602001906114e09291906123c6565b508360086000898152602001908152602001600020600501908051906020019061150b9291906123c6565b50826008600089815260200190815260200160002060060190805190602001906115369291906123c6565b50816008600089815260200190815260200160002060070190805190602001906115619291906123c6565b50600754876115709190612b90565b6008600089815260200190815260200160002060080181905550806008600089815260200190815260200160002060090190805190602001906115b49291906123c6565b50600060086000898152602001908152602001600020600b0160006101000a81548160ff021916908360078111156115ef576115ee612a82565b5b021790555060016007546116039190612b90565b6007819055507f8e55ccfc9778ff8eba1646d765cf1982537ce0f9257054a17b48aad745250183876040516116389190612ab1565b60405180910390a150505050505050565b806006600781111561165e5761165d612a82565b5b60086000838152602001908152602001600020600b0160009054906101000a900460ff16600781111561169457611693612a82565b5b1461169e57600080fd5b60086000838152602001908152602001600020600a0154803410156116c257600080fd5b82600060086000838152602001908152602001600020600a01549050600081346116ec9190612b5c565b9050600560009054906101000a900473ffffffffffffffffffffffffffffffffffffffff1673ffffffffffffffffffffffffffffffffffffffff166108fc829081150290604051600060405180830381858888f19350505050158015611756573d6000803e3d6000fd5b5061176033610fbc565b61176957600080fd5b60086000878152602001908152602001600020600c0160009054906101000a900473ffffffffffffffffffffffffffffffffffffffff1673ffffffffffffffffffffffffffffffffffffffff166108fc60086000898152602001908152602001600020600a01549081150290604051600060405180830381858888f193505050501580156117fb573d6000803e3d6000fd5b50336008600088815260200190815260200160002060020160006101000a81548173ffffffffffffffffffffffffffffffffffffffff021916908373ffffffffffffffffffffffffffffffffffffffff1602179055503360086000888152602001908152602001600020600d0160006101000a81548173ffffffffffffffffffffffffffffffffffffffff021916908373ffffffffffffffffffffffffffffffffffffffff160217905550600760086000888152602001908152602001600020600b0160006101000a81548160ff021916908360078111156118e0576118df612a82565b5b02179055507f653d56639fee6b566a5c804764e9689de38645f0b733df89a36a1b7b42173dd8866040516119149190612ab1565b60405180910390a1505050505050565b61192d336121c7565b565b6000600460009054906101000a900473ffffffffffffffffffffffffffffffffffffffff16905090565b806003600781111561196e5761196d612a82565b5b60086000838152602001908152602001600020600b0160009054906101000a900460ff1660078111156119a4576119a3612a82565b5b146119ae57600080fd5b60086000838152602001908152602001600020600a0154803410156119d257600080fd5b82600060086000838152602001908152602001600020600a01549050600081346119fc9190612b5c565b9050600560009054906101000a900473ffffffffffffffffffffffffffffffffffffffff1673ffffffffffffffffffffffffffffffffffffffff166108fc829081150290604051600060405180830381858888f19350505050158015611a66573d6000803e3d6000fd5b50611a7033611011565b611a7957600080fd5b6008600087815260200190815260200160002060030160009054906101000a900473ffffffffffffffffffffffffffffffffffffffff1673ffffffffffffffffffffffffffffffffffffffff166108fc60086000898152602001908152602001600020600a01549081150290604051600060405180830381858888f19350505050158015611b0b573d6000803e3d6000fd5b50336008600088815260200190815260200160002060020160006101000a81548173ffffffffffffffffffffffffffffffffffffffff021916908373ffffffffffffffffffffffffffffffffffffffff1602179055503360086000888152602001908152602001600020600b0160016101000a81548173ffffffffffffffffffffffffffffffffffffffff021916908373ffffffffffffffffffffffffffffffffffffffff160217905550600460086000888152602001908152602001600020600b0160006101000a81548160ff02191690836007811115611bf057611bef612a82565b5b02179055507f92f64ca637d023f354075a4be751b169c1a8a9ccb6d33cdd0cb352054399572786604051611c249190612ab1565b60405180910390a1505050505050565b611c3c61102e565b611c4557600080fd5b611c4e81612221565b50565b8060016007811115611c6657611c65612a82565b5b60086000838152602001908152602001600020600b0160009054906101000a900460ff166007811115611c9c57611c9b612a82565b5b14611ca657600080fd5b611caf33611395565b611cb857600080fd5b600260086000848152602001908152602001600020600b0160006101000a81548160ff02191690836007811115611cf257611cf1612a82565b5b02179055507f9b3b66e2380b690bae22c73ef1428fb0c91e72fe14a4b6defa13035214187aff82604051611d269190612ab1565b60405180910390a15050565b8060046007811115611d4757611d46612a82565b5b60086000838152602001908152602001600020600b0160009054906101000a900460ff166007811115611d7d57611d7c612a82565b5b14611d8757600080fd5b611d9033611011565b611d9957600080fd5b600560086000848152602001908152602001600020600b0160006101000a81548160ff02191690836007811115611dd357611dd2612a82565b5b02179055507ff00b9a5725b80c54016f42114f6ed7792d22eecb116011c4afac29c57bef6c9582604051611e079190612ab1565b60405180910390a15050565b600073ffffffffffffffffffffffffffffffffffffffff168173ffffffffffffffffffffffffffffffffffffffff161415611e4d57600080fd5b611e578282611f19565b15611e6157600080fd5b60018260000160008373ffffffffffffffffffffffffffffffffffffffff1673ffffffffffffffffffffffffffffffffffffffff16815260200190815260200160002060006101000a81548160ff0219169083151502179055505050565b611ed3816003611e1390919063ffffffff16565b8073ffffffffffffffffffffffffffffffffffffffff167f28b26e7a3d20aedbc5f8f2ebf7da671c0491723a2b78f47a097b0e46dee0714260405160405180910390a250565b60008073ffffffffffffffffffffffffffffffffffffffff168273ffffffffffffffffffffffffffffffffffffffff161415611f5457600080fd5b8260000160008373ffffffffffffffffffffffffffffffffffffffff1673ffffffffffffffffffffffffffffffffffffffff16815260200190815260200160002060009054906101000a900460ff16905092915050565b611fbf81600361231b90919063ffffffff16565b8073ffffffffffffffffffffffffffffffffffffffff167fe3f5ed5f263f1f01764a96edfc7d025f511ec5f7d180e8816908b78bcf74f09860405160405180910390a250565b61201981600161231b90919063ffffffff16565b8073ffffffffffffffffffffffffffffffffffffffff167f126174f6cf49c81cdb4a9214c6b8f037bef55b4ec31e4fc776cea2a1c8a88d5960405160405180910390a250565b612073816001611e1390919063ffffffff16565b8073ffffffffffffffffffffffffffffffffffffffff167fddbf200aa634dc3fb81cfd68583dd1040d1c751d335e1d86b631bde3e977fea860405160405180910390a250565b6120cd816000611e1390919063ffffffff16565b8073ffffffffffffffffffffffffffffffffffffffff167f2e0ded4123377a3c2bc9a26f1717655a129e2f20752924d42e730ec89c83dbd060405160405180910390a250565b61212781600061231b90919063ffffffff16565b8073ffffffffffffffffffffffffffffffffffffffff167fa5e0f060af304ab17dd418c7927e3da3ae7868189bf387aee09ab179ccc572f260405160405180910390a250565b612181816002611e1390919063ffffffff16565b8073ffffffffffffffffffffffffffffffffffffffff167f71ae26cad02663e3d92efd6ec56031a80d74a20c0ab4183faa8bf262261c9baa60405160405180910390a250565b6121db81600261231b90919063ffffffff16565b8073ffffffffffffffffffffffffffffffffffffffff167fdb7176e79cffef81cb01767dd0447a0b24bb72ca9778d4b245581086b2a7e6db60405160405180910390a250565b600073ffffffffffffffffffffffffffffffffffffffff168173ffffffffffffffffffffffffffffffffffffffff16141561225b57600080fd5b8073ffffffffffffffffffffffffffffffffffffffff16600460009054906101000a900473ffffffffffffffffffffffffffffffffffffffff1673ffffffffffffffffffffffffffffffffffffffff167f5c486528ec3e3f0ea91181cff8116f02bfa350e03b8b6f12e00765adbb5af85c60405160405180910390a380600460006101000a81548173ffffffffffffffffffffffffffffffffffffffff021916908373ffffffffffffffffffffffffffffffffffffffff16021790555050565b600073ffffffffffffffffffffffffffffffffffffffff168173ffffffffffffffffffffffffffffffffffffffff16141561235557600080fd5b61235f8282611f19565b61236857600080fd5b60008260000160008373ffffffffffffffffffffffffffffffffffffffff1673ffffffffffffffffffffffffffffffffffffffff16815260200190815260200160002060006101000a81548160ff0219169083151502179055505050565b8280546123d290612afb565b90600052602060002090601f0160209004810192826123f4576000855561243b565b82601f1061240d57805160ff191683800117855561243b565b8280016001018555821561243b579182015b8281111561243a57825182559160200191906001019061241f565b5b509050612448919061244c565b5090565b5b8082111561246557600081600090555060010161244d565b5090565b6000604051905090565b600080fd5b600080fd5b600073ffffffffffffffffffffffffffffffffffffffff82169050919050565b60006124a88261247d565b9050919050565b6124b88161249d565b81146124c357600080fd5b50565b6000813590506124d5816124af565b92915050565b6000602082840312156124f1576124f0612473565b5b60006124ff848285016124c6565b91505092915050565b6000819050919050565b61251b81612508565b811461252657600080fd5b50565b60008135905061253881612512565b92915050565b6000806040838503121561255557612554612473565b5b600061256385828601612529565b925050602061257485828601612529565b9150509250929050565b60006020828403121561259457612593612473565b5b60006125a284828501612529565b91505092915050565b60008115159050919050565b6125c0816125ab565b82525050565b60006020820190506125db60008301846125b7565b92915050565b6125ea81612508565b82525050565b600081519050919050565b600082825260208201905092915050565b60005b8381101561262a57808201518184015260208101905061260f565b83811115612639576000848401525b50505050565b6000601f19601f8301169050919050565b600061265b826125f0565b61266581856125fb565b935061267581856020860161260c565b61267e8161263f565b840191505092915050565b6126928161249d565b82525050565b6000610120820190506126ae600083018c6125e1565b6126bb602083018b6125e1565b6126c8604083018a6125e1565b81810360608301526126da8189612650565b90506126e960808301886125e1565b6126f660a08301876125e1565b61270360c0830186612689565b61271060e0830185612689565b61271e610100830184612689565b9a9950505050505050505050565b600061010082019050612742600083018b6125e1565b61274f602083018a6125e1565b61275c6040830189612689565b6127696060830188612689565b818103608083015261277b8187612650565b905081810360a083015261278f8186612650565b905081810360c08301526127a38185612650565b905081810360e08301526127b78184612650565b90509998505050505050505050565b60006020820190506127db6000830184612689565b92915050565b60006127ec8261247d565b9050919050565b6127fc816127e1565b811461280757600080fd5b50565b600081359050612819816127f3565b92915050565b600080fd5b600080fd5b7f4e487b7100000000000000000000000000000000000000000000000000000000600052604160045260246000fd5b6128618261263f565b810181811067ffffffffffffffff821117156128805761287f612829565b5b80604052505050565b6000612893612469565b905061289f8282612858565b919050565b600067ffffffffffffffff8211156128bf576128be612829565b5b6128c88261263f565b9050602081019050919050565b82818337600083830152505050565b60006128f76128f2846128a4565b612889565b90508281526020810184848401111561291357612912612824565b5b61291e8482856128d5565b509392505050565b600082601f83011261293b5761293a61281f565b5b813561294b8482602086016128e4565b91505092915050565b600080600080600080600060e0888a03121561297357612972612473565b5b60006129818a828b01612529565b97505060206129928a828b0161280a565b965050604088013567ffffffffffffffff8111156129b3576129b2612478565b5b6129bf8a828b01612926565b955050606088013567ffffffffffffffff8111156129e0576129df612478565b5b6129ec8a828b01612926565b945050608088013567ffffffffffffffff811115612a0d57612a0c612478565b5b612a198a828b01612926565b93505060a088013567ffffffffffffffff811115612a3a57612a39612478565b5b612a468a828b01612926565b92505060c088013567ffffffffffffffff811115612a6757612a66612478565b5b612a738a828b01612926565b91505092959891949750929550565b7f4e487b7100000000000000000000000000000000000000000000000000000000600052602160045260246000fd5b6000602082019050612ac660008301846125e1565b92915050565b7f4e487b7100000000000000000000000000000000000000000000000000000000600052602260045260246000fd5b60006002820490506001821680612b1357607f821691505b60208210811415612b2757612b26612acc565b5b50919050565b7f4e487b7100000000000000000000000000000000000000000000000000000000600052601160045260246000fd5b6000612b6782612508565b9150612b7283612508565b925082821015612b8557612b84612b2d565b5b828203905092915050565b6000612b9b82612508565b9150612ba683612508565b9250827fffffffffffffffffffffffffffffffffffffffffffffffffffffffffffffffff03821115612bdb57612bda612b2d565b5b82820190509291505056fea2646970667358221220f29a8d7760ed5dec2d268457cff553413e7f5624b1930a47c983ffbea29a5c8e64736f6c634300080a0033",
  "immutableReferences": {},
  "source": "// SPDX-License-Identifier: MIT\npragma solidity ^0.8.0;\n\n// Define a contract 'Supplychain'\nimport '../coffeeaccesscontrol/FarmerRole.sol';\nimport '../coffeeaccesscontrol/DistributorRole.sol';\nimport '../coffeeaccesscontrol/RetailerRole.sol';\nimport '../coffeeaccesscontrol/ConsumerRole.sol';\nimport '../coffeecore/Ownable.sol';\n\ncontract SupplyChain is FarmerRole, DistributorRole, RetailerRole, ConsumerRole, Ownable {\n\n  // Define 'owner'\n  address payable owner;\n\n  // Define a variable called 'upc' for Universal Product Code (UPC)\n  uint upc;\n\n  // Define a variable called 'sku' for Stock Keeping Unit (SKU)\n  uint sku;\n\n  // Define a public mapping 'items' that maps the UPC to an Item.\n  mapping (uint => Item) items;\n\n  // Define a public mapping 'itemsHistory' that maps the UPC to an array of TxHash, \n  // that track its journey through the supply chain -- to be sent from DApp.\n  mapping (uint => string[]) itemsHistory;\n  \n  // Define enum 'State' with the following values:\n  enum State \n  { \n    Harvested,  // 0\n    Processed,  // 1\n    Packed,     // 2\n    ForSale,    // 3\n    Sold,       // 4\n    Shipped,    // 5\n    Received,   // 6\n    Purchased   // 7\n  }\n\n  State constant defaultState = State.Harvested;\n\n  // Define a struct 'Item' with the following fields:\n  struct Item {\n    uint    sku;  // Stock Keeping Unit (SKU)\n    uint    upc; // Universal Product Code (UPC), generated by the Farmer, goes on the package, can be verified by the Consumer\n    address ownerID;  // Metamask-Ethereum address of the current owner as the product moves through 8 stages\n    address payable originFarmerID; // Metamask-Ethereum address of the Farmer\n    string  originFarmName; // Farmer Name\n    string  originFarmInformation;  // Farmer Information\n    string  originFarmLatitude; // Farm Latitude\n    string  originFarmLongitude;  // Farm Longitude\n    uint    productID;  // Product ID potentially a combination of upc + sku\n    string  productNotes; // Product Notes\n    uint    productPrice; // Product Price\n    State   itemState;  // Product State as represented in the enum above\n    address payable distributorID;  // Metamask-Ethereum address of the Distributor\n    address payable retailerID; // Metamask-Ethereum address of the Retailer\n    address payable consumerID; // Metamask-Ethereum address of the Consumer\n  }\n\n  // Define 8 events with the same 8 state values and accept 'upc' as input argument\n  event Harvested(uint upc);\n  event Processed(uint upc);\n  event Packed(uint upc);\n  event ForSale(uint upc);\n  event Sold(uint upc);\n  event Shipped(uint upc);\n  event Received(uint upc);\n  event Purchased(uint upc);\n\n  // Define a modifer that checks to see if msg.sender == owner of the contract\n  // modifier onlyOwners() {\n  //      require(msg.sender == owner);\n  //      _;\n  // }\n\n  // Define a modifer that verifies the Caller\n  modifier verifyCaller (address _address) {\n    require(msg.sender == _address); \n    _;\n  }\n\n  // Define a modifier that checks if the paid amount is sufficient to cover the price\n  modifier paidEnough(uint _price) { \n    require(msg.value >= _price); \n    _;\n  }\n  \n  // Define a modifier that checks the price and refunds the remaining balance\n  modifier checkValue(uint _upc) {\n    uint _price = items[_upc].productPrice;\n    uint amountToReturn = msg.value - _price;\n    owner.transfer(amountToReturn);\n    _;\n  }\n\n  // Define a modifier that checks if an item.state of a upc is Harvested\n  modifier harvested(uint _upc) {\n    require(items[_upc].itemState == State.Harvested);\n    _;\n  }\n\n  // Define a modifier that checks if an item.state of a upc is Processed\n  modifier processed(uint _upc) {\n    require(items[_upc].itemState == State.Processed);\n    _;\n  }\n  \n  // Define a modifier that checks if an item.state of a upc is Packed\n  modifier packed(uint _upc) {\n    require(items[_upc].itemState == State.Packed);\n    _;\n  }\n\n  // Define a modifier that checks if an item.state of a upc is ForSale\n  modifier forSale(uint _upc) {\n    require(items[_upc].itemState == State.ForSale);\n    _;\n  }\n\n  // Define a modifier that checks if an item.state of a upc is Sold\n  modifier sold(uint _upc) {\n    require(items[_upc].itemState == State.Sold);\n    _;\n  }\n  \n  // Define a modifier that checks if an item.state of a upc is Shipped\n  modifier shipped(uint _upc) {\n    require(items[_upc].itemState == State.Shipped);\n    _;\n  }\n\n  // Define a modifier that checks if an item.state of a upc is Received\n  modifier received(uint _upc) {\n    require(items[_upc].itemState == State.Received);\n    _;\n  }\n\n  // Define a modifier that checks if an item.state of a upc is Purchased\n  modifier purchased(uint _upc) {\n    require(items[_upc].itemState == State.Purchased);\n    _;\n  }\n\n  // In the constructor set 'owner' to the address that instantiated the contract\n  // and set 'sku' to 1\n  // and set 'upc' to 1\n  constructor() {\n    owner = payable(Ownable.ownerOri());\n    sku = 1;\n    upc = 1;\n  }\n\n  // Define a function 'kill' if required\n  function kill() public {\n    if (msg.sender == owner) {\n      selfdestruct(owner);\n    }\n  }\n\n  // Define a function 'harvestItem' that allows a farmer to mark an item 'Harvested'\n  // Add the new item as part of Harvest\n  // Increment sku\n  // Emit the appropriate event\n  function harvestItem(uint _upc, address payable _originFarmerID, string memory _originFarmName, string memory _originFarmInformation, string memory _originFarmLatitude, string memory _originFarmLongitude, string memory _productNotes) public \n  {\n    items[_upc].sku = sku;\n    items[_upc].upc = _upc;\n    items[_upc].ownerID = owner;\n    items[_upc].originFarmerID = _originFarmerID;\n    items[_upc].originFarmName = _originFarmName;\n    items[_upc].originFarmInformation = _originFarmInformation;\n    items[_upc].originFarmLatitude = _originFarmLatitude;\n    items[_upc].originFarmLongitude = _originFarmLongitude;\n    items[_upc].productID = _upc + sku;\n    items[_upc].productNotes = _productNotes;\n    items[_upc].itemState = State.Harvested;\n    \n    //2, 0x5B38Da6a701c568545dCfcB03FcB875f56beddC4, \"Jose\", \"Jose from Brazil\", \"-23.223701\", \"-45.900906\", \"Jose's Passion Fruit\" \n    \n    sku = sku + 1;\n    \n    //addFarmer(_originFarmerID);\n    \n    emit Harvested(_upc);\n  }\n\n  // Define a function 'processtItem' that allows a farmer to mark an item 'Processed'\n  // Call modifier to check if upc has passed previous supply chain stage\n  // Call modifier to verify caller of this function\n  // Update the appropriate fields\n  // Emit the appropriate event\n  function processItem(uint _upc) public harvested(_upc) onlyFarmer()\n  {\n    items[_upc].itemState = State.Processed;\n    \n    emit Processed(_upc);\n  }\n\n  // Define a function 'packItem' that allows a farmer to mark an item 'Packed'\n  // Call modifier to check if upc has passed previous supply chain stage\n  // Call modifier to verify caller of this function\n  // Update the appropriate fields\n  // Emit the appropriate event\n  function packItem(uint _upc) public processed(_upc) onlyFarmer()\n  {\n    items[_upc].itemState = State.Packed;\n    \n    emit Packed(_upc);\n  }\n\n  // Define a function 'sellItem' that allows a farmer to mark an item 'ForSale'\n  // Call modifier to check if upc has passed previous supply chain stage\n  // Call modifier to verify caller of this function\n  // Update the appropriate fields\n  // Emit the appropriate event\n  function sellItem(uint _upc, uint _price) public packed(_upc) onlyFarmer()\n  {\n    items[_upc].itemState = State.ForSale;\n    items[_upc].productPrice = _price;\n    emit ForSale(_upc);\n  }\n\n  // Define a function 'buyItem' that allows the disributor to mark an item 'Sold'\n  // Use the above defined modifiers to check if the item is available for sale, if the buyer has paid enough, \n  // and any excess ether sent is refunded back to the buyer\n  // Call modifier to check if upc has passed previous supply chain stage\n  // Call modifer to check if buyer has paid enough\n  // Call modifer to send any excess ether back to buyer\n  // Update the appropriate fields - ownerID, distributorID, itemState\n  // Transfer money to farmer\n  // emit the appropriate event\n  function buyItem(uint _upc) public payable forSale(_upc) paidEnough(items[_upc].productPrice) checkValue(_upc) onlyDistributor()\n  {\n    items[_upc].originFarmerID.transfer(items[_upc].productPrice);\n\n    items[_upc].ownerID = msg.sender;\n    items[_upc].distributorID = payable(msg.sender);\n    items[_upc].itemState = State.Sold;\n\n    emit Sold(_upc);\n  }\n\n  // Define a function 'shipItem' that allows the distributor to mark an item 'Shipped'\n  // Use the above modifers to check if the item is sold\n  // Call modifier to check if upc has passed previous supply chain stage\n  // Call modifier to verify caller of this function\n  // Update the appropriate fields\n  // Emit the appropriate event\n  function shipItem(uint _upc) public sold(_upc) onlyDistributor()\n  {\n    items[_upc].itemState = State.Shipped;\n        \n    emit Shipped(_upc);\n  }\n\n  // Define a function 'receiveItem' that allows the retailer to mark an item 'Received'\n  // Use the above modifiers to check if the item is shipped\n  // Call modifier to check if upc has passed previous supply chain stage\n  // Access Control List enforced by calling Smart Contract / DApp\n  // Update the appropriate fields - ownerID, retailerID, itemState\n  // Emit the appropriate event\n  function receiveItem(uint _upc) public payable shipped(_upc) paidEnough(items[_upc].productPrice) checkValue(_upc) onlyRetailer()\n  {\n    items[_upc].distributorID.transfer(items[_upc].productPrice);\n\n    items[_upc].ownerID = msg.sender;\n    items[_upc].retailerID = payable(msg.sender);\n    items[_upc].itemState = State.Received;\n    \n    emit Received(_upc);\n  }\n\n  // Define a function 'purchaseItem' that allows the consumer to mark an item 'Purchased'\n  // Use the above modifiers to check if the item is received\n  // Call modifier to check if upc has passed previous supply chain stage\n  // Access Control List enforced by calling Smart Contract / DApp\n  // Update the appropriate fields - ownerID, consumerID, itemState\n  // Emit the appropriate event\n  function purchaseItem(uint _upc) public payable received(_upc) paidEnough(items[_upc].productPrice) checkValue(_upc) onlyConsumer()\n  {\n    items[_upc].retailerID.transfer(items[_upc].productPrice);\n\n    items[_upc].ownerID = msg.sender;\n    items[_upc].consumerID = payable(msg.sender);\n    items[_upc].itemState = State.Purchased;\n\n    emit Purchased(_upc);\n  }\n\n  // Define a function 'fetchItemBufferOne' that fetches the data\n  function fetchItemBufferOne(uint _upc) public view returns \n  (\n  uint    itemSKU,\n  uint    itemUPC,\n  address ownerID,\n  address originFarmerID,\n  string  memory originFarmName,\n  string  memory originFarmInformation,\n  string  memory originFarmLatitude,\n  string  memory originFarmLongitude\n  ) \n  {\n  // Assign values to the 8 parameters\n    itemSKU = items[_upc].sku;\n    itemUPC = items[_upc].upc;\n    ownerID = items[_upc].ownerID;\n    originFarmerID = items[_upc].originFarmerID;\n    originFarmName = items[_upc].originFarmName;\n    originFarmInformation = items[_upc].originFarmInformation;\n    originFarmLatitude = items[_upc].originFarmLatitude;\n    originFarmLongitude = items[_upc].originFarmLongitude;\n    \n    return \n    (\n    itemSKU,\n    itemUPC,\n    ownerID,\n    originFarmerID,\n    originFarmName,\n    originFarmInformation,\n    originFarmLatitude,\n    originFarmLongitude\n    );\n  }\n\n  // Define a function 'fetchItemBufferTwo' that fetches the data\n  function fetchItemBufferTwo(uint _upc) public view returns \n  (\n  uint    itemSKU,\n  uint    itemUPC,\n  uint    productID,\n  string memory productNotes,\n  uint    productPrice,\n  uint    itemState,\n  address distributorID,\n  address retailerID,\n  address consumerID\n  ) \n  {\n    // Assign values to the 9 parameters\n    itemSKU = items[_upc].sku;\n    itemUPC = items[_upc].upc;\n    productID = items[_upc].productID;\n    productNotes = items[_upc].productNotes;\n    productPrice = items[_upc].productPrice;\n    itemState = uint(items[_upc].itemState);\n    distributorID = items[_upc].distributorID;\n    retailerID = items[_upc].retailerID;\n    consumerID = items[_upc].consumerID;\n    \n    return\n    (\n    itemSKU,\n    itemUPC,\n    productID,\n    productNotes,\n    productPrice,\n    itemState,\n    distributorID,\n    retailerID,\n    consumerID\n    );\n  }\n}",
  "sourcePath": "/Users/fernandomaximof/Documents/udacity-projects/project3/contracts/coffeebase/SupplyChain.sol",
  "compiler": {
    "name": "solc",
    "version": "0.8.10+commit.fc410830.Emscripten.clang"
  },
  "schemaVersion": "3.4.3",
  "updatedAt": "2021-12-09T09:31:11.494Z",
  "networkType": "ethereum",
  "devdoc": {
    "kind": "dev",
    "methods": {},
    "version": 1
  },
  "userdoc": {
    "kind": "user",
    "methods": {
      "isOwner()": {
        "notice": "Check if the calling address is the owner of the contract"
      },
      "ownerOri()": {
        "notice": "Look up the address of the owner"
      },
      "renounceOwnership()": {
        "notice": "Define a function to renounce ownerhip"
      },
      "transferOwnership(address)": {
        "notice": "Define a public function to transfer ownership"
      }
    },
    "version": 1
  }
}