{
  "contractName": "FlightSuretyApp",
  "abi": [
    {
      "inputs": [
        {
          "internalType": "address",
          "name": "dataContract",
          "type": "address"
        }
      ],
      "stateMutability": "nonpayable",
      "type": "constructor"
    },
    {
      "anonymous": false,
      "inputs": [
        {
          "indexed": false,
          "internalType": "address",
          "name": "airline",
          "type": "address"
        },
        {
          "indexed": false,
          "internalType": "string",
          "name": "flight",
          "type": "string"
        },
        {
          "indexed": false,
          "internalType": "uint256",
          "name": "timestamp",
          "type": "uint256"
        },
        {
          "indexed": false,
          "internalType": "uint8",
          "name": "status",
          "type": "uint8"
        }
      ],
      "name": "FlightStatusInfo",
      "type": "event"
    },
    {
      "anonymous": false,
      "inputs": [
        {
          "indexed": false,
          "internalType": "address",
          "name": "airline",
          "type": "address"
        },
        {
          "indexed": false,
          "internalType": "string",
          "name": "flight",
          "type": "string"
        },
        {
          "indexed": false,
          "internalType": "uint256",
          "name": "timestamp",
          "type": "uint256"
        },
        {
          "indexed": false,
          "internalType": "uint8",
          "name": "status",
          "type": "uint8"
        }
      ],
      "name": "OracleReport",
      "type": "event"
    },
    {
      "anonymous": false,
      "inputs": [
        {
          "indexed": false,
          "internalType": "uint8",
          "name": "index",
          "type": "uint8"
        },
        {
          "indexed": false,
          "internalType": "address",
          "name": "airline",
          "type": "address"
        },
        {
          "indexed": false,
          "internalType": "string",
          "name": "flight",
          "type": "string"
        },
        {
          "indexed": false,
          "internalType": "uint256",
          "name": "timestamp",
          "type": "uint256"
        }
      ],
      "name": "OracleRequest",
      "type": "event"
    },
    {
      "inputs": [],
      "name": "REGISTRATION_FEE",
      "outputs": [
        {
          "internalType": "uint256",
          "name": "",
          "type": "uint256"
        }
      ],
      "stateMutability": "view",
      "type": "function",
      "constant": true
    },
    {
      "inputs": [],
      "name": "isOperational",
      "outputs": [
        {
          "internalType": "bool",
          "name": "",
          "type": "bool"
        }
      ],
      "stateMutability": "view",
      "type": "function",
      "constant": true
    },
    {
      "inputs": [
        {
          "internalType": "address",
          "name": "dataContract",
          "type": "address"
        }
      ],
      "name": "setDataContract",
      "outputs": [],
      "stateMutability": "nonpayable",
      "type": "function"
    },
    {
      "inputs": [
        {
          "internalType": "string",
          "name": "_name",
          "type": "string"
        },
        {
          "internalType": "address",
          "name": "_address",
          "type": "address"
        }
      ],
      "name": "registerAirline",
      "outputs": [],
      "stateMutability": "nonpayable",
      "type": "function"
    },
    {
      "inputs": [
        {
          "internalType": "address",
          "name": "_address",
          "type": "address"
        }
      ],
      "name": "checkAirline",
      "outputs": [
        {
          "internalType": "bool",
          "name": "",
          "type": "bool"
        }
      ],
      "stateMutability": "view",
      "type": "function",
      "constant": true
    },
    {
      "inputs": [
        {
          "internalType": "string",
          "name": "_flight",
          "type": "string"
        },
        {
          "internalType": "uint16",
          "name": "_year",
          "type": "uint16"
        },
        {
          "internalType": "uint8",
          "name": "_month",
          "type": "uint8"
        },
        {
          "internalType": "uint8",
          "name": "_day",
          "type": "uint8"
        },
        {
          "internalType": "uint8",
          "name": "_hour",
          "type": "uint8"
        },
        {
          "internalType": "uint8",
          "name": "_minute",
          "type": "uint8"
        }
      ],
      "name": "registerFlight",
      "outputs": [],
      "stateMutability": "nonpayable",
      "type": "function"
    },
    {
      "inputs": [
        {
          "internalType": "address",
          "name": "_airline",
          "type": "address"
        },
        {
          "internalType": "string",
          "name": "_flight",
          "type": "string"
        },
        {
          "internalType": "uint16",
          "name": "_year",
          "type": "uint16"
        },
        {
          "internalType": "uint8",
          "name": "_month",
          "type": "uint8"
        },
        {
          "internalType": "uint8",
          "name": "_day",
          "type": "uint8"
        },
        {
          "internalType": "uint8",
          "name": "_hour",
          "type": "uint8"
        },
        {
          "internalType": "uint8",
          "name": "_minute",
          "type": "uint8"
        }
      ],
      "name": "fetchFlightStatus",
      "outputs": [],
      "stateMutability": "nonpayable",
      "type": "function"
    },
    {
      "inputs": [
        {
          "internalType": "string",
          "name": "_flight",
          "type": "string"
        },
        {
          "internalType": "uint16",
          "name": "_year",
          "type": "uint16"
        },
        {
          "internalType": "uint8",
          "name": "_month",
          "type": "uint8"
        },
        {
          "internalType": "uint8",
          "name": "_day",
          "type": "uint8"
        },
        {
          "internalType": "uint8",
          "name": "_hour",
          "type": "uint8"
        },
        {
          "internalType": "uint8",
          "name": "_minute",
          "type": "uint8"
        }
      ],
      "name": "viewFlightStatus",
      "outputs": [
        {
          "internalType": "uint8",
          "name": "",
          "type": "uint8"
        }
      ],
      "stateMutability": "view",
      "type": "function",
      "constant": true
    },
    {
      "inputs": [
        {
          "internalType": "string",
          "name": "_flight",
          "type": "string"
        },
        {
          "internalType": "uint16",
          "name": "_year",
          "type": "uint16"
        },
        {
          "internalType": "uint8",
          "name": "_month",
          "type": "uint8"
        },
        {
          "internalType": "uint8",
          "name": "_day",
          "type": "uint8"
        },
        {
          "internalType": "uint8",
          "name": "_hour",
          "type": "uint8"
        },
        {
          "internalType": "uint8",
          "name": "_minute",
          "type": "uint8"
        }
      ],
      "name": "withdrawCredit",
      "outputs": [],
      "stateMutability": "nonpayable",
      "type": "function"
    },
    {
      "inputs": [],
      "name": "registerOracle",
      "outputs": [],
      "stateMutability": "payable",
      "type": "function",
      "payable": true
    },
    {
      "inputs": [],
      "name": "getMyIndexes",
      "outputs": [
        {
          "internalType": "uint8[3]",
          "name": "",
          "type": "uint8[3]"
        }
      ],
      "stateMutability": "view",
      "type": "function",
      "constant": true
    },
    {
      "inputs": [
        {
          "internalType": "uint8",
          "name": "index",
          "type": "uint8"
        },
        {
          "internalType": "address",
          "name": "airline",
          "type": "address"
        },
        {
          "internalType": "string",
          "name": "flight",
          "type": "string"
        },
        {
          "internalType": "uint256",
          "name": "timestamp",
          "type": "uint256"
        },
        {
          "internalType": "uint8",
          "name": "statusCode",
          "type": "uint8"
        }
      ],
      "name": "submitOracleResponse",
      "outputs": [],
      "stateMutability": "nonpayable",
      "type": "function"
    }
  ],
  "bytecode": "0x60806040526000600160146101000a81548160ff021916908360ff1602179055503480156200002d57600080fd5b50604051620029b2380380620029b2833981810160405281019062000053919062000145565b33600160006101000a81548173ffffffffffffffffffffffffffffffffffffffff021916908373ffffffffffffffffffffffffffffffffffffffff160217905550806000806101000a81548173ffffffffffffffffffffffffffffffffffffffff021916908373ffffffffffffffffffffffffffffffffffffffff1602179055505062000177565b600080fd5b600073ffffffffffffffffffffffffffffffffffffffff82169050919050565b60006200010d82620000e0565b9050919050565b6200011f8162000100565b81146200012b57600080fd5b50565b6000815190506200013f8162000114565b92915050565b6000602082840312156200015e576200015d620000db565b5b60006200016e848285016200012e565b91505092915050565b61282b80620001876000396000f3fe6080604052600436106100a75760003560e01c8063a96f5bdb11610064578063a96f5bdb14610187578063c10f2700146101b0578063c9bbd9f9146101d9578063cd905dff14610216578063d737d81414610241578063dcb8c5b41461026a576100a7565b806303959bb7146100ac5780630e2c4129146100d55780631bb976bd146100fe578063339d2590146101275780635f1cc0e61461013157806364b4f7511461015c575b600080fd5b3480156100b857600080fd5b506100d360048036038101906100ce919061176a565b6102a7565b005b3480156100e157600080fd5b506100fc60048036038101906100f791906118dd565b61037a565b005b34801561010a57600080fd5b5061012560048036038101906101209190611a0c565b61040b565b005b61012f6105c2565b005b34801561013d57600080fd5b506101466106af565b6040516101539190611b79565b60405180910390f35b34801561016857600080fd5b506101716107ef565b60405161017e9190611bad565b60405180910390f35b34801561019357600080fd5b506101ae60048036038101906101a99190611bc8565b6107fb565b005b3480156101bc57600080fd5b506101d760048036038101906101d29190611c9d565b610945565b005b3480156101e557600080fd5b5061020060048036038101906101fb919061176a565b610d1d565b60405161020d9190611d52565b60405180910390f35b34801561022257600080fd5b5061022b610dc1565b6040516102389190611d52565b60405180910390f35b34801561024d57600080fd5b5061026860048036038101906102639190611bc8565b610e58565b005b34801561027657600080fd5b50610291600480360381019061028c9190611d6d565b610ef5565b60405161029e9190611e2b565b60405180910390f35b600160009054906101000a900473ffffffffffffffffffffffffffffffffffffffff1673ffffffffffffffffffffffffffffffffffffffff163373ffffffffffffffffffffffffffffffffffffffff1614610337576040517f08c379a000000000000000000000000000000000000000000000000000000000815260040161032e90611ea3565b60405180910390fd5b806000806101000a81548173ffffffffffffffffffffffffffffffffffffffff021916908373ffffffffffffffffffffffffffffffffffffffff16021790555050565b60008054906101000a900473ffffffffffffffffffffffffffffffffffffffff1673ffffffffffffffffffffffffffffffffffffffff16630e2c412983836040518363ffffffff1660e01b81526004016103d5929190611f49565b600060405180830381600087803b1580156103ef57600080fd5b505af1158015610403573d6000803e3d6000fd5b505050505050565b600061041633611097565b905060008060009054906101000a900473ffffffffffffffffffffffffffffffffffffffff1673ffffffffffffffffffffffffffffffffffffffff1663f0a354f188888888886040518663ffffffff1660e01b815260040161047c959493929190611f88565b602060405180830381865afa158015610499573d6000803e3d6000fd5b505050506040513d601f19601f820116820180604052508101906104bd9190611ff0565b90506000828b8b8b856040516020016104da9594939291906120ec565b604051602081830303815290604052805190602001209050336003600083815260200190815260200160002060000160006101000a81548173ffffffffffffffffffffffffffffffffffffffff021916908373ffffffffffffffffffffffffffffffffffffffff16021790555060016003600083815260200190815260200160002060000160146101000a81548160ff0219169083151502179055507f3ed01f2c3fc24c6b329d931e35b03e390d23497d22b3f90e15b600343e93df11838c8c8c866040516105ad959493929190612165565b60405180910390a15050505050505050505050565b670de0b6b3a764000034101561060d576040517f08c379a000000000000000000000000000000000000000000000000000000000815260040161060490612225565b60405180910390fd5b600061061833611163565b9050604051806040016040528060011515815260200182815250600260003373ffffffffffffffffffffffffffffffffffffffff1673ffffffffffffffffffffffffffffffffffffffff16815260200190815260200160002060008201518160000160006101000a81548160ff0219169083151502179055506020820151816001019060036106a892919061161f565b5090505050565b6106b76116b9565b600260003373ffffffffffffffffffffffffffffffffffffffff1673ffffffffffffffffffffffffffffffffffffffff16815260200190815260200160002060000160009054906101000a900460ff16610746576040517f08c379a000000000000000000000000000000000000000000000000000000000815260040161073d90612291565b60405180910390fd5b600260003373ffffffffffffffffffffffffffffffffffffffff1673ffffffffffffffffffffffffffffffffffffffff1681526020019081526020016000206001016003806020026040519081016040528092919082600380156107e5576020028201916000905b82829054906101000a900460ff1660ff16815260200190600101906020826000010492830192600103820291508084116107ae5790505b5050505050905090565b670de0b6b3a764000081565b60008060009054906101000a900473ffffffffffffffffffffffffffffffffffffffff1673ffffffffffffffffffffffffffffffffffffffff1663f0a354f187878787876040518663ffffffff1660e01b815260040161085f959493929190611f88565b602060405180830381865afa15801561087c573d6000803e3d6000fd5b505050506040513d601f19601f820116820180604052508101906108a09190611ff0565b905060006108ae888361134a565b905060008054906101000a900473ffffffffffffffffffffffffffffffffffffffff1673ffffffffffffffffffffffffffffffffffffffff16638609cad1826040518263ffffffff1660e01b815260040161090991906122ca565b600060405180830381600087803b15801561092357600080fd5b505af1158015610937573d6000803e3d6000fd5b505050505050505050505050565b8560ff16600260003373ffffffffffffffffffffffffffffffffffffffff1673ffffffffffffffffffffffffffffffffffffffff16815260200190815260200160002060010160006003811061099e5761099d6122e5565b5b602091828204019190069054906101000a900460ff1660ff161480610a3257508560ff16600260003373ffffffffffffffffffffffffffffffffffffffff1673ffffffffffffffffffffffffffffffffffffffff168152602001908152602001600020600101600160038110610a1757610a166122e5565b5b602091828204019190069054906101000a900460ff1660ff16145b80610aac57508560ff16600260003373ffffffffffffffffffffffffffffffffffffffff1673ffffffffffffffffffffffffffffffffffffffff168152602001908152602001600020600101600260038110610a9157610a906122e5565b5b602091828204019190069054906101000a900460ff1660ff16145b610aeb576040517f08c379a0000000000000000000000000000000000000000000000000000000008152600401610ae290612386565b60405180910390fd5b60008686868686604051602001610b069594939291906120ec565b6040516020818303038152906040528051906020012090506003600082815260200190815260200160002060000160149054906101000a900460ff16610b81576040517f08c379a0000000000000000000000000000000000000000000000000000000008152600401610b7890612418565b60405180910390fd5b6003600082815260200190815260200160002060010160008360ff1660ff168152602001908152602001600020339080600181540180825580915050600190039060005260206000200160009091909190916101000a81548173ffffffffffffffffffffffffffffffffffffffff021916908373ffffffffffffffffffffffffffffffffffffffff1602179055507f43c853095c2752648493c88b4baac4d580d2594ffb00c6f1d4242d844514f7838686868686604051610c46959493929190612438565b60405180910390a1600380600083815260200190815260200160002060010160008460ff1660ff1681526020019081526020016000208054905010610d14577fe23f5229de535c091e3b7bec2665f5d698192d3b31393066e8987b7a05076b6c8686868686604051610cbc959493929190612438565b60405180910390a1610d1385858080601f016020809104026020016040519081016040528093929190818152602001838380828437600081840152601f19601f82011690508083019250505050505050848461137d565b5b50505050505050565b60008060009054906101000a900473ffffffffffffffffffffffffffffffffffffffff1673ffffffffffffffffffffffffffffffffffffffff1663c3c5a547836040518263ffffffff1660e01b8152600401610d799190612486565b602060405180830381865afa158015610d96573d6000803e3d6000fd5b505050506040513d601f19601f82011682018060405250810190610dba91906124cd565b9050919050565b60008060009054906101000a900473ffffffffffffffffffffffffffffffffffffffff1673ffffffffffffffffffffffffffffffffffffffff1663cd905dff6040518163ffffffff1660e01b8152600401602060405180830381865afa158015610e2f573d6000803e3d6000fd5b505050506040513d601f19601f82011682018060405250810190610e5391906124cd565b905090565b60008054906101000a900473ffffffffffffffffffffffffffffffffffffffff1673ffffffffffffffffffffffffffffffffffffffff1663d737d8148787878787876040518763ffffffff1660e01b8152600401610ebb969594939291906124fa565b600060405180830381600087803b158015610ed557600080fd5b505af1158015610ee9573d6000803e3d6000fd5b50505050505050505050565b60008060008054906101000a900473ffffffffffffffffffffffffffffffffffffffff1673ffffffffffffffffffffffffffffffffffffffff1663f0a354f188888888886040518663ffffffff1660e01b8152600401610f59959493929190611f88565b602060405180830381865afa158015610f76573d6000803e3d6000fd5b505050506040513d601f19601f82011682018060405250810190610f9a9190611ff0565b90506000610fec8a8a8080601f016020809104026020016040519081016040528093929190818152602001838380828437600081840152601f19601f820116905080830192505050505050508361134a565b905060008054906101000a900473ffffffffffffffffffffffffffffffffffffffff1673ffffffffffffffffffffffffffffffffffffffff166379fca285826040518263ffffffff1660e01b815260040161104791906122ca565b602060405180830381865afa158015611064573d6000803e3d6000fd5b505050506040513d601f19601f820116820180604052508101906110889190612577565b92505050979650505050505050565b600080600a905060008160ff166001601481819054906101000a900460ff16809291906110c3906125d3565b91906101000a81548160ff021916908360ff16021790555060ff16436110e991906125fd565b40856040516020016110fc929190612652565b6040516020818303038152906040528051906020012060001c61111f91906126ad565b905060fa600160149054906101000a900460ff1660ff161115611159576000600160146101000a81548160ff021916908360ff1602179055505b8092505050919050565b61116b6116b9565b6111736116b9565b61117c83611097565b816000600381106111905761118f6122e5565b5b602002019060ff16908160ff1681525050806000600381106111b5576111b46122e5565b5b6020020151816001600381106111ce576111cd6122e5565b5b602002019060ff16908160ff16815250505b806000600381106111f4576111f36122e5565b5b602002015160ff16816001600381106112105761120f6122e5565b5b602002015160ff1614156112515761122783611097565b8160016003811061123b5761123a6122e5565b5b602002019060ff16908160ff16815250506111e0565b80600160038110611265576112646122e5565b5b60200201518160026003811061127e5761127d6122e5565b5b602002019060ff16908160ff16815250505b806000600381106112a4576112a36122e5565b5b602002015160ff16816002600381106112c0576112bf6122e5565b5b602002015160ff1614806113095750806001600381106112e3576112e26122e5565b5b602002015160ff16816002600381106112ff576112fe6122e5565b5b602002015160ff16145b156113415761131783611097565b8160026003811061132b5761132a6122e5565b5b602002019060ff16908160ff1681525050611290565b80915050919050565b6000828260405160200161135f92919061270f565b60405160208183030381529060405280519060200120905092915050565b6000611389848461134a565b905060008054906101000a900473ffffffffffffffffffffffffffffffffffffffff1673ffffffffffffffffffffffffffffffffffffffff166361b029ed826040518263ffffffff1660e01b81526004016113e491906122ca565b602060405180830381865afa158015611401573d6000803e3d6000fd5b505050506040513d601f19601f8201168201806040525081019061142591906124cd565b611464576040517f08c379a000000000000000000000000000000000000000000000000000000000815260040161145b90612783565b60405180910390fd5b60008054906101000a900473ffffffffffffffffffffffffffffffffffffffff1673ffffffffffffffffffffffffffffffffffffffff16634a3bc19d82856040518363ffffffff1660e01b81526004016114bf9291906127a3565b600060405180830381600087803b1580156114d957600080fd5b505af11580156114ed573d6000803e3d6000fd5b5050505060008054906101000a900473ffffffffffffffffffffffffffffffffffffffff1673ffffffffffffffffffffffffffffffffffffffff16633f2aecea82846040518363ffffffff1660e01b815260040161154c9291906127cc565b600060405180830381600087803b15801561156657600080fd5b505af115801561157a573d6000803e3d6000fd5b50505050601460ff168260ff1614156116195760008054906101000a900473ffffffffffffffffffffffffffffffffffffffff1673ffffffffffffffffffffffffffffffffffffffff1663cc2f6eba826040518263ffffffff1660e01b81526004016115e691906122ca565b600060405180830381600087803b15801561160057600080fd5b505af1158015611614573d6000803e3d6000fd5b505050505b50505050565b826003601f016020900481019282156116a85791602002820160005b8382111561167957835183826101000a81548160ff021916908360ff160217905550926020019260010160208160000104928301926001030261163b565b80156116a65782816101000a81549060ff0219169055600101602081600001049283019260010302611679565b505b5090506116b591906116db565b5090565b6040518060600160405280600390602082028036833780820191505090505090565b5b808211156116f45760008160009055506001016116dc565b5090565b6000604051905090565b600080fd5b600080fd5b600073ffffffffffffffffffffffffffffffffffffffff82169050919050565b60006117378261170c565b9050919050565b6117478161172c565b811461175257600080fd5b50565b6000813590506117648161173e565b92915050565b6000602082840312156117805761177f611702565b5b600061178e84828501611755565b91505092915050565b600080fd5b600080fd5b6000601f19601f8301169050919050565b7f4e487b7100000000000000000000000000000000000000000000000000000000600052604160045260246000fd5b6117ea826117a1565b810181811067ffffffffffffffff82111715611809576118086117b2565b5b80604052505050565b600061181c6116f8565b905061182882826117e1565b919050565b600067ffffffffffffffff821115611848576118476117b2565b5b611851826117a1565b9050602081019050919050565b82818337600083830152505050565b600061188061187b8461182d565b611812565b90508281526020810184848401111561189c5761189b61179c565b5b6118a784828561185e565b509392505050565b600082601f8301126118c4576118c3611797565b5b81356118d484826020860161186d565b91505092915050565b600080604083850312156118f4576118f3611702565b5b600083013567ffffffffffffffff81111561191257611911611707565b5b61191e858286016118af565b925050602061192f85828601611755565b9150509250929050565b600080fd5b600080fd5b60008083601f84011261195957611958611797565b5b8235905067ffffffffffffffff81111561197657611975611939565b5b6020830191508360018202830111156119925761199161193e565b5b9250929050565b600061ffff82169050919050565b6119b081611999565b81146119bb57600080fd5b50565b6000813590506119cd816119a7565b92915050565b600060ff82169050919050565b6119e9816119d3565b81146119f457600080fd5b50565b600081359050611a06816119e0565b92915050565b60008060008060008060008060e0898b031215611a2c57611a2b611702565b5b6000611a3a8b828c01611755565b985050602089013567ffffffffffffffff811115611a5b57611a5a611707565b5b611a678b828c01611943565b97509750506040611a7a8b828c016119be565b9550506060611a8b8b828c016119f7565b9450506080611a9c8b828c016119f7565b93505060a0611aad8b828c016119f7565b92505060c0611abe8b828c016119f7565b9150509295985092959890939650565b600060039050919050565b600081905092915050565b6000819050919050565b611af7816119d3565b82525050565b6000611b098383611aee565b60208301905092915050565b6000602082019050919050565b611b2b81611ace565b611b358184611ad9565b9250611b4082611ae4565b8060005b83811015611b71578151611b588782611afd565b9650611b6383611b15565b925050600181019050611b44565b505050505050565b6000606082019050611b8e6000830184611b22565b92915050565b6000819050919050565b611ba781611b94565b82525050565b6000602082019050611bc26000830184611b9e565b92915050565b60008060008060008060c08789031215611be557611be4611702565b5b600087013567ffffffffffffffff811115611c0357611c02611707565b5b611c0f89828a016118af565b9650506020611c2089828a016119be565b9550506040611c3189828a016119f7565b9450506060611c4289828a016119f7565b9350506080611c5389828a016119f7565b92505060a0611c6489828a016119f7565b9150509295509295509295565b611c7a81611b94565b8114611c8557600080fd5b50565b600081359050611c9781611c71565b92915050565b60008060008060008060a08789031215611cba57611cb9611702565b5b6000611cc889828a016119f7565b9650506020611cd989828a01611755565b955050604087013567ffffffffffffffff811115611cfa57611cf9611707565b5b611d0689828a01611943565b94509450506060611d1989828a01611c88565b9250506080611d2a89828a016119f7565b9150509295509295509295565b60008115159050919050565b611d4c81611d37565b82525050565b6000602082019050611d676000830184611d43565b92915050565b600080600080600080600060c0888a031215611d8c57611d8b611702565b5b600088013567ffffffffffffffff811115611daa57611da9611707565b5b611db68a828b01611943565b97509750506020611dc98a828b016119be565b9550506040611dda8a828b016119f7565b9450506060611deb8a828b016119f7565b9350506080611dfc8a828b016119f7565b92505060a0611e0d8a828b016119f7565b91505092959891949750929550565b611e25816119d3565b82525050565b6000602082019050611e406000830184611e1c565b92915050565b600082825260208201905092915050565b7f43414c4c4552204953204e4f5420434f4e5452414354204f574e455200000000600082015250565b6000611e8d601c83611e46565b9150611e9882611e57565b602082019050919050565b60006020820190508181036000830152611ebc81611e80565b9050919050565b600081519050919050565b60005b83811015611eec578082015181840152602081019050611ed1565b83811115611efb576000848401525b50505050565b6000611f0c82611ec3565b611f168185611e46565b9350611f26818560208601611ece565b611f2f816117a1565b840191505092915050565b611f438161172c565b82525050565b60006040820190508181036000830152611f638185611f01565b9050611f726020830184611f3a565b9392505050565b611f8281611999565b82525050565b600060a082019050611f9d6000830188611f79565b611faa6020830187611e1c565b611fb76040830186611e1c565b611fc46060830185611e1c565b611fd16080830184611e1c565b9695505050505050565b600081519050611fea81611c71565b92915050565b60006020828403121561200657612005611702565b5b600061201484828501611fdb565b91505092915050565b60008160f81b9050919050565b60006120358261201d565b9050919050565b61204d612048826119d3565b61202a565b82525050565b60008160601b9050919050565b600061206b82612053565b9050919050565b600061207d82612060565b9050919050565b6120956120908261172c565b612072565b82525050565b600081905092915050565b60006120b2838561209b565b93506120bf83858461185e565b82840190509392505050565b6000819050919050565b6120e66120e182611b94565b6120cb565b82525050565b60006120f8828861203c565b6001820191506121088287612084565b6014820191506121198285876120a6565b915061212582846120d5565b6020820191508190509695505050505050565b60006121448385611e46565b935061215183858461185e565b61215a836117a1565b840190509392505050565b600060808201905061217a6000830188611e1c565b6121876020830187611f3a565b818103604083015261219a818587612138565b90506121a96060830184611b9e565b9695505050505050565b7f4552524f523a20524547495354524154494f4e2046454520495320524551554960008201527f5245440000000000000000000000000000000000000000000000000000000000602082015250565b600061220f602383611e46565b915061221a826121b3565b604082019050919050565b6000602082019050818103600083015261223e81612202565b9050919050565b7f4552524f523a204f5241434c45204e4f54205245474953544552454400000000600082015250565b600061227b601c83611e46565b915061228682612245565b602082019050919050565b600060208201905081810360008301526122aa8161226e565b9050919050565b6000819050919050565b6122c4816122b1565b82525050565b60006020820190506122df60008301846122bb565b92915050565b7f4e487b7100000000000000000000000000000000000000000000000000000000600052603260045260246000fd5b7f4552524f523a20494e444558204e4f54204d41544348494e47204f5241434c4560008201527f2052455155455354000000000000000000000000000000000000000000000000602082015250565b6000612370602883611e46565b915061237b82612314565b604082019050919050565b6000602082019050818103600083015261239f81612363565b9050919050565b7f4552524f523a20464c494748542f54494d455354414d50204e4f54204d41544360008201527f48494e47204f5241434c45205245515545535400000000000000000000000000602082015250565b6000612402603383611e46565b915061240d826123a6565b604082019050919050565b60006020820190508181036000830152612431816123f5565b9050919050565b600060808201905061244d6000830188611f3a565b8181036020830152612460818688612138565b905061246f6040830185611b9e565b61247c6060830184611e1c565b9695505050505050565b600060208201905061249b6000830184611f3a565b92915050565b6124aa81611d37565b81146124b557600080fd5b50565b6000815190506124c7816124a1565b92915050565b6000602082840312156124e3576124e2611702565b5b60006124f1848285016124b8565b91505092915050565b600060c08201905081810360008301526125148189611f01565b90506125236020830188611f79565b6125306040830187611e1c565b61253d6060830186611e1c565b61254a6080830185611e1c565b61255760a0830184611e1c565b979650505050505050565b600081519050612571816119e0565b92915050565b60006020828403121561258d5761258c611702565b5b600061259b84828501612562565b91505092915050565b7f4e487b7100000000000000000000000000000000000000000000000000000000600052601160045260246000fd5b60006125de826119d3565b915060ff8214156125f2576125f16125a4565b5b600182019050919050565b600061260882611b94565b915061261383611b94565b925082821015612626576126256125a4565b5b828203905092915050565b6000819050919050565b61264c612647826122b1565b612631565b82525050565b600061265e828561263b565b60208201915061266e8284612084565b6014820191508190509392505050565b7f4e487b7100000000000000000000000000000000000000000000000000000000600052601260045260246000fd5b60006126b882611b94565b91506126c383611b94565b9250826126d3576126d261267e565b5b828206905092915050565b60006126e982611ec3565b6126f3818561209b565b9350612703818560208601611ece565b80840191505092915050565b600061271b82856126de565b915061272782846120d5565b6020820191508190509392505050565b7f4552524f523a20464c49474854204953204e4f54205245474953544552454400600082015250565b600061276d601f83611e46565b915061277882612737565b602082019050919050565b6000602082019050818103600083015261279c81612760565b9050919050565b60006040820190506127b860008301856122bb565b6127c56020830184611b9e565b9392505050565b60006040820190506127e160008301856122bb565b6127ee6020830184611e1c565b939250505056fea2646970667358221220f1c297ba13261fd5045517b8c5a48fda2f76cfa5c80fadda0e02ba23cbaaa30b64736f6c634300080b0033",
  "immutableReferences": {},
  "source": "// SPDX-License-Identifier: MIT\npragma solidity ^0.8.0;\n\nimport \"@openzeppelin/contracts/utils/math/SafeMath.sol\";\n// import \"../node_modules/openzeppelin-solidity/contracts/math/SafeMath.sol\";\n\n/************************************************** */\n/* FlightSurety Smart Contract                      */\n/************************************************** */\n\ncontract FlightSuretyApp {\n    using SafeMath for uint256;\n\n    /********************************************************************************************/\n    /*                                       DATA VARIABLES                                     */\n    /********************************************************************************************/\n\n    FlightSuretyData flightSuretyData;\n    // Flight status codees\n    uint8 private constant STATUS_CODE_UNKNOWN = 0;\n    uint8 private constant STATUS_CODE_ON_TIME = 10;\n    uint8 private constant STATUS_CODE_LATE_AIRLINE = 20;\n    uint8 private constant STATUS_CODE_LATE_WEATHER = 30;\n    uint8 private constant STATUS_CODE_LATE_TECHNICAL = 40;\n    uint8 private constant STATUS_CODE_LATE_OTHER = 50;\n\n    address private contractOwner;          // Account used to deploy contract\n\n    // // flights data\n    // struct Flight {\n    //     bool isRegistered;\n    //     string flightCode;\n    //     string destination;\n    //     uint8 statusCode;\n    //     uint256 updatedTimestamp;\n    //     address airline;\n    // }\n    // mapping(bytes32 => Flight) private flights;\n    // mapping(address => address[]) private airlineVoters;\n\n\n    /********************************************************************************************/\n    /*                                       FUNCTION MODIFIERS                                 */\n    /********************************************************************************************/\n    modifier requireContractOwner() {\n        require(msg.sender == contractOwner, \"CALLER IS NOT CONTRACT OWNER\");\n        _;\n    }\n\n    /********************************************************************************************/\n    /*                                       CONSTRUCTOR                                        */\n    /********************************************************************************************/\n    constructor(address dataContract) {\n        contractOwner = msg.sender;\n        flightSuretyData = FlightSuretyData(dataContract);\n    }\n\n    /****************************************************************************************** */\n    /*                                       FUNCTION MODIFIERS                                 */\n    /********************************************************************************************/\n    /**\n    * @dev Modifier that requires the current account to have funded at least 10 eth\n    */\n\n\n    /********************************************************************************************/\n    /*                                       UTILITY FUNCTIONS                                  */\n    /********************************************************************************************/\n\n    function isOperational() public view returns(bool) {\n        return flightSuretyData.isOperational();\n    }\n\n    function setDataContract(address dataContract) external requireContractOwner {\n        flightSuretyData = FlightSuretyData(dataContract);\n    }\n\n\n    /********************************************************************************************/\n    /*                                     SMART CONTRACT FUNCTIONS                             */\n    /********************************************************************************************/\n\n    function registerAirline(string memory _name, address _address) external {\n        flightSuretyData.registerAirline(_name, _address);\n    }\n\n    function checkAirline(address _address) public view returns(bool) {\n        return flightSuretyData.isRegistered(_address);\n    }\n\n    function registerFlight (string memory _flight, uint16 _year, uint8 _month, uint8 _day, uint8 _hour, uint8 _minute) external {\n        flightSuretyData.registerFlight(_flight, _year, _month, _day, _hour, _minute);\n\n    }\n\n    function processFlightStatus(string memory _flight, uint256 _timestamp, uint8 _statusCode) internal {\n        bytes32 _flightKey = getFlightKey(_flight, _timestamp);\n        require(flightSuretyData.checkFlight(_flightKey), \"ERROR: FLIGHT IS NOT REGISTERED\");\n\n        flightSuretyData.updateFlightTimestamp(_flightKey, _timestamp);\n        flightSuretyData.updateFlightStatus(_flightKey, _statusCode);\n\n        if (_statusCode == STATUS_CODE_LATE_AIRLINE) {\n            flightSuretyData.creditInsurees(_flightKey);\n        }\n    }\n\n    // Generate a request for oracles to fetch flight information\n    function fetchFlightStatus(address _airline, string calldata _flight, uint16 _year, uint8 _month, uint8 _day, uint8 _hour, uint8 _minute) external {\n        uint8 index = getRandomIndex(msg.sender);\n\n        uint _timestamp = flightSuretyData.getDateTime(_year, _month, _day, _hour, _minute);\n        \n        // Generate a unique key for storing the request\n        bytes32 key = keccak256(abi.encodePacked(index, _airline, _flight, _timestamp));\n        oracleResponses[key].requester = msg.sender;\n        oracleResponses[key].isOpen = true;\n\n        emit OracleRequest(index, _airline, _flight, _timestamp);\n    }\n\n    // Query the status of any flight\n    function viewFlightStatus(string calldata _flight, uint16 _year, uint8 _month, uint8 _day, uint8 _hour, uint8 _minute) external view returns(uint8) {\n            uint _timestamp = flightSuretyData.getDateTime(_year, _month, _day, _hour, _minute);\n\n            bytes32 _flightKey = getFlightKey(_flight, _timestamp);\n            return flightSuretyData.getFlightStatus(_flightKey);\n    }\n\n    function withdrawCredit(string memory _flight, uint16 _year, uint8 _month, uint8 _day, uint8 _hour, uint8 _minute) public {\n        uint _timestamp = flightSuretyData.getDateTime(_year, _month, _day, _hour, _minute);\n\n        bytes32 _flightKey = getFlightKey(_flight, _timestamp);\n        flightSuretyData.pay(_flightKey);\n    }\n\n// region ORACLE MANAGEMENT\n\n    // Incremented to add pseudo-randomness at various points\n    uint8 private nonce = 0;\n\n    // Fee to be paid when registering oracle\n    uint256 public constant REGISTRATION_FEE = 1 ether;\n\n    // Number of oracles that must respond for valid status\n    uint256 private constant MIN_RESPONSES = 3;\n\n\n    struct Oracle {\n        bool isRegistered;\n        uint8[3] indexes;\n    }\n\n    // Track all registered oracles\n    mapping(address => Oracle) private oracles;\n\n    // Model for responses from oracles\n    struct ResponseInfo {\n        address requester;                              // Account that requested status\n        bool isOpen;                                    // If open, oracle responses are accepted\n        mapping(uint8 => address[]) responses;          // Mapping key is the status code reported\n                                                        // This lets us group responses and identify\n                                                        // the response that majority of the oracles\n    }\n\n    // Track all oracle responses\n    // Key = hash(index, flight, timestamp)\n    mapping(bytes32 => ResponseInfo) private oracleResponses;\n\n    // Event fired each time an oracle submits a response\n    event FlightStatusInfo(address airline, string flight, uint256 timestamp, uint8 status);\n\n    event OracleReport(address airline, string flight, uint256 timestamp, uint8 status);\n\n    // Event fired when flight status request is submitted\n    // Oracles track this and if they have a matching index\n    // they fetch data and submit a response\n    event OracleRequest(uint8 index, address airline, string flight, uint256 timestamp);\n\n\n    // Register an oracle with the contract\n    function registerOracle() external payable {\n        // Require registration fee\n        require(msg.value >= REGISTRATION_FEE, \"ERROR: REGISTRATION FEE IS REQUIRED\");\n\n        uint8[3] memory indexes = generateIndexes(msg.sender);\n\n        oracles[msg.sender] = Oracle({\n                                        isRegistered: true,\n                                        indexes: indexes\n                                    });\n    }\n\n    function getMyIndexes() external view returns(uint8[3] memory) {\n        require(oracles[msg.sender].isRegistered, \"ERROR: ORACLE NOT REGISTERED\");\n\n        return oracles[msg.sender].indexes;\n    }\n\n    // Called by oracle when a response is available to an outstanding request\n    // For the response to be accepted, there must be a pending request that is open\n    // and matches one of the three Indexes randomly assigned to the oracle at the\n    // time of registration (i.e. uninvited oracles are not welcome)\n    function submitOracleResponse(uint8 index, address airline, string calldata flight, uint256 timestamp, uint8 statusCode)\n    external {\n        require((oracles[msg.sender].indexes[0] == index) || (oracles[msg.sender].indexes[1] == index) || (oracles[msg.sender].indexes[2] == index), \"ERROR: INDEX NOT MATCHING ORACLE REQUEST\");\n\n\n        bytes32 key = keccak256(abi.encodePacked(index, airline, flight, timestamp));\n        require(oracleResponses[key].isOpen, \"ERROR: FLIGHT/TIMESTAMP NOT MATCHING ORACLE REQUEST\");\n\n        oracleResponses[key].responses[statusCode].push(msg.sender);\n\n        // Information isn't considered verified until at least MIN_RESPONSES\n        // oracles respond with the *** same *** information\n        emit OracleReport(airline, flight, timestamp, statusCode);\n        if (oracleResponses[key].responses[statusCode].length >= MIN_RESPONSES) {\n\n            emit FlightStatusInfo(airline, flight, timestamp, statusCode);\n\n            // Handle flight status as appropriate\n            processFlightStatus(flight, timestamp, statusCode);\n        }\n    }\n\n    function getFlightKey(string memory flight, uint256 timestamp) internal pure returns(bytes32){\n        return keccak256(abi.encodePacked(flight, timestamp));\n    }\n\n    // Returns array of three non-duplicating integers from 0-9\n    function generateIndexes(address _account) internal returns(uint8[3] memory) {\n        uint8[3] memory indexes;\n        indexes[0] = getRandomIndex(_account);\n\n        indexes[1] = indexes[0];\n        while(indexes[1] == indexes[0]) {\n            indexes[1] = getRandomIndex(_account);\n        }\n\n        indexes[2] = indexes[1];\n        while((indexes[2] == indexes[0]) || (indexes[2] == indexes[1])) {\n            indexes[2] = getRandomIndex(_account);\n        }\n\n        return indexes;\n    }\n\n    // Returns array of three non-duplicating integers from 0-9\n    function getRandomIndex(address _account) internal returns (uint8) {\n        uint8 maxValue = 10;\n\n        // Pseudo random number...the incrementing nonce adds variation\n        uint8 random = uint8(uint256(keccak256(abi.encodePacked(blockhash(block.number - nonce++), _account))) % maxValue);\n\n        if (nonce > 250) {\n            nonce = 0;  // Can only fetch blockhashes for last 256 blocks so we adapt\n        }\n\n        return random;\n    }\n\n// endregion\n\n}\n\ncontract FlightSuretyData {\n\n\n    function isOperational() external view returns(bool) {}\n    \n    function registerAirline(string memory _aName, address _aAddress) external {}\n    \n    function isRegistered(address _address) public view returns(bool) {}\n    \n    function registerFlight(string memory _flight, uint16 _year, uint8 _month, uint8 _day, uint8 _hour, uint8 _minute) external {}\n\n    function checkFlight(bytes32 _flightKey) external view returns(bool) {}\n\n    function updateFlightTimestamp(bytes32 _flightKey, uint256 _timestamp) external {}\n    \n    function updateFlightStatus(bytes32 _flightKey, uint8 _statusCode) external {}\n\n    function getFlightStatus(bytes32 _flightKey) external view returns(uint8) {}\n\n    function creditInsurees(bytes32 _flightKey) external {}\n\n    function pay(bytes32 _flightKey) external {}\n\n    function getDateTime(uint16 _year, uint8 _month, uint8 _day, uint8 _hour, uint8 _minute) public pure returns(uint) {}\n}\n",
  "sourcePath": "/Users/fernandomaximof/Documents/udacity-projects/project4/contracts/FlightSuretyApp.sol",
  "compiler": {
    "name": "solc",
    "version": "0.8.11+commit.d7f03943.Emscripten.clang"
  },
  "schemaVersion": "3.4.3",
  "updatedAt": "2022-01-26T10:33:38.200Z",
  "networkType": "ethereum",
  "devdoc": {
    "kind": "dev",
    "methods": {
      "isOperational()": {
        "details": "Modifier that requires the current account to have funded at least 10 eth"
      }
    },
    "version": 1
  },
  "userdoc": {
    "kind": "user",
    "methods": {},
    "version": 1
  }
}