{
  "contractName": "FlightSuretyData",
  "abi": [
    {
      "inputs": [],
      "stateMutability": "nonpayable",
      "type": "constructor"
    },
    {
      "anonymous": false,
      "inputs": [
        {
          "indexed": false,
          "internalType": "address",
          "name": "",
          "type": "address"
        }
      ],
      "name": "Acquisition",
      "type": "event"
    },
    {
      "anonymous": false,
      "inputs": [
        {
          "indexed": false,
          "internalType": "address",
          "name": "",
          "type": "address"
        }
      ],
      "name": "Candidate",
      "type": "event"
    },
    {
      "anonymous": false,
      "inputs": [
        {
          "indexed": false,
          "internalType": "address",
          "name": "",
          "type": "address"
        }
      ],
      "name": "Funding",
      "type": "event"
    },
    {
      "anonymous": false,
      "inputs": [
        {
          "indexed": false,
          "internalType": "address",
          "name": "",
          "type": "address"
        }
      ],
      "name": "Payment",
      "type": "event"
    },
    {
      "anonymous": false,
      "inputs": [
        {
          "indexed": false,
          "internalType": "address",
          "name": "",
          "type": "address"
        }
      ],
      "name": "Registration",
      "type": "event"
    },
    {
      "stateMutability": "payable",
      "type": "fallback"
    },
    {
      "inputs": [
        {
          "internalType": "address",
          "name": "",
          "type": "address"
        }
      ],
      "name": "airlines",
      "outputs": [
        {
          "internalType": "uint256",
          "name": "airlineId",
          "type": "uint256"
        },
        {
          "internalType": "string",
          "name": "airlineName",
          "type": "string"
        },
        {
          "internalType": "address payable",
          "name": "airlineAddress",
          "type": "address"
        },
        {
          "internalType": "bool",
          "name": "registered",
          "type": "bool"
        },
        {
          "internalType": "bool",
          "name": "participant",
          "type": "bool"
        },
        {
          "internalType": "bool",
          "name": "controller",
          "type": "bool"
        },
        {
          "internalType": "uint256",
          "name": "fundAvailable",
          "type": "uint256"
        },
        {
          "internalType": "uint256",
          "name": "fundCommitted",
          "type": "uint256"
        }
      ],
      "stateMutability": "view",
      "type": "function"
    },
    {
      "inputs": [
        {
          "internalType": "bytes32",
          "name": "",
          "type": "bytes32"
        }
      ],
      "name": "flights",
      "outputs": [
        {
          "internalType": "bytes32",
          "name": "flightKey",
          "type": "bytes32"
        },
        {
          "internalType": "string",
          "name": "flight",
          "type": "string"
        },
        {
          "internalType": "bool",
          "name": "active",
          "type": "bool"
        },
        {
          "internalType": "uint8",
          "name": "statusCode",
          "type": "uint8"
        },
        {
          "internalType": "uint256",
          "name": "updatedTimestamp",
          "type": "uint256"
        },
        {
          "internalType": "address",
          "name": "airlineAddress",
          "type": "address"
        }
      ],
      "stateMutability": "view",
      "type": "function"
    },
    {
      "stateMutability": "payable",
      "type": "receive"
    },
    {
      "inputs": [
        {
          "internalType": "uint16",
          "name": "_year",
          "type": "uint16"
        },
        {
          "internalType": "uint8",
          "name": "_month",
          "type": "uint8"
        },
        {
          "internalType": "uint8",
          "name": "_day",
          "type": "uint8"
        },
        {
          "internalType": "uint8",
          "name": "_hour",
          "type": "uint8"
        },
        {
          "internalType": "uint8",
          "name": "_minute",
          "type": "uint8"
        }
      ],
      "name": "getDateTime",
      "outputs": [
        {
          "internalType": "uint256",
          "name": "",
          "type": "uint256"
        }
      ],
      "stateMutability": "pure",
      "type": "function"
    },
    {
      "inputs": [],
      "name": "kill",
      "outputs": [],
      "stateMutability": "nonpayable",
      "type": "function"
    },
    {
      "inputs": [],
      "name": "isOperational",
      "outputs": [
        {
          "internalType": "bool",
          "name": "",
          "type": "bool"
        }
      ],
      "stateMutability": "view",
      "type": "function"
    },
    {
      "inputs": [
        {
          "internalType": "address",
          "name": "_address",
          "type": "address"
        }
      ],
      "name": "isRegistered",
      "outputs": [
        {
          "internalType": "bool",
          "name": "",
          "type": "bool"
        }
      ],
      "stateMutability": "view",
      "type": "function"
    },
    {
      "inputs": [
        {
          "internalType": "address",
          "name": "_address",
          "type": "address"
        }
      ],
      "name": "isController",
      "outputs": [
        {
          "internalType": "bool",
          "name": "",
          "type": "bool"
        }
      ],
      "stateMutability": "view",
      "type": "function"
    },
    {
      "inputs": [
        {
          "internalType": "address",
          "name": "_address",
          "type": "address"
        }
      ],
      "name": "isParticipant",
      "outputs": [
        {
          "internalType": "bool",
          "name": "",
          "type": "bool"
        }
      ],
      "stateMutability": "view",
      "type": "function"
    },
    {
      "inputs": [
        {
          "internalType": "address",
          "name": "_address",
          "type": "address"
        }
      ],
      "name": "isCandidate",
      "outputs": [
        {
          "internalType": "bool",
          "name": "",
          "type": "bool"
        }
      ],
      "stateMutability": "view",
      "type": "function"
    },
    {
      "inputs": [
        {
          "internalType": "address",
          "name": "_caller",
          "type": "address"
        }
      ],
      "name": "authorizeCaller",
      "outputs": [],
      "stateMutability": "nonpayable",
      "type": "function"
    },
    {
      "inputs": [
        {
          "internalType": "address",
          "name": "_caller",
          "type": "address"
        }
      ],
      "name": "isAuthorized",
      "outputs": [
        {
          "internalType": "bool",
          "name": "",
          "type": "bool"
        }
      ],
      "stateMutability": "view",
      "type": "function"
    },
    {
      "inputs": [
        {
          "internalType": "address",
          "name": "_caller",
          "type": "address"
        }
      ],
      "name": "deAuthorizeCaller",
      "outputs": [],
      "stateMutability": "nonpayable",
      "type": "function"
    },
    {
      "inputs": [
        {
          "internalType": "bool",
          "name": "mode",
          "type": "bool"
        }
      ],
      "name": "setOperatingStatus",
      "outputs": [],
      "stateMutability": "nonpayable",
      "type": "function"
    },
    {
      "inputs": [
        {
          "internalType": "string",
          "name": "_airlineName",
          "type": "string"
        },
        {
          "internalType": "address",
          "name": "_airlineAddress",
          "type": "address"
        }
      ],
      "name": "registerAirline",
      "outputs": [],
      "stateMutability": "nonpayable",
      "type": "function"
    },
    {
      "inputs": [],
      "name": "fund",
      "outputs": [],
      "stateMutability": "payable",
      "type": "function"
    },
    {
      "inputs": [
        {
          "internalType": "string",
          "name": "_vName",
          "type": "string"
        },
        {
          "internalType": "address",
          "name": "_vAddress",
          "type": "address"
        }
      ],
      "name": "vote",
      "outputs": [],
      "stateMutability": "nonpayable",
      "type": "function"
    },
    {
      "inputs": [
        {
          "internalType": "string",
          "name": "_flight",
          "type": "string"
        },
        {
          "internalType": "uint16",
          "name": "_year",
          "type": "uint16"
        },
        {
          "internalType": "uint8",
          "name": "_month",
          "type": "uint8"
        },
        {
          "internalType": "uint8",
          "name": "_day",
          "type": "uint8"
        },
        {
          "internalType": "uint8",
          "name": "_hour",
          "type": "uint8"
        },
        {
          "internalType": "uint8",
          "name": "_minute",
          "type": "uint8"
        }
      ],
      "name": "registerFlight",
      "outputs": [],
      "stateMutability": "nonpayable",
      "type": "function"
    },
    {
      "inputs": [
        {
          "internalType": "bytes32",
          "name": "_flightKey",
          "type": "bytes32"
        }
      ],
      "name": "checkFlight",
      "outputs": [
        {
          "internalType": "bool",
          "name": "",
          "type": "bool"
        }
      ],
      "stateMutability": "view",
      "type": "function"
    },
    {
      "inputs": [
        {
          "internalType": "bytes32",
          "name": "_flightKey",
          "type": "bytes32"
        },
        {
          "internalType": "uint256",
          "name": "_timestamp",
          "type": "uint256"
        }
      ],
      "name": "updateFlightTimestamp",
      "outputs": [],
      "stateMutability": "nonpayable",
      "type": "function"
    },
    {
      "inputs": [
        {
          "internalType": "bytes32",
          "name": "_flightKey",
          "type": "bytes32"
        },
        {
          "internalType": "uint8",
          "name": "_statusCode",
          "type": "uint8"
        }
      ],
      "name": "updateFlightStatus",
      "outputs": [],
      "stateMutability": "nonpayable",
      "type": "function"
    },
    {
      "inputs": [
        {
          "internalType": "bytes32",
          "name": "_flightKey",
          "type": "bytes32"
        }
      ],
      "name": "getFlightStatus",
      "outputs": [
        {
          "internalType": "uint8",
          "name": "",
          "type": "uint8"
        }
      ],
      "stateMutability": "view",
      "type": "function"
    },
    {
      "inputs": [
        {
          "internalType": "string",
          "name": "_flight",
          "type": "string"
        },
        {
          "internalType": "uint16",
          "name": "_year",
          "type": "uint16"
        },
        {
          "internalType": "uint8",
          "name": "_month",
          "type": "uint8"
        },
        {
          "internalType": "uint8",
          "name": "_day",
          "type": "uint8"
        },
        {
          "internalType": "uint8",
          "name": "_hour",
          "type": "uint8"
        },
        {
          "internalType": "uint8",
          "name": "_minute",
          "type": "uint8"
        }
      ],
      "name": "buy",
      "outputs": [],
      "stateMutability": "payable",
      "type": "function"
    },
    {
      "inputs": [
        {
          "internalType": "bytes32",
          "name": "_flightKey",
          "type": "bytes32"
        }
      ],
      "name": "creditInsurees",
      "outputs": [],
      "stateMutability": "nonpayable",
      "type": "function"
    },
    {
      "inputs": [
        {
          "internalType": "bytes32",
          "name": "_flightKey",
          "type": "bytes32"
        }
      ],
      "name": "pay",
      "outputs": [],
      "stateMutability": "payable",
      "type": "function"
    },
    {
      "inputs": [
        {
          "internalType": "address",
          "name": "_airlineAddress",
          "type": "address"
        }
      ],
      "name": "checkAirlines",
      "outputs": [
        {
          "internalType": "string",
          "name": "name_",
          "type": "string"
        },
        {
          "internalType": "address",
          "name": "address_",
          "type": "address"
        },
        {
          "internalType": "bool",
          "name": "registered_",
          "type": "bool"
        },
        {
          "internalType": "bool",
          "name": "participant_",
          "type": "bool"
        },
        {
          "internalType": "bool",
          "name": "controller_",
          "type": "bool"
        },
        {
          "internalType": "uint256",
          "name": "fundavailable_",
          "type": "uint256"
        },
        {
          "internalType": "uint256",
          "name": "fundcommitted_",
          "type": "uint256"
        }
      ],
      "stateMutability": "view",
      "type": "function"
    },
    {
      "inputs": [
        {
          "internalType": "uint256",
          "name": "_flightId",
          "type": "uint256"
        }
      ],
      "name": "checkFlights",
      "outputs": [
        {
          "internalType": "bytes32",
          "name": "key_",
          "type": "bytes32"
        },
        {
          "internalType": "string",
          "name": "flight_",
          "type": "string"
        },
        {
          "internalType": "bool",
          "name": "active_",
          "type": "bool"
        },
        {
          "internalType": "uint8",
          "name": "status_",
          "type": "uint8"
        },
        {
          "internalType": "uint256",
          "name": "timestamp_",
          "type": "uint256"
        },
        {
          "internalType": "address",
          "name": "address_",
          "type": "address"
        }
      ],
      "stateMutability": "view",
      "type": "function"
    },
    {
      "inputs": [],
      "name": "checkCandidateAirlines",
      "outputs": [
        {
          "components": [
            {
              "internalType": "address",
              "name": "proposedAddress",
              "type": "address"
            },
            {
              "internalType": "string",
              "name": "proposedName",
              "type": "string"
            },
            {
              "internalType": "uint256",
              "name": "voteCount",
              "type": "uint256"
            },
            {
              "internalType": "bool",
              "name": "active",
              "type": "bool"
            }
          ],
          "internalType": "struct FlightSuretyData.Proposal[]",
          "name": "",
          "type": "tuple[]"
        }
      ],
      "stateMutability": "view",
      "type": "function"
    },
    {
      "inputs": [
        {
          "internalType": "uint256",
          "name": "_iId",
          "type": "uint256"
        }
      ],
      "name": "checkInsurances",
      "outputs": [
        {
          "internalType": "bytes32",
          "name": "flightKey_",
          "type": "bytes32"
        },
        {
          "internalType": "address",
          "name": "passengerAddress_",
          "type": "address"
        },
        {
          "internalType": "uint256",
          "name": "amountPaid_",
          "type": "uint256"
        },
        {
          "internalType": "uint256",
          "name": "amountAvailable_",
          "type": "uint256"
        },
        {
          "internalType": "bool",
          "name": "claimable_",
          "type": "bool"
        },
        {
          "internalType": "bool",
          "name": "active_",
          "type": "bool"
        }
      ],
      "stateMutability": "view",
      "type": "function"
    }
  ],
  "bytecode": "0x60806040526001600060146101000a81548160ff021916908315150217905550600067ffffffffffffffff8111156200003d576200003c62000694565b5b6040519080825280602002602001820160405280156200006c5781602001602082028036833780820191505090505b50600190805190602001906200008492919062000555565b5060036002553480156200009757600080fd5b50336000806101000a81548173ffffffffffffffffffffffffffffffffffffffff021916908373ffffffffffffffffffffffffffffffffffffffff1602179055506001600981905550600073f258b0a25ee7d6f02a9a1118afdf77cac6d72784905060006040518060400160405280600f81526020017f416972204e6577205a65616c616e640000000000000000000000000000000000815250905060405180610100016040528060095481526020018281526020018373ffffffffffffffffffffffffffffffffffffffff168152602001600115158152602001600015158152602001600115158152602001600081526020016000815250600860008473ffffffffffffffffffffffffffffffffffffffff1673ffffffffffffffffffffffffffffffffffffffff168152602001908152602001600020600082015181600001556020820151816001019080519060200190620001f7929190620005e4565b5060408201518160020160006101000a81548173ffffffffffffffffffffffffffffffffffffffff021916908373ffffffffffffffffffffffffffffffffffffffff16021790555060608201518160020160146101000a81548160ff02191690831515021790555060808201518160020160156101000a81548160ff02191690831515021790555060a08201518160020160166101000a81548160ff02191690831515021790555060c0820151816003015560e08201518160040155905050620002c782620002e060201b60201c565b620002d8826200035260201b60201c565b505062000869565b620002f181620003c460201b60201c565b1562000334576040517f08c379a00000000000000000000000000000000000000000000000000000000081526004016200032b906200074a565b60405180910390fd5b6200034f816004620003e860201b620039981790919060201c565b50565b62000363816200049e60201b60201c565b15620003a6576040517f08c379a00000000000000000000000000000000000000000000000000000000081526004016200039d90620007e2565b60405180910390fd5b620003c1816005620003e860201b620039981790919060201c565b50565b6000620003e1826004620004c260201b62003a441790919060201c565b9050919050565b600073ffffffffffffffffffffffffffffffffffffffff168173ffffffffffffffffffffffffffffffffffffffff1614156200042357600080fd5b620004358282620004c260201b60201c565b156200044057600080fd5b60018260000160008373ffffffffffffffffffffffffffffffffffffffff1673ffffffffffffffffffffffffffffffffffffffff16815260200190815260200160002060006101000a81548160ff0219169083151502179055505050565b6000620004bb826005620004c260201b62003a441790919060201c565b9050919050565b60008073ffffffffffffffffffffffffffffffffffffffff168273ffffffffffffffffffffffffffffffffffffffff161415620004fe57600080fd5b8260000160008373ffffffffffffffffffffffffffffffffffffffff1673ffffffffffffffffffffffffffffffffffffffff16815260200190815260200160002060009054906101000a900460ff16905092915050565b828054828255906000526020600020908101928215620005d1579160200282015b82811115620005d05782518260006101000a81548173ffffffffffffffffffffffffffffffffffffffff021916908373ffffffffffffffffffffffffffffffffffffffff1602179055509160200191906001019062000576565b5b509050620005e0919062000675565b5090565b828054620005f29062000833565b90600052602060002090601f01602090048101928262000616576000855562000662565b82601f106200063157805160ff191683800117855562000662565b8280016001018555821562000662579182015b828111156200066157825182559160200191906001019062000644565b5b50905062000671919062000675565b5090565b5b808211156200069057600081600090555060010162000676565b5090565b7f4e487b7100000000000000000000000000000000000000000000000000000000600052604160045260246000fd5b600082825260208201905092915050565b7f4552524f523a204149524c494e4520495320414c52454144592052454749535460008201527f4552454400000000000000000000000000000000000000000000000000000000602082015250565b600062000732602483620006c3565b91506200073f82620006d4565b604082019050919050565b60006020820190508181036000830152620007658162000723565b9050919050565b7f4552524f523a204149524c494e4520495320414c5245414459204120434f4e5460008201527f524f4c4c45520000000000000000000000000000000000000000000000000000602082015250565b6000620007ca602683620006c3565b9150620007d7826200076c565b604082019050919050565b60006020820190508181036000830152620007fd81620007bb565b9050919050565b7f4e487b7100000000000000000000000000000000000000000000000000000000600052602260045260246000fd5b600060028204905060018216806200084c57607f821691505b6020821081141562000863576200086262000804565b5b50919050565b61624180620008796000396000f3fe6080604052600436106101bb5760003560e01c8063929066f5116100ec578063d51b9e931161008a578063e188ac9811610064578063e188ac981461061a578063edeb6c3a1461065d578063f0a354f11461069f578063fe9fbb80146106dc576101c2565b8063d51b9e9314610598578063d737d814146105d5578063dda5bd56146105fe576101c2565b8063b60d4288116100c6578063b60d4288146104fd578063c3c5a54714610507578063cc2f6eba14610544578063cd905dff1461056d576101c2565b8063929066f514610458578063a190c31514610495578063b429afeb146104c0576101c2565b806341c0e1b51161015957806361b029ed1161013357806361b029ed1461038057806379fca285146103bd5780638529b35d146103fa5780638609cad11461043c576101c2565b806341c0e1b5146103175780634a3bc19d1461032e5780635a436c0614610357576101c2565b806320c5375e1161019557806320c5375e1461023f5780632c388d5d146102815780633f2aecea146102aa57806341684769146102d3576101c2565b80630e2c4129146101c4578063110466ed146101ed5780631bcd250a14610216576101c2565b366101c257005b005b3480156101d057600080fd5b506101eb60048036038101906101e691906145be565b610719565b005b3480156101f957600080fd5b50610214600480360381019061020f9190614652565b610b3e565b005b34801561022257600080fd5b5061023d6004803603810190610238919061467f565b610e0e565b005b34801561024b57600080fd5b50610266600480360381019061026191906146e2565b610ef7565b604051610278969594939291906147f9565b60405180910390f35b34801561028d57600080fd5b506102a860048036038101906102a3919061467f565b610ff5565b005b3480156102b657600080fd5b506102d160048036038101906102cc919061488d565b6110de565b005b3480156102df57600080fd5b506102fa60048036038101906102f5919061467f565b6111f3565b60405161030e9897969594939291906148ee565b60405180910390f35b34801561032357600080fd5b5061032c61130a565b005b34801561033a57600080fd5b506103556004803603810190610350919061499f565b611427565b005b34801561036357600080fd5b5061037e600480360381019061037991906145be565b611528565b005b34801561038c57600080fd5b506103a760048036038101906103a291906146e2565b611a52565b6040516103b491906149df565b60405180910390f35b3480156103c957600080fd5b506103e460048036038101906103df91906146e2565b611bb9565b6040516103f191906149fa565b60405180910390f35b34801561040657600080fd5b50610421600480360381019061041c9190614a15565b611cc8565b604051610433969594939291906147f9565b60405180910390f35b610456600480360381019061045191906146e2565b611f31565b005b34801561046457600080fd5b5061047f600480360381019061047a919061467f565b611fef565b60405161048c91906149df565b60405180910390f35b3480156104a157600080fd5b506104aa61200c565b6040516104b79190614bde565b60405180910390f35b3480156104cc57600080fd5b506104e760048036038101906104e2919061467f565b61225a565b6040516104f491906149df565b60405180910390f35b610505612277565b005b34801561051357600080fd5b5061052e6004803603810190610529919061467f565b612595565b60405161053b91906149df565b60405180910390f35b34801561055057600080fd5b5061056b600480360381019061056691906146e2565b6125b2565b005b34801561057957600080fd5b5061058261291e565b60405161058f91906149df565b60405180910390f35b3480156105a457600080fd5b506105bf60048036038101906105ba919061467f565b612934565b6040516105cc91906149df565b60405180910390f35b3480156105e157600080fd5b506105fc60048036038101906105f79190614c3a565b612951565b005b61061860048036038101906106139190614c3a565b612cf0565b005b34801561062657600080fd5b50610641600480360381019061063c919061467f565b6132d9565b6040516106549796959493929190614ce3565b60405180910390f35b34801561066957600080fd5b50610684600480360381019061067f9190614a15565b613686565b60405161069696959493929190614d59565b60405180910390f35b3480156106ab57600080fd5b506106c660048036038101906106c19190614dba565b613863565b6040516106d39190614e35565b60405180910390f35b3480156106e857600080fd5b5061070360048036038101906106fe919061467f565b613942565b60405161071091906149df565b60405180910390f35b60011515600360003373ffffffffffffffffffffffffffffffffffffffff1673ffffffffffffffffffffffffffffffffffffffff16815260200190815260200160002060009054906101000a900460ff161515146107ac576040517f08c379a00000000000000000000000000000000000000000000000000000000081526004016107a390614e9c565b60405180910390fd5b600060149054906101000a900460ff166107fb576040517f08c379a00000000000000000000000000000000000000000000000000000000081526004016107f290614f2e565b60405180910390fd5b61080481612595565b15610844576040517f08c379a000000000000000000000000000000000000000000000000000000000815260040161083b90614fc0565b60405180910390fd5b60046009541015610b2f5760008054906101000a900473ffffffffffffffffffffffffffffffffffffffff1673ffffffffffffffffffffffffffffffffffffffff163373ffffffffffffffffffffffffffffffffffffffff1614806108ae57506108ad3361225a565b5b6108ed576040517f08c379a00000000000000000000000000000000000000000000000000000000081526004016108e49061502c565b60405180910390fd5b600960008154809291906109009061507b565b919050555060405180610100016040528060095481526020018381526020018273ffffffffffffffffffffffffffffffffffffffff168152602001600115158152602001600015158152602001600015158152602001600081526020016000815250600860008373ffffffffffffffffffffffffffffffffffffffff1673ffffffffffffffffffffffffffffffffffffffff1681526020019081526020016000206000820151816000015560208201518160010190805190602001906109c79291906142d9565b5060408201518160020160006101000a81548173ffffffffffffffffffffffffffffffffffffffff021916908373ffffffffffffffffffffffffffffffffffffffff16021790555060608201518160020160146101000a81548160ff02191690831515021790555060808201518160020160156101000a81548160ff02191690831515021790555060a08201518160020160166101000a81548160ff02191690831515021790555060c0820151816003015560e08201518160040155905050610a8f81613ad6565b6001600860008373ffffffffffffffffffffffffffffffffffffffff1673ffffffffffffffffffffffffffffffffffffffff16815260200190815260200160002060020160166101000a81548160ff021916908315150217905550610af381613b36565b7f478f5152d8fc568db3f8de9fb402fd9d98a1a7541ecfe434e59cf574fbfc552481604051610b2291906150c4565b60405180910390a1610b3a565b610b398282613b96565b5b5050565b60008054906101000a900473ffffffffffffffffffffffffffffffffffffffff1673ffffffffffffffffffffffffffffffffffffffff163373ffffffffffffffffffffffffffffffffffffffff161480610ba85750610ba7336005613a4490919063ffffffff16565b5b610be7576040517f08c379a0000000000000000000000000000000000000000000000000000000008152600401610bde90615151565b60405180910390fd5b600060149054906101000a900460ff1615158115151415610c3d576040517f08c379a0000000000000000000000000000000000000000000000000000000008152600401610c34906151e3565b60405180910390fd5b6000805b600180549050811015610cdc573373ffffffffffffffffffffffffffffffffffffffff1660018281548110610c7957610c78615203565b5b9060005260206000200160009054906101000a900473ffffffffffffffffffffffffffffffffffffffff1673ffffffffffffffffffffffffffffffffffffffff161415610cc95760019150610cdc565b8080610cd49061507b565b915050610c41565b508015610d1e576040517f08c379a0000000000000000000000000000000000000000000000000000000008152600401610d15906152a4565b60405180910390fd5b6001339080600181540180825580915050600190039060005260206000200160009091909190916101000a81548173ffffffffffffffffffffffffffffffffffffffff021916908373ffffffffffffffffffffffffffffffffffffffff16021790555060025460018054905010610e0a5781600060146101000a81548160ff021916908315150217905550600067ffffffffffffffff811115610dc457610dc3614435565b5b604051908082528060200260200182016040528015610df25781602001602082028036833780820191505090505b5060019080519060200190610e0892919061435f565b505b5050565b60008054906101000a900473ffffffffffffffffffffffffffffffffffffffff1673ffffffffffffffffffffffffffffffffffffffff163373ffffffffffffffffffffffffffffffffffffffff1614610e9c576040517f08c379a0000000000000000000000000000000000000000000000000000000008152600401610e9390615310565b60405180910390fd5b6000600360008373ffffffffffffffffffffffffffffffffffffffff1673ffffffffffffffffffffffffffffffffffffffff16815260200190815260200160002060006101000a81548160ff02191690831515021790555050565b600a602052806000526040600020600091509050806000015490806001018054610f209061535f565b80601f0160208091040260200160405190810160405280929190818152602001828054610f4c9061535f565b8015610f995780601f10610f6e57610100808354040283529160200191610f99565b820191906000526020600020905b815481529060010190602001808311610f7c57829003601f168201915b5050505050908060020160009054906101000a900460ff16908060020160019054906101000a900460ff16908060030154908060040160009054906101000a900473ffffffffffffffffffffffffffffffffffffffff16905086565b60008054906101000a900473ffffffffffffffffffffffffffffffffffffffff1673ffffffffffffffffffffffffffffffffffffffff163373ffffffffffffffffffffffffffffffffffffffff1614611083576040517f08c379a000000000000000000000000000000000000000000000000000000000815260040161107a90615310565b60405180910390fd5b6001600360008373ffffffffffffffffffffffffffffffffffffffff1673ffffffffffffffffffffffffffffffffffffffff16815260200190815260200160002060006101000a81548160ff02191690831515021790555050565b60011515600360003373ffffffffffffffffffffffffffffffffffffffff1673ffffffffffffffffffffffffffffffffffffffff16815260200190815260200160002060009054906101000a900460ff16151514611171576040517f08c379a000000000000000000000000000000000000000000000000000000000815260040161116890614e9c565b60405180910390fd5b600060149054906101000a900460ff166111c0576040517f08c379a00000000000000000000000000000000000000000000000000000000081526004016111b790614f2e565b60405180910390fd5b80600a600084815260200190815260200160002060020160016101000a81548160ff021916908360ff1602179055505050565b600860205280600052604060002060009150905080600001549080600101805461121c9061535f565b80601f01602080910402602001604051908101604052809291908181526020018280546112489061535f565b80156112955780601f1061126a57610100808354040283529160200191611295565b820191906000526020600020905b81548152906001019060200180831161127857829003601f168201915b5050505050908060020160009054906101000a900473ffffffffffffffffffffffffffffffffffffffff16908060020160149054906101000a900460ff16908060020160159054906101000a900460ff16908060020160169054906101000a900460ff16908060030154908060040154905088565b60008054906101000a900473ffffffffffffffffffffffffffffffffffffffff1673ffffffffffffffffffffffffffffffffffffffff163373ffffffffffffffffffffffffffffffffffffffff1614611398576040517f08c379a000000000000000000000000000000000000000000000000000000000815260040161138f90615310565b60405180910390fd5b60008054906101000a900473ffffffffffffffffffffffffffffffffffffffff1673ffffffffffffffffffffffffffffffffffffffff163373ffffffffffffffffffffffffffffffffffffffff1614156114255760008054906101000a900473ffffffffffffffffffffffffffffffffffffffff1673ffffffffffffffffffffffffffffffffffffffff16ff5b565b60011515600360003373ffffffffffffffffffffffffffffffffffffffff1673ffffffffffffffffffffffffffffffffffffffff16815260200190815260200160002060009054906101000a900460ff161515146114ba576040517f08c379a00000000000000000000000000000000000000000000000000000000081526004016114b190614e9c565b60405180910390fd5b600060149054906101000a900460ff16611509576040517f08c379a000000000000000000000000000000000000000000000000000000000815260040161150090614f2e565b60405180910390fd5b80600a6000848152602001908152602001600020600301819055505050565b60011515600360003373ffffffffffffffffffffffffffffffffffffffff1673ffffffffffffffffffffffffffffffffffffffff16815260200190815260200160002060009054906101000a900460ff161515146115bb576040517f08c379a00000000000000000000000000000000000000000000000000000000081526004016115b290614e9c565b60405180910390fd5b600060149054906101000a900460ff1661160a576040517f08c379a000000000000000000000000000000000000000000000000000000000815260040161160190614f2e565b60405180910390fd5b61161333612595565b611652576040517f08c379a0000000000000000000000000000000000000000000000000000000008152600401611649906153dd565b60405180910390fd5b61165b81612595565b1561169b576040517f08c379a00000000000000000000000000000000000000000000000000000000081526004016116929061546f565b60405180910390fd5b6116a481612934565b6116e3576040517f08c379a00000000000000000000000000000000000000000000000000000000081526004016116da90615501565b60405180910390fd5b60008060005b600e60003373ffffffffffffffffffffffffffffffffffffffff1673ffffffffffffffffffffffffffffffffffffffff16815260200190815260200160002080549050811015611834578373ffffffffffffffffffffffffffffffffffffffff16600e60003373ffffffffffffffffffffffffffffffffffffffff1673ffffffffffffffffffffffffffffffffffffffff168152602001908152602001600020828154811061179b5761179a615203565b5b9060005260206000200160009054906101000a900473ffffffffffffffffffffffffffffffffffffffff1673ffffffffffffffffffffffffffffffffffffffff16141561182157600192506040517f08c379a000000000000000000000000000000000000000000000000000000000815260040161181890615593565b60405180910390fd5b808061182c9061507b565b9150506116e9565b50816118db57600e60003373ffffffffffffffffffffffffffffffffffffffff1673ffffffffffffffffffffffffffffffffffffffff168152602001908152602001600020839080600181540180825580915050600190039060005260206000200160009091909190916101000a81548173ffffffffffffffffffffffffffffffffffffffff021916908373ffffffffffffffffffffffffffffffffffffffff1602179055505b60005b600d80549050811015611a4b578373ffffffffffffffffffffffffffffffffffffffff16600d828154811061191657611915615203565b5b906000526020600020906004020160000160009054906101000a900473ffffffffffffffffffffffffffffffffffffffff1673ffffffffffffffffffffffffffffffffffffffff161415611a38576001600d828154811061197a57611979615203565b5b9060005260206000209060040201600201600082825461199a91906155b3565b925050819055506009546064600d83815481106119ba576119b9615203565b5b9060005260206000209060040201600201546119d69190615609565b6119e09190615692565b915060328210611a33576119f48585613db1565b6000600d8281548110611a0a57611a09615203565b5b906000526020600020906004020160030160006101000a81548160ff0219169083151502179055505b611a4b565b8080611a439061507b565b9150506118de565b5050505050565b600060011515600360003373ffffffffffffffffffffffffffffffffffffffff1673ffffffffffffffffffffffffffffffffffffffff16815260200190815260200160002060009054906101000a900460ff16151514611ae7576040517f08c379a0000000000000000000000000000000000000000000000000000000008152600401611ade90614e9c565b60405180910390fd5b600060149054906101000a900460ff16611b36576040517f08c379a0000000000000000000000000000000000000000000000000000000008152600401611b2d90614f2e565b60405180910390fd5b60008073ffffffffffffffffffffffffffffffffffffffff16600a600085815260200190815260200160002060040160009054906101000a900473ffffffffffffffffffffffffffffffffffffffff1673ffffffffffffffffffffffffffffffffffffffff161415611bab5760009050611bb0565b600190505b80915050919050565b600060011515600360003373ffffffffffffffffffffffffffffffffffffffff1673ffffffffffffffffffffffffffffffffffffffff16815260200190815260200160002060009054906101000a900460ff16151514611c4e576040517f08c379a0000000000000000000000000000000000000000000000000000000008152600401611c4590614e9c565b60405180910390fd5b600060149054906101000a900460ff16611c9d576040517f08c379a0000000000000000000000000000000000000000000000000000000008152600401611c9490614f2e565b60405180910390fd5b600a600083815260200190815260200160002060020160019054906101000a900460ff169050919050565b6000606060008060008060011515600360003373ffffffffffffffffffffffffffffffffffffffff1673ffffffffffffffffffffffffffffffffffffffff16815260200190815260200160002060009054906101000a900460ff16151514611d65576040517f08c379a0000000000000000000000000000000000000000000000000000000008152600401611d5c90614e9c565b60405180910390fd5b600060149054906101000a900460ff16611db4576040517f08c379a0000000000000000000000000000000000000000000000000000000008152600401611dab90614f2e565b60405180910390fd5b6000600b6000898152602001908152602001600020549050600a600082815260200190815260200160002060000154600a6000838152602001908152602001600020600101600a600084815260200190815260200160002060020160009054906101000a900460ff16600a600085815260200190815260200160002060020160019054906101000a900460ff16600a600086815260200190815260200160002060030154600a600087815260200190815260200160002060040160009054906101000a900473ffffffffffffffffffffffffffffffffffffffff16848054611e9b9061535f565b80601f0160208091040260200160405190810160405280929190818152602001828054611ec79061535f565b8015611f145780601f10611ee957610100808354040283529160200191611f14565b820191906000526020600020905b815481529060010190602001808311611ef757829003601f168201915b505050505094509650965096509650965096505091939550919395565b600060149054906101000a900460ff16611f80576040517f08c379a0000000000000000000000000000000000000000000000000000000008152600401611f7790614f2e565b60405180910390fd5b6000611f8c338361402f565b90503373ffffffffffffffffffffffffffffffffffffffff166108fc600f6000848152602001908152602001600020600401549081150290604051600060405180830381858888f19350505050158015611fea573d6000803e3d6000fd5b505050565b6000612005826006613a4490919063ffffffff16565b9050919050565b606060011515600360003373ffffffffffffffffffffffffffffffffffffffff1673ffffffffffffffffffffffffffffffffffffffff16815260200190815260200160002060009054906101000a900460ff161515146120a1576040517f08c379a000000000000000000000000000000000000000000000000000000000815260040161209890614e9c565b60405180910390fd5b600060149054906101000a900460ff166120f0576040517f08c379a00000000000000000000000000000000000000000000000000000000081526004016120e790614f2e565b60405180910390fd5b600d805480602002602001604051908101604052809291908181526020016000905b8282101561225157838290600052602060002090600402016040518060800160405290816000820160009054906101000a900473ffffffffffffffffffffffffffffffffffffffff1673ffffffffffffffffffffffffffffffffffffffff1673ffffffffffffffffffffffffffffffffffffffff16815260200160018201805461219b9061535f565b80601f01602080910402602001604051908101604052809291908181526020018280546121c79061535f565b80156122145780601f106121e957610100808354040283529160200191612214565b820191906000526020600020905b8154815290600101906020018083116121f757829003601f168201915b50505050508152602001600282015481526020016003820160009054906101000a900460ff16151515158152505081526020019060010190612112565b50505050905090565b6000612270826005613a4490919063ffffffff16565b9050919050565b678ac7230489e80000803410156122c3576040517f08c379a00000000000000000000000000000000000000000000000000000000081526004016122ba9061570f565b60405180910390fd5b678ac7230489e80000341461230d576040517f08c379a0000000000000000000000000000000000000000000000000000000008152600401612304906157a1565b60405180910390fd5b60011515600360003373ffffffffffffffffffffffffffffffffffffffff1673ffffffffffffffffffffffffffffffffffffffff16815260200190815260200160002060009054906101000a900460ff161515146123a0576040517f08c379a000000000000000000000000000000000000000000000000000000000815260040161239790614e9c565b60405180910390fd5b600060149054906101000a900460ff166123ef576040517f08c379a00000000000000000000000000000000000000000000000000000000081526004016123e690614f2e565b60405180910390fd5b6123f833612595565b612437576040517f08c379a000000000000000000000000000000000000000000000000000000000815260040161242e906153dd565b60405180910390fd5b61244033611fef565b15612480576040517f08c379a000000000000000000000000000000000000000000000000000000000815260040161247790615833565b60405180910390fd5b60008054906101000a900473ffffffffffffffffffffffffffffffffffffffff1673ffffffffffffffffffffffffffffffffffffffff166108fc349081150290604051600060405180830381858888f193505050501580156124e6573d6000803e3d6000fd5b506001600860003373ffffffffffffffffffffffffffffffffffffffff1673ffffffffffffffffffffffffffffffffffffffff16815260200190815260200160002060020160156101000a81548160ff02191690831515021790555034600860003373ffffffffffffffffffffffffffffffffffffffff1673ffffffffffffffffffffffffffffffffffffffff1681526020019081526020016000206003018190555061259233614084565b50565b60006125ab826004613a4490919063ffffffff16565b9050919050565b60011515600360003373ffffffffffffffffffffffffffffffffffffffff1673ffffffffffffffffffffffffffffffffffffffff16815260200190815260200160002060009054906101000a900460ff16151514612645576040517f08c379a000000000000000000000000000000000000000000000000000000000815260040161263c90614e9c565b60405180910390fd5b600060149054906101000a900460ff16612694576040517f08c379a000000000000000000000000000000000000000000000000000000000815260040161268b90614f2e565b60405180910390fd5b60006126a0338361402f565b905081600f600083815260200190815260200160002060010154146126fa576040517f08c379a00000000000000000000000000000000000000000000000000000000081526004016126f19061589f565b60405180910390fd5b600f600082815260200190815260200160002060050160009054906101000a900460ff1661275d576040517f08c379a00000000000000000000000000000000000000000000000000000000081526004016127549061590b565b60405180910390fd5b6000600a600084815260200190815260200160002060040160009054906101000a900473ffffffffffffffffffffffffffffffffffffffff1690506000600f600084815260200190815260200160002060030154905060006127ca6127c383600f6140e4565b600a6140fa565b90506000600860008573ffffffffffffffffffffffffffffffffffffffff1673ffffffffffffffffffffffffffffffffffffffff1681526020019081526020016000206003015490506000600860008673ffffffffffffffffffffffffffffffffffffffff1673ffffffffffffffffffffffffffffffffffffffff16815260200190815260200160002060040154905082600f60008881526020019081526020016000206004018190555061287f8284614110565b600860008773ffffffffffffffffffffffffffffffffffffffff1673ffffffffffffffffffffffffffffffffffffffff168152602001908152602001600020600301819055506128cf8184614110565b600860008773ffffffffffffffffffffffffffffffffffffffff1673ffffffffffffffffffffffffffffffffffffffff1681526020019081526020016000206004018190555050505050505050565b60008060149054906101000a900460ff16905090565b600061294a826007613a4490919063ffffffff16565b9050919050565b60011515600360003373ffffffffffffffffffffffffffffffffffffffff1673ffffffffffffffffffffffffffffffffffffffff16815260200190815260200160002060009054906101000a900460ff161515146129e4576040517f08c379a00000000000000000000000000000000000000000000000000000000081526004016129db90614e9c565b60405180910390fd5b600060149054906101000a900460ff16612a33576040517f08c379a0000000000000000000000000000000000000000000000000000000008152600401612a2a90614f2e565b60405180910390fd5b612a3c33611fef565b612a7b576040517f08c379a0000000000000000000000000000000000000000000000000000000008152600401612a729061599d565b60405180910390fd5b6000612a8a8686868686613863565b90506202a30042612a9b91906155b3565b8111612adc576040517f08c379a0000000000000000000000000000000000000000000000000000000008152600401612ad390615a2f565b60405180910390fd5b6000612ae88883614126565b9050600073ffffffffffffffffffffffffffffffffffffffff16600a600083815260200190815260200160002060040160009054906101000a900473ffffffffffffffffffffffffffffffffffffffff1673ffffffffffffffffffffffffffffffffffffffff1614612b8f576040517f08c379a0000000000000000000000000000000000000000000000000000000008152600401612b8690615a9b565b60405180910390fd5b6040518060c00160405280828152602001898152602001600115158152602001600060ff168152602001612bc68989898989613863565b81526020013373ffffffffffffffffffffffffffffffffffffffff16815250600a6000838152602001908152602001600020600082015181600001556020820151816001019080519060200190612c1e9291906142d9565b5060408201518160020160006101000a81548160ff02191690831515021790555060608201518160020160016101000a81548160ff021916908360ff1602179055506080820151816003015560a08201518160040160006101000a81548173ffffffffffffffffffffffffffffffffffffffff021916908373ffffffffffffffffffffffffffffffffffffffff160217905550905050600c6000815480929190612cc79061507b565b919050555080600b6000600c548152602001908152602001600020819055505050505050505050565b633b9aca003410158015612d0c5750670de0b6b3a76400003411155b612d4b576040517f08c379a0000000000000000000000000000000000000000000000000000000008152600401612d4290615b2d565b60405180910390fd5b60011515600360003373ffffffffffffffffffffffffffffffffffffffff1673ffffffffffffffffffffffffffffffffffffffff16815260200190815260200160002060009054906101000a900460ff16151514612dde576040517f08c379a0000000000000000000000000000000000000000000000000000000008152600401612dd590614e9c565b60405180910390fd5b600060149054906101000a900460ff16612e2d576040517f08c379a0000000000000000000000000000000000000000000000000000000008152600401612e2490614f2e565b60405180910390fd5b612e3633612595565b158015612e8f575060008054906101000a900473ffffffffffffffffffffffffffffffffffffffff1673ffffffffffffffffffffffffffffffffffffffff163373ffffffffffffffffffffffffffffffffffffffff1614155b612ece576040517f08c379a0000000000000000000000000000000000000000000000000000000008152600401612ec590615bbf565b60405180910390fd5b6000612edd8686868686613863565b90506000612eeb8883614126565b905087604051602001612efe9190615c1b565b60405160208183030381529060405280519060200120600a6000838152602001908152602001600020600101604051602001612f3a9190615cc6565b6040516020818303038152906040528051906020012014612f90576040517f08c379a0000000000000000000000000000000000000000000000000000000008152600401612f8790615d29565b60405180910390fd5b6000600a600083815260200190815260200160002060040160009054906101000a900473ffffffffffffffffffffffffffffffffffffffff1690506000612fd7338461402f565b905082600f6000838152602001908152602001600020600101541415613032576040517f08c379a000000000000000000000000000000000000000000000000000000000815260040161302990615dbb565b60405180910390fd5b60008054906101000a900473ffffffffffffffffffffffffffffffffffffffff1673ffffffffffffffffffffffffffffffffffffffff166108fc349081150290604051600060405180830381858888f19350505050158015613098573d6000803e3d6000fd5b50601160008154809291906130ac9061507b565b91905055506040518060e001604052808281526020018481526020013373ffffffffffffffffffffffffffffffffffffffff1681526020013481526020016000815260200160001515815260200160011515815250600f6000838152602001908152602001600020600082015181600001556020820151816001015560408201518160020160006101000a81548173ffffffffffffffffffffffffffffffffffffffff021916908373ffffffffffffffffffffffffffffffffffffffff160217905550606082015181600301556080820151816004015560a08201518160050160006101000a81548160ff02191690831515021790555060c08201518160050160016101000a81548160ff021916908315150217905550905050806010600060115481526020019081526020016000208190555061322c600860008473ffffffffffffffffffffffffffffffffffffffff1673ffffffffffffffffffffffffffffffffffffffff1681526020019081526020016000206003015434614159565b600860008473ffffffffffffffffffffffffffffffffffffffff1673ffffffffffffffffffffffffffffffffffffffff1681526020019081526020016000206003018190555061328761328034600f6140e4565b600a6140fa565b600860008473ffffffffffffffffffffffffffffffffffffffff1673ffffffffffffffffffffffffffffffffffffffff1681526020019081526020016000206004018190555050505050505050505050565b606060008060008060008060011515600360003373ffffffffffffffffffffffffffffffffffffffff1673ffffffffffffffffffffffffffffffffffffffff16815260200190815260200160002060009054906101000a900460ff16151514613377576040517f08c379a000000000000000000000000000000000000000000000000000000000815260040161336e90614e9c565b60405180910390fd5b600060149054906101000a900460ff166133c6576040517f08c379a00000000000000000000000000000000000000000000000000000000081526004016133bd90614f2e565b60405180910390fd5b600860008973ffffffffffffffffffffffffffffffffffffffff1673ffffffffffffffffffffffffffffffffffffffff168152602001908152602001600020600101600860008a73ffffffffffffffffffffffffffffffffffffffff1673ffffffffffffffffffffffffffffffffffffffff16815260200190815260200160002060020160009054906101000a900473ffffffffffffffffffffffffffffffffffffffff16600860008b73ffffffffffffffffffffffffffffffffffffffff1673ffffffffffffffffffffffffffffffffffffffff16815260200190815260200160002060020160149054906101000a900460ff16600860008c73ffffffffffffffffffffffffffffffffffffffff1673ffffffffffffffffffffffffffffffffffffffff16815260200190815260200160002060020160159054906101000a900460ff16600860008d73ffffffffffffffffffffffffffffffffffffffff1673ffffffffffffffffffffffffffffffffffffffff16815260200190815260200160002060020160169054906101000a900460ff16600860008e73ffffffffffffffffffffffffffffffffffffffff1673ffffffffffffffffffffffffffffffffffffffff16815260200190815260200160002060030154600860008f73ffffffffffffffffffffffffffffffffffffffff1673ffffffffffffffffffffffffffffffffffffffff168152602001908152602001600020600401548680546135ed9061535f565b80601f01602080910402602001604051908101604052809291908181526020018280546136199061535f565b80156136665780601f1061363b57610100808354040283529160200191613666565b820191906000526020600020905b81548152906001019060200180831161364957829003601f168201915b505050505096509650965096509650965096509650919395979092949650565b60008060008060008060011515600360003373ffffffffffffffffffffffffffffffffffffffff1673ffffffffffffffffffffffffffffffffffffffff16815260200190815260200160002060009054906101000a900460ff16151514613722576040517f08c379a000000000000000000000000000000000000000000000000000000000815260040161371990614e9c565b60405180910390fd5b600060149054906101000a900460ff16613771576040517f08c379a000000000000000000000000000000000000000000000000000000000815260040161376890614f2e565b60405180910390fd5b600060106000898152602001908152602001600020549050600f600082815260200190815260200160002060010154600f600083815260200190815260200160002060020160009054906101000a900473ffffffffffffffffffffffffffffffffffffffff16600f600084815260200190815260200160002060030154600f600085815260200190815260200160002060040154600f600086815260200190815260200160002060050160009054906101000a900460ff16600f600087815260200190815260200160002060050160019054906101000a900460ff169650965096509650965096505091939550919395565b60008073__DateLib_______________________________635ececa4f6040518061010001604052808a61ffff1681526020018960ff1681526020018860ff1681526020018760ff1681526020018660ff168152602001600060ff168152602001600060ff168152602001600060ff168152506040518263ffffffff1660e01b81526004016138f29190615e9b565b602060405180830381865af415801561390f573d6000803e3d6000fd5b505050506040513d601f19601f820116820180604052508101906139339190615ecc565b90508091505095945050505050565b6000600360008373ffffffffffffffffffffffffffffffffffffffff1673ffffffffffffffffffffffffffffffffffffffff16815260200190815260200160002060009054906101000a900460ff169050919050565b600073ffffffffffffffffffffffffffffffffffffffff168173ffffffffffffffffffffffffffffffffffffffff1614156139d257600080fd5b6139dc8282613a44565b156139e657600080fd5b60018260000160008373ffffffffffffffffffffffffffffffffffffffff1673ffffffffffffffffffffffffffffffffffffffff16815260200190815260200160002060006101000a81548160ff0219169083151502179055505050565b60008073ffffffffffffffffffffffffffffffffffffffff168273ffffffffffffffffffffffffffffffffffffffff161415613a7f57600080fd5b8260000160008373ffffffffffffffffffffffffffffffffffffffff1673ffffffffffffffffffffffffffffffffffffffff16815260200190815260200160002060009054906101000a900460ff16905092915050565b613adf81612595565b15613b1f576040517f08c379a0000000000000000000000000000000000000000000000000000000008152600401613b1690614fc0565b60405180910390fd5b613b3381600461399890919063ffffffff16565b50565b613b3f8161225a565b15613b7f576040517f08c379a0000000000000000000000000000000000000000000000000000000008152600401613b7690615f6b565b60405180910390fd5b613b9381600561399890919063ffffffff16565b50565b600060149054906101000a900460ff16613be5576040517f08c379a0000000000000000000000000000000000000000000000000000000008152600401613bdc90614f2e565b60405180910390fd5b613bee81612595565b15613c2e576040517f08c379a0000000000000000000000000000000000000000000000000000000008152600401613c2590614fc0565b60405180910390fd5b613c3781612934565b15613c77576040517f08c379a0000000000000000000000000000000000000000000000000000000008152600401613c6e90615ffd565b60405180910390fd5b600d60405180608001604052808373ffffffffffffffffffffffffffffffffffffffff1681526020018481526020016000815260200160011515815250908060018154018082558091505060019003906000526020600020906004020160009091909190915060008201518160000160006101000a81548173ffffffffffffffffffffffffffffffffffffffff021916908373ffffffffffffffffffffffffffffffffffffffff1602179055506020820151816001019080519060200190613d409291906142d9565b506040820151816002015560608201518160030160006101000a81548160ff0219169083151502179055505050613d768161416f565b7f8cc40b9abca4a505a92028908f9d913d621d18112c69412806506f02333f26b481604051613da591906150c4565b60405180910390a15050565b600060149054906101000a900460ff16613e00576040517f08c379a0000000000000000000000000000000000000000000000000000000008152600401613df790614f2e565b60405180910390fd5b613e0981612595565b15613e49576040517f08c379a0000000000000000000000000000000000000000000000000000000008152600401613e4090614fc0565b60405180910390fd5b60096000815480929190613e5c9061507b565b919050555060405180610100016040528060095481526020018381526020018273ffffffffffffffffffffffffffffffffffffffff168152602001600115158152602001600015158152602001600015158152602001600081526020016000815250600860008373ffffffffffffffffffffffffffffffffffffffff1673ffffffffffffffffffffffffffffffffffffffff168152602001908152602001600020600082015181600001556020820151816001019080519060200190613f239291906142d9565b5060408201518160020160006101000a81548173ffffffffffffffffffffffffffffffffffffffff021916908373ffffffffffffffffffffffffffffffffffffffff16021790555060608201518160020160146101000a81548160ff02191690831515021790555060808201518160020160156101000a81548160ff02191690831515021790555060a08201518160020160166101000a81548160ff02191690831515021790555060c0820151816003015560e08201518160040155905050613feb81613ad6565b613ff4816141cf565b7f478f5152d8fc568db3f8de9fb402fd9d98a1a7541ecfe434e59cf574fbfc55248160405161402391906150c4565b60405180910390a15050565b60008060608473ffffffffffffffffffffffffffffffffffffffff16901b60001b9050808360405160200161406592919061603e565b6040516020818303038152906040528051906020012091505092915050565b61408d81611fef565b156140cd576040517f08c379a00000000000000000000000000000000000000000000000000000000081526004016140c4906160dc565b60405180910390fd5b6140e181600661399890919063ffffffff16565b50565b600081836140f29190615609565b905092915050565b600081836141089190615692565b905092915050565b6000818361411e91906160fc565b905092915050565b6000828260405160200161413b929190616151565b60405160208183030381529060405280519060200120905092915050565b6000818361416791906155b3565b905092915050565b61417881612934565b156141b8576040517f08c379a00000000000000000000000000000000000000000000000000000000081526004016141af90615ffd565b60405180910390fd5b6141cc81600761399890919063ffffffff16565b50565b6141d881612934565b614217576040517f08c379a000000000000000000000000000000000000000000000000000000000815260040161420e906161eb565b60405180910390fd5b61422b81600761422e90919063ffffffff16565b50565b600073ffffffffffffffffffffffffffffffffffffffff168173ffffffffffffffffffffffffffffffffffffffff16141561426857600080fd5b6142728282613a44565b61427b57600080fd5b60008260000160008373ffffffffffffffffffffffffffffffffffffffff1673ffffffffffffffffffffffffffffffffffffffff16815260200190815260200160002060006101000a81548160ff0219169083151502179055505050565b8280546142e59061535f565b90600052602060002090601f016020900481019282614307576000855561434e565b82601f1061432057805160ff191683800117855561434e565b8280016001018555821561434e579182015b8281111561434d578251825591602001919060010190614332565b5b50905061435b91906143e9565b5090565b8280548282559060005260206000209081019282156143d8579160200282015b828111156143d75782518260006101000a81548173ffffffffffffffffffffffffffffffffffffffff021916908373ffffffffffffffffffffffffffffffffffffffff1602179055509160200191906001019061437f565b5b5090506143e591906143e9565b5090565b5b808211156144025760008160009055506001016143ea565b5090565b6000604051905090565b600080fd5b600080fd5b600080fd5b600080fd5b6000601f19601f8301169050919050565b7f4e487b7100000000000000000000000000000000000000000000000000000000600052604160045260246000fd5b61446d82614424565b810181811067ffffffffffffffff8211171561448c5761448b614435565b5b80604052505050565b600061449f614406565b90506144ab8282614464565b919050565b600067ffffffffffffffff8211156144cb576144ca614435565b5b6144d482614424565b9050602081019050919050565b82818337600083830152505050565b60006145036144fe846144b0565b614495565b90508281526020810184848401111561451f5761451e61441f565b5b61452a8482856144e1565b509392505050565b600082601f8301126145475761454661441a565b5b81356145578482602086016144f0565b91505092915050565b600073ffffffffffffffffffffffffffffffffffffffff82169050919050565b600061458b82614560565b9050919050565b61459b81614580565b81146145a657600080fd5b50565b6000813590506145b881614592565b92915050565b600080604083850312156145d5576145d4614410565b5b600083013567ffffffffffffffff8111156145f3576145f2614415565b5b6145ff85828601614532565b9250506020614610858286016145a9565b9150509250929050565b60008115159050919050565b61462f8161461a565b811461463a57600080fd5b50565b60008135905061464c81614626565b92915050565b60006020828403121561466857614667614410565b5b60006146768482850161463d565b91505092915050565b60006020828403121561469557614694614410565b5b60006146a3848285016145a9565b91505092915050565b6000819050919050565b6146bf816146ac565b81146146ca57600080fd5b50565b6000813590506146dc816146b6565b92915050565b6000602082840312156146f8576146f7614410565b5b6000614706848285016146cd565b91505092915050565b614718816146ac565b82525050565b600081519050919050565b600082825260208201905092915050565b60005b8381101561475857808201518184015260208101905061473d565b83811115614767576000848401525b50505050565b60006147788261471e565b6147828185614729565b935061479281856020860161473a565b61479b81614424565b840191505092915050565b6147af8161461a565b82525050565b600060ff82169050919050565b6147cb816147b5565b82525050565b6000819050919050565b6147e4816147d1565b82525050565b6147f381614580565b82525050565b600060c08201905061480e600083018961470f565b8181036020830152614820818861476d565b905061482f60408301876147a6565b61483c60608301866147c2565b61484960808301856147db565b61485660a08301846147ea565b979650505050505050565b61486a816147b5565b811461487557600080fd5b50565b60008135905061488781614861565b92915050565b600080604083850312156148a4576148a3614410565b5b60006148b2858286016146cd565b92505060206148c385828601614878565b9150509250929050565b60006148d882614560565b9050919050565b6148e8816148cd565b82525050565b600061010082019050614904600083018b6147db565b8181036020830152614916818a61476d565b905061492560408301896148df565b61493260608301886147a6565b61493f60808301876147a6565b61494c60a08301866147a6565b61495960c08301856147db565b61496660e08301846147db565b9998505050505050505050565b61497c816147d1565b811461498757600080fd5b50565b60008135905061499981614973565b92915050565b600080604083850312156149b6576149b5614410565b5b60006149c4858286016146cd565b92505060206149d58582860161498a565b9150509250929050565b60006020820190506149f460008301846147a6565b92915050565b6000602082019050614a0f60008301846147c2565b92915050565b600060208284031215614a2b57614a2a614410565b5b6000614a398482850161498a565b91505092915050565b600081519050919050565b600082825260208201905092915050565b6000819050602082019050919050565b614a7781614580565b82525050565b600082825260208201905092915050565b6000614a998261471e565b614aa38185614a7d565b9350614ab381856020860161473a565b614abc81614424565b840191505092915050565b614ad0816147d1565b82525050565b614adf8161461a565b82525050565b6000608083016000830151614afd6000860182614a6e565b5060208301518482036020860152614b158282614a8e565b9150506040830151614b2a6040860182614ac7565b506060830151614b3d6060860182614ad6565b508091505092915050565b6000614b548383614ae5565b905092915050565b6000602082019050919050565b6000614b7482614a42565b614b7e8185614a4d565b935083602082028501614b9085614a5e565b8060005b85811015614bcc5784840389528151614bad8582614b48565b9450614bb883614b5c565b925060208a01995050600181019050614b94565b50829750879550505050505092915050565b60006020820190508181036000830152614bf88184614b69565b905092915050565b600061ffff82169050919050565b614c1781614c00565b8114614c2257600080fd5b50565b600081359050614c3481614c0e565b92915050565b60008060008060008060c08789031215614c5757614c56614410565b5b600087013567ffffffffffffffff811115614c7557614c74614415565b5b614c8189828a01614532565b9650506020614c9289828a01614c25565b9550506040614ca389828a01614878565b9450506060614cb489828a01614878565b9350506080614cc589828a01614878565b92505060a0614cd689828a01614878565b9150509295509295509295565b600060e0820190508181036000830152614cfd818a61476d565b9050614d0c60208301896147ea565b614d1960408301886147a6565b614d2660608301876147a6565b614d3360808301866147a6565b614d4060a08301856147db565b614d4d60c08301846147db565b98975050505050505050565b600060c082019050614d6e600083018961470f565b614d7b60208301886147ea565b614d8860408301876147db565b614d9560608301866147db565b614da260808301856147a6565b614daf60a08301846147a6565b979650505050505050565b600080600080600060a08688031215614dd657614dd5614410565b5b6000614de488828901614c25565b9550506020614df588828901614878565b9450506040614e0688828901614878565b9350506060614e1788828901614878565b9250506080614e2888828901614878565b9150509295509295909350565b6000602082019050614e4a60008301846147db565b92915050565b7f43616c6c6572206973206e6f7420617574686f72697a65640000000000000000600082015250565b6000614e86601883614729565b9150614e9182614e50565b602082019050919050565b60006020820190508181036000830152614eb581614e79565b9050919050565b7f434f4e54524143542049532043555252454e544c59204e4f54204f504552415460008201527f494f4e414c000000000000000000000000000000000000000000000000000000602082015250565b6000614f18602583614729565b9150614f2382614ebc565b604082019050919050565b60006020820190508181036000830152614f4781614f0b565b9050919050565b7f4552524f523a204149524c494e4520495320414c52454144592052454749535460008201527f4552454400000000000000000000000000000000000000000000000000000000602082015250565b6000614faa602483614729565b9150614fb582614f4e565b604082019050919050565b60006020820190508181036000830152614fd981614f9d565b9050919050565b7f4552524f523a2043414c4c4552204953204e4f5420434f4e54524f4c4c455200600082015250565b6000615016601f83614729565b915061502182614fe0565b602082019050919050565b6000602082019050818103600083015261504581615009565b9050919050565b7f4e487b7100000000000000000000000000000000000000000000000000000000600052601160045260246000fd5b6000615086826147d1565b91507fffffffffffffffffffffffffffffffffffffffffffffffffffffffffffffffff8214156150b9576150b861504c565b5b600182019050919050565b60006020820190506150d960008301846147ea565b92915050565b7f43414c4c4552204953204e4f5420414e20415554484f52495a454420434f4e5460008201527f5241435400000000000000000000000000000000000000000000000000000000602082015250565b600061513b602483614729565b9150615146826150df565b604082019050919050565b6000602082019050818103600083015261516a8161512e565b9050919050565b7f4e4557204d4f4445204d555354204245204449464552454e542046524f4d205460008201527f4845204558495349544e47000000000000000000000000000000000000000000602082015250565b60006151cd602b83614729565b91506151d882615171565b604082019050919050565b600060208201905081810360008301526151fc816151c0565b9050919050565b7f4e487b7100000000000000000000000000000000000000000000000000000000600052603260045260246000fd5b7f4552524f523a2043414c4c45522048415320414c52454144592043414c4c454460008201527f20544849532046554e4354494f4e000000000000000000000000000000000000602082015250565b600061528e602e83614729565b915061529982615232565b604082019050919050565b600060208201905081810360008301526152bd81615281565b9050919050565b7f43414c4c4552204953204e4f5420434f4e5452414354204f574e455200000000600082015250565b60006152fa601c83614729565b9150615305826152c4565b602082019050919050565b60006020820190508181036000830152615329816152ed565b9050919050565b7f4e487b7100000000000000000000000000000000000000000000000000000000600052602260045260246000fd5b6000600282049050600182168061537757607f821691505b6020821081141561538b5761538a615330565b5b50919050565b7f4552524f523a2043414c4c4552204953204e4f54205245474953544552454400600082015250565b60006153c7601f83614729565b91506153d282615391565b602082019050919050565b600060208201905081810360008301526153f6816153ba565b9050919050565b7f4552524f523a204149524c494e4520564f54454420495320414c52454144592060008201527f5245474953544552454400000000000000000000000000000000000000000000602082015250565b6000615459602a83614729565b9150615464826153fd565b604082019050919050565b600060208201905081810360008301526154888161544c565b9050919050565b7f4552524f523a204149524c494e4520564f544544204953204e4f54204120434160008201527f4e44494441544500000000000000000000000000000000000000000000000000602082015250565b60006154eb602783614729565b91506154f68261548f565b604082019050919050565b6000602082019050818103600083015261551a816154de565b9050919050565b7f4552524f523a2043414c4c455220414c524541445920564f54454420464f522060008201527f54484953204149524c494e450000000000000000000000000000000000000000602082015250565b600061557d602c83614729565b915061558882615521565b604082019050919050565b600060208201905081810360008301526155ac81615570565b9050919050565b60006155be826147d1565b91506155c9836147d1565b9250827fffffffffffffffffffffffffffffffffffffffffffffffffffffffffffffffff038211156155fe576155fd61504c565b5b828201905092915050565b6000615614826147d1565b915061561f836147d1565b9250817fffffffffffffffffffffffffffffffffffffffffffffffffffffffffffffffff04831182151516156156585761565761504c565b5b828202905092915050565b7f4e487b7100000000000000000000000000000000000000000000000000000000600052601260045260246000fd5b600061569d826147d1565b91506156a8836147d1565b9250826156b8576156b7615663565b5b828204905092915050565b7f414d4f554e54204953204e4f5420454e4f554748540000000000000000000000600082015250565b60006156f9601583614729565b9150615704826156c3565b602082019050919050565b60006020820190508181036000830152615728816156ec565b9050919050565b7f4149524c494e45204d555354205452414e534645522045584143544c5920313060008201527f2045544845525300000000000000000000000000000000000000000000000000602082015250565b600061578b602783614729565b91506157968261572f565b604082019050919050565b600060208201905081810360008301526157ba8161577e565b9050919050565b7f4552524f523a2043414c4c455220495320414c5245414459204120504152544960008201527f434950414e540000000000000000000000000000000000000000000000000000602082015250565b600061581d602683614729565b9150615828826157c1565b604082019050919050565b6000602082019050818103600083015261584c81615810565b9050919050565b7f4552524f523a20494e535552414e4345204e4f5420464f554e44000000000000600082015250565b6000615889601a83614729565b915061589482615853565b602082019050919050565b600060208201905081810360008301526158b88161587c565b9050919050565b7f4552524f523a204e4f5448494e4720544f20434c41494d000000000000000000600082015250565b60006158f5601783614729565b9150615900826158bf565b602082019050919050565b60006020820190508181036000830152615924816158e8565b9050919050565b7f4552524f523a2043414c4c4552204953204e4f5420412050415254494349504160008201527f4e54000000000000000000000000000000000000000000000000000000000000602082015250565b6000615987602283614729565b91506159928261592b565b604082019050919050565b600060208201905081810360008301526159b68161597a565b9050919050565b7f4552524f523a20464c494748542054494d45204d555354204245204154204c4560008201527f41535420343820484f555253205448414e204e4f570000000000000000000000602082015250565b6000615a19603583614729565b9150615a24826159bd565b604082019050919050565b60006020820190508181036000830152615a4881615a0c565b9050919050565b7f4552524f523a20464c4947485420414c52454144592052454749535445524544600082015250565b6000615a85602083614729565b9150615a9082615a4f565b602082019050919050565b60006020820190508181036000830152615ab481615a78565b9050919050565b7f43414c4c4552204d555354205350454e44204245545745454e2031204757454960008201527f20414e4420312045544845520000000000000000000000000000000000000000602082015250565b6000615b17602c83614729565b9150615b2282615abb565b604082019050919050565b60006020820190508181036000830152615b4681615b0a565b9050919050565b7f4552524f523a2043414c4c4552204953204e4f5420414c4c4f57454420544f2060008201527f42555920494e535552414e434500000000000000000000000000000000000000602082015250565b6000615ba9602d83614729565b9150615bb482615b4d565b604082019050919050565b60006020820190508181036000830152615bd881615b9c565b9050919050565b600081905092915050565b6000615bf58261471e565b615bff8185615bdf565b9350615c0f81856020860161473a565b80840191505092915050565b6000615c278284615bea565b915081905092915050565b60008190508160005260206000209050919050565b60008154615c548161535f565b615c5e8186615bdf565b94506001821660008114615c795760018114615c8a57615cbd565b60ff19831686528186019350615cbd565b615c9385615c32565b60005b83811015615cb557815481890152600182019150602081019050615c96565b838801955050505b50505092915050565b6000615cd28284615c47565b915081905092915050565b7f4552524f523a20464c49474854204e4f5420464f554e44000000000000000000600082015250565b6000615d13601783614729565b9150615d1e82615cdd565b602082019050919050565b60006020820190508181036000830152615d4281615d06565b9050919050565b7f4552524f523a2050415353454e47455220414c524541445920424f554748542060008201527f5448495320464c4947485420494e535552414e43450000000000000000000000602082015250565b6000615da5603583614729565b9150615db082615d49565b604082019050919050565b60006020820190508181036000830152615dd481615d98565b9050919050565b615de481614c00565b82525050565b615df3816147b5565b82525050565b61010082016000820151615e106000850182615ddb565b506020820151615e236020850182615dea565b506040820151615e366040850182615dea565b506060820151615e496060850182615dea565b506080820151615e5c6080850182615dea565b5060a0820151615e6f60a0850182615dea565b5060c0820151615e8260c0850182615dea565b5060e0820151615e9560e0850182615dea565b50505050565b600061010082019050615eb16000830184615df9565b92915050565b600081519050615ec681614973565b92915050565b600060208284031215615ee257615ee1614410565b5b6000615ef084828501615eb7565b91505092915050565b7f4552524f523a204149524c494e4520495320414c5245414459204120434f4e5460008201527f524f4c4c45520000000000000000000000000000000000000000000000000000602082015250565b6000615f55602683614729565b9150615f6082615ef9565b604082019050919050565b60006020820190508181036000830152615f8481615f48565b9050919050565b7f4552524f523a204149524c494e4520495320414c524541445920412043414e4460008201527f4944415445000000000000000000000000000000000000000000000000000000602082015250565b6000615fe7602583614729565b9150615ff282615f8b565b604082019050919050565b6000602082019050818103600083015261601681615fda565b9050919050565b6000819050919050565b616038616033826146ac565b61601d565b82525050565b600061604a8285616027565b60208201915061605a8284616027565b6020820191508190509392505050565b7f4552524f523a204149524c494e4520495320414c52454144592041205041525460008201527f49434950414e5400000000000000000000000000000000000000000000000000602082015250565b60006160c6602783614729565b91506160d18261606a565b604082019050919050565b600060208201905081810360008301526160f5816160b9565b9050919050565b6000616107826147d1565b9150616112836147d1565b9250828210156161255761612461504c565b5b828203905092915050565b6000819050919050565b61614b616146826147d1565b616130565b82525050565b600061615d8285615bea565b9150616169828461613a565b6020820191508190509392505050565b7f4552524f523a204149524c494e45204953204e4f5420412043414e444944415460008201527f4500000000000000000000000000000000000000000000000000000000000000602082015250565b60006161d5602183614729565b91506161e082616179565b604082019050919050565b60006020820190508181036000830152616204816161c8565b905091905056fea2646970667358221220a7479030e471eecc293ae22237ede40cb87eb0cc29f4642cce8df08195597a3e64736f6c634300080b0033",
  "immutableReferences": {},
  "source": "// SPDX-License-Identifier: MIT\npragma solidity ^0.8.0;\n\n// Import Libraries\nimport \"./DateLib.sol\";\n\nimport \"./accesscontrol/RoleLib.sol\";\n\nimport \"@openzeppelin/contracts/utils/math/SafeMath.sol\";\n\ncontract FlightSuretyData {\n\n    address payable contractOwner;              // ACCOUNT USED TO DEPLOY CONTRACT\n    bool private operational = true;            // BLOCKS ALL STATE CHANGES THROUGHOUT THE CONTRACT IF FALSE\n    address[] multiCalls = new address[](0);\n    uint M = 3;\n\n    mapping(address => bool) AuthorizedCallers;\n    \n\n    /********************************************************************************************/\n    /*                                         SAFEMATH                                         */\n    /********************************************************************************************/\n    using SafeMath for uint256;                 //LIBRARY USED TO EXECUTE MATH OPERATIONS         \n\n\n    /********************************************************************************************/\n    /*                                          DATELIB                                         */\n    /********************************************************************************************/\n    using DateLib for DateLib.DateTime;         //LIBRARY USED TO CONVERT HUMAN DATE TIME TO EPOCH TIMESTAMP\n\n    function getDateTime(uint16 _year, uint8 _month, uint8 _day, uint8 _hour, uint8 _minute) public pure returns(uint) {\n        uint unixDate = DateLib.toUnixTimestamp(DateLib.DateTime({\n            year: _year,\n            month: _month,\n            day: _day,\n            hour: _hour,\n            minute: _minute,\n            second: 0,\n            ms: 0,\n            weekday: 0\n        })\n        );\n        return unixDate;\n    }\n\n\n    /********************************************************************************************/\n    /*                                         ROLELIB                                          */\n    /********************************************************************************************/\n    using RoleLib for RoleLib.Role;             //LIBRARY USED TO CLASSIFY AIRLINES INTO DIFFERENT ROLES\n\n    RoleLib.Role private registers;\n    RoleLib.Role private controllers;\n    RoleLib.Role private participants;\n    RoleLib.Role private candidates;            \n\n    function register(address _address) internal {\n        require(!isRegistered(_address), \"ERROR: AIRLINE IS ALREADY REGISTERED\");\n        registers.add(_address);\n    }\n\n    function addController(address _address) internal {\n        require(!isController(_address), \"ERROR: AIRLINE IS ALREADY A CONTROLLER\");\n        controllers.add(_address);\n    }\n\n    function addParticipant(address _address) internal {\n        require(!isParticipant(_address), \"ERROR: AIRLINE IS ALREADY A PARTICIPANT\");\n        participants.add(_address);\n    }\n    \n    function addCandidate(address _address) internal {\n        require(!isCandidate(_address), \"ERROR: AIRLINE IS ALREADY A CANDIDATE\");\n        candidates.add(_address);\n    }\n\n    function removeCandidate(address _address) internal {\n        require(isCandidate(_address), \"ERROR: AIRLINE IS NOT A CANDIDATE\");\n        candidates.remove(_address);\n    }\n\n\n    /********************************************************************************************/\n    /*                                      AIRLINE VARIABLES                                   */\n    /********************************************************************************************/\n    struct Airline {\n        uint            airlineId;\n        string          airlineName;\n        address payable airlineAddress;\n        bool            registered;\n        bool            participant;\n        bool            controller;\n        uint            fundAvailable;\n        uint            fundCommitted;\n    }\n    mapping(address => Airline) public airlines;\n    uint aCounter;\n\n\n    /********************************************************************************************/\n    /*                                      FLIGHT VARIABLES                                    */\n    /********************************************************************************************/\n    struct Flight {\n        bytes32         flightKey;\n        string          flight;\n        bool            active;\n        uint8           statusCode;\n        uint256         updatedTimestamp;\n        address         airlineAddress;\n    }\n    mapping(bytes32 => Flight) public flights;\n    mapping(uint => bytes32) private flightsReverse;\n    uint fCounter;\n\n\n    /********************************************************************************************/\n    /*                             CANDIDATE AIRLINE VARIABLES                                  */\n    /********************************************************************************************/\n    struct Proposal {\n        address         proposedAddress;\n        string          proposedName;\n        uint            voteCount;\n        bool            active;\n    }\n    Proposal[] private proposals;\n    mapping(address => address[]) voters;\n\n\n    /********************************************************************************************/\n    /*                                       DATA VARIABLES                                     */\n    /********************************************************************************************/\n    struct Insurance {\n        bytes32         insuranceKey;\n        bytes32         flightKey;\n        address payable passengerAddress;\n        uint            amountPaid;\n        uint            amountAvailable;\n        bool            claimable;\n        bool            active;\n    }\n    mapping(bytes32 => Insurance) insurances;\n    mapping(uint => bytes32) private insurancesReverse;\n    uint iCounter;\n\n\n    /********************************************************************************************/\n    /*                                       EVENT DEFINITIONS                                  */\n    /********************************************************************************************/\n    event Registration(address);\n    event Candidate(address);\n    event Funding(address);\n    event Acquisition(address);\n    event Payment(address);\n\n\n    /********************************************************************************************/\n    /*                                       FUNCTION MODIFIERS                                 */\n    /********************************************************************************************/\n    modifier requireIsOperational() {\n        require(operational, \"CONTRACT IS CURRENTLY NOT OPERATIONAL\");\n        _;\n    }\n\n    modifier verifyCaller(address _address) {\n        require(msg.sender == _address, \"CALLER IS NOT ALLOWED TO EXECUTE FUNCTION\"); \n        _;\n    }\n\n    modifier requireContractOwner() {\n        require(msg.sender == contractOwner, \"CALLER IS NOT CONTRACT OWNER\");\n        _;\n    }\n\n    modifier requireController() {\n        require(msg.sender == contractOwner || controllers.has(msg.sender), \"CALLER IS NOT AN AUTHORIZED CONTRACT\");\n        _;\n    }\n\n    modifier requireAuthorizedCaller(){\n        require(AuthorizedCallers[msg.sender] == true, \"Caller is not authorized\");\n        _;\n    }\n\n    modifier paidEnough(uint _price) { \n        require(msg.value >= _price, \"AMOUNT IS NOT ENOUGHT\"); \n        _;\n    }\n  \n    modifier checkParticipantValue() {\n        require(msg.value == 10 ether, \"AIRLINE MUST TRANSFER EXACTLY 10 ETHERS\");\n        _;\n    }\n\n    modifier checkPassengerValue() {\n        require(msg.value >= 1 gwei && msg.value <= 1 ether, \"CALLER MUST SPEND BETWEEN 1 GWEI AND 1 ETHER\");\n        _;\n    }\n\n\n    /********************************************************************************************/\n    /*                                       CONSTRUCTOR DEFINITION                             */\n    /********************************************************************************************/    \n    /* The deploying account becomes contractOwner */\n    constructor() {\n        contractOwner = payable(msg.sender);\n        aCounter = 1;\n        address _firsairlineAddress = 0xF258b0a25eE7D6f02a9a1118afdF77CaC6D72784;\n        string memory _firstName = \"Air New Zealand\";\n        airlines[_firsairlineAddress] = Airline(\n            {\n                airlineId: aCounter,\n                airlineName: _firstName,\n                airlineAddress: payable(_firsairlineAddress),\n                registered: true,\n                participant: false,\n                controller: true,\n                fundAvailable: 0,\n                fundCommitted: 0\n            });\n        register(_firsairlineAddress);\n        addController(_firsairlineAddress);\n    }\n\n\n    /********************************************************************************************/\n    /*                                       UTILITY FUNCTIONS                                  */\n    /********************************************************************************************/\n    function kill() public requireContractOwner() {\n        if (msg.sender == contractOwner) {\n            selfdestruct(contractOwner);\n        }\n    }\n\n    function isOperational() public view returns(bool) {\n        return operational;\n    }\n    \n    function isRegistered(address _address) public view returns(bool) {\n        return registers.has(_address);\n    }\n\n    function isController(address _address) public view returns(bool) {\n        return controllers.has(_address);\n    }\n\n    function isParticipant(address _address) public view returns(bool) {\n        return participants.has(_address); \n    }\n\n    function isCandidate(address _address) public view returns(bool) {\n        return candidates.has(_address);\n    }\n\n    function authorizeCaller(address _caller) public requireContractOwner {\n        AuthorizedCallers[_caller] = true;\n    }\n\n    function isAuthorized(address _caller) public view returns(bool) {\n        return AuthorizedCallers[_caller];\n    }\n\n    function deAuthorizeCaller(address _caller) public requireContractOwner {\n        AuthorizedCallers[_caller] = false;\n    }\n\n\n    /********************************************************************************************/\n    /*                                  OPERATIONAL STATUS CONTROL                              */\n    /********************************************************************************************/\n    function setOperatingStatus(bool mode) external requireController() {\n        require(mode != operational, \"NEW MODE MUST BE DIFERENT FROM THE EXISITNG\");\n\n        bool isDuplicate = false;\n        for(uint c = 0; c < multiCalls.length; c++) {\n            if (multiCalls[c] == msg.sender) {\n                isDuplicate = true;\n                break;\n            }\n        }\n        \n        require(!isDuplicate, \"ERROR: CALLER HAS ALREADY CALLED THIS FUNCTION\");\n\n        multiCalls.push(msg.sender);\n        if (multiCalls.length >= M) {\n            operational = mode;\n            multiCalls = new address[](0);\n        }\n    }\n\n\n    /********************************************************************************************/\n    /*                       SMART CONTRACT REGISTER AIRLINES FUNCTIONS                         */\n    /********************************************************************************************/\n    function candidateAirline(string memory _cName, address _cAddress) internal requireIsOperational() {\n        require(!isRegistered(_cAddress), \"ERROR: AIRLINE IS ALREADY REGISTERED\");\n        require(!isCandidate(_cAddress), \"ERROR: AIRLINE IS ALREADY A CANDIDATE\");\n\n        proposals.push(Proposal({\n            proposedAddress: _cAddress,\n            proposedName: _cName,\n            voteCount: 0,\n            active: true\n        }));\n        addCandidate(_cAddress);\n     \n        emit Candidate(_cAddress);\n    }\n    \n    function registerAirline(string memory _airlineName, address _airlineAddress) external requireAuthorizedCaller() requireIsOperational() {\n        require(!isRegistered(_airlineAddress), \"ERROR: AIRLINE IS ALREADY REGISTERED\");\n        if(aCounter < 4) {\n            require(msg.sender == contractOwner || isController(msg.sender), \"ERROR: CALLER IS NOT CONTROLLER\");\n\n            aCounter ++;\n            airlines[_airlineAddress] = Airline(\n                {\n                    airlineId: aCounter,\n                    airlineName: _airlineName,\n                    airlineAddress: payable(_airlineAddress),                    \n                    registered: true,\n                    participant: false,\n                    controller: false,\n                    fundAvailable: 0,\n                    fundCommitted: 0\n                }\n            );\n            register(_airlineAddress);\n            airlines[_airlineAddress].controller = true;\n            addController(_airlineAddress);\n            \n            emit Registration(_airlineAddress);\n\n        }\n        else {\n            candidateAirline(_airlineName, _airlineAddress);\n        }\n    }\n\n    function registerAirlineByVote(string memory _airlineName2, address _airlineAddress2) internal requireIsOperational() {\n        require(!isRegistered(_airlineAddress2), \"ERROR: AIRLINE IS ALREADY REGISTERED\");\n\n        aCounter ++;\n        airlines[_airlineAddress2] = Airline(\n            {\n                airlineId: aCounter,\n                airlineName: _airlineName2,\n                airlineAddress: payable(_airlineAddress2),                    \n                registered: true,\n                participant: false,\n                controller: false,\n                fundAvailable: 0,\n                fundCommitted: 0\n            }\n        );\n        register(_airlineAddress2);\n        removeCandidate(_airlineAddress2);\n\n        emit Registration(_airlineAddress2);\n    }\n\n\n    /********************************************************************************************/\n    /*                          SMART CONTRACT PARTICIPANT FUNCTIONS                            */\n    /********************************************************************************************/\n    function fund() public payable paidEnough(10 ether) checkParticipantValue() requireAuthorizedCaller() requireIsOperational() {\n        require(isRegistered(msg.sender), \"ERROR: CALLER IS NOT REGISTERED\");\n        require(!isParticipant(msg.sender), \"ERROR: CALLER IS ALREADY A PARTICIPANT\");\n\n        contractOwner.transfer(msg.value);\n\n        airlines[msg.sender].participant = true;\n        airlines[msg.sender].fundAvailable = msg.value;\n        addParticipant(msg.sender);\n    \n        //emit Funding(msg.sender);\n    }\n\n\n    /********************************************************************************************/\n    /*                              SMART CONTRACT VOTING FUNCTIONS                             */\n    /********************************************************************************************/\n    function vote(string memory _vName, address _vAddress) external requireAuthorizedCaller() requireIsOperational() {\n        require(isRegistered(msg.sender), \"ERROR: CALLER IS NOT REGISTERED\");\n        require(!isRegistered(_vAddress), \"ERROR: AIRLINE VOTED IS ALREADY REGISTERED\");\n        require(isCandidate(_vAddress), \"ERROR: AIRLINE VOTED IS NOT A CANDIDATE\");\n\n        bool found = false;\n        uint result = 0;\n        for (uint v = 0; v < voters[msg.sender].length; v++) {\n            if(voters[msg.sender][v] == _vAddress){\n                found = true;\n                revert(\"ERROR: CALLER ALREADY VOTED FOR THIS AIRLINE\");\n            }\n        }\n        if(!found){\n            voters[msg.sender].push(_vAddress);\n        }\n        for (uint p = 0; p < proposals.length; p++) {\n            if (proposals[p].proposedAddress == _vAddress) {\n                proposals[p].voteCount += 1;\n                result = (proposals[p].voteCount * 100) / aCounter;\n                if(result >= 50){\n                   registerAirlineByVote(_vName, _vAddress);\n                   proposals[p].active = false;\n                }\n                break;\n            }\n        }\n    }\n\n\n    /********************************************************************************************/\n    /*                                  KEYS GENEARTOR FUNCTIONS                                */\n    /********************************************************************************************/\n    function getFlightKey(//address _airline, \n        string memory _flight, uint _timestamp) pure internal returns(bytes32){\n        return keccak256(abi.encodePacked(//_airline, \n            _flight, _timestamp));\n    \n    }\n    \n    function getInsuranceKey(address _passengerAddress, bytes32 _flightKey) pure internal returns(bytes32) {\n        bytes32 _addressToBytes32 = bytes32(uint256(uint160(_passengerAddress)) << 96);\n        return keccak256(abi.encodePacked(_addressToBytes32, _flightKey));\n    }\n\n\n    /********************************************************************************************/\n    /*                          SMART CONTRACT REGISTER FLIGHT FUNCTIONS                        */\n    /********************************************************************************************/\n    function registerFlight (string memory _flight, uint16 _year, uint8 _month, uint8 _day, uint8 _hour, uint8 _minute) external requireAuthorizedCaller() requireIsOperational() {\n        require(isParticipant(msg.sender), \"ERROR: CALLER IS NOT A PARTICIPANT\");\n        \n        uint _timestamp = getDateTime(_year, _month, _day, _hour, _minute);\n        require(_timestamp > block.timestamp + 172800, \"ERROR: FLIGHT TIME MUST BE AT LEAST 48 HOURS THAN NOW\");\n         \n        bytes32 flightKey = getFlightKey(//msg.sender, \n            _flight, _timestamp);\n        \n        require(flights[flightKey].airlineAddress == address(0), \"ERROR: FLIGHT ALREADY REGISTERED\");\n        \n        flights[flightKey] = Flight({\n            flightKey: flightKey,\n            flight: _flight,\n            active: true,\n            statusCode: 0,\n            updatedTimestamp: getDateTime(_year, _month, _day, _hour, _minute),\n            airlineAddress: msg.sender\n        });\n        \n        fCounter++;\n        flightsReverse[fCounter] = flightKey;\n    \n    }\n\n    function checkFlight(bytes32 _flightKey) external view requireAuthorizedCaller() requireIsOperational() returns(bool) {\n        bool _isRegistered;\n        if (flights[_flightKey].airlineAddress == address(0)) {\n            _isRegistered = false;\n        }\n        else {\n            _isRegistered = true;\n        }\n\n        return _isRegistered;\n    }\n\n    function updateFlightTimestamp(bytes32 _flightKey, uint256 _timestamp) external requireAuthorizedCaller() requireIsOperational()  {\n        flights[_flightKey].updatedTimestamp = _timestamp;\n    }\n\n    function updateFlightStatus(bytes32 _flightKey, uint8 _statusCode) external requireAuthorizedCaller() requireIsOperational()  {\n        flights[_flightKey].statusCode = _statusCode;\n    }\n\n    function getFlightStatus(bytes32 _flightKey) external view requireAuthorizedCaller() requireIsOperational() returns(uint8) {\n        return flights[_flightKey].statusCode;\n    }\n\n\n\n    /********************************************************************************************/\n    /*                              SMART CONTRACT BUYING FUNCTIONS                             */\n    /********************************************************************************************/\n    function buy(string memory _flight, uint16 _year, uint8 _month, uint8 _day, uint8 _hour, uint8 _minute) public payable checkPassengerValue() requireAuthorizedCaller() requireIsOperational() {\n        require(!isRegistered(msg.sender) && msg.sender != contractOwner, \"ERROR: CALLER IS NOT ALLOWED TO BUY INSURANCE\");\n        \n        uint _timestamp = getDateTime(_year, _month, _day, _hour, _minute);\n        \n        bytes32 flightKey = getFlightKey(//msg.sender, \n            _flight, _timestamp);\n        \n        require(keccak256(abi.encodePacked(flights[flightKey].flight)) == keccak256(abi.encodePacked(_flight)), \"ERROR: FLIGHT NOT FOUND\");\n        \n        address _airlineAddress = flights[flightKey].airlineAddress;\n\n        bytes32 _insuranceKey = getInsuranceKey(msg.sender, flightKey);\n        \n        require(insurances[_insuranceKey].flightKey != flightKey, \"ERROR: PASSENGER ALREADY BOUGHT THIS FLIGHT INSURANCE\");\n        contractOwner.transfer(msg.value);\n        iCounter ++;\n        insurances[_insuranceKey] = Insurance(\n            {\n                insuranceKey: _insuranceKey,\n                flightKey: flightKey,\n                passengerAddress: payable(msg.sender),\n                amountPaid: msg.value,\n                amountAvailable: 0,\n                claimable: false,\n                active: true\n            }\n        );\n        insurancesReverse[iCounter] = _insuranceKey;\n\n        airlines[_airlineAddress].fundAvailable = SafeMath.add(airlines[_airlineAddress].fundAvailable, msg.value);\n        airlines[_airlineAddress].fundCommitted = SafeMath.div(SafeMath.mul(msg.value, 15), 10);\n        \n    }\n\n    /**\n     *  @dev Credits payouts to insurees\n    */\n    function creditInsurees(bytes32 _flightKey) external requireAuthorizedCaller() requireIsOperational() {\n        bytes32 _insuranceKey = getInsuranceKey(msg.sender, _flightKey);\n        require(insurances[_insuranceKey].flightKey == _flightKey, \"ERROR: INSURANCE NOT FOUND\");\n        require(insurances[_insuranceKey].claimable, \"ERROR: NOTHING TO CLAIM\");\n\n        address _airlineAddress = flights[_flightKey].airlineAddress;\n        uint _amountPaid = insurances[_insuranceKey].amountPaid;\n        uint _amountToCredit = SafeMath.div(SafeMath.mul(_amountPaid, 15), 10);\n\n        uint _fundAvailable = airlines[_airlineAddress].fundAvailable;\n        uint _fundCommitted = airlines[_airlineAddress].fundCommitted;\n\n        insurances[_insuranceKey].amountAvailable = _amountToCredit;\n\n        airlines[_airlineAddress].fundAvailable = SafeMath.sub(_fundAvailable, _amountToCredit);\n        airlines[_airlineAddress].fundCommitted = SafeMath.sub(_fundCommitted, _amountToCredit);\n    }\n    \n\n    /**\n     *  @dev Transfers eligible payout funds to insuree\n     *\n    */\n    function pay(bytes32 _flightKey) public payable requireIsOperational() {\n        bytes32 _insuranceKey = getInsuranceKey(msg.sender, _flightKey);\n        payable(msg.sender).transfer(insurances[_insuranceKey].amountAvailable);\n    }\n\n   /**\n    * @dev Initial funding for the insurance. Unless there are too many delayed flights\n    *      resulting in insurance payouts, the contract should be self-sustaining\n    *\n    */   \n\n    // function getFlightKey(address airline, string memory flight, uint256 timestamp) pure internal returns(bytes32) {\n    //     return keccak256(abi.encodePacked(airline, flight, timestamp));\n    // }\n\n    /**\n    * @dev Fallback function for funding smart contract.\n    *\n    */\n    fallback() external payable {\n    }\n    \n    receive() external payable {\n    }\n\n\n    /********************************************************************************************/\n    /*                               SMART CONTRACT CHECK FUNCTIONS                             */\n    /********************************************************************************************/\n    function checkAirlines(address _airlineAddress) \n        public view requireAuthorizedCaller() requireIsOperational()\n        returns(string memory name_, address address_, bool registered_, bool participant_, bool controller_, uint fundavailable_, uint fundcommitted_)  \n    {\n        \n        return(airlines[_airlineAddress].airlineName\n            , airlines[_airlineAddress].airlineAddress\n            , airlines[_airlineAddress].registered\n            , airlines[_airlineAddress].participant\n            , airlines[_airlineAddress].controller\n            , airlines[_airlineAddress].fundAvailable\n            , airlines[_airlineAddress].fundCommitted\n        );\n    \n    }\n\n    function checkFlights(uint _flightId) \n        public view requireAuthorizedCaller() requireIsOperational()\n        returns(bytes32 key_, string memory flight_, bool active_, uint8 status_, uint256 timestamp_, address address_) \n    {\n        bytes32 _flightKey = flightsReverse[_flightId];\n        return(flights[_flightKey].flightKey\n            , flights[_flightKey].flight\n            , flights[_flightKey].active\n            , flights[_flightKey].statusCode\n            , flights[_flightKey].updatedTimestamp        \n            , flights[_flightKey].airlineAddress\n        );\n    \n    }\n\n    function checkCandidateAirlines() public view requireAuthorizedCaller() requireIsOperational() returns(Proposal[] memory ) {\n        return proposals;\n    }\n\n    function checkInsurances(uint _iId) public view requireAuthorizedCaller() requireIsOperational()\n        returns(bytes32 flightKey_, address passengerAddress_, uint amountPaid_, uint amountAvailable_, bool claimable_, bool active_) \n    {\n        bytes32 _insuranceKey = insurancesReverse[_iId];\n        return(insurances[_insuranceKey].flightKey\n            , insurances[_insuranceKey].passengerAddress\n            , insurances[_insuranceKey].amountPaid\n            , insurances[_insuranceKey].amountAvailable\n            , insurances[_insuranceKey].claimable\n            , insurances[_insuranceKey].active\n        );\n    }\n}",
  "sourcePath": "/Users/fernandomaximof/Documents/udacity-projects/project4/contracts/FlightSuretyData.sol",
  "compiler": {
    "name": "solc",
    "version": "0.8.11+commit.d7f03943.Emscripten.clang"
  },
  "schemaVersion": "3.4.3",
  "updatedAt": "2022-01-26T22:06:23.662Z",
  "devdoc": {
    "kind": "dev",
    "methods": {
      "creditInsurees(bytes32)": {
        "details": "Credits payouts to insurees"
      },
      "pay(bytes32)": {
        "details": "Transfers eligible payout funds to insuree"
      }
    },
    "version": 1
  },
  "userdoc": {
    "kind": "user",
    "methods": {},
    "version": 1
  }
}